{
  "contractName": "Contcatenation",
  "abi": [
    {
      "constant": true,
      "inputs": [
        {
          "internalType": "string",
          "name": "a",
          "type": "string"
        },
        {
          "internalType": "string",
          "name": "b",
          "type": "string"
        }
      ],
      "name": "append",
      "outputs": [
        {
          "internalType": "string",
          "name": "",
          "type": "string"
        }
      ],
      "payable": false,
      "stateMutability": "pure",
      "type": "function"
    }
  ],
  "bytecode": "0x608060405234801561001057600080fd5b506102f8806100206000396000f3fe608060405234801561001057600080fd5b506004361061002b5760003560e01c8063591c515f14610030575b600080fd5b6101806004803603604081101561004657600080fd5b810190808035906020019064010000000081111561006357600080fd5b82018360208201111561007557600080fd5b8035906020019184600183028401116401000000008311171561009757600080fd5b91908080601f016020809104026020016040519081016040528093929190818152602001838380828437600081840152601f19601f820116905080830192505050505050509192919290803590602001906401000000008111156100fa57600080fd5b82018360208201111561010c57600080fd5b8035906020019184600183028401116401000000008311171561012e57600080fd5b91908080601f016020809104026020016040519081016040528093929190818152602001838380828437600081840152601f19601f8201169050808301925050505050505091929192905050506101fb565b6040518080602001828103825283818151815260200191508051906020019080838360005b838110156101c05780820151818401526020810190506101a5565b50505050905090810190601f1680156101ed5780820380516001836020036101000a031916815260200191505b509250505060405180910390f35b606082826040516020018083805190602001908083835b602083106102355780518252602082019150602081019050602083039250610212565b6001836020036101000a03801982511681845116808217855250505050505090500182805190602001908083835b602083106102865780518252602082019150602081019050602083039250610263565b6001836020036101000a0380198251168184511680821785525050505050509050019250505060405160208183030381529060405290509291505056fea265627a7a72315820d4d897fe037c94b7ad9e7bda468fe758ae79621d9eb542c9a77a94827c82b7b464736f6c634300050c0032",
  "source": "pragma solidity >=0.4.22;\n\ncontract Contcatenation{\n\n    //converting uint to string\n    function uint2str(uint _i) internal pure returns (string memory _uintAsString) {\n        if (_i == 0) {\n            return \"0\";\n        }\n        uint j = _i;\n        uint len;\n        while (j != 0) {\n            len++;\n            j /= 10;\n        }\n        bytes memory bstr = new bytes(len);\n        uint k = len - 1;\n        while (_i != 0) {\n            bstr[k--] = byte(uint8(48 + _i % 10));\n            _i /= 10;\n        }\n        return string(bstr);\n    }\n\n\nfunction append(string memory a, string memory b) public pure returns (string memory) {\n\n    return string  (abi.encodePacked( a , b));\n\n\n}\n\n\n\n\n\n\n\n\n} \n",
  "sourcePath": "/Users/Mahsa/Documents/2020-Orderbook/Code/Truffle/contracts/Exchange/Contcatenation.sol",
  "compiler": {
    "name": "solc",
    "version": "0.5.12+commit.7709ece9.Emscripten.clang"
  },
  "schemaVersion": "3.0.23",
  "updatedAt": "2020-04-22T16:31:23.287Z",
  "networkType": "ethereum",
  "devdoc": {
    "methods": {}
  },
  "userdoc": {
    "methods": {}
  }
}