{
  "contractName": "DappToken",
  "abi": [
    {
      "inputs": [
        {
          "internalType": "uint256",
          "name": "_initialSupply",
          "type": "uint256"
        }
      ],
      "payable": false,
      "stateMutability": "nonpayable",
      "type": "constructor"
    },
    {
      "anonymous": false,
      "inputs": [
        {
          "indexed": true,
          "internalType": "address",
          "name": "_owner",
          "type": "address"
        },
        {
          "indexed": true,
          "internalType": "address",
          "name": "_spender",
          "type": "address"
        },
        {
          "indexed": false,
          "internalType": "uint256",
          "name": "_value",
          "type": "uint256"
        }
      ],
      "name": "Approval",
      "type": "event"
    },
    {
      "anonymous": false,
      "inputs": [
        {
          "indexed": true,
          "internalType": "address",
          "name": "_from",
          "type": "address"
        },
        {
          "indexed": true,
          "internalType": "address",
          "name": "_to",
          "type": "address"
        },
        {
          "indexed": false,
          "internalType": "uint256",
          "name": "_value",
          "type": "uint256"
        }
      ],
      "name": "Transfer",
      "type": "event"
    },
    {
      "constant": true,
      "inputs": [
        {
          "internalType": "address",
          "name": "",
          "type": "address"
        },
        {
          "internalType": "address",
          "name": "",
          "type": "address"
        }
      ],
      "name": "allowance",
      "outputs": [
        {
          "internalType": "uint256",
          "name": "",
          "type": "uint256"
        }
      ],
      "payable": false,
      "stateMutability": "view",
      "type": "function"
    },
    {
      "constant": true,
      "inputs": [
        {
          "internalType": "address",
          "name": "",
          "type": "address"
        }
      ],
      "name": "balanceOf",
      "outputs": [
        {
          "internalType": "uint256",
          "name": "",
          "type": "uint256"
        }
      ],
      "payable": false,
      "stateMutability": "view",
      "type": "function"
    },
    {
      "constant": true,
      "inputs": [],
      "name": "name",
      "outputs": [
        {
          "internalType": "string",
          "name": "",
          "type": "string"
        }
      ],
      "payable": false,
      "stateMutability": "view",
      "type": "function"
    },
    {
      "constant": true,
      "inputs": [],
      "name": "standard",
      "outputs": [
        {
          "internalType": "string",
          "name": "",
          "type": "string"
        }
      ],
      "payable": false,
      "stateMutability": "view",
      "type": "function"
    },
    {
      "constant": true,
      "inputs": [],
      "name": "symbol",
      "outputs": [
        {
          "internalType": "string",
          "name": "",
          "type": "string"
        }
      ],
      "payable": false,
      "stateMutability": "view",
      "type": "function"
    },
    {
      "constant": true,
      "inputs": [],
      "name": "totalSupply",
      "outputs": [
        {
          "internalType": "uint256",
          "name": "",
          "type": "uint256"
        }
      ],
      "payable": false,
      "stateMutability": "view",
      "type": "function"
    },
    {
      "constant": false,
      "inputs": [
        {
          "internalType": "address",
          "name": "_to",
          "type": "address"
        },
        {
          "internalType": "uint256",
          "name": "_value",
          "type": "uint256"
        }
      ],
      "name": "transfer",
      "outputs": [
        {
          "internalType": "bool",
          "name": "success",
          "type": "bool"
        }
      ],
      "payable": false,
      "stateMutability": "nonpayable",
      "type": "function"
    },
    {
      "constant": false,
      "inputs": [
        {
          "internalType": "address",
          "name": "_spender",
          "type": "address"
        },
        {
          "internalType": "uint256",
          "name": "_value",
          "type": "uint256"
        }
      ],
      "name": "approve",
      "outputs": [
        {
          "internalType": "bool",
          "name": "success",
          "type": "bool"
        }
      ],
      "payable": false,
      "stateMutability": "nonpayable",
      "type": "function"
    },
    {
      "constant": false,
      "inputs": [
        {
          "internalType": "address",
          "name": "_from",
          "type": "address"
        },
        {
          "internalType": "address",
          "name": "_to",
          "type": "address"
        },
        {
          "internalType": "uint256",
          "name": "_value",
          "type": "uint256"
        }
      ],
      "name": "transferFrom",
      "outputs": [
        {
          "internalType": "bool",
          "name": "success",
          "type": "bool"
        }
      ],
      "payable": false,
      "stateMutability": "nonpayable",
      "type": "function"
    }
  ],
  "bytecode": "0x60806040526040518060400160405280600a81526020017f4461707020546f6b656e000000000000000000000000000000000000000000008152506000908051906020019061004f929190610179565b506040518060400160405280600481526020017f44415050000000000000000000000000000000000000000000000000000000008152506001908051906020019061009b929190610179565b506040518060400160405280600f81526020017f4461707020546f6b656e2076312e300000000000000000000000000000000000815250600290805190602001906100e7929190610179565b503480156100f457600080fd5b50604051610d94380380610d948339818101604052602081101561011757600080fd5b810190808051906020019092919050505080600460003373ffffffffffffffffffffffffffffffffffffffff1673ffffffffffffffffffffffffffffffffffffffff16815260200190815260200160002081905550806003819055505061021e565b828054600181600116156101000203166002900490600052602060002090601f016020900481019282601f106101ba57805160ff19168380011785556101e8565b828001600101855582156101e8579182015b828111156101e75782518255916020019190600101906101cc565b5b5090506101f591906101f9565b5090565b61021b91905b808211156102175760008160009055506001016101ff565b5090565b90565b610b678061022d6000396000f3fe608060405234801561001057600080fd5b50600436106100935760003560e01c80635a3b7e42116100665780635a3b7e421461022557806370a08231146102a857806395d89b4114610300578063a9059cbb14610383578063dd62ed3e146103e957610093565b806306fdde0314610098578063095ea7b31461011b57806318160ddd1461018157806323b872dd1461019f575b600080fd5b6100a0610461565b6040518080602001828103825283818151815260200191508051906020019080838360005b838110156100e05780820151818401526020810190506100c5565b50505050905090810190601f16801561010d5780820380516001836020036101000a031916815260200191505b509250505060405180910390f35b6101676004803603604081101561013157600080fd5b81019080803573ffffffffffffffffffffffffffffffffffffffff169060200190929190803590602001909291905050506104ff565b604051808215151515815260200191505060405180910390f35b6101896105f1565b6040518082815260200191505060405180910390f35b61020b600480360360608110156101b557600080fd5b81019080803573ffffffffffffffffffffffffffffffffffffffff169060200190929190803573ffffffffffffffffffffffffffffffffffffffff169060200190929190803590602001909291905050506105f7565b604051808215151515815260200191505060405180910390f35b61022d610862565b6040518080602001828103825283818151815260200191508051906020019080838360005b8381101561026d578082015181840152602081019050610252565b50505050905090810190601f16801561029a5780820380516001836020036101000a031916815260200191505b509250505060405180910390f35b6102ea600480360360208110156102be57600080fd5b81019080803573ffffffffffffffffffffffffffffffffffffffff169060200190929190505050610900565b6040518082815260200191505060405180910390f35b610308610918565b6040518080602001828103825283818151815260200191508051906020019080838360005b8381101561034857808201518184015260208101905061032d565b50505050905090810190601f1680156103755780820380516001836020036101000a031916815260200191505b509250505060405180910390f35b6103cf6004803603604081101561039957600080fd5b81019080803573ffffffffffffffffffffffffffffffffffffffff169060200190929190803590602001909291905050506109b6565b604051808215151515815260200191505060405180910390f35b61044b600480360360408110156103ff57600080fd5b81019080803573ffffffffffffffffffffffffffffffffffffffff169060200190929190803573ffffffffffffffffffffffffffffffffffffffff169060200190929190505050610b0d565b6040518082815260200191505060405180910390f35b60008054600181600116156101000203166002900480601f0160208091040260200160405190810160405280929190818152602001828054600181600116156101000203166002900480156104f75780601f106104cc576101008083540402835291602001916104f7565b820191906000526020600020905b8154815290600101906020018083116104da57829003601f168201915b505050505081565b600081600560003373ffffffffffffffffffffffffffffffffffffffff1673ffffffffffffffffffffffffffffffffffffffff16815260200190815260200160002060008573ffffffffffffffffffffffffffffffffffffffff1673ffffffffffffffffffffffffffffffffffffffff168152602001908152602001600020819055508273ffffffffffffffffffffffffffffffffffffffff163373ffffffffffffffffffffffffffffffffffffffff167f8c5be1e5ebec7d5bd14f71427d1e84f3dd0314c0f7b2291e5b200ac8c7c3b925846040518082815260200191505060405180910390a36001905092915050565b60035481565b6000600460008573ffffffffffffffffffffffffffffffffffffffff1673ffffffffffffffffffffffffffffffffffffffff1681526020019081526020016000205482111561064557600080fd5b600560008573ffffffffffffffffffffffffffffffffffffffff1673ffffffffffffffffffffffffffffffffffffffff16815260200190815260200160002060003373ffffffffffffffffffffffffffffffffffffffff1673ffffffffffffffffffffffffffffffffffffffff168152602001908152602001600020548211156106ce57600080fd5b81600460008673ffffffffffffffffffffffffffffffffffffffff1673ffffffffffffffffffffffffffffffffffffffff1681526020019081526020016000206000828254039250508190555081600460008573ffffffffffffffffffffffffffffffffffffffff1673ffffffffffffffffffffffffffffffffffffffff1681526020019081526020016000206000828254019250508190555081600560008673ffffffffffffffffffffffffffffffffffffffff1673ffffffffffffffffffffffffffffffffffffffff16815260200190815260200160002060003373ffffffffffffffffffffffffffffffffffffffff1673ffffffffffffffffffffffffffffffffffffffff168152602001908152602001600020600082825403925050819055508273ffffffffffffffffffffffffffffffffffffffff168473ffffffffffffffffffffffffffffffffffffffff167fddf252ad1be2c89b69c2b068fc378daa952ba7f163c4a11628f55a4df523b3ef846040518082815260200191505060405180910390a3600190509392505050565b60028054600181600116156101000203166002900480601f0160208091040260200160405190810160405280929190818152602001828054600181600116156101000203166002900480156108f85780601f106108cd576101008083540402835291602001916108f8565b820191906000526020600020905b8154815290600101906020018083116108db57829003601f168201915b505050505081565b60046020528060005260406000206000915090505481565b60018054600181600116156101000203166002900480601f0160208091040260200160405190810160405280929190818152602001828054600181600116156101000203166002900480156109ae5780601f10610983576101008083540402835291602001916109ae565b820191906000526020600020905b81548152906001019060200180831161099157829003601f168201915b505050505081565b600081600460003373ffffffffffffffffffffffffffffffffffffffff1673ffffffffffffffffffffffffffffffffffffffff168152602001908152602001600020541015610a0457600080fd5b81600460003373ffffffffffffffffffffffffffffffffffffffff1673ffffffffffffffffffffffffffffffffffffffff1681526020019081526020016000206000828254039250508190555081600460008573ffffffffffffffffffffffffffffffffffffffff1673ffffffffffffffffffffffffffffffffffffffff168152602001908152602001600020600082825401925050819055508273ffffffffffffffffffffffffffffffffffffffff163373ffffffffffffffffffffffffffffffffffffffff167fddf252ad1be2c89b69c2b068fc378daa952ba7f163c4a11628f55a4df523b3ef846040518082815260200191505060405180910390a36001905092915050565b600560205281600052604060002060205280600052604060002060009150915050548156fea265627a7a723158205b0e2265ba735f352bad400ca8f637c0f4dfe34ccbe026af37ac4e31cd69252c64736f6c634300050c0032",
  "source": "pragma solidity >=0.4.22 <0.6.0;\n\ncontract DappToken{\n\n  string public name = \"Dapp Token\";        //Token name\n  string public symbol = \"DAPP\";            //Toekn symbol\n  string public standard = \"Dapp Token v1.0\";\n  uint256 public totalSupply;\n  \n  \n  mapping(address => uint256) public balanceOf;    //stores the balance of addresses. Every time a token is baught/sold/transferred, this mapping is responsible for knowing who has each token\n  mapping(address => mapping(address => uint256)) public allowance;   \n  //It keeps track of all of my appovals that I have approved for transferring tokens\n  //account A:  1)approved account B to spend 10 tokens\n  //            2)approved account C to spend 20 tokens\n  //            ...\n\n  event Transfer (address indexed _from, address indexed _to, uint256 _value);\n  event Approval (address indexed _owner, address indexed _spender, uint256 _value); //I (the owner) approved account spender to spend _value of my Dapp tokens o\n  \n  \n  \n  //constructor: Set the value and the number of the tokens that we have\n  //everytime the smart contract is deployed\n  //The following cobstructor accepts the total supply as function arguments\n  constructor (uint256 _initialSupply) public{\n  \n    balanceOf[msg.sender] = _initialSupply;   //allocates the initial supply\n    totalSupply = _initialSupply;          //the number of tokens that will exist and store it in a variable\n                                     \n  }\n\n\n//transfer function allows users to trasfer tokens and MUST fire the \"transfer event\"\n//The function SHOULD throw exception if the _from address does not have enough tokens to spend\nfunction transfer (address _to, uint256 _value) public returns (bool success){\n  require (balanceOf[msg.sender] >= _value);\n  balanceOf[msg.sender] -= _value;\n  balanceOf[_to] += _value;\n  emit Transfer(msg.sender, _to, _value);\n  return true; \n\n}\n\n//approve function: allows sb to approve another account to spend tokens on tehir behalf. You're basically approving the exchange to spend x tokens on your behalf\n//MUST trigger the approval event\nfunction approve (address _spender, uint256 _value) public returns (bool success){   //spender: the exchange\n  \n  allowance[msg.sender][_spender] = _value;       //set the allowance: the amount which _spender is still allowed to withdraw from _owner \n                                                  //Allowance: If I approve the exchange to spend x Dapp tokens on my belhaf, that x gets stored in allowance\n\n  emit Approval(msg.sender, _spender, _value);   //approve event\n  return true;\n\n}\n\n//Once you approve that transfer, the transferFrom function allows the exchange to do that\n//acts like a transfer but on behalf on another account\n//account A approved account B to spend _value \n//so account B calls transferFrom function to transfer _value tokens from account A to some account (_to)\nfunction transferFrom (address _from, address _to, uint256 _value) public returns (bool success){\n\n  require (_value <= balanceOf[_from]);               \n  require (_value <= allowance[_from][msg.sender]); \n  \n  balanceOf[_from] -= _value;  //update the balance of _from and _to\n  balanceOf[_to] += _value;     //update the balance of _from and _to\n  \n  allowance[_from][msg.sender] -= _value;   //update the allowance; ammount of tokens the exchange (msg.sender) can spend on behalf of _from account \n\n  emit Transfer(_from, _to, _value);   //transfer event: everytime there is a transfer happened we should emit an event\n\n  return true;\n\n}\n\n\n\n\n\n}",
  "sourcePath": "/Users/Mahsa/Documents/2020-Orderbook/Code/Truffle/contracts/CallMarket/DappToken.sol",
  "compiler": {
    "name": "solc",
    "version": "0.5.12+commit.7709ece9.Emscripten.clang"
  },
  "schemaVersion": "3.0.23",
  "updatedAt": "2020-04-16T16:08:39.300Z",
  "networkType": "ethereum",
  "devdoc": {
    "methods": {}
  },
  "userdoc": {
    "methods": {}
  }
}