{
  "contractName": "Escrow",
  "abi": [
    {
      "constant": true,
      "inputs": [
        {
          "internalType": "address",
          "name": "",
          "type": "address"
        },
        {
          "internalType": "address",
          "name": "",
          "type": "address"
        }
      ],
      "name": "escrowBalance",
      "outputs": [
        {
          "internalType": "uint256",
          "name": "",
          "type": "uint256"
        }
      ],
      "payable": false,
      "stateMutability": "view",
      "type": "function"
    },
    {
      "constant": true,
      "inputs": [
        {
          "internalType": "address",
          "name": "",
          "type": "address"
        },
        {
          "internalType": "address",
          "name": "",
          "type": "address"
        }
      ],
      "name": "escrowExpiration",
      "outputs": [
        {
          "internalType": "uint256",
          "name": "",
          "type": "uint256"
        }
      ],
      "payable": false,
      "stateMutability": "view",
      "type": "function"
    },
    {
      "constant": true,
      "inputs": [],
      "name": "escrowTime",
      "outputs": [
        {
          "internalType": "uint256",
          "name": "",
          "type": "uint256"
        }
      ],
      "payable": false,
      "stateMutability": "view",
      "type": "function"
    },
    {
      "constant": false,
      "inputs": [
        {
          "internalType": "address",
          "name": "_token",
          "type": "address"
        },
        {
          "internalType": "uint256",
          "name": "_amount",
          "type": "uint256"
        }
      ],
      "name": "deposit",
      "outputs": [],
      "payable": false,
      "stateMutability": "nonpayable",
      "type": "function"
    }
  ],
  "bytecode": "0x608060405234801561001057600080fd5b506103bf806100206000396000f3fe608060405234801561001057600080fd5b506004361061004c5760003560e01c806334006a151461005157806347e7ef24146100c95780638163129e146101175780639499be7614610135575b600080fd5b6100b36004803603604081101561006757600080fd5b81019080803573ffffffffffffffffffffffffffffffffffffffff169060200190929190803573ffffffffffffffffffffffffffffffffffffffff1690602001909291905050506101ad565b6040518082815260200191505060405180910390f35b610115600480360360408110156100df57600080fd5b81019080803573ffffffffffffffffffffffffffffffffffffffff169060200190929190803590602001909291905050506101d2565b005b61011f61035f565b6040518082815260200191505060405180910390f35b6101976004803603604081101561014b57600080fd5b81019080803573ffffffffffffffffffffffffffffffffffffffff169060200190929190803573ffffffffffffffffffffffffffffffffffffffff169060200190929190505050610365565b6040518082815260200191505060405180910390f35b6002602052816000526040600020602052806000526040600020600091509150505481565b8173ffffffffffffffffffffffffffffffffffffffff166323b872dd3330846040518463ffffffff1660e01b8152600401808473ffffffffffffffffffffffffffffffffffffffff1673ffffffffffffffffffffffffffffffffffffffff1681526020018373ffffffffffffffffffffffffffffffffffffffff1673ffffffffffffffffffffffffffffffffffffffff1681526020018281526020019350505050602060405180830381600087803b15801561028d57600080fd5b505af11580156102a1573d6000803e3d6000fd5b505050506040513d60208110156102b757600080fd5b81019080805190602001909291905050506102d157600080fd5b80600160003373ffffffffffffffffffffffffffffffffffffffff1673ffffffffffffffffffffffffffffffffffffffff16815260200190815260200160002060008473ffffffffffffffffffffffffffffffffffffffff1673ffffffffffffffffffffffffffffffffffffffff168152602001908152602001600020600082825401925050819055505050565b60005481565b600160205281600052604060002060205280600052604060002060009150915050548156fea265627a7a72315820fbbc055d000aa6251f8af0b5c141b8c1361a045b8ce9413857674d1c185fcf9064736f6c634300050c0032",
  "source": "//pragma solidity >=0.4.22 <0.6.0;\npragma solidity >=0.4.22;\n\n//import './DappToken.sol';\n\n//import \"http://github.com/OpenZeppelin/openzeppelin-solidity/contracts/token/ERC20/IERC20.sol\";\nimport \"openzeppelin-solidity/contracts/token/ERC20/IERC20.sol\";\n\n\n\n//import \"http://github.com/OpenZeppelin/openzeppelin-solidity/contracts/token/ERC20/SafeERC20.sol\";\n\n\n//import \"https://github.com/OpenZeppelin/openzeppelin-contracts/blob/master/contracts/token/ERC20/ERC20.sol\";\n\n\n//import \"http://github.com/theabyssportal/DAICO-Smart-Contract/blob/master/token/IERC20Token.sol\";\n\ncontract Escrow{\n    \n    uint256 public escrowTime;\n\n    /*constructor(uint256 _escrowTime) public {\n        escrowTime = _escrowTime;\n    }*/\n    \n    //To make the escrow fully general, the contract does not assume a specific ERC20 token, \n    //so a single account may escrow different tokens at the same time. \n    //For each (account, token) pair, the contract tracks its balance and the time when escrow expires:\n    //User => Token => balanace\n    mapping(address => mapping(address => uint256)) public escrowBalance;\n    mapping(address => mapping(address => uint256)) public escrowExpiration;\n    \n    function deposit(address _token, uint256 _amount) public {\n        \n        require(IERC20(_token).transferFrom(msg.sender, address(this), _amount));\n        escrowBalance[msg.sender][_token] += _amount;\n        \n    }\n    \n    \n    \n    \n    \n    \n    \n    \n    \n    \n    \n    \n    \n    \n    \n    \n    \n    \n    \n    \n    \n    \n    \n    /*DappToken token = DappToken(0xD04a9B31144d28E3A36C4eBCb99b9c79763f71f0);\n    // User => Token => Balance\n    mapping(address => mapping(address => uint256)) public escrowBalance; \n    uint256 public x;\n    //address public x;\n    \n    //function deposit (address _tokenAddr, uint256 _amount) public returns (bool){\n        function deposit (uint256 _amount) public payable returns (bool){\n        //require ()\n        //IERC20 tok = ERC20Token(_tokenAddr);\n        //require(IERC20(_tokenAddr).approve(address(this), _amount));\n        //IERC20(_tokenAddr).transferFrom (msg.sender, address(this), _amount);\n        //x = address(this);\n        //x = ERC20(_tokenAddr).balanceOf(msg.sender);\n        //escrowBalance[msg.sender][_tokenAddr] += x ;\n        //escrowBalance[msg.sender][_tokenAddr] += _amount;\n        \n        //token.transfer(address(this), _amount);\n        token.transferFrom (msg.sender, address(this), _amount);\n\n    }*/\n    \n    \n    \n\n}    ",
  "sourcePath": "/Users/Mahsa/Documents/2020-Orderbook/Code/Truffle/contracts/CallMarket/Add-ons/Escrow.sol",
  "compiler": {
    "name": "solc",
    "version": "0.5.12+commit.7709ece9.Emscripten.clang"
  },
  "schemaVersion": "3.1.0",
  "updatedAt": "2020-05-30T21:42:43.936Z",
  "networkType": "ethereum",
  "devdoc": {
    "methods": {}
  },
  "userdoc": {
    "methods": {}
  }
}