{
  "contractName": "Linkedlist",
  "abi": [
    {
      "inputs": [],
      "payable": false,
      "stateMutability": "nonpayable",
      "type": "constructor"
    },
    {
      "anonymous": false,
      "inputs": [
        {
          "indexed": false,
          "internalType": "address",
          "name": "item",
          "type": "address"
        },
        {
          "indexed": false,
          "internalType": "uint256",
          "name": "data",
          "type": "uint256"
        }
      ],
      "name": "LogItems",
      "type": "event"
    },
    {
      "constant": true,
      "inputs": [],
      "name": "first",
      "outputs": [
        {
          "internalType": "contract Item",
          "name": "",
          "type": "address"
        }
      ],
      "payable": false,
      "stateMutability": "view",
      "type": "function"
    },
    {
      "constant": true,
      "inputs": [
        {
          "internalType": "uint256",
          "name": "",
          "type": "uint256"
        }
      ],
      "name": "itemdata",
      "outputs": [
        {
          "internalType": "uint256",
          "name": "",
          "type": "uint256"
        }
      ],
      "payable": false,
      "stateMutability": "view",
      "type": "function"
    },
    {
      "constant": true,
      "inputs": [
        {
          "internalType": "uint256",
          "name": "",
          "type": "uint256"
        }
      ],
      "name": "itemlist",
      "outputs": [
        {
          "internalType": "address",
          "name": "",
          "type": "address"
        }
      ],
      "payable": false,
      "stateMutability": "view",
      "type": "function"
    },
    {
      "constant": false,
      "inputs": [],
      "name": "isEmpty",
      "outputs": [
        {
          "internalType": "bool",
          "name": "",
          "type": "bool"
        }
      ],
      "payable": false,
      "stateMutability": "nonpayable",
      "type": "function"
    },
    {
      "constant": false,
      "inputs": [
        {
          "internalType": "uint256",
          "name": "_key",
          "type": "uint256"
        }
      ],
      "name": "contains",
      "outputs": [
        {
          "internalType": "bool",
          "name": "",
          "type": "bool"
        }
      ],
      "payable": false,
      "stateMutability": "nonpayable",
      "type": "function"
    },
    {
      "constant": false,
      "inputs": [
        {
          "internalType": "uint256",
          "name": "_key",
          "type": "uint256"
        }
      ],
      "name": "remove",
      "outputs": [
        {
          "internalType": "contract Item",
          "name": "",
          "type": "address"
        }
      ],
      "payable": false,
      "stateMutability": "nonpayable",
      "type": "function"
    },
    {
      "constant": false,
      "inputs": [
        {
          "internalType": "uint256",
          "name": "_key",
          "type": "uint256"
        }
      ],
      "name": "insert",
      "outputs": [],
      "payable": false,
      "stateMutability": "nonpayable",
      "type": "function"
    },
    {
      "constant": false,
      "inputs": [],
      "name": "displaylist",
      "outputs": [],
      "payable": false,
      "stateMutability": "nonpayable",
      "type": "function"
    }
  ],
  "bytecode": "0x608060405234801561001057600080fd5b5060008060006101000a81548173ffffffffffffffffffffffffffffffffffffffff021916908373ffffffffffffffffffffffffffffffffffffffff160217905550611377806100616000396000f3fe608060405234801561001057600080fd5b50600436106100885760003560e01c806390b5561d1161005b57806390b5561d14610171578063a3554eba1461019f578063c16acafb1461020d578063c34052e01461024f57610088565b80633df4ddf41461008d5780634cc82215146100d7578063681fe70c14610145578063727941d614610167575b600080fd5b610095610295565b604051808273ffffffffffffffffffffffffffffffffffffffff1673ffffffffffffffffffffffffffffffffffffffff16815260200191505060405180910390f35b610103600480360360208110156100ed57600080fd5b81019080803590602001909291905050506102ba565b604051808273ffffffffffffffffffffffffffffffffffffffff1673ffffffffffffffffffffffffffffffffffffffff16815260200191505060405180910390f35b61014d610714565b604051808215151515815260200191505060405180910390f35b61016f61076b565b005b61019d6004803603602081101561018757600080fd5b8101908080359060200190929190505050610a3d565b005b6101cb600480360360208110156101b557600080fd5b8101908080359060200190929190505050610e30565b604051808273ffffffffffffffffffffffffffffffffffffffff1673ffffffffffffffffffffffffffffffffffffffff16815260200191505060405180910390f35b6102396004803603602081101561022357600080fd5b8101908080359060200190929190505050610e6c565b6040518082815260200191505060405180910390f35b61027b6004803603602081101561026557600080fd5b8101908080359060200190929190505050610e8d565b604051808215151515815260200191505060405180910390f35b6000809054906101000a900473ffffffffffffffffffffffffffffffffffffffff1681565b6000806000809054906101000a900473ffffffffffffffffffffffffffffffffffffffff16905060008090505b838273ffffffffffffffffffffffffffffffffffffffff166373d4a13a6040518163ffffffff1660e01b815260040160206040518083038186803b15801561032e57600080fd5b505afa158015610342573d6000803e3d6000fd5b505050506040513d602081101561035857600080fd5b8101908080519060200190929190505050146104b657600073ffffffffffffffffffffffffffffffffffffffff168273ffffffffffffffffffffffffffffffffffffffff16634c8fe5266040518163ffffffff1660e01b815260040160206040518083038186803b1580156103cc57600080fd5b505afa1580156103e0573d6000803e3d6000fd5b505050506040513d60208110156103f657600080fd5b810190808051906020019092919050505073ffffffffffffffffffffffffffffffffffffffff16141561042e5760009250505061070f565b8173ffffffffffffffffffffffffffffffffffffffff16634c8fe5266040518163ffffffff1660e01b815260040160206040518083038186803b15801561047457600080fd5b505afa158015610488573d6000803e3d6000fd5b505050506040513d602081101561049e57600080fd5b810190808051906020019092919050505091506102e7565b6000809054906101000a900473ffffffffffffffffffffffffffffffffffffffff1673ffffffffffffffffffffffffffffffffffffffff168273ffffffffffffffffffffffffffffffffffffffff1614156105f1576000809054906101000a900473ffffffffffffffffffffffffffffffffffffffff1673ffffffffffffffffffffffffffffffffffffffff16634c8fe5266040518163ffffffff1660e01b815260040160206040518083038186803b15801561057257600080fd5b505afa158015610586573d6000803e3d6000fd5b505050506040513d602081101561059c57600080fd5b81019080805190602001909291905050506000806101000a81548173ffffffffffffffffffffffffffffffffffffffff021916908373ffffffffffffffffffffffffffffffffffffffff160217905550610709565b8073ffffffffffffffffffffffffffffffffffffffff1663d7ef453f8373ffffffffffffffffffffffffffffffffffffffff16634c8fe5266040518163ffffffff1660e01b815260040160206040518083038186803b15801561065357600080fd5b505afa158015610667573d6000803e3d6000fd5b505050506040513d602081101561067d57600080fd5b81019080805190602001909291905050506040518263ffffffff1660e01b8152600401808273ffffffffffffffffffffffffffffffffffffffff1673ffffffffffffffffffffffffffffffffffffffff168152602001915050600060405180830381600087803b1580156106f057600080fd5b505af1158015610704573d6000803e3d6000fd5b505050505b81925050505b919050565b60008073ffffffffffffffffffffffffffffffffffffffff166000809054906101000a900473ffffffffffffffffffffffffffffffffffffffff1673ffffffffffffffffffffffffffffffffffffffff1614905090565b60008060009054906101000a900473ffffffffffffffffffffffffffffffffffffffff1690505b600073ffffffffffffffffffffffffffffffffffffffff168173ffffffffffffffffffffffffffffffffffffffff16146109605760018190806001815401808255809150509060018203906000526020600020016000909192909190916101000a81548173ffffffffffffffffffffffffffffffffffffffff021916908373ffffffffffffffffffffffffffffffffffffffff1602179055505060028173ffffffffffffffffffffffffffffffffffffffff166373d4a13a6040518163ffffffff1660e01b815260040160206040518083038186803b15801561087457600080fd5b505afa158015610888573d6000803e3d6000fd5b505050506040513d602081101561089e57600080fd5b810190808051906020019092919050505090806001815401808255809150509060018203906000526020600020016000909192909190915055508073ffffffffffffffffffffffffffffffffffffffff16634c8fe5266040518163ffffffff1660e01b815260040160206040518083038186803b15801561091e57600080fd5b505afa158015610932573d6000803e3d6000fd5b505050506040513d602081101561094857600080fd5b81019080805190602001909291905050509050610792565b60008090505b600180549050811015610a39577f9f85869f4dccf5976749d8568898e40354db42f9aec0297b9484d15d530078cc600182815481106109a157fe5b9060005260206000200160009054906101000a900473ffffffffffffffffffffffffffffffffffffffff16600283815481106109d957fe5b9060005260206000200154604051808373ffffffffffffffffffffffffffffffffffffffff1673ffffffffffffffffffffffffffffffffffffffff1681526020018281526020019250505060405180910390a18080600101915050610966565b5050565b600081604051610a4c9061108e565b80828152602001915050604051809103906000f080158015610a72573d6000803e3d6000fd5b50905060008060009054906101000a900473ffffffffffffffffffffffffffffffffffffffff16905060008090505b600073ffffffffffffffffffffffffffffffffffffffff168273ffffffffffffffffffffffffffffffffffffffff1614158015610b5d57508173ffffffffffffffffffffffffffffffffffffffff166373d4a13a6040518163ffffffff1660e01b815260040160206040518083038186803b158015610b1f57600080fd5b505afa158015610b33573d6000803e3d6000fd5b505050506040513d6020811015610b4957600080fd5b810190808051906020019092919050505084115b15610c81578190508173ffffffffffffffffffffffffffffffffffffffff1663d7ef453f8373ffffffffffffffffffffffffffffffffffffffff16634c8fe5266040518163ffffffff1660e01b815260040160206040518083038186803b158015610bc757600080fd5b505afa158015610bdb573d6000803e3d6000fd5b505050506040513d6020811015610bf157600080fd5b81019080805190602001909291905050506040518263ffffffff1660e01b8152600401808273ffffffffffffffffffffffffffffffffffffffff1673ffffffffffffffffffffffffffffffffffffffff168152602001915050600060405180830381600087803b158015610c6457600080fd5b505af1158015610c78573d6000803e3d6000fd5b50505050610aa1565b600073ffffffffffffffffffffffffffffffffffffffff168173ffffffffffffffffffffffffffffffffffffffff161415610cfb57826000806101000a81548173ffffffffffffffffffffffffffffffffffffffff021916908373ffffffffffffffffffffffffffffffffffffffff160217905550610d93565b8073ffffffffffffffffffffffffffffffffffffffff1663d7ef453f846040518263ffffffff1660e01b8152600401808273ffffffffffffffffffffffffffffffffffffffff1673ffffffffffffffffffffffffffffffffffffffff168152602001915050600060405180830381600087803b158015610d7a57600080fd5b505af1158015610d8e573d6000803e3d6000fd5b505050505b8273ffffffffffffffffffffffffffffffffffffffff1663d7ef453f836040518263ffffffff1660e01b8152600401808273ffffffffffffffffffffffffffffffffffffffff1673ffffffffffffffffffffffffffffffffffffffff168152602001915050600060405180830381600087803b158015610e1257600080fd5b505af1158015610e26573d6000803e3d6000fd5b5050505050505050565b60018181548110610e3d57fe5b906000526020600020016000915054906101000a900473ffffffffffffffffffffffffffffffffffffffff1681565b60028181548110610e7957fe5b906000526020600020016000915090505481565b6000806000809054906101000a900473ffffffffffffffffffffffffffffffffffffffff1690505b828173ffffffffffffffffffffffffffffffffffffffff166373d4a13a6040518163ffffffff1660e01b815260040160206040518083038186803b158015610efc57600080fd5b505afa158015610f10573d6000803e3d6000fd5b505050506040513d6020811015610f2657600080fd5b81019080805190602001909291905050501461108357600073ffffffffffffffffffffffffffffffffffffffff168173ffffffffffffffffffffffffffffffffffffffff16634c8fe5266040518163ffffffff1660e01b815260040160206040518083038186803b158015610f9a57600080fd5b505afa158015610fae573d6000803e3d6000fd5b505050506040513d6020811015610fc457600080fd5b810190808051906020019092919050505073ffffffffffffffffffffffffffffffffffffffff161415610ffb576000915050611089565b8073ffffffffffffffffffffffffffffffffffffffff16634c8fe5266040518163ffffffff1660e01b815260040160206040518083038186803b15801561104157600080fd5b505afa158015611055573d6000803e3d6000fd5b505050506040513d602081101561106b57600080fd5b81019080805190602001909291905050509050610eb5565b60019150505b919050565b6102a78061109c8339019056fe608060405234801561001057600080fd5b506040516102a73803806102a78339818101604052602081101561003357600080fd5b81019080805190602001909291905050508060018190555060008060006101000a81548173ffffffffffffffffffffffffffffffffffffffff021916908373ffffffffffffffffffffffffffffffffffffffff1602179055505061020b8061009c6000396000f3fe608060405234801561001057600080fd5b50600436106100575760003560e01c806313bdfacd1461005c5780634c8fe5261461007a57806373d4a13a146100c457806385d46bf1146100e2578063d7ef453f14610110575b600080fd5b610064610154565b6040518082815260200191505060405180910390f35b61008261015e565b604051808273ffffffffffffffffffffffffffffffffffffffff1673ffffffffffffffffffffffffffffffffffffffff16815260200191505060405180910390f35b6100cc610183565b6040518082815260200191505060405180910390f35b61010e600480360360208110156100f857600080fd5b8101908080359060200190929190505050610189565b005b6101526004803603602081101561012657600080fd5b81019080803573ffffffffffffffffffffffffffffffffffffffff169060200190929190505050610193565b005b6000600154905090565b6000809054906101000a900473ffffffffffffffffffffffffffffffffffffffff1681565b60015481565b8060018190555050565b806000806101000a81548173ffffffffffffffffffffffffffffffffffffffff021916908373ffffffffffffffffffffffffffffffffffffffff1602179055505056fea265627a7a72315820bf761f39beb3939100515badad85b91898ca653149183ca87a74f550a81202c864736f6c634300050c0032a265627a7a72315820098391ff228c69cde00606aa2b8db60abe7efad37176c4e66b4969c59ac3e77c64736f6c634300050c0032",
  "source": "pragma solidity >=0.4.22;\n\n\ncontract Linkedlist{\n    Item public first;\n    event LogItems(address item, uint data);\n    \n    constructor() public {\n        first = Item(0);\n \n    }\n\n    function isEmpty() public returns (bool){ //returns true if the list is empty\n        \n        return (first == Item(0));\n    }\n\n    function contains(uint _key) public returns (bool)  //returns true if the key is in the list\n    { \n        Item current = first;\n        while (current.data() != _key)\n        {\n            if (current.next() == Item(0))\n            {\n                return false; //we reach the end of the list and we dont find the _key, so we return false\n            }\n            else \n            {\n                current = current.next();\n            }\n        }\n        return true;\n    }\n    \n    \n    function remove(uint _key) public returns (Item)  \n    { \n        Item current = first;\n        Item previous = Item(0);\n        while (current.data() != _key)\n        {\n            if (current.next() == Item(0))\n            {\n                return Item(0); //we have not found the element so we return null\n            }\n            \n            else \n            {\n                current = current.next();\n            }\n        }\n        //we exit the while loop while we find the key\n        //now if have to check if the node we want to delete is the first node\n        if (current == first)\n        {   \n            first = first.next();\n            \n        }\n        else\n        {\n            previous.addNew(current.next());\n        }\n        return current;\n        \n    }\n\n    function insert(uint _key) public \n    {\n        Item newitem = new Item (_key);\n        Item current = first; \n        Item previous = Item(0);\n        \n        //we iterate through our list with 2 conditions:\n        while (current != Item(0) && _key > current.data()) //The linkedlist is sorted in an ascending order (increasing)\n        {\n            previous = current;\n            current.addNew(current.next());\n            \n        } // we only exit this loop if we find the position to insert our data;\n        \n        if (previous == Item(0)) //it means the current is equal to first and in that case we have to insert the node as a new head\n        {\n            first = newitem; \n        }\n        else //the node next to the prious is no longer the current but it's our new node\n        {\n            previous.addNew(newitem);\n        }\n        \n        //and in all cases regardless of if it's a first node or not, we must say we have to say the node next to our new node is current\n        \n        newitem.addNew(current);\n    }            \n    \n    address[]  public itemlist;\n    uint[] public itemdata;\n    function displaylist() public \n    {  \n        \n        Item current = first;\n        while (current != Item(0)) //while the list is not empty\n        {\n            \n            itemlist.push(address(current));\n            itemdata.push (current.data());\n            current = current.next() ;\n            \n            \n        }\n        for (uint i=0; i < itemlist.length; i++) \n        {\n            emit LogItems(itemlist[i], itemdata[i]);\n        }\n    }          \n        \n\n\n}        \n                \n    contract Item {\n    Item public next;\n    uint public data;\n    \n\n    constructor(uint _data) public {\n        \n        data = _data;\n        next = Item(0);\n    }\n\n    function addNew(Item item) public {\n        \n        next = item;\n       \n    }\n   \n    \n    function replacedata ( uint _data) public {\n        data = _data;\n        \n    }\n    \n\n    \n    function print () public returns (uint){\n        return data;\n        \n    }\n    \n    \n    \n    \n    \n    \n    \n    \n    \n    \n}\n        \n            \n        \n        \n        \n    \n\n\n            \n        \n\n        \n    \n    \n\n\n\n\n",
  "sourcePath": "/Users/Mahsa/Documents/2020-Orderbook/Code/Truffle/contracts/CallMarket/Sorted_linkedlist_V2.sol",
  "compiler": {
    "name": "solc",
    "version": "0.5.12+commit.7709ece9.Emscripten.clang"
  },
  "schemaVersion": "3.1.0",
  "updatedAt": "2020-05-30T15:31:24.336Z",
  "devdoc": {
    "methods": {}
  },
  "userdoc": {
    "methods": {}
  }
}