{
  "contractName": "Orderbook_New_1",
  "abi": [
    {
      "inputs": [],
      "payable": false,
      "stateMutability": "nonpayable",
      "type": "constructor"
    },
    {
      "anonymous": false,
      "inputs": [
        {
          "indexed": false,
          "internalType": "address",
          "name": "_sender",
          "type": "address"
        },
        {
          "indexed": false,
          "internalType": "uint256",
          "name": "_price",
          "type": "uint256"
        },
        {
          "indexed": false,
          "internalType": "uint256",
          "name": "_volume",
          "type": "uint256"
        }
      ],
      "name": "LogBuyList",
      "type": "event"
    },
    {
      "anonymous": false,
      "inputs": [
        {
          "indexed": false,
          "internalType": "uint256",
          "name": "_BuyPrice",
          "type": "uint256"
        },
        {
          "indexed": false,
          "internalType": "uint256",
          "name": "_SellPrice",
          "type": "uint256"
        }
      ],
      "name": "TradeHappens",
      "type": "event"
    },
    {
      "anonymous": false,
      "inputs": [
        {
          "indexed": false,
          "internalType": "address",
          "name": "_from",
          "type": "address"
        },
        {
          "indexed": false,
          "internalType": "address",
          "name": "_to",
          "type": "address"
        },
        {
          "indexed": false,
          "internalType": "uint256",
          "name": "_numofEther",
          "type": "uint256"
        }
      ],
      "name": "TransferEther",
      "type": "event"
    },
    {
      "anonymous": false,
      "inputs": [
        {
          "indexed": false,
          "internalType": "address",
          "name": "_from",
          "type": "address"
        },
        {
          "indexed": false,
          "internalType": "address",
          "name": "_to",
          "type": "address"
        },
        {
          "indexed": false,
          "internalType": "uint256",
          "name": "_numofTokens",
          "type": "uint256"
        }
      ],
      "name": "TransferToken",
      "type": "event"
    },
    {
      "constant": true,
      "inputs": [],
      "name": "BuyListCounter",
      "outputs": [
        {
          "internalType": "uint256",
          "name": "",
          "type": "uint256"
        }
      ],
      "payable": false,
      "stateMutability": "view",
      "type": "function"
    },
    {
      "constant": true,
      "inputs": [],
      "name": "CreationTime",
      "outputs": [
        {
          "internalType": "uint256",
          "name": "",
          "type": "uint256"
        }
      ],
      "payable": false,
      "stateMutability": "view",
      "type": "function"
    },
    {
      "constant": true,
      "inputs": [
        {
          "internalType": "address",
          "name": "",
          "type": "address"
        }
      ],
      "name": "EtherBalance",
      "outputs": [
        {
          "internalType": "uint256",
          "name": "",
          "type": "uint256"
        }
      ],
      "payable": false,
      "stateMutability": "view",
      "type": "function"
    },
    {
      "constant": true,
      "inputs": [],
      "name": "NumOrders",
      "outputs": [
        {
          "internalType": "uint256",
          "name": "",
          "type": "uint256"
        }
      ],
      "payable": false,
      "stateMutability": "view",
      "type": "function"
    },
    {
      "constant": true,
      "inputs": [],
      "name": "SellListCounter",
      "outputs": [
        {
          "internalType": "uint256",
          "name": "",
          "type": "uint256"
        }
      ],
      "payable": false,
      "stateMutability": "view",
      "type": "function"
    },
    {
      "constant": true,
      "inputs": [],
      "name": "Token",
      "outputs": [
        {
          "internalType": "address",
          "name": "",
          "type": "address"
        }
      ],
      "payable": false,
      "stateMutability": "view",
      "type": "function"
    },
    {
      "constant": true,
      "inputs": [
        {
          "internalType": "address",
          "name": "",
          "type": "address"
        },
        {
          "internalType": "address",
          "name": "",
          "type": "address"
        }
      ],
      "name": "TokenBalance",
      "outputs": [
        {
          "internalType": "uint256",
          "name": "",
          "type": "uint256"
        }
      ],
      "payable": false,
      "stateMutability": "view",
      "type": "function"
    },
    {
      "constant": true,
      "inputs": [],
      "name": "biddingTime",
      "outputs": [
        {
          "internalType": "uint256",
          "name": "",
          "type": "uint256"
        }
      ],
      "payable": false,
      "stateMutability": "view",
      "type": "function"
    },
    {
      "constant": false,
      "inputs": [
        {
          "internalType": "address",
          "name": "_token",
          "type": "address"
        },
        {
          "internalType": "uint256",
          "name": "_numofTokens",
          "type": "uint256"
        }
      ],
      "name": "DepositToken",
      "outputs": [
        {
          "internalType": "bool",
          "name": "",
          "type": "bool"
        }
      ],
      "payable": false,
      "stateMutability": "nonpayable",
      "type": "function"
    },
    {
      "constant": false,
      "inputs": [],
      "name": "DepositEther",
      "outputs": [
        {
          "internalType": "bool",
          "name": "",
          "type": "bool"
        }
      ],
      "payable": true,
      "stateMutability": "payable",
      "type": "function"
    },
    {
      "constant": false,
      "inputs": [
        {
          "internalType": "address",
          "name": "_token",
          "type": "address"
        }
      ],
      "name": "OpenMarket",
      "outputs": [
        {
          "internalType": "bool",
          "name": "",
          "type": "bool"
        }
      ],
      "payable": false,
      "stateMutability": "nonpayable",
      "type": "function"
    },
    {
      "constant": false,
      "inputs": [],
      "name": "CloseMarket",
      "outputs": [
        {
          "internalType": "bool",
          "name": "",
          "type": "bool"
        }
      ],
      "payable": false,
      "stateMutability": "nonpayable",
      "type": "function"
    },
    {
      "constant": false,
      "inputs": [],
      "name": "MatchOrders",
      "outputs": [
        {
          "internalType": "bool",
          "name": "",
          "type": "bool"
        }
      ],
      "payable": false,
      "stateMutability": "nonpayable",
      "type": "function"
    },
    {
      "constant": false,
      "inputs": [
        {
          "internalType": "address",
          "name": "_token",
          "type": "address"
        }
      ],
      "name": "claimTokens",
      "outputs": [
        {
          "internalType": "bool",
          "name": "",
          "type": "bool"
        }
      ],
      "payable": false,
      "stateMutability": "nonpayable",
      "type": "function"
    },
    {
      "constant": false,
      "inputs": [],
      "name": "claimEther",
      "outputs": [
        {
          "internalType": "bool",
          "name": "",
          "type": "bool"
        }
      ],
      "payable": false,
      "stateMutability": "nonpayable",
      "type": "function"
    },
    {
      "constant": false,
      "inputs": [
        {
          "internalType": "uint256",
          "name": "_price",
          "type": "uint256"
        },
        {
          "internalType": "uint256",
          "name": "_volume",
          "type": "uint256"
        }
      ],
      "name": "submitBid",
      "outputs": [
        {
          "internalType": "bool",
          "name": "",
          "type": "bool"
        }
      ],
      "payable": false,
      "stateMutability": "nonpayable",
      "type": "function"
    },
    {
      "constant": false,
      "inputs": [
        {
          "internalType": "uint256",
          "name": "_price",
          "type": "uint256"
        },
        {
          "internalType": "uint256",
          "name": "_volume",
          "type": "uint256"
        }
      ],
      "name": "submitAsk",
      "outputs": [
        {
          "internalType": "bool",
          "name": "",
          "type": "bool"
        }
      ],
      "payable": false,
      "stateMutability": "nonpayable",
      "type": "function"
    },
    {
      "constant": false,
      "inputs": [],
      "name": "BuyListPeak",
      "outputs": [
        {
          "components": [
            {
              "internalType": "address",
              "name": "Sender",
              "type": "address"
            },
            {
              "internalType": "uint256",
              "name": "Price",
              "type": "uint256"
            },
            {
              "internalType": "uint256",
              "name": "AuxPrice",
              "type": "uint256"
            },
            {
              "internalType": "uint256",
              "name": "Volume",
              "type": "uint256"
            }
          ],
          "internalType": "struct Orderbook_New_1.OrderStruct",
          "name": "",
          "type": "tuple"
        }
      ],
      "payable": false,
      "stateMutability": "nonpayable",
      "type": "function"
    },
    {
      "constant": false,
      "inputs": [],
      "name": "BuyListDelete",
      "outputs": [
        {
          "components": [
            {
              "internalType": "address",
              "name": "Sender",
              "type": "address"
            },
            {
              "internalType": "uint256",
              "name": "Price",
              "type": "uint256"
            },
            {
              "internalType": "uint256",
              "name": "AuxPrice",
              "type": "uint256"
            },
            {
              "internalType": "uint256",
              "name": "Volume",
              "type": "uint256"
            }
          ],
          "internalType": "struct Orderbook_New_1.OrderStruct",
          "name": "",
          "type": "tuple"
        }
      ],
      "payable": false,
      "stateMutability": "nonpayable",
      "type": "function"
    },
    {
      "constant": false,
      "inputs": [],
      "name": "SellListPeak",
      "outputs": [
        {
          "components": [
            {
              "internalType": "address",
              "name": "Sender",
              "type": "address"
            },
            {
              "internalType": "uint256",
              "name": "Price",
              "type": "uint256"
            },
            {
              "internalType": "uint256",
              "name": "AuxPrice",
              "type": "uint256"
            },
            {
              "internalType": "uint256",
              "name": "Volume",
              "type": "uint256"
            }
          ],
          "internalType": "struct Orderbook_New_1.OrderStruct",
          "name": "",
          "type": "tuple"
        }
      ],
      "payable": false,
      "stateMutability": "nonpayable",
      "type": "function"
    },
    {
      "constant": false,
      "inputs": [],
      "name": "SellListDelete",
      "outputs": [
        {
          "components": [
            {
              "internalType": "address",
              "name": "Sender",
              "type": "address"
            },
            {
              "internalType": "uint256",
              "name": "Price",
              "type": "uint256"
            },
            {
              "internalType": "uint256",
              "name": "AuxPrice",
              "type": "uint256"
            },
            {
              "internalType": "uint256",
              "name": "Volume",
              "type": "uint256"
            }
          ],
          "internalType": "struct Orderbook_New_1.OrderStruct",
          "name": "",
          "type": "tuple"
        }
      ],
      "payable": false,
      "stateMutability": "nonpayable",
      "type": "function"
    }
  ],
  "bytecode": "0x608060405261012c60075534801561001657600080fd5b506002600660006101000a81548160ff0219169083600281111561003657fe5b021790555061357e8061004a6000396000f3fe60806040526004361061012a5760003560e01c80637b873ac7116100ab578063c24126761161006f578063c241267614610413578063d074a38d1461043e578063d51991bd14610469578063df8de3e714610494578063ecd18e68146104d1578063ed6c7afa146104fc5761012a565b80637b873ac71461032a5780637bc826651461035557806390c6b18a14610380578063b4c1feee146103ab578063b821da1b146103d65761012a565b8063503f78c4116100f2578063503f78c41461022f5780635093803f1461025a57806355291dbd146102975780636be79bb9146102c25780637288a28a146102ed5761012a565b8063253a96e91461012f5780632d0c0a881461014d5780632f42ecb31461018a57806347da9052146101b557806347ea5004146101f2575b600080fd5b610137610527565b6040516101449190613364565b60405180910390f35b34801561015957600080fd5b50610174600480360361016f919081019061308d565b61057d565b6040516101819190613364565b60405180910390f35b34801561019657600080fd5b5061019f6106ab565b6040516101ac91906133bf565b60405180910390f35b3480156101c157600080fd5b506101dc60048036036101d79190810190613028565b610a33565b6040516101e991906133da565b60405180910390f35b3480156101fe57600080fd5b5061021960048036036102149190810190613051565b610a4b565b60405161022691906133da565b60405180910390f35b34801561023b57600080fd5b50610244610a70565b60405161025191906133bf565b60405180910390f35b34801561026657600080fd5b50610281600480360361027c9190810190613028565b610b76565b60405161028e9190613364565b60405180910390f35b3480156102a357600080fd5b506102ac610c31565b6040516102b99190613364565b60405180910390f35b3480156102ce57600080fd5b506102d7610d56565b6040516102e49190613364565b60405180910390f35b3480156102f957600080fd5b50610314600480360361030f91908101906130f2565b610f2a565b6040516103219190613364565b60405180910390f35b34801561033657600080fd5b5061033f611171565b60405161034c91906133da565b60405180910390f35b34801561036157600080fd5b5061036a611177565b60405161037791906133da565b60405180910390f35b34801561038c57600080fd5b5061039561117d565b6040516103a291906133da565b60405180910390f35b3480156103b757600080fd5b506103c0611183565b6040516103cd91906133da565b60405180910390f35b3480156103e257600080fd5b506103fd60048036036103f891908101906130f2565b611189565b60405161040a9190613364565b60405180910390f35b34801561041f57600080fd5b50610428611317565b60405161043591906132b2565b60405180910390f35b34801561044a57600080fd5b5061045361133d565b60405161046091906133da565b60405180910390f35b34801561047557600080fd5b5061047e611343565b60405161048b9190613364565b60405180910390f35b3480156104a057600080fd5b506104bb60048036036104b69190810190613028565b611370565b6040516104c89190613364565b60405180910390f35b3480156104dd57600080fd5b506104e6611595565b6040516104f391906133bf565b60405180910390f35b34801561050857600080fd5b50610511611699565b60405161051e91906133bf565b60405180910390f35b600034600960003373ffffffffffffffffffffffffffffffffffffffff1673ffffffffffffffffffffffffffffffffffffffff168152602001908152602001600020600082825401925050819055506001905090565b60008273ffffffffffffffffffffffffffffffffffffffff166323b872dd3330856040518463ffffffff1660e01b81526004016105bc939291906132cd565b602060405180830381600087803b1580156105d657600080fd5b505af11580156105ea573d6000803e3d6000fd5b505050506040513d601f19601f8201168201806040525061060e91908101906130c9565b61061757600080fd5b81600860003373ffffffffffffffffffffffffffffffffffffffff1673ffffffffffffffffffffffffffffffffffffffff16815260200190815260200160002060008573ffffffffffffffffffffffffffffffffffffffff1673ffffffffffffffffffffffffffffffffffffffff168152602001908152602001600020600082825401925050819055506001905092915050565b6106b3612fab565b60075460025401421015806106cb57506103e8600354145b156106fe576001600660006101000a81548160ff021916908360028111156106ef57fe5b02179055506106fc611343565b505b6000600180549050141561071157600080fd5b60018080549050141561084257610726612fab565b600160008154811061073457fe5b90600052602060002090600402016040518060800160405290816000820160009054906101000a900473ffffffffffffffffffffffffffffffffffffffff1673ffffffffffffffffffffffffffffffffffffffff1673ffffffffffffffffffffffffffffffffffffffff1681526020016001820154815260200160028201548152602001600382015481525050905060018054806107ce57fe5b6001900381819060005260206000209060040201600080820160006101000a81549073ffffffffffffffffffffffffffffffffffffffff0219169055600182016000905560028201600090556003820160009055505090556003600081548092919060019003919050555080915050610a30565b61084a612fab565b600160008154811061085857fe5b90600052602060002090600402016040518060800160405290816000820160009054906101000a900473ffffffffffffffffffffffffffffffffffffffff1673ffffffffffffffffffffffffffffffffffffffff1673ffffffffffffffffffffffffffffffffffffffff16815260200160018201548152602001600282015481526020016003820154815250509050600180808054905003815481106108fa57fe5b9060005260206000209060040201600160008154811061091657fe5b90600052602060002090600402016000820160009054906101000a900473ffffffffffffffffffffffffffffffffffffffff168160000160006101000a81548173ffffffffffffffffffffffffffffffffffffffff021916908373ffffffffffffffffffffffffffffffffffffffff16021790555060018201548160010155600282015481600201556003820154816003015590505060018054806109b757fe5b6001900381819060005260206000209060040201600080820160006101000a81549073ffffffffffffffffffffffffffffffffffffffff021916905560018201600090556002820160009055600382016000905550509055610a17611a20565b5060036000815480929190600190039190505550809150505b90565b60096020528060005260406000206000915090505481565b6008602052816000526040600020602052806000526040600020600091509150505481565b610a78612fab565b6007546002540142101580610a9057506103e8600354145b15610ac3576001600660006101000a81548160ff02191690836002811115610ab457fe5b0217905550610ac1611343565b505b60006001805490501415610ad657600080fd5b6001600081548110610ae457fe5b90600052602060002090600402016040518060800160405290816000820160009054906101000a900473ffffffffffffffffffffffffffffffffffffffff1673ffffffffffffffffffffffffffffffffffffffff1673ffffffffffffffffffffffffffffffffffffffff1681526020016001820154815260200160028201548152602001600382015481525050905090565b60006002806002811115610b8657fe5b600660009054906101000a900460ff166002811115610ba157fe5b14610bab57600080fd5b426002819055506000600660006101000a81548160ff02191690836002811115610bd157fe5b02179055506000600381905550600060058190555082600660016101000a81548173ffffffffffffffffffffffffffffffffffffffff021916908373ffffffffffffffffffffffffffffffffffffffff1602179055506001915050919050565b600080600960003373ffffffffffffffffffffffffffffffffffffffff1673ffffffffffffffffffffffffffffffffffffffff1681526020019081526020016000205411610c7e57600080fd5b6000600960003373ffffffffffffffffffffffffffffffffffffffff1673ffffffffffffffffffffffffffffffffffffffff1681526020019081526020016000205490506000600960003373ffffffffffffffffffffffffffffffffffffffff1673ffffffffffffffffffffffffffffffffffffffff168152602001908152602001600020819055503373ffffffffffffffffffffffffffffffffffffffff166108fc829081150290604051600060405180830381858888f19350505050158015610d4d573d6000803e3d6000fd5b50600191505090565b60006001806002811115610d6657fe5b600660009054906101000a900460ff166002811115610d8157fe5b14610d8b57600080fd5b60005b6000808054905014158015610da95750600060018054905014155b8015610dcb5750610db8610a70565b60200151610dc4611595565b6020015110155b15610ed0577ffb00699a67b47144786d59b485b8c9a3b5fe8a4c7de9853514722555d9837ba8610df9611595565b60200151610e05610a70565b60200151604051610e179291906133f5565b60405180910390a1610e27612fab565b610e2f611595565b9050610e39612fab565b610e41610a70565b9050610e7d81600001518360000151600660019054906101000a900473ffffffffffffffffffffffffffffffffffffffff168560600151611d46565b610eb782600001518260000151600660019054906101000a900473ffffffffffffffffffffffffffffffffffffffff168460200151611ed0565b610ebf611699565b50610ec86106ab565b505050610d8e565b6000808054905014610ee657610ee4611fe0565b505b600060018054905014610efd57610efb612133565b505b6002600660006101000a81548160ff02191690836002811115610f1c57fe5b021790555060019250505090565b60006007546002540142101580610f4457506103e8600354145b15610f77576001600660006101000a81548160ff02191690836002811115610f6857fe5b0217905550610f75611343565b505b6000806002811115610f8557fe5b600660009054906101000a900460ff166002811115610fa057fe5b14610faa57600080fd5b82600860003373ffffffffffffffffffffffffffffffffffffffff1673ffffffffffffffffffffffffffffffffffffffff1681526020019081526020016000206000600660019054906101000a900473ffffffffffffffffffffffffffffffffffffffff1673ffffffffffffffffffffffffffffffffffffffff1673ffffffffffffffffffffffffffffffffffffffff16815260200190815260200160002054101561105557600080fd5b60006060611075611065876122c6565b6110706005546122c6565b6123f3565b90506110808161241f565b915061108e33878488612498565b156111645760056000815480929190600101919050555060036000815480929190600101919050555084600860003373ffffffffffffffffffffffffffffffffffffffff1673ffffffffffffffffffffffffffffffffffffffff1681526020019081526020016000206000600660019054906101000a900473ffffffffffffffffffffffffffffffffffffffff1673ffffffffffffffffffffffffffffffffffffffff1673ffffffffffffffffffffffffffffffffffffffff168152602001908152602001600020600082825403925050819055505b6001935050505092915050565b60055481565b60035481565b60025481565b60045481565b600060075460025401421015806111a357506103e8600354145b156111d6576001600660006101000a81548160ff021916908360028111156111c757fe5b02179055506111d4611343565b505b60008060028111156111e457fe5b600660009054906101000a900460ff1660028111156111ff57fe5b1461120957600080fd5b838302600960003373ffffffffffffffffffffffffffffffffffffffff1673ffffffffffffffffffffffffffffffffffffffff16815260200190815260200160002054101561125757600080fd5b60006060611277611267876122c6565b6112726004546122c6565b6123f3565b90506112828161241f565b9150611290338784886125d2565b1561130a5760046000815480929190600190039190505550600360008154809291906001019190505550858502600960003373ffffffffffffffffffffffffffffffffffffffff1673ffffffffffffffffffffffffffffffffffffffff168152602001908152602001600020600082825403925050819055505b6001935050505092915050565b600660019054906101000a900473ffffffffffffffffffffffffffffffffffffffff1681565b60075481565b60006001600660006101000a81548160ff0219169083600281111561136457fe5b02179055506001905090565b600080600860003373ffffffffffffffffffffffffffffffffffffffff1673ffffffffffffffffffffffffffffffffffffffff16815260200190815260200160002060008473ffffffffffffffffffffffffffffffffffffffff1673ffffffffffffffffffffffffffffffffffffffff16815260200190815260200160002054116113fa57600080fd5b6000600860003373ffffffffffffffffffffffffffffffffffffffff1673ffffffffffffffffffffffffffffffffffffffff16815260200190815260200160002060008473ffffffffffffffffffffffffffffffffffffffff1673ffffffffffffffffffffffffffffffffffffffff1681526020019081526020016000205490506000600860003373ffffffffffffffffffffffffffffffffffffffff1673ffffffffffffffffffffffffffffffffffffffff16815260200190815260200160002060008573ffffffffffffffffffffffffffffffffffffffff1673ffffffffffffffffffffffffffffffffffffffff168152602001908152602001600020819055508273ffffffffffffffffffffffffffffffffffffffff1663a9059cbb33836040518363ffffffff1660e01b8152600401611538929190613304565b602060405180830381600087803b15801561155257600080fd5b505af1158015611566573d6000803e3d6000fd5b505050506040513d601f19601f8201168201806040525061158a91908101906130c9565b506001915050919050565b61159d612fab565b60075460025401421015806115b557506103e8600354145b156115e8576001600660006101000a81548160ff021916908360028111156115d957fe5b02179055506115e6611343565b505b6000808054905014156115fa57600080fd5b6000808154811061160757fe5b90600052602060002090600402016040518060800160405290816000820160009054906101000a900473ffffffffffffffffffffffffffffffffffffffff1673ffffffffffffffffffffffffffffffffffffffff1673ffffffffffffffffffffffffffffffffffffffff1681526020016001820154815260200160028201548152602001600382015481525050905090565b6116a1612fab565b60075460025401421015806116b957506103e8600354145b156116ec576001600660006101000a81548160ff021916908360028111156116dd57fe5b02179055506116ea611343565b505b6000808054905014156116fe57600080fd5b6001600080549050141561182f57611714612fab565b6000808154811061172157fe5b90600052602060002090600402016040518060800160405290816000820160009054906101000a900473ffffffffffffffffffffffffffffffffffffffff1673ffffffffffffffffffffffffffffffffffffffff1673ffffffffffffffffffffffffffffffffffffffff1681526020016001820154815260200160028201548152602001600382015481525050905060008054806117bb57fe5b6001900381819060005260206000209060040201600080820160006101000a81549073ffffffffffffffffffffffffffffffffffffffff0219169055600182016000905560028201600090556003820160009055505090556003600081548092919060019003919050555080915050611a1d565b611837612fab565b6000808154811061184457fe5b90600052602060002090600402016040518060800160405290816000820160009054906101000a900473ffffffffffffffffffffffffffffffffffffffff1673ffffffffffffffffffffffffffffffffffffffff1673ffffffffffffffffffffffffffffffffffffffff168152602001600182015481526020016002820154815260200160038201548152505090506000600160008054905003815481106118e857fe5b90600052602060002090600402016000808154811061190357fe5b90600052602060002090600402016000820160009054906101000a900473ffffffffffffffffffffffffffffffffffffffff168160000160006101000a81548173ffffffffffffffffffffffffffffffffffffffff021916908373ffffffffffffffffffffffffffffffffffffffff16021790555060018201548160010155600282015481600201556003820154816003015590505060008054806119a457fe5b6001900381819060005260206000209060040201600080820160006101000a81549073ffffffffffffffffffffffffffffffffffffffff021916905560018201600090556002820160009055600382016000905550509055611a0461270c565b5060036000815480929190600190039190505550809150505b90565b60006007546002540142101580611a3a57506103e8600354145b15611a6d576001600660006101000a81548160ff02191690836002811115611a5e57fe5b0217905550611a6b611343565b505b600080905060006001826002020190505b600180549050811015611d3d5760008190506000600183019050600180549050811015611af35760018381548110611ab257fe5b90600052602060002090600402016001015460018281548110611ad157fe5b9060005260206000209060040201600101541015611af25781806001019250505b5b60018481548110611b0057fe5b90600052602060002090600402016001015460018381548110611b1f57fe5b9060005260206000209060040201600101541015611d2f57611b3f612fab565b60018581548110611b4c57fe5b90600052602060002090600402016040518060800160405290816000820160009054906101000a900473ffffffffffffffffffffffffffffffffffffffff1673ffffffffffffffffffffffffffffffffffffffff1673ffffffffffffffffffffffffffffffffffffffff1681526020016001820154815260200160028201548152602001600382015481525050905060018381548110611be857fe5b906000526020600020906004020160018681548110611c0357fe5b90600052602060002090600402016000820160009054906101000a900473ffffffffffffffffffffffffffffffffffffffff168160000160006101000a81548173ffffffffffffffffffffffffffffffffffffffff021916908373ffffffffffffffffffffffffffffffffffffffff1602179055506001820154816001015560028201548160020155600382015481600301559050508060018481548110611ca757fe5b906000526020600020906004020160008201518160000160006101000a81548173ffffffffffffffffffffffffffffffffffffffff021916908373ffffffffffffffffffffffffffffffffffffffff16021790555060208201518160010155604082015181600201556060820151816003015590505082945060018560020201935050611d36565b5050611d3d565b5050611a7e565b60019250505090565b80600860008673ffffffffffffffffffffffffffffffffffffffff1673ffffffffffffffffffffffffffffffffffffffff16815260200190815260200160002060008473ffffffffffffffffffffffffffffffffffffffff1673ffffffffffffffffffffffffffffffffffffffff168152602001908152602001600020541015611e05576040517f08c379a0000000000000000000000000000000000000000000000000000000008152600401611dfc9061339f565b60405180910390fd5b80600860008573ffffffffffffffffffffffffffffffffffffffff1673ffffffffffffffffffffffffffffffffffffffff16815260200190815260200160002060008473ffffffffffffffffffffffffffffffffffffffff1673ffffffffffffffffffffffffffffffffffffffff168152602001908152602001600020600082825401925050819055507f3844b7075ed6e7d4b61342769cb2b1b325cba410a62932affaa90aee247dadf5848483604051611ec29392919061332d565b60405180910390a150505050565b80600960008673ffffffffffffffffffffffffffffffffffffffff1673ffffffffffffffffffffffffffffffffffffffff168152602001908152602001600020541015611f52576040517f08c379a0000000000000000000000000000000000000000000000000000000008152600401611f499061337f565b60405180910390fd5b80600960008573ffffffffffffffffffffffffffffffffffffffff1673ffffffffffffffffffffffffffffffffffffffff168152602001908152602001600020600082825401925050819055507fbfb7efd7d5ea800a27a15d77272a7f3467a453990b2e81d1b7537725bb2ea166848483604051611fd29392919061332d565b60405180910390a150505050565b6000805b600080805490501461212b5760016000805490500390506000818154811061200857fe5b9060005260206000209060040201600101546000828154811061202757fe5b906000526020600020906004020160030154026009600080848154811061204a57fe5b906000526020600020906004020160000160009054906101000a900473ffffffffffffffffffffffffffffffffffffffff1673ffffffffffffffffffffffffffffffffffffffff1673ffffffffffffffffffffffffffffffffffffffff1681526020019081526020016000206000828254019250508190555060008054806120ce57fe5b6001900381819060005260206000209060040201600080820160006101000a81549073ffffffffffffffffffffffffffffffffffffffff021916905560018201600090556002820160009055600382016000905550509055611fe4565b600191505090565b6000805b6000600180549050146122be57600180805490500390506001818154811061215b57fe5b906000526020600020906004020160030154600860006001848154811061217e57fe5b906000526020600020906004020160000160009054906101000a900473ffffffffffffffffffffffffffffffffffffffff1673ffffffffffffffffffffffffffffffffffffffff1673ffffffffffffffffffffffffffffffffffffffff1681526020019081526020016000206000600660019054906101000a900473ffffffffffffffffffffffffffffffffffffffff1673ffffffffffffffffffffffffffffffffffffffff1673ffffffffffffffffffffffffffffffffffffffff16815260200190815260200160002060008282540192505081905550600180548061226157fe5b6001900381819060005260206000209060040201600080820160006101000a81549073ffffffffffffffffffffffffffffffffffffffff021916905560018201600090556002820160009055600382016000905550509055612137565b600191505090565b6060600082141561230e576040518060400160405280600181526020017f300000000000000000000000000000000000000000000000000000000000000081525090506123ee565b600082905060005b60008214612338578080600101915050600a828161233057fe5b049150612316565b6060816040519080825280601f01601f19166020018201604052801561236d5781602001600182028038833980820191505090505b50905060006001830390505b600086146123e657600a868161238b57fe5b0660300160f81b828280600190039350815181106123a557fe5b60200101907effffffffffffffffffffffffffffffffffffffffffffffffffffffffffffff1916908160001a905350600a86816123de57fe5b049550612379565b819450505050505b919050565b6060828260405160200161240892919061328e565b604051602081830303815290604052905092915050565b6000606082905060008060009050600091505b825182101561248d57600083838151811061244957fe5b602001015160f81c60f81b60f81c60ff1690506030811015801561246e575060398111155b1561247f5760308103600a83020191505b508180600101925050612432565b809350505050919050565b600060075460025401421015806124b257506103e8600354145b156124e5576001600660006101000a81548160ff021916908360028111156124d657fe5b02179055506124e3611343565b505b6124ed612fab565b60405180608001604052808773ffffffffffffffffffffffffffffffffffffffff1681526020018681526020018581526020018481525090506001819080600181540180825580915050906001820390600052602060002090600402016000909192909190915060008201518160000160006101000a81548173ffffffffffffffffffffffffffffffffffffffff021916908373ffffffffffffffffffffffffffffffffffffffff1602179055506020820151816001015560408201518160020155606082015181600301555050506125c4612a32565b506001915050949350505050565b600060075460025401421015806125ec57506103e8600354145b1561261f576001600660006101000a81548160ff0219169083600281111561261057fe5b021790555061261d611343565b505b612627612fab565b60405180608001604052808773ffffffffffffffffffffffffffffffffffffffff1681526020018681526020018581526020018481525090506000819080600181540180825580915050906001820390600052602060002090600402016000909192909190915060008201518160000160006101000a81548173ffffffffffffffffffffffffffffffffffffffff021916908373ffffffffffffffffffffffffffffffffffffffff1602179055506020820151816001015560408201518160020155606082015181600301555050506126fe612cee565b506001915050949350505050565b6000600754600254014210158061272657506103e8600354145b15612759576001600660006101000a81548160ff0219169083600281111561274a57fe5b0217905550612757611343565b505b600080905060006001826002020190505b600080549050811015612a2957600081905060006001830190506000805490508110156127df576000838154811061279e57fe5b906000526020600020906004020160010154600082815481106127bd57fe5b90600052602060002090600402016001015411156127de5781806001019250505b5b600082815481106127ec57fe5b9060005260206000209060040201600101546000858154811061280b57fe5b9060005260206000209060040201600101541015612a1b5761282b612fab565b6000858154811061283857fe5b90600052602060002090600402016040518060800160405290816000820160009054906101000a900473ffffffffffffffffffffffffffffffffffffffff1673ffffffffffffffffffffffffffffffffffffffff1673ffffffffffffffffffffffffffffffffffffffff16815260200160018201548152602001600282015481526020016003820154815250509050600083815481106128d457fe5b9060005260206000209060040201600086815481106128ef57fe5b90600052602060002090600402016000820160009054906101000a900473ffffffffffffffffffffffffffffffffffffffff168160000160006101000a81548173ffffffffffffffffffffffffffffffffffffffff021916908373ffffffffffffffffffffffffffffffffffffffff160217905550600182015481600101556002820154816002015560038201548160030155905050806000848154811061299357fe5b906000526020600020906004020160008201518160000160006101000a81548173ffffffffffffffffffffffffffffffffffffffff021916908373ffffffffffffffffffffffffffffffffffffffff16021790555060208201518160010155604082015181600201556060820151816003015590505082945060018560020201935050612a22565b5050612a29565b505061276a565b60019250505090565b60006007546002540142101580612a4c57506103e8600354145b15612a7f576001600660006101000a81548160ff02191690836002811115612a7057fe5b0217905550612a7d611343565b505b6000600180805490500390505b6000811115612ce657600060026001830381612aa457fe5b04905060018181548110612ab457fe5b90600052602060002090600402016001015460018381548110612ad357fe5b9060005260206000209060040201600101541015612cda57612af3612fab565b60018381548110612b0057fe5b90600052602060002090600402016040518060800160405290816000820160009054906101000a900473ffffffffffffffffffffffffffffffffffffffff1673ffffffffffffffffffffffffffffffffffffffff1673ffffffffffffffffffffffffffffffffffffffff1681526020016001820154815260200160028201548152602001600382015481525050905060018281548110612b9c57fe5b906000526020600020906004020160018481548110612bb757fe5b90600052602060002090600402016000820160009054906101000a900473ffffffffffffffffffffffffffffffffffffffff168160000160006101000a81548173ffffffffffffffffffffffffffffffffffffffff021916908373ffffffffffffffffffffffffffffffffffffffff1602179055506001820154816001015560028201548160020155600382015481600301559050508060018381548110612c5b57fe5b906000526020600020906004020160008201518160000160006101000a81548173ffffffffffffffffffffffffffffffffffffffff021916908373ffffffffffffffffffffffffffffffffffffffff16021790555060208201518160010155604082015181600201556060820151816003015590505081925050612ce0565b50612ce6565b50612a8c565b600191505090565b60006007546002540142101580612d0857506103e8600354145b15612d3b576001600660006101000a81548160ff02191690836002811115612d2c57fe5b0217905550612d39611343565b505b600060016000805490500390505b6000811115612fa357600060026001830381612d6157fe5b04905060008181548110612d7157fe5b90600052602060002090600402016001015460008381548110612d9057fe5b9060005260206000209060040201600101541115612f9757612db0612fab565b60008381548110612dbd57fe5b90600052602060002090600402016040518060800160405290816000820160009054906101000a900473ffffffffffffffffffffffffffffffffffffffff1673ffffffffffffffffffffffffffffffffffffffff1673ffffffffffffffffffffffffffffffffffffffff1681526020016001820154815260200160028201548152602001600382015481525050905060008281548110612e5957fe5b906000526020600020906004020160008481548110612e7457fe5b90600052602060002090600402016000820160009054906101000a900473ffffffffffffffffffffffffffffffffffffffff168160000160006101000a81548173ffffffffffffffffffffffffffffffffffffffff021916908373ffffffffffffffffffffffffffffffffffffffff1602179055506001820154816001015560028201548160020155600382015481600301559050508060008381548110612f1857fe5b906000526020600020906004020160008201518160000160006101000a81548173ffffffffffffffffffffffffffffffffffffffff021916908373ffffffffffffffffffffffffffffffffffffffff16021790555060208201518160010155604082015181600201556060820151816003015590505081925050612f9d565b50612fa3565b50612d49565b600191505090565b6040518060800160405280600073ffffffffffffffffffffffffffffffffffffffff1681526020016000815260200160008152602001600081525090565b600081359050612ff8816134f6565b92915050565b60008151905061300d8161350d565b92915050565b60008135905061302281613524565b92915050565b60006020828403121561303a57600080fd5b600061304884828501612fe9565b91505092915050565b6000806040838503121561306457600080fd5b600061307285828601612fe9565b925050602061308385828601612fe9565b9150509250929050565b600080604083850312156130a057600080fd5b60006130ae85828601612fe9565b92505060206130bf85828601613013565b9150509250929050565b6000602082840312156130db57600080fd5b60006130e984828501612ffe565b91505092915050565b6000806040838503121561310557600080fd5b600061311385828601613013565b925050602061312485828601613013565b9150509250929050565b6131378161348d565b82525050565b61314681613445565b82525050565b61315581613445565b82525050565b61316481613457565b82525050565b60006131758261341e565b61317f818561343a565b935061318f8185602086016134c3565b80840191505092915050565b60006131a8601b83613429565b91507f496e73756666696369656e742045746865722062616c616e63652e00000000006000830152602082019050919050565b60006131e8601b83613429565b91507f496e73756666696369656e7420546f6b656e2062616c616e63652e00000000006000830152602082019050919050565b608082016000820151613231600085018261313d565b5060208201516132446020850182613270565b5060408201516132576040850182613270565b50606082015161326a6060850182613270565b50505050565b61327981613483565b82525050565b61328881613483565b82525050565b600061329a828561316a565b91506132a6828461316a565b91508190509392505050565b60006020820190506132c7600083018461314c565b92915050565b60006060820190506132e2600083018661312e565b6132ef602083018561314c565b6132fc604083018461327f565b949350505050565b6000604082019050613319600083018561312e565b613326602083018461327f565b9392505050565b6000606082019050613342600083018661314c565b61334f602083018561314c565b61335c604083018461327f565b949350505050565b6000602082019050613379600083018461315b565b92915050565b600060208201905081810360008301526133988161319b565b9050919050565b600060208201905081810360008301526133b8816131db565b9050919050565b60006080820190506133d4600083018461321b565b92915050565b60006020820190506133ef600083018461327f565b92915050565b600060408201905061340a600083018561327f565b613417602083018461327f565b9392505050565b600081519050919050565b600082825260208201905092915050565b600081905092915050565b600061345082613463565b9050919050565b60008115159050919050565b600073ffffffffffffffffffffffffffffffffffffffff82169050919050565b6000819050919050565b60006134988261349f565b9050919050565b60006134aa826134b1565b9050919050565b60006134bc82613463565b9050919050565b60005b838110156134e15780820151818401526020810190506134c6565b838111156134f0576000848401525b50505050565b6134ff81613445565b811461350a57600080fd5b50565b61351681613457565b811461352157600080fd5b50565b61352d81613483565b811461353857600080fd5b5056fea365627a7a72315820b541a686c3464eede659a9fe6238a30fa4e9a61e4a1aa9e98de9d3900a29a8b06c6578706572696d656e74616cf564736f6c634300050c0040",
  "source": "pragma solidity >=0.4.22;\npragma experimental ABIEncoderV2;\n\nimport \"openzeppelin-solidity/contracts/token/ERC20/IERC20.sol\";\n\n\n//call martket, collateralized\ncontract Orderbook_New_1{\n\n\n//****************************************************//\n//********String Converaion and Contcatenation********//\n//****************************************************//\n\n//****************  str2uint() function ***************************//\n    function str2uint (string memory s) internal pure returns (uint) {\n        bytes memory b = bytes(s);\n        uint i;\n        uint result = 0;\n        for (i = 0; i < b.length; i++) {\n            uint c = uint(uint8(b[i]));\n            if (c >= 48 && c <= 57) {\n                result = result * 10 + (c - 48);\n            }\n        }\n    \n        return result;\n    }\n//****************  uint2str() function ***************************//\n    function uint2str(uint _i) internal pure returns (string memory _uintAsString) {\n        if (_i == 0) {\n            return \"0\";\n        }\n        uint j = _i;\n        uint len;\n        while (j != 0) {\n            len++;\n            j /= 10;\n        }\n        bytes memory bstr = new bytes(len);\n        uint k = len - 1;\n        while (_i != 0) {\n            bstr[k--] = byte(uint8(48 + _i % 10));\n            _i /= 10;\n        }\n        return string(bstr);\n    }\n//****************  contcat() function ***************************//    \n    function contcat(string memory a, string memory b) internal pure returns (string memory) {\n\n        return string (abi.encodePacked( a , b));\n    }\n\n//****************************************************//\n//****************************************************//\n//****************************************************//\n//constructor: Set the state the auctions as Settled\n  constructor () public{\n    state = States.Settled;   \n  }\n\n//**************** OrderStruct ***************************//\n//Every order has some attributes:\n    struct OrderStruct \n    {\n        address Sender;\n        uint256 Price;\n        uint256 AuxPrice;   //This is not the real price of the order, it's the contcantenation of the real price and the counter which helps to sort the heap wehen there are ties\n        uint256 Volume;     //The volume is 1 for now\n        \n    }\n\n//****************************************************//\n\n    OrderStruct[] BuyList;  //The array that contains Bid OrderStructs (descending (decremental)), we always want the highest bid (maxheap)\n    OrderStruct[] SellList; //The array that contains Ask OrderStructs (ascending (incremental)), we always want the lowest ask (minheap)\n    \n    \n    enum States {Opened, Closed, Settled} \n    //Opened: biddingTime, Settlement has not yet started.\n    //Closed: biddingTimes over, Settlements satrted and not finished yet.\n    //Settled: biddingTime and Settlement are both over , which means the auction is ended and everything is wiped and settled\n    \n    uint256 public CreationTime;\n    uint256 public NumOrders;        //Number of all the orders within the auction\n    uint256 public BuyListCounter;   //the counter for BuyList which sorts the order incrementally\n    uint256 public SellListCounter;  //the counter for SellList which sorts the order decrementally\n    States state;\n    address public Token;            //The token that is being traded in the auction\n\n\n\n    uint public biddingTime = 5 minutes;\n\n    event LogBuyList (address _sender, uint256 _price, uint256 _volume);\n    event TransferToken (address _from, address _to, uint256 _numofTokens);\n    event TransferEther (address _from, address _to, uint256 _numofEther);\n    event TradeHappens (uint256 _BuyPrice, uint256 _SellPrice);\n\n\n//**********************************************//\n//***************Function Modifiers*************//\n//**********************************************//\n \n    //Checks if the auction should be closed or not.\n    modifier CheckAuctionStage () {\n        //if (Auctions[_AuctionID].isValue == false) {Auctions[_AuctionID].state = States.UnInitiallized;}\n        if (now >= CreationTime + biddingTime || NumOrders == 1000) \n        {\n            state = States.Closed;\n            CloseMarket();\n            \n        }\n        _;\n    }\n\n//**********************************************// \n    //Checks wether the auction is at state_1 or not (Check this again! Seems to be the same thing with the one above)\n    modifier AuctionAtStage (States state_1 ) { \n        require (state == state_1); \n        _;\n    }\n//**********************************************// \n\n\n\n//**********************************************//\n//*********Escrow Variables and Functions*******//\n//**********************************************//\n    \n    //To make the escrow fully general, the contract does not assume a specific ERC20 token, \n    //so a single account may escrow different tokens at the same time. \n    //For each (account, token) pair, the contract tracks its balance and the time when escrow expires:\n    //User (Sellers) => Token => balanace\n    mapping(address => mapping(address => uint256)) public TokenBalance;\n    //mapping(address => mapping(address => uint256)) public escrowExpiration;\n    \n    //User (Biders) => balance(Ether)\n    mapping(address => uint256) public EtherBalance;\n\n//**************DepositToken() Function*********************//   \n    //The token holder must first approve the amount to the exchange contract by calling the approve() from the ERC20 token contract\n    function DepositToken(address _token, uint256 _numofTokens) public returns (bool) {\n        \n        require(IERC20(_token).transferFrom(msg.sender, address(this), _numofTokens));\n        TokenBalance[msg.sender][_token] += _numofTokens;\n        return true;\n    \n    }\n//**************DepositEther() Function*********************//    \n    \n    function DepositEther() public payable returns (bool) {\n        EtherBalance[msg.sender] += msg.value;\n        return true;\n        \n    }\n\n\n//******************** OpenMarket function ********************//\n    //To open a market(auction) on an specific token, user has to call OpenMarket() function and pass the address of ERC20 token to it\n    function OpenMarket(address _token) public \n    AuctionAtStage(States.Settled)\n    returns (bool) {\n    \n        \n        CreationTime = now; \n        state = States.Opened;\n        NumOrders = 0;\n        SellListCounter = 0;\n        Token = _token;\n        \n        return true;\n\n    }\n\n//******************** CloseMarket() function ********************//\n    \n    function CloseMarket() public returns (bool){\n        //MatchOrders(_AuctionID);\n        state = States.Closed;\n        return true;\n                                                                                                                                                                                                                                                                                                                                                                                                                                                                                                                                                                                                                                                                                                                                                                                                                                                                                                                                                                                                                                                                                                                                                                                                                                                                                                                                                                                                                                                                                                                                                                                                                                                                                                                                                                                                                                                                                                                                                                                                                                                                                                                                                                                                                                                                                                                                                                                                                                                                                                                                                                                                                                                                                                                                                                                                                                                                                                                                                                                                                                                                                                                                                                                                                                                                                                                                                                                                                                                                                                                                                                                                                                                                                                                                                                                                                                                                                                                                                                                                                                                                                                                                                                                                                                                                                                                                                                                                                                                                                                                                                                                                                                                                                                                                                                                                                                                                                                                                                                                                                                                                                                                                                                                                                                                                                                                                                                                                                                                                                                                                                                                                                                                                                                                                                                                                                                                                                                                                                                                                                                                                                                                                                                                                                                                                                                                                                                                                                                                                                                                                                                                                                                                                                                                                                                                                                                                                                                                                                                                                                                                                                                                                                                                                                                                                                                                                                                                                                                                                                                                                                                                                                                                                                                                                                                                                                                                                                                                                                                                                                                                                                                                                                                                                                                                                                                                                                                                                                                                                                                                                                                                                                                                                                                                                                                                                                                                                                                                                                                                                                                                                                                                                                                                                                                                                                                                                                                                                                                                                                                                                                                                                                                                                                                                                                                                                                                                                                                                                                                                                                                                                                                                                                                                                                                                                                                                                                                                                                                                                                                                                                                                                                                                                                                                                                                                                                                                                                                                                                                                                                                                                                                                                                                                                                                                                                                                                                                                                                                                                                                                                                                                                                                                                                                                                                                                                                                                                                                                                                                                                                                                                                                                                                                                                                                                                                                                                                                                                                                                                                                                                                                                                                                                                                                                                                                                                                                                                                                                                                                                                                                                                                                                                                                                                                                                                                                                                                                                                                                                                                                                                                                                                                                                                                                                                                                                                                                                                                                                                                                                                                                                                                                                                                                                                                                                                                                                                                                                                                                                                                                                                                                                                                                                                                                                                                                                                                                                                                                                                                                                                                                                                                                                                                                                                                                                                                                                                                                                                                                                                                                                                                                                                                                                                                                                                                                                                                                                                                                                                                                                                                                                                                                                                                                                                                                                                                                                                                                                                                                                                                                                                                                                                                                                                                                                                                                                                                                                                                                                                                                                                                                                                                                                                                                                                                                                                                                                                                                                                                                                                                                                                                                                                                                                                                                                                                                                                                                                                                                                                                                                                                                                                                                                                                                                                                                                                                                                                                                                                                                                                                                                                                                                                                                                                                                                                                                                                                                                                                                                                                                                                                                                                                                                                                                                                                                                                                                                                                                                                                                                                                                                                                                                                                                                                                                                                                                                                                                                                                                                                                                                                                                                                                                                                                                                                                                                                                                                                                                                                                                                                                                                                                                                                                                                                                                                                                                                                                                                                                                                                                                                                                                                                                                                                                                                                                                                                                                                                                                                                                                                                                                                                                                                                                                                                                                                                                                                                                                                                                                                                                                                                                                                                                                                                                                                                                                                                                                                                                                                                                                                                                                                                                                                                                                                                                                                                                                                                                                                                                                                                                                                                                                                                                                                                                                                                                                                                                                                                                                                                                                                                                                                                                                                                                                                                                                                                                                                                                                                                                                                                                                                                                                                                                                                                                                                                                                                                                                                                                                                                 \n    }\n//******************** MatchOrders() function ********************//\n    function MatchOrders() public AuctionAtStage (States.Closed) returns (bool){\n  \n        uint256 refund;\n        \n           \n        while (BuyList.length != 0 &&SellList.length != 0 && BuyListPeak().Price >= SellListPeak().Price)\n        {\n            \n            \n            \n            emit TradeHappens (BuyListPeak().Price, SellListPeak().Price);\n            OrderStruct memory temp_BestBid = BuyListPeak();\n            OrderStruct memory temp_BestAsk = SellListPeak();\n            transferToken (temp_BestAsk.Sender, temp_BestBid.Sender, Token, temp_BestBid.Volume);\n            transferEther (temp_BestBid.Sender,temp_BestAsk.Sender, Token, temp_BestAsk.Price );\n            \n            \n            \n            //Pays the difference to the miner\n            /*if (temp_BestBid.Price - temp_BestAsk.Price != 0) \n            {\n                EtherBalance[block.coinbase] += temp_BestBid.Price - temp_BestAsk.Price;\n                refund = EtherBalance[block.coinbase]; \n                EtherBalance[block.coinbase] = 0; \n                block.coinbase.transfer(refund);\n            }*/\n             \n        \n            BuyListDelete();\n            SellListDelete();\n            \n        }\n        \n        if (BuyList.length != 0)\n        {\n            Rrefund_unexecuted_Buy_orders();\n        }\n        \n        if (SellList.length != 0)\n        {\n           Rrefund_unexecuted_Sell_orders(); \n        }\n        \n        state = States.Settled;\n        return true;\n\n        \n    }\n    //******************** Rrefund_unexecuted_Buy_orders function ********************//\n    //After trades happened in the MatchOrders() function, following function will be called to refund the deposited \"Ethers\" for those trades that did not happen\n    function Rrefund_unexecuted_Buy_orders () internal returns (bool) {\n\n        \n        uint i;\n        while (BuyList.length != 0)\n        {\n            i = BuyList.length - 1;\n            EtherBalance[BuyList[i].Sender] += BuyList[i].Volume * BuyList[i].Price;\n            BuyList.pop();\n            \n            \n        }\n        \n        return true;\n    }\n    \n    //******************** Rrefund_unexecuted_Sell_orders function ********************//\n    //After trades happened in the MatchOrders() function, following function will be called to refund the deposited \"tokens\" for those trades that did not happen\n    function Rrefund_unexecuted_Sell_orders () internal returns (bool) {\n        \n        \n        \n        uint i;\n        while (SellList.length != 0)\n        {\n            i = SellList.length - 1;\n            TokenBalance[SellList[i].Sender][Token] += SellList[i].Volume;\n            SellList.pop();\n           \n            \n        }\n        \n        return true;\n    }\n  \n//******************** transferToken() & transferEther() internal ********************//    \n    //These two functions are fired During the order matching \n    function transferToken( address _fromSeller, address _toBuyer, address _token, uint256 _numofTokens) internal\n    {\n        require(TokenBalance[_fromSeller][_token] >= _numofTokens,  \"Insufficient Token balance.\");\n\n        //TokenBalance[_fromSeller][_token] -= _numofTokens;\n        TokenBalance[_toBuyer][_token] += _numofTokens;\n        emit TransferToken (_fromSeller, _toBuyer, _numofTokens);\n    }\n//******************************************************//    \n    function transferEther( address _fromBuyer, address _toSeller, address _token, uint256 _numofEthers) internal\n    {\n        require(EtherBalance[_fromBuyer] >= _numofEthers,  \"Insufficient Ether balance.\");\n\n        //EtherBalance[_fromBuyer] -= _numofEthers;\n        EtherBalance[_toSeller] += _numofEthers;\n        emit TransferEther (_fromBuyer, _toSeller, _numofEthers);\n    } \n//******************************************************// \n\n\n//******************** claimTokens() & claimEther() ********************//\n    //traders can claim their tokens or ethers uisng the following two functions\n\n    function claimTokens (address _token) public returns (bool)\n    {\n        require (TokenBalance[msg.sender][_token] > 0);\n        uint tokensToBeClaimed = TokenBalance[msg.sender][_token] ;\n        TokenBalance[msg.sender][_token] = 0;\n        IERC20(_token).transfer(msg.sender, tokensToBeClaimed);\n        return true;\n    }\n//******************************************************//      \n    function claimEther () public returns (bool)\n    {\n        require (EtherBalance[msg.sender] > 0);\n        uint EthersToBeClaimed = EtherBalance[msg.sender] ;\n        EtherBalance[msg.sender]  = 0;\n        msg.sender.transfer(EthersToBeClaimed);\n        return true;\n    }    \n\n \n\n//******************** submitBid() function ********************//\n    //submitBid function calls the maxheap_insert function    \n    //The Bidder must first deposit enough Ether in the exachange (DepositEther())\n    function submitBid (uint256 _price, uint256 _volume) public\n    CheckAuctionStage ()\n    AuctionAtStage (States.Opened)\n    returns (bool)\n    {\n        require (EtherBalance[msg.sender] >= _volume * _price );\n        \n        uint256 _finalpriceUint;\n        string memory _finalpriceString;\n        _finalpriceString = contcat ( uint2str(_price), uint2str (BuyListCounter));\n        _finalpriceUint = str2uint (_finalpriceString);\n        \n        \n        if (maxheap_insert(msg.sender, _price, _finalpriceUint, _volume)){\n            BuyListCounter--;\n            NumOrders++;\n            EtherBalance[msg.sender] -= _volume * _price;\n            \n        }\n        \n    \n        return true;\n    }\n\n//******************** submitask() function ********************//\n    //submitAsk function calls the minheap_insert function\n    //The Bidder must first deposit enough Token in the exachange (DepositToken())\n    function submitAsk (uint256 _price, uint256 _volume ) public \n    CheckAuctionStage () \n    AuctionAtStage (States.Opened)\n    returns (bool)\n    {\n        require( TokenBalance[msg.sender][Token] >= _volume);\n        \n        uint256 _finalpriceUint;\n        string memory _finalpriceString;\n        _finalpriceString = contcat ( uint2str(_price), uint2str (SellListCounter));\n        _finalpriceUint = str2uint (_finalpriceString);\n        \n        if (minheap_insert(msg.sender, _price, _finalpriceUint, _volume))\n        {\n                SellListCounter++;\n                NumOrders++;\n                TokenBalance[msg.sender][Token] -= _volume;\n        }\n        \n        return true;\n\n    }\n//*****************************************************************//\n//*******************  maxheap Functions (BuyList) ****************//\n//*****************************************************************//\n\n\n//*******************  maxheap_insert () ***************************//\n    //the new item will be added to the end of the array list (a buy order is submitted)\n    //then heapified up with a call to heapifyUp method\n    function maxheap_insert (address _sender, uint256 _price, uint256 _auxPrice, uint256 _volume) internal \n    CheckAuctionStage ()\n    returns (bool)\n    {\n        \n        OrderStruct memory neworder = OrderStruct(_sender, _price , _auxPrice, _volume);\n        BuyList.push(neworder);\n        maxheap_heapifyUp ();\n        return true;\n    }    \n//*******************  maxheap_heapifyUp () ***************************//\n    //this function is called everytime we insert a new element to the end of the array (aka a new Buy order is submitted) and\n    //now the heap has to be sorted again\n    function maxheap_heapifyUp () internal \n    CheckAuctionStage ()\n    returns (bool) {\n    \n        uint256 k = BuyList.length - 1;                   //k is set to be the last entry of the array (also heap) which is the element that's just added and has to be moved up\n        while (k > 0){                                  //while we havent reached to the top of the heap\n            uint256 p = (k-1)/2;                           //we need to compute the parent of this last element which is p = (k-1)/2\n            if (BuyList[k].Price > BuyList[p].Price) //if the element is greater than its parent\n            {   //\"!SYNTAX!\"\n                //Orderbook_V9.swap(SellList, k, p);              //swap the element at index k with its parent\n                OrderStruct memory temp = BuyList[k];    //\"!SYNTAX!\"//swap the element at index k with its parent\n                BuyList[k] = BuyList[p];\n                BuyList[p] = temp;\n                k = p;                                  //k moves up one level\n            }\n            else {break;}                               //if not the break statement exits the loop (it continues until no element index k is not greater than its parent)\n        }\n        return true;\n    }\n//*******************  maxheap_heapifyDown () ***************************//\n    //when we want to remove an element from the heap we remove the root of the heap and add the last item\n    //to the root and reorder the heap again\n    function maxheap_heapifyDown () internal \n    CheckAuctionStage ()\n    returns (bool)\n    {\n        uint256 k =0;\n        uint256 leftchild = 2*k + 1;\n        while (leftchild < BuyList.length)\n        {                                   //as long as the left child is within the array that heap is stored in\n            uint max = leftchild;\n            uint rightchild = leftchild + 1;                                     //rightchild = 2k+2\n\n            if (rightchild < BuyList.length)                                       //if there is a rightchild\n            {\n                if (BuyList[rightchild].Price > BuyList[leftchild].Price)    //then the right child and left child are compared\n                {\n                    max++;                                                       //now max is set to rightchild, otherwise max remains to be the leftchild\n                }\n            }\n\n        if (BuyList[k].Price < BuyList[max].Price)                        //compares the k item with the max item and if k is smaller than its greatest children they are swapped\n        {\n            //swap k with its greatest children (max)\n            //\"!SYNTAX!\"\n            //Orderbook_V9.swap (SellList, k, max);\n            OrderStruct memory temp = BuyList[k];    //\"!SYNTAX!\"//swap the element at index k with its parent\n            BuyList[k] = BuyList[max];\n            BuyList[max] = temp;\n            k = max;                                                         //k is set to max\n            leftchild =2*k + 1;                                              //l is recompuetd in preparation for the next iteration\n        }\n        else{                                                               //if the k item is not smaller than the max item, heapifyDown should stop\n            break;\n            }\n        }\n        return true;\n    }\n    \n//****************   BuyListpeak()  *********************//\n    //BuyListpeak function returns the highest priority element (The highest bid)\n    function BuyListPeak() public  \n    CheckAuctionStage ()\n    returns (OrderStruct memory){\n\n        require(BuyList.length != 0); //throws exception if the maxheap (BuyList) is empty\n        return (BuyList[0]);\n    }\n    \n    //Function Overloading: When BuyListpeak() is called from inside of the MatchingOrder(), it recieves an array as paramater  \n    function BuyListPeak(OrderStruct[] memory _array) internal view returns (OrderStruct memory){\n\n        require(_array.length != 0); //throws exception if the list is empty\n        return (_array[0]);\n    }\n    \n//*******************  maxheap_delete () ***************************//\n    //the highest priority item will be removed from the list and is returned by the function\n    //then the heap is reordered uising the heapifyDown method\n    function BuyListDelete () public \n    CheckAuctionStage ()\n    returns (OrderStruct memory) \n    {\n        if (BuyList.length == 0) { revert(); }                             //the delete function throws exception if the heap is empty\n        if (BuyList.length == 1) {                                      //if the heap has only one items\n                     \n            OrderStruct memory result =  BuyList[0];\n            \n            BuyList.pop();                                                 //the only element of the heap is removed and returned \n            NumOrders --;\n            return result;     \n       \n        }\n\n        //if neither of these conditions are true, then there are at least 2 items in the heap and deletion proceeds\n        OrderStruct memory result =  BuyList[0];\n        BuyList[0] = BuyList[BuyList.length -1]; //the last elementof the heap is removed and written into the first position\n        BuyList.pop();\n        //Auctions[_AuctionID].BuyList.length--;\n        maxheap_heapifyDown(); //now the siftdown is called\n        NumOrders --;\n        return result;\n    }\n    \n//*****************************************************************//\n//*******************  minheap Functions (SellList) ****************//\n//*****************************************************************//\n\n//*******************  minheap_insert () ***************************//\n    //the new item will be added to the end of the array list (a buy order is submitted)\n    //then heapified up with a call to heapifyUp method\n    function minheap_insert (address _sender, uint256 _price, uint256 _auxPrice, uint256 _volume) internal \n    CheckAuctionStage ()\n    returns (bool)\n    {\n        OrderStruct memory neworder = OrderStruct(_sender, _price , _auxPrice, _volume); \n        SellList.push(neworder);\n        minheap_heapifyUp();\n        return true;\n    }\n\n//*******************  minheap_heapifyUp () ***************************//\n    //this function is called everytime we insert a new element to the end of the array (aka a new sell order is submitted) and\n    //now the heap has to be sorted again\n    function minheap_heapifyUp () internal \n    CheckAuctionStage ()\n    returns (bool) {\n\n        uint256 k = SellList.length - 1; //k is set to be the last entry of the array(also heap) which is the element that's just added and has to be moved up\n        while (k > 0){                                      //while we havent reached to the top of the heap\n            uint256 p = (k-1)/2;                            //we need to compute the parent of this last element which is p = (k-1)/2\n            if (SellList[k].Price < SellList[p].Price) //if the element is greater than its parent\n            { \n            \n                OrderStruct memory temp = SellList[k];    //swap the element at index k with its parent\n                SellList[k] = SellList[p];\n                SellList[p] = temp;\n                \n                k = p; //k moves up one level\n            }\n            else {break;} //if not the break statement exits the loop (it continues until no element index k is not greater than its parent)\n        }\n        \n        return true;\n    }\n//*******************  minheap_heapifyDown () ***************************//\n    //when we want to remove an element from the heap we remove the root of the heap and add the last item\n    //to the root and reorder the heap again\n    function minheap_heapifyDown () internal \n    CheckAuctionStage ()\n    returns (bool) {\n        uint256 k =0;\n        uint256 leftchild = 2*k + 1;\n        while (leftchild < SellList.length){               //as long as the left child is within the array that heap is stored in\n            uint256 min = leftchild;\n            uint256 rightchild = leftchild + 1;              //rightchild = 2k+2\n\n            if (rightchild < SellList.length)                //if there is a rightchild, then the right child and left child are compared\n            {\n                if (SellList[rightchild].Price < SellList[leftchild].Price)\n                {    min++;   }                               //now min is set to rightchild, otherwise min remains to be the leftchild\n            }\n\n            if (SellList[min].Price < SellList[k].Price) //compares the k item with the max item and if its less they are swapped\n            {\n                //swap (BuyList, k, min); //swap k with its smaller children\n                \n                OrderStruct memory temp = SellList[k];    //\"!SYNTAX!\"//swap the element at index k with its parent\n                SellList[k] = SellList[min];\n                SellList[min] = temp;\n\n                k = min; //k is set to min\n                leftchild = 2*k + 1; //l is recompuetd in preparation for the next iteration\n            }\n            else{ //if k item's smaller childer is not smaller than k item itself, heapifyDown should stop\n                break;\n            }\n\n        }\n        return true;\n    }\n\n//****************   SellListpeak()  *********************//\n    //SellListpeak function returns the highest priority element (The Lowest ask)\n    function SellListPeak() public \n    CheckAuctionStage ()\n    returns (OrderStruct memory){\n\n        require(SellList.length != 0); //throws exception if the minheap (SellList) is empty\n        return (SellList[0]);\n    }\n    //Function Overloading: When SellListpeak() is called from inside of the MatchingOrder(), it recieves just an array (and not an AuctionID) as paramater  \n    function SellListPeak(OrderStruct[] memory _array) internal view returns (OrderStruct memory){\n\n        require(_array.length != 0); //throws exception if the list is empty\n        return (_array[0]);\n    }\n\n\n//*******************  minheap_delete () ***************************//\n    //the highest priority item (the smallest ask) will be removed from the list and is returned by the function\n    //then the heap is reordered uising the heapifyDown method\n    function SellListDelete () public \n    CheckAuctionStage ()\n    returns (OrderStruct memory)\n    {\n        if (SellList.length == 0) { revert(); }                      //the delete function throws exception if the heap is empty\n        if (SellList.length == 1) {                               // if the heap has only one item\n            OrderStruct memory result = SellList[0];\n            SellList.pop();                                   //the only element of the heap is removed and returned  \n            NumOrders --;\n            return result;\n        }\n\n        //if neither of these conditions are true, then there are at least 2 items in the heap and deletion proceeds\n      \n        OrderStruct memory result = SellList[0];\n        SellList[0] = SellList[SellList.length -1];                      //the last elementof the heap is removed and written into the first position\n        SellList.pop(); \n        minheap_heapifyDown();                           //now the heapifyDown is called to restore the ordering of the heap \n        NumOrders --;\n        return result;        \n    }\n\n//************************************************************************//\n//************************************************************************//\n//************************************************************************//\n\n\n\n//************************************************************************//\n//************************************************************************//\n//************************************************************************//\n\n\n\n    \n    \n    \n}    \n    \n    \n    \n    \n    \n    \n    \n    \n    \n    \n    \n    \n    \n    \n    \n    \n    \n    \n    \n\n\n\n\n\n\n\n\n\n\n\n\n\n\n\n\n",
  "sourcePath": "/Users/Mahsa/Documents/2020-Orderbook/Code/Truffle/contracts/CallMarket/Orderbook_V20.sol",
  "compiler": {
    "name": "solc",
    "version": "0.5.12+commit.7709ece9.Emscripten.clang"
  },
  "schemaVersion": "3.0.23",
  "updatedAt": "2020-04-16T15:42:56.114Z",
  "devdoc": {
    "methods": {}
  },
  "userdoc": {
    "methods": {}
  }
}