{
  "contractName": "Orderbook_V23",
  "abi": [
    {
      "inputs": [
        {
          "internalType": "uint256",
          "name": "_MAXORDERS",
          "type": "uint256"
        }
      ],
      "payable": false,
      "stateMutability": "nonpayable",
      "type": "constructor"
    },
    {
      "anonymous": false,
      "inputs": [
        {
          "indexed": true,
          "internalType": "address",
          "name": "_sender",
          "type": "address"
        },
        {
          "indexed": false,
          "internalType": "uint256",
          "name": "_price",
          "type": "uint256"
        }
      ],
      "name": "BidIsSubmitted",
      "type": "event"
    },
    {
      "anonymous": false,
      "inputs": [
        {
          "indexed": false,
          "internalType": "address",
          "name": "_owner",
          "type": "address"
        },
        {
          "indexed": false,
          "internalType": "uint256",
          "name": "_amount",
          "type": "uint256"
        }
      ],
      "name": "EtherRefunded",
      "type": "event"
    },
    {
      "anonymous": false,
      "inputs": [
        {
          "indexed": false,
          "internalType": "address",
          "name": "_sender",
          "type": "address"
        },
        {
          "indexed": false,
          "internalType": "uint256",
          "name": "_price",
          "type": "uint256"
        },
        {
          "indexed": false,
          "internalType": "uint256",
          "name": "_volume",
          "type": "uint256"
        }
      ],
      "name": "LogBuyList",
      "type": "event"
    },
    {
      "anonymous": false,
      "inputs": [
        {
          "indexed": true,
          "internalType": "address",
          "name": "_sender",
          "type": "address"
        },
        {
          "indexed": true,
          "internalType": "address",
          "name": "_token",
          "type": "address"
        },
        {
          "indexed": false,
          "internalType": "uint256",
          "name": "_numofTokens",
          "type": "uint256"
        }
      ],
      "name": "TokenDepositted",
      "type": "event"
    },
    {
      "anonymous": false,
      "inputs": [
        {
          "indexed": false,
          "internalType": "uint256",
          "name": "_BuyPrice",
          "type": "uint256"
        },
        {
          "indexed": false,
          "internalType": "uint256",
          "name": "_SellPrice",
          "type": "uint256"
        }
      ],
      "name": "TradeHappens",
      "type": "event"
    },
    {
      "anonymous": false,
      "inputs": [
        {
          "indexed": false,
          "internalType": "address",
          "name": "_from",
          "type": "address"
        },
        {
          "indexed": false,
          "internalType": "address",
          "name": "_to",
          "type": "address"
        },
        {
          "indexed": false,
          "internalType": "uint256",
          "name": "_numofEther",
          "type": "uint256"
        }
      ],
      "name": "TransferEther",
      "type": "event"
    },
    {
      "anonymous": false,
      "inputs": [
        {
          "indexed": false,
          "internalType": "address",
          "name": "_from",
          "type": "address"
        },
        {
          "indexed": false,
          "internalType": "address",
          "name": "_to",
          "type": "address"
        },
        {
          "indexed": false,
          "internalType": "uint256",
          "name": "_numofTokens",
          "type": "uint256"
        }
      ],
      "name": "TransferToken",
      "type": "event"
    },
    {
      "constant": true,
      "inputs": [
        {
          "internalType": "address",
          "name": "",
          "type": "address"
        }
      ],
      "name": "AvailableEtherBalance",
      "outputs": [
        {
          "internalType": "uint256",
          "name": "",
          "type": "uint256"
        }
      ],
      "payable": false,
      "stateMutability": "view",
      "type": "function"
    },
    {
      "constant": true,
      "inputs": [
        {
          "internalType": "address",
          "name": "",
          "type": "address"
        },
        {
          "internalType": "address",
          "name": "",
          "type": "address"
        }
      ],
      "name": "AvailableTokenBalance",
      "outputs": [
        {
          "internalType": "uint256",
          "name": "",
          "type": "uint256"
        }
      ],
      "payable": false,
      "stateMutability": "view",
      "type": "function"
    },
    {
      "constant": true,
      "inputs": [],
      "name": "BuyIndex",
      "outputs": [
        {
          "internalType": "uint256",
          "name": "",
          "type": "uint256"
        }
      ],
      "payable": false,
      "stateMutability": "view",
      "type": "function"
    },
    {
      "constant": true,
      "inputs": [],
      "name": "BuyListCounter",
      "outputs": [
        {
          "internalType": "uint256",
          "name": "",
          "type": "uint256"
        }
      ],
      "payable": false,
      "stateMutability": "view",
      "type": "function"
    },
    {
      "constant": true,
      "inputs": [],
      "name": "CreationTime",
      "outputs": [
        {
          "internalType": "uint256",
          "name": "",
          "type": "uint256"
        }
      ],
      "payable": false,
      "stateMutability": "view",
      "type": "function"
    },
    {
      "constant": true,
      "inputs": [],
      "name": "MAXORDERS",
      "outputs": [
        {
          "internalType": "uint256",
          "name": "",
          "type": "uint256"
        }
      ],
      "payable": false,
      "stateMutability": "view",
      "type": "function"
    },
    {
      "constant": true,
      "inputs": [],
      "name": "NumOrders",
      "outputs": [
        {
          "internalType": "uint256",
          "name": "",
          "type": "uint256"
        }
      ],
      "payable": false,
      "stateMutability": "view",
      "type": "function"
    },
    {
      "constant": true,
      "inputs": [],
      "name": "SellIndex",
      "outputs": [
        {
          "internalType": "uint256",
          "name": "",
          "type": "uint256"
        }
      ],
      "payable": false,
      "stateMutability": "view",
      "type": "function"
    },
    {
      "constant": true,
      "inputs": [],
      "name": "SellListCounter",
      "outputs": [
        {
          "internalType": "uint256",
          "name": "",
          "type": "uint256"
        }
      ],
      "payable": false,
      "stateMutability": "view",
      "type": "function"
    },
    {
      "constant": true,
      "inputs": [],
      "name": "Token",
      "outputs": [
        {
          "internalType": "address",
          "name": "",
          "type": "address"
        }
      ],
      "payable": false,
      "stateMutability": "view",
      "type": "function"
    },
    {
      "constant": true,
      "inputs": [
        {
          "internalType": "address",
          "name": "",
          "type": "address"
        }
      ],
      "name": "TotalEtherBalance",
      "outputs": [
        {
          "internalType": "uint256",
          "name": "",
          "type": "uint256"
        }
      ],
      "payable": false,
      "stateMutability": "view",
      "type": "function"
    },
    {
      "constant": true,
      "inputs": [
        {
          "internalType": "address",
          "name": "",
          "type": "address"
        },
        {
          "internalType": "address",
          "name": "",
          "type": "address"
        }
      ],
      "name": "TotalTokenBalance",
      "outputs": [
        {
          "internalType": "uint256",
          "name": "",
          "type": "uint256"
        }
      ],
      "payable": false,
      "stateMutability": "view",
      "type": "function"
    },
    {
      "constant": true,
      "inputs": [],
      "name": "biddingTime",
      "outputs": [
        {
          "internalType": "uint256",
          "name": "",
          "type": "uint256"
        }
      ],
      "payable": false,
      "stateMutability": "view",
      "type": "function"
    },
    {
      "constant": true,
      "inputs": [],
      "name": "counter",
      "outputs": [
        {
          "internalType": "uint256",
          "name": "",
          "type": "uint256"
        }
      ],
      "payable": false,
      "stateMutability": "view",
      "type": "function"
    },
    {
      "constant": true,
      "inputs": [],
      "name": "getState",
      "outputs": [
        {
          "internalType": "enum Orderbook_V23.States",
          "name": "",
          "type": "uint8"
        }
      ],
      "payable": false,
      "stateMutability": "view",
      "type": "function"
    },
    {
      "constant": false,
      "inputs": [
        {
          "internalType": "address",
          "name": "_token",
          "type": "address"
        },
        {
          "internalType": "uint256",
          "name": "_numofTokens",
          "type": "uint256"
        }
      ],
      "name": "DepositToken",
      "outputs": [
        {
          "internalType": "bool",
          "name": "",
          "type": "bool"
        }
      ],
      "payable": false,
      "stateMutability": "nonpayable",
      "type": "function"
    },
    {
      "constant": false,
      "inputs": [
        {
          "internalType": "uint256",
          "name": "_numofEthers",
          "type": "uint256"
        }
      ],
      "name": "DepositEther",
      "outputs": [
        {
          "internalType": "bool",
          "name": "",
          "type": "bool"
        }
      ],
      "payable": true,
      "stateMutability": "payable",
      "type": "function"
    },
    {
      "constant": false,
      "inputs": [
        {
          "internalType": "address",
          "name": "_token",
          "type": "address"
        }
      ],
      "name": "OpenMarket",
      "outputs": [
        {
          "internalType": "bool",
          "name": "",
          "type": "bool"
        }
      ],
      "payable": false,
      "stateMutability": "nonpayable",
      "type": "function"
    },
    {
      "constant": false,
      "inputs": [],
      "name": "CloseMarket",
      "outputs": [
        {
          "internalType": "bool",
          "name": "",
          "type": "bool"
        }
      ],
      "payable": false,
      "stateMutability": "nonpayable",
      "type": "function"
    },
    {
      "constant": false,
      "inputs": [],
      "name": "MatchOrders",
      "outputs": [
        {
          "internalType": "bool",
          "name": "",
          "type": "bool"
        }
      ],
      "payable": false,
      "stateMutability": "nonpayable",
      "type": "function"
    },
    {
      "constant": false,
      "inputs": [
        {
          "internalType": "address",
          "name": "_token",
          "type": "address"
        },
        {
          "internalType": "uint256",
          "name": "_numofTokens",
          "type": "uint256"
        }
      ],
      "name": "claimTokens",
      "outputs": [
        {
          "internalType": "bool",
          "name": "",
          "type": "bool"
        }
      ],
      "payable": false,
      "stateMutability": "nonpayable",
      "type": "function"
    },
    {
      "constant": false,
      "inputs": [
        {
          "internalType": "uint256",
          "name": "_numofEthers",
          "type": "uint256"
        }
      ],
      "name": "claimEther",
      "outputs": [
        {
          "internalType": "bool",
          "name": "",
          "type": "bool"
        }
      ],
      "payable": false,
      "stateMutability": "nonpayable",
      "type": "function"
    },
    {
      "constant": false,
      "inputs": [
        {
          "internalType": "uint256",
          "name": "_price",
          "type": "uint256"
        },
        {
          "internalType": "uint256",
          "name": "_volume",
          "type": "uint256"
        }
      ],
      "name": "submitBid",
      "outputs": [
        {
          "internalType": "bool",
          "name": "",
          "type": "bool"
        }
      ],
      "payable": false,
      "stateMutability": "nonpayable",
      "type": "function"
    },
    {
      "constant": false,
      "inputs": [
        {
          "internalType": "uint256",
          "name": "_price",
          "type": "uint256"
        },
        {
          "internalType": "uint256",
          "name": "_volume",
          "type": "uint256"
        }
      ],
      "name": "submitAsk",
      "outputs": [
        {
          "internalType": "bool",
          "name": "",
          "type": "bool"
        }
      ],
      "payable": false,
      "stateMutability": "nonpayable",
      "type": "function"
    },
    {
      "constant": false,
      "inputs": [],
      "name": "BuyListPeak",
      "outputs": [
        {
          "components": [
            {
              "internalType": "address",
              "name": "Sender",
              "type": "address"
            },
            {
              "internalType": "uint256",
              "name": "Price",
              "type": "uint256"
            },
            {
              "internalType": "uint256",
              "name": "AuxPrice",
              "type": "uint256"
            },
            {
              "internalType": "uint256",
              "name": "Volume",
              "type": "uint256"
            }
          ],
          "internalType": "struct Orderbook_V23.OrderStruct",
          "name": "",
          "type": "tuple"
        }
      ],
      "payable": false,
      "stateMutability": "nonpayable",
      "type": "function"
    },
    {
      "constant": false,
      "inputs": [],
      "name": "SellListPeak",
      "outputs": [
        {
          "components": [
            {
              "internalType": "address",
              "name": "Sender",
              "type": "address"
            },
            {
              "internalType": "uint256",
              "name": "Price",
              "type": "uint256"
            },
            {
              "internalType": "uint256",
              "name": "AuxPrice",
              "type": "uint256"
            },
            {
              "internalType": "uint256",
              "name": "Volume",
              "type": "uint256"
            }
          ],
          "internalType": "struct Orderbook_V23.OrderStruct",
          "name": "",
          "type": "tuple"
        }
      ],
      "payable": false,
      "stateMutability": "nonpayable",
      "type": "function"
    }
  ],
  "bytecode": "0x608060405261012c6101d9553480156200001857600080fd5b5060405162003e3e38038062003e3e83398181016040526200003e919081019062000089565b60026101d860006101000a81548160ff021916908360028111156200005f57fe5b02179055508060008190555050620000d9565b6000815190506200008381620000bf565b92915050565b6000602082840312156200009c57600080fd5b6000620000ac8482850162000072565b91505092915050565b6000819050919050565b620000ca81620000b5565b8114620000d657600080fd5b50565b613d5580620000e96000396000f3fe6080604052600436106101815760003560e01c80637bc82665116100d1578063c24126761161008a578063d51991bd11610064578063d51991bd146105da578063d526941814610605578063ecd18e6814610635578063fe417fa51461066057610181565b8063c241267614610547578063c53ec9a214610572578063d074a38d146105af57610181565b80637bc826651461043357806390c6b18a1461045e578063956f16771461048957806395b97759146104b4578063b4c1feee146104df578063b821da1b1461050a57610181565b8063503f78c41161013e5780636b0b32eb116101185780636b0b32eb146103635780636be79bb9146103a05780637288a28a146103cb5780637b873ac71461040857610181565b8063503f78c4146102d05780635093803f146102fb57806361bc221a1461033857610181565b80630c86ba99146101865780631865c57d146101c35780632bafe023146101ee5780632d0c0a881461022b57806340328eb41461026857806349407a4414610293575b600080fd5b34801561019257600080fd5b506101ad60048036036101a89190810190613874565b61069d565b6040516101ba9190613b90565b60405180910390f35b3480156101cf57600080fd5b506101d86106c3565b6040516101e59190613b5a565b60405180910390f35b3480156101fa57600080fd5b506102156004803603610210919081019061384b565b6106db565b6040516102229190613b90565b60405180910390f35b34801561023757600080fd5b50610252600480360361024d91908101906138b0565b6106f4565b60405161025f9190613b3f565b60405180910390f35b34801561027457600080fd5b5061027d610913565b60405161028a9190613b90565b60405180910390f35b34801561029f57600080fd5b506102ba60048036036102b59190810190613915565b61091a565b6040516102c79190613b3f565b60405180910390f35b3480156102dc57600080fd5b506102e5610a5a565b6040516102f29190613b75565b60405180910390f35b34801561030757600080fd5b50610322600480360361031d919081019061384b565b610b47565b60405161032f9190613b3f565b60405180910390f35b34801561034457600080fd5b5061034d610c27565b60405161035a9190613b90565b60405180910390f35b34801561036f57600080fd5b5061038a6004803603610385919081019061384b565b610c2e565b6040516103979190613b90565b60405180910390f35b3480156103ac57600080fd5b506103b5610c47565b6040516103c29190613b3f565b60405180910390f35b3480156103d757600080fd5b506103f260048036036103ed919081019061393e565b610e6b565b6040516103ff9190613b3f565b60405180910390f35b34801561041457600080fd5b5061041d6110cf565b60405161042a9190613b90565b60405180910390f35b34801561043f57600080fd5b506104486110d6565b6040516104559190613b90565b60405180910390f35b34801561046a57600080fd5b506104736110dd565b6040516104809190613b90565b60405180910390f35b34801561049557600080fd5b5061049e6110e4565b6040516104ab9190613b90565b60405180910390f35b3480156104c057600080fd5b506104c96110eb565b6040516104d69190613b90565b60405180910390f35b3480156104eb57600080fd5b506104f46110f1565b6040516105019190613b90565b60405180910390f35b34801561051657600080fd5b50610531600480360361052c919081019061393e565b6110f8565b60405161053e9190613b3f565b60405180910390f35b34801561055357600080fd5b5061055c6112ef565b6040516105699190613a8d565b60405180910390f35b34801561057e57600080fd5b5061059960048036036105949190810190613874565b611316565b6040516105a69190613b90565b60405180910390f35b3480156105bb57600080fd5b506105c461133c565b6040516105d19190613b90565b60405180910390f35b3480156105e657600080fd5b506105ef611343565b6040516105fc9190613b3f565b60405180910390f35b61061f600480360361061a9190810190613915565b611371565b60405161062c9190613b3f565b60405180910390f35b34801561064157600080fd5b5061064a611418565b6040516106579190613b75565b60405180910390f35b34801561066c57600080fd5b50610687600480360361068291908101906138b0565b611505565b6040516106949190613b3f565b60405180910390f35b6101da602052816000526040600020602052806000526040600020600091509150505481565b60006101d860009054906101000a900460ff16905090565b6101dc6020528060005260406000206000915090505481565b60008273ffffffffffffffffffffffffffffffffffffffff166323b872dd3330856040518463ffffffff1660e01b815260040161073393929190613aa8565b602060405180830381600087803b15801561074d57600080fd5b505af1158015610761573d6000803e3d6000fd5b505050506040513d601f19601f8201168201806040525061078591908101906138ec565b61078e57600080fd5b816101da60003373ffffffffffffffffffffffffffffffffffffffff1673ffffffffffffffffffffffffffffffffffffffff16815260200190815260200160002060008573ffffffffffffffffffffffffffffffffffffffff1673ffffffffffffffffffffffffffffffffffffffff16815260200190815260200160002060008282540192505081905550816101db60003373ffffffffffffffffffffffffffffffffffffffff1673ffffffffffffffffffffffffffffffffffffffff16815260200190815260200160002060008573ffffffffffffffffffffffffffffffffffffffff1673ffffffffffffffffffffffffffffffffffffffff168152602001908152602001600020600082825401925050819055508273ffffffffffffffffffffffffffffffffffffffff163373ffffffffffffffffffffffffffffffffffffffff167f85de9083e9fedd55c912047e0c7de616809995e27e12347cfcaf1f58da8ddb4b846040516109019190613b90565b60405180910390a36001905092915050565b6101d45481565b6000816101dd60003373ffffffffffffffffffffffffffffffffffffffff1673ffffffffffffffffffffffffffffffffffffffff168152602001908152602001600020541161096857600080fd5b6000829050806101dd60003373ffffffffffffffffffffffffffffffffffffffff1673ffffffffffffffffffffffffffffffffffffffff16815260200190815260200160002060008282540392505081905550806101dd60003373ffffffffffffffffffffffffffffffffffffffff1673ffffffffffffffffffffffffffffffffffffffff168152602001908152602001600020600082825403925050819055503373ffffffffffffffffffffffffffffffffffffffff166108fc829081150290604051600060405180830381858888f19350505050158015610a4f573d6000803e3d6000fd5b506001915050919050565b610a626137ce565b6101d9546101d1540142101580610a7d57506000546101d254145b15610ab15760016101d860006101000a81548160ff02191690836002811115610aa257fe5b0217905550610aaf611343565b505b60e96000603a8110610abf57fe5b600402016040518060800160405290816000820160009054906101000a900473ffffffffffffffffffffffffffffffffffffffff1673ffffffffffffffffffffffffffffffffffffffff1673ffffffffffffffffffffffffffffffffffffffff1681526020016001820154815260200160028201548152602001600382015481525050905090565b60006002806002811115610b5757fe5b6101d860009054906101000a900460ff166002811115610b7357fe5b14610b7d57600080fd5b426101d18190555060006101d860006101000a81548160ff02191690836002811115610ba557fe5b021790555060006101d28190555060006101d7819055506001600054036101d38190555060006101d48190555060006101d581905550826101d860016101000a81548173ffffffffffffffffffffffffffffffffffffffff021916908373ffffffffffffffffffffffffffffffffffffffff1602179055506001915050919050565b6101d65481565b6101dd6020528060005260406000206000915090505481565b60006001806002811115610c5757fe5b6101d860009054906101000a900460ff166002811115610c7357fe5b14610c7d57600080fd5b60006101d4546101d55410610c9c576101d4546101d681905550610ca8565b6101d5546101d6819055505b6000600190505b6101d6548111610dea57610cc1610a5a565b60200151610ccd611418565b6020015110610dd8577ffb00699a67b47144786d59b485b8c9a3b5fe8a4c7de9853514722555d9837ba8610cff611418565b60200151610d0b610a5a565b60200151604051610d1d929190613bab565b60405180910390a1610d2d6137ce565b610d35611418565b9050610d3f6137ce565b610d47610a5a565b9050610d84816000015183600001516101d860019054906101000a900473ffffffffffffffffffffffffffffffffffffffff168560600151611744565b610dbf826000015182600001516101d860019054906101000a900473ffffffffffffffffffffffffffffffffffffffff168460200151611926565b610dc7611a51565b50610dd0611f19565b505050610ddd565b610dea565b8080600101915050610caf565b50600060016101d554603a8110610dfd57fe5b600402016001015414610e1457610e1261248b565b505b600060e96101d454603a8110610e2657fe5b600402016001015414610e3d57610e3b6125d1565b505b60026101d860006101000a81548160ff02191690836002811115610e5d57fe5b021790555060019250505090565b60006101d9546101d1540142101580610e8857506000546101d254145b15610ebc5760016101d860006101000a81548160ff02191690836002811115610ead57fe5b0217905550610eba611343565b505b6000806002811115610eca57fe5b6101d860009054906101000a900460ff166002811115610ee657fe5b14610ef057600080fd5b6000546101d25410610f0157600080fd5b826101db60003373ffffffffffffffffffffffffffffffffffffffff1673ffffffffffffffffffffffffffffffffffffffff16815260200190815260200160002060006101d860019054906101000a900473ffffffffffffffffffffffffffffffffffffffff1673ffffffffffffffffffffffffffffffffffffffff1673ffffffffffffffffffffffffffffffffffffffff168152602001908152602001600020541015610fae57600080fd5b60006060610fcf610fbe87612761565b610fca6101d754612761565b61288e565b9050610fda816128ba565b9150610fe833878488612933565b156110c2576101d7600081548092919060010191905055506101d260008154809291906001019190505550846101db60003373ffffffffffffffffffffffffffffffffffffffff1673ffffffffffffffffffffffffffffffffffffffff16815260200190815260200160002060006101d860019054906101000a900473ffffffffffffffffffffffffffffffffffffffff1673ffffffffffffffffffffffffffffffffffffffff1673ffffffffffffffffffffffffffffffffffffffff168152602001908152602001600020600082825403925050819055505b6001935050505092915050565b6101d75481565b6101d25481565b6101d15481565b6101d55481565b60005481565b6101d35481565b60006101d9546101d154014210158061111557506000546101d254145b156111495760016101d860006101000a81548160ff0219169083600281111561113a57fe5b0217905550611147611343565b505b600080600281111561115757fe5b6101d860009054906101000a900460ff16600281111561117357fe5b1461117d57600080fd5b6000546101d2541061118e57600080fd5b8383026101dd60003373ffffffffffffffffffffffffffffffffffffffff1673ffffffffffffffffffffffffffffffffffffffff1681526020019081526020016000205410156111dd57600080fd5b600060606111fe6111ed87612761565b6111f96101d354612761565b61288e565b9050611209816128ba565b915061121733878488612b1d565b156112e2576101d360008154809291906001900391905055506101d2600081548092919060010191905055508585026101dd60003373ffffffffffffffffffffffffffffffffffffffff1673ffffffffffffffffffffffffffffffffffffffff168152602001908152602001600020600082825403925050819055503373ffffffffffffffffffffffffffffffffffffffff167f742e44f78b0af7de2402d409574985ecb1c2199b2594bfaca01eba821412bd10876040516112d99190613b90565b60405180910390a25b6001935050505092915050565b6101d860019054906101000a900473ffffffffffffffffffffffffffffffffffffffff1681565b6101db602052816000526040600020602052806000526040600020600091509150505481565b6101d95481565b600060016101d860006101000a81548160ff0219169083600281111561136557fe5b02179055506001905090565b6000816101dc60003373ffffffffffffffffffffffffffffffffffffffff1673ffffffffffffffffffffffffffffffffffffffff16815260200190815260200160002060008282540192505081905550816101dd60003373ffffffffffffffffffffffffffffffffffffffff1673ffffffffffffffffffffffffffffffffffffffff1681526020019081526020016000206000828254019250508190555060019050919050565b6114206137ce565b6101d9546101d154014210158061143b57506000546101d254145b1561146f5760016101d860006101000a81548160ff0219169083600281111561146057fe5b021790555061146d611343565b505b60016000603a811061147d57fe5b600402016040518060800160405290816000820160009054906101000a900473ffffffffffffffffffffffffffffffffffffffff1673ffffffffffffffffffffffffffffffffffffffff1673ffffffffffffffffffffffffffffffffffffffff1681526020016001820154815260200160028201548152602001600382015481525050905090565b6000816101db60003373ffffffffffffffffffffffffffffffffffffffff1673ffffffffffffffffffffffffffffffffffffffff16815260200190815260200160002060008573ffffffffffffffffffffffffffffffffffffffff1673ffffffffffffffffffffffffffffffffffffffff168152602001908152602001600020541161159057600080fd5b6000829050806101db60003373ffffffffffffffffffffffffffffffffffffffff1673ffffffffffffffffffffffffffffffffffffffff16815260200190815260200160002060008673ffffffffffffffffffffffffffffffffffffffff1673ffffffffffffffffffffffffffffffffffffffff16815260200190815260200160002060008282540392505081905550806101da60003373ffffffffffffffffffffffffffffffffffffffff1673ffffffffffffffffffffffffffffffffffffffff16815260200190815260200160002060008673ffffffffffffffffffffffffffffffffffffffff1673ffffffffffffffffffffffffffffffffffffffff168152602001908152602001600020600082825403925050819055508373ffffffffffffffffffffffffffffffffffffffff1663a9059cbb33836040518363ffffffff1660e01b81526004016116e6929190613adf565b602060405180830381600087803b15801561170057600080fd5b505af1158015611714573d6000803e3d6000fd5b505050506040513d601f19601f8201168201806040525061173891908101906138ec565b50600191505092915050565b806101da60008673ffffffffffffffffffffffffffffffffffffffff1673ffffffffffffffffffffffffffffffffffffffff16815260200190815260200160002060008473ffffffffffffffffffffffffffffffffffffffff1673ffffffffffffffffffffffffffffffffffffffff16815260200190815260200160002060008282540392505081905550806101da60008573ffffffffffffffffffffffffffffffffffffffff1673ffffffffffffffffffffffffffffffffffffffff16815260200190815260200160002060008473ffffffffffffffffffffffffffffffffffffffff1673ffffffffffffffffffffffffffffffffffffffff16815260200190815260200160002060008282540192505081905550806101db60008573ffffffffffffffffffffffffffffffffffffffff1673ffffffffffffffffffffffffffffffffffffffff16815260200190815260200160002060008473ffffffffffffffffffffffffffffffffffffffff1673ffffffffffffffffffffffffffffffffffffffff168152602001908152602001600020600082825401925050819055507f3844b7075ed6e7d4b61342769cb2b1b325cba410a62932affaa90aee247dadf584848360405161191893929190613b08565b60405180910390a150505050565b806101dc60008673ffffffffffffffffffffffffffffffffffffffff1673ffffffffffffffffffffffffffffffffffffffff16815260200190815260200160002060008282540392505081905550806101dc60008573ffffffffffffffffffffffffffffffffffffffff1673ffffffffffffffffffffffffffffffffffffffff16815260200190815260200160002060008282540192505081905550806101dd60008573ffffffffffffffffffffffffffffffffffffffff1673ffffffffffffffffffffffffffffffffffffffff168152602001908152602001600020600082825401925050819055507fbfb7efd7d5ea800a27a15d77272a7f3467a453990b2e81d1b7537725bb2ea166848483604051611a4393929190613b08565b60405180910390a150505050565b611a596137ce565b6101d9546101d1540142101580611a7457506000546101d254145b15611aa85760016101d860006101000a81548160ff02191690836002811115611a9957fe5b0217905550611aa6611343565b505b60006101d5541415611bc057611abc6137ce565b60016000603a8110611aca57fe5b600402016040518060800160405290816000820160009054906101000a900473ffffffffffffffffffffffffffffffffffffffff1673ffffffffffffffffffffffffffffffffffffffff1673ffffffffffffffffffffffffffffffffffffffff1681526020016001820154815260200160028201548152602001600382015481525050905060016000603a8110611b5d57fe5b60040201600080820160006101000a81549073ffffffffffffffffffffffffffffffffffffffff021916905560018201600090556002820160009055600382016000905550506101d2600081548092919060019003919050555080915050611f16565b60016101d5541415611d4357611bd46137ce565b60016000603a8110611be257fe5b600402016040518060800160405290816000820160009054906101000a900473ffffffffffffffffffffffffffffffffffffffff1673ffffffffffffffffffffffffffffffffffffffff1673ffffffffffffffffffffffffffffffffffffffff16815260200160018201548152602001600282015481526020016003820154815250509050600180603a8110611c7457fe5b6004020160016000603a8110611c8657fe5b600402016000820160009054906101000a900473ffffffffffffffffffffffffffffffffffffffff168160000160006101000a81548173ffffffffffffffffffffffffffffffffffffffff021916908373ffffffffffffffffffffffffffffffffffffffff1602179055506001820154816001015560028201548160020155600382015481600301559050506101d260008154809291906001900391905055506101d5600081548092919060019003919050555080915050611f16565b611d4b6137ce565b60016000603a8110611d5957fe5b600402016040518060800160405290816000820160009054906101000a900473ffffffffffffffffffffffffffffffffffffffff1673ffffffffffffffffffffffffffffffffffffffff1673ffffffffffffffffffffffffffffffffffffffff168152602001600182015481526020016002820154815260200160038201548152505090506001806101d55403603a8110611df057fe5b6004020160016000603a8110611e0257fe5b600402016000820160009054906101000a900473ffffffffffffffffffffffffffffffffffffffff168160000160006101000a81548173ffffffffffffffffffffffffffffffffffffffff021916908373ffffffffffffffffffffffffffffffffffffffff1602179055506001820154816001015560028201548160020155600382015481600301559050506001806101d55403603a8110611ea057fe5b60040201600080820160006101000a81549073ffffffffffffffffffffffffffffffffffffffff02191690556001820160009055600282016000905560038201600090555050611eee612d10565b506101d2600081548092919060019003919050555060026101d554036101d581905550809150505b90565b611f216137ce565b6101d9546101d1540142101580611f3c57506000546101d254145b15611f705760016101d860006101000a81548160ff02191690836002811115611f6157fe5b0217905550611f6e611343565b505b60006101d454141561208857611f846137ce565b60e96000603a8110611f9257fe5b600402016040518060800160405290816000820160009054906101000a900473ffffffffffffffffffffffffffffffffffffffff1673ffffffffffffffffffffffffffffffffffffffff1673ffffffffffffffffffffffffffffffffffffffff1681526020016001820154815260200160028201548152602001600382015481525050905060e96000603a811061202557fe5b60040201600080820160006101000a81549073ffffffffffffffffffffffffffffffffffffffff021916905560018201600090556002820160009055600382016000905550506101d2600081548092919060019003919050555080915050612488565b60016101d454141561225f5761209c6137ce565b60e96000603a81106120aa57fe5b600402016040518060800160405290816000820160009054906101000a900473ffffffffffffffffffffffffffffffffffffffff1673ffffffffffffffffffffffffffffffffffffffff1673ffffffffffffffffffffffffffffffffffffffff16815260200160018201548152602001600282015481526020016003820154815250509050600180603a811061213c57fe5b6004020160016000603a811061214e57fe5b600402016000820160009054906101000a900473ffffffffffffffffffffffffffffffffffffffff168160000160006101000a81548173ffffffffffffffffffffffffffffffffffffffff021916908373ffffffffffffffffffffffffffffffffffffffff16021790555060018201548160010155600282015481600201556003820154816003015590505060e96000603a81106121e857fe5b60040201600080820160006101000a81549073ffffffffffffffffffffffffffffffffffffffff021916905560018201600090556002820160009055600382016000905550506101d260008154809291906001900391905055506101d4600081548092919060019003919050555080915050612488565b6122676137ce565b60e96000603a811061227557fe5b600402016040518060800160405290816000820160009054906101000a900473ffffffffffffffffffffffffffffffffffffffff1673ffffffffffffffffffffffffffffffffffffffff1673ffffffffffffffffffffffffffffffffffffffff1681526020016001820154815260200160028201548152602001600382015481525050905060e96000603a811061230857fe5b60040201600080820160006101000a81549073ffffffffffffffffffffffffffffffffffffffff0219169055600182016000905560028201600090556003820160009055505060e960016101d45403603a811061236157fe5b6004020160e96000603a811061237357fe5b600402016000820160009054906101000a900473ffffffffffffffffffffffffffffffffffffffff168160000160006101000a81548173ffffffffffffffffffffffffffffffffffffffff021916908373ffffffffffffffffffffffffffffffffffffffff16021790555060018201548160010155600282015481600201556003820154816003015590505060e960016101d45403603a811061241257fe5b60040201600080820160006101000a81549073ffffffffffffffffffffffffffffffffffffffff02191690556001820160009055600282016000905560038201600090555050612460612fec565b506101d2600081548092919060019003919050555060026101d454036101d481905550809150505b90565b6000805b60006101d554106125c9576101d5549050600181603a81106124ad57fe5b6004020160010154600182603a81106124c257fe5b6004020160030154026101dd6000600184603a81106124dd57fe5b6004020160000160009054906101000a900473ffffffffffffffffffffffffffffffffffffffff1673ffffffffffffffffffffffffffffffffffffffff1673ffffffffffffffffffffffffffffffffffffffff16815260200190815260200160002060008282540192505081905550600181603a811061255957fe5b60040201600080820160006101000a81549073ffffffffffffffffffffffffffffffffffffffff0219169055600182016000905560028201600090556003820160009055505060006101d55414156125b0576125c9565b6101d5600081548092919060019003919050555061248f565b600191505090565b6000805b60006101d45410612759576101d454905060e981603a81106125f357fe5b60040201600301546101db600060e984603a811061260d57fe5b6004020160000160009054906101000a900473ffffffffffffffffffffffffffffffffffffffff1673ffffffffffffffffffffffffffffffffffffffff1673ffffffffffffffffffffffffffffffffffffffff16815260200190815260200160002060006101d860019054906101000a900473ffffffffffffffffffffffffffffffffffffffff1673ffffffffffffffffffffffffffffffffffffffff1673ffffffffffffffffffffffffffffffffffffffff1681526020019081526020016000206000828254019250508190555060e981603a81106126e957fe5b60040201600080820160006101000a81549073ffffffffffffffffffffffffffffffffffffffff0219169055600182016000905560028201600090556003820160009055505060006101d454141561274057612759565b6101d460008154809291906001900391905055506125d5565b600191505090565b606060008214156127a9576040518060400160405280600181526020017f30000000000000000000000000000000000000000000000000000000000000008152509050612889565b600082905060005b600082146127d3578080600101915050600a82816127cb57fe5b0491506127b1565b6060816040519080825280601f01601f1916602001820160405280156128085781602001600182028038833980820191505090505b50905060006001830390505b6000861461288157600a868161282657fe5b0660300160f81b8282806001900393508151811061284057fe5b60200101907effffffffffffffffffffffffffffffffffffffffffffffffffffffffffffff1916908160001a905350600a868161287957fe5b049550612814565b819450505050505b919050565b606082826040516020016128a3929190613a69565b604051602081830303815290604052905092915050565b6000606082905060008060009050600091505b82518210156129285760008383815181106128e457fe5b602001015160f81c60f81b60f81c60ff16905060308110158015612909575060398111155b1561291a5760308103600a83020191505b5081806001019250506128cd565b809350505050919050565b60006101d9546101d154014210158061295057506000546101d254145b156129845760016101d860006101000a81548160ff0219169083600281111561297557fe5b0217905550612982611343565b505b61298c6137ce565b60405180608001604052808773ffffffffffffffffffffffffffffffffffffffff168152602001868152602001858152602001848152509050600060e96000603a81106129d557fe5b60040201600101541415612a76578060e96000603a81106129f257fe5b6004020160008201518160000160006101000a81548173ffffffffffffffffffffffffffffffffffffffff021916908373ffffffffffffffffffffffffffffffffffffffff1602179055506020820151816001015560408201518160020155606082015181600301559050506101d460008154809291906001019190505550612b10565b8060e96101d454603a8110612a8757fe5b6004020160008201518160000160006101000a81548173ffffffffffffffffffffffffffffffffffffffff021916908373ffffffffffffffffffffffffffffffffffffffff1602179055506020820151816001015560408201518160020155606082015181600301559050506101d460008154809291906001019190505550612b0e6132c8565b505b6001915050949350505050565b60006101d9546101d1540142101580612b3a57506000546101d254145b15612b6e5760016101d860006101000a81548160ff02191690836002811115612b5f57fe5b0217905550612b6c611343565b505b612b766137ce565b60405180608001604052808773ffffffffffffffffffffffffffffffffffffffff168152602001868152602001858152602001848152509050600060016000603a8110612bbf57fe5b60040201600101541415612c69578060016000603a8110612bdc57fe5b6004020160008201518160000160006101000a81548173ffffffffffffffffffffffffffffffffffffffff021916908373ffffffffffffffffffffffffffffffffffffffff1602179055506020820151816001015560408201518160020155606082015181600301559050506101d560008154809291906001019190505550612c6361354b565b50612d03565b8060016101d554603a8110612c7a57fe5b6004020160008201518160000160006101000a81548173ffffffffffffffffffffffffffffffffffffffff021916908373ffffffffffffffffffffffffffffffffffffffff1602179055506020820151816001015560408201518160020155606082015181600301559050506101d560008154809291906001019190505550612d0161354b565b505b6001915050949350505050565b60006101d9546101d1540142101580612d2d57506000546101d254145b15612d615760016101d860006101000a81548160ff02191690836002811115612d5257fe5b0217905550612d5f611343565b505b600080905060006001826002020190505b60016101d55403811015612fe3576000819050600060018301905060016101d55403811015612dd557600183603a8110612da857fe5b6004020160010154600182603a8110612dbd57fe5b60040201600101541115612dd45781806001019250505b5b600182603a8110612de257fe5b6004020160010154600185603a8110612df757fe5b60040201600101541015612fd557612e0d6137ce565b600185603a8110612e1a57fe5b600402016040518060800160405290816000820160009054906101000a900473ffffffffffffffffffffffffffffffffffffffff1673ffffffffffffffffffffffffffffffffffffffff1673ffffffffffffffffffffffffffffffffffffffff16815260200160018201548152602001600282015481526020016003820154815250509050600183603a8110612eac57fe5b60040201600186603a8110612ebd57fe5b600402016000820160009054906101000a900473ffffffffffffffffffffffffffffffffffffffff168160000160006101000a81548173ffffffffffffffffffffffffffffffffffffffff021916908373ffffffffffffffffffffffffffffffffffffffff16021790555060018201548160010155600282015481600201556003820154816003015590505080600184603a8110612f5757fe5b6004020160008201518160000160006101000a81548173ffffffffffffffffffffffffffffffffffffffff021916908373ffffffffffffffffffffffffffffffffffffffff16021790555060208201518160010155604082015181600201556060820151816003015590505082945060018560020201935050612fdc565b5050612fe3565b5050612d72565b60019250505090565b60006101d9546101d154014210158061300957506000546101d254145b1561303d5760016101d860006101000a81548160ff0219169083600281111561302e57fe5b021790555061303b611343565b505b600080905060006001826002020190505b60016101d454038110156132bf576000819050600060018301905060016101d454038110156130b15760e983603a811061308457fe5b600402016001015460e982603a811061309957fe5b600402016001015410156130b05781806001019250505b5b60e984603a81106130be57fe5b600402016001015460e983603a81106130d357fe5b600402016001015410156132b1576130e96137ce565b60e985603a81106130f657fe5b600402016040518060800160405290816000820160009054906101000a900473ffffffffffffffffffffffffffffffffffffffff1673ffffffffffffffffffffffffffffffffffffffff1673ffffffffffffffffffffffffffffffffffffffff1681526020016001820154815260200160028201548152602001600382015481525050905060e983603a811061318857fe5b6004020160e986603a811061319957fe5b600402016000820160009054906101000a900473ffffffffffffffffffffffffffffffffffffffff168160000160006101000a81548173ffffffffffffffffffffffffffffffffffffffff021916908373ffffffffffffffffffffffffffffffffffffffff1602179055506001820154816001015560028201548160020155600382015481600301559050508060e984603a811061323357fe5b6004020160008201518160000160006101000a81548173ffffffffffffffffffffffffffffffffffffffff021916908373ffffffffffffffffffffffffffffffffffffffff160217905550602082015181600101556040820151816002015560608201518160030155905050829450600185600202019350506132b8565b50506132bf565b505061304e565b60019250505090565b60006101d9546101d15401421015806132e557506000546101d254145b156133195760016101d860006101000a81548160ff0219169083600281111561330a57fe5b0217905550613317611343565b505b600060016101d4540390505b60008111156135435760006002600183038161333d57fe5b04905060e981603a811061334d57fe5b600402016001015460e983603a811061336257fe5b60040201600101541015613537576133786137ce565b60e983603a811061338557fe5b600402016040518060800160405290816000820160009054906101000a900473ffffffffffffffffffffffffffffffffffffffff1673ffffffffffffffffffffffffffffffffffffffff1673ffffffffffffffffffffffffffffffffffffffff1681526020016001820154815260200160028201548152602001600382015481525050905060e982603a811061341757fe5b6004020160e984603a811061342857fe5b600402016000820160009054906101000a900473ffffffffffffffffffffffffffffffffffffffff168160000160006101000a81548173ffffffffffffffffffffffffffffffffffffffff021916908373ffffffffffffffffffffffffffffffffffffffff1602179055506001820154816001015560028201548160020155600382015481600301559050508060e983603a81106134c257fe5b6004020160008201518160000160006101000a81548173ffffffffffffffffffffffffffffffffffffffff021916908373ffffffffffffffffffffffffffffffffffffffff1602179055506020820151816001015560408201518160020155606082015181600301559050508192505061353d565b50613543565b50613325565b600191505090565b60006101d9546101d154014210158061356857506000546101d254145b1561359c5760016101d860006101000a81548160ff0219169083600281111561358d57fe5b021790555061359a611343565b505b600060016101d5540390505b60008111156137c6576000600260018303816135c057fe5b049050600181603a81106135d057fe5b6004020160010154600183603a81106135e557fe5b600402016001015411156137ba576135fb6137ce565b600183603a811061360857fe5b600402016040518060800160405290816000820160009054906101000a900473ffffffffffffffffffffffffffffffffffffffff1673ffffffffffffffffffffffffffffffffffffffff1673ffffffffffffffffffffffffffffffffffffffff16815260200160018201548152602001600282015481526020016003820154815250509050600182603a811061369a57fe5b60040201600184603a81106136ab57fe5b600402016000820160009054906101000a900473ffffffffffffffffffffffffffffffffffffffff168160000160006101000a81548173ffffffffffffffffffffffffffffffffffffffff021916908373ffffffffffffffffffffffffffffffffffffffff16021790555060018201548160010155600282015481600201556003820154816003015590505080600183603a811061374557fe5b6004020160008201518160000160006101000a81548173ffffffffffffffffffffffffffffffffffffffff021916908373ffffffffffffffffffffffffffffffffffffffff160217905550602082015181600101556040820151816002015560608201518160030155905050819250506137c0565b506137c6565b506135a8565b600191505090565b6040518060800160405280600073ffffffffffffffffffffffffffffffffffffffff1681526020016000815260200160008152602001600081525090565b60008135905061381b81613ccd565b92915050565b60008151905061383081613ce4565b92915050565b60008135905061384581613cfb565b92915050565b60006020828403121561385d57600080fd5b600061386b8482850161380c565b91505092915050565b6000806040838503121561388757600080fd5b60006138958582860161380c565b92505060206138a68582860161380c565b9150509250929050565b600080604083850312156138c357600080fd5b60006138d18582860161380c565b92505060206138e285828601613836565b9150509250929050565b6000602082840312156138fe57600080fd5b600061390c84828501613821565b91505092915050565b60006020828403121561392757600080fd5b600061393584828501613836565b91505092915050565b6000806040838503121561395157600080fd5b600061395f85828601613836565b925050602061397085828601613836565b9150509250929050565b61398381613c45565b82525050565b61399281613bea565b82525050565b6139a181613bea565b82525050565b6139b081613bfc565b82525050565b6139bf81613c57565b82525050565b60006139d082613bd4565b6139da8185613bdf565b93506139ea818560208601613c8d565b80840191505092915050565b608082016000820151613a0c6000850182613989565b506020820151613a1f6020850182613a4b565b506040820151613a326040850182613a4b565b506060820151613a456060850182613a4b565b50505050565b613a5481613c3b565b82525050565b613a6381613c3b565b82525050565b6000613a7582856139c5565b9150613a8182846139c5565b91508190509392505050565b6000602082019050613aa26000830184613998565b92915050565b6000606082019050613abd600083018661397a565b613aca6020830185613998565b613ad76040830184613a5a565b949350505050565b6000604082019050613af4600083018561397a565b613b016020830184613a5a565b9392505050565b6000606082019050613b1d6000830186613998565b613b2a6020830185613998565b613b376040830184613a5a565b949350505050565b6000602082019050613b5460008301846139a7565b92915050565b6000602082019050613b6f60008301846139b6565b92915050565b6000608082019050613b8a60008301846139f6565b92915050565b6000602082019050613ba56000830184613a5a565b92915050565b6000604082019050613bc06000830185613a5a565b613bcd6020830184613a5a565b9392505050565b600081519050919050565b600081905092915050565b6000613bf582613c1b565b9050919050565b60008115159050919050565b6000819050613c1682613cc0565b919050565b600073ffffffffffffffffffffffffffffffffffffffff82169050919050565b6000819050919050565b6000613c5082613c69565b9050919050565b6000613c6282613c08565b9050919050565b6000613c7482613c7b565b9050919050565b6000613c8682613c1b565b9050919050565b60005b83811015613cab578082015181840152602081019050613c90565b83811115613cba576000848401525b50505050565b60038110613cca57fe5b50565b613cd681613bea565b8114613ce157600080fd5b50565b613ced81613bfc565b8114613cf857600080fd5b50565b613d0481613c3b565b8114613d0f57600080fd5b5056fea365627a7a723158200534d3aca26697eec45709d11fbab5ec069a6abcba05c5c7a531987b06776cce6c6578706572696d656e74616cf564736f6c634300050c0040",
  "source": "pragma solidity >=0.4.22;\npragma experimental ABIEncoderV2;\n\nimport \"openzeppelin-solidity/contracts/token/ERC20/IERC20.sol\";\n\n\n//This version is created to test the gas cost of the match function (tests are in 2_MatchGasCost_test.js file)\n//Do the following:\n// (1) write a test that adds 100 orders (50 buys and 50 sells)\n// (2) define (if you dont have it already) a constant called MAXORDERS or something like that\n// (3) Size the array to it and use it in the modifier to reject orders when you already have the max\n// (4) then just change that one value. and build a table for max=1, 5, 10, 15, 20, 25, .\n// (5) get the gas costs for each\n\n// see how much is overhead and how much is actually growing with each additional order\n\n\n//Call market with heap (static array is used to store the heap)\n\ncontract Orderbook_V23{\n\n\nfunction getState() public view returns (States)\n  {\n    return state;\n  }\n\n\n//****************************************************//\n//********String Converaion and Contcatenation********//\n//****************************************************//\n\n//****************  str2uint() function ***************************//\n    function str2uint (string memory s) internal pure returns (uint) {\n        bytes memory b = bytes(s);\n        uint i;\n        uint result = 0;\n        for (i = 0; i < b.length; i++) {\n            uint c = uint(uint8(b[i]));\n            if (c >= 48 && c <= 57) {\n                result = result * 10 + (c - 48);\n            }\n        }\n    \n        return result;\n    }\n//****************  uint2str() function ***************************//\n    function uint2str(uint _i) internal pure returns (string memory _uintAsString) {\n        if (_i == 0) {\n            return \"0\";\n        }\n        uint j = _i;\n        uint len;\n        while (j != 0) {\n            len++;\n            j /= 10;\n        }\n        bytes memory bstr = new bytes(len);\n        uint k = len - 1;\n        while (_i != 0) {\n            bstr[k--] = byte(uint8(48 + _i % 10));\n            _i /= 10;\n        }\n        return string(bstr);\n    }\n//****************  contcat() function ***************************//    \n    function contcat(string memory a, string memory b) internal pure returns (string memory) {\n\n        return string (abi.encodePacked( a , b));\n    }\n\n//****************************************************//\n//****************************************************//\n//****************************************************//\n//constructor: Set the state the auctions as Settled\n  constructor (uint _MAXORDERS) public{\n    state = States.Settled; \n    MAXORDERS = _MAXORDERS;\n  }\n\n//**************** OrderStruct ***************************//\n//Every order has some attributes:\n    struct OrderStruct \n    {\n        address Sender;\n        uint256 Price;\n        uint256 AuxPrice;   //This is not the real price of the order, it's the contcantenation of the real price and the counter which helps to sort the heap wehen there are ties\n        uint256 Volume;     //The volume is 1 for now\n        \n    }\n\n//****************************************************//\n\n    uint public MAXORDERS;\n\n    //OrderStruct BuyList = new OrderStruct(MAXORDERS);\n\n    OrderStruct[58] BuyList;  //The array that contains Bid OrderStructs (descending (decremental)), we always want the highest bid (maxheap)\n    OrderStruct[58] SellList; //The array that contains Ask OrderStructs (ascending (incremental)), we always want the lowest ask (minheap)\n    \n    \n    enum States {Opened, Closed, Settled} \n    //Opened: biddingTime, Settlement has not yet started.\n    //Closed: biddingTimes over, Settlements satrted and not finished yet.\n    //Settled: biddingTime and Settlement are both over , which means the auction is ended and everything is wiped and settled\n    \n    uint256 public CreationTime;\n    uint256 public NumOrders;        //Number of all the orders within the auction\n    uint256 public BuyListCounter;   //the counter for BuyList which sorts the order incrementally\n    uint public SellIndex;\n    uint public BuyIndex;\n    uint public counter;\n    uint256 public SellListCounter;  //the counter for SellList which sorts the order decrementally\n    States state;\n    address public Token;            //The token that is being traded in the auction\n\n\n\n    uint public biddingTime = 5 minutes;\n\n    event BidIsSubmitted (address indexed _sender, uint256 _price);\n    event TokenDepositted (address indexed _sender, address indexed _token , uint256 _numofTokens);\n    event LogBuyList (address _sender, uint256 _price, uint256 _volume);\n    event TransferToken (address _from, address _to, uint256 _numofTokens);\n    event TransferEther (address _from, address _to, uint256 _numofEther);\n    event TradeHappens (uint256 _BuyPrice, uint256 _SellPrice);\n    \n    event EtherRefunded (address _owner, uint256 _amount);\n\n    //event BuyIndexChanged(uint256 _buyindex);\n\n\n//**********************************************//\n//***************Function Modifiers*************//\n//**********************************************//\n \n    //Checks if the auction should be closed or not.\n    modifier CheckAuctionStage () {\n        //if (Auctions[_AuctionID].isValue == false) {Auctions[_AuctionID].state = States.UnInitiallized;}\n        if (now >= CreationTime + biddingTime || NumOrders == MAXORDERS ) \n        {\n            state = States.Closed;\n            CloseMarket();\n            \n        }\n        _;\n    }\n\n//**********************************************// \n    //Checks wether the auction is at state_1 or not (Check this again! Seems to be the same thing with the one above)\n    modifier AuctionAtStage (States state_1 ) { \n        require (state == state_1); \n        _;\n    }\n//**********************************************//\n    //Checks whether we have reached to the total number of orders in the auction  \n    modifier CheckMaxOrders () { \n        require (NumOrders < MAXORDERS); \n        _;\n    } \n    \n//**********************************************//\n\n   \n\n//**********************************************//\n//*********Escrow Variables and Functions*******//\n//**********************************************//\n    \n    //To make the escrow fully general, the contract does not assume a specific ERC20 token, \n    //so a single account may escrow different tokens at the same time. \n    //For each (account, token) pair, the contract tracks its balance and the time when escrow expires:\n    //User (Sellers) => Token => balanace\n    mapping(address => mapping(address => uint256)) public TotalTokenBalance;\n    mapping(address => mapping(address => uint256)) public AvailableTokenBalance;\n    //mapping(address => mapping(address => uint256)) public escrowExpiration;\n    \n    //User (Biders) => balance(Ether)\n    mapping(address => uint256) public TotalEtherBalance;\n    mapping(address => uint256) public AvailableEtherBalance;\n\n//**************DepositToken() Function*********************//   \n    //The token holder must first approve the amount to the exchange contract by calling the approve() from the ERC20 token contract\n    function DepositToken(address _token, uint256 _numofTokens) public returns (bool) {\n        \n        require(IERC20(_token).transferFrom(msg.sender, address(this), _numofTokens));\n        TotalTokenBalance[msg.sender][_token] += _numofTokens;\n        AvailableTokenBalance[msg.sender][_token] += _numofTokens;\n        emit TokenDepositted (msg.sender,  _token , _numofTokens);\n        return true;\n    \n    }\n//**************DepositEther() Function*********************//    \n    \n    function DepositEther(uint256 _numofEthers) public payable returns (bool) {\n        TotalEtherBalance[msg.sender] += _numofEthers;\n        AvailableEtherBalance[msg.sender] += _numofEthers;\n        return true;\n        \n    }\n\n\n//******************** OpenMarket function ********************//\n    //To open a market(auction) on an specific token, user has to call OpenMarket() function and pass the address of ERC20 token to it\n    function OpenMarket(address _token) public \n    AuctionAtStage(States.Settled)\n    returns (bool) {\n    \n        \n        CreationTime = now; \n        state = States.Opened;\n        NumOrders = 0;\n        SellListCounter = 0;\n        BuyListCounter = MAXORDERS - 1;\n        SellIndex = 0;\n        BuyIndex = 0;\n        Token = _token;\n        \n        return true;\n\n    }\n\n//******************** CloseMarket() function ********************//\n    \n    function CloseMarket() public returns (bool){\n        //MatchOrders(_AuctionID);\n        state = States.Closed;\n        return true;\n                                                                                                                                                                                                                                                                                                                                                                                                                                                                                                                                                                                                                                                                                                                                                                                                                                                                                                                                                                                                                                                                                                                                                                                                                                                                                                                                                                                                                                                                                                                                                                                                                                                                                                                                                                                                                                                                                                                                                                                                                                                                                                                                                                                                                                                                                                                                                                                                                                                                                                                                                                                                                                                                                                                                                                                                                                                                                                                                                                                                                                                                                                                                                                                                                                                                                                                                                                                                                                                                                                                                                                                                                                                                                                                                                                                                                                                                                                                                                                                                                                                                                                                                                                                                                                                                                                                                                                                                                                                                                                                                                                                                                                                                                                                                                                                                                                                                                                                                                                                                                                                                                                                                                                                                                                                                                                                                                                                                                                                                                                                                                                                                                                                                                                                                                                                                                                                                                                                                                                                                                                                                                                                                                                                                                                                                                                                                                                                                                                                                                                                                                                                                                                                                                                                                                                                                                                                                                                                                                                                                                                                                                                                                                                                                                                                                                                                                                                                                                                                                                                                                                                                                                                                                                                                                                                                                                                                                                                                                                                                                                                                                                                                                                                                                                                                                                                                                                                                                                                                                                                                                                                                                                                                                                                                                                                                                                                                                                                                                                                                                                                                                                                                                                                                                                                                                                                                                                                                                                                                                                                                                                                                                                                                                                                                                                                                                                                                                                                                                                                                                                                                                                                                                                                                                                                                                                                                                                                                                                                                                                                                                                                                                                                                                                                                                                                                                                                                                                                                                                                                                                                                                                                                                                                                                                                                                                                                                                                                                                                                                                                                                                                                                                                                                                                                                                                                                                                                                                                                                                                                                                                                                                                                                                                                                                                                                                                                                                                                                                                                                                                                                                                                                                                                                                                                                                                                                                                                                                                                                                                                                                                                                                                                                                                                                                                                                                                                                                                                                                                                                                                                                                                                                                                                                                                                                                                                                                                                                                                                                                                                                                                                                                                                                                                                                                                                                                                                                                                                                                                                                                                                                                                                                                                                                                                                                                                                                                                                                                                                                                                                                                                                                                                                                                                                                                                                                                                                                                                                                                                                                                                                                                                                                                                                                                                                                                                                                                                                                                                                                                                                                                                                                                                                                                                                                                                                                                                                                                                                                                                                                                                                                                                                                                                                                                                                                                                                                                                                                                                                                                                                                                                                                                                                                                                                                                                                                                                                                                                                                                                                                                                                                                                                                                                                                                                                                                                                                                                                                                                                                                                                                                                                                                                                                                                                                                                                                                                                                                                                                                                                                                                                                                                                                                                                                                                                                                                                                                                                                                                                                                                                                                                                                                                                                                                                                                                                                                                                                                                                                                                                                                                                                                                                                                                                                                                                                                                                                                                                                                                                                                                                                                                                                                                                                                                                                                                                                                                                                                                                                                                                                                                                                                                                                                                                                                                                                                                                                                                                                                                                                                                                                                                                                                                                                                                                                                                                                                                                                                                                                                                                                                                                                                                                                                                                                                                                                                                                                                                                                                                                                                                                                                                                                                                                                                                                                                                                                                                                                                                                                                                                                                                                                                                                                                                                                                                                                                                                                                                                                                                                                                                                                                                                                                                                                                                                                                                                                                                                                                                                                                                                                                                                                                                                                                                                                                                                                                                                                                                                                                                                                                                                                                                                                                                                                                                                                                                                                                                                                                                                                 \n    }\n//******************** MatchOrders() function ********************//\n    function MatchOrders() public AuctionAtStage (States.Closed) returns (bool){\n  \n        uint256 refund;\n        \n\n        if (BuyIndex >= SellIndex) {counter = SellIndex;}\n        else {counter = BuyIndex;} \n        \n        //while (BuyList.length != 0 &&SellList.length != 0 && BuyListPeak().Price >= SellListPeak().Price)\n        for (uint i =1 ; i <= counter; i++)\n        //uint i =1;\n        //while (i <= counter)\n        {   \n            if (BuyListPeak().Price >= SellListPeak().Price)\n            {\n\n                emit TradeHappens (BuyListPeak().Price, SellListPeak().Price);\n                OrderStruct memory temp_BestBid = BuyListPeak();\n                OrderStruct memory temp_BestAsk = SellListPeak();\n                transferToken (temp_BestAsk.Sender, temp_BestBid.Sender, Token, temp_BestBid.Volume);\n                transferEther (temp_BestBid.Sender,temp_BestAsk.Sender, Token, temp_BestAsk.Price);\n                \n                \n                BuyListDelete();\n                SellListDelete();\n\n\n\n            }\n            else{break;}\n            //i++;    \n        }\n            \n            //Pays the difference to the miner\n            /*if (temp_BestBid.Price - temp_BestAsk.Price != 0) \n            {\n                EtherBalance[block.coinbase] += temp_BestBid.Price - temp_BestAsk.Price;\n                refund = EtherBalance[block.coinbase]; \n                EtherBalance[block.coinbase] = 0; \n                block.coinbase.transfer(refund);\n            }*/\n             \n            \n        if (BuyList[BuyIndex].Price != 0)\n        {\n            Rrefund_unexecuted_Buy_orders();\n        }  \n        \n        \n        \n        if (SellList[SellIndex].Price != 0)\n        {\n            Rrefund_unexecuted_Sell_orders(); \n        }\n        \n        state = States.Settled;\n        return true;\n\n        \n    }\n    //******************** Rrefund_unexecuted_Buy_orders function ********************//\n    //After trades happened in the MatchOrders() function, following function will be called to refund the deposited \"Ethers\" for those trades that did not happen\n    function Rrefund_unexecuted_Buy_orders () internal returns (bool) {\n\n        \n\n\n        uint i;\n        while (BuyIndex >= 0)\n        {\n            i = BuyIndex;\n            AvailableEtherBalance[BuyList[i].Sender] += BuyList[i].Volume * BuyList[i].Price;\n            delete BuyList[i];\n            if (BuyIndex == 0){ break;}\n            BuyIndex --;\n            \n            \n        }\n        \n        return true;\n    }\n    \n     //******************** Rrefund_unexecuted_Sell_orders function ********************//\n     //After trades happened in the MatchOrders() function, following function will be called to refund the deposited \"tokens\" for those trades that did not happen\n    function Rrefund_unexecuted_Sell_orders () internal returns (bool) {\n        \n        \n        \n        uint i;\n        while (SellIndex >= 0)\n        {\n            i = SellIndex ;\n            AvailableTokenBalance[SellList[i].Sender][Token] += SellList[i].Volume;\n            delete SellList[i];\n            if (SellIndex == 0){ break;}\n            SellIndex --;\n           \n            \n        }\n        \n        return true;\n    }\n  \n //******************** transferToken() & transferEther() internal ********************//    \n    //These two functions are fired During the order matching \n    function transferToken( address _fromSeller, address _toBuyer, address _token, uint256 _numofTokens) internal\n    {\n\n        TotalTokenBalance[_fromSeller][_token] -= _numofTokens;\n               \n        TotalTokenBalance[_toBuyer][_token] += _numofTokens;\n        AvailableTokenBalance[_toBuyer][_token] += _numofTokens;\n        \n        emit TransferToken (_fromSeller, _toBuyer, _numofTokens);\n    }\n//******************************************************//    \n    function transferEther( address _fromBuyer, address _toSeller, address _token, uint256 _numofEthers) internal\n    {\n        TotalEtherBalance[_fromBuyer] -= _numofEthers;\n        \n        TotalEtherBalance[_toSeller] += _numofEthers;\n        AvailableEtherBalance[_toSeller] += _numofEthers;\n        \n        emit TransferEther (_fromBuyer, _toSeller, _numofEthers);\n    } \n //******************************************************// \n\n\n//******************** claimTokens() & claimEther() ********************//\n    //traders can claim their tokens or ethers uisng the following two functions\n\n    function claimTokens (address _token, uint256 _numofTokens ) public returns (bool)\n    {\n        require (AvailableTokenBalance[msg.sender][_token] > _numofTokens);\n        uint tokensToBeClaimed = _numofTokens ;\n        AvailableTokenBalance[msg.sender][_token] -= tokensToBeClaimed;\n        TotalTokenBalance[msg.sender][_token] -= tokensToBeClaimed;\n        IERC20(_token).transfer(msg.sender, tokensToBeClaimed);\n        return true;\n    }\n//******************************************************//      \n    function claimEther (uint256 _numofEthers) public returns (bool)\n    {\n        require (AvailableEtherBalance[msg.sender] > _numofEthers);\n        uint EthersToBeClaimed = _numofEthers ;\n        AvailableEtherBalance[msg.sender] -= EthersToBeClaimed;\n        AvailableEtherBalance[msg.sender] -= EthersToBeClaimed;\n        msg.sender.transfer(EthersToBeClaimed);\n        return true;\n    }    \n\n \n\n//******************** submitBid() function ********************//\n    //submitBid function calls the maxheap_insert function    \n    //The Bidder must first deposit enough Ether in the exachange (DepositEther())\n    function submitBid (uint256 _price, uint256 _volume) public\n    CheckAuctionStage ()\n    AuctionAtStage (States.Opened)\n    CheckMaxOrders()\n    returns (bool)\n    {\n        require (AvailableEtherBalance[msg.sender] >= _volume * _price );\n        \n        uint256 _finalpriceUint;\n        string memory _finalpriceString;\n        _finalpriceString = contcat ( uint2str(_price), uint2str (BuyListCounter));\n        _finalpriceUint = str2uint (_finalpriceString);\n        \n        \n        if (maxheap_insert(msg.sender, _price, _finalpriceUint, _volume)){\n            BuyListCounter--;\n            NumOrders++;\n            AvailableEtherBalance[msg.sender] -= _volume * _price;\n            emit BidIsSubmitted (msg.sender, _price);\n            \n        }\n        \n    \n        return true;\n    }\n\n//******************** submitask() function ********************//\n    //submitAsk function calls the minheap_insert function\n    //The Bidder must first deposit enough Token in the exachange (DepositToken())\n    function submitAsk (uint256 _price, uint256 _volume ) public \n    CheckAuctionStage () \n    AuctionAtStage (States.Opened)\n    CheckMaxOrders()\n    returns (bool)\n    {\n        require( AvailableTokenBalance[msg.sender][Token] >= _volume);\n        \n        uint256 _finalpriceUint;\n        string memory _finalpriceString;\n        _finalpriceString = contcat ( uint2str(_price), uint2str (SellListCounter));\n        _finalpriceUint = str2uint (_finalpriceString);\n        \n        if (minheap_insert(msg.sender, _price, _finalpriceUint, _volume))\n        {\n                SellListCounter++;\n                NumOrders++;\n                AvailableTokenBalance[msg.sender][Token] -= _volume;\n        }\n        \n        return true;\n\n    }\n//*****************************************************************//\n//*******************  maxheap Functions (BuyList) ****************//\n//*****************************************************************//\n\n\n//*******************  maxheap_insert () ***************************//\n    //the new item will be added to the end of the array list (a buy order is submitted)\n    //then heapified up with a call to heapifyUp method\n    function maxheap_insert (address _sender, uint256 _price, uint256 _auxPrice, uint256 _volume) internal \n    CheckAuctionStage ()\n    returns (bool)\n    {\n        \n        OrderStruct memory neworder = OrderStruct(_sender, _price , _auxPrice, _volume);\n\n        if (BuyList[0].Price == 0){\n           \n           BuyList[0] = neworder;\n           BuyIndex ++;\n           maxheap_heapifyUp ();\n           \n           \n       }\n       else{\n           BuyList[BuyIndex] = neworder;\n           BuyIndex ++;\n           maxheap_heapifyUp ();\n           \n           \n       }\n\n\n\n\n        return true;\n    }    \n//*******************  maxheap_heapifyUp () ***************************//\n    //this function is called everytime we insert a new element to the end of the array (aka a new Buy order is submitted) and\n    //now the heap has to be sorted again\n    function maxheap_heapifyUp () internal \n    CheckAuctionStage ()\n    returns (bool) {\n    \n        uint256 k = BuyIndex - 1;                   //k is set to be the last entry of the array (also heap) which is the element that's just added and has to be moved up\n        while (k > 0){                                  //while we havent reached to the top of the heap\n            uint256 p = (k-1)/2;                           //we need to compute the parent of this last element which is p = (k-1)/2\n            if (BuyList[k].Price > BuyList[p].Price) //if the element is greater than its parent\n            {   //\"!SYNTAX!\"\n                //Orderbook_V9.swap(SellList, k, p);              //swap the element at index k with its parent\n                OrderStruct memory temp = BuyList[k];    //\"!SYNTAX!\"//swap the element at index k with its parent\n                BuyList[k] = BuyList[p];\n                BuyList[p] = temp;\n                k = p;                                  //k moves up one level\n            }\n            else {break;}                               //if not the break statement exits the loop (it continues until no element index k is not greater than its parent)\n        }\n        return true;\n    }\n//*******************  maxheap_heapifyDown () ***************************//\n    //when we want to remove an element from the heap we remove the root of the heap and add the last item\n    //to the root and reorder the heap again\n    function maxheap_heapifyDown () internal \n    CheckAuctionStage ()\n    returns (bool)\n    {\n        uint256 k =0;\n        uint256 leftchild = 2*k + 1;\n        while (leftchild < BuyIndex - 1)\n        {                                   //as long as the left child is within the array that heap is stored in\n            uint max = leftchild;\n            uint rightchild = leftchild + 1;                                     //rightchild = 2k+2\n\n            if (rightchild < BuyIndex - 1)                                       //if there is a rightchild\n            {\n                if (BuyList[rightchild].Price > BuyList[leftchild].Price)    //then the right child and left child are compared\n                {\n                    max++;                                                       //now max is set to rightchild, otherwise max remains to be the leftchild\n                }\n            }\n\n        if (BuyList[k].Price < BuyList[max].Price)                        //compares the k item with the max item and if k is smaller than its greatest children they are swapped\n        {\n            //swap k with its greatest children (max)\n            //\"!SYNTAX!\"\n            //Orderbook_V9.swap (SellList, k, max);\n            OrderStruct memory temp = BuyList[k];    //\"!SYNTAX!\"//swap the element at index k with its parent\n            BuyList[k] = BuyList[max];\n            BuyList[max] = temp;\n            k = max;                                                         //k is set to max\n            leftchild =2*k + 1;                                              //l is recompuetd in preparation for the next iteration\n        }\n        else{                                                               //if the k item is not smaller than the max item, heapifyDown should stop\n            break;\n            }\n        }\n        return true;\n    }\n    \n//****************   BuyListpeak()  *********************//\n    //BuyListpeak function returns the highest priority element (The highest bid)\n    function BuyListPeak() public  \n    CheckAuctionStage ()\n    //returns (address, uint256, uint256, uint256){\n    returns (OrderStruct memory){\n\n        //require (BuyIndex > 0); //throws exception if the maxheap (BuyList) is empty\n        return (BuyList[0]);\n        //return (BuyList[0].Sender, BuyList[0].Price, BuyList[0].AuxPrice, BuyList[0].Volume );\n    }\n    \n    //Function Overloading: When BuyListpeak() is called from inside of the MatchingOrder(), it recieves an array as paramater  \n    /*function BuyListPeak(OrderStruct[] memory _array) internal view returns (OrderStruct memory){\n\n        require(_array.length != 0); //throws exception if the list is empty\n        return (_array[0]);\n    }*/\n    \n//*******************  maxheap_delete () ***************************//\n    //the highest priority item will be removed from the list and is returned by the function\n    //then the heap is reordered uising the heapifyDown method\n    function BuyListDelete () internal CheckAuctionStage() returns (OrderStruct memory) \n    {\n        if (BuyIndex == 0) {\n              OrderStruct memory result =  BuyList[0];\n              delete BuyList[0];\n              NumOrders --;\n              //emit BuyIndexChanged(BuyIndex);\n              return result;\n              \n        }                           \n        if (BuyIndex == 1){                                      //if the heap has only one items\n                     \n            OrderStruct memory result =  BuyList[0];\n            \n            //delete BuyList[0];                                                 //the only element of the heap is removed and returned \n            BuyList[0] = BuyList[1];\n            NumOrders --;\n            BuyIndex --;\n            //emit BuyIndexChanged(BuyIndex);\n            return result;     \n            \n       \n        }\n\n        //if neither of these conditions are true, then there are at least 2 items in the heap and deletion proceeds\n        OrderStruct memory result =  BuyList[0];\n        BuyList[0] = BuyList[BuyIndex-1]; //the last elementof the heap is removed and written into the first position\n        delete BuyList[BuyIndex-1];\n        maxheap_heapifyDown(); //now the siftdown is called\n        NumOrders --;\n        BuyIndex = BuyIndex - 2;\n        //emit BuyIndexChanged(BuyIndex);\n        return result;\n    }\n    \n\n\n\n\n//*****************************************************************//\n//*******************  minheap Functions (SellList) ****************//\n//*****************************************************************//\n\n//*******************  minheap_insert () ***************************//\n    //the new item will be added to the end of the array list (a buy order is submitted)\n    //then heapified up with a call to heapifyUp method\n    function minheap_insert (address _sender, uint256 _price, uint256 _auxPrice, uint256 _volume) internal \n    CheckAuctionStage ()\n    returns (bool)\n    {\n        OrderStruct memory neworder = OrderStruct(_sender, _price , _auxPrice, _volume); \n        \n        if (SellList[0].Price == 0){\n           \n           SellList[0] = neworder;\n           SellIndex ++;\n           \n           \n           \n           \n       }\n       else{\n           SellList[SellIndex] = neworder;\n           SellIndex ++;\n           minheap_heapifyUp();\n           \n           \n           \n       }\n        return true;\n    }\n\n//*******************  minheap_heapifyUp () ***************************//\n    //this function is called everytime we insert a new element to the end of the array (aka a new sell order is submitted) and\n    //now the heap has to be sorted again\n    function minheap_heapifyUp () internal \n    CheckAuctionStage ()\n    returns (bool) {\n\n        uint256 k = SellIndex - 1; //k is set to be the last entry of the array(also heap) which is the element that's just added and has to be moved up\n        while (k > 0){                                      //while we havent reached to the top of the heap\n            uint256 p = (k-1)/2;                            //we need to compute the parent of this last element which is p = (k-1)/2\n            if (SellList[k].Price < SellList[p].Price) //if the element is greater than its parent\n            { \n            \n                OrderStruct memory temp = SellList[k];    //swap the element at index k with its parent\n                SellList[k] = SellList[p];\n                SellList[p] = temp;\n                \n                k = p; //k moves up one level\n            }\n            else {break;} //if not the break statement exits the loop (it continues until no element index k is not greater than its parent)\n        }\n        \n        return true;\n    }\n//*******************  minheap_heapifyDown () ***************************//\n    //when we want to remove an element from the heap we remove the root of the heap and add the last item\n    //to the root and reorder the heap again\n    function minheap_heapifyDown () internal \n    CheckAuctionStage ()\n    returns (bool) {\n        uint256 k =0;\n        uint256 leftchild = 2*k + 1;\n        while (leftchild < SellIndex - 1){               //as long as the left child is within the array that heap is stored in\n            uint256 min = leftchild;\n            uint256 rightchild = leftchild + 1;              //rightchild = 2k+2\n\n            if (rightchild < SellIndex - 1)                //if there is a rightchild, then the right child and left child are compared\n            {\n                if (SellList[rightchild].Price < SellList[leftchild].Price)\n                {    min++;   }                               //now min is set to rightchild, otherwise min remains to be the leftchild\n            }\n\n            if (SellList[min].Price < SellList[k].Price) //compares the k item with the max item and if its less they are swapped\n            {\n                //swap (BuyList, k, min); //swap k with its smaller children\n                \n                OrderStruct memory temp = SellList[k];    //\"!SYNTAX!\"//swap the element at index k with its parent\n                SellList[k] = SellList[min];\n                SellList[min] = temp;\n\n                k = min; //k is set to min\n                leftchild = 2*k + 1; //l is recompuetd in preparation for the next iteration\n            }\n            else{ //if k item's smaller childer is not smaller than k item itself, heapifyDown should stop\n                break;\n            }\n\n        }\n        return true;\n    }\n\n//****************   SellListpeak()  *********************//\n    //SellListpeak function returns the highest priority element (The Lowest ask)\n    function SellListPeak() public \n    CheckAuctionStage ()\n    //returns (address, uint256, uint256, uint256){\n    returns (OrderStruct memory){\n\n        //require(SellIndex > 0); //throws exception if the minheap (SellList) is empty\n        \n        return (SellList[0]);\n        //return (SellList[0].Sender, SellList[0].Price, SellList[0].AuxPrice, SellList[0].Volume );\n    }\n    //Function Overloading: When SellListpeak() is called from inside of the MatchingOrder(), it recieves just an array (and not an AuctionID) as paramater  \n    /*function SellListPeak(OrderStruct[] memory _array) internal view returns (OrderStruct memory){\n\n        require(_array.length != 0); //throws exception if the list is empty\n        return (_array[0]);\n    }*/\n\n\n//*******************  minheap_delete () ***************************//\n    //the highest priority item (the smallest ask) will be removed from the list and is returned by the function\n    //then the heap is reordered uising the heapifyDown method\n    function SellListDelete () internal \n    CheckAuctionStage ()\n    returns (OrderStruct memory)\n    {\n        if (SellIndex == 0) {\n            \n            OrderStruct memory result = SellList[0];\n            delete SellList[0]; \n            NumOrders --;\n            return result;\n        }\n            \n        \n        if (SellIndex == 1) {                               // if the heap has only one item\n            OrderStruct memory result = SellList[0];\n            BuyList[0] = BuyList[1];\n            delete SellList[0];                                   //the only element of the heap is removed and returned  \n            NumOrders --;\n            SellIndex --;\n            return result;\n        }\n\n        //if neither of these conditions are true, then there are at least 2 items in the heap and deletion proceeds\n      \n        OrderStruct memory result = SellList[0];\n        delete SellList[0];\n        SellList[0] = SellList[SellIndex -1];                      //the last elementof the heap is removed and written into the first position\n        delete SellList[SellIndex -1]; \n        minheap_heapifyDown();                           //now the heapifyDown is called to restore the ordering of the heap \n        NumOrders --;\n        SellIndex = SellIndex - 2;\n        return result;        \n    }\n\n    \n\n\n\n\n//************************************************************************//\n//************************************************************************//\n//************************************************************************//\n\n\n\n//************************************************************************//\n//************************************************************************//\n//************************************************************************//\n\n    \n}   \n    \n    \n    \n    \n    \n    \n    \n    \n    \n    \n    \n    \n    ",
  "sourcePath": "/Users/Mahsa/Documents/2020-Orderbook/Code/Truffle/contracts/CallMarket/Orderbook_V23.sol",
  "compiler": {
    "name": "solc",
    "version": "0.5.12+commit.7709ece9.Emscripten.clang"
  },
  "schemaVersion": "3.1.0",
  "updatedAt": "2020-05-27T16:48:59.352Z",
  "networkType": "ethereum",
  "devdoc": {
    "methods": {}
  },
  "userdoc": {
    "methods": {}
  }
}