{
  "contractName": "Orderbook_V9",
  "abi": [
    {
      "constant": true,
      "inputs": [
        {
          "internalType": "uint256",
          "name": "",
          "type": "uint256"
        }
      ],
      "name": "BuyList",
      "outputs": [
        {
          "internalType": "address",
          "name": "Sender",
          "type": "address"
        },
        {
          "internalType": "uint256",
          "name": "Price",
          "type": "uint256"
        },
        {
          "internalType": "uint256",
          "name": "Volume",
          "type": "uint256"
        }
      ],
      "payable": false,
      "stateMutability": "view",
      "type": "function"
    },
    {
      "constant": true,
      "inputs": [
        {
          "internalType": "uint256",
          "name": "",
          "type": "uint256"
        }
      ],
      "name": "SellList",
      "outputs": [
        {
          "internalType": "address",
          "name": "Sender",
          "type": "address"
        },
        {
          "internalType": "uint256",
          "name": "Price",
          "type": "uint256"
        },
        {
          "internalType": "uint256",
          "name": "Volume",
          "type": "uint256"
        }
      ],
      "payable": false,
      "stateMutability": "view",
      "type": "function"
    },
    {
      "constant": false,
      "inputs": [
        {
          "internalType": "uint256",
          "name": "_price",
          "type": "uint256"
        },
        {
          "internalType": "uint256",
          "name": "_volume",
          "type": "uint256"
        }
      ],
      "name": "submitBid",
      "outputs": [],
      "payable": false,
      "stateMutability": "nonpayable",
      "type": "function"
    },
    {
      "constant": false,
      "inputs": [
        {
          "internalType": "uint256",
          "name": "_price",
          "type": "uint256"
        },
        {
          "internalType": "uint256",
          "name": "_volume",
          "type": "uint256"
        }
      ],
      "name": "submitAsk",
      "outputs": [],
      "payable": false,
      "stateMutability": "nonpayable",
      "type": "function"
    },
    {
      "constant": false,
      "inputs": [],
      "name": "BuyListpeek",
      "outputs": [
        {
          "internalType": "address",
          "name": "_sender",
          "type": "address"
        },
        {
          "internalType": "uint256",
          "name": "_price",
          "type": "uint256"
        },
        {
          "internalType": "uint256",
          "name": "_volume",
          "type": "uint256"
        }
      ],
      "payable": false,
      "stateMutability": "nonpayable",
      "type": "function"
    },
    {
      "constant": false,
      "inputs": [],
      "name": "SellListpeek",
      "outputs": [
        {
          "internalType": "address",
          "name": "_sender",
          "type": "address"
        },
        {
          "internalType": "uint256",
          "name": "_price",
          "type": "uint256"
        },
        {
          "internalType": "uint256",
          "name": "_volume",
          "type": "uint256"
        }
      ],
      "payable": false,
      "stateMutability": "nonpayable",
      "type": "function"
    },
    {
      "constant": false,
      "inputs": [],
      "name": "maxheap_heapifyUp",
      "outputs": [],
      "payable": false,
      "stateMutability": "nonpayable",
      "type": "function"
    },
    {
      "constant": false,
      "inputs": [
        {
          "internalType": "address",
          "name": "_sender",
          "type": "address"
        },
        {
          "internalType": "uint256",
          "name": "_price",
          "type": "uint256"
        },
        {
          "internalType": "uint256",
          "name": "_volume",
          "type": "uint256"
        }
      ],
      "name": "maxheap_insert",
      "outputs": [],
      "payable": false,
      "stateMutability": "nonpayable",
      "type": "function"
    },
    {
      "constant": false,
      "inputs": [],
      "name": "maxheap_delete",
      "outputs": [
        {
          "internalType": "address",
          "name": "_sender",
          "type": "address"
        },
        {
          "internalType": "uint256",
          "name": "_price",
          "type": "uint256"
        },
        {
          "internalType": "uint256",
          "name": "_volume",
          "type": "uint256"
        }
      ],
      "payable": false,
      "stateMutability": "nonpayable",
      "type": "function"
    },
    {
      "constant": false,
      "inputs": [
        {
          "internalType": "address",
          "name": "_sender",
          "type": "address"
        },
        {
          "internalType": "uint256",
          "name": "_price",
          "type": "uint256"
        },
        {
          "internalType": "uint256",
          "name": "_volume",
          "type": "uint256"
        }
      ],
      "name": "minheap_insert",
      "outputs": [],
      "payable": false,
      "stateMutability": "nonpayable",
      "type": "function"
    },
    {
      "constant": false,
      "inputs": [],
      "name": "minheap_delete",
      "outputs": [
        {
          "internalType": "address",
          "name": "",
          "type": "address"
        },
        {
          "internalType": "uint256",
          "name": "",
          "type": "uint256"
        },
        {
          "internalType": "uint256",
          "name": "",
          "type": "uint256"
        }
      ],
      "payable": false,
      "stateMutability": "nonpayable",
      "type": "function"
    }
  ],
  "bytecode": "0x608060405234801561001057600080fd5b50611840806100206000396000f3fe608060405234801561001057600080fd5b50600436106100a95760003560e01c80637253aaf9116100715780637253aaf9146102605780637288a28a146102b85780639d52cf24146102f0578063b821da1b14610348578063bd9eb5d814610380578063bf0e40a6146103d8576100a9565b80631646e893146100ae5780631eae43811461012a57806334263853146101a65780635e827382146101fe5780636a051e2314610208575b600080fd5b6100da600480360360208110156100c457600080fd5b8101908080359060200190929190505050610430565b604051808473ffffffffffffffffffffffffffffffffffffffff1673ffffffffffffffffffffffffffffffffffffffff168152602001838152602001828152602001935050505060405180910390f35b6101566004803603602081101561014057600080fd5b8101908080359060200190929190505050610487565b604051808473ffffffffffffffffffffffffffffffffffffffff1673ffffffffffffffffffffffffffffffffffffffff168152602001838152602001828152602001935050505060405180910390f35b6101ae6104de565b604051808473ffffffffffffffffffffffffffffffffffffffff1673ffffffffffffffffffffffffffffffffffffffff168152602001838152602001828152602001935050505060405180910390f35b610206610586565b005b61025e6004803603606081101561021e57600080fd5b81019080803573ffffffffffffffffffffffffffffffffffffffff16906020019092919080359060200190929190803590602001909291905050506107d1565b005b6102686108fe565b604051808473ffffffffffffffffffffffffffffffffffffffff1673ffffffffffffffffffffffffffffffffffffffff168152602001838152602001828152602001935050505060405180910390f35b6102ee600480360360408110156102ce57600080fd5b810190808035906020019092919080359060200190929190505050610c0c565b005b6102f8610cb7565b604051808473ffffffffffffffffffffffffffffffffffffffff1673ffffffffffffffffffffffffffffffffffffffff168152602001838152602001828152602001935050505060405180910390f35b61037e6004803603604081101561035e57600080fd5b810190808035906020019092919080359060200190929190505050610d62565b005b6103d66004803603606081101561039657600080fd5b81019080803573ffffffffffffffffffffffffffffffffffffffff1690602001909291908035906020019092919080359060200190929190505050610e0d565b005b6103e0610ee2565b604051808473ffffffffffffffffffffffffffffffffffffffff1673ffffffffffffffffffffffffffffffffffffffff168152602001838152602001828152602001935050505060405180910390f35b6001818154811061043d57fe5b90600052602060002090600302016000915090508060000160009054906101000a900473ffffffffffffffffffffffffffffffffffffffff16908060010154908060020154905083565b6000818154811061049457fe5b90600052602060002090600302016000915090508060000160009054906101000a900473ffffffffffffffffffffffffffffffffffffffff16908060010154908060020154905083565b60008060008060008054905014156104f557600080fd5b6000808154811061050257fe5b906000526020600020906003020160000160009054906101000a900473ffffffffffffffffffffffffffffffffffffffff1692506000808154811061054357fe5b90600052602060002090600302016001015491506000808154811061056457fe5b9060005260206000209060030201600201549050828282925092509250909192565b6000600180805490500390505b60008111156107ce576000600260018303816105ab57fe5b049050600181815481106105bb57fe5b906000526020600020906003020160010154600183815481106105da57fe5b906000526020600020906003020160010154106107c2576105f96117d4565b6001838154811061060657fe5b90600052602060002090600302016040518060600160405290816000820160009054906101000a900473ffffffffffffffffffffffffffffffffffffffff1673ffffffffffffffffffffffffffffffffffffffff1673ffffffffffffffffffffffffffffffffffffffff1681526020016001820154815260200160028201548152505090506001828154811061069857fe5b9060005260206000209060030201600184815481106106b357fe5b90600052602060002090600302016000820160009054906101000a900473ffffffffffffffffffffffffffffffffffffffff168160000160006101000a81548173ffffffffffffffffffffffffffffffffffffffff021916908373ffffffffffffffffffffffffffffffffffffffff1602179055506001820154816001015560028201548160020155905050806001838154811061074d57fe5b906000526020600020906003020160008201518160000160006101000a81548173ffffffffffffffffffffffffffffffffffffffff021916908373ffffffffffffffffffffffffffffffffffffffff1602179055506020820151816001015560408201518160020155905050819250506107c8565b506107ce565b50610593565b50565b6107d96117d4565b60405180606001604052808573ffffffffffffffffffffffffffffffffffffffff1681526020018481526020018381525090506001819080600181540180825580915050906001820390600052602060002090600302016000909192909190915060008201518160000160006101000a81548173ffffffffffffffffffffffffffffffffffffffff021916908373ffffffffffffffffffffffffffffffffffffffff16021790555060208201518160010155604082015181600201555050503073ffffffffffffffffffffffffffffffffffffffff16635e8273826040518163ffffffff1660e01b8152600401600060405180830381600087803b1580156108e057600080fd5b505af11580156108f4573d6000803e3d6000fd5b5050505050505050565b600080600080600180549050141561091557600080fd5b600180805490501415610a375761092a6117d4565b600160008154811061093857fe5b90600052602060002090600302016040518060600160405290816000820160009054906101000a900473ffffffffffffffffffffffffffffffffffffffff1673ffffffffffffffffffffffffffffffffffffffff1673ffffffffffffffffffffffffffffffffffffffff16815260200160018201548152602001600282015481525050905060016000815481106109cb57fe5b9060005260206000209060030201600080820160006101000a81549073ffffffffffffffffffffffffffffffffffffffff021916905560018201600090556002820160009055505080600001519350806020015192508060400151915083838393509350935050610c07565b610a3f6117d4565b6001600081548110610a4d57fe5b90600052602060002090600302016040518060600160405290816000820160009054906101000a900473ffffffffffffffffffffffffffffffffffffffff1673ffffffffffffffffffffffffffffffffffffffff1673ffffffffffffffffffffffffffffffffffffffff16815260200160018201548152602001600282015481525050905060018080805490500381548110610ae557fe5b90600052602060002090600302016001600081548110610b0157fe5b90600052602060002090600302016000820160009054906101000a900473ffffffffffffffffffffffffffffffffffffffff168160000160006101000a81548173ffffffffffffffffffffffffffffffffffffffff021916908373ffffffffffffffffffffffffffffffffffffffff160217905550600182015481600101556002820154816002015590505060018080805490500381548110610ba057fe5b9060005260206000209060030201600080820160006101000a81549073ffffffffffffffffffffffffffffffffffffffff0219169055600182016000905560028201600090555050610bf06111e8565b806000015181602001518260400151935093509350505b909192565b3073ffffffffffffffffffffffffffffffffffffffff16636a051e233384846040518463ffffffff1660e01b8152600401808473ffffffffffffffffffffffffffffffffffffffff1673ffffffffffffffffffffffffffffffffffffffff1681526020018381526020018281526020019350505050600060405180830381600087803b158015610c9b57600080fd5b505af1158015610caf573d6000803e3d6000fd5b505050505050565b6000806000806001805490501415610cce57600080fd5b6001600081548110610cdc57fe5b906000526020600020906003020160000160009054906101000a900473ffffffffffffffffffffffffffffffffffffffff1692506001600081548110610d1e57fe5b90600052602060002090600302016001015491506001600081548110610d4057fe5b9060005260206000209060030201600201549050828282925092509250909192565b3073ffffffffffffffffffffffffffffffffffffffff1663bd9eb5d83384846040518463ffffffff1660e01b8152600401808473ffffffffffffffffffffffffffffffffffffffff1673ffffffffffffffffffffffffffffffffffffffff1681526020018381526020018281526020019350505050600060405180830381600087803b158015610df157600080fd5b505af1158015610e05573d6000803e3d6000fd5b505050505050565b610e156117d4565b60405180606001604052808573ffffffffffffffffffffffffffffffffffffffff1681526020018481526020018381525090506001819080600181540180825580915050906001820390600052602060002090600302016000909192909190915060008201518160000160006101000a81548173ffffffffffffffffffffffffffffffffffffffff021916908373ffffffffffffffffffffffffffffffffffffffff1602179055506020820151816001015560408201518160020155505050610edc61149c565b50505050565b6000806000806000805490501415610ef957600080fd5b6001600080549050141561101157610f0f6117d4565b60008081548110610f1c57fe5b90600052602060002090600302016040518060600160405290816000820160009054906101000a900473ffffffffffffffffffffffffffffffffffffffff1673ffffffffffffffffffffffffffffffffffffffff1673ffffffffffffffffffffffffffffffffffffffff16815260200160018201548152602001600282015481525050905060008081548110610fae57fe5b9060005260206000209060030201600080820160006101000a81549073ffffffffffffffffffffffffffffffffffffffff0219169055600182016000905560028201600090555050806000015181602001518260400151935093509350506111e3565b6110196117d4565b6000808154811061102657fe5b90600052602060002090600302016040518060600160405290816000820160009054906101000a900473ffffffffffffffffffffffffffffffffffffffff1673ffffffffffffffffffffffffffffffffffffffff1673ffffffffffffffffffffffffffffffffffffffff1681526020016001820154815260200160028201548152505090506000600160008054905003815481106110c057fe5b9060005260206000209060030201600080815481106110db57fe5b90600052602060002090600302016000820160009054906101000a900473ffffffffffffffffffffffffffffffffffffffff168160000160006101000a81548173ffffffffffffffffffffffffffffffffffffffff021916908373ffffffffffffffffffffffffffffffffffffffff160217905550600182015481600101556002820154816002015590505060006001600080549050038154811061117c57fe5b9060005260206000209060030201600080820160006101000a81549073ffffffffffffffffffffffffffffffffffffffff02191690556001820160009055600282016000905550506111cc61151f565b806000015181602001518260400151935093509350505b909192565b600080905060006001826002020190505b600180549050811015611498576000819050600060018301905060018054905081101561126d576001838154811061122d57fe5b9060005260206000209060030201600101546001828154811061124c57fe5b9060005260206000209060030201600101541061126c5781806001019250505b5b6001828154811061127a57fe5b9060005260206000209060030201600101546001858154811061129957fe5b9060005260206000209060030201600101541161148a576112b86117d4565b600185815481106112c557fe5b90600052602060002090600302016040518060600160405290816000820160009054906101000a900473ffffffffffffffffffffffffffffffffffffffff1673ffffffffffffffffffffffffffffffffffffffff1673ffffffffffffffffffffffffffffffffffffffff1681526020016001820154815260200160028201548152505090506001838154811061135757fe5b90600052602060002090600302016001868154811061137257fe5b90600052602060002090600302016000820160009054906101000a900473ffffffffffffffffffffffffffffffffffffffff168160000160006101000a81548173ffffffffffffffffffffffffffffffffffffffff021916908373ffffffffffffffffffffffffffffffffffffffff1602179055506001820154816001015560028201548160020155905050806001848154811061140c57fe5b906000526020600020906003020160008201518160000160006101000a81548173ffffffffffffffffffffffffffffffffffffffff021916908373ffffffffffffffffffffffffffffffffffffffff160217905550602082015181600101556040820151816002015590505082945060018560020201935050611491565b5050611498565b50506111f9565b5050565b600060016000805490500390505b600081111561151c576000600260018303816114c257fe5b049050600081815481106114d257fe5b906000526020600020906003020160010154600083815481106114f157fe5b9060005260206000209060030201600101541161151057809150611516565b5061151c565b506114aa565b50565b600080905060006001826002020190505b6000805490508110156117d057600081905060006001830190506000805490508110156115a5576000838154811061156457fe5b9060005260206000209060030201600101546000828154811061158357fe5b90600052602060002090600302016001015410156115a45781806001019250505b5b600084815481106115b257fe5b906000526020600020906003020160010154600083815481106115d157fe5b906000526020600020906003020160010154116117c2576115f06117d4565b600085815481106115fd57fe5b90600052602060002090600302016040518060600160405290816000820160009054906101000a900473ffffffffffffffffffffffffffffffffffffffff1673ffffffffffffffffffffffffffffffffffffffff1673ffffffffffffffffffffffffffffffffffffffff1681526020016001820154815260200160028201548152505090506000838154811061168f57fe5b9060005260206000209060030201600086815481106116aa57fe5b90600052602060002090600302016000820160009054906101000a900473ffffffffffffffffffffffffffffffffffffffff168160000160006101000a81548173ffffffffffffffffffffffffffffffffffffffff021916908373ffffffffffffffffffffffffffffffffffffffff1602179055506001820154816001015560028201548160020155905050806000848154811061174457fe5b906000526020600020906003020160008201518160000160006101000a81548173ffffffffffffffffffffffffffffffffffffffff021916908373ffffffffffffffffffffffffffffffffffffffff1602179055506020820151816001015560408201518160020155905050829450600185600202019350506117c9565b50506117d0565b5050611530565b5050565b6040518060600160405280600073ffffffffffffffffffffffffffffffffffffffff1681526020016000815260200160008152509056fea265627a7a72315820d16152c91d743ea1ed90b95ec89e273a8ea12279e7aa944eae70eb161bbd68db64736f6c634300050c0032",
  "source": "pragma solidity >=0.4.22 <0.6.0;\n//pragma experimental ABIEncoderV2;\n\ncontract Orderbook_V9{\n\n\n\n//**********************************************//\n//Every order has some attributes:\n    struct OrderStruct\n    {\n        address Sender;\n        uint Price;\n        uint Volume;\n        //uint Index;\n\n    }\n\n\n\n//**********************************************//\n    OrderStruct[] public BuyList;  //The array that contains Bid OrderStructs (ascending (incremental))\n    OrderStruct[] public SellList; //The array that contains Ask OrderStructs (descending (deccremental) = maxheap)\n\n//**********************************************//\n\n\n\n//******************** submitBid function ********************//\n    //submitBid function calls the minheap_insert function\n    function submitBid (uint _price, uint _volume ) public {\n\n        this.minheap_insert( msg.sender, _price, _volume );\n\n    }\n//******************** submitask function ********************//\n    //submitAsk function calls the maxheap_insert function\n    function submitAsk (uint _price, uint _volume ) public {\n\n        this.maxheap_insert( msg.sender, _price, _volume );\n\n    }\n\n//**********************************************//\n\n\n//************************************************************************//\n//*********************     function modifiers    ************************//\n//************************************************************************//\n\n\n\n\n//************************************************************************//\n//*********************     auxillary functions    ************************//\n//************************************************************************//\n\n\n//****************   ordertype function  *********************//\n    //ordertype order checks if the incoming order is a bid or ask\n    /*function ordertype ( bool _type ) private returns (bool success){\n\n        OrderStruct memory temp = a[i];    //\"!SYNTAX!\"\n        a[i] = a[j];\n        a[p] = temp;\n    }*/\n\n\n//****************   swap function  *********************//\n    //swap function swaps the elements i and j in the array list (i=k, j=p)\n    /*function swap(OrderStruct[] memory a, uint i, uint j ) public returns (bool success){\n\n        OrderStruct memory temp = a[i];    //\"!SYNTAX!\"\n        a[i] = a[j];\n        a[j] = temp;\n    }*/\n\n\n\n//****************   BuyListpeek function  *********************//\n    //peek function returns the highest priority element\n    function BuyListpeek() public returns (address _sender, uint _price, uint _volume){\n\n        if (BuyList.length == 0) { revert(); } //the delete function throws exception if the heap is empty\n        _sender =  BuyList[0].Sender;\n        _price = BuyList[0].Price;\n        _volume = BuyList[0].Volume;\n        return (_sender, _price, _volume);\n    }\n\n//****************   SellListpeek function  *********************//\n    //peek function returns the highest priority element\n    function SellListpeek() public returns (address _sender, uint _price, uint _volume){\n\n        if (SellList.length == 0) { revert(); } //the delete function throws exception if the heap is empty\n        _sender =  SellList[0].Sender;\n        _price = SellList[0].Price;\n        _volume = SellList[0].Volume;\n        return (_sender, _price, _volume);\n    }\n\n\n\n\n//************************************************************************//\n//*********************     Maxheap (SellList)    ************************//\n//************************************************************************//\n\n\n//*******************  maxheap_heapifyUp () ***************************//\n    //this function is called everytime we insert a new element to the end of the array (aka a new sell order is submitted) and\n    //now the heap has to be sorted again\n    function maxheap_heapifyUp () public\n    {\n        uint k = SellList.length - 1;                   //k is set to be the last entry of the array (also heap) which is the element that's just added and has to be moved up\n        while (k > 0){                                  //while we havent reached to the top of the heap\n            uint p = (k-1)/2;                           //we need to compute the parent of this last element which is p = (k-1)/2\n            if (SellList[k].Price >= SellList[p].Price) //if the element is greater than its parent\n            {   //\"!SYNTAX!\"\n                //Orderbook_V9.swap(SellList, k, p);              //swap the element at index k with its parent\n                OrderStruct memory temp = SellList[k];    //\"!SYNTAX!\"//swap the element at index k with its parent\n                SellList[k] = SellList[p];\n                SellList[p] = temp;\n                k = p;                                  //k moves up one level\n            }\n            else {break;}                               //if not the break statement exits the loop (it continues until no element index k is not greater than its parent)\n        }\n    }\n//*******************  maxheap_heapifyDown () ***************************//\n    //when we want to remove an element from the heap we remove the root of the heap and add the last item\n    //to the root and reorder the heap again\n    function maxheap_heapifyDown () private\n    {\n        uint k =0;\n        uint leftchild = 2*k + 1;\n        while (leftchild < SellList.length)\n        {                                   //as long as the left child is within the array that heap is stored in\n            uint max = leftchild;\n            uint rightchild = leftchild + 1;                                     //rightchild = 2k+2\n\n            if (rightchild < SellList.length)                                       //if there is a rightchild\n            {\n                if (SellList[rightchild].Price >= SellList[leftchild].Price)    //then the right child and left child are compared\n                {\n                    max++;                                                       //now max is set to rightchild, otherwise max remains to be the leftchild\n                }\n            }\n\n        if (SellList[k].Price <= SellList[max].Price)                        //compares the k item with the max item and if k is smaller than its greatest children they are swapped\n        {\n            //swap k with its greatest children (max)\n            //\"!SYNTAX!\"\n            //Orderbook_V9.swap (SellList, k, max);\n            OrderStruct memory temp = SellList[k];    //\"!SYNTAX!\"//swap the element at index k with its parent\n            SellList[k] = SellList[max];\n            SellList[max] = temp;\n            k = max;                                                         //k is set to max\n            leftchild =2*k + 1;                                              //l is recompuetd in preparation for the next iteration\n        }\n        else{                                                               //if the k item is not smaller than the max item, heapifyDown should stop\n            break;\n            }\n        }\n    }\n\n//*******************  maxheap_insert () ***************************//\n    //the new item will be added to the end of the array list (a sell order is submitted)\n    //then heapified up with a call to heapifyUp method\n    function maxheap_insert (address _sender, uint _price, uint _volume) public\n    {\n        OrderStruct memory neworder = OrderStruct(_sender, _price ,_volume);\n        SellList.push(neworder);\n        this.maxheap_heapifyUp (); //\"!SYNTAX!\"\n    }\n\n//*******************  maxheap_delete () ***************************//\n    //the highest priority item will be removed from the list and is returned by the function\n    //then the heap is reordered uising the heapifyDown method\n    function maxheap_delete () public returns (address _sender, uint _price, uint _volume) \n    {\n        if (SellList.length == 0) { revert(); }                             //the delete function throws exception if the heap is empty\n        if (SellList.length == 1) {                                      // if the heap has only one items\n            OrderStruct memory result =  SellList[0];         //\"!SYNTAX!\"\n            delete SellList[0];                                          //the only element of the heap is removed and returned \"!SYNTAX!\"\n            _sender = result.Sender;\n            _price = result.Price;\n            _volume = result.Volume;\n            return(_sender,_price,_volume);\n        }\n\n        //if neither of these conditions are true, then there are at least 2 items in the heap and deletion proceeds\n        OrderStruct memory hold = SellList[0]; //the element on the of the heap is placed in the variable called hold\n        SellList[0] = SellList[SellList.length -1]; //the last elementof the heap is removed and written into the first position\n        delete SellList [SellList.length -1];\n        maxheap_heapifyDown(); //now the siftdown is called\n        return (hold.Sender, hold.Price, hold.Volume);\n    }\n\n//************************************************************************//\n//*********************     Minheap (BuyList)    ************************//\n//************************************************************************//\n\n\n//*******************  minheap_heapifyUp () ***************************//\n    //this function is called everytime we insert a new element to the end of the array (aka a new buy order is submitted) and\n    //now the heap has to be sorted again\n    function minheap_heapifyUp () internal\n    {\n\n        uint k = BuyList.length - 1;                   //k is set to be the last entry of the array(also heap) which is the element that's just added and has to be moved up\n        while (k > 0){                                 //while we havent reached to the top of the heap\n            uint p = (k-1)/2;                          //we need to compute the parent of this last element which is p = (k-1)/2\n            if (BuyList[k].Price <= BuyList[p].Price) //if the element is greater than its parent\n            {\n                //this. swap (BuyList, k, p); //swap k with its parent \"!SYNTAX!\"\n                k = p; //k moves up one level\n            }\n            else {break;} //if not the break statement exits the loop (it continues until no element index k is not greater than its parent)\n        }\n    }\n//*******************  minheap_heapifyDown () ***************************//\n    //when we want to remove an element from the heap we remove the root of the heap and add the last item\n    //to the root and reorder the heap again\n    function minheap_heapifyDown () internal\n\n    {\n        uint k =0;\n        uint leftchild = 2*k + 1;\n        while (leftchild < BuyList.length){               //as long as the left child is within the array that heap is stored in\n            uint min = leftchild;\n            uint rightchild = leftchild + 1;              //rightchild = 2k+2\n\n            if (rightchild < BuyList.length)                //if there is a rightchild, then the right child and left child are compared\n            {\n                if (BuyList[rightchild].Price < BuyList[leftchild].Price)\n                {    min++;   }                               //now min is set to rightchild, otherwise min remains to be the leftchild\n            }\n\n            if (BuyList[min].Price <= BuyList[k].Price) //compares the k item with the max item and if its less they are swapped\n            {\n                //swap (BuyList, k, min); //swap k with its smaller children\n                \n                OrderStruct memory temp = BuyList[k];    //\"!SYNTAX!\"//swap the element at index k with its parent\n                BuyList[k] = BuyList[min];\n                BuyList[min] = temp;\n\n                k = min; //k is set to min\n                leftchild =2*k + 1; //l is recompuetd in preparation for the next iteration\n            }\n            else{ //if k item's smaller childer is not smaller than k item itself, heapifyDown should stop\n                break;\n            }\n        }\n    }\n//*******************  minheap_insert () ***************************//\n    //the new item will be added to the end of the array list (a buy order is submitted)\n    //then heapified up with a call to heapifyUp method\n    function minheap_insert (address _sender, uint _price, uint _volume) public\n    {\n        OrderStruct memory neworder = OrderStruct(_sender, _price ,_volume); //\"!SYNTAX!\"\n        SellList.push(neworder);\n        Orderbook_V9.minheap_heapifyUp();                           //\"!SYNTAX!\"\n    }\n\n//*******************  minheap_delete () ***************************//\n    //the highest priority item (the smallest bid) will be removed from the list and is returned by the function\n    //then the heap is reordered uising the heapifyDown method\n    function minheap_delete () public returns (address, uint, uint)\n    {\n        if (BuyList.length == 0) { revert(); }                      //the delete function throws exception if the heap is empty\n        if (BuyList.length == 1) {                               // if the heap has only one item\n            OrderStruct memory result = BuyList[0];  //\"!SYNTAX!\"\n            delete BuyList[0];                                   //the only element of the heap is removed and returned  \"!SYNTAX!\"\n            return (result.Sender, result.Price, result.Volume);                                       // \"!SYNTAX!\"\n        }\n\n        //if neither of these conditions are true, then there are at least 2 items in the heap and deletion proceeds\n        OrderStruct memory hold = BuyList[0];                        //the element on the of the heap is placed in the variable called hold \"!SYNTAX!\"\n        BuyList[0] = BuyList[BuyList.length -1];                      //the last elementof the heap is removed and written into the first position\n        delete BuyList [BuyList.length -1];                   //\"!SYNTAX!\"\n        Orderbook_V9.minheap_heapifyDown();                           //now the heapifyDown is called to restore the ordering of the heap \"!SYNTAX!\"\n        return (hold.Sender, hold.Price, hold.Volume);        //\"!SYNTAX!\"\n    }\n\n//************************************************************************//\n//************************************************************************//\n//************************************************************************//\n\n}\n",
  "sourcePath": "/Users/Mahsa/Documents/2020-Orderbook/Code/Truffle/contracts/Exchange/Orderbook_V9.sol",
  "compiler": {
    "name": "solc",
    "version": "0.5.12+commit.7709ece9.Emscripten.clang"
  },
  "schemaVersion": "3.0.23",
  "updatedAt": "2020-04-20T17:56:53.922Z",
  "networkType": "ethereum",
  "devdoc": {
    "methods": {}
  },
  "userdoc": {
    "methods": {}
  }
}