{
  "contractName": "Orderbook_V13",
  "abi": [
    {
      "anonymous": false,
      "inputs": [
        {
          "indexed": false,
          "internalType": "address",
          "name": "_sender",
          "type": "address"
        },
        {
          "indexed": false,
          "internalType": "uint256",
          "name": "_price",
          "type": "uint256"
        },
        {
          "indexed": false,
          "internalType": "uint256",
          "name": "_volume",
          "type": "uint256"
        }
      ],
      "name": "LogBuyList",
      "type": "event"
    },
    {
      "constant": true,
      "inputs": [
        {
          "internalType": "uint256",
          "name": "",
          "type": "uint256"
        }
      ],
      "name": "Auctions",
      "outputs": [
        {
          "internalType": "uint256",
          "name": "CreationTime",
          "type": "uint256"
        },
        {
          "internalType": "uint256",
          "name": "NumOrders",
          "type": "uint256"
        },
        {
          "internalType": "enum Orderbook_V13.States",
          "name": "state",
          "type": "uint8"
        },
        {
          "internalType": "bool",
          "name": "isValue",
          "type": "bool"
        },
        {
          "internalType": "uint256",
          "name": "BuyListCounter",
          "type": "uint256"
        },
        {
          "internalType": "uint256",
          "name": "SellListCounter",
          "type": "uint256"
        }
      ],
      "payable": false,
      "stateMutability": "view",
      "type": "function"
    },
    {
      "constant": true,
      "inputs": [],
      "name": "biddingTime",
      "outputs": [
        {
          "internalType": "uint256",
          "name": "",
          "type": "uint256"
        }
      ],
      "payable": false,
      "stateMutability": "view",
      "type": "function"
    },
    {
      "constant": false,
      "inputs": [],
      "name": "OpenMarket",
      "outputs": [
        {
          "internalType": "uint256",
          "name": "_AuctionID",
          "type": "uint256"
        }
      ],
      "payable": false,
      "stateMutability": "nonpayable",
      "type": "function"
    },
    {
      "constant": false,
      "inputs": [
        {
          "internalType": "uint256",
          "name": "_AuctionID",
          "type": "uint256"
        }
      ],
      "name": "CloseMarket",
      "outputs": [
        {
          "internalType": "bool",
          "name": "",
          "type": "bool"
        }
      ],
      "payable": false,
      "stateMutability": "nonpayable",
      "type": "function"
    },
    {
      "constant": false,
      "inputs": [
        {
          "internalType": "uint256",
          "name": "_AuctionID",
          "type": "uint256"
        }
      ],
      "name": "MatchOrders",
      "outputs": [
        {
          "internalType": "bool",
          "name": "",
          "type": "bool"
        }
      ],
      "payable": false,
      "stateMutability": "nonpayable",
      "type": "function"
    },
    {
      "constant": false,
      "inputs": [
        {
          "internalType": "uint256",
          "name": "_AuctionID",
          "type": "uint256"
        },
        {
          "internalType": "uint256",
          "name": "_price",
          "type": "uint256"
        },
        {
          "internalType": "uint256",
          "name": "_volume",
          "type": "uint256"
        }
      ],
      "name": "submitBid",
      "outputs": [
        {
          "internalType": "bool",
          "name": "",
          "type": "bool"
        }
      ],
      "payable": false,
      "stateMutability": "nonpayable",
      "type": "function"
    },
    {
      "constant": false,
      "inputs": [
        {
          "internalType": "uint256",
          "name": "_AuctionID",
          "type": "uint256"
        },
        {
          "internalType": "uint256",
          "name": "_price",
          "type": "uint256"
        },
        {
          "internalType": "uint256",
          "name": "_volume",
          "type": "uint256"
        }
      ],
      "name": "submitAsk",
      "outputs": [
        {
          "internalType": "bool",
          "name": "",
          "type": "bool"
        }
      ],
      "payable": false,
      "stateMutability": "nonpayable",
      "type": "function"
    },
    {
      "constant": false,
      "inputs": [
        {
          "internalType": "uint256",
          "name": "_AuctionID",
          "type": "uint256"
        }
      ],
      "name": "ReadBuyList",
      "outputs": [],
      "payable": false,
      "stateMutability": "nonpayable",
      "type": "function"
    }
  ],
  "bytecode": "0x608060405261012c60025534801561001657600080fd5b506118d7806100266000396000f3fe608060405234801561001057600080fd5b50600436106100885760003560e01c80638949f0911161005b5780638949f09114610191578063bbc0c873146101bf578063d074a38d14610219578063e8cd181f1461023757610088565b80631255589b1461008d5780632e00af8d146100ab578063416f222a146100f15780638401d05a1461014b575b600080fd5b6100956102ae565b6040518082815260200191505060405180910390f35b6100d7600480360360208110156100c157600080fd5b810190808035906020019092919050505061039a565b604051808215151515815260200191505060405180910390f35b6101316004803603606081101561010757600080fd5b810190808035906020019092919080359060200190929190803590602001909291905050506103eb565b604051808215151515815260200191505060405180910390f35b6101776004803603602081101561016157600080fd5b81019080803590602001909291905050506105d7565b604051808215151515815260200191505060405180910390f35b6101bd600480360360208110156101a757600080fd5b81019080803590602001909291905050506106df565b005b6101ff600480360360608110156101d557600080fd5b81019080803590602001909291908035906020019092919080359060200190929190505050610840565b604051808215151515815260200191505060405180910390f35b610221610a2b565b6040518082815260200191505060405180910390f35b6102636004803603602081101561024d57600080fd5b8101908080359060200190929190505050610a31565b6040518087815260200186815260200185600281111561027f57fe5b60ff16815260200184151515158152602001838152602001828152602001965050505050505060405180910390f35b600080600081548092919060010191905055905042600160008381526020019081526020016000206000018190555060006001600083815260200190815260200160002060010181905550600180600083815260200190815260200160002060020160006101000a81548160ff0219169083600281111561032b57fe5b0217905550600180600083815260200190815260200160002060020160016101000a81548160ff0219169083151502179055506103e760016000838152602001908152602001600020600301819055506000600160008381526020019081526020016000206004018190555090565b60008160028060028111156103ab57fe5b6001600084815260200190815260200160002060020160009054906101000a900460ff1660028111156103da57fe5b146103e457600080fd5b5050919050565b600083600015156001600083815260200190815260200160002060020160019054906101000a900460ff16151514156104575760006001600083815260200190815260200160002060020160006101000a81548160ff0219169083600281111561045157fe5b02179055505b6002546001600083815260200190815260200160002060000154014210158061049757506103e86001600083815260200190815260200160002060010154145b156104df5760026001600083815260200190815260200160002060020160006101000a81548160ff021916908360028111156104cf57fe5b02179055506104dd816105d7565b505b8460018060028111156104ee57fe5b6001600084815260200190815260200160002060020160009054906101000a900460ff16600281111561051d57fe5b1461052757600080fd5b6000606061055b61053789610a87565b610556600160008d815260200190815260200160002060030154610a87565b610bb4565b905061056681610c7c565b91506105748933848a610cf5565b156105c757600160008a81526020019081526020016000206003016000815480929190600190039190505550600160008a8152602001908152602001600020600101600081548092919060010191905055505b6001955050505050509392505050565b600081600015156001600083815260200190815260200160002060020160019054906101000a900460ff16151514156106435760006001600083815260200190815260200160002060020160006101000a81548160ff0219169083600281111561063d57fe5b02179055505b6002546001600083815260200190815260200160002060000154014210158061068357506103e86001600083815260200190815260200160002060010154145b156106cb5760026001600083815260200190815260200160002060020160006101000a81548160ff021916908360028111156106bb57fe5b02179055506106c9816105d7565b505b6106d48361039a565b506001915050919050565b60008090505b600160008381526020019081526020016000206005018054905081101561083c577f48c9ef4b22c4620cffddc88ced9ac3dffe0e51f01c430f0497eceed104606a5a60016000848152602001908152602001600020600501828154811061074857fe5b906000526020600020906003020160000160009054906101000a900473ffffffffffffffffffffffffffffffffffffffff1660016000858152602001908152602001600020600501838154811061079b57fe5b9060005260206000209060030201600101546001600086815260200190815260200160002060050184815481106107ce57fe5b906000526020600020906003020160020154604051808473ffffffffffffffffffffffffffffffffffffffff1673ffffffffffffffffffffffffffffffffffffffff168152602001838152602001828152602001935050505060405180910390a180806001019150506106e5565b5050565b600083600015156001600083815260200190815260200160002060020160019054906101000a900460ff16151514156108ac5760006001600083815260200190815260200160002060020160006101000a81548160ff021916908360028111156108a657fe5b02179055505b600254600160008381526020019081526020016000206000015401421015806108ec57506103e86001600083815260200190815260200160002060010154145b156109345760026001600083815260200190815260200160002060020160006101000a81548160ff0219169083600281111561092457fe5b0217905550610932816105d7565b505b84600180600281111561094357fe5b6001600084815260200190815260200160002060020160009054906101000a900460ff16600281111561097257fe5b1461097c57600080fd5b600060606109b061098c89610a87565b6109ab600160008d815260200190815260200160002060040154610a87565b610bb4565b90506109bb81610c7c565b91506109c98933848a610edc565b15610a1b57600160008a815260200190815260200160002060040160008154809291906001019190505550600160008a8152602001908152602001600020600101600081548092919060010191905055505b6001955050505050509392505050565b60025481565b60016020528060005260406000206000915090508060000154908060010154908060020160009054906101000a900460ff16908060020160019054906101000a900460ff16908060030154908060040154905086565b60606000821415610acf576040518060400160405280600181526020017f30000000000000000000000000000000000000000000000000000000000000008152509050610baf565b600082905060005b60008214610af9578080600101915050600a8281610af157fe5b049150610ad7565b6060816040519080825280601f01601f191660200182016040528015610b2e5781602001600182028038833980820191505090505b50905060006001830390505b60008614610ba757600a8681610b4c57fe5b0660300160f81b82828060019003935081518110610b6657fe5b60200101907effffffffffffffffffffffffffffffffffffffffffffffffffffffffffffff1916908160001a905350600a8681610b9f57fe5b049550610b3a565b819450505050505b919050565b606082826040516020018083805190602001908083835b60208310610bee5780518252602082019150602081019050602083039250610bcb565b6001836020036101000a03801982511681845116808217855250505050505090500182805190602001908083835b60208310610c3f5780518252602082019150602081019050602083039250610c1c565b6001836020036101000a03801982511681845116808217855250505050505090500192505050604051602081830303815290604052905092915050565b6000606082905060008060009050600091505b8251821015610cea576000838381518110610ca657fe5b602001015160f81c60f81b60f81c60ff16905060308110158015610ccb575060398111155b15610cdc5760308103600a83020191505b508180600101925050610c8f565b809350505050919050565b600084600015156001600083815260200190815260200160002060020160019054906101000a900460ff1615151415610d615760006001600083815260200190815260200160002060020160006101000a81548160ff02191690836002811115610d5b57fe5b02179055505b60025460016000838152602001908152602001600020600001540142101580610da157506103e86001600083815260200190815260200160002060010154145b15610de95760026001600083815260200190815260200160002060020160006101000a81548160ff02191690836002811115610dd957fe5b0217905550610de7816105d7565b505b610df161186b565b60405180606001604052808773ffffffffffffffffffffffffffffffffffffffff16815260200186815260200185815250905060016000888152602001908152602001600020600501819080600181540180825580915050906001820390600052602060002090600302016000909192909190915060008201518160000160006101000a81548173ffffffffffffffffffffffffffffffffffffffff021916908373ffffffffffffffffffffffffffffffffffffffff1602179055506020820151816001015560408201518160020155505050610ecd876110c3565b50600192505050949350505050565b600084600015156001600083815260200190815260200160002060020160019054906101000a900460ff1615151415610f485760006001600083815260200190815260200160002060020160006101000a81548160ff02191690836002811115610f4257fe5b02179055505b60025460016000838152602001908152602001600020600001540142101580610f8857506103e86001600083815260200190815260200160002060010154145b15610fd05760026001600083815260200190815260200160002060020160006101000a81548160ff02191690836002811115610fc057fe5b0217905550610fce816105d7565b505b610fd861186b565b60405180606001604052808773ffffffffffffffffffffffffffffffffffffffff16815260200186815260200185815250905060016000888152602001908152602001600020600601819080600181540180825580915050906001820390600052602060002090600302016000909192909190915060008201518160000160006101000a81548173ffffffffffffffffffffffffffffffffffffffff021916908373ffffffffffffffffffffffffffffffffffffffff16021790555060208201518160010155604082015181600201555050506110b487611497565b50600192505050949350505050565b600081600015156001600083815260200190815260200160002060020160019054906101000a900460ff161515141561112f5760006001600083815260200190815260200160002060020160006101000a81548160ff0219169083600281111561112957fe5b02179055505b6002546001600083815260200190815260200160002060000154014210158061116f57506103e86001600083815260200190815260200160002060010154145b156111b75760026001600083815260200190815260200160002060020160006101000a81548160ff021916908360028111156111a757fe5b02179055506111b5816105d7565b505b60006001806000868152602001908152602001600020600501805490500390505b600081111561148c576000600260018303816111f057fe5b04905060016000868152602001908152602001600020600501818154811061121457fe5b90600052602060002090600302016001015460016000878152602001908152602001600020600501838154811061124757fe5b90600052602060002090600302016001015411156114805761126761186b565b60016000878152602001908152602001600020600501838154811061128857fe5b90600052602060002090600302016040518060600160405290816000820160009054906101000a900473ffffffffffffffffffffffffffffffffffffffff1673ffffffffffffffffffffffffffffffffffffffff1673ffffffffffffffffffffffffffffffffffffffff16815260200160018201548152602001600282015481525050905060016000878152602001908152602001600020600501828154811061132e57fe5b906000526020600020906003020160016000888152602001908152602001600020600501848154811061135d57fe5b90600052602060002090600302016000820160009054906101000a900473ffffffffffffffffffffffffffffffffffffffff168160000160006101000a81548173ffffffffffffffffffffffffffffffffffffffff021916908373ffffffffffffffffffffffffffffffffffffffff16021790555060018201548160010155600282015481600201559050508060016000888152602001908152602001600020600501838154811061140b57fe5b906000526020600020906003020160008201518160000160006101000a81548173ffffffffffffffffffffffffffffffffffffffff021916908373ffffffffffffffffffffffffffffffffffffffff160217905550602082015181600101556040820151816002015590505081925050611486565b5061148c565b506111d8565b600192505050919050565b600081600015156001600083815260200190815260200160002060020160019054906101000a900460ff16151514156115035760006001600083815260200190815260200160002060020160006101000a81548160ff021916908360028111156114fd57fe5b02179055505b6002546001600083815260200190815260200160002060000154014210158061154357506103e86001600083815260200190815260200160002060010154145b1561158b5760026001600083815260200190815260200160002060020160006101000a81548160ff0219169083600281111561157b57fe5b0217905550611589816105d7565b505b60006001806000868152602001908152602001600020600601805490500390505b6000811115611860576000600260018303816115c457fe5b0490506001600086815260200190815260200160002060060181815481106115e857fe5b90600052602060002090600302016001015460016000878152602001908152602001600020600601838154811061161b57fe5b90600052602060002090600302016001015410156118545761163b61186b565b60016000878152602001908152602001600020600601838154811061165c57fe5b90600052602060002090600302016040518060600160405290816000820160009054906101000a900473ffffffffffffffffffffffffffffffffffffffff1673ffffffffffffffffffffffffffffffffffffffff1673ffffffffffffffffffffffffffffffffffffffff16815260200160018201548152602001600282015481525050905060016000878152602001908152602001600020600601828154811061170257fe5b906000526020600020906003020160016000888152602001908152602001600020600601848154811061173157fe5b90600052602060002090600302016000820160009054906101000a900473ffffffffffffffffffffffffffffffffffffffff168160000160006101000a81548173ffffffffffffffffffffffffffffffffffffffff021916908373ffffffffffffffffffffffffffffffffffffffff1602179055506001820154816001015560028201548160020155905050806001600088815260200190815260200160002060060183815481106117df57fe5b906000526020600020906003020160008201518160000160006101000a81548173ffffffffffffffffffffffffffffffffffffffff021916908373ffffffffffffffffffffffffffffffffffffffff16021790555060208201518160010155604082015181600201559050508192505061185a565b50611860565b506115ac565b600192505050919050565b6040518060600160405280600073ffffffffffffffffffffffffffffffffffffffff1681526020016000815260200160008152509056fea265627a7a72315820151c2425e9de91fa06e0596be5579cb2fc0f37ba963d27001e99554fedf146e464736f6c634300050c0032",
  "source": "pragma solidity >=0.4.22;\n//pragma experimental ABIEncoderV2;\n\n//call martket (first version)\ncontract Orderbook_V13{\n\n//************************String Converaion and Contcatenation************************//\n\n\nfunction str2uint (string memory s) internal pure returns (uint) {\n        bytes memory b = bytes(s);\n        uint i;\n        uint result = 0;\n        for (i = 0; i < b.length; i++) {\n            uint c = uint(uint8(b[i]));\n            if (c >= 48 && c <= 57) {\n                result = result * 10 + (c - 48);\n            }\n        }\n    \n    return result;\n    }\n\nfunction uint2str(uint _i) internal pure returns (string memory _uintAsString) {\n        if (_i == 0) {\n            return \"0\";\n        }\n        uint j = _i;\n        uint len;\n        while (j != 0) {\n            len++;\n            j /= 10;\n        }\n        bytes memory bstr = new bytes(len);\n        uint k = len - 1;\n        while (_i != 0) {\n            bstr[k--] = byte(uint8(48 + _i % 10));\n            _i /= 10;\n        }\n        return string(bstr);\n    }\n\n// Contcatenation of strings\n    /*function contcat(string memory a, string memory b, string memory c ) internal pure returns (string memory) {\n\n        return string (abi.encodePacked( a , b, c));\n\n\n    }*/\n    function contcat(string memory a, string memory b) internal pure returns (string memory) {\n\n        return string (abi.encodePacked( a , b));\n\n\n    }\n\n//*********************************************************************************//\n\n//**********************************************//\n//Every order has some attributes:\n    struct OrderStruct\n    {\n        address Sender;\n        uint256 Price;\n        uint256 Volume; //The volume is 1 for now\n        //uint8 Type;         //1=Ask, 2=Bid\n\n    }\n//Every Auction has some attributes:\n    struct AuctionStruct\n    {\n        uint256 CreationTime;\n        uint256 NumOrders;      //Number of all the orders within the auction\n        States state;\n        bool isValue;\n        uint256 BuyListCounter;  //the counter for BuyList which sorts the order incrementally\n        uint256 SellListCounter;  //the counter for SellList which sorts the order decrementally\n        OrderStruct[] BuyList;  //The array that contains Bid OrderStructs (descending (decremental)), we always want the highest bid (maxheap)\n        OrderStruct[] SellList; //The array that contains Ask OrderStructs (ascending (incremental)), we always want the lowest ask (minheap)\n    }    \n    \n    \n    enum States {UnInitiallized, Opened, Closed} \n    //Opened: biddingTime, Settlement has not yet started.\n    //Locked: biddingTime’s over, Settlement’s satrted and not finished yet.\n    //Ended: biddingTime and Settlement are both over , which means the auction is ended. \n    uint256 numAuctions;\n    mapping (uint256 => AuctionStruct) public Auctions;\n    uint public biddingTime = 5 minutes;\n\n    event LogBuyList (address _sender, uint256 _price, uint256 _volume);\n\n\n//**********************************************//\n\n//**********************************************//\n    //Checks auction’s state.\n    modifier CheckAuctionStage (uint256 _AuctionID) {\n        if (Auctions[_AuctionID].isValue == false) {Auctions[_AuctionID].state = States.UnInitiallized;}\n        if (now >= Auctions[_AuctionID].CreationTime + biddingTime || Auctions[_AuctionID].NumOrders == 1000) \n        {\n            Auctions[_AuctionID].state = States.Closed;\n            CloseMarket(_AuctionID);\n            \n        }\n        _;\n    }\n    \n    modifier ToPlaceOrderAuctionAtStage (uint256 _AuctionID , States state_1) { \n        require (Auctions[_AuctionID].state == state_1);\n        _;\n    }\n    \n    modifier AuctionAtStage (uint256 _AuctionID , States state_1 ) { \n        require (Auctions[_AuctionID].state == state_1); \n        _;\n    }\n    \n//******************** OpenMarket function ********************//\n    \n    function OpenMarket() public returns (uint256 _AuctionID){\n    \n\n        _AuctionID = numAuctions++;\n        \n        Auctions[_AuctionID].CreationTime = now; \n        Auctions[_AuctionID].NumOrders = 0;\n        Auctions[_AuctionID].state = States.Opened;\n        Auctions[_AuctionID].isValue = true;\n        Auctions[_AuctionID].BuyListCounter = 999;\n        Auctions[_AuctionID].SellListCounter = 0;\n        \n\n    }\n//******************** CloseMarket function ********************//\n    \n    function CloseMarket(uint256 _AuctionID) public \n    CheckAuctionStage (_AuctionID)\n    returns (bool){\n\n        MatchOrders(_AuctionID);\n        return true;\n\n    }\n//******************** MatchOrders function ********************//\n    function MatchOrders(uint256 _AuctionID) public \n    AuctionAtStage (_AuctionID, States.Closed)\n    returns (bool){\n        \n        \n        \n        \n        \n        \n        \n        \n        \n        \n    }    \n//******************** submitBid function ********************//\n    //submitBid function calls the maxheap_insert function    \n    \n    function submitBid (uint256 _AuctionID, uint256 _price, uint256 _volume ) public \n    CheckAuctionStage (_AuctionID) \n    ToPlaceOrderAuctionAtStage (_AuctionID, States.Opened)\n    returns (bool)\n    {\n        uint256 _finalpriceUint;\n        string memory _finalpriceString;\n        _finalpriceString = contcat ( uint2str(_price), uint2str (Auctions[_AuctionID].BuyListCounter));\n        _finalpriceUint = str2uint (_finalpriceString);\n        \n        \n        if(maxheap_insert( _AuctionID , msg.sender, _finalpriceUint, _volume)){\n            Auctions[_AuctionID].BuyListCounter--;\n            Auctions[_AuctionID].NumOrders++;\n            \n        }\n        \n    \n        return true;\n    }\n\n//******************** submitask function ********************//\n    //submitAsk function calls the minheap_insert function\n    function submitAsk (uint256 _AuctionID, uint256 _price, uint256 _volume ) public \n    CheckAuctionStage (_AuctionID) \n    ToPlaceOrderAuctionAtStage (_AuctionID, States.Opened)\n    returns (bool)\n    {\n\n        uint256 _finalpriceUint;\n        string memory _finalpriceString;\n        _finalpriceString = contcat ( uint2str(_price), uint2str (Auctions[_AuctionID].SellListCounter));\n        _finalpriceUint = str2uint (_finalpriceString);\n        \n        if (minheap_insert( _AuctionID, msg.sender, _finalpriceUint, _volume))\n        {\n                Auctions[_AuctionID].SellListCounter++;\n                Auctions[_AuctionID].NumOrders++;\n        }\n        \n        return true;\n\n    }\n\n//*******************  maxheap Functions (BuyList) ****************//\n//*****************************************************************//\n//*****************************************************************//\n//*****************************************************************//\n\n\n//*******************  maxheap_insert () ***************************//\n    //the new item will be added to the end of the array list (a buy order is submitted)\n    //then heapified up with a call to heapifyUp method\n    function maxheap_insert (uint256 _AuctionID, address _sender, uint256 _price, uint256 _volume) internal \n    CheckAuctionStage (_AuctionID)\n    returns (bool)\n    {\n        \n        OrderStruct memory neworder = OrderStruct(_sender, _price ,_volume);\n        Auctions[_AuctionID].BuyList.push(neworder);\n        maxheap_heapifyUp (_AuctionID);\n        return true;\n    }    \n//*******************  maxheap_heapifyUp () ***************************//\n    //this function is called everytime we insert a new element to the end of the array (aka a new Buy order is submitted) and\n    //now the heap has to be sorted again\n    function maxheap_heapifyUp (uint256 _AuctionID) internal \n    CheckAuctionStage (_AuctionID)\n    returns (bool) {\n    \n        uint256 k = Auctions[_AuctionID].BuyList.length - 1;                   //k is set to be the last entry of the array (also heap) which is the element that's just added and has to be moved up\n        while (k > 0){                                  //while we havent reached to the top of the heap\n            uint256 p = (k-1)/2;                           //we need to compute the parent of this last element which is p = (k-1)/2\n            if (Auctions[_AuctionID].BuyList[k].Price > Auctions[_AuctionID].BuyList[p].Price) //if the element is greater than its parent\n            {   //\"!SYNTAX!\"\n                //Orderbook_V9.swap(SellList, k, p);              //swap the element at index k with its parent\n                OrderStruct memory temp = Auctions[_AuctionID].BuyList[k];    //\"!SYNTAX!\"//swap the element at index k with its parent\n                Auctions[_AuctionID].BuyList[k] = Auctions[_AuctionID].BuyList[p];\n                Auctions[_AuctionID].BuyList[p] = temp;\n                k = p;                                  //k moves up one level\n            }\n            else {break;}                               //if not the break statement exits the loop (it continues until no element index k is not greater than its parent)\n        }\n        return true;\n    }\n//*******************  minheap Functions (SellList) ****************//\n//*****************************************************************//\n//*****************************************************************//\n//*****************************************************************//\n\n//*******************  minheap_insert () ***************************//\n    //the new item will be added to the end of the array list (a buy order is submitted)\n    //then heapified up with a call to heapifyUp method\n    function minheap_insert (uint256 _AuctionID, address _sender, uint256 _price, uint256 _volume) internal \n    CheckAuctionStage (_AuctionID)\n    returns (bool)\n    {\n        OrderStruct memory neworder = OrderStruct(_sender, _price ,_volume); \n        Auctions[_AuctionID].SellList.push(neworder);\n        minheap_heapifyUp(_AuctionID);\n        return true;\n    }\n\n//*******************  minheap_heapifyUp () ***************************//\n    //this function is called everytime we insert a new element to the end of the array (aka a new sell order is submitted) and\n    //now the heap has to be sorted again\n    function minheap_heapifyUp (uint256 _AuctionID) internal \n    CheckAuctionStage (_AuctionID)\n    returns (bool) {\n\n        uint256 k = Auctions[_AuctionID].SellList.length - 1; //k is set to be the last entry of the array(also heap) which is the element that's just added and has to be moved up\n        while (k > 0){                                      //while we havent reached to the top of the heap\n            uint256 p = (k-1)/2;                            //we need to compute the parent of this last element which is p = (k-1)/2\n            if (Auctions[_AuctionID].SellList[k].Price < Auctions[_AuctionID].SellList[p].Price) //if the element is greater than its parent\n            { \n            \n                OrderStruct memory temp = Auctions[_AuctionID].SellList[k];    //swap the element at index k with its parent\n                Auctions[_AuctionID].SellList[k] = Auctions[_AuctionID].SellList[p];\n                Auctions[_AuctionID].SellList[p] = temp;\n                \n                k = p; //k moves up one level\n            }\n            else {break;} //if not the break statement exits the loop (it continues until no element index k is not greater than its parent)\n        }\n        \n        return true;\n    }\n\n\n\n\n\n\n\n\n//************************************************************************//\n    \n    function ReadBuyList(uint256 _AuctionID) public {\n        for (uint i = 0; i< Auctions[_AuctionID].BuyList.length ; i++) {\n            emit LogBuyList(Auctions[_AuctionID].BuyList[i].Sender, Auctions[_AuctionID].BuyList[i].Price, Auctions[_AuctionID].BuyList[i].Volume);\n            \n        }\n        \n    }\n\n\n//************************************************************************//\n//************************************************************************//\n//************************************************************************//\n\n}\n",
  "sourcePath": "/Users/Mahsa/Documents/2020-Orderbook/Code/Truffle/contracts/Exchange/Orderbook_V13.sol",
  "compiler": {
    "name": "solc",
    "version": "0.5.12+commit.7709ece9.Emscripten.clang"
  },
  "schemaVersion": "3.0.23",
  "updatedAt": "2020-04-22T16:31:14.240Z",
  "devdoc": {
    "methods": {}
  },
  "userdoc": {
    "methods": {}
  }
}