{
  "contractName": "Sorted_linkedlist_V3",
  "abi": [
    {
      "inputs": [],
      "payable": false,
      "stateMutability": "nonpayable",
      "type": "constructor"
    },
    {
      "anonymous": false,
      "inputs": [
        {
          "indexed": false,
          "internalType": "address",
          "name": "item",
          "type": "address"
        },
        {
          "indexed": false,
          "internalType": "uint256",
          "name": "data",
          "type": "uint256"
        }
      ],
      "name": "LogItems",
      "type": "event"
    },
    {
      "constant": true,
      "inputs": [],
      "name": "first",
      "outputs": [
        {
          "internalType": "contract Item",
          "name": "",
          "type": "address"
        }
      ],
      "payable": false,
      "stateMutability": "view",
      "type": "function"
    },
    {
      "constant": true,
      "inputs": [
        {
          "internalType": "uint256",
          "name": "",
          "type": "uint256"
        }
      ],
      "name": "itemdata",
      "outputs": [
        {
          "internalType": "uint256",
          "name": "",
          "type": "uint256"
        }
      ],
      "payable": false,
      "stateMutability": "view",
      "type": "function"
    },
    {
      "constant": true,
      "inputs": [
        {
          "internalType": "uint256",
          "name": "",
          "type": "uint256"
        }
      ],
      "name": "itemlist",
      "outputs": [
        {
          "internalType": "address",
          "name": "",
          "type": "address"
        }
      ],
      "payable": false,
      "stateMutability": "view",
      "type": "function"
    },
    {
      "constant": true,
      "inputs": [],
      "name": "value",
      "outputs": [
        {
          "internalType": "bool",
          "name": "",
          "type": "bool"
        }
      ],
      "payable": false,
      "stateMutability": "view",
      "type": "function"
    },
    {
      "constant": false,
      "inputs": [],
      "name": "isEmpty",
      "outputs": [
        {
          "internalType": "bool",
          "name": "",
          "type": "bool"
        }
      ],
      "payable": false,
      "stateMutability": "nonpayable",
      "type": "function"
    },
    {
      "constant": false,
      "inputs": [
        {
          "internalType": "uint256",
          "name": "_key",
          "type": "uint256"
        }
      ],
      "name": "contains",
      "outputs": [
        {
          "internalType": "bool",
          "name": "success",
          "type": "bool"
        }
      ],
      "payable": false,
      "stateMutability": "nonpayable",
      "type": "function"
    },
    {
      "constant": false,
      "inputs": [
        {
          "internalType": "uint256",
          "name": "_key",
          "type": "uint256"
        }
      ],
      "name": "remove",
      "outputs": [
        {
          "internalType": "contract Item",
          "name": "",
          "type": "address"
        }
      ],
      "payable": false,
      "stateMutability": "nonpayable",
      "type": "function"
    },
    {
      "constant": false,
      "inputs": [
        {
          "internalType": "uint256",
          "name": "_key",
          "type": "uint256"
        }
      ],
      "name": "insert",
      "outputs": [],
      "payable": false,
      "stateMutability": "nonpayable",
      "type": "function"
    },
    {
      "constant": false,
      "inputs": [],
      "name": "displaylist",
      "outputs": [],
      "payable": false,
      "stateMutability": "nonpayable",
      "type": "function"
    }
  ],
  "bytecode": "0x608060405234801561001057600080fd5b5060008060006101000a81548173ffffffffffffffffffffffffffffffffffffffff021916908373ffffffffffffffffffffffffffffffffffffffff1602179055506113d8806100616000396000f3fe608060405234801561001057600080fd5b50600436106100935760003560e01c8063727941d611610066578063727941d61461019457806390b5561d1461019e578063a3554eba146101cc578063c16acafb1461023a578063c34052e01461027c57610093565b80633df4ddf4146100985780633fa4f245146100e25780634cc8221514610104578063681fe70c14610172575b600080fd5b6100a06102c2565b604051808273ffffffffffffffffffffffffffffffffffffffff1673ffffffffffffffffffffffffffffffffffffffff16815260200191505060405180910390f35b6100ea6102e7565b604051808215151515815260200191505060405180910390f35b6101306004803603602081101561011a57600080fd5b81019080803590602001909291905050506102fa565b604051808273ffffffffffffffffffffffffffffffffffffffff1673ffffffffffffffffffffffffffffffffffffffff16815260200191505060405180910390f35b61017a610757565b604051808215151515815260200191505060405180910390f35b61019c6107ae565b005b6101ca600480360360208110156101b457600080fd5b8101908080359060200190929190505050610a9c565b005b6101f8600480360360208110156101e257600080fd5b8101908080359060200190929190505050610dfb565b604051808273ffffffffffffffffffffffffffffffffffffffff1673ffffffffffffffffffffffffffffffffffffffff16815260200191505060405180910390f35b6102666004803603602081101561025057600080fd5b8101908080359060200190929190505050610e37565b6040518082815260200191505060405180910390f35b6102a86004803603602081101561029257600080fd5b8101908080359060200190929190505050610e58565b604051808215151515815260200191505060405180910390f35b6000809054906101000a900473ffffffffffffffffffffffffffffffffffffffff1681565b600060149054906101000a900460ff1681565b6000806000809054906101000a900473ffffffffffffffffffffffffffffffffffffffff16905060008090505b838273ffffffffffffffffffffffffffffffffffffffff166373d4a13a6040518163ffffffff1660e01b815260040160206040518083038186803b15801561036e57600080fd5b505afa158015610382573d6000803e3d6000fd5b505050506040513d602081101561039857600080fd5b8101908080519060200190929190505050146104f957600073ffffffffffffffffffffffffffffffffffffffff168273ffffffffffffffffffffffffffffffffffffffff16634c8fe5266040518163ffffffff1660e01b815260040160206040518083038186803b15801561040c57600080fd5b505afa158015610420573d6000803e3d6000fd5b505050506040513d602081101561043657600080fd5b810190808051906020019092919050505073ffffffffffffffffffffffffffffffffffffffff16141561046e57600092505050610752565b8190508173ffffffffffffffffffffffffffffffffffffffff16634c8fe5266040518163ffffffff1660e01b815260040160206040518083038186803b1580156104b757600080fd5b505afa1580156104cb573d6000803e3d6000fd5b505050506040513d60208110156104e157600080fd5b81019080805190602001909291905050509150610327565b6000809054906101000a900473ffffffffffffffffffffffffffffffffffffffff1673ffffffffffffffffffffffffffffffffffffffff168273ffffffffffffffffffffffffffffffffffffffff161415610634576000809054906101000a900473ffffffffffffffffffffffffffffffffffffffff1673ffffffffffffffffffffffffffffffffffffffff16634c8fe5266040518163ffffffff1660e01b815260040160206040518083038186803b1580156105b557600080fd5b505afa1580156105c9573d6000803e3d6000fd5b505050506040513d60208110156105df57600080fd5b81019080805190602001909291905050506000806101000a81548173ffffffffffffffffffffffffffffffffffffffff021916908373ffffffffffffffffffffffffffffffffffffffff16021790555061074c565b8073ffffffffffffffffffffffffffffffffffffffff1663d7ef453f8373ffffffffffffffffffffffffffffffffffffffff16634c8fe5266040518163ffffffff1660e01b815260040160206040518083038186803b15801561069657600080fd5b505afa1580156106aa573d6000803e3d6000fd5b505050506040513d60208110156106c057600080fd5b81019080805190602001909291905050506040518263ffffffff1660e01b8152600401808273ffffffffffffffffffffffffffffffffffffffff1673ffffffffffffffffffffffffffffffffffffffff168152602001915050600060405180830381600087803b15801561073357600080fd5b505af1158015610747573d6000803e3d6000fd5b505050505b81925050505b919050565b60008073ffffffffffffffffffffffffffffffffffffffff166000809054906101000a900473ffffffffffffffffffffffffffffffffffffffff1673ffffffffffffffffffffffffffffffffffffffff1614905090565b60008060009054906101000a900473ffffffffffffffffffffffffffffffffffffffff1690505b600073ffffffffffffffffffffffffffffffffffffffff168173ffffffffffffffffffffffffffffffffffffffff16146109a35760018190806001815401808255809150509060018203906000526020600020016000909192909190916101000a81548173ffffffffffffffffffffffffffffffffffffffff021916908373ffffffffffffffffffffffffffffffffffffffff1602179055505060028173ffffffffffffffffffffffffffffffffffffffff166373d4a13a6040518163ffffffff1660e01b815260040160206040518083038186803b1580156108b757600080fd5b505afa1580156108cb573d6000803e3d6000fd5b505050506040513d60208110156108e157600080fd5b810190808051906020019092919050505090806001815401808255809150509060018203906000526020600020016000909192909190915055508073ffffffffffffffffffffffffffffffffffffffff16634c8fe5266040518163ffffffff1660e01b815260040160206040518083038186803b15801561096157600080fd5b505afa158015610975573d6000803e3d6000fd5b505050506040513d602081101561098b57600080fd5b810190808051906020019092919050505090506107d5565b60008090505b600180549050811015610a7c577f9f85869f4dccf5976749d8568898e40354db42f9aec0297b9484d15d530078cc600182815481106109e457fe5b9060005260206000200160009054906101000a900473ffffffffffffffffffffffffffffffffffffffff1660028381548110610a1c57fe5b9060005260206000200154604051808373ffffffffffffffffffffffffffffffffffffffff1673ffffffffffffffffffffffffffffffffffffffff1681526020018281526020019250505060405180910390a180806001019150506109a9565b5060016000610a8b9190611088565b60026000610a9991906110a9565b50565b600081604051610aab906110ca565b80828152602001915050604051809103906000f080158015610ad1573d6000803e3d6000fd5b50905060008060009054906101000a900473ffffffffffffffffffffffffffffffffffffffff16905060008090505b600073ffffffffffffffffffffffffffffffffffffffff168273ffffffffffffffffffffffffffffffffffffffff1614158015610bbc57508173ffffffffffffffffffffffffffffffffffffffff166373d4a13a6040518163ffffffff1660e01b815260040160206040518083038186803b158015610b7e57600080fd5b505afa158015610b92573d6000803e3d6000fd5b505050506040513d6020811015610ba857600080fd5b810190808051906020019092919050505084115b15610c4c578190508173ffffffffffffffffffffffffffffffffffffffff16634c8fe5266040518163ffffffff1660e01b815260040160206040518083038186803b158015610c0a57600080fd5b505afa158015610c1e573d6000803e3d6000fd5b505050506040513d6020811015610c3457600080fd5b81019080805190602001909291905050509150610b00565b600073ffffffffffffffffffffffffffffffffffffffff168173ffffffffffffffffffffffffffffffffffffffff161415610cc657826000806101000a81548173ffffffffffffffffffffffffffffffffffffffff021916908373ffffffffffffffffffffffffffffffffffffffff160217905550610d5e565b8073ffffffffffffffffffffffffffffffffffffffff1663d7ef453f846040518263ffffffff1660e01b8152600401808273ffffffffffffffffffffffffffffffffffffffff1673ffffffffffffffffffffffffffffffffffffffff168152602001915050600060405180830381600087803b158015610d4557600080fd5b505af1158015610d59573d6000803e3d6000fd5b505050505b8273ffffffffffffffffffffffffffffffffffffffff1663d7ef453f836040518263ffffffff1660e01b8152600401808273ffffffffffffffffffffffffffffffffffffffff1673ffffffffffffffffffffffffffffffffffffffff168152602001915050600060405180830381600087803b158015610ddd57600080fd5b505af1158015610df1573d6000803e3d6000fd5b5050505050505050565b60018181548110610e0857fe5b906000526020600020016000915054906101000a900473ffffffffffffffffffffffffffffffffffffffff1681565b60028181548110610e4457fe5b906000526020600020016000915090505481565b6000806000809054906101000a900473ffffffffffffffffffffffffffffffffffffffff1690505b828173ffffffffffffffffffffffffffffffffffffffff166373d4a13a6040518163ffffffff1660e01b815260040160206040518083038186803b158015610ec757600080fd5b505afa158015610edb573d6000803e3d6000fd5b505050506040513d6020811015610ef157600080fd5b81019080805190602001909291905050501461106557600073ffffffffffffffffffffffffffffffffffffffff168173ffffffffffffffffffffffffffffffffffffffff16634c8fe5266040518163ffffffff1660e01b815260040160206040518083038186803b158015610f6557600080fd5b505afa158015610f79573d6000803e3d6000fd5b505050506040513d6020811015610f8f57600080fd5b810190808051906020019092919050505073ffffffffffffffffffffffffffffffffffffffff161415610fdd5760008060146101000a81548160ff0219169083151502179055915050611083565b8073ffffffffffffffffffffffffffffffffffffffff16634c8fe5266040518163ffffffff1660e01b815260040160206040518083038186803b15801561102357600080fd5b505afa158015611037573d6000803e3d6000fd5b505050506040513d602081101561104d57600080fd5b81019080805190602001909291905050509050610e80565b6001600060146101000a81548160ff02191690831515021790559150505b919050565b50805460008255906000526020600020908101906110a691906110d7565b50565b50805460008255906000526020600020908101906110c791906110d7565b50565b6102a7806110fd83390190565b6110f991905b808211156110f55760008160009055506001016110dd565b5090565b9056fe608060405234801561001057600080fd5b506040516102a73803806102a78339818101604052602081101561003357600080fd5b81019080805190602001909291905050508060018190555060008060006101000a81548173ffffffffffffffffffffffffffffffffffffffff021916908373ffffffffffffffffffffffffffffffffffffffff1602179055505061020b8061009c6000396000f3fe608060405234801561001057600080fd5b50600436106100575760003560e01c806313bdfacd1461005c5780634c8fe5261461007a57806373d4a13a146100c457806385d46bf1146100e2578063d7ef453f14610110575b600080fd5b610064610154565b6040518082815260200191505060405180910390f35b61008261015e565b604051808273ffffffffffffffffffffffffffffffffffffffff1673ffffffffffffffffffffffffffffffffffffffff16815260200191505060405180910390f35b6100cc610183565b6040518082815260200191505060405180910390f35b61010e600480360360208110156100f857600080fd5b8101908080359060200190929190505050610189565b005b6101526004803603602081101561012657600080fd5b81019080803573ffffffffffffffffffffffffffffffffffffffff169060200190929190505050610193565b005b6000600154905090565b6000809054906101000a900473ffffffffffffffffffffffffffffffffffffffff1681565b60015481565b8060018190555050565b806000806101000a81548173ffffffffffffffffffffffffffffffffffffffff021916908373ffffffffffffffffffffffffffffffffffffffff1602179055505056fea265627a7a7231582003690b300ff2d40f3c150572d6aa0badeddf746b71a0b74bfe6d1fd95339cbba64736f6c634300050c0032a265627a7a7231582088713f2a8a2ba8594bebc7cb998ad8b47ff4c0e70bc5cc5174f4f3c8eaa6cff864736f6c634300050c0032",
  "source": "pragma solidity >=0.4.22;\n\n\ncontract Sorted_linkedlist_V3{\n    Item public first;\n    event LogItems(address item, uint data);\n    \n    constructor() public {\n        first = Item(0);\n        \n \n    }\n\n    function isEmpty() public returns (bool){ //returns true if the list is empty\n        \n        return (first == Item(0));\n    }\n\n    bool public value;\n    function contains(uint _key) public returns (bool success)  //returns true if the key is in the list\n    { \n        Item current = first;\n        while (current.data() != _key)\n        {\n            if (current.next() == Item(0))\n            {\n                return value = false; //we reach the end of the list and we dont find the _key, so we return false\n                \n            }\n            else \n            {\n                current = current.next();\n            }\n        }\n        return value = true;\n        \n    }\n    \n    \n    function remove(uint _key) public returns (Item)  \n    { \n        Item current = first;\n        Item previous = Item(0);\n        while (current.data() != _key)\n        {\n            if (current.next() == Item(0))\n            {\n                return Item(0); //we have not found the element so we return null\n            }\n            \n            else \n            {   previous = current;\n                current = current.next();\n            }\n        }\n        //we exit the while loop while we find the key\n        //now if have to check if the node we want to delete is the first node\n        if (current == first)\n        {   \n            first = first.next();\n            \n        }\n        else\n        {\n            previous.addNew(current.next());\n        }\n        return current;\n        \n    }\n\n    function insert(uint _key) public \n    {\n        Item newitem = new Item (_key);\n        Item current = first; \n        Item previous = Item(0);\n        \n        //we iterate through our list with 2 conditions:\n        while (current != Item(0) && _key > current.data()) //The linkedlist is sorted in an ascending order (increasing)\n        {\n            previous = current;\n            current = current.next();\n            // we only exit this loop if we find the position to insert our data;\n        } \n        //now if we have to check if we have to insert the node to the begining of the list:\n        if (previous == Item(0)) //it means the current is equal to first and in that case we have to insert the node as a new head\n        {\n            first = newitem; \n        }\n        else //the node next to the privious is no longer the current but it's our new node\n        {\n            previous.addNew(newitem);\n        }\n        \n        //and in all cases regardless of if it's a first node or not, we must say we have to say the node next to our new node is current\n        \n        newitem.addNew(current);\n    }            \n    \n    address[]  public itemlist;\n    uint[] public itemdata;\n    function displaylist() public \n    {  \n            \n        \n\n        Item current = first;\n        while (current != Item(0)) //while the list is not empty\n        {\n            \n            itemlist.push(address(current));\n            itemdata.push(current.data());\n            current = current.next();\n            \n            \n        }\n        for (uint i=0; i < itemlist.length; i++) \n        {\n            emit LogItems(itemlist[i], itemdata[i]);\n        }\n        //itemlist.length=0;\n        //itemdata.length=0;\n        delete itemlist;\n        delete itemdata;\n\n    }          \n        \n\n\n}        \n                \n    contract Item {\n    Item public next;\n    uint public data;\n    \n\n    constructor(uint _data) public {\n        \n        data = _data;\n        next = Item(0);\n    }\n\n    function addNew(Item item) public {\n        \n        next = item;\n       \n    }\n   \n    \n    function replacedata ( uint _data) public {\n        data = _data;\n        \n    }\n    \n\n    \n    function print () public returns (uint){\n        return data;\n        \n    }\n    \n    \n    \n    \n    \n    \n    \n    \n    \n    \n}\n        \n            \n        \n        \n        \n    \n\n\n            \n        \n\n        \n    \n    \n\n\n\n\n",
  "sourcePath": "/Users/Mahsa/Documents/2020-Orderbook/Code/Truffle/contracts/CallMarket/Linked List/Sorted_linkedlist_V3.sol",
  "compiler": {
    "name": "solc",
    "version": "0.5.12+commit.7709ece9.Emscripten.clang"
  },
  "schemaVersion": "3.1.0",
  "updatedAt": "2020-05-30T21:43:56.171Z",
  "networkType": "ethereum",
  "devdoc": {
    "methods": {}
  },
  "userdoc": {
    "methods": {}
  }
}