{
  "contractName": "test",
  "abi": [
    {
      "constant": true,
      "inputs": [
        {
          "internalType": "uint256",
          "name": "",
          "type": "uint256"
        }
      ],
      "name": "BuyList",
      "outputs": [
        {
          "internalType": "address",
          "name": "Sender",
          "type": "address"
        },
        {
          "internalType": "uint256",
          "name": "Price",
          "type": "uint256"
        },
        {
          "internalType": "uint256",
          "name": "Volume",
          "type": "uint256"
        }
      ],
      "payable": false,
      "stateMutability": "view",
      "type": "function"
    },
    {
      "constant": true,
      "inputs": [
        {
          "internalType": "address",
          "name": "",
          "type": "address"
        }
      ],
      "name": "EtherBalance",
      "outputs": [
        {
          "internalType": "uint256",
          "name": "",
          "type": "uint256"
        }
      ],
      "payable": false,
      "stateMutability": "view",
      "type": "function"
    },
    {
      "constant": true,
      "inputs": [
        {
          "internalType": "uint256",
          "name": "",
          "type": "uint256"
        }
      ],
      "name": "SellList",
      "outputs": [
        {
          "internalType": "address",
          "name": "Sender",
          "type": "address"
        },
        {
          "internalType": "uint256",
          "name": "Price",
          "type": "uint256"
        },
        {
          "internalType": "uint256",
          "name": "Volume",
          "type": "uint256"
        }
      ],
      "payable": false,
      "stateMutability": "view",
      "type": "function"
    },
    {
      "constant": true,
      "inputs": [
        {
          "internalType": "address",
          "name": "",
          "type": "address"
        },
        {
          "internalType": "address",
          "name": "",
          "type": "address"
        }
      ],
      "name": "TokenBalance",
      "outputs": [
        {
          "internalType": "uint256",
          "name": "",
          "type": "uint256"
        }
      ],
      "payable": false,
      "stateMutability": "view",
      "type": "function"
    },
    {
      "constant": false,
      "inputs": [
        {
          "internalType": "address",
          "name": "_token",
          "type": "address"
        },
        {
          "internalType": "uint256",
          "name": "_amount",
          "type": "uint256"
        }
      ],
      "name": "DepositToken",
      "outputs": [
        {
          "internalType": "bool",
          "name": "",
          "type": "bool"
        }
      ],
      "payable": false,
      "stateMutability": "nonpayable",
      "type": "function"
    },
    {
      "constant": false,
      "inputs": [],
      "name": "DepositEther",
      "outputs": [
        {
          "internalType": "bool",
          "name": "",
          "type": "bool"
        }
      ],
      "payable": true,
      "stateMutability": "payable",
      "type": "function"
    },
    {
      "constant": false,
      "inputs": [
        {
          "internalType": "uint256",
          "name": "_price",
          "type": "uint256"
        },
        {
          "internalType": "uint256",
          "name": "_volume",
          "type": "uint256"
        }
      ],
      "name": "submitBid",
      "outputs": [
        {
          "internalType": "bool",
          "name": "",
          "type": "bool"
        }
      ],
      "payable": false,
      "stateMutability": "nonpayable",
      "type": "function"
    },
    {
      "constant": false,
      "inputs": [
        {
          "internalType": "uint256",
          "name": "_price",
          "type": "uint256"
        },
        {
          "internalType": "uint256",
          "name": "_volume",
          "type": "uint256"
        }
      ],
      "name": "submitAsk",
      "outputs": [
        {
          "internalType": "bool",
          "name": "",
          "type": "bool"
        }
      ],
      "payable": false,
      "stateMutability": "nonpayable",
      "type": "function"
    },
    {
      "constant": true,
      "inputs": [],
      "name": "BuyListpeak",
      "outputs": [
        {
          "components": [
            {
              "internalType": "address",
              "name": "Sender",
              "type": "address"
            },
            {
              "internalType": "uint256",
              "name": "Price",
              "type": "uint256"
            },
            {
              "internalType": "uint256",
              "name": "Volume",
              "type": "uint256"
            }
          ],
          "internalType": "struct test.OrderStruct",
          "name": "",
          "type": "tuple"
        }
      ],
      "payable": false,
      "stateMutability": "view",
      "type": "function"
    },
    {
      "constant": false,
      "inputs": [
        {
          "internalType": "address",
          "name": "_token",
          "type": "address"
        }
      ],
      "name": "MatchOrders",
      "outputs": [
        {
          "internalType": "bool",
          "name": "",
          "type": "bool"
        }
      ],
      "payable": false,
      "stateMutability": "nonpayable",
      "type": "function"
    },
    {
      "constant": false,
      "inputs": [],
      "name": "claimTokens",
      "outputs": [
        {
          "internalType": "bool",
          "name": "",
          "type": "bool"
        }
      ],
      "payable": false,
      "stateMutability": "nonpayable",
      "type": "function"
    },
    {
      "constant": false,
      "inputs": [
        {
          "internalType": "address",
          "name": "_token",
          "type": "address"
        }
      ],
      "name": "claimTokens",
      "outputs": [
        {
          "internalType": "bool",
          "name": "",
          "type": "bool"
        }
      ],
      "payable": false,
      "stateMutability": "nonpayable",
      "type": "function"
    }
  ],
  "bytecode": "0x608060405234801561001057600080fd5b506114ad806100206000396000f3fe6080604052600436106100a75760003560e01c806347ea50041161006457806347ea5004146101ed57806348c54b9d1461022a5780637288a28a14610255578063a7ef10e514610292578063b821da1b146102cf578063df8de3e71461030c576100a7565b80630def7a3b146100ac5780631646e893146100d75780631eae438114610116578063253a96e9146101555780632d0c0a881461017357806347da9052146101b0575b600080fd5b3480156100b857600080fd5b506100c1610349565b6040516100ce9190611360565b60405180910390f35b3480156100e357600080fd5b506100fe60048036036100f9919081019061114d565b6103e6565b60405161010d939291906112ee565b60405180910390f35b34801561012257600080fd5b5061013d6004803603610138919081019061114d565b61043d565b60405161014c939291906112ee565b60405180910390f35b61015d610494565b60405161016a9190611325565b60405180910390f35b34801561017f57600080fd5b5061019a600480360361019591908101906110e8565b6104ea565b6040516101a79190611325565b60405180910390f35b3480156101bc57600080fd5b506101d760048036036101d29190810190611083565b610618565b6040516101e4919061137b565b60405180910390f35b3480156101f957600080fd5b50610214600480360361020f91908101906110ac565b610630565b604051610221919061137b565b60405180910390f35b34801561023657600080fd5b5061023f610655565b60405161024c9190611325565b60405180910390f35b34801561026157600080fd5b5061027c60048036036102779190810190611176565b61077a565b6040516102899190611325565b60405180910390f35b34801561029e57600080fd5b506102b960048036036102b49190810190611083565b610842565b6040516102c69190611325565b60405180910390f35b3480156102db57600080fd5b506102f660048036036102f19190810190611176565b610a26565b6040516103039190611325565b60405180910390f35b34801561031857600080fd5b50610333600480360361032e9190810190611083565b610aed565b6040516103409190611325565b60405180910390f35b61035161100d565b6000808154811061035e57fe5b90600052602060002090600302016040518060600160405290816000820160009054906101000a900473ffffffffffffffffffffffffffffffffffffffff1673ffffffffffffffffffffffffffffffffffffffff1673ffffffffffffffffffffffffffffffffffffffff16815260200160018201548152602001600282015481525050905090565b600181815481106103f357fe5b90600052602060002090600302016000915090508060000160009054906101000a900473ffffffffffffffffffffffffffffffffffffffff16908060010154908060020154905083565b6000818154811061044a57fe5b90600052602060002090600302016000915090508060000160009054906101000a900473ffffffffffffffffffffffffffffffffffffffff16908060010154908060020154905083565b600034600460003373ffffffffffffffffffffffffffffffffffffffff1673ffffffffffffffffffffffffffffffffffffffff168152602001908152602001600020600082825401925050819055506001905090565b60008273ffffffffffffffffffffffffffffffffffffffff166323b872dd3330856040518463ffffffff1660e01b81526004016105299392919061128e565b602060405180830381600087803b15801561054357600080fd5b505af1158015610557573d6000803e3d6000fd5b505050506040513d601f19601f8201168201806040525061057b9190810190611124565b61058457600080fd5b81600360003373ffffffffffffffffffffffffffffffffffffffff1673ffffffffffffffffffffffffffffffffffffffff16815260200190815260200160002060008573ffffffffffffffffffffffffffffffffffffffff1673ffffffffffffffffffffffffffffffffffffffff168152602001908152602001600020600082825401925050819055506001905092915050565b60046020528060005260406000206000915090505481565b6003602052816000526040600020602052806000526040600020600091509150505481565b600080600460003373ffffffffffffffffffffffffffffffffffffffff1673ffffffffffffffffffffffffffffffffffffffff16815260200190815260200160002054116106a257600080fd5b6000600460003373ffffffffffffffffffffffffffffffffffffffff1673ffffffffffffffffffffffffffffffffffffffff1681526020019081526020016000205490506000600460003373ffffffffffffffffffffffffffffffffffffffff1673ffffffffffffffffffffffffffffffffffffffff168152602001908152602001600020819055503373ffffffffffffffffffffffffffffffffffffffff166108fc829081150290604051600060405180830381858888f19350505050158015610771573d6000803e3d6000fd5b50600191505090565b6000600160405180606001604052803373ffffffffffffffffffffffffffffffffffffffff168152602001858152602001848152509080600181540180825580915050906001820390600052602060002090600302016000909192909190915060008201518160000160006101000a81548173ffffffffffffffffffffffffffffffffffffffff021916908373ffffffffffffffffffffffffffffffffffffffff16021790555060208201518160010155604082015181600201555050506001905092915050565b6000806000600160008154811061085557fe5b9060005260206000209060030201600101546000808154811061087457fe5b9060005260206000209060030201600101541115610a1f576000808154811061089957fe5b906000526020600020906003020160010154915060016000815481106108bb57fe5b906000526020600020906003020160010154905061097660016000815481106108e057fe5b906000526020600020906003020160000160009054906101000a900473ffffffffffffffffffffffffffffffffffffffff166000808154811061091f57fe5b906000526020600020906003020160000160009054906101000a900473ffffffffffffffffffffffffffffffffffffffff16866000808154811061095f57fe5b906000526020600020906003020160020154610d12565b610a1e6000808154811061098657fe5b906000526020600020906003020160000160009054906101000a900473ffffffffffffffffffffffffffffffffffffffff1660016000815481106109c657fe5b906000526020600020906003020160000160009054906101000a900473ffffffffffffffffffffffffffffffffffffffff16866001600081548110610a0757fe5b906000526020600020906003020160010154610eeb565b5b5050919050565b60008060405180606001604052803373ffffffffffffffffffffffffffffffffffffffff168152602001858152602001848152509080600181540180825580915050906001820390600052602060002090600302016000909192909190915060008201518160000160006101000a81548173ffffffffffffffffffffffffffffffffffffffff021916908373ffffffffffffffffffffffffffffffffffffffff16021790555060208201518160010155604082015181600201555050506001905092915050565b600080600360003373ffffffffffffffffffffffffffffffffffffffff1673ffffffffffffffffffffffffffffffffffffffff16815260200190815260200160002060008473ffffffffffffffffffffffffffffffffffffffff1673ffffffffffffffffffffffffffffffffffffffff1681526020019081526020016000205411610b7757600080fd5b6000600360003373ffffffffffffffffffffffffffffffffffffffff1673ffffffffffffffffffffffffffffffffffffffff16815260200190815260200160002060008473ffffffffffffffffffffffffffffffffffffffff1673ffffffffffffffffffffffffffffffffffffffff1681526020019081526020016000205490506000600360003373ffffffffffffffffffffffffffffffffffffffff1673ffffffffffffffffffffffffffffffffffffffff16815260200190815260200160002060008573ffffffffffffffffffffffffffffffffffffffff1673ffffffffffffffffffffffffffffffffffffffff168152602001908152602001600020819055508273ffffffffffffffffffffffffffffffffffffffff1663a9059cbb33836040518363ffffffff1660e01b8152600401610cb59291906112c5565b602060405180830381600087803b158015610ccf57600080fd5b505af1158015610ce3573d6000803e3d6000fd5b505050506040513d601f19601f82011682018060405250610d079190810190611124565b506001915050919050565b80600360008673ffffffffffffffffffffffffffffffffffffffff1673ffffffffffffffffffffffffffffffffffffffff16815260200190815260200160002060008473ffffffffffffffffffffffffffffffffffffffff1673ffffffffffffffffffffffffffffffffffffffff168152602001908152602001600020541015610dd1576040517f08c379a0000000000000000000000000000000000000000000000000000000008152600401610dc890611340565b60405180910390fd5b80600360008673ffffffffffffffffffffffffffffffffffffffff1673ffffffffffffffffffffffffffffffffffffffff16815260200190815260200160002060008473ffffffffffffffffffffffffffffffffffffffff1673ffffffffffffffffffffffffffffffffffffffff1681526020019081526020016000206000828254039250508190555080600360008573ffffffffffffffffffffffffffffffffffffffff1673ffffffffffffffffffffffffffffffffffffffff16815260200190815260200160002060008473ffffffffffffffffffffffffffffffffffffffff1673ffffffffffffffffffffffffffffffffffffffff1681526020019081526020016000206000828254019250508190555050505050565b80600460008673ffffffffffffffffffffffffffffffffffffffff1673ffffffffffffffffffffffffffffffffffffffff168152602001908152602001600020541015610f6d576040517f08c379a0000000000000000000000000000000000000000000000000000000008152600401610f6490611340565b60405180910390fd5b80600460008673ffffffffffffffffffffffffffffffffffffffff1673ffffffffffffffffffffffffffffffffffffffff1681526020019081526020016000206000828254039250508190555080600460008573ffffffffffffffffffffffffffffffffffffffff1673ffffffffffffffffffffffffffffffffffffffff1681526020019081526020016000206000828254019250508190555050505050565b6040518060600160405280600073ffffffffffffffffffffffffffffffffffffffff16815260200160008152602001600081525090565b60008135905061105381611425565b92915050565b6000815190506110688161143c565b92915050565b60008135905061107d81611453565b92915050565b60006020828403121561109557600080fd5b60006110a384828501611044565b91505092915050565b600080604083850312156110bf57600080fd5b60006110cd85828601611044565b92505060206110de85828601611044565b9150509250929050565b600080604083850312156110fb57600080fd5b600061110985828601611044565b925050602061111a8582860161106e565b9150509250929050565b60006020828403121561113657600080fd5b600061114484828501611059565b91505092915050565b60006020828403121561115f57600080fd5b600061116d8482850161106e565b91505092915050565b6000806040838503121561118957600080fd5b60006111978582860161106e565b92505060206111a88582860161106e565b9150509250929050565b6111bb816113ef565b82525050565b6111ca816113a7565b82525050565b6111d9816113a7565b82525050565b6111e8816113b9565b82525050565b60006111fb601583611396565b91507f496e73756666696369656e742062616c616e63652e00000000000000000000006000830152602082019050919050565b60608201600082015161124460008501826111c1565b5060208201516112576020850182611270565b50604082015161126a6040850182611270565b50505050565b611279816113e5565b82525050565b611288816113e5565b82525050565b60006060820190506112a360008301866111b2565b6112b060208301856111d0565b6112bd604083018461127f565b949350505050565b60006040820190506112da60008301856111b2565b6112e7602083018461127f565b9392505050565b600060608201905061130360008301866111d0565b611310602083018561127f565b61131d604083018461127f565b949350505050565b600060208201905061133a60008301846111df565b92915050565b60006020820190508181036000830152611359816111ee565b9050919050565b6000606082019050611375600083018461122e565b92915050565b6000602082019050611390600083018461127f565b92915050565b600082825260208201905092915050565b60006113b2826113c5565b9050919050565b60008115159050919050565b600073ffffffffffffffffffffffffffffffffffffffff82169050919050565b6000819050919050565b60006113fa82611401565b9050919050565b600061140c82611413565b9050919050565b600061141e826113c5565b9050919050565b61142e816113a7565b811461143957600080fd5b50565b611445816113b9565b811461145057600080fd5b50565b61145c816113e5565b811461146757600080fd5b5056fea365627a7a7231582087978734aa3b112abf9a4ae006dd0474e77181626d9e167b957e38d604f910896c6578706572696d656e74616cf564736f6c634300050c0040",
  "source": "pragma solidity >=0.4.22;\npragma experimental ABIEncoderV2;\n//pragma experimental ABIEncoderV2;\n//import \"http://github.com/OpenZeppelin/openzeppelin-solidity/contracts/token/ERC20/IERC20.sol\";\nimport \"openzeppelin-solidity/contracts/token/ERC20/IERC20.sol\";\n\ncontract test{\n    struct OrderStruct \n    {\n        address Sender;\n        uint256 Price;\n        //uint256 AuxPrice; //This is not the real price of the order, it's the contcantenation of the real price and the counter which helps to sort the heap wehen there are ties\n        uint256 Volume; //The volume is 1 for now\n        \n    }\n    \n    OrderStruct[] public BuyList;  \n    OrderStruct[] public SellList;\n    \n    \n    mapping(address => uint) internal refunds;\n   \n   \n   \n   //To make the escrow fully general, the contract does not assume a specific ERC20 token, \n    //so a single account may escrow different tokens at the same time. \n    //For each (account, token) pair, the contract tracks its balance and the time when escrow expires:\n    //User (Sellers) => Token => balanace\n    mapping(address => mapping(address => uint256)) public TokenBalance;\n    //mapping(address => mapping(address => uint256)) public escrowExpiration;\n    \n    \n    //User (Biders) => balance(Ether)\n    mapping(address => uint256) public EtherBalance;\n\n//**************DepositToken() Function*********************//   \n    //The token holder must first approve the amount to the exchange contract by calling the approve() from the ERC20 token contract\n    function DepositToken(address _token, uint256 _amount) public returns (bool) {\n        \n        require(IERC20(_token).transferFrom(msg.sender, address(this), _amount));\n        TokenBalance[msg.sender][_token] += _amount;\n        return true;\n        \n    }\n//**************DepositEther() Function*********************//    \n    \n    function DepositEther() public payable returns (bool) {\n        \n        EtherBalance[msg.sender] += msg.value;\n        return true;\n        \n    }     \n    \n//**********************************************************************    \n    \n    \n    \n    function submitBid (uint256 _price, uint256 _volume) public  returns (bool)\n    {\n        \n        \n         BuyList.push(OrderStruct({ Sender: msg.sender, Price: _price, Volume: _volume}));   \n    \n        return true;\n    }\n//**********************************************************************    \n    \n    function submitAsk (uint256 _price, uint256 _volume) public  returns (bool)\n    {\n        \n        \n         SellList.push(OrderStruct({ Sender: msg.sender, Price: _price, Volume: _volume}));   \n    \n        return true;\n    }\n    \n    \n    \n//**********************************************************************       \n    \n    \n    function BuyListpeak() public view returns (OrderStruct memory){\n\n        return (BuyList[0]);\n    }\n\n//**********************************************************************        \n    function transferToken( address _fromSeller, address _toBuyer, address _token, uint256 _numofTokens) internal\n    {\n        require(TokenBalance[_fromSeller][_token] >= _numofTokens,  \"Insufficient balance.\");\n\n        TokenBalance[_fromSeller][_token] -= _numofTokens;\n        TokenBalance[_toBuyer][_token] += _numofTokens;\n    }\n    \n    function transferEther( address _fromBuyer, address _toSeller, address _token, uint256 _numofEthers) internal\n    {\n        require(EtherBalance[_fromBuyer] >= _numofEthers,  \"Insufficient balance.\");\n\n        EtherBalance[_fromBuyer] -= _numofEthers;\n        EtherBalance[_toSeller] += _numofEthers;\n    }\n\n//**********************************************************************            \n    \n    function MatchOrders(address _token) public returns (bool){\n        \n        uint256 BestBid;\n        uint256 BestAsk;\n        //uint256 MatchingPrice;\n        \n        if (BuyList[0].Price > SellList[0].Price)\n        {\n            BestBid = BuyList[0].Price;\n            BestAsk = SellList[0].Price;\n            //MatchingPrice = BestBid - BestAsk;\n            transferToken (SellList[0].Sender, BuyList[0].Sender, _token, BuyList[0].Volume);\n            transferEther (BuyList[0].Sender,SellList[0].Sender, _token, SellList[0].Price );\n            \n            \n            \n            \n            \n           /* \n            //Pays the difference to the miner\n            refunds[block.coinbase] += BestBid - BestAsk;\n             refund = refunds[block.coinbase]; \n            refunds[block.coinbase] = 0; \n            block.coinbase.transfer(refund);\n        \n            */\n            \n        }\n        \n        \n        /*if (BuyListpeak(_AuctionID).Price == SellListpeak(_AuctionID).Price)\n        {\n            BestBid = BuyListpeak(_AuctionID).Price;\n            BestAsk = SellListpeak(_AuctionID).Price;\n            \n            BestBid - BestAsk\n            \n            \n        }*/\n\n        \n    }\n    \n    \n    function claimTokens (address _token) public returns (bool)\n    {\n        //require(!_investors[msg.sender].claimed);\n        require (TokenBalance[msg.sender][_token] > 0);\n        uint tokensToBeClaimed = TokenBalance[msg.sender][_token] ;\n        //_investors[msg.sender].claimed = true;  \n        TokenBalance[msg.sender][_token] = 0;\n        IERC20(_token).transfer(msg.sender, tokensToBeClaimed);\n        return true;\n    }\n    \n    function claimTokens () public returns (bool)\n    {\n        //require(!_investors[msg.sender].claimed);\n        require (EtherBalance[msg.sender] > 0);\n        uint EthersToBeClaimed = EtherBalance[msg.sender] ;\n        //_investors[msg.sender].claimed = true;  \n        EtherBalance[msg.sender]  = 0;\n        msg.sender.transfer(EthersToBeClaimed);\n        return true;\n    }\n    \n    \n    \n    \n    \n    \n}",
  "sourcePath": "/Users/Mahsa/Documents/2020-Orderbook/Code/Truffle/contracts/Exchange/test_order_matching.sol",
  "compiler": {
    "name": "solc",
    "version": "0.5.12+commit.7709ece9.Emscripten.clang"
  },
  "schemaVersion": "3.0.23",
  "updatedAt": "2020-04-22T16:31:14.492Z",
  "devdoc": {
    "methods": {}
  },
  "userdoc": {
    "methods": {}
  }
}