{
  "contractName": "BuyList",
  "abi": [
    {
      "inputs": [
        {
          "internalType": "address",
          "name": "_sender",
          "type": "address"
        },
        {
          "internalType": "uint256",
          "name": "_price",
          "type": "uint256"
        },
        {
          "internalType": "uint256",
          "name": "_volume",
          "type": "uint256"
        },
        {
          "internalType": "bool",
          "name": "_exists",
          "type": "bool"
        },
        {
          "internalType": "uint256",
          "name": "_auxprice",
          "type": "uint256"
        }
      ],
      "payable": false,
      "stateMutability": "nonpayable",
      "type": "constructor"
    },
    {
      "constant": true,
      "inputs": [],
      "name": "AuxPrice",
      "outputs": [
        {
          "internalType": "uint256",
          "name": "",
          "type": "uint256"
        }
      ],
      "payable": false,
      "stateMutability": "view",
      "type": "function"
    },
    {
      "constant": true,
      "inputs": [],
      "name": "Exists",
      "outputs": [
        {
          "internalType": "bool",
          "name": "",
          "type": "bool"
        }
      ],
      "payable": false,
      "stateMutability": "view",
      "type": "function"
    },
    {
      "constant": true,
      "inputs": [],
      "name": "Price",
      "outputs": [
        {
          "internalType": "uint256",
          "name": "",
          "type": "uint256"
        }
      ],
      "payable": false,
      "stateMutability": "view",
      "type": "function"
    },
    {
      "constant": true,
      "inputs": [],
      "name": "Sender",
      "outputs": [
        {
          "internalType": "address",
          "name": "",
          "type": "address"
        }
      ],
      "payable": false,
      "stateMutability": "view",
      "type": "function"
    },
    {
      "constant": true,
      "inputs": [],
      "name": "Volume",
      "outputs": [
        {
          "internalType": "uint256",
          "name": "",
          "type": "uint256"
        }
      ],
      "payable": false,
      "stateMutability": "view",
      "type": "function"
    },
    {
      "constant": true,
      "inputs": [],
      "name": "next",
      "outputs": [
        {
          "internalType": "contract BuyList",
          "name": "",
          "type": "address"
        }
      ],
      "payable": false,
      "stateMutability": "view",
      "type": "function"
    },
    {
      "constant": false,
      "inputs": [
        {
          "internalType": "contract BuyList",
          "name": "_bidorder",
          "type": "address"
        }
      ],
      "name": "addNew",
      "outputs": [],
      "payable": false,
      "stateMutability": "nonpayable",
      "type": "function"
    },
    {
      "constant": false,
      "inputs": [
        {
          "internalType": "address payable",
          "name": "_callmarket",
          "type": "address"
        }
      ],
      "name": "deletenode",
      "outputs": [],
      "payable": false,
      "stateMutability": "nonpayable",
      "type": "function"
    }
  ],
  "bytecode": "0x608060405234801561001057600080fd5b506040516106a93803806106a98339818101604052610032919081019061012c565b84600160006101000a81548173ffffffffffffffffffffffffffffffffffffffff021916908373ffffffffffffffffffffffffffffffffffffffff160217905550836002819055508260038190555081600460006101000a81548160ff0219169083151502179055508060058190555060008060006101000a81548173ffffffffffffffffffffffffffffffffffffffff021916908373ffffffffffffffffffffffffffffffffffffffff1602179055505050505050610230565b6000815190506100fc816101eb565b92915050565b60008151905061011181610202565b92915050565b60008151905061012681610219565b92915050565b600080600080600060a0868803121561014457600080fd5b6000610152888289016100ed565b955050602061016388828901610117565b945050604061017488828901610117565b935050606061018588828901610102565b925050608061019688828901610117565b9150509295509295909350565b60006101ae826101c1565b9050919050565b60008115159050919050565b600073ffffffffffffffffffffffffffffffffffffffff82169050919050565b6000819050919050565b6101f4816101a3565b81146101ff57600080fd5b50565b61020b816101b5565b811461021657600080fd5b50565b610222816101e1565b811461022d57600080fd5b50565b61046a8061023f6000396000f3fe608060405234801561001057600080fd5b50600436106100885760003560e01c8063af243cd41161005b578063af243cd414610105578063d7ef453f14610121578063eea96c571461013d578063f6c177841461015b57610088565b80633baad3921461008d5780634c8fe526146100ab578063846ec056146100c95780639dfde201146100e7575b600080fd5b610095610179565b6040516100a2919061034e565b60405180910390f35b6100b361017f565b6040516100c09190610333565b60405180910390f35b6100d16101a4565b6040516100de9190610318565b60405180910390f35b6100ef6101b7565b6040516100fc919061034e565b60405180910390f35b61011f600480360361011a919081019061026f565b6101bd565b005b61013b60048036036101369190810190610298565b6101d6565b005b610145610219565b60405161015291906102fd565b60405180910390f35b61016361023f565b604051610170919061034e565b60405180910390f35b60035481565b6000809054906101000a900473ffffffffffffffffffffffffffffffffffffffff1681565b600460009054906101000a900460ff1681565b60025481565b8073ffffffffffffffffffffffffffffffffffffffff16ff5b806000806101000a81548173ffffffffffffffffffffffffffffffffffffffff021916908373ffffffffffffffffffffffffffffffffffffffff16021790555050565b600160009054906101000a900473ffffffffffffffffffffffffffffffffffffffff1681565b60055481565b600081359050610254816103f9565b92915050565b60008135905061026981610410565b92915050565b60006020828403121561028157600080fd5b600061028f84828501610245565b91505092915050565b6000602082840312156102aa57600080fd5b60006102b88482850161025a565b91505092915050565b6102ca81610369565b82525050565b6102d98161038d565b82525050565b6102e8816103d5565b82525050565b6102f7816103cb565b82525050565b600060208201905061031260008301846102c1565b92915050565b600060208201905061032d60008301846102d0565b92915050565b600060208201905061034860008301846102df565b92915050565b600060208201905061036360008301846102ee565b92915050565b6000610374826103ab565b9050919050565b6000610386826103ab565b9050919050565b60008115159050919050565b60006103a482610369565b9050919050565b600073ffffffffffffffffffffffffffffffffffffffff82169050919050565b6000819050919050565b60006103e0826103e7565b9050919050565b60006103f2826103ab565b9050919050565b6104028161037b565b811461040d57600080fd5b50565b61041981610399565b811461042457600080fd5b5056fea365627a7a7231582070442b97fc6486b95015b0bc2d6f1c141bcf5877b00dd7d8fba5e298a9baf67c6c6578706572696d656e74616cf564736f6c634300050c0040",
  "source": "pragma solidity >=0.4.22;\npragma experimental ABIEncoderV2;\n\n//Linkedlist wrapped in a priority queue\n\ncontract PQ4_Linkedlist{\n    \n    SellList public SellFirst;\n    BuyList public BuyFirst;\n    SellList selltemp;\n    BuyList buytemp;\n    address payable callmarket;\n\n\n    constructor (address _callmarket) public {\n        callmarket = address(uint160(_callmarket));\n        SellFirst = SellList(0);\n        BuyFirst = BuyList(0);\n    }\n//******************** InsertBid() function ********************//\n    //A new buy order will be added in its right position in the list\n    function InsertBid(address _sender, uint256 _price, uint256 _volume, uint256 _auxprice) public returns (bool)\n    {\n        BuyList newitem = new BuyList (_sender, _price , _volume, true, _auxprice);\n        BuyList current = BuyFirst; \n        BuyList previous = BuyList(0);\n        \n        //we iterate through our list with 2 conditions:\n        while (current != BuyList(0) && _auxprice <= current.AuxPrice()) //The linkedlist is sorted in an descending order (descreasing)\n        {\n            previous = current;\n            current = current.next();\n            // we only exit this loop if we find the position to insert our data;\n        } \n        //now if we have to check if we have to insert the node to the begining of the list:\n        if (previous == BuyList(0)) //it means the current is equal to first and in that case we have to insert the node as a new head\n        {\n            BuyFirst = newitem; \n        }\n        else //the node next to the privious is no longer the current but it's our new node\n        {\n            previous.addNew(newitem);\n        }\n        \n        //and in all cases regardless of if it's a first node or not, we must say we have to say the node next to our new node is current\n        \n        newitem.addNew(current);\n        return true;\n    }\n//******************** BuyListMaxDelete() function ********************//    \n    //the highest priority item will be removed from the list and is returned by the function\n    function BuyListMaxDelete() public returns(uint256, address) \n    {\n        require (BuyFirst != BuyList(0), 'BuyList is empty!'); //throws exception if the maxheap (BuyList) is empty\n        buytemp = BuyFirst;\n        BuyFirst.deletenode(callmarket);\n        BuyFirst = buytemp.next();\n        return (buytemp.Price(), buytemp.Sender());\n    }\n//****************   BuyListMaxPrice()  *********************//\n    //BuyListMaxPrice function returns the price of the highest priority element (The highest bid)\n    function BuyListMaxPrice() public  returns (uint256){\n        \n        //require (BuyFirst != BuyList(0), 'BuyList is empty!'); //throws exception if the maxheap (BuyList) is empty\n        return (BuyFirst.Price());\n        \n    }\n//****************   BuyListMaxSender()  *********************//\n    //BuyListMaxSender function returns the sender of the highest priority element (The highest bid)\n    function BuyListMaxSender() public  returns (address){\n        \n        //require (BuyFirst != BuyList(0), 'BuyList is empty!'); //throws exception if the maxheap (BuyList) is empty\n        return (BuyFirst.Sender());\n        \n    }\n//****************   BuyListisEmpty()  *********************//\n    //checks if the BuyList is empty \n    function BuyListisEmpty() public returns (bool){\n        \n        if (BuyFirst == BuyList(0))\n        {\n            return true;\n\n        }\n        else\n        {\n            return false;\n        }\n        \n    }\n\n//*******************  InsertAsk() ***************************//\n    //A new sell order will be added in its right position in the list\n    function InsertAsk (address _sender, uint256 _price, uint256 _volume, uint256 _auxprice) public returns (bool)\n    {\n        SellList newitem = new SellList (_sender, _price , _volume, true, _auxprice);\n        SellList current = SellFirst; \n        SellList previous = SellList(0);\n        \n        //we iterate through our list with 2 conditions:\n        while (current != SellList(0) && _auxprice >= current.AuxPrice()) //The linkedlist is sorted in an ascending order (increasing)\n        {\n            previous = current;\n            current = current.next();\n            // we only exit this loop if we find the position to insert our data;\n        } \n        //now if we have to check if we have to insert the node to the begining of the list:\n        if (previous == SellList(0)) //it means the current is equal to first and in that case we have to insert the node as a new head\n        {\n            SellFirst = newitem; \n        }\n        else //the node next to the privious is no longer the current but it's our new node\n        {\n            previous.addNew(newitem);\n        }\n        \n        //and in all cases regardless of if it's a first node or not, we must say we have to say the node next to our new node is current\n        \n        newitem.addNew(current);\n        return true; \n    }  \n//*******************  SellListMaxDelete () ***************************//\n    //the highest priority item (the smallest ask) will be removed from the list and is returned by the function\n    function SellListMaxDelete() public returns (uint256, address)\n    {\n        require(SellFirst != SellList(0),'SellList is empty!'); //throws exception if the minheap (SellList) is empty\n        selltemp = SellFirst;\n        SellFirst.deletenode(callmarket);\n        SellFirst = selltemp.next();\n        return (selltemp.Price(), selltemp.Sender());\n    }  \n//****************   SellListMaxPrice()  *********************//\n    //SellListMaxPrice function returns the price of the highest priority element (The Lowest ask)\n    function SellListMaxPrice() public  returns (uint256){\n\n        //require(SellFirst != SellList(0),'SellList is empty!'); //throws exception if the minheap (SellList) is empty\n        return (SellFirst.Price());\n    }\n//****************   SellListMaxSender()  *********************//\n    //SellListMaxSender function returns the sender of the highest priority element (The Lowest ask)\n    function SellListMaxSender() public  returns (address){\n\n        //require(SellFirst != SellList(0),'SellList is empty!'); //throws exception if the minheap (SellList) is empty\n        return (SellFirst.Sender());\n    }\n//****************   SellListisEmpty()  *********************//\n    //checks if the SellList is empty\n    function SellListisEmpty() public returns (bool){\n        \n        if (SellFirst == SellList(0))\n        {\n            return true;\n\n        }\n        else\n        {\n            return false;\n        }\n        \n    }\n\n}\n//*****************************************************************//\n//*******************  SellList Contract  ************************//\n//*****************************************************************//\ncontract SellList {\n    SellList public next;\n    address public Sender;\n    uint256 public Price;\n    uint256 public Volume;\n    bool public Exists;\n    uint256 public AuxPrice;\n    \n    constructor(address _sender, uint256 _price, uint256 _volume, bool _exists, uint256 _auxprice) public {\n        \n        Sender = _sender;\n        Price = _price;\n        Volume = _volume;\n        Exists = _exists;\n        AuxPrice = _auxprice;\n        next = SellList(0);\n    }\n\n    function addNew(SellList _askorder) public {\n        \n        next = _askorder;\n       \n    }\n   \n    function deletenode (address payable _callmarket) public {\n\n        selfdestruct(_callmarket);\n        \n    }\n}   \n\n//*****************************************************************//\n//*******************  BuyList Contract  ************************//\n//*****************************************************************//    \n    \ncontract BuyList {\n    BuyList public next;\n    address public Sender;\n    uint256 public Price;\n    uint256 public Volume;\n    bool public Exists;\n    uint256 public AuxPrice;\n    constructor(address _sender, uint256 _price, uint256 _volume, bool _exists, uint256 _auxprice) public {\n        \n        Sender = _sender;\n        Price = _price;\n        Volume = _volume;\n        Exists = _exists;\n        AuxPrice = _auxprice;\n        next = BuyList(0);\n    }\n\n    function addNew(BuyList _bidorder) public {\n        \n        next = _bidorder;\n       \n    }\n   \n\n    function deletenode (address payable _callmarket) public {\n        selfdestruct(_callmarket);\n    }\n} ",
  "sourcePath": "/home/mahsa/ProjectRepo/2020-Orderbook/Code/New-Truffle/contracts/CallMarket/Priority_Queues/PQ4_Linkedlist.sol",
  "compiler": {
    "name": "solc",
    "version": "0.5.12+commit.7709ece9.Emscripten.clang"
  },
  "schemaVersion": "3.2.0",
  "updatedAt": "2020-07-10T21:55:56.988Z",
  "devdoc": {
    "methods": {}
  },
  "userdoc": {
    "methods": {}
  }
}