{
  "contractName": "Call_Market",
  "abi": [
    {
      "constant": true,
      "inputs": [],
      "name": "BuyListCounter",
      "outputs": [
        {
          "internalType": "uint256",
          "name": "",
          "type": "uint256"
        }
      ],
      "payable": false,
      "stateMutability": "view",
      "type": "function"
    },
    {
      "constant": true,
      "inputs": [],
      "name": "CreationTime",
      "outputs": [
        {
          "internalType": "uint256",
          "name": "",
          "type": "uint256"
        }
      ],
      "payable": false,
      "stateMutability": "view",
      "type": "function"
    },
    {
      "constant": true,
      "inputs": [],
      "name": "NumOrders",
      "outputs": [
        {
          "internalType": "uint256",
          "name": "",
          "type": "uint256"
        }
      ],
      "payable": false,
      "stateMutability": "view",
      "type": "function"
    },
    {
      "constant": true,
      "inputs": [],
      "name": "PQ",
      "outputs": [
        {
          "internalType": "contract PQ1_Heap_Dynamic_Array",
          "name": "",
          "type": "address"
        }
      ],
      "payable": false,
      "stateMutability": "view",
      "type": "function"
    },
    {
      "constant": true,
      "inputs": [],
      "name": "SellListCounter",
      "outputs": [
        {
          "internalType": "uint256",
          "name": "",
          "type": "uint256"
        }
      ],
      "payable": false,
      "stateMutability": "view",
      "type": "function"
    },
    {
      "constant": true,
      "inputs": [
        {
          "internalType": "address",
          "name": "",
          "type": "address"
        }
      ],
      "name": "TotalEtherBalance",
      "outputs": [
        {
          "internalType": "uint256",
          "name": "",
          "type": "uint256"
        }
      ],
      "payable": false,
      "stateMutability": "view",
      "type": "function"
    },
    {
      "constant": true,
      "inputs": [
        {
          "internalType": "address",
          "name": "",
          "type": "address"
        }
      ],
      "name": "TotalTokenBalance",
      "outputs": [
        {
          "internalType": "uint256",
          "name": "",
          "type": "uint256"
        }
      ],
      "payable": false,
      "stateMutability": "view",
      "type": "function"
    },
    {
      "constant": true,
      "inputs": [
        {
          "internalType": "uint256",
          "name": "",
          "type": "uint256"
        }
      ],
      "name": "UnavailableEtherArray",
      "outputs": [
        {
          "internalType": "address",
          "name": "",
          "type": "address"
        }
      ],
      "payable": false,
      "stateMutability": "view",
      "type": "function"
    },
    {
      "constant": true,
      "inputs": [
        {
          "internalType": "address",
          "name": "",
          "type": "address"
        }
      ],
      "name": "UnavailableEtherBalance",
      "outputs": [
        {
          "internalType": "uint256",
          "name": "",
          "type": "uint256"
        }
      ],
      "payable": false,
      "stateMutability": "view",
      "type": "function"
    },
    {
      "constant": true,
      "inputs": [
        {
          "internalType": "uint256",
          "name": "",
          "type": "uint256"
        }
      ],
      "name": "UnavailableTokenArray",
      "outputs": [
        {
          "internalType": "address",
          "name": "",
          "type": "address"
        }
      ],
      "payable": false,
      "stateMutability": "view",
      "type": "function"
    },
    {
      "constant": true,
      "inputs": [
        {
          "internalType": "address",
          "name": "",
          "type": "address"
        }
      ],
      "name": "UnavailableTokenBalance",
      "outputs": [
        {
          "internalType": "uint256",
          "name": "",
          "type": "uint256"
        }
      ],
      "payable": false,
      "stateMutability": "view",
      "type": "function"
    },
    {
      "constant": true,
      "inputs": [],
      "name": "biddingPeriod",
      "outputs": [
        {
          "internalType": "uint256",
          "name": "",
          "type": "uint256"
        }
      ],
      "payable": false,
      "stateMutability": "view",
      "type": "function"
    },
    {
      "constant": true,
      "inputs": [],
      "name": "countervariable",
      "outputs": [
        {
          "internalType": "uint256",
          "name": "",
          "type": "uint256"
        }
      ],
      "payable": false,
      "stateMutability": "view",
      "type": "function"
    },
    {
      "constant": true,
      "inputs": [],
      "name": "ethbalancecounter",
      "outputs": [
        {
          "internalType": "uint256",
          "name": "",
          "type": "uint256"
        }
      ],
      "payable": false,
      "stateMutability": "view",
      "type": "function"
    },
    {
      "constant": true,
      "inputs": [],
      "name": "tokenbalancecounter",
      "outputs": [
        {
          "internalType": "uint256",
          "name": "",
          "type": "uint256"
        }
      ],
      "payable": false,
      "stateMutability": "view",
      "type": "function"
    },
    {
      "constant": false,
      "inputs": [
        {
          "internalType": "address",
          "name": "_token",
          "type": "address"
        },
        {
          "internalType": "uint256",
          "name": "_numofTokens",
          "type": "uint256"
        }
      ],
      "name": "DepositToken",
      "outputs": [
        {
          "internalType": "bool",
          "name": "",
          "type": "bool"
        }
      ],
      "payable": false,
      "stateMutability": "nonpayable",
      "type": "function"
    },
    {
      "constant": false,
      "inputs": [
        {
          "internalType": "uint256",
          "name": "_numofEthers",
          "type": "uint256"
        }
      ],
      "name": "DepositEther",
      "outputs": [
        {
          "internalType": "bool",
          "name": "",
          "type": "bool"
        }
      ],
      "payable": true,
      "stateMutability": "payable",
      "type": "function"
    },
    {
      "constant": false,
      "inputs": [],
      "name": "OpenMarket",
      "outputs": [
        {
          "internalType": "bool",
          "name": "",
          "type": "bool"
        }
      ],
      "payable": false,
      "stateMutability": "nonpayable",
      "type": "function"
    },
    {
      "constant": false,
      "inputs": [
        {
          "internalType": "uint256",
          "name": "_price",
          "type": "uint256"
        },
        {
          "internalType": "uint256",
          "name": "_volume",
          "type": "uint256"
        }
      ],
      "name": "submitBid",
      "outputs": [
        {
          "internalType": "bool",
          "name": "",
          "type": "bool"
        }
      ],
      "payable": false,
      "stateMutability": "nonpayable",
      "type": "function"
    },
    {
      "constant": false,
      "inputs": [
        {
          "internalType": "uint256",
          "name": "_price",
          "type": "uint256"
        },
        {
          "internalType": "uint256",
          "name": "_volume",
          "type": "uint256"
        }
      ],
      "name": "submitAsk",
      "outputs": [
        {
          "internalType": "bool",
          "name": "",
          "type": "bool"
        }
      ],
      "payable": false,
      "stateMutability": "nonpayable",
      "type": "function"
    },
    {
      "constant": false,
      "inputs": [],
      "name": "CloseMarket",
      "outputs": [
        {
          "internalType": "bool",
          "name": "",
          "type": "bool"
        }
      ],
      "payable": false,
      "stateMutability": "nonpayable",
      "type": "function"
    },
    {
      "constant": false,
      "inputs": [],
      "name": "MatchOrders",
      "outputs": [
        {
          "internalType": "bool",
          "name": "",
          "type": "bool"
        }
      ],
      "payable": false,
      "stateMutability": "nonpayable",
      "type": "function"
    },
    {
      "constant": false,
      "inputs": [
        {
          "internalType": "address",
          "name": "_token",
          "type": "address"
        },
        {
          "internalType": "uint256",
          "name": "_numofTokens",
          "type": "uint256"
        }
      ],
      "name": "claimTokens",
      "outputs": [
        {
          "internalType": "bool",
          "name": "",
          "type": "bool"
        }
      ],
      "payable": false,
      "stateMutability": "nonpayable",
      "type": "function"
    },
    {
      "constant": false,
      "inputs": [
        {
          "internalType": "uint256",
          "name": "_numofEthers",
          "type": "uint256"
        }
      ],
      "name": "claimEther",
      "outputs": [
        {
          "internalType": "bool",
          "name": "",
          "type": "bool"
        }
      ],
      "payable": false,
      "stateMutability": "nonpayable",
      "type": "function"
    }
  ],
  "bytecode": "0x60806040526040516100109061007e565b604051809103906000f08015801561002c573d6000803e3d6000fd5b506000806101000a81548173ffffffffffffffffffffffffffffffffffffffff021916908373ffffffffffffffffffffffffffffffffffffffff16021790555034801561007857600080fd5b5061008b565b611c1080611c4a83390190565b611bb08061009a6000396000f3fe60806040526004361061014b5760003560e01c80637bc82665116100b6578063b4c1feee1161006f578063b4c1feee146104e6578063b821da1b14610511578063cfae0d6b1461054e578063d51991bd1461058b578063d5269418146105b6578063fe417fa5146105e65761014b565b80637bc82665146103d2578063885e6d06146103fd57806390c6b18a14610428578063938ffc4c1461045357806395c5a70a1461047e578063a5b33247146104bb5761014b565b806349407a441161010857806349407a441461029a5780635f8909bd146102d75780636be79bb9146103025780636dd69acc1461032d5780637288a28a1461036a5780637b873ac7146103a75761014b565b80630389b49d146101505780631255589b1461017b57806328aabbc3146101a65780632bafe023146101e35780632d0c0a881461022057806339a993341461025d575b600080fd5b34801561015c57600080fd5b50610165610623565b6040516101729190611a22565b60405180910390f35b34801561018757600080fd5b50610190610629565b60405161019d91906119ec565b60405180910390f35b3480156101b257600080fd5b506101cd60048036036101c8919081019061175d565b61067f565b6040516101da9190611a22565b60405180910390f35b3480156101ef57600080fd5b5061020a6004803603610205919081019061175d565b610697565b6040516102179190611a22565b60405180910390f35b34801561022c57600080fd5b5061024760048036036102429190810190611786565b6106af565b60405161025491906119ec565b60405180910390f35b34801561026957600080fd5b50610284600480360361027f919081019061175d565b6107a0565b6040516102919190611a22565b60405180910390f35b3480156102a657600080fd5b506102c160048036036102bc91908101906117eb565b6107b8565b6040516102ce91906119ec565b60405180910390f35b3480156102e357600080fd5b506102ec6108e9565b6040516102f99190611a22565b60405180910390f35b34801561030e57600080fd5b506103176108ef565b60405161032491906119ec565b60405180910390f35b34801561033957600080fd5b50610354600480360361034f919081019061175d565b610dfe565b6040516103619190611a22565b60405180910390f35b34801561037657600080fd5b50610391600480360361038c9190810190611850565b610e16565b60405161039e91906119ec565b60405180910390f35b3480156103b357600080fd5b506103bc61103a565b6040516103c99190611a22565b60405180910390f35b3480156103de57600080fd5b506103e7611040565b6040516103f49190611a22565b60405180910390f35b34801561040957600080fd5b50610412611046565b60405161041f9190611a07565b60405180910390f35b34801561043457600080fd5b5061043d61106b565b60405161044a9190611a22565b60405180910390f35b34801561045f57600080fd5b50610468611071565b6040516104759190611a22565b60405180910390f35b34801561048a57600080fd5b506104a560048036036104a091908101906117eb565b611077565b6040516104b2919061192c565b60405180910390f35b3480156104c757600080fd5b506104d06110b3565b6040516104dd9190611a22565b60405180910390f35b3480156104f257600080fd5b506104fb6110b9565b6040516105089190611a22565b60405180910390f35b34801561051d57600080fd5b5061053860048036036105339190810190611850565b6110bf565b60405161054591906119ec565b60405180910390f35b34801561055a57600080fd5b50610575600480360361057091908101906117eb565b6112e8565b604051610582919061192c565b60405180910390f35b34801561059757600080fd5b506105a0611324565b6040516105ad91906119ec565b60405180910390f35b6105d060048036036105cb91908101906117eb565b611351565b6040516105dd91906119ec565b60405180910390f35b3480156105f257600080fd5b5061060d60048036036106089190810190611786565b6113a9565b60405161061a91906119ec565b60405180910390f35b60095481565b6000426003819055506102586004819055506000600260006101000a81548160ff0219169083600281111561065a57fe5b0217905550600060058190555060646007819055506103e76006819055506001905090565b600b6020528060005260406000206000915090505481565b600e6020528060005260406000206000915090505481565b60008273ffffffffffffffffffffffffffffffffffffffff166323b872dd3330856040518463ffffffff1660e01b81526004016106ee93929190611947565b602060405180830381600087803b15801561070857600080fd5b505af115801561071c573d6000803e3d6000fd5b505050506040513d601f19601f8201168201806040525061074091908101906117c2565b61074957600080fd5b81600b60003373ffffffffffffffffffffffffffffffffffffffff1673ffffffffffffffffffffffffffffffffffffffff168152602001908152602001600020600082825401925050819055506001905092915050565b600f6020528060005260406000206000915090505481565b600081600f60003373ffffffffffffffffffffffffffffffffffffffff1673ffffffffffffffffffffffffffffffffffffffff16815260200190815260200160002054600e60003373ffffffffffffffffffffffffffffffffffffffff1673ffffffffffffffffffffffffffffffffffffffff16815260200190815260200160002054031161084657600080fd5b600082905080600e60003373ffffffffffffffffffffffffffffffffffffffff1673ffffffffffffffffffffffffffffffffffffffff168152602001908152602001600020600082825403925050819055503373ffffffffffffffffffffffffffffffffffffffff166108fc829081150290604051600060405180830381858888f193505050501580156108de573d6000803e3d6000fd5b506001915050919050565b60045481565b600060018060028111156108ff57fe5b600260009054906101000a900460ff16600281111561091a57fe5b1461092457600080fd5b6000806000809054906101000a900473ffffffffffffffffffffffffffffffffffffffff1673ffffffffffffffffffffffffffffffffffffffff166339f3b8a36040518163ffffffff1660e01b81526004016040805180830381600087803b15801561098f57600080fd5b505af11580156109a3573d6000803e3d6000fd5b505050506040513d601f19601f820116820180604052506109c79190810190611814565b915091506000806000809054906101000a900473ffffffffffffffffffffffffffffffffffffffff1673ffffffffffffffffffffffffffffffffffffffff16630b21881b6040518163ffffffff1660e01b81526004016040805180830381600087803b158015610a3657600080fd5b505af1158015610a4a573d6000803e3d6000fd5b505050506040513d601f19601f82011682018060405250610a6e9190810190611814565b915091505b818410610dcf576001600081548092919060010191905055506001600b60008573ffffffffffffffffffffffffffffffffffffffff1673ffffffffffffffffffffffffffffffffffffffff1681526020019081526020016000206000828254019250508190555081600e60008373ffffffffffffffffffffffffffffffffffffffff1673ffffffffffffffffffffffffffffffffffffffff168152602001908152602001600020600082825401925050819055506000809054906101000a900473ffffffffffffffffffffffffffffffffffffffff1673ffffffffffffffffffffffffffffffffffffffff1663d98ed4816040518163ffffffff1660e01b8152600401602060405180830381600087803b158015610b9057600080fd5b505af1158015610ba4573d6000803e3d6000fd5b505050506040513d601f19601f82011682018060405250610bc891908101906117c2565b80610c7057506000809054906101000a900473ffffffffffffffffffffffffffffffffffffffff1673ffffffffffffffffffffffffffffffffffffffff166309ab210a6040518163ffffffff1660e01b8152600401602060405180830381600087803b158015610c3757600080fd5b505af1158015610c4b573d6000803e3d6000fd5b505050506040513d601f19601f82011682018060405250610c6f91908101906117c2565b5b15610c7a57610dcf565b6000809054906101000a900473ffffffffffffffffffffffffffffffffffffffff1673ffffffffffffffffffffffffffffffffffffffff166339f3b8a36040518163ffffffff1660e01b81526004016040805180830381600087803b158015610ce257600080fd5b505af1158015610cf6573d6000803e3d6000fd5b505050506040513d601f19601f82011682018060405250610d1a9190810190611814565b80945081955050506000809054906101000a900473ffffffffffffffffffffffffffffffffffffffff1673ffffffffffffffffffffffffffffffffffffffff16630b21881b6040518163ffffffff1660e01b81526004016040805180830381600087803b158015610d8a57600080fd5b505af1158015610d9e573d6000803e3d6000fd5b505050506040513d601f19601f82011682018060405250610dc29190810190611814565b8092508193505050610a73565b60028060006101000a81548160ff02191690836002811115610ded57fe5b021790555060019550505050505090565b600c6020528060005260406000206000915090505481565b600080806002811115610e2557fe5b600260009054906101000a900460ff166002811115610e4057fe5b14610e4a57600080fd5b82600c60003373ffffffffffffffffffffffffffffffffffffffff1673ffffffffffffffffffffffffffffffffffffffff16815260200190815260200160002054600b60003373ffffffffffffffffffffffffffffffffffffffff1673ffffffffffffffffffffffffffffffffffffffff16815260200190815260200160002054031015610ed757600080fd5b60006060610ef7610ee787611522565b610ef2600754611522565b61164f565b9050610f028161167b565b91506000809054906101000a900473ffffffffffffffffffffffffffffffffffffffff1673ffffffffffffffffffffffffffffffffffffffff1663ccde53ca338888866040518563ffffffff1660e01b8152600401610f6494939291906119a7565b602060405180830381600087803b158015610f7e57600080fd5b505af1158015610f92573d6000803e3d6000fd5b505050506040513d601f19601f82011682018060405250610fb691908101906117c2565b1561102d5760056000815480929190600101919050555060076000815480929190600101919050555084600c60003373ffffffffffffffffffffffffffffffffffffffff1673ffffffffffffffffffffffffffffffffffffffff168152602001908152602001600020600082825401925050819055505b6001935050505092915050565b60075481565b60055481565b6000809054906101000a900473ffffffffffffffffffffffffffffffffffffffff1681565b60035481565b60015481565b600d818154811061108457fe5b906000526020600020016000915054906101000a900473ffffffffffffffffffffffffffffffffffffffff1681565b60085481565b60065481565b6000808060028111156110ce57fe5b600260009054906101000a900460ff1660028111156110e957fe5b146110f357600080fd5b838302600f60003373ffffffffffffffffffffffffffffffffffffffff1673ffffffffffffffffffffffffffffffffffffffff16815260200190815260200160002054600e60003373ffffffffffffffffffffffffffffffffffffffff1673ffffffffffffffffffffffffffffffffffffffff1681526020019081526020016000205403101561118257600080fd5b600060606111a261119287611522565b61119d600654611522565b61164f565b90506111ad8161167b565b91506000809054906101000a900473ffffffffffffffffffffffffffffffffffffffff1673ffffffffffffffffffffffffffffffffffffffff1663d735b05f338888866040518563ffffffff1660e01b815260040161120f94939291906119a7565b602060405180830381600087803b15801561122957600080fd5b505af115801561123d573d6000803e3d6000fd5b505050506040513d601f19601f8201168201806040525061126191908101906117c2565b156112db5760056000815480929190600101919050555060066000815480929190600190039190505550858502600f60003373ffffffffffffffffffffffffffffffffffffffff1673ffffffffffffffffffffffffffffffffffffffff168152602001908152602001600020600082825401925050819055505b6001935050505092915050565b601081815481106112f557fe5b906000526020600020016000915054906101000a900473ffffffffffffffffffffffffffffffffffffffff1681565b60006001600260006101000a81548160ff0219169083600281111561134557fe5b02179055506001905090565b600081600e60003373ffffffffffffffffffffffffffffffffffffffff1673ffffffffffffffffffffffffffffffffffffffff1681526020019081526020016000206000828254019250508190555060019050919050565b600081600c60003373ffffffffffffffffffffffffffffffffffffffff1673ffffffffffffffffffffffffffffffffffffffff16815260200190815260200160002054600b60003373ffffffffffffffffffffffffffffffffffffffff1673ffffffffffffffffffffffffffffffffffffffff16815260200190815260200160002054031161143757600080fd5b600082905080600b60003373ffffffffffffffffffffffffffffffffffffffff1673ffffffffffffffffffffffffffffffffffffffff168152602001908152602001600020600082825403925050819055508373ffffffffffffffffffffffffffffffffffffffff1663a9059cbb33836040518363ffffffff1660e01b81526004016114c492919061197e565b602060405180830381600087803b1580156114de57600080fd5b505af11580156114f2573d6000803e3d6000fd5b505050506040513d601f19601f8201168201806040525061151691908101906117c2565b50600191505092915050565b6060600082141561156a576040518060400160405280600181526020017f3000000000000000000000000000000000000000000000000000000000000000815250905061164a565b600082905060005b60008214611594578080600101915050600a828161158c57fe5b049150611572565b6060816040519080825280601f01601f1916602001820160405280156115c95781602001600182028038833980820191505090505b50905060006001830390505b6000861461164257600a86816115e757fe5b0660300160f81b8282806001900393508151811061160157fe5b60200101907effffffffffffffffffffffffffffffffffffffffffffffffffffffffffffff1916908160001a905350600a868161163a57fe5b0495506115d5565b819450505050505b919050565b60608282604051602001611664929190611908565b604051602081830303815290604052905092915050565b6000606082905060008060009050600091505b82518210156116e95760008383815181106116a557fe5b602001015160f81c60f81b60f81c60ff169050603081101580156116ca575060398111155b156116db5760308103600a83020191505b50818060010192505061168e565b809350505050919050565b60008135905061170381611b28565b92915050565b60008151905061171881611b28565b92915050565b60008151905061172d81611b3f565b92915050565b60008135905061174281611b56565b92915050565b60008151905061175781611b56565b92915050565b60006020828403121561176f57600080fd5b600061177d848285016116f4565b91505092915050565b6000806040838503121561179957600080fd5b60006117a7858286016116f4565b92505060206117b885828601611733565b9150509250929050565b6000602082840312156117d457600080fd5b60006117e28482850161171e565b91505092915050565b6000602082840312156117fd57600080fd5b600061180b84828501611733565b91505092915050565b6000806040838503121561182757600080fd5b600061183585828601611748565b925050602061184685828601611709565b9150509250929050565b6000806040838503121561186357600080fd5b600061187185828601611733565b925050602061188285828601611733565b9150509250929050565b61189581611a9b565b82525050565b6118a481611a53565b82525050565b6118b381611a65565b82525050565b6118c281611aad565b82525050565b60006118d382611a3d565b6118dd8185611a48565b93506118ed818560208601611af5565b80840191505092915050565b61190281611a91565b82525050565b600061191482856118c8565b915061192082846118c8565b91508190509392505050565b6000602082019050611941600083018461189b565b92915050565b600060608201905061195c600083018661188c565b611969602083018561189b565b61197660408301846118f9565b949350505050565b6000604082019050611993600083018561188c565b6119a060208301846118f9565b9392505050565b60006080820190506119bc600083018761188c565b6119c960208301866118f9565b6119d660408301856118f9565b6119e360608301846118f9565b95945050505050565b6000602082019050611a0160008301846118aa565b92915050565b6000602082019050611a1c60008301846118b9565b92915050565b6000602082019050611a3760008301846118f9565b92915050565b600081519050919050565b600081905092915050565b6000611a5e82611a71565b9050919050565b60008115159050919050565b600073ffffffffffffffffffffffffffffffffffffffff82169050919050565b6000819050919050565b6000611aa682611ad1565b9050919050565b6000611ab882611abf565b9050919050565b6000611aca82611a71565b9050919050565b6000611adc82611ae3565b9050919050565b6000611aee82611a71565b9050919050565b60005b83811015611b13578082015181840152602081019050611af8565b83811115611b22576000848401525b50505050565b611b3181611a53565b8114611b3c57600080fd5b50565b611b4881611a65565b8114611b5357600080fd5b50565b611b5f81611a91565b8114611b6a57600080fd5b5056fea365627a7a723158204d85393da51f424a6a459e56ab4c96acc1f8b768bbb270c2ee0957dbc53cbec26c6578706572696d656e74616cf564736f6c634300050c0040608060405234801561001057600080fd5b50611bf0806100206000396000f3fe608060405234801561001057600080fd5b506004361061009e5760003560e01c806364d4497b1161006657806364d4497b1461013b578063657ffc3c14610159578063ccde53ca14610177578063d735b05f146101a7578063d98ed481146101d75761009e565b806309ab210a146100a35780630b21881b146100c157806315991626146100e057806339f3b8a3146100fe5780635cbe5bed1461011d575b600080fd5b6100ab6101f5565b6040516100b89190611a87565b60405180910390f35b6100c9610215565b6040516100d7929190611afd565b60405180910390f35b6100e8610541565b6040516100f59190611ae2565b60405180910390f35b6101066105b0565b604051610114929190611afd565b60405180910390f35b6101256108d9565b6040516101329190611ae2565b60405180910390f35b610143610947565b6040516101509190611a6c565b60405180910390f35b6101616109d5565b60405161016e9190611a6c565b60405180910390f35b610191600480360361018c919081019061195c565b610a64565b60405161019e9190611a87565b60405180910390f35b6101c160048036036101bc919081019061195c565b610b7c565b6040516101ce9190611a87565b60405180910390f35b6101df610c94565b6040516101ec9190611a87565b60405180910390f35b600080600180549050141561020d5760019050610212565b600090505b90565b60008060006001805490501415610261576040517f08c379a000000000000000000000000000000000000000000000000000000000815260040161025890611ac2565b60405180910390fd5b60018080549050141561035a576000600160008154811061027e57fe5b9060005260206000209060050201600101549050600060016000815481106102a257fe5b906000526020600020906005020160000160009054906101000a900473ffffffffffffffffffffffffffffffffffffffff16905060018054806102e157fe5b6001900381819060005260206000209060050201600080820160006101000a81549073ffffffffffffffffffffffffffffffffffffffff0219169055600182016000905560028201600090556003820160006101000a81549060ff0219169055600482016000905550509055818193509350505061053d565b6000600160008154811061036a57fe5b90600052602060002090600502016001015490506000600160008154811061038e57fe5b906000526020600020906005020160000160009054906101000a900473ffffffffffffffffffffffffffffffffffffffff169050600180808054905003815481106103d557fe5b906000526020600020906005020160016000815481106103f157fe5b90600052602060002090600502016000820160009054906101000a900473ffffffffffffffffffffffffffffffffffffffff168160000160006101000a81548173ffffffffffffffffffffffffffffffffffffffff021916908373ffffffffffffffffffffffffffffffffffffffff16021790555060018201548160010155600282015481600201556003820160009054906101000a900460ff168160030160006101000a81548160ff0219169083151502179055506004820154816004015590505060018054806104bf57fe5b6001900381819060005260206000209060050201600080820160006101000a81549073ffffffffffffffffffffffffffffffffffffffff0219169055600182016000905560028201600090556003820160006101000a81549060ff0219169055600482016000905550509055610533610cb4565b5081819350935050505b9091565b600080600180549050141561058b576040517f08c379a000000000000000000000000000000000000000000000000000000000815260040161058290611ac2565b60405180910390fd5b600160008154811061059957fe5b906000526020600020906005020160010154905090565b6000806000808054905014156105fb576040517f08c379a00000000000000000000000000000000000000000000000000000000081526004016105f290611aa2565b60405180910390fd5b600160008054905014156106f35760008060008154811061061857fe5b906000526020600020906005020160010154905060008060008154811061063b57fe5b906000526020600020906005020160000160009054906101000a900473ffffffffffffffffffffffffffffffffffffffff169050600080548061067a57fe5b6001900381819060005260206000209060050201600080820160006101000a81549073ffffffffffffffffffffffffffffffffffffffff0219169055600182016000905560028201600090556003820160006101000a81549060ff021916905560048201600090555050905581819350935050506108d5565b60008060008154811061070257fe5b906000526020600020906005020160010154905060008060008154811061072557fe5b906000526020600020906005020160000160009054906101000a900473ffffffffffffffffffffffffffffffffffffffff16905060006001600080549050038154811061076e57fe5b90600052602060002090600502016000808154811061078957fe5b90600052602060002090600502016000820160009054906101000a900473ffffffffffffffffffffffffffffffffffffffff168160000160006101000a81548173ffffffffffffffffffffffffffffffffffffffff021916908373ffffffffffffffffffffffffffffffffffffffff16021790555060018201548160010155600282015481600201556003820160009054906101000a900460ff168160030160006101000a81548160ff02191690831515021790555060048201548160040155905050600080548061085757fe5b6001900381819060005260206000209060050201600080820160006101000a81549073ffffffffffffffffffffffffffffffffffffffff0219169055600182016000905560028201600090556003820160006101000a81549060ff02191690556004820160009055505090556108cb610ff7565b5081819350935050505b9091565b6000806000805490501415610923576040517f08c379a000000000000000000000000000000000000000000000000000000000815260040161091a90611aa2565b60405180910390fd5b6000808154811061093057fe5b906000526020600020906005020160010154905090565b6000806000805490501415610991576040517f08c379a000000000000000000000000000000000000000000000000000000000815260040161098890611aa2565b60405180910390fd5b6000808154811061099e57fe5b906000526020600020906005020160000160009054906101000a900473ffffffffffffffffffffffffffffffffffffffff16905090565b6000806001805490501415610a1f576040517f08c379a0000000000000000000000000000000000000000000000000000000008152600401610a1690611ac2565b60405180910390fd5b6001600081548110610a2d57fe5b906000526020600020906005020160000160009054906101000a900473ffffffffffffffffffffffffffffffffffffffff16905090565b6000610a6e6118eb565b6040518060a001604052808773ffffffffffffffffffffffffffffffffffffffff1681526020018681526020018581526020016001151581526020018481525090506001819080600181540180825580915050906001820390600052602060002090600502016000909192909190915060008201518160000160006101000a81548173ffffffffffffffffffffffffffffffffffffffff021916908373ffffffffffffffffffffffffffffffffffffffff160217905550602082015181600101556040820151816002015560608201518160030160006101000a81548160ff02191690831515021790555060808201518160040155505050610b6e61133a565b506001915050949350505050565b6000610b866118eb565b6040518060a001604052808773ffffffffffffffffffffffffffffffffffffffff1681526020018681526020018581526020016001151581526020018481525090506000819080600181540180825580915050906001820390600052602060002090600502016000909192909190915060008201518160000160006101000a81548173ffffffffffffffffffffffffffffffffffffffff021916908373ffffffffffffffffffffffffffffffffffffffff160217905550602082015181600101556040820151816002015560608201518160030160006101000a81548160ff02191690831515021790555060808201518160040155505050610c86611612565b506001915050949350505050565b6000806000805490501415610cac5760019050610cb1565b600090505b90565b6000806000905060006001826002020190505b600180549050811015610fee5760008190506000600183019050600180549050811015610d3c5760018381548110610cfb57fe5b90600052602060002090600502016004015460018281548110610d1a57fe5b9060005260206000209060050201600401541015610d3b5781806001019250505b5b60018481548110610d4957fe5b90600052602060002090600502016004015460018381548110610d6857fe5b9060005260206000209060050201600401541015610fe057610d886118eb565b60018581548110610d9557fe5b90600052602060002090600502016040518060a00160405290816000820160009054906101000a900473ffffffffffffffffffffffffffffffffffffffff1673ffffffffffffffffffffffffffffffffffffffff1673ffffffffffffffffffffffffffffffffffffffff16815260200160018201548152602001600282015481526020016003820160009054906101000a900460ff16151515158152602001600482015481525050905060018381548110610e4c57fe5b906000526020600020906005020160018681548110610e6757fe5b90600052602060002090600502016000820160009054906101000a900473ffffffffffffffffffffffffffffffffffffffff168160000160006101000a81548173ffffffffffffffffffffffffffffffffffffffff021916908373ffffffffffffffffffffffffffffffffffffffff16021790555060018201548160010155600282015481600201556003820160009054906101000a900460ff168160030160006101000a81548160ff021916908315150217905550600482015481600401559050508060018481548110610f3857fe5b906000526020600020906005020160008201518160000160006101000a81548173ffffffffffffffffffffffffffffffffffffffff021916908373ffffffffffffffffffffffffffffffffffffffff160217905550602082015181600101556040820151816002015560608201518160030160006101000a81548160ff0219169083151502179055506080820151816004015590505082945060018560020201935050610fe7565b5050610fee565b5050610cc7565b60019250505090565b6000806000905060006001826002020190505b600080549050811015611331576000819050600060018301905060008054905081101561107f576000838154811061103e57fe5b9060005260206000209060050201600401546000828154811061105d57fe5b906000526020600020906005020160040154111561107e5781806001019250505b5b6000828154811061108c57fe5b906000526020600020906005020160040154600085815481106110ab57fe5b9060005260206000209060050201600401541015611323576110cb6118eb565b600085815481106110d857fe5b90600052602060002090600502016040518060a00160405290816000820160009054906101000a900473ffffffffffffffffffffffffffffffffffffffff1673ffffffffffffffffffffffffffffffffffffffff1673ffffffffffffffffffffffffffffffffffffffff16815260200160018201548152602001600282015481526020016003820160009054906101000a900460ff1615151515815260200160048201548152505090506000838154811061118f57fe5b9060005260206000209060050201600086815481106111aa57fe5b90600052602060002090600502016000820160009054906101000a900473ffffffffffffffffffffffffffffffffffffffff168160000160006101000a81548173ffffffffffffffffffffffffffffffffffffffff021916908373ffffffffffffffffffffffffffffffffffffffff16021790555060018201548160010155600282015481600201556003820160009054906101000a900460ff168160030160006101000a81548160ff02191690831515021790555060048201548160040155905050806000848154811061127b57fe5b906000526020600020906005020160008201518160000160006101000a81548173ffffffffffffffffffffffffffffffffffffffff021916908373ffffffffffffffffffffffffffffffffffffffff160217905550602082015181600101556040820151816002015560608201518160030160006101000a81548160ff021916908315150217905550608082015181600401559050508294506001856002020193505061132a565b5050611331565b505061100a565b60019250505090565b600080600180805490500390505b600081111561160a5760006002600183038161136057fe5b0490506001818154811061137057fe5b9060005260206000209060050201600401546001838154811061138f57fe5b90600052602060002090600502016004015410156115fe576113af6118eb565b600183815481106113bc57fe5b90600052602060002090600502016040518060a00160405290816000820160009054906101000a900473ffffffffffffffffffffffffffffffffffffffff1673ffffffffffffffffffffffffffffffffffffffff1673ffffffffffffffffffffffffffffffffffffffff16815260200160018201548152602001600282015481526020016003820160009054906101000a900460ff1615151515815260200160048201548152505090506001828154811061147357fe5b90600052602060002090600502016001848154811061148e57fe5b90600052602060002090600502016000820160009054906101000a900473ffffffffffffffffffffffffffffffffffffffff168160000160006101000a81548173ffffffffffffffffffffffffffffffffffffffff021916908373ffffffffffffffffffffffffffffffffffffffff16021790555060018201548160010155600282015481600201556003820160009054906101000a900460ff168160030160006101000a81548160ff02191690831515021790555060048201548160040155905050806001838154811061155f57fe5b906000526020600020906005020160008201518160000160006101000a81548173ffffffffffffffffffffffffffffffffffffffff021916908373ffffffffffffffffffffffffffffffffffffffff160217905550602082015181600101556040820151816002015560608201518160030160006101000a81548160ff0219169083151502179055506080820151816004015590505081925050611604565b5061160a565b50611348565b600191505090565b60008060016000805490500390505b60008111156118e35760006002600183038161163957fe5b0490506000818154811061164957fe5b9060005260206000209060050201600401546000838154811061166857fe5b90600052602060002090600502016004015411156118d7576116886118eb565b6000838154811061169557fe5b90600052602060002090600502016040518060a00160405290816000820160009054906101000a900473ffffffffffffffffffffffffffffffffffffffff1673ffffffffffffffffffffffffffffffffffffffff1673ffffffffffffffffffffffffffffffffffffffff16815260200160018201548152602001600282015481526020016003820160009054906101000a900460ff1615151515815260200160048201548152505090506000828154811061174c57fe5b90600052602060002090600502016000848154811061176757fe5b90600052602060002090600502016000820160009054906101000a900473ffffffffffffffffffffffffffffffffffffffff168160000160006101000a81548173ffffffffffffffffffffffffffffffffffffffff021916908373ffffffffffffffffffffffffffffffffffffffff16021790555060018201548160010155600282015481600201556003820160009054906101000a900460ff168160030160006101000a81548160ff02191690831515021790555060048201548160040155905050806000838154811061183857fe5b906000526020600020906005020160008201518160000160006101000a81548173ffffffffffffffffffffffffffffffffffffffff021916908373ffffffffffffffffffffffffffffffffffffffff160217905550602082015181600101556040820151816002015560608201518160030160006101000a81548160ff02191690831515021790555060808201518160040155905050819250506118dd565b506118e3565b50611621565b600191505090565b6040518060a00160405280600073ffffffffffffffffffffffffffffffffffffffff1681526020016000815260200160008152602001600015158152602001600081525090565b60008135905061194181611b7f565b92915050565b60008135905061195681611b96565b92915050565b6000806000806080858703121561197257600080fd5b600061198087828801611932565b945050602061199187828801611947565b93505060406119a287828801611947565b92505060606119b387828801611947565b91505092959194509250565b6119c881611b37565b82525050565b6119d781611b49565b82525050565b60006119ea601183611b26565b91507f4275794c69737420697320656d707479210000000000000000000000000000006000830152602082019050919050565b6000611a2a601283611b26565b91507f53656c6c4c69737420697320656d7074792100000000000000000000000000006000830152602082019050919050565b611a6681611b75565b82525050565b6000602082019050611a8160008301846119bf565b92915050565b6000602082019050611a9c60008301846119ce565b92915050565b60006020820190508181036000830152611abb816119dd565b9050919050565b60006020820190508181036000830152611adb81611a1d565b9050919050565b6000602082019050611af76000830184611a5d565b92915050565b6000604082019050611b126000830185611a5d565b611b1f60208301846119bf565b9392505050565b600082825260208201905092915050565b6000611b4282611b55565b9050919050565b60008115159050919050565b600073ffffffffffffffffffffffffffffffffffffffff82169050919050565b6000819050919050565b611b8881611b37565b8114611b9357600080fd5b50565b611b9f81611b75565b8114611baa57600080fd5b5056fea365627a7a72315820cb834d33c9b5be17039f9795569b12e602d0a5a00bae3e10eb64e3d5af4b07716c6578706572696d656e74616cf564736f6c634300050c0040",
  "source": "pragma solidity >=0.4.22;\npragma experimental ABIEncoderV2;\n\nimport \"openzeppelin-solidity/contracts/token/ERC20/IERC20.sol\";\nimport \"./PQ1_Heap_Dynamic_Array.sol\";\nimport \"./PQ2_Heap_Static_Array.sol\";\nimport \"./PQ3_Heap_Mapping.sol\";\nimport \"./PQ4_Linkedlist.sol\";\nimport \"./PQ5_Linkedlist_Mapping.sol\";\n//import \"./Mapping.sol\";\ncontract Call_Market{\n\n    PQ1_Heap_Dynamic_Array public PQ = new PQ1_Heap_Dynamic_Array();\n    //PQ2_Heap_Static_Array public PQ = new PQ2_Heap_Static_Array(100);\n    //PQ3_Heap_Mapping public PQ = new PQ3_Heap_Mapping();\n    //we pass the address of the callmarket to the linkedlist so that the selfdestruct could send Ethers back to the callmarket\n    //PQ4_Linkedlist public PQ = new PQ4_Linkedlist(address(this));\n    //PQ5_Linkedlist_Mapping public PQ = new PQ5_Linkedlist_Mapping(); \n    //Mapping public MP = new Mapping(address(this));\n\n//****************************************************//\n//********String Converaion and Contcatenation********//\n//****************************************************//\n\n//****************  str2uint() function ***************************//\n    function str2uint (string memory s) internal pure returns (uint) {\n        bytes memory b = bytes(s);\n        uint i;\n        uint result = 0;\n        for (i = 0; i < b.length; i++) {\n            uint c = uint(uint8(b[i]));\n            if (c >= 48 && c <= 57) {\n                result = result * 10 + (c - 48);\n            }\n        }\n    \n        return result;\n    }\n//****************  uint2str() function ***************************//\n    function uint2str(uint _i) internal pure returns (string memory _uintAsString) {\n        if (_i == 0) {\n            return \"0\";\n        }\n        uint j = _i;\n        uint len;\n        while (j != 0) {\n            len++;\n            j /= 10;\n        }\n        bytes memory bstr = new bytes(len);\n        uint k = len - 1;\n        while (_i != 0) {\n            bstr[k--] = byte(uint8(48 + _i % 10));\n            _i /= 10;\n        }\n        return string(bstr);\n    }\n//****************  contcat() function ***************************//    \n    function contcat(string memory a, string memory b) internal pure returns (string memory) {\n\n        return string (abi.encodePacked( a , b));\n    }\n\n//****************************************************//\n//****************************************************//\n//****************************************************//\n    uint256 public countervariable;\n    enum States {Opened, Closed, Settled} \n    States state;\n    uint256 public CreationTime;\n    uint256 public biddingPeriod;\n    uint256 public NumOrders;        //Number of all the orders within the auction\n    uint256 public BuyListCounter;   //the counter for BuyList which sorts the orders decrementallyincrementally\n    uint256 public SellListCounter;  //the counter for SellList which sorts the orders incrementally\n    uint public ethbalancecounter;\n    uint public tokenbalancecounter;\n    mapping(address => uint256) internal refunds;\n\n//**********************************************//\n//*********Escrow Variables and Functions*******//\n//**********************************************//\n    mapping(address => uint256) public TotalTokenBalance;\n    mapping(address => uint256) public UnavailableTokenBalance;\n    address[] public UnavailableTokenArray;\n    mapping(address => uint256) public TotalEtherBalance;\n    mapping(address => uint256) public UnavailableEtherBalance;\n    address[] public UnavailableEtherArray;\n\n//**********************************************//\n//***************Function Modifiers*************//\n//**********************************************//\n    //Checks if the auction should be closed or not.\n    modifier CheckAuctionStage () {\n        if (now >= CreationTime + biddingPeriod || NumOrders == 1000) \n        {\n            CloseMarket();\n        }\n        _;\n    }\n//**********************************************// \n    //Checks wether the auction is at state_1 or not \n    modifier AuctionAtStage (States state_1 ) { \n        require (state == state_1); \n        _;\n    }\n//**************DepositToken() Function*********************//   \n    //The token holder must first approve the amount to the exchange contract by calling the approve() from the ERC20 token contract\n    function DepositToken(address _token, uint256 _numofTokens) public returns (bool) {\n        \n        require(IERC20(_token).transferFrom(msg.sender, address(this), _numofTokens));\n        TotalTokenBalance[msg.sender] += _numofTokens;\n        \n        return true;\n    \n    }\n//**************DepositEther() Function*********************//    \n    function DepositEther(uint256 _numofEthers) public payable returns (bool) {\n        TotalEtherBalance[msg.sender] += _numofEthers;\n        \n        return true;\n    }\n//******************** OpenMarket function ********************//\n    //To open a market(auction) on an specific token, user has to call OpenMarket() function and pass the address of ERC20 token to it\n    function OpenMarket() public  returns (bool) {\n\n        CreationTime = now; \n        biddingPeriod = 10 minutes;\n        state = States.Opened;\n        NumOrders = 0;\n        SellListCounter = 100;\n        BuyListCounter = 999;\n        return true;\n\n    }\n//******************** submitBid() function ********************//\n    //submitBid function calls the maxheap_insert function    \n    //The Bidder must first deposit enough Ether in the exachange (DepositEther())\n    function submitBid (uint256 _price, uint256 _volume) public AuctionAtStage (States.Opened) returns (bool)\n    {\n        require ((TotalEtherBalance[msg.sender] - UnavailableEtherBalance[msg.sender]) >= _volume * _price );\n        //require ((TotalEtherBalance[msg.sender] - MP.readEther(msg.sender)) >= _volume * _price );\n        uint256 _finalpriceUint;\n        string memory _finalpriceString;\n        _finalpriceString = contcat ( uint2str(_price), uint2str (BuyListCounter));\n        _finalpriceUint = str2uint (_finalpriceString);\n        \n        \n        if (PQ.InsertBid(msg.sender, _price, _volume, _finalpriceUint))\n        {\n            NumOrders++;\n            BuyListCounter--;\n            UnavailableEtherBalance[msg.sender] += _volume * _price;\n            //MP.addEther(msg.sender, _price, _volume);\n            //UnavailableEtherArray.push(msg.sender);\n        }\n        return true;\n    }\n//******************** submitask() function ********************//\n    //submitAsk function calls the minheap_insert function\n    //The Bidder must first deposit enough Token in the exachange (DepositToken())\n    function submitAsk (uint256 _price, uint256 _volume ) public AuctionAtStage (States.Opened) returns (bool)\n    {\n        require((TotalTokenBalance[msg.sender] - UnavailableTokenBalance[msg.sender]) >= _volume);\n        //require((TotalTokenBalance[msg.sender] - MP.readToken(msg.sender)) >= _volume);\n        uint256 _finalpriceUint;\n        string memory _finalpriceString;\n        _finalpriceString = contcat ( uint2str(_price), uint2str (SellListCounter));\n        _finalpriceUint = str2uint (_finalpriceString);\n        \n    \n        if (PQ.InsertAsk(msg.sender, _price, _volume,_finalpriceUint))\n        {   \n            NumOrders++;\n            SellListCounter++;\n            UnavailableTokenBalance[msg.sender] += _volume;\n            //MP.addToken(msg.sender, _volume);\n            //UnavailableTokenArray.push(msg.sender);\n        }\n    return true;\n\n    }\n//******************** CloseMarket() function ********************//\n    function CloseMarket() public returns (bool)\n    {\n        state = States.Closed;\n        return true;\n    }\n\n//******************** MatchOrders() function ********************//\n    function MatchOrders() public AuctionAtStage(States.Closed) returns (bool){\n       \n        (uint256 BBPrice, address BBSender) = PQ.BuyListMaxDelete();\n        (uint256 BAPrice, address BASender) = PQ.SellListMaxDelete();\n        while (BBPrice >= BAPrice)\n        \n        {  \n            countervariable++;\n            TotalTokenBalance[BBSender] += 1;\n            TotalEtherBalance[BASender] += BAPrice;\n         \n            if (PQ.BuyListisEmpty() || PQ.SellListisEmpty()) {break;}\n\n            (BBPrice,BBSender) = PQ.BuyListMaxDelete();\n            (BAPrice,BASender) = PQ.SellListMaxDelete();\n        }\n        \n        //uint refund = refunds[block.coinbase]; \n        //refunds[block.coinbase] = 0; \n        //block.coinbase.transfer(refund);\n        //refunds[block.coinbase] += PQ.BuyListMaxPrice() - PQ.SellListMaxPrice();\n        // for (uint i =0 ; i< UnavailableTokenArray.length; i++) \n        // {   \n        //     delete UnavailableTokenBalance[UnavailableTokenArray[i]];\n        // }\n        \n        // for (uint j=0 ; j< UnavailableEtherArray.length; j++) \n        // {   \n        //     delete UnavailableEtherBalance[UnavailableEtherArray[j]];\n        // }\n             \n        //  while (PQ.BuyListMaxPrice() >= PQ.SellListMaxPrice())\n        // {   \n        //     countervariable++;\n            \n        //     TotalTokenBalance[PQ.BuyListMaxSender()] += 1;\n        //     TotalEtherBalance[PQ.SellListMaxSender()] += PQ.SellListMaxPrice();\n        //     //refunds[block.coinbase] += PQ.BuyListMaxPrice() - PQ.SellListMaxPrice();\n    \n        //     PQ.SellListMaxDelete();\n        //     PQ.BuyListMaxDelete();\n            \n        //     if (PQ.BuyListisEmpty() == true || PQ.SellListisEmpty() == true) {break;}\n            \n\n        // }    \n        \n        state = States.Settled;\n        return true;\n\n        \n    }    \n//******************** claimTokens() & claimEther() ********************//\n    //traders can claim their tokens or ethers uisng the following two functions\n    function claimTokens (address _token, uint256 _numofTokens ) public returns (bool)\n    {\n        require ((TotalTokenBalance[msg.sender] - UnavailableTokenBalance[msg.sender]) > _numofTokens);\n        uint256 tokensToBeClaimed = _numofTokens ;\n        TotalTokenBalance[msg.sender] -= tokensToBeClaimed;\n        IERC20(_token).transfer(msg.sender, tokensToBeClaimed);\n        return true;\n    }\n//******************************************************//      \n    function claimEther (uint256 _numofEthers) public returns (bool)\n    {\n        require ((TotalEtherBalance[msg.sender] - UnavailableEtherBalance[msg.sender]) > _numofEthers);\n        uint256 EthersToBeClaimed = _numofEthers ;\n        TotalEtherBalance[msg.sender] -= EthersToBeClaimed;\n        msg.sender.transfer(EthersToBeClaimed);\n        return true;\n    }    \n    \n                                                                                                                                                                                   \n}                                                                                                                                                                                                                                                                                                                                                                                                                                                                                                                                                                                                                                                                                                                                                                                                                                                                                                                                                                                                                                                                                                                                                                                                                                                                                                                                                                                                                                                                                                                                                                                                                                                                                                                                                                                                                                                                                                                                                                                                                                                                                                                                                                                                                                                                                                                                                                                                                                                                                                                                                                                                                                                                                                                                                                                                                                                                                                                                                                                                                                                                                                                                                                                                                                                                                                                                                                                                                                                                                                                                                                                                                                                                                                                                                                                                                                                                                                                                                                                                                                                                                                                                                                                                                                                                                                                                                                                                                                                                                                                                                                                                                                                                                                                                                                                                                                                                                                                                                                                                                                                                                                                                                                                                                                                                                                                                                                                                                                                                                                                                                                                                                                                                                                                                                                                                                                                                                                                                                                                                                                                                                                                                                                                                                                                                                                                                                                                                                                                                                                                                                                                                                                                                                                                                                                                                                                                                                                                                                                                                                                                                                                                                                                                                                                                                                                                                                                                                                                                                                                                                                                                                                                                                                                                                                                                                                                                                                                                                                                                                                                                                                                                                                                                                                                                                                                                                                                                                                                                                                                                                                                                                                                                                                                                                                                                                                                                                                                                                                                                                                                                                                                                                                                                                                                                                                                                                                                                                                                                                                                                                                                                                                                                                                                                                                                                                                                                                                                                                                                                                                                                                                                                                                                                                                                                                                                                                                                                                                                                                                                                                                                                                                                                                                                                                                                                                                                                                                                                                                                                                                                                                                                                                                                                                                                                                                                                                                                                                                                                                                                                                                                                                                                                                                                                                                                                                                                                                                                                                                                                                                                                                                                                                                                                                                                                                                                                                                                                                                                                                                                                                                                                                                                                                                                                                                                                                                                                                                                                                                                                                                                                                                                                                                                                                                                                                                                                                                                                                                                                                                                                                                                                                                                                                                                                                                                                                                                                                                                                                                                                                                                                                                                                                                                                                                                                                                                                                                                                                                                                                                                                                                                                                                                                                                                                                                                                                                                                                                                                                                                                                                                                                                                                                                                                                                                                                                                                                                                                                                                                                                                                                                                                                                                                                                                                                                                                                                                                                                                                                                                                                                                                                                                                                                                                                                                                                                                                                                                                                                                                                                                                                                                                                                                                                                                                                                                                                                                                                                                                                                                                                                                                                                                                                                                                                                                                                                                                                                                                                                                                                                                                                                                                                                                                                                                                                                                                                                                                                                                                                                                                                                                                                                                                                                                                                                                                                                                                                                                                                                                                                                                                                                                                                                                                                                                                                                                                                                                                                                                                                                                                                                                                                                                                                                                                                                                                                                                                                                                                                                                                                                                                                                                                                                                                                                                                                                                                                                                                                                                                                                                                                                                                                                                                                                                                                                                                                                                                                                                                                                                                                                                                                                                                                                                                                                                                                                                                                                                                                                                                                                                                                                                                                                                                                                                                                                                                                                                                                                                                                                                                                                                                                                                                                                                                                                                                                                                                                                                                                                                                                                                                                                                                                                                                                                                                                                                                                                                                                                                                                                                                                                                                                                                                                                                                                                                                                                                                                                                                                                                                                                                                                                                                                                                                                                                                                                                                                                                                                                                                                                                                                                                                                                                                                                                                                                                                                                                                                                                                                                                                                                                                                                                                                     \n",
  "sourcePath": "/home/mahsa/ProjectRepo/2020-Orderbook/Code/New-Truffle/contracts/CallMarket/Priority_Queues/Call_Market.sol",
  "compiler": {
    "name": "solc",
    "version": "0.5.12+commit.7709ece9.Emscripten.clang"
  },
  "schemaVersion": "3.2.0",
  "updatedAt": "2020-07-11T19:04:04.239Z",
  "networkType": "ethereum",
  "devdoc": {
    "methods": {}
  },
  "userdoc": {
    "methods": {}
  }
}