{
  "contractName": "Call_Market",
  "abi": [
    {
      "constant": true,
      "inputs": [],
      "name": "BuyListCounter",
      "outputs": [
        {
          "internalType": "uint256",
          "name": "",
          "type": "uint256"
        }
      ],
      "payable": false,
      "stateMutability": "view",
      "type": "function"
    },
    {
      "constant": true,
      "inputs": [],
      "name": "CreationTime",
      "outputs": [
        {
          "internalType": "uint256",
          "name": "",
          "type": "uint256"
        }
      ],
      "payable": false,
      "stateMutability": "view",
      "type": "function"
    },
    {
      "constant": true,
      "inputs": [],
      "name": "NumOrders",
      "outputs": [
        {
          "internalType": "uint256",
          "name": "",
          "type": "uint256"
        }
      ],
      "payable": false,
      "stateMutability": "view",
      "type": "function"
    },
    {
      "constant": true,
      "inputs": [],
      "name": "PQ",
      "outputs": [
        {
          "internalType": "contract PQ1_Heap_Dynamic_Array",
          "name": "",
          "type": "address"
        }
      ],
      "payable": false,
      "stateMutability": "view",
      "type": "function"
    },
    {
      "constant": true,
      "inputs": [],
      "name": "SellListCounter",
      "outputs": [
        {
          "internalType": "uint256",
          "name": "",
          "type": "uint256"
        }
      ],
      "payable": false,
      "stateMutability": "view",
      "type": "function"
    },
    {
      "constant": true,
      "inputs": [
        {
          "internalType": "address",
          "name": "",
          "type": "address"
        }
      ],
      "name": "TotalEtherBalance",
      "outputs": [
        {
          "internalType": "uint256",
          "name": "",
          "type": "uint256"
        }
      ],
      "payable": false,
      "stateMutability": "view",
      "type": "function"
    },
    {
      "constant": true,
      "inputs": [
        {
          "internalType": "address",
          "name": "",
          "type": "address"
        }
      ],
      "name": "TotalTokenBalance",
      "outputs": [
        {
          "internalType": "uint256",
          "name": "",
          "type": "uint256"
        }
      ],
      "payable": false,
      "stateMutability": "view",
      "type": "function"
    },
    {
      "constant": true,
      "inputs": [
        {
          "internalType": "uint256",
          "name": "",
          "type": "uint256"
        }
      ],
      "name": "UnavailableEtherArray",
      "outputs": [
        {
          "internalType": "address",
          "name": "",
          "type": "address"
        }
      ],
      "payable": false,
      "stateMutability": "view",
      "type": "function"
    },
    {
      "constant": true,
      "inputs": [
        {
          "internalType": "address",
          "name": "",
          "type": "address"
        }
      ],
      "name": "UnavailableEtherBalance",
      "outputs": [
        {
          "internalType": "uint256",
          "name": "",
          "type": "uint256"
        }
      ],
      "payable": false,
      "stateMutability": "view",
      "type": "function"
    },
    {
      "constant": true,
      "inputs": [
        {
          "internalType": "uint256",
          "name": "",
          "type": "uint256"
        }
      ],
      "name": "UnavailableTokenArray",
      "outputs": [
        {
          "internalType": "address",
          "name": "",
          "type": "address"
        }
      ],
      "payable": false,
      "stateMutability": "view",
      "type": "function"
    },
    {
      "constant": true,
      "inputs": [
        {
          "internalType": "address",
          "name": "",
          "type": "address"
        }
      ],
      "name": "UnavailableTokenBalance",
      "outputs": [
        {
          "internalType": "uint256",
          "name": "",
          "type": "uint256"
        }
      ],
      "payable": false,
      "stateMutability": "view",
      "type": "function"
    },
    {
      "constant": true,
      "inputs": [],
      "name": "biddingPeriod",
      "outputs": [
        {
          "internalType": "uint256",
          "name": "",
          "type": "uint256"
        }
      ],
      "payable": false,
      "stateMutability": "view",
      "type": "function"
    },
    {
      "constant": true,
      "inputs": [],
      "name": "callmarket",
      "outputs": [
        {
          "internalType": "address payable",
          "name": "",
          "type": "address"
        }
      ],
      "payable": false,
      "stateMutability": "view",
      "type": "function"
    },
    {
      "constant": true,
      "inputs": [],
      "name": "countervariable",
      "outputs": [
        {
          "internalType": "uint256",
          "name": "",
          "type": "uint256"
        }
      ],
      "payable": false,
      "stateMutability": "view",
      "type": "function"
    },
    {
      "constant": true,
      "inputs": [],
      "name": "ethbalancecounter",
      "outputs": [
        {
          "internalType": "uint256",
          "name": "",
          "type": "uint256"
        }
      ],
      "payable": false,
      "stateMutability": "view",
      "type": "function"
    },
    {
      "constant": true,
      "inputs": [],
      "name": "tokenbalancecounter",
      "outputs": [
        {
          "internalType": "uint256",
          "name": "",
          "type": "uint256"
        }
      ],
      "payable": false,
      "stateMutability": "view",
      "type": "function"
    },
    {
      "constant": false,
      "inputs": [
        {
          "internalType": "address",
          "name": "_token",
          "type": "address"
        },
        {
          "internalType": "uint256",
          "name": "_numofTokens",
          "type": "uint256"
        }
      ],
      "name": "DepositToken",
      "outputs": [
        {
          "internalType": "bool",
          "name": "",
          "type": "bool"
        }
      ],
      "payable": false,
      "stateMutability": "nonpayable",
      "type": "function"
    },
    {
      "constant": false,
      "inputs": [
        {
          "internalType": "uint256",
          "name": "_numofEthers",
          "type": "uint256"
        }
      ],
      "name": "DepositEther",
      "outputs": [
        {
          "internalType": "bool",
          "name": "",
          "type": "bool"
        }
      ],
      "payable": true,
      "stateMutability": "payable",
      "type": "function"
    },
    {
      "constant": false,
      "inputs": [],
      "name": "OpenMarket",
      "outputs": [
        {
          "internalType": "bool",
          "name": "",
          "type": "bool"
        }
      ],
      "payable": false,
      "stateMutability": "nonpayable",
      "type": "function"
    },
    {
      "constant": false,
      "inputs": [
        {
          "internalType": "uint256",
          "name": "_price",
          "type": "uint256"
        },
        {
          "internalType": "uint256",
          "name": "_volume",
          "type": "uint256"
        }
      ],
      "name": "submitBid",
      "outputs": [
        {
          "internalType": "bool",
          "name": "",
          "type": "bool"
        }
      ],
      "payable": false,
      "stateMutability": "nonpayable",
      "type": "function"
    },
    {
      "constant": false,
      "inputs": [
        {
          "internalType": "uint256",
          "name": "_price",
          "type": "uint256"
        },
        {
          "internalType": "uint256",
          "name": "_volume",
          "type": "uint256"
        }
      ],
      "name": "submitAsk",
      "outputs": [
        {
          "internalType": "bool",
          "name": "",
          "type": "bool"
        }
      ],
      "payable": false,
      "stateMutability": "nonpayable",
      "type": "function"
    },
    {
      "constant": false,
      "inputs": [],
      "name": "CloseMarket",
      "outputs": [
        {
          "internalType": "bool",
          "name": "",
          "type": "bool"
        }
      ],
      "payable": false,
      "stateMutability": "nonpayable",
      "type": "function"
    },
    {
      "constant": false,
      "inputs": [],
      "name": "MatchOrders",
      "outputs": [
        {
          "internalType": "bool",
          "name": "",
          "type": "bool"
        }
      ],
      "payable": false,
      "stateMutability": "nonpayable",
      "type": "function"
    },
    {
      "constant": false,
      "inputs": [
        {
          "internalType": "address",
          "name": "_token",
          "type": "address"
        },
        {
          "internalType": "uint256",
          "name": "_numofTokens",
          "type": "uint256"
        }
      ],
      "name": "claimTokens",
      "outputs": [
        {
          "internalType": "bool",
          "name": "",
          "type": "bool"
        }
      ],
      "payable": false,
      "stateMutability": "nonpayable",
      "type": "function"
    },
    {
      "constant": false,
      "inputs": [
        {
          "internalType": "uint256",
          "name": "_numofEthers",
          "type": "uint256"
        }
      ],
      "name": "claimEther",
      "outputs": [
        {
          "internalType": "bool",
          "name": "",
          "type": "bool"
        }
      ],
      "payable": false,
      "stateMutability": "nonpayable",
      "type": "function"
    }
  ],
  "bytecode": "0x6080604052604051610010906100bf565b604051809103906000f08015801561002c573d6000803e3d6000fd5b506000806101000a81548173ffffffffffffffffffffffffffffffffffffffff021916908373ffffffffffffffffffffffffffffffffffffffff16021790555030600160006101000a81548173ffffffffffffffffffffffffffffffffffffffff021916908373ffffffffffffffffffffffffffffffffffffffff1602179055503480156100b957600080fd5b506100cc565b611c1080611d7483390190565b611c99806100db6000396000f3fe6080604052600436106101665760003560e01c80637b873ac7116100d1578063a5b332471161008a578063cfae0d6b11610064578063cfae0d6b1461075e578063d51991bd146107d9578063d526941814610808578063fe417fa51461084e57610166565b8063a5b33247146106ab578063b4c1feee146106d6578063b821da1b1461070157610166565b80637b873ac71461052d5780637bc8266514610558578063885e6d061461058357806390c6b18a146105da578063938ffc4c1461060557806395c5a70a1461063057610166565b806349407a441161012357806349407a44146103675780635f8909bd146103ba57806367f7e81a146103e55780636be79bb91461043c5780636dd69acc1461046b5780637288a28a146104d057610166565b80630389b49d1461016b5780631255589b1461019657806328aabbc3146101c55780632bafe0231461022a5780632d0c0a881461028f57806339a9933414610302575b600080fd5b34801561017757600080fd5b506101806108c1565b6040518082815260200191505060405180910390f35b3480156101a257600080fd5b506101ab6108c7565b604051808215151515815260200191505060405180910390f35b3480156101d157600080fd5b50610214600480360360208110156101e857600080fd5b81019080803573ffffffffffffffffffffffffffffffffffffffff16906020019092919050505061091d565b6040518082815260200191505060405180910390f35b34801561023657600080fd5b506102796004803603602081101561024d57600080fd5b81019080803573ffffffffffffffffffffffffffffffffffffffff169060200190929190505050610935565b6040518082815260200191505060405180910390f35b34801561029b57600080fd5b506102e8600480360360408110156102b257600080fd5b81019080803573ffffffffffffffffffffffffffffffffffffffff1690602001909291908035906020019092919050505061094d565b604051808215151515815260200191505060405180910390f35b34801561030e57600080fd5b506103516004803603602081101561032557600080fd5b81019080803573ffffffffffffffffffffffffffffffffffffffff169060200190929190505050610aa5565b6040518082815260200191505060405180910390f35b34801561037357600080fd5b506103a06004803603602081101561038a57600080fd5b8101908080359060200190929190505050610abd565b604051808215151515815260200191505060405180910390f35b3480156103c657600080fd5b506103cf610bee565b6040518082815260200191505060405180910390f35b3480156103f157600080fd5b506103fa610bf4565b604051808273ffffffffffffffffffffffffffffffffffffffff1673ffffffffffffffffffffffffffffffffffffffff16815260200191505060405180910390f35b34801561044857600080fd5b50610451610c1a565b604051808215151515815260200191505060405180910390f35b34801561047757600080fd5b506104ba6004803603602081101561048e57600080fd5b81019080803573ffffffffffffffffffffffffffffffffffffffff169060200190929190505050611164565b6040518082815260200191505060405180910390f35b3480156104dc57600080fd5b50610513600480360360408110156104f357600080fd5b81019080803590602001909291908035906020019092919050505061117c565b604051808215151515815260200191505060405180910390f35b34801561053957600080fd5b506105426113e1565b6040518082815260200191505060405180910390f35b34801561056457600080fd5b5061056d6113e7565b6040518082815260200191505060405180910390f35b34801561058f57600080fd5b506105986113ed565b604051808273ffffffffffffffffffffffffffffffffffffffff1673ffffffffffffffffffffffffffffffffffffffff16815260200191505060405180910390f35b3480156105e657600080fd5b506105ef611412565b6040518082815260200191505060405180910390f35b34801561061157600080fd5b5061061a611418565b6040518082815260200191505060405180910390f35b34801561063c57600080fd5b506106696004803603602081101561065357600080fd5b810190808035906020019092919050505061141e565b604051808273ffffffffffffffffffffffffffffffffffffffff1673ffffffffffffffffffffffffffffffffffffffff16815260200191505060405180910390f35b3480156106b757600080fd5b506106c061145a565b6040518082815260200191505060405180910390f35b3480156106e257600080fd5b506106eb611460565b6040518082815260200191505060405180910390f35b34801561070d57600080fd5b506107446004803603604081101561072457600080fd5b810190808035906020019092919080359060200190929190505050611466565b604051808215151515815260200191505060405180910390f35b34801561076a57600080fd5b506107976004803603602081101561078157600080fd5b8101908080359060200190929190505050611781565b604051808273ffffffffffffffffffffffffffffffffffffffff1673ffffffffffffffffffffffffffffffffffffffff16815260200191505060405180910390f35b3480156107e557600080fd5b506107ee6117bd565b604051808215151515815260200191505060405180910390f35b6108346004803603602081101561081e57600080fd5b81019080803590602001909291905050506117ea565b604051808215151515815260200191505060405180910390f35b34801561085a57600080fd5b506108a76004803603604081101561087157600080fd5b81019080803573ffffffffffffffffffffffffffffffffffffffff16906020019092919080359060200190929190505050611842565b604051808215151515815260200191505060405180910390f35b600a5481565b6000426004819055506102586005819055506000600360006101000a81548160ff021916908360028111156108f857fe5b0217905550600060068190555060646008819055506103e76007819055506001905090565b600c6020528060005260406000206000915090505481565b600f6020528060005260406000206000915090505481565b60008273ffffffffffffffffffffffffffffffffffffffff166323b872dd3330856040518463ffffffff1660e01b8152600401808473ffffffffffffffffffffffffffffffffffffffff1673ffffffffffffffffffffffffffffffffffffffff1681526020018373ffffffffffffffffffffffffffffffffffffffff1673ffffffffffffffffffffffffffffffffffffffff1681526020018281526020019350505050602060405180830381600087803b158015610a0a57600080fd5b505af1158015610a1e573d6000803e3d6000fd5b505050506040513d6020811015610a3457600080fd5b8101908080519060200190929190505050610a4e57600080fd5b81600c60003373ffffffffffffffffffffffffffffffffffffffff1673ffffffffffffffffffffffffffffffffffffffff168152602001908152602001600020600082825401925050819055506001905092915050565b60106020528060005260406000206000915090505481565b600081601060003373ffffffffffffffffffffffffffffffffffffffff1673ffffffffffffffffffffffffffffffffffffffff16815260200190815260200160002054600f60003373ffffffffffffffffffffffffffffffffffffffff1673ffffffffffffffffffffffffffffffffffffffff168152602001908152602001600020540311610b4b57600080fd5b600082905080600f60003373ffffffffffffffffffffffffffffffffffffffff1673ffffffffffffffffffffffffffffffffffffffff168152602001908152602001600020600082825403925050819055503373ffffffffffffffffffffffffffffffffffffffff166108fc829081150290604051600060405180830381858888f19350505050158015610be3573d6000803e3d6000fd5b506001915050919050565b60055481565b600160009054906101000a900473ffffffffffffffffffffffffffffffffffffffff1681565b60006001806002811115610c2a57fe5b600360009054906101000a900460ff166002811115610c4557fe5b14610c4f57600080fd5b6000806000809054906101000a900473ffffffffffffffffffffffffffffffffffffffff1673ffffffffffffffffffffffffffffffffffffffff166339f3b8a36040518163ffffffff1660e01b81526004016040805180830381600087803b158015610cba57600080fd5b505af1158015610cce573d6000803e3d6000fd5b505050506040513d6040811015610ce457600080fd5b810190808051906020019092919080519060200190929190505050915091506000806000809054906101000a900473ffffffffffffffffffffffffffffffffffffffff1673ffffffffffffffffffffffffffffffffffffffff16630b21881b6040518163ffffffff1660e01b81526004016040805180830381600087803b158015610d6e57600080fd5b505af1158015610d82573d6000803e3d6000fd5b505050506040513d6040811015610d9857600080fd5b810190808051906020019092919080519060200190929190505050915091505b818410611134576002600081548092919060010191905055506001600c60008573ffffffffffffffffffffffffffffffffffffffff1673ffffffffffffffffffffffffffffffffffffffff1681526020019081526020016000206000828254019250508190555081600f60008373ffffffffffffffffffffffffffffffffffffffff1673ffffffffffffffffffffffffffffffffffffffff168152602001908152602001600020600082825401925050819055506000809054906101000a900473ffffffffffffffffffffffffffffffffffffffff1673ffffffffffffffffffffffffffffffffffffffff1663d98ed4816040518163ffffffff1660e01b8152600401602060405180830381600087803b158015610ed557600080fd5b505af1158015610ee9573d6000803e3d6000fd5b505050506040513d6020811015610eff57600080fd5b810190808051906020019092919050505080610fbb57506000809054906101000a900473ffffffffffffffffffffffffffffffffffffffff1673ffffffffffffffffffffffffffffffffffffffff166309ab210a6040518163ffffffff1660e01b8152600401602060405180830381600087803b158015610f7f57600080fd5b505af1158015610f93573d6000803e3d6000fd5b505050506040513d6020811015610fa957600080fd5b81019080805190602001909291905050505b15610fc557611134565b6000809054906101000a900473ffffffffffffffffffffffffffffffffffffffff1673ffffffffffffffffffffffffffffffffffffffff166339f3b8a36040518163ffffffff1660e01b81526004016040805180830381600087803b15801561102d57600080fd5b505af1158015611041573d6000803e3d6000fd5b505050506040513d604081101561105757600080fd5b81019080805190602001909291908051906020019092919050505080945081955050506000809054906101000a900473ffffffffffffffffffffffffffffffffffffffff1673ffffffffffffffffffffffffffffffffffffffff16630b21881b6040518163ffffffff1660e01b81526004016040805180830381600087803b1580156110e257600080fd5b505af11580156110f6573d6000803e3d6000fd5b505050506040513d604081101561110c57600080fd5b8101908080519060200190929190805190602001909291905050508092508193505050610db8565b6002600360006101000a81548160ff0219169083600281111561115357fe5b021790555060019550505050505090565b600d6020528060005260406000206000915090505481565b60008080600281111561118b57fe5b600360009054906101000a900460ff1660028111156111a657fe5b146111b057600080fd5b82600d60003373ffffffffffffffffffffffffffffffffffffffff1673ffffffffffffffffffffffffffffffffffffffff16815260200190815260200160002054600c60003373ffffffffffffffffffffffffffffffffffffffff1673ffffffffffffffffffffffffffffffffffffffff1681526020019081526020016000205403101561123d57600080fd5b6000606061125d61124d876119f0565b6112586008546119f0565b611b1d565b905061126881611be5565b91506000809054906101000a900473ffffffffffffffffffffffffffffffffffffffff1673ffffffffffffffffffffffffffffffffffffffff1663ccde53ca338888866040518563ffffffff1660e01b8152600401808573ffffffffffffffffffffffffffffffffffffffff1673ffffffffffffffffffffffffffffffffffffffff168152602001848152602001838152602001828152602001945050505050602060405180830381600087803b15801561132257600080fd5b505af1158015611336573d6000803e3d6000fd5b505050506040513d602081101561134c57600080fd5b8101908080519060200190929190505050156113d45760066000815480929190600101919050555060086000815480929190600101919050555084600d60003373ffffffffffffffffffffffffffffffffffffffff1673ffffffffffffffffffffffffffffffffffffffff168152602001908152602001600020600082825401925050819055505b6001935050505092915050565b60085481565b60065481565b6000809054906101000a900473ffffffffffffffffffffffffffffffffffffffff1681565b60045481565b60025481565b600e818154811061142b57fe5b906000526020600020016000915054906101000a900473ffffffffffffffffffffffffffffffffffffffff1681565b60095481565b60075481565b60008080600281111561147557fe5b600360009054906101000a900460ff16600281111561149057fe5b1461149a57600080fd5b838302601060003373ffffffffffffffffffffffffffffffffffffffff1673ffffffffffffffffffffffffffffffffffffffff16815260200190815260200160002054600f60003373ffffffffffffffffffffffffffffffffffffffff1673ffffffffffffffffffffffffffffffffffffffff1681526020019081526020016000205403101561152957600080fd5b60006060611549611539876119f0565b6115446007546119f0565b611b1d565b905073__Integers______________________________6342346c5e6040518163ffffffff1660e01b81526004018080602001828103825260118152602001807f5f66696e616c7072696365537472696e6700000000000000000000000000000081525060200191505060206040518083038186803b1580156115cb57600080fd5b505af41580156115df573d6000803e3d6000fd5b505050506040513d60208110156115f557600080fd5b8101908080519060200190929190505050506000809054906101000a900473ffffffffffffffffffffffffffffffffffffffff1673ffffffffffffffffffffffffffffffffffffffff1663d735b05f338888866040518563ffffffff1660e01b8152600401808573ffffffffffffffffffffffffffffffffffffffff1673ffffffffffffffffffffffffffffffffffffffff168152602001848152602001838152602001828152602001945050505050602060405180830381600087803b1580156116bf57600080fd5b505af11580156116d3573d6000803e3d6000fd5b505050506040513d60208110156116e957600080fd5b8101908080519060200190929190505050156117745760066000815480929190600101919050555060076000815480929190600190039190505550858502601060003373ffffffffffffffffffffffffffffffffffffffff1673ffffffffffffffffffffffffffffffffffffffff168152602001908152602001600020600082825401925050819055505b6001935050505092915050565b6011818154811061178e57fe5b906000526020600020016000915054906101000a900473ffffffffffffffffffffffffffffffffffffffff1681565b60006001600360006101000a81548160ff021916908360028111156117de57fe5b02179055506001905090565b600081600f60003373ffffffffffffffffffffffffffffffffffffffff1673ffffffffffffffffffffffffffffffffffffffff1681526020019081526020016000206000828254019250508190555060019050919050565b600081600d60003373ffffffffffffffffffffffffffffffffffffffff1673ffffffffffffffffffffffffffffffffffffffff16815260200190815260200160002054600c60003373ffffffffffffffffffffffffffffffffffffffff1673ffffffffffffffffffffffffffffffffffffffff1681526020019081526020016000205403116118d057600080fd5b600082905080600c60003373ffffffffffffffffffffffffffffffffffffffff1673ffffffffffffffffffffffffffffffffffffffff168152602001908152602001600020600082825403925050819055508373ffffffffffffffffffffffffffffffffffffffff1663a9059cbb33836040518363ffffffff1660e01b8152600401808373ffffffffffffffffffffffffffffffffffffffff1673ffffffffffffffffffffffffffffffffffffffff16815260200182815260200192505050602060405180830381600087803b1580156119a957600080fd5b505af11580156119bd573d6000803e3d6000fd5b505050506040513d60208110156119d357600080fd5b810190808051906020019092919050505050600191505092915050565b60606000821415611a38576040518060400160405280600181526020017f30000000000000000000000000000000000000000000000000000000000000008152509050611b18565b600082905060005b60008214611a62578080600101915050600a8281611a5a57fe5b049150611a40565b6060816040519080825280601f01601f191660200182016040528015611a975781602001600182028038833980820191505090505b50905060006001830390505b60008614611b1057600a8681611ab557fe5b0660300160f81b82828060019003935081518110611acf57fe5b60200101907effffffffffffffffffffffffffffffffffffffffffffffffffffffffffffff1916908160001a905350600a8681611b0857fe5b049550611aa3565b819450505050505b919050565b606082826040516020018083805190602001908083835b60208310611b575780518252602082019150602081019050602083039250611b34565b6001836020036101000a03801982511681845116808217855250505050505090500182805190602001908083835b60208310611ba85780518252602082019150602081019050602083039250611b85565b6001836020036101000a03801982511681845116808217855250505050505090500192505050604051602081830303815290604052905092915050565b6000606082905060008060009050600083519050600092505b80831015611c58576000848481518110611c1457fe5b602001015160f81c60f81b60f81c60ff16905060308110158015611c39575060398111155b15611c4a5760308103600a84020192505b508280600101935050611bfe565b8194505050505091905056fea265627a7a72315820eec1e0e5b31ab55655b499776edef24373c66a3dd8c191d6a124e0abe857579b64736f6c634300050c0032608060405234801561001057600080fd5b50611bf0806100206000396000f3fe608060405234801561001057600080fd5b506004361061009e5760003560e01c806364d4497b1161006657806364d4497b1461013b578063657ffc3c14610159578063ccde53ca14610177578063d735b05f146101a7578063d98ed481146101d75761009e565b806309ab210a146100a35780630b21881b146100c157806315991626146100e057806339f3b8a3146100fe5780635cbe5bed1461011d575b600080fd5b6100ab6101f5565b6040516100b89190611a87565b60405180910390f35b6100c9610215565b6040516100d7929190611afd565b60405180910390f35b6100e8610541565b6040516100f59190611ae2565b60405180910390f35b6101066105b0565b604051610114929190611afd565b60405180910390f35b6101256108d9565b6040516101329190611ae2565b60405180910390f35b610143610947565b6040516101509190611a6c565b60405180910390f35b6101616109d5565b60405161016e9190611a6c565b60405180910390f35b610191600480360361018c919081019061195c565b610a64565b60405161019e9190611a87565b60405180910390f35b6101c160048036036101bc919081019061195c565b610b7c565b6040516101ce9190611a87565b60405180910390f35b6101df610c94565b6040516101ec9190611a87565b60405180910390f35b600080600180549050141561020d5760019050610212565b600090505b90565b60008060006001805490501415610261576040517f08c379a000000000000000000000000000000000000000000000000000000000815260040161025890611ac2565b60405180910390fd5b60018080549050141561035a576000600160008154811061027e57fe5b9060005260206000209060050201600101549050600060016000815481106102a257fe5b906000526020600020906005020160000160009054906101000a900473ffffffffffffffffffffffffffffffffffffffff16905060018054806102e157fe5b6001900381819060005260206000209060050201600080820160006101000a81549073ffffffffffffffffffffffffffffffffffffffff0219169055600182016000905560028201600090556003820160006101000a81549060ff0219169055600482016000905550509055818193509350505061053d565b6000600160008154811061036a57fe5b90600052602060002090600502016001015490506000600160008154811061038e57fe5b906000526020600020906005020160000160009054906101000a900473ffffffffffffffffffffffffffffffffffffffff169050600180808054905003815481106103d557fe5b906000526020600020906005020160016000815481106103f157fe5b90600052602060002090600502016000820160009054906101000a900473ffffffffffffffffffffffffffffffffffffffff168160000160006101000a81548173ffffffffffffffffffffffffffffffffffffffff021916908373ffffffffffffffffffffffffffffffffffffffff16021790555060018201548160010155600282015481600201556003820160009054906101000a900460ff168160030160006101000a81548160ff0219169083151502179055506004820154816004015590505060018054806104bf57fe5b6001900381819060005260206000209060050201600080820160006101000a81549073ffffffffffffffffffffffffffffffffffffffff0219169055600182016000905560028201600090556003820160006101000a81549060ff0219169055600482016000905550509055610533610cb4565b5081819350935050505b9091565b600080600180549050141561058b576040517f08c379a000000000000000000000000000000000000000000000000000000000815260040161058290611ac2565b60405180910390fd5b600160008154811061059957fe5b906000526020600020906005020160010154905090565b6000806000808054905014156105fb576040517f08c379a00000000000000000000000000000000000000000000000000000000081526004016105f290611aa2565b60405180910390fd5b600160008054905014156106f35760008060008154811061061857fe5b906000526020600020906005020160010154905060008060008154811061063b57fe5b906000526020600020906005020160000160009054906101000a900473ffffffffffffffffffffffffffffffffffffffff169050600080548061067a57fe5b6001900381819060005260206000209060050201600080820160006101000a81549073ffffffffffffffffffffffffffffffffffffffff0219169055600182016000905560028201600090556003820160006101000a81549060ff021916905560048201600090555050905581819350935050506108d5565b60008060008154811061070257fe5b906000526020600020906005020160010154905060008060008154811061072557fe5b906000526020600020906005020160000160009054906101000a900473ffffffffffffffffffffffffffffffffffffffff16905060006001600080549050038154811061076e57fe5b90600052602060002090600502016000808154811061078957fe5b90600052602060002090600502016000820160009054906101000a900473ffffffffffffffffffffffffffffffffffffffff168160000160006101000a81548173ffffffffffffffffffffffffffffffffffffffff021916908373ffffffffffffffffffffffffffffffffffffffff16021790555060018201548160010155600282015481600201556003820160009054906101000a900460ff168160030160006101000a81548160ff02191690831515021790555060048201548160040155905050600080548061085757fe5b6001900381819060005260206000209060050201600080820160006101000a81549073ffffffffffffffffffffffffffffffffffffffff0219169055600182016000905560028201600090556003820160006101000a81549060ff02191690556004820160009055505090556108cb610ff7565b5081819350935050505b9091565b6000806000805490501415610923576040517f08c379a000000000000000000000000000000000000000000000000000000000815260040161091a90611aa2565b60405180910390fd5b6000808154811061093057fe5b906000526020600020906005020160010154905090565b6000806000805490501415610991576040517f08c379a000000000000000000000000000000000000000000000000000000000815260040161098890611aa2565b60405180910390fd5b6000808154811061099e57fe5b906000526020600020906005020160000160009054906101000a900473ffffffffffffffffffffffffffffffffffffffff16905090565b6000806001805490501415610a1f576040517f08c379a0000000000000000000000000000000000000000000000000000000008152600401610a1690611ac2565b60405180910390fd5b6001600081548110610a2d57fe5b906000526020600020906005020160000160009054906101000a900473ffffffffffffffffffffffffffffffffffffffff16905090565b6000610a6e6118eb565b6040518060a001604052808773ffffffffffffffffffffffffffffffffffffffff1681526020018681526020018581526020016001151581526020018481525090506001819080600181540180825580915050906001820390600052602060002090600502016000909192909190915060008201518160000160006101000a81548173ffffffffffffffffffffffffffffffffffffffff021916908373ffffffffffffffffffffffffffffffffffffffff160217905550602082015181600101556040820151816002015560608201518160030160006101000a81548160ff02191690831515021790555060808201518160040155505050610b6e61133a565b506001915050949350505050565b6000610b866118eb565b6040518060a001604052808773ffffffffffffffffffffffffffffffffffffffff1681526020018681526020018581526020016001151581526020018481525090506000819080600181540180825580915050906001820390600052602060002090600502016000909192909190915060008201518160000160006101000a81548173ffffffffffffffffffffffffffffffffffffffff021916908373ffffffffffffffffffffffffffffffffffffffff160217905550602082015181600101556040820151816002015560608201518160030160006101000a81548160ff02191690831515021790555060808201518160040155505050610c86611612565b506001915050949350505050565b6000806000805490501415610cac5760019050610cb1565b600090505b90565b6000806000905060006001826002020190505b600180549050811015610fee5760008190506000600183019050600180549050811015610d3c5760018381548110610cfb57fe5b90600052602060002090600502016004015460018281548110610d1a57fe5b9060005260206000209060050201600401541015610d3b5781806001019250505b5b60018481548110610d4957fe5b90600052602060002090600502016004015460018381548110610d6857fe5b9060005260206000209060050201600401541015610fe057610d886118eb565b60018581548110610d9557fe5b90600052602060002090600502016040518060a00160405290816000820160009054906101000a900473ffffffffffffffffffffffffffffffffffffffff1673ffffffffffffffffffffffffffffffffffffffff1673ffffffffffffffffffffffffffffffffffffffff16815260200160018201548152602001600282015481526020016003820160009054906101000a900460ff16151515158152602001600482015481525050905060018381548110610e4c57fe5b906000526020600020906005020160018681548110610e6757fe5b90600052602060002090600502016000820160009054906101000a900473ffffffffffffffffffffffffffffffffffffffff168160000160006101000a81548173ffffffffffffffffffffffffffffffffffffffff021916908373ffffffffffffffffffffffffffffffffffffffff16021790555060018201548160010155600282015481600201556003820160009054906101000a900460ff168160030160006101000a81548160ff021916908315150217905550600482015481600401559050508060018481548110610f3857fe5b906000526020600020906005020160008201518160000160006101000a81548173ffffffffffffffffffffffffffffffffffffffff021916908373ffffffffffffffffffffffffffffffffffffffff160217905550602082015181600101556040820151816002015560608201518160030160006101000a81548160ff0219169083151502179055506080820151816004015590505082945060018560020201935050610fe7565b5050610fee565b5050610cc7565b60019250505090565b6000806000905060006001826002020190505b600080549050811015611331576000819050600060018301905060008054905081101561107f576000838154811061103e57fe5b9060005260206000209060050201600401546000828154811061105d57fe5b906000526020600020906005020160040154111561107e5781806001019250505b5b6000828154811061108c57fe5b906000526020600020906005020160040154600085815481106110ab57fe5b9060005260206000209060050201600401541015611323576110cb6118eb565b600085815481106110d857fe5b90600052602060002090600502016040518060a00160405290816000820160009054906101000a900473ffffffffffffffffffffffffffffffffffffffff1673ffffffffffffffffffffffffffffffffffffffff1673ffffffffffffffffffffffffffffffffffffffff16815260200160018201548152602001600282015481526020016003820160009054906101000a900460ff1615151515815260200160048201548152505090506000838154811061118f57fe5b9060005260206000209060050201600086815481106111aa57fe5b90600052602060002090600502016000820160009054906101000a900473ffffffffffffffffffffffffffffffffffffffff168160000160006101000a81548173ffffffffffffffffffffffffffffffffffffffff021916908373ffffffffffffffffffffffffffffffffffffffff16021790555060018201548160010155600282015481600201556003820160009054906101000a900460ff168160030160006101000a81548160ff02191690831515021790555060048201548160040155905050806000848154811061127b57fe5b906000526020600020906005020160008201518160000160006101000a81548173ffffffffffffffffffffffffffffffffffffffff021916908373ffffffffffffffffffffffffffffffffffffffff160217905550602082015181600101556040820151816002015560608201518160030160006101000a81548160ff021916908315150217905550608082015181600401559050508294506001856002020193505061132a565b5050611331565b505061100a565b60019250505090565b600080600180805490500390505b600081111561160a5760006002600183038161136057fe5b0490506001818154811061137057fe5b9060005260206000209060050201600401546001838154811061138f57fe5b90600052602060002090600502016004015410156115fe576113af6118eb565b600183815481106113bc57fe5b90600052602060002090600502016040518060a00160405290816000820160009054906101000a900473ffffffffffffffffffffffffffffffffffffffff1673ffffffffffffffffffffffffffffffffffffffff1673ffffffffffffffffffffffffffffffffffffffff16815260200160018201548152602001600282015481526020016003820160009054906101000a900460ff1615151515815260200160048201548152505090506001828154811061147357fe5b90600052602060002090600502016001848154811061148e57fe5b90600052602060002090600502016000820160009054906101000a900473ffffffffffffffffffffffffffffffffffffffff168160000160006101000a81548173ffffffffffffffffffffffffffffffffffffffff021916908373ffffffffffffffffffffffffffffffffffffffff16021790555060018201548160010155600282015481600201556003820160009054906101000a900460ff168160030160006101000a81548160ff02191690831515021790555060048201548160040155905050806001838154811061155f57fe5b906000526020600020906005020160008201518160000160006101000a81548173ffffffffffffffffffffffffffffffffffffffff021916908373ffffffffffffffffffffffffffffffffffffffff160217905550602082015181600101556040820151816002015560608201518160030160006101000a81548160ff0219169083151502179055506080820151816004015590505081925050611604565b5061160a565b50611348565b600191505090565b60008060016000805490500390505b60008111156118e35760006002600183038161163957fe5b0490506000818154811061164957fe5b9060005260206000209060050201600401546000838154811061166857fe5b90600052602060002090600502016004015411156118d7576116886118eb565b6000838154811061169557fe5b90600052602060002090600502016040518060a00160405290816000820160009054906101000a900473ffffffffffffffffffffffffffffffffffffffff1673ffffffffffffffffffffffffffffffffffffffff1673ffffffffffffffffffffffffffffffffffffffff16815260200160018201548152602001600282015481526020016003820160009054906101000a900460ff1615151515815260200160048201548152505090506000828154811061174c57fe5b90600052602060002090600502016000848154811061176757fe5b90600052602060002090600502016000820160009054906101000a900473ffffffffffffffffffffffffffffffffffffffff168160000160006101000a81548173ffffffffffffffffffffffffffffffffffffffff021916908373ffffffffffffffffffffffffffffffffffffffff16021790555060018201548160010155600282015481600201556003820160009054906101000a900460ff168160030160006101000a81548160ff02191690831515021790555060048201548160040155905050806000838154811061183857fe5b906000526020600020906005020160008201518160000160006101000a81548173ffffffffffffffffffffffffffffffffffffffff021916908373ffffffffffffffffffffffffffffffffffffffff160217905550602082015181600101556040820151816002015560608201518160030160006101000a81548160ff02191690831515021790555060808201518160040155905050819250506118dd565b506118e3565b50611621565b600191505090565b6040518060a00160405280600073ffffffffffffffffffffffffffffffffffffffff1681526020016000815260200160008152602001600015158152602001600081525090565b60008135905061194181611b7f565b92915050565b60008135905061195681611b96565b92915050565b6000806000806080858703121561197257600080fd5b600061198087828801611932565b945050602061199187828801611947565b93505060406119a287828801611947565b92505060606119b387828801611947565b91505092959194509250565b6119c881611b37565b82525050565b6119d781611b49565b82525050565b60006119ea601183611b26565b91507f4275794c69737420697320656d707479210000000000000000000000000000006000830152602082019050919050565b6000611a2a601283611b26565b91507f53656c6c4c69737420697320656d7074792100000000000000000000000000006000830152602082019050919050565b611a6681611b75565b82525050565b6000602082019050611a8160008301846119bf565b92915050565b6000602082019050611a9c60008301846119ce565b92915050565b60006020820190508181036000830152611abb816119dd565b9050919050565b60006020820190508181036000830152611adb81611a1d565b9050919050565b6000602082019050611af76000830184611a5d565b92915050565b6000604082019050611b126000830185611a5d565b611b1f60208301846119bf565b9392505050565b600082825260208201905092915050565b6000611b4282611b55565b9050919050565b60008115159050919050565b600073ffffffffffffffffffffffffffffffffffffffff82169050919050565b6000819050919050565b611b8881611b37565b8114611b9357600080fd5b50565b611b9f81611b75565b8114611baa57600080fd5b5056fea365627a7a72315820f7cee68e1e6589a70da0431ff8f91ef098515ccfff94d2fbdea6984ef38f3adf6c6578706572696d656e74616cf564736f6c634300050c0040",
  "source": "\npragma solidity 0.5.12;\n\n\nimport \"openzeppelin-solidity/contracts/token/ERC20/IERC20.sol\";\nimport \"./PQ1_Heap_Dynamic_Array.sol\";\nimport \"./PQ2_Heap_Static_Array.sol\";\nimport \"./PQ3_Heap_Mapping.sol\";\nimport \"./PQ4_Linkedlist.sol\";\nimport \"./PQ5_Linkedlist_Mapping.sol\";\n\n\nimport \"solidity-util/lib/Strings.sol\";\nimport \"solidity-util/lib/Integers.sol\";\n\n\n\n\n\ncontract Call_Market{\n\n\n    PQ1_Heap_Dynamic_Array public PQ = new PQ1_Heap_Dynamic_Array();\n    //PQ2_Heap_Static_Array public PQ = new PQ2_Heap_Static_Array(84);\n    //PQ3_Heap_Mapping public PQ = new PQ3_Heap_Mapping();\n    //we pass the address of the callmarket to the linkedlist so that the selfdestruct could send Ethers back to the callmarket\n    //PQ4_Linkedlist public PQ = new PQ4_Linkedlist(address(this));\n    //PQ5_Linkedlist_Mapping public PQ = new PQ5_Linkedlist_Mapping(); \n    //Mapping public MP = new Mapping(address(this));\n    address payable public callmarket = address(uint160(address(this)));\n    \n\n    \n\n\n//****************************************************//\n//********String Converaion and Contcatenation********//\n//****************************************************//\n\n//***********************************************************************//\n\n// @dev Converts string to uint\n\n    function str2uint (string memory s) internal pure returns (uint) {\n        bytes memory b = bytes(s);\n        uint i;\n        uint result = 0;\n        uint j = b.length;\n        for (i = 0; i < j; i++) {\n            uint c = uint(uint8(b[i]));\n            if (c >= 48 && c <= 57) {\n                result = result * 10 + (c - 48);\n            }\n        }\n\n        return result;\n    }\n//***********************************************************************//\n\n// @dev Convert\n    function uint2str(uint _i) internal pure returns (string memory _uintAsString) {\n        if (_i == 0) {\n            return \"0\";\n        }\n        uint j = _i;\n        uint len;\n        while (j != 0) {\n            len++;\n            j /= 10;\n        }\n        bytes memory bstr = new bytes(len);\n        uint k = len - 1;\n        while (_i != 0) {\n            bstr[k--] = byte(uint8(48 + _i % 10));\n            _i /= 10;\n        }\n        return string(bstr);\n    }\n//****************  contcat() function ***************************//    \n    function contcat(string memory a, string memory b) internal pure returns (string memory) {\n\n        return string (abi.encodePacked( a , b));\n    }\n\n//****************************************************//\n//****************************************************//\n//****************************************************//\n    uint256 public countervariable;\n    enum States {Opened, Closed, Settled} \n    States internal state;\n    uint256 public CreationTime;\n    uint256 public biddingPeriod;\n    uint256 public NumOrders;        //Number of all the orders within the auction\n    uint256 public BuyListCounter;   //the counter for BuyList which sorts the orders decrementallyincrementally\n    uint256 public SellListCounter;  //the counter for SellList which sorts the orders incrementally\n    uint public ethbalancecounter;\n    uint public tokenbalancecounter;\n    mapping(address => uint256) internal refunds;\n\n//**********************************************//\n//*********Escrow Variables and Functions*******//\n//**********************************************//\n    mapping(address => uint256) public TotalTokenBalance;\n    mapping(address => uint256) public UnavailableTokenBalance;\n    address[] public UnavailableTokenArray;\n    mapping(address => uint256) public TotalEtherBalance;\n    mapping(address => uint256) public UnavailableEtherBalance;\n    address[] public UnavailableEtherArray;\n\n//**********************************************//\n//***************Function Modifiers*************//\n//**********************************************//\n    //Checks if the auction should be closed or not.\n    modifier CheckAuctionStage () {\n        if (now >= CreationTime + biddingPeriod || NumOrders == 1000) \n        {\n            CloseMarket();\n        }\n        _;\n    }\n//**********************************************// \n    //Checks wether the auction is at state_1 or not \n    modifier AuctionAtStage (States state_1 ) { \n        require (state == state_1); \n        _;\n    }\n//**************DepositToken() Function*********************//   \n    //The token holder must first approve the amount to the exchange contract by calling the approve() from the ERC20 token contract\n    function DepositToken(address _token, uint256 _numofTokens) public returns (bool) {\n        \n        require(IERC20(_token).transferFrom(msg.sender, address(this), _numofTokens));\n        TotalTokenBalance[msg.sender] += _numofTokens;\n        \n        return true;\n    \n    }\n//**************DepositEther() Function*********************//    \n    function DepositEther(uint256 _numofEthers) public payable returns (bool) {\n        TotalEtherBalance[msg.sender] += _numofEthers;\n        \n        return true;\n    }\n//******************** OpenMarket function ********************//\n    //To open a market(auction) on an specific token, user has to call OpenMarket() function and pass the address of ERC20 token to it\n    function OpenMarket() public  returns (bool) {\n\n        CreationTime = now; \n        biddingPeriod = 10 minutes;\n        state = States.Opened;\n        NumOrders = 0;\n        SellListCounter = 100;\n        BuyListCounter = 999;\n        return true;\n\n    }\n//******************** submitBid() function ********************//\n    //submitBid function calls the maxheap_insert function    \n    //The Bidder must first deposit enough Ether in the exachange (DepositEther())\n    function submitBid (uint256 _price, uint256 _volume) public AuctionAtStage (States.Opened) returns (bool)\n    {\n        require ((TotalEtherBalance[msg.sender] - UnavailableEtherBalance[msg.sender]) >= _volume * _price );\n        //require ((TotalEtherBalance[msg.sender] - MP.readEther(msg.sender)) >= _volume * _price );\n        uint256 _finalpriceUint;\n        string memory _finalpriceString;\n        _finalpriceString = contcat ( uint2str(_price), uint2str (BuyListCounter));\n        //_finalpriceUint = str2uint (_finalpriceString);\n        \n        Integers.parseInt(\"_finalpriceString\");\n        \n        if (PQ.InsertBid(msg.sender, _price, _volume, _finalpriceUint))\n        {\n            NumOrders++;\n            BuyListCounter--;\n            UnavailableEtherBalance[msg.sender] += _volume * _price;\n            //MP.addEther(msg.sender, _price, _volume);\n            //UnavailableEtherArray.push(msg.sender);\n        }\n        return true;\n    }\n//******************** submitask() function ********************//\n    //submitAsk function calls the minheap_insert function\n    //The Bidder must first deposit enough Token in the exachange (DepositToken())\n    function submitAsk (uint256 _price, uint256 _volume ) public AuctionAtStage (States.Opened) returns (bool)\n    {\n        require((TotalTokenBalance[msg.sender] - UnavailableTokenBalance[msg.sender]) >= _volume);\n        //require((TotalTokenBalance[msg.sender] - MP.readToken(msg.sender)) >= _volume);\n        uint256 _finalpriceUint;\n        string memory _finalpriceString;\n        _finalpriceString = contcat ( uint2str(_price), uint2str (SellListCounter));\n        _finalpriceUint = str2uint (_finalpriceString);\n        \n    \n        if (PQ.InsertAsk(msg.sender, _price, _volume,_finalpriceUint))\n        {   \n            NumOrders++;\n            SellListCounter++;\n            UnavailableTokenBalance[msg.sender] += _volume;\n            //MP.addToken(msg.sender, _volume);\n            //UnavailableTokenArray.push(msg.sender);\n        }\n    return true;\n\n    }\n//******************** CloseMarket() function ********************//\n    function CloseMarket() public returns (bool)\n    {\n        state = States.Closed;\n        return true;\n    }\n\n//******************** MatchOrders() function ********************//\n    function MatchOrders() public AuctionAtStage(States.Closed) returns (bool){\n       \n        (uint256 BBPrice, address BBSender) = PQ.BuyListMaxDelete();\n        (uint256 BAPrice, address BASender) = PQ.SellListMaxDelete();\n        while (BBPrice >= BAPrice)\n        \n        {  \n            countervariable++;\n            TotalTokenBalance[BBSender] += 1;\n            TotalEtherBalance[BASender] += BAPrice;\n         \n            if (PQ.BuyListisEmpty() || PQ.SellListisEmpty()) \n            {\n                //PQ.deletePQ(callmarket); //For testing PQ5: instead of deleting the napping element, we can just kill the contract\n                break;\n            }\n\n            (BBPrice,BBSender) = PQ.BuyListMaxDelete();\n            (BAPrice,BASender) = PQ.SellListMaxDelete();\n        }\n        \n        //uint refund = refunds[block.coinbase]; \n        //refunds[block.coinbase] = 0; \n        //block.coinbase.transfer(refund);\n        //refunds[block.coinbase] += PQ.BuyListMaxPrice() - PQ.SellListMaxPrice();\n        // for (uint i =0 ; i< UnavailableTokenArray.length; i++) \n        // {   \n        //     delete UnavailableTokenBalance[UnavailableTokenArray[i]];\n        // }\n        \n        // for (uint j=0 ; j< UnavailableEtherArray.length; j++) \n        // {   \n        //     delete UnavailableEtherBalance[UnavailableEtherArray[j]];\n        // }\n             \n        //  while (PQ.BuyListMaxPrice() >= PQ.SellListMaxPrice())\n        // {   \n        //     countervariable++;\n            \n        //     TotalTokenBalance[PQ.BuyListMaxSender()] += 1;\n        //     TotalEtherBalance[PQ.SellListMaxSender()] += PQ.SellListMaxPrice();\n        //     //refunds[block.coinbase] += PQ.BuyListMaxPrice() - PQ.SellListMaxPrice();\n    \n        //     PQ.SellListMaxDelete();\n        //     PQ.BuyListMaxDelete();\n            \n        //     if (PQ.BuyListisEmpty() == true || PQ.SellListisEmpty() == true) {break;}\n            \n\n        // }    \n        \n        state = States.Settled;\n        return true;\n\n        \n    }    \n//******************** claimTokens() & claimEther() ********************//\n    //traders can claim their tokens or ethers uisng the following two functions\n    function claimTokens (address _token, uint256 _numofTokens ) public returns (bool)\n    {\n        require ((TotalTokenBalance[msg.sender] - UnavailableTokenBalance[msg.sender]) > _numofTokens);\n        uint256 tokensToBeClaimed = _numofTokens ;\n        TotalTokenBalance[msg.sender] -= tokensToBeClaimed;\n        IERC20(_token).transfer(msg.sender, tokensToBeClaimed);\n        return true;\n    }\n//******************************************************//      \n    function claimEther (uint256 _numofEthers) public returns (bool)\n    {\n        require ((TotalEtherBalance[msg.sender] - UnavailableEtherBalance[msg.sender]) > _numofEthers);\n        uint256 EthersToBeClaimed = _numofEthers ;\n        TotalEtherBalance[msg.sender] -= EthersToBeClaimed;\n        msg.sender.transfer(EthersToBeClaimed);\n        return true;\n    }    \n    \n                                                                                                                                                                                   \n}                                                                                                                                                                                                                                                                                                                                                                                                                                                                                                                                                                                                                                                                                                                                                                                                                                                                                                                                                                                                                                                                                                                                                                                                                                                                                                                                                                                                                                                                                                                                                                                                                                                                                                                                                                                                                                                                                                                                                                                                                                                                                                                                                                                                                                                                                                                                                                                                                                                                                                                                                                                                                                                                                                                                                                                                                                                                                                                                                                                                                                                                                                                                                                                                                                                                                                                                                                                                                                                                                                                                                                                                                                                                                                                                                                                                                                                                                                                                                                                                                                                                                                                                                                                                                                                                                                                                                                                                                                                                                                                                                                                                                                                                                                                                                                                                                                                                                                                                                                                                                                                                                                                                                                                                                                                                                                                                                                                                                                                                                                                                                                                                                                                                                                                                                                                                                                                                                                                                                                                                                                                                                                                                                                                                                                                                                                                                                                                                                                                                                                                                                                                                                                                                                                                                                                                                                                                                                                                                                                                                                                                                                                                                                                                                                                                                                                                                                                                                                                                                                                                                                                                                                                                                                                                                                                                                                                                                                                                                                                                                                                                                                                                                                                                                                                                                                                                                                                                                                                                                                                                                                                                                                                                                                                                                                                                                                                                                                                                                                                                                                                                                                                                                                                                                                                                                                                                                                                                                                                                                                                                                                                                                                                                                                                                                                                                                                                                                                                                                                                                                                                                                                                                                                                                                                                                                                                                                                                                                                                                                                                                                                                                                                                                                                                                                                                                                                                                                                                                                                                                                                                                                                                                                                                                                                                                                                                                                                                                                                                                                                                                                                                                                                                                                                                                                                                                                                                                                                                                                                                                                                                                                                                                                                                                                                                                                                                                                                                                                                                                                                                                                                                                                                                                                                                                                                                                                                                                                                                                                                                                                                                                                                                                                                                                                                                                                                                                                                                                                                                                                                                                                                                                                                                                                                                                                                                                                                                                                                                                                                                                                                                                                                                                                                                                                                                                                                                                                                                                                                                                                                                                                                                                                                                                                                                                                                                                                                                                                                                                                                                                                                                                                                                                                                                                                                                                                                                                                                                                                                                                                                                                                                                                                                                                                                                                                                                                                                                                                                                                                                                                                                                                                                                                                                                                                                                                                                                                                                                                                                                                                                                                                                                                                                                                                                                                                                                                                                                                                                                                                                                                                                                                                                                                                                                                                                                                                                                                                                                                                                                                                                                                                                                                                                                                                                                                                                                                                                                                                                                                                                                                                                                                                                                                                                                                                                                                                                                                                                                                                                                                                                                                                                                                                                                                                                                                                                                                                                                                                                                                                                                                                                                                                                                                                                                                                                                                                                                                                                                                                                                                                                                                                                                                                                                                                                                                                                                                                                                                                                                                                                                                                                                                                                                                                                                                                                                                                                                                                                                                                                                                                                                                                                                                                                                                                                                                                                                                                                                                                                                                                                                                                                                                                                                                                                                                                                                                                                                                                                                                                                                                                                                                                                                                                                                                                                                                                                                                                                                                                                                                                                                                                                                                                                                                                                                                                                                                                                                                                                                                                                                                                                                                                                                                                                                                                                                                                                                                                                                                                                                                                                                                                                                                                                                                                                                                                                                                                                                                                                                                                                                                                                                                                                                                                                                                                                                                                                                                                                                                                                                                                                                                                                                                                     \n",
  "sourcePath": "/home/mahsa/ProjectRepo/2020-Orderbook/Code/New-Truffle/contracts/CallMarket/Priority_Queues/Call_Market.sol",
  "compiler": {
    "name": "solc",
    "version": "0.5.12+commit.7709ece9.Emscripten.clang"
  },
  "schemaVersion": "3.0.2",
  "updatedAt": "2020-09-10T15:47:54.153Z",
  "devdoc": {
    "methods": {}
  },
  "userdoc": {
    "methods": {}
  }
}