{
  "contractName": "Heap_Dynamic_Array",
  "abi": [
    {
      "constant": false,
      "inputs": [
        {
          "internalType": "uint256",
          "name": "_price",
          "type": "uint256"
        },
        {
          "internalType": "uint256",
          "name": "_volume",
          "type": "uint256"
        }
      ],
      "name": "submitorder",
      "outputs": [
        {
          "internalType": "bool",
          "name": "",
          "type": "bool"
        }
      ],
      "payable": false,
      "stateMutability": "nonpayable",
      "type": "function"
    },
    {
      "constant": false,
      "inputs": [],
      "name": "MaxHeapPeak",
      "outputs": [
        {
          "components": [
            {
              "internalType": "address",
              "name": "Sender",
              "type": "address"
            },
            {
              "internalType": "uint256",
              "name": "Price",
              "type": "uint256"
            },
            {
              "internalType": "uint256",
              "name": "Volume",
              "type": "uint256"
            }
          ],
          "internalType": "struct Heap_Dynamic_Array.OrderStruct",
          "name": "",
          "type": "tuple"
        }
      ],
      "payable": false,
      "stateMutability": "nonpayable",
      "type": "function"
    },
    {
      "constant": false,
      "inputs": [],
      "name": "MaxHeapDelete",
      "outputs": [
        {
          "components": [
            {
              "internalType": "address",
              "name": "Sender",
              "type": "address"
            },
            {
              "internalType": "uint256",
              "name": "Price",
              "type": "uint256"
            },
            {
              "internalType": "uint256",
              "name": "Volume",
              "type": "uint256"
            }
          ],
          "internalType": "struct Heap_Dynamic_Array.OrderStruct",
          "name": "",
          "type": "tuple"
        }
      ],
      "payable": false,
      "stateMutability": "nonpayable",
      "type": "function"
    }
  ],
  "bytecode": "0x608060405234801561001057600080fd5b50610c0c806100206000396000f3fe608060405234801561001057600080fd5b50600436106100415760003560e01c80633fcc1bf71461004657806350c2316814610076578063898eed8f14610094575b600080fd5b610060600480360361005b9190810190610a89565b6100b2565b60405161006d9190610b34565b60405180910390f35b61007e6100ca565b60405161008b9190610b4f565b60405180910390f35b61009c6103b2565b6040516100a99190610b4f565b60405180910390f35b60006100bf33848461044f565b506001905092915050565b6100d2610a3d565b6000808054905014156100e457600080fd5b600160008054905014156101f0576100fa610a3d565b6000808154811061010757fe5b90600052602060002090600302016040518060600160405290816000820160009054906101000a900473ffffffffffffffffffffffffffffffffffffffff1673ffffffffffffffffffffffffffffffffffffffff1673ffffffffffffffffffffffffffffffffffffffff168152602001600182015481526020016002820154815250509050600080548061019757fe5b6001900381819060005260206000209060030201600080820160006101000a81549073ffffffffffffffffffffffffffffffffffffffff02191690556001820160009055600282016000905550509055809150506103af565b6101f8610a3d565b6000808154811061020557fe5b90600052602060002090600302016040518060600160405290816000820160009054906101000a900473ffffffffffffffffffffffffffffffffffffffff1673ffffffffffffffffffffffffffffffffffffffff1673ffffffffffffffffffffffffffffffffffffffff16815260200160018201548152602001600282015481525050905060006001600080549050038154811061029f57fe5b9060005260206000209060030201600080815481106102ba57fe5b90600052602060002090600302016000820160009054906101000a900473ffffffffffffffffffffffffffffffffffffffff168160000160006101000a81548173ffffffffffffffffffffffffffffffffffffffff021916908373ffffffffffffffffffffffffffffffffffffffff1602179055506001820154816001015560028201548160020155905050600080548061035157fe5b6001900381819060005260206000209060030201600080820160006101000a81549073ffffffffffffffffffffffffffffffffffffffff021916905560018201600090556002820160009055505090556103a961052d565b50809150505b90565b6103ba610a3d565b600080815481106103c757fe5b90600052602060002090600302016040518060600160405290816000820160009054906101000a900473ffffffffffffffffffffffffffffffffffffffff1673ffffffffffffffffffffffffffffffffffffffff1673ffffffffffffffffffffffffffffffffffffffff16815260200160018201548152602001600282015481525050905090565b6000610459610a3d565b60405180606001604052808673ffffffffffffffffffffffffffffffffffffffff1681526020018581526020018481525090506000819080600181540180825580915050906001820390600052602060002090600302016000909192909190915060008201518160000160006101000a81548173ffffffffffffffffffffffffffffffffffffffff021916908373ffffffffffffffffffffffffffffffffffffffff16021790555060208201518160010155604082015181600201555050506105206107ea565b5060019150509392505050565b6000806000905060006001826002020190505b6000805490508110156107e157600081905060006001830190506000805490508110156105b5576000838154811061057457fe5b9060005260206000209060030201600101546000828154811061059357fe5b90600052602060002090600302016001015411156105b45781806001019250505b5b600082815481106105c257fe5b906000526020600020906003020160010154600085815481106105e157fe5b90600052602060002090600302016001015410156107d357610601610a3d565b6000858154811061060e57fe5b90600052602060002090600302016040518060600160405290816000820160009054906101000a900473ffffffffffffffffffffffffffffffffffffffff1673ffffffffffffffffffffffffffffffffffffffff1673ffffffffffffffffffffffffffffffffffffffff168152602001600182015481526020016002820154815250509050600083815481106106a057fe5b9060005260206000209060030201600086815481106106bb57fe5b90600052602060002090600302016000820160009054906101000a900473ffffffffffffffffffffffffffffffffffffffff168160000160006101000a81548173ffffffffffffffffffffffffffffffffffffffff021916908373ffffffffffffffffffffffffffffffffffffffff1602179055506001820154816001015560028201548160020155905050806000848154811061075557fe5b906000526020600020906003020160008201518160000160006101000a81548173ffffffffffffffffffffffffffffffffffffffff021916908373ffffffffffffffffffffffffffffffffffffffff1602179055506020820151816001015560408201518160020155905050829450600185600202019350506107da565b50506107e1565b5050610540565b60019250505090565b60008060016000805490500390505b6000811115610a355760006002600183038161081157fe5b0490506000818154811061082157fe5b9060005260206000209060030201600101546000838154811061084057fe5b9060005260206000209060030201600101541115610a2957610860610a3d565b6000838154811061086d57fe5b90600052602060002090600302016040518060600160405290816000820160009054906101000a900473ffffffffffffffffffffffffffffffffffffffff1673ffffffffffffffffffffffffffffffffffffffff1673ffffffffffffffffffffffffffffffffffffffff168152602001600182015481526020016002820154815250509050600082815481106108ff57fe5b90600052602060002090600302016000848154811061091a57fe5b90600052602060002090600302016000820160009054906101000a900473ffffffffffffffffffffffffffffffffffffffff168160000160006101000a81548173ffffffffffffffffffffffffffffffffffffffff021916908373ffffffffffffffffffffffffffffffffffffffff160217905550600182015481600101556002820154816002015590505080600083815481106109b457fe5b906000526020600020906003020160008201518160000160006101000a81548173ffffffffffffffffffffffffffffffffffffffff021916908373ffffffffffffffffffffffffffffffffffffffff160217905550602082015181600101556040820151816002015590505081925050610a2f565b50610a35565b506107f9565b600191505090565b6040518060600160405280600073ffffffffffffffffffffffffffffffffffffffff16815260200160008152602001600081525090565b600081359050610a8381610bb2565b92915050565b60008060408385031215610a9c57600080fd5b6000610aaa85828601610a74565b9250506020610abb85828601610a74565b9150509250929050565b610ace81610b6a565b82525050565b610add81610b7c565b82525050565b606082016000820151610af96000850182610ac5565b506020820151610b0c6020850182610b25565b506040820151610b1f6040850182610b25565b50505050565b610b2e81610ba8565b82525050565b6000602082019050610b496000830184610ad4565b92915050565b6000606082019050610b646000830184610ae3565b92915050565b6000610b7582610b88565b9050919050565b60008115159050919050565b600073ffffffffffffffffffffffffffffffffffffffff82169050919050565b6000819050919050565b610bbb81610ba8565b8114610bc657600080fd5b5056fea365627a7a72315820bd0998080208079ff2d6afbc35e055f0d427be7affe13ed4eb71779dd90f57f66c6578706572696d656e74616cf564736f6c634300050c0040",
  "source": "pragma solidity >=0.4.22;\npragma experimental ABIEncoderV2;\n\n\n\n\n//This file is only used for storing N order struct, sorting, and removing them\n//Order structs are stored in a heap with dynamic array\ncontract Heap_Dynamic_Array{ //previously: Orderbook_V22.sol\n\n//**************** OrderStruct ***************************//\n//Every order has some attributes:\n    struct OrderStruct \n    {\n        address Sender;\n        uint256 Price;\n        uint256 Volume;     //The volume is 1 for now\n        \n    }\n//****************************************************//\n\n    OrderStruct[] MaxHeap;  //The array that contains Bid OrderStructs (descending (decremental)), we always want the highest bid (maxheap)\n    \n//****************************************************//\n    function submitorder (uint256 _price, uint256 _volume) public returns (bool)\n    {\n        maxheap_insert(msg.sender, _price, _volume); \n        return true;\n    }\n//****************************************************//\n\n//*****************************************************************//\n//*******************  maxheap Functions (BuyList) ****************//\n//*****************************************************************//\n\n\n//*******************  maxheap_insert () ***************************//\n    //the new item will be added to the end of the array list (a buy order is submitted)\n    //then heapified up with a call to heapifyUp method\n    function maxheap_insert (address _sender, uint256 _price, uint256 _volume) internal returns (bool)\n    {\n        \n        OrderStruct memory neworder = OrderStruct(_sender, _price , _volume);\n        MaxHeap.push(neworder);\n        maxheap_heapifyUp ();\n        return true;\n    }    \n//*******************  maxheap_heapifyUp () ***************************//\n    //this function is called everytime we insert a new element to the end of the array (aka a new Buy order is submitted) and\n    //now the heap has to be sorted again\n    function maxheap_heapifyUp () internal returns (bool) {\n    \n        uint256 k = MaxHeap.length - 1;                   //k is set to be the last entry of the array (also heap) which is the element that's just added and has to be moved up\n        while (k > 0){                                  //while we havent reached to the top of the heap\n            uint256 p = (k-1)/2;                           //we need to compute the parent of this last element which is p = (k-1)/2\n            if (MaxHeap[k].Price > MaxHeap[p].Price) //if the element is greater than its parent\n            {   //\"!SYNTAX!\"\n                //Orderbook_V9.swap(SellList, k, p);              //swap the element at index k with its parent\n                OrderStruct memory temp = MaxHeap[k];    //\"!SYNTAX!\"//swap the element at index k with its parent\n                MaxHeap[k] = MaxHeap[p];\n                MaxHeap[p] = temp;\n                k = p;                                  //k moves up one level\n            }\n            else {break;}                               //if not the break statement exits the loop (it continues until no element index k is not greater than its parent)\n        }\n        return true;\n    }\n//*******************  maxheap_heapifyDown () ***************************//\n    //when we want to remove an element from the heap we remove the root of the heap and add the last item\n    //to the root and reorder the heap again\n    function maxheap_heapifyDown () internal returns (bool)\n    {\n        uint256 k =0;\n        uint256 leftchild = 2*k + 1;\n        while (leftchild < MaxHeap.length)\n        {                                   //as long as the left child is within the array that heap is stored in\n            uint max = leftchild;\n            uint rightchild = leftchild + 1;                                     //rightchild = 2k+2\n\n            if (rightchild < MaxHeap.length)                                       //if there is a rightchild\n            {\n                if (MaxHeap[rightchild].Price > MaxHeap[leftchild].Price)    //then the right child and left child are compared\n                {\n                    max++;                                                       //now max is set to rightchild, otherwise max remains to be the leftchild\n                }\n            }\n\n        if (MaxHeap[k].Price < MaxHeap[max].Price)                        //compares the k item with the max item and if k is smaller than its greatest children they are swapped\n        {\n            //swap k with its greatest children (max)\n            //\"!SYNTAX!\"\n            //Orderbook_V9.swap (SellList, k, max);\n            OrderStruct memory temp = MaxHeap[k];    //\"!SYNTAX!\"//swap the element at index k with its parent\n            MaxHeap[k] = MaxHeap[max];\n            MaxHeap[max] = temp;\n            k = max;                                                         //k is set to max\n            leftchild =2*k + 1;                                              //l is recompuetd in preparation for the next iteration\n        }\n        else{                                                               //if the k item is not smaller than the max item, heapifyDown should stop\n            break;\n            }\n        }\n        return true;\n    }\n    \n//****************   MaxHeaptPeak()  *********************//\n    //MaxHeappeak function returns the highest priority element (The highest bid)\n    function MaxHeapPeak() public  returns (OrderStruct memory){\n        //require (BuyList.length != 0); //throws exception if the maxheap (BuyList) is empty\n        return (MaxHeap[0]);\n        //return (BuyList[0].Sender, BuyList[0].Price, BuyList[0].AuxPrice, BuyList[0].Volume );\n    }\n    \n//*******************  maxheap_delete () ***************************//\n    //the highest priority item will be removed from the list and is returned by the function\n    //then the heap is reordered uising the heapifyDown method\n    function MaxHeapDelete () public returns (OrderStruct memory) \n    {\n        if (MaxHeap.length == 0) { revert(); }                             //the delete function throws exception if the heap is empty\n        if (MaxHeap.length == 1) {                                      //if the heap has only one items\n                     \n            OrderStruct memory result =  MaxHeap[0];\n            \n            MaxHeap.pop();                                                 //the only element of the heap is removed and returned \n            return result;     \n       \n        }\n\n        //if neither of these conditions are true, then there are at least 2 items in the heap and deletion proceeds\n        OrderStruct memory result =  MaxHeap[0];\n        MaxHeap[0] = MaxHeap[MaxHeap.length -1]; //the last elementof the heap is removed and written into the first position\n        MaxHeap.pop();\n        maxheap_heapifyDown(); //now the siftdown is called\n        return result;\n    }\n    \n   \n    \n}   \n    \n    \n    \n    \n    \n    \n    \n    \n    \n    \n    \n    \n    ",
  "sourcePath": "/home/mahsa/ProjectRepo/2020-Orderbook/Code/New-Truffle/contracts/CallMarket/DS_Performance_Tests/Heap_Dynamic_Array.sol",
  "compiler": {
    "name": "solc",
    "version": "0.5.12+commit.7709ece9.Emscripten.clang"
  },
  "schemaVersion": "3.2.0",
  "updatedAt": "2020-06-10T20:06:50.468Z",
  "networkType": "ethereum",
  "devdoc": {
    "methods": {}
  },
  "userdoc": {
    "methods": {}
  }
}