{
  "contractName": "Item",
  "abi": [
    {
      "inputs": [
        {
          "internalType": "uint256",
          "name": "_data",
          "type": "uint256"
        }
      ],
      "payable": false,
      "stateMutability": "nonpayable",
      "type": "constructor"
    },
    {
      "constant": true,
      "inputs": [],
      "name": "data",
      "outputs": [
        {
          "internalType": "uint256",
          "name": "",
          "type": "uint256"
        }
      ],
      "payable": false,
      "stateMutability": "view",
      "type": "function"
    },
    {
      "constant": true,
      "inputs": [],
      "name": "next",
      "outputs": [
        {
          "internalType": "contract Item",
          "name": "",
          "type": "address"
        }
      ],
      "payable": false,
      "stateMutability": "view",
      "type": "function"
    },
    {
      "constant": false,
      "inputs": [
        {
          "internalType": "contract Item",
          "name": "item",
          "type": "address"
        }
      ],
      "name": "addNew",
      "outputs": [],
      "payable": false,
      "stateMutability": "nonpayable",
      "type": "function"
    },
    {
      "constant": false,
      "inputs": [
        {
          "internalType": "uint256",
          "name": "_data",
          "type": "uint256"
        }
      ],
      "name": "replacedata",
      "outputs": [],
      "payable": false,
      "stateMutability": "nonpayable",
      "type": "function"
    },
    {
      "constant": false,
      "inputs": [],
      "name": "print",
      "outputs": [
        {
          "internalType": "uint256",
          "name": "",
          "type": "uint256"
        }
      ],
      "payable": false,
      "stateMutability": "nonpayable",
      "type": "function"
    }
  ],
  "bytecode": "0x608060405234801561001057600080fd5b506040516102a73803806102a78339818101604052602081101561003357600080fd5b81019080805190602001909291905050508060018190555060008060006101000a81548173ffffffffffffffffffffffffffffffffffffffff021916908373ffffffffffffffffffffffffffffffffffffffff1602179055505061020b8061009c6000396000f3fe608060405234801561001057600080fd5b50600436106100575760003560e01c806313bdfacd1461005c5780634c8fe5261461007a57806373d4a13a146100c457806385d46bf1146100e2578063d7ef453f14610110575b600080fd5b610064610154565b6040518082815260200191505060405180910390f35b61008261015e565b604051808273ffffffffffffffffffffffffffffffffffffffff1673ffffffffffffffffffffffffffffffffffffffff16815260200191505060405180910390f35b6100cc610183565b6040518082815260200191505060405180910390f35b61010e600480360360208110156100f857600080fd5b8101908080359060200190929190505050610189565b005b6101526004803603602081101561012657600080fd5b81019080803573ffffffffffffffffffffffffffffffffffffffff169060200190929190505050610193565b005b6000600154905090565b6000809054906101000a900473ffffffffffffffffffffffffffffffffffffffff1681565b60015481565b8060018190555050565b806000806101000a81548173ffffffffffffffffffffffffffffffffffffffff021916908373ffffffffffffffffffffffffffffffffffffffff1602179055505056fea265627a7a72315820e716d3b74c15d3c828be5e4f9e08bf480ffb4c9f16f09ad200339201ab20368364736f6c634300050c0032",
  "source": "pragma solidity >=0.4.22;\n\n\ncontract Sorted_linkedlist_V3{\n    Item public first;\n    event LogItems(address item, uint data);\n    \n    constructor() public {\n        first = Item(0);\n        \n \n    }\n\n    function isEmpty() public returns (bool){ //returns true if the list is empty\n        \n        return (first == Item(0));\n    }\n\n    bool public value;\n    function contains(uint _key) public returns (bool success)  //returns true if the key is in the list\n    { \n        Item current = first;\n        while (current.data() != _key)\n        {\n            if (current.next() == Item(0))\n            {\n                return value = false; //we reach the end of the list and we dont find the _key, so we return false\n                \n            }\n            else \n            {\n                current = current.next();\n            }\n        }\n        return value = true;\n        \n    }\n    \n    \n    function remove(uint _key) public returns (Item)  \n    { \n        Item current = first;\n        Item previous = Item(0);\n        while (current.data() != _key)\n        {\n            if (current.next() == Item(0))\n            {\n                return Item(0); //we have not found the element so we return null\n            }\n            \n            else \n            {   previous = current;\n                current = current.next();\n            }\n        }\n        //we exit the while loop while we find the key\n        //now if have to check if the node we want to delete is the first node\n        if (current == first)\n        {   \n            first = first.next();\n            \n        }\n        else\n        {\n            previous.addNew(current.next());\n        }\n        return current;\n        \n    }\n\n    function insert(uint _key) public \n    {\n        Item newitem = new Item (_key);\n        Item current = first; \n        Item previous = Item(0);\n        \n        //we iterate through our list with 2 conditions:\n        while (current != Item(0) && _key > current.data()) //The linkedlist is sorted in an ascending order (increasing)\n        {\n            previous = current;\n            current = current.next();\n            // we only exit this loop if we find the position to insert our data;\n        } \n        //now if we have to check if we have to insert the node to the begining of the list:\n        if (previous == Item(0)) //it means the current is equal to first and in that case we have to insert the node as a new head\n        {\n            first = newitem; \n        }\n        else //the node next to the privious is no longer the current but it's our new node\n        {\n            previous.addNew(newitem);\n        }\n        \n        //and in all cases regardless of if it's a first node or not, we must say we have to say the node next to our new node is current\n        \n        newitem.addNew(current);\n    }            \n    \n    address[]  public itemlist;\n    uint[] public itemdata;\n    function displaylist() public \n    {  \n            \n        \n\n        Item current = first;\n        while (current != Item(0)) //while the list is not empty\n        {\n            \n            itemlist.push(address(current));\n            itemdata.push(current.data());\n            current = current.next();\n            \n            \n        }\n        for (uint i=0; i < itemlist.length; i++) \n        {\n            emit LogItems(itemlist[i], itemdata[i]);\n        }\n        //itemlist.length=0;\n        //itemdata.length=0;\n        delete itemlist;\n        delete itemdata;\n\n    }          \n        \n\n\n}        \n                \n    contract Item {\n    Item public next;\n    uint public data;\n    \n\n    constructor(uint _data) public {\n        \n        data = _data;\n        next = Item(0);\n    }\n\n    function addNew(Item item) public {\n        \n        next = item;\n       \n    }\n   \n    \n    function replacedata ( uint _data) public {\n        data = _data;\n        \n    }\n    \n\n    \n    function print () public returns (uint){\n        return data;\n        \n    }\n    \n    \n    \n    \n    \n    \n    \n    \n    \n    \n}\n        \n            \n        \n        \n        \n    \n\n\n            \n        \n\n        \n    \n    \n\n\n\n\n",
  "sourcePath": "/home/mahsa/ProjectRepo/2020-Orderbook/Code/New-Truffle/contracts/CallMarket/Linked List/Sorted_linkedlist_V3.sol",
  "compiler": {
    "name": "solc",
    "version": "0.5.12+commit.7709ece9.Emscripten.clang"
  },
  "schemaVersion": "3.2.0",
  "updatedAt": "2020-06-10T16:51:31.611Z",
  "devdoc": {
    "methods": {}
  },
  "userdoc": {
    "methods": {}
  }
}