{
  "contractName": "List",
  "abi": [
    {
      "inputs": [
        {
          "internalType": "uint256",
          "name": "_number",
          "type": "uint256"
        }
      ],
      "payable": false,
      "stateMutability": "nonpayable",
      "type": "constructor"
    },
    {
      "constant": true,
      "inputs": [],
      "name": "Number",
      "outputs": [
        {
          "internalType": "uint256",
          "name": "",
          "type": "uint256"
        }
      ],
      "payable": false,
      "stateMutability": "view",
      "type": "function"
    },
    {
      "constant": true,
      "inputs": [],
      "name": "next",
      "outputs": [
        {
          "internalType": "contract List",
          "name": "",
          "type": "address"
        }
      ],
      "payable": false,
      "stateMutability": "view",
      "type": "function"
    },
    {
      "constant": false,
      "inputs": [
        {
          "internalType": "contract List",
          "name": "_number",
          "type": "address"
        }
      ],
      "name": "addNew",
      "outputs": [],
      "payable": false,
      "stateMutability": "nonpayable",
      "type": "function"
    },
    {
      "constant": false,
      "inputs": [],
      "name": "deletenode",
      "outputs": [],
      "payable": false,
      "stateMutability": "nonpayable",
      "type": "function"
    }
  ],
  "bytecode": "0x608060405234801561001057600080fd5b5060405161025f38038061025f8339818101604052602081101561003357600080fd5b81019080805190602001909291905050508060018190555060008060006101000a81548173ffffffffffffffffffffffffffffffffffffffff021916908373ffffffffffffffffffffffffffffffffffffffff160217905550506101c38061009c6000396000f3fe608060405234801561001057600080fd5b506004361061004c5760003560e01c80634c8fe52614610051578063624de7251461009b578063d7ef453f146100b9578063fe81dc85146100fd575b600080fd5b610059610107565b604051808273ffffffffffffffffffffffffffffffffffffffff1673ffffffffffffffffffffffffffffffffffffffff16815260200191505060405180910390f35b6100a361012c565b6040518082815260200191505060405180910390f35b6100fb600480360360208110156100cf57600080fd5b81019080803573ffffffffffffffffffffffffffffffffffffffff169060200190929190505050610132565b005b610105610175565b005b6000809054906101000a900473ffffffffffffffffffffffffffffffffffffffff1681565b60015481565b806000806101000a81548173ffffffffffffffffffffffffffffffffffffffff021916908373ffffffffffffffffffffffffffffffffffffffff16021790555050565b4173ffffffffffffffffffffffffffffffffffffffff16fffea265627a7a72315820003b1ca136196903007906599723917ea593808fd953487d21cb60ea07d5c54664736f6c63430005100032",
  "source": "pragma solidity >=0.4.22;\n//pragma experimental ABIEncoderV2;\n\n//Linkedlist wrapped in a priority queue\n\ncontract PQ4{\n    \n    List public First;\n    List temp;\n    \n    constructor () public {\n        \n        First = List(0);\n    }\n//******************** Enqueue() function ********************//\n    //A new integer will be added in its right position in the list\n    function Enqueue(uint256 _number) public returns (bool)\n    {\n        List newitem = new List (_number);\n        List current = First; \n        List previous = List(0);\n        \n        //we iterate through our list with 2 conditions:\n        while (current != List(0) && _number <= current.Number()) //The linkedlist is sorted in an descending order (descreasing)\n        {\n            previous = current;\n            current = current.next();\n            // we only exit this loop if we find the position to insert our data;\n        } \n        //now if we have to check if we have to insert the node to the begining of the list:\n        if (previous == List(0)) //it means the current is equal to first and in that case we have to insert the node as a new head\n        {\n            First = newitem; \n        }\n        else //the node next to the privious is no longer the current but it's our new node\n        {\n            previous.addNew(newitem);\n        }\n        \n        //and in all cases regardless of if it's a first node or not, we must say we have to say the node next to our new node is current\n        \n        newitem.addNew(current);\n        return true;\n    }\n//******************** RemoveMax() function ********************//    \n    //the highest priority item will be removed from the list and is returned by the function\n    function RemoveMax() public returns(uint256) \n    {\n        require (First != List(0), 'List is empty!'); //throws exception if the maxheap (BuyList) is empty\n        temp = First;\n        First.deletenode();\n        First = temp.next();\n        return (temp.Number());\n    }\n//******************** Dequeue() function ********************//    \n    //Emptying the list by iterating over it and deleting the highest priority number in each round (similar to match funtion in the call market)\n    function Dequeue() public returns (uint256) \n    {\n        while (isEmpty() != true)\n        {  \n            RemoveMax();\n        }\n    }\n//****************   Peek()  *********************//\n    //Retrieves, but does not remove, the head of this queue\n    function Peek() public  returns (uint256){\n        \n        require (First != List(0), 'List is empty!'); //throws exception if the List is empty\n        return (First.Number());\n        \n    }\n//****************   isEmpty()  *********************//\n    //checks if the List is empty \n    function isEmpty() public returns (bool){\n        \n        if (First == List(0))\n        {\n            return true;\n\n        }\n        else\n        {\n            return false;\n        }\n        \n    }\n\n}\n//*****************************************************************//\n//*******************  List Contract  ************************//\n//*****************************************************************//    \n    \ncontract List {\n    List public next;\n    uint256 public Number;\n    \n    constructor(uint256 _number) public {\n        \n        Number = _number;\n        next = List(0);\n    }\n   \n    function addNew(List _number) public {\n        \n        next = _number;\n       \n    }\n    function deletenode () public {\n        selfdestruct(block.coinbase);\n    }\n} ",
  "sourcePath": "/home/mahsa/ProjectRepo/2020-Orderbook/Code/New-Truffle/contracts/PQs_for_Unit_Testings/PQ4.sol",
  "compiler": {
    "name": "solc",
    "version": "0.5.16+commit.9c3226ce.Emscripten.clang"
  },
  "schemaVersion": "3.2.5",
  "updatedAt": "2020-09-15T15:37:50.241Z",
  "devdoc": {
    "methods": {}
  },
  "userdoc": {
    "methods": {}
  }
}