{
  "contractName": "Mapping",
  "abi": [
    {
      "inputs": [
        {
          "internalType": "address",
          "name": "_callmarket",
          "type": "address"
        }
      ],
      "payable": false,
      "stateMutability": "nonpayable",
      "type": "constructor"
    },
    {
      "constant": true,
      "inputs": [
        {
          "internalType": "address",
          "name": "",
          "type": "address"
        }
      ],
      "name": "UnavailableEtherBalance",
      "outputs": [
        {
          "internalType": "uint256",
          "name": "",
          "type": "uint256"
        }
      ],
      "payable": false,
      "stateMutability": "view",
      "type": "function"
    },
    {
      "constant": true,
      "inputs": [
        {
          "internalType": "address",
          "name": "",
          "type": "address"
        }
      ],
      "name": "UnavailableTokenBalance",
      "outputs": [
        {
          "internalType": "uint256",
          "name": "",
          "type": "uint256"
        }
      ],
      "payable": false,
      "stateMutability": "view",
      "type": "function"
    },
    {
      "constant": false,
      "inputs": [],
      "name": "destroy",
      "outputs": [],
      "payable": false,
      "stateMutability": "nonpayable",
      "type": "function"
    },
    {
      "constant": false,
      "inputs": [
        {
          "internalType": "address",
          "name": "_sender",
          "type": "address"
        },
        {
          "internalType": "uint256",
          "name": "_volume",
          "type": "uint256"
        }
      ],
      "name": "addToken",
      "outputs": [],
      "payable": false,
      "stateMutability": "nonpayable",
      "type": "function"
    },
    {
      "constant": false,
      "inputs": [
        {
          "internalType": "address",
          "name": "_sender",
          "type": "address"
        },
        {
          "internalType": "uint256",
          "name": "_price",
          "type": "uint256"
        },
        {
          "internalType": "uint256",
          "name": "_volume",
          "type": "uint256"
        }
      ],
      "name": "addEther",
      "outputs": [],
      "payable": false,
      "stateMutability": "nonpayable",
      "type": "function"
    },
    {
      "constant": false,
      "inputs": [
        {
          "internalType": "address",
          "name": "_sender",
          "type": "address"
        }
      ],
      "name": "readToken",
      "outputs": [
        {
          "internalType": "uint256",
          "name": "",
          "type": "uint256"
        }
      ],
      "payable": false,
      "stateMutability": "nonpayable",
      "type": "function"
    },
    {
      "constant": false,
      "inputs": [
        {
          "internalType": "address",
          "name": "_sender",
          "type": "address"
        }
      ],
      "name": "readEther",
      "outputs": [
        {
          "internalType": "uint256",
          "name": "",
          "type": "uint256"
        }
      ],
      "payable": false,
      "stateMutability": "nonpayable",
      "type": "function"
    }
  ],
  "bytecode": "0x608060405234801561001057600080fd5b506040516105023803806105028339818101604052602081101561003357600080fd5b81019080805190602001909291905050506000819050806000806101000a81548173ffffffffffffffffffffffffffffffffffffffff021916908373ffffffffffffffffffffffffffffffffffffffff16021790555050506104688061009a6000396000f3fe608060405234801561001057600080fd5b506004361061007d5760003560e01c80636dd69acc1161005b5780636dd69acc1461018a57806383197ef0146101e25780638fddced8146101ec578063af81c5b9146102445761007d565b80630b03eeba1461008257806339a99334146100da57806357c5a7fb14610132575b600080fd5b6100c46004803603602081101561009857600080fd5b81019080803573ffffffffffffffffffffffffffffffffffffffff169060200190929190505050610292565b6040518082815260200191505060405180910390f35b61011c600480360360208110156100f057600080fd5b81019080803573ffffffffffffffffffffffffffffffffffffffff1690602001909291905050506102db565b6040518082815260200191505060405180910390f35b6101886004803603606081101561014857600080fd5b81019080803573ffffffffffffffffffffffffffffffffffffffff16906020019092919080359060200190929190803590602001909291905050506102f3565b005b6101cc600480360360208110156101a057600080fd5b81019080803573ffffffffffffffffffffffffffffffffffffffff169060200190929190505050610347565b6040518082815260200191505060405180910390f35b6101ea61035f565b005b61022e6004803603602081101561020257600080fd5b81019080803573ffffffffffffffffffffffffffffffffffffffff169060200190929190505050610399565b6040518082815260200191505060405180910390f35b6102906004803603604081101561025a57600080fd5b81019080803573ffffffffffffffffffffffffffffffffffffffff169060200190929190803590602001909291905050506103e2565b005b6000600260008373ffffffffffffffffffffffffffffffffffffffff1673ffffffffffffffffffffffffffffffffffffffff168152602001908152602001600020549050919050565b60026020528060005260406000206000915090505481565b818102600260008573ffffffffffffffffffffffffffffffffffffffff1673ffffffffffffffffffffffffffffffffffffffff16815260200190815260200160002060008282540192505081905550505050565b60016020528060005260406000206000915090505481565b6000809054906101000a900473ffffffffffffffffffffffffffffffffffffffff1673ffffffffffffffffffffffffffffffffffffffff16ff5b6000600160008373ffffffffffffffffffffffffffffffffffffffff1673ffffffffffffffffffffffffffffffffffffffff168152602001908152602001600020549050919050565b80600160008473ffffffffffffffffffffffffffffffffffffffff1673ffffffffffffffffffffffffffffffffffffffff16815260200190815260200160002060008282540192505081905550505056fea265627a7a7231582076b3c5172cbde2616d9aab3a29d87707254a60a5fe1aeb65caef1c18376cf36464736f6c634300050c0032",
  "source": "pragma solidity >=0.4.22;\n//import \"./Call_Market.sol\";\ncontract Mapping{\n    address payable addr;\n    constructor(address _callmarket) public {\n        address callmarket = address(address(_callmarket));\n        addr = address(uint160(callmarket));\n    }\n    \n    mapping(address => uint256) public UnavailableTokenBalance;\n    mapping(address => uint256) public UnavailableEtherBalance;\n    \n    \n    //address payable callmarket = address(uint160(address(Call_Market)));\n    function destroy() public{\n        selfdestruct(addr);\n    }\n    function addToken(address _sender, uint256 _volume) public{\n        UnavailableTokenBalance[_sender] += _volume;\n\n    }\n    function addEther(address _sender, uint256 _price, uint256 _volume) public{\n        UnavailableEtherBalance[_sender] += _volume * _price;\n\n    }\n    function readToken(address _sender) public returns (uint256){\n        return UnavailableTokenBalance[_sender];\n    }\n    function readEther(address _sender) public returns (uint256){\n        return UnavailableEtherBalance[_sender];\n    }\n}",
  "sourcePath": "/home/mahsa/ProjectRepo/2020-Orderbook/Code/New-Truffle/contracts/CallMarket/Priority_Queues/Mapping.sol",
  "compiler": {
    "name": "solc",
    "version": "0.5.12+commit.7709ece9.Emscripten.clang"
  },
  "schemaVersion": "3.0.2",
  "updatedAt": "2020-09-10T13:48:46.637Z",
  "devdoc": {
    "methods": {}
  },
  "userdoc": {
    "methods": {}
  }
}