{
  "contractName": "Orderbook_V11",
  "abi": [
    {
      "constant": true,
      "inputs": [
        {
          "internalType": "uint256",
          "name": "",
          "type": "uint256"
        }
      ],
      "name": "BuyList",
      "outputs": [
        {
          "internalType": "address",
          "name": "Sender",
          "type": "address"
        },
        {
          "internalType": "uint256",
          "name": "Price",
          "type": "uint256"
        },
        {
          "internalType": "uint256",
          "name": "Volume",
          "type": "uint256"
        }
      ],
      "payable": false,
      "stateMutability": "view",
      "type": "function"
    },
    {
      "constant": true,
      "inputs": [
        {
          "internalType": "uint256",
          "name": "",
          "type": "uint256"
        }
      ],
      "name": "SellList",
      "outputs": [
        {
          "internalType": "address",
          "name": "Sender",
          "type": "address"
        },
        {
          "internalType": "uint256",
          "name": "Price",
          "type": "uint256"
        },
        {
          "internalType": "uint256",
          "name": "Volume",
          "type": "uint256"
        }
      ],
      "payable": false,
      "stateMutability": "view",
      "type": "function"
    },
    {
      "constant": false,
      "inputs": [
        {
          "internalType": "uint256",
          "name": "_price",
          "type": "uint256"
        },
        {
          "internalType": "uint256",
          "name": "_volume",
          "type": "uint256"
        }
      ],
      "name": "submitBid",
      "outputs": [
        {
          "internalType": "bool",
          "name": "",
          "type": "bool"
        }
      ],
      "payable": false,
      "stateMutability": "nonpayable",
      "type": "function"
    },
    {
      "constant": false,
      "inputs": [
        {
          "internalType": "uint256",
          "name": "_price",
          "type": "uint256"
        },
        {
          "internalType": "uint256",
          "name": "_volume",
          "type": "uint256"
        }
      ],
      "name": "submitAsk",
      "outputs": [
        {
          "internalType": "bool",
          "name": "",
          "type": "bool"
        }
      ],
      "payable": false,
      "stateMutability": "nonpayable",
      "type": "function"
    },
    {
      "constant": true,
      "inputs": [],
      "name": "BuyListpeak",
      "outputs": [
        {
          "internalType": "address",
          "name": "",
          "type": "address"
        },
        {
          "internalType": "uint256",
          "name": "",
          "type": "uint256"
        },
        {
          "internalType": "uint256",
          "name": "",
          "type": "uint256"
        }
      ],
      "payable": false,
      "stateMutability": "view",
      "type": "function"
    },
    {
      "constant": true,
      "inputs": [],
      "name": "SellListpeak",
      "outputs": [
        {
          "internalType": "address",
          "name": "",
          "type": "address"
        },
        {
          "internalType": "uint256",
          "name": "",
          "type": "uint256"
        },
        {
          "internalType": "uint256",
          "name": "",
          "type": "uint256"
        }
      ],
      "payable": false,
      "stateMutability": "view",
      "type": "function"
    },
    {
      "constant": false,
      "inputs": [],
      "name": "maxheap_delete",
      "outputs": [
        {
          "internalType": "address",
          "name": "",
          "type": "address"
        },
        {
          "internalType": "uint256",
          "name": "",
          "type": "uint256"
        },
        {
          "internalType": "uint256",
          "name": "",
          "type": "uint256"
        }
      ],
      "payable": false,
      "stateMutability": "nonpayable",
      "type": "function"
    },
    {
      "constant": false,
      "inputs": [],
      "name": "minheap_delete",
      "outputs": [
        {
          "internalType": "address",
          "name": "",
          "type": "address"
        },
        {
          "internalType": "uint256",
          "name": "",
          "type": "uint256"
        },
        {
          "internalType": "uint256",
          "name": "",
          "type": "uint256"
        }
      ],
      "payable": false,
      "stateMutability": "nonpayable",
      "type": "function"
    }
  ],
  "bytecode": "0x608060405234801561001057600080fd5b5061175f806100206000396000f3fe608060405234801561001057600080fd5b50600436106100885760003560e01c80637288a28a1161005b5780637288a28a14610235578063b821da1b14610285578063bf0e40a6146102d5578063ff1369e21461032d57610088565b80630def7a3b1461008d5780631646e893146100e55780631eae4381146101615780637253aaf9146101dd575b600080fd5b610095610385565b604051808473ffffffffffffffffffffffffffffffffffffffff1673ffffffffffffffffffffffffffffffffffffffff168152602001838152602001828152602001935050505060405180910390f35b610111600480360360208110156100fb57600080fd5b8101908080359060200190929190505050610424565b604051808473ffffffffffffffffffffffffffffffffffffffff1673ffffffffffffffffffffffffffffffffffffffff168152602001838152602001828152602001935050505060405180910390f35b61018d6004803603602081101561017757600080fd5b810190808035906020019092919050505061047b565b604051808473ffffffffffffffffffffffffffffffffffffffff1673ffffffffffffffffffffffffffffffffffffffff168152602001838152602001828152602001935050505060405180910390f35b6101e56104d2565b604051808473ffffffffffffffffffffffffffffffffffffffff1673ffffffffffffffffffffffffffffffffffffffff168152602001838152602001828152602001935050505060405180910390f35b61026b6004803603604081101561024b57600080fd5b810190808035906020019092919080359060200190929190505050610752565b604051808215151515815260200191505060405180910390f35b6102bb6004803603604081101561029b57600080fd5b81019080803590602001909291908035906020019092919050505061076a565b604051808215151515815260200191505060405180910390f35b6102dd610782565b604051808473ffffffffffffffffffffffffffffffffffffffff1673ffffffffffffffffffffffffffffffffffffffff168152602001838152602001828152602001935050505060405180910390f35b610335610a03565b604051808473ffffffffffffffffffffffffffffffffffffffff1673ffffffffffffffffffffffffffffffffffffffff168152602001838152602001828152602001935050505060405180910390f35b600080600080600080549050141561039c57600080fd5b600080815481106103a957fe5b906000526020600020906003020160000160009054906101000a900473ffffffffffffffffffffffffffffffffffffffff16600080815481106103e857fe5b9060005260206000209060030201600101546000808154811061040757fe5b906000526020600020906003020160020154925092509250909192565b6001818154811061043157fe5b90600052602060002090600302016000915090508060000160009054906101000a900473ffffffffffffffffffffffffffffffffffffffff16908060010154908060020154905083565b6000818154811061048857fe5b90600052602060002090600302016000915090508060000160009054906101000a900473ffffffffffffffffffffffffffffffffffffffff16908060010154908060020154905083565b60008060008060018054905014156104e957600080fd5b6001808054905014156105c2576104fe61166b565b600160008154811061050c57fe5b90600052602060002090600302016040518060600160405290816000820160009054906101000a900473ffffffffffffffffffffffffffffffffffffffff1673ffffffffffffffffffffffffffffffffffffffff1673ffffffffffffffffffffffffffffffffffffffff16815260200160018201548152602001600282015481525050905060018054809190600190036105a691906116a2565b508060000151816020015182604001519350935093505061074d565b6105ca61166b565b60016000815481106105d857fe5b90600052602060002090600302016040518060600160405290816000820160009054906101000a900473ffffffffffffffffffffffffffffffffffffffff1673ffffffffffffffffffffffffffffffffffffffff1673ffffffffffffffffffffffffffffffffffffffff1681526020016001820154815260200160028201548152505090506001808080549050038154811061067057fe5b9060005260206000209060030201600160008154811061068c57fe5b90600052602060002090600302016000820160009054906101000a900473ffffffffffffffffffffffffffffffffffffffff168160000160006101000a81548173ffffffffffffffffffffffffffffffffffffffff021916908373ffffffffffffffffffffffffffffffffffffffff1602179055506001820154816001015560028201548160020155905050600180548091906001900361072d91906116a2565b50610736610aa5565b806000015181602001518260400151935093509350505b909192565b600061075f338484610d5b565b506001905092915050565b6000610777338484610e38565b506001905092915050565b600080600080600080549050141561079957600080fd5b60016000805490501415610872576107af61166b565b600080815481106107bc57fe5b90600052602060002090600302016040518060600160405290816000820160009054906101000a900473ffffffffffffffffffffffffffffffffffffffff1673ffffffffffffffffffffffffffffffffffffffff1673ffffffffffffffffffffffffffffffffffffffff168152602001600182015481526020016002820154815250509050600080548091906001900361085691906116a2565b50806000015181602001518260400151935093509350506109fe565b61087a61166b565b6000808154811061088757fe5b90600052602060002090600302016040518060600160405290816000820160009054906101000a900473ffffffffffffffffffffffffffffffffffffffff1673ffffffffffffffffffffffffffffffffffffffff1673ffffffffffffffffffffffffffffffffffffffff16815260200160018201548152602001600282015481525050905060006001600080549050038154811061092157fe5b90600052602060002090600302016000808154811061093c57fe5b90600052602060002090600302016000820160009054906101000a900473ffffffffffffffffffffffffffffffffffffffff168160000160006101000a81548173ffffffffffffffffffffffffffffffffffffffff021916908373ffffffffffffffffffffffffffffffffffffffff160217905550600182015481600101556002820154816002015590505060008054809190600190036109dd91906116a2565b506109e6610f15565b50806000015181602001518260400151935093509350505b909192565b6000806000806001805490501415610a1a57600080fd5b6001600081548110610a2857fe5b906000526020600020906003020160000160009054906101000a900473ffffffffffffffffffffffffffffffffffffffff166001600081548110610a6857fe5b9060005260206000209060030201600101546001600081548110610a8857fe5b906000526020600020906003020160020154925092509250909192565b600080905060006001826002020190505b600180549050811015610d575760008190506000600183019050600180549050811015610b2b5760018381548110610aea57fe5b90600052602060002090600302016001015460018281548110610b0957fe5b9060005260206000209060030201600101541115610b2a5781806001019250505b5b60018281548110610b3857fe5b90600052602060002090600302016001015460018581548110610b5757fe5b9060005260206000209060030201600101541015610d4957610b7761166b565b60018581548110610b8457fe5b90600052602060002090600302016040518060600160405290816000820160009054906101000a900473ffffffffffffffffffffffffffffffffffffffff1673ffffffffffffffffffffffffffffffffffffffff1673ffffffffffffffffffffffffffffffffffffffff16815260200160018201548152602001600282015481525050905060018381548110610c1657fe5b906000526020600020906003020160018681548110610c3157fe5b90600052602060002090600302016000820160009054906101000a900473ffffffffffffffffffffffffffffffffffffffff168160000160006101000a81548173ffffffffffffffffffffffffffffffffffffffff021916908373ffffffffffffffffffffffffffffffffffffffff16021790555060018201548160010155600282015481600201559050508060018481548110610ccb57fe5b906000526020600020906003020160008201518160000160006101000a81548173ffffffffffffffffffffffffffffffffffffffff021916908373ffffffffffffffffffffffffffffffffffffffff160217905550602082015181600101556040820151816002015590505082945060018560020201935050610d50565b5050610d57565b5050610ab6565b5050565b6000610d6561166b565b60405180606001604052808673ffffffffffffffffffffffffffffffffffffffff1681526020018581526020018481525090506001819080600181540180825580915050906001820390600052602060002090600302016000909192909190915060008201518160000160006101000a81548173ffffffffffffffffffffffffffffffffffffffff021916908373ffffffffffffffffffffffffffffffffffffffff1602179055506020820151816001015560408201518160020155505050610e2c6111d2565b60019150509392505050565b6000610e4261166b565b60405180606001604052808673ffffffffffffffffffffffffffffffffffffffff1681526020018581526020018481525090506000819080600181540180825580915050906001820390600052602060002090600302016000909192909190915060008201518160000160006101000a81548173ffffffffffffffffffffffffffffffffffffffff021916908373ffffffffffffffffffffffffffffffffffffffff1602179055506020820151816001015560408201518160020155505050610f0961141e565b60019150509392505050565b6000806000905060006001826002020190505b6000805490508110156111c95760008190506000600183019050600080549050811015610f9d5760008381548110610f5c57fe5b90600052602060002090600302016001015460008281548110610f7b57fe5b9060005260206000209060030201600101541015610f9c5781806001019250505b5b60008481548110610faa57fe5b90600052602060002090600302016001015460008381548110610fc957fe5b90600052602060002090600302016001015410156111bb57610fe961166b565b60008581548110610ff657fe5b90600052602060002090600302016040518060600160405290816000820160009054906101000a900473ffffffffffffffffffffffffffffffffffffffff1673ffffffffffffffffffffffffffffffffffffffff1673ffffffffffffffffffffffffffffffffffffffff1681526020016001820154815260200160028201548152505090506000838154811061108857fe5b9060005260206000209060030201600086815481106110a357fe5b90600052602060002090600302016000820160009054906101000a900473ffffffffffffffffffffffffffffffffffffffff168160000160006101000a81548173ffffffffffffffffffffffffffffffffffffffff021916908373ffffffffffffffffffffffffffffffffffffffff1602179055506001820154816001015560028201548160020155905050806000848154811061113d57fe5b906000526020600020906003020160008201518160000160006101000a81548173ffffffffffffffffffffffffffffffffffffffff021916908373ffffffffffffffffffffffffffffffffffffffff1602179055506020820151816001015560408201518160020155905050829450600185600202019350506111c2565b50506111c9565b5050610f28565b60019250505090565b6000600180805490500390505b600081111561141b576000600260018303816111f757fe5b0490506001818154811061120757fe5b9060005260206000209060030201600101546001838154811061122657fe5b906000526020600020906003020160010154111561140f5761124661166b565b6001838154811061125357fe5b90600052602060002090600302016040518060600160405290816000820160009054906101000a900473ffffffffffffffffffffffffffffffffffffffff1673ffffffffffffffffffffffffffffffffffffffff1673ffffffffffffffffffffffffffffffffffffffff168152602001600182015481526020016002820154815250509050600182815481106112e557fe5b90600052602060002090600302016001848154811061130057fe5b90600052602060002090600302016000820160009054906101000a900473ffffffffffffffffffffffffffffffffffffffff168160000160006101000a81548173ffffffffffffffffffffffffffffffffffffffff021916908373ffffffffffffffffffffffffffffffffffffffff1602179055506001820154816001015560028201548160020155905050806001838154811061139a57fe5b906000526020600020906003020160008201518160000160006101000a81548173ffffffffffffffffffffffffffffffffffffffff021916908373ffffffffffffffffffffffffffffffffffffffff160217905550602082015181600101556040820151816002015590505081925050611415565b5061141b565b506111df565b50565b600060016000805490500390505b60008111156116685760006002600183038161144457fe5b0490506000818154811061145457fe5b9060005260206000209060030201600101546000838154811061147357fe5b906000526020600020906003020160010154101561165c5761149361166b565b600083815481106114a057fe5b90600052602060002090600302016040518060600160405290816000820160009054906101000a900473ffffffffffffffffffffffffffffffffffffffff1673ffffffffffffffffffffffffffffffffffffffff1673ffffffffffffffffffffffffffffffffffffffff1681526020016001820154815260200160028201548152505090506000828154811061153257fe5b90600052602060002090600302016000848154811061154d57fe5b90600052602060002090600302016000820160009054906101000a900473ffffffffffffffffffffffffffffffffffffffff168160000160006101000a81548173ffffffffffffffffffffffffffffffffffffffff021916908373ffffffffffffffffffffffffffffffffffffffff160217905550600182015481600101556002820154816002015590505080600083815481106115e757fe5b906000526020600020906003020160008201518160000160006101000a81548173ffffffffffffffffffffffffffffffffffffffff021916908373ffffffffffffffffffffffffffffffffffffffff160217905550602082015181600101556040820151816002015590505081925050611662565b50611668565b5061142c565b50565b6040518060600160405280600073ffffffffffffffffffffffffffffffffffffffff16815260200160008152602001600081525090565b8154818355818111156116cf576003028160030283600052602060002091820191016116ce91906116d4565b5b505050565b61172791905b8082111561172357600080820160006101000a81549073ffffffffffffffffffffffffffffffffffffffff021916905560018201600090556002820160009055506003016116da565b5090565b9056fea265627a7a7231582058d06480875deefc4e9581847bce9642b32076cb1b7decb9cd7a6913c60fb68f64736f6c634300050c0032",
  "source": "pragma solidity >=0.4.22;\n//pragma experimental ABIEncoderV2;\n\ncontract Orderbook_V11{\n\n\n//**********************************************//\n//Every order has some attributes:\n    struct OrderStruct\n    {\n        address Sender;\n        uint256 Price;\n        uint256 Volume;\n\n    }\n\n//**********************************************//\n    OrderStruct[] public BuyList;  //The array that contains Bid OrderStructs (ascending (incremental))\n    OrderStruct[] public SellList; //The array that contains Ask OrderStructs (descending (deccremental) = maxheap)\n\n//**********************************************//\n//******************** submitBid function ********************//\n    //submitBid function calls the minheap_insert function\n    function submitBid (uint256 _price, uint256 _volume ) public returns (bool){\n\n        minheap_insert( msg.sender, _price, _volume);\n        return true;\n    }\n//******************** submitask function ********************//\n    //submitAsk function calls the maxheap_insert function\n    function submitAsk (uint _price, uint _volume ) public returns (bool) {\n\n        maxheap_insert( msg.sender, _price, _volume );\n        return true;\n\n    }\n//**********************************************//\n\n\n//************************************************************************//\n//*********************     function modifiers    ************************//\n//************************************************************************//\n\n\n\n//************************************************************************//\n//*********************     auxillary functions    ************************//\n//************************************************************************//\n\n\n//****************   ordertype function  *********************//\n    //ordertype order checks if the incoming order is a bid or ask\n    /*function ordertype ( bool _type ) private returns (bool success){\n\n        OrderStruct memory temp = a[i];    //\"!SYNTAX!\"\n        a[i] = a[j];\n        a[p] = temp;\n    }*/\n\n\n//****************   swap function  *********************//\n    //swap function swaps the elements i and j in the array list (i=k, j=p)\n    /*function swap(OrderStruct[]  a, uint i, uint j ) internal returns (bool success){\n\n        OrderStruct memory temp = a[i];    //\"!SYNTAX!\"\n        a[i] = a[j];\n        a[j] = temp;\n    }*/\n\n\n//****************   BuyListpeak function  *********************//\n    //BuyListpeak function returns the highest priority element\n    function BuyListpeak() public view returns (address, uint256 , uint256){\n    //function BuyListpeak() public returns (uint256 _price){\n\n        //require(BuyList.length != 0, “BuyList length is 0”) //Shayan\n        if (BuyList.length == 0) { revert(); } //the delete function throws exception if the heap is empty\n        //_sender =  BuyList[0].Sender;\n        //_price = BuyList[0].Price;\n        //_volume = BuyList[0].Volume;\n        return (BuyList[0].Sender, BuyList[0].Price,BuyList[0].Volume );\n    }\n\n\n\n//****************   SellListpeak function  *********************//\n    //SellListpeak function returns the highest priority element\n    function SellListpeak() public view returns (address, uint256, uint256){\n\n        if (SellList.length == 0) { revert(); } //the delete function throws exception if the heap is empty\n        //_sender =  SellList[0].Sender;\n        //_price = SellList[0].Price;\n        //_volume = SellList[0].Volume;\n        return (SellList[0].Sender, SellList[0].Price, SellList[0].Volume);\n    }\n\n\n\n\n//************************************************************************//\n//*********************     Maxheap (SellList)    ************************//\n//************************************************************************//\n\n\n//*******************  maxheap_heapifyUp () ***************************//\n    //this function is called everytime we insert a new element to the end of the array (aka a new sell order is submitted) and\n    //now the heap has to be sorted again\n    function maxheap_heapifyUp () internal {\n        uint256 k = SellList.length - 1;                   //k is set to be the last entry of the array (also heap) which is the element that's just added and has to be moved up\n        while (k > 0){                                  //while we havent reached to the top of the heap\n            uint256 p = (k-1)/2;                           //we need to compute the parent of this last element which is p = (k-1)/2\n            if (SellList[k].Price > SellList[p].Price) //if the element is greater than its parent\n            {   //\"!SYNTAX!\"\n                //Orderbook_V9.swap(SellList, k, p);              //swap the element at index k with its parent\n                OrderStruct memory temp = SellList[k];    //\"!SYNTAX!\"//swap the element at index k with its parent\n                SellList[k] = SellList[p];\n                SellList[p] = temp;\n                k = p;                                  //k moves up one level\n            }\n            else {break;}                               //if not the break statement exits the loop (it continues until no element index k is not greater than its parent)\n        }\n    }\n//*******************  maxheap_heapifyDown () ***************************//\n    //when we want to remove an element from the heap we remove the root of the heap and add the last item\n    //to the root and reorder the heap again\n    function maxheap_heapifyDown () internal {\n        uint256 k =0;\n        uint256 leftchild = 2*k + 1;\n        while (leftchild < SellList.length)\n        {                                   //as long as the left child is within the array that heap is stored in\n            uint max = leftchild;\n            uint rightchild = leftchild + 1;                                     //rightchild = 2k+2\n\n            if (rightchild < SellList.length)                                       //if there is a rightchild\n            {\n                if (SellList[rightchild].Price > SellList[leftchild].Price)    //then the right child and left child are compared\n                {\n                    max++;                                                       //now max is set to rightchild, otherwise max remains to be the leftchild\n                }\n            }\n\n        if (SellList[k].Price < SellList[max].Price)                        //compares the k item with the max item and if k is smaller than its greatest children they are swapped\n        {\n            //swap k with its greatest children (max)\n            //\"!SYNTAX!\"\n            //Orderbook_V9.swap (SellList, k, max);\n            OrderStruct memory temp = SellList[k];    //\"!SYNTAX!\"//swap the element at index k with its parent\n            SellList[k] = SellList[max];\n            SellList[max] = temp;\n            k = max;                                                         //k is set to max\n            leftchild =2*k + 1;                                              //l is recompuetd in preparation for the next iteration\n        }\n        else{                                                               //if the k item is not smaller than the max item, heapifyDown should stop\n            break;\n            }\n        }\n    }\n\n//*******************  maxheap_insert () ***************************//\n    //the new item will be added to the end of the array list (a sell order is submitted)\n    //then heapified up with a call to heapifyUp method\n    function maxheap_insert (address _sender, uint256 _price, uint256 _volume) internal returns (bool)\n    {\n        OrderStruct memory neworder = OrderStruct(_sender, _price ,_volume);\n        SellList.push(neworder);\n        maxheap_heapifyUp ();\n        return(true);\n    }\n\n//*******************  maxheap_delete () ***************************//\n    //the highest priority item will be removed from the list and is returned by the function\n    //then the heap is reordered uising the heapifyDown method\n    function maxheap_delete () public returns (address, uint256, uint256) \n    {\n        if (SellList.length == 0) { revert(); }                             //the delete function throws exception if the heap is empty\n        if (SellList.length == 1) {                                      // if the heap has only one items\n            OrderStruct memory result =  SellList[0];         //\"!SYNTAX!\"\n            //delete SellList[0];  \n            SellList.length--;                                        //the only element of the heap is removed and returned \"!SYNTAX!\"\n            //_sender = result.Sender;\n            //_price = result.Price;\n            //_volume = result.Volume;\n            return(result.Sender,result.Price,result.Volume);\n        }\n\n        //if neither of these conditions are true, then there are at least 2 items in the heap and deletion proceeds\n        OrderStruct memory result = SellList[0]; //the element on the of the heap is placed in the variable called hold\n        SellList[0] = SellList[SellList.length -1]; //the last elementof the heap is removed and written into the first position\n        //delete SellList [SellList.length -1];\n        SellList.length--;\n        maxheap_heapifyDown(); //now the siftdown is called\n        return (result.Sender,result.Price,result.Volume);\n    }\n\n//************************************************************************//\n//*********************     Minheap (BuyList)    ************************//\n//************************************************************************//\n\n\n//*******************  minheap_heapifyUp () ***************************//\n    //this function is called everytime we insert a new element to the end of the array (aka a new buy order is submitted) and\n    //now the heap has to be sorted again\n    function minheap_heapifyUp () internal {\n\n        uint256 k = BuyList.length - 1;                   //k is set to be the last entry of the array(also heap) which is the element that's just added and has to be moved up\n        while (k > 0){                                 //while we havent reached to the top of the heap\n            uint256 p = (k-1)/2;                          //we need to compute the parent of this last element which is p = (k-1)/2\n            if (BuyList[k].Price < BuyList[p].Price) //if the element is greater than its parent\n            {\n                //swap (BuyList, k, p); //swap k with its parent \"!SYNTAX!\"\n            \n                OrderStruct memory temp = BuyList[k];    //\"!SYNTAX!\"//swap the element at index k with its parent\n                BuyList[k] = BuyList[p];\n                BuyList[p] = temp;\n                \n                k = p; //k moves up one level\n            }\n            else {break;} //if not the break statement exits the loop (it continues until no element index k is not greater than its parent)\n        }\n    }\n//*******************  minheap_heapifyDown () ***************************//\n    //when we want to remove an element from the heap we remove the root of the heap and add the last item\n    //to the root and reorder the heap again\n    function minheap_heapifyDown () internal returns (bool) {\n        uint256 k =0;\n        uint256 leftchild = 2*k + 1;\n        while (leftchild < BuyList.length){               //as long as the left child is within the array that heap is stored in\n            uint256 min = leftchild;\n            uint256 rightchild = leftchild + 1;              //rightchild = 2k+2\n\n            if (rightchild < BuyList.length)                //if there is a rightchild, then the right child and left child are compared\n            {\n                if (BuyList[rightchild].Price < BuyList[leftchild].Price)\n                {    min++;   }                               //now min is set to rightchild, otherwise min remains to be the leftchild\n            }\n\n            if (BuyList[min].Price < BuyList[k].Price) //compares the k item with the max item and if its less they are swapped\n            {\n                //swap (BuyList, k, min); //swap k with its smaller children\n                \n                OrderStruct memory temp = BuyList[k];    //\"!SYNTAX!\"//swap the element at index k with its parent\n                BuyList[k] = BuyList[min];\n                BuyList[min] = temp;\n\n                k = min; //k is set to min\n                leftchild = 2*k + 1; //l is recompuetd in preparation for the next iteration\n            }\n            else{ //if k item's smaller childer is not smaller than k item itself, heapifyDown should stop\n                break;\n            }\n\n        }\n        return true;\n    }\n//*******************  minheap_insert () ***************************//\n    //the new item will be added to the end of the array list (a buy order is submitted)\n    //then heapified up with a call to heapifyUp method\n    function minheap_insert (address _sender, uint256 _price, uint256 _volume) internal returns (bool)\n    {\n        OrderStruct memory neworder = OrderStruct(_sender, _price ,_volume); //\"!SYNTAX!\"\n        BuyList.push(neworder);\n        minheap_heapifyUp(); //\"!SYNTAX!\"\n        return true;\n        //uint256 x = 3;\n        //return x;\n    }\n\n//*******************  minheap_delete () ***************************//\n    //the highest priority item (the smallest bid) will be removed from the list and is returned by the function\n    //then the heap is reordered uising the heapifyDown method\n    function minheap_delete () public returns (address, uint256, uint256)\n    //function minheap_delete () public view returns (uint256 _price)\n    {\n        if (BuyList.length == 0) { revert(); }                      //the delete function throws exception if the heap is empty\n        if (BuyList.length == 1) {                               // if the heap has only one item\n            OrderStruct memory result = BuyList[0];  //\"!SYNTAX!\"\n            //delete BuyList[0];                                   //the only element of the heap is removed and returned  \"!SYNTAX!\"\n            BuyList.length--;   \n            return (result.Sender, result.Price, result.Volume);                                       // \"!SYNTAX!\"\n        }\n\n        //if neither of these conditions are true, then there are at least 2 items in the heap and deletion proceeds\n        //_sender = BuyList[0].Sender;\n        //_price = BuyList[0].Price;\n       // _volume = BuyList[0].Volume;\n        OrderStruct memory result = BuyList[0];\n        //OrderStruct memory hold = BuyList[0];                        //the element on the of the heap is placed in the variable called hold \"!SYNTAX!\"\n        BuyList[0] = BuyList[BuyList.length -1];                      //the last elementof the heap is removed and written into the first position\n        //delete BuyList[BuyList.length -1]; \n        BuyList.length--;                  //\"!SYNTAX!\"\n        minheap_heapifyDown();                           //now the heapifyDown is called to restore the ordering of the heap \"!SYNTAX!\"\n        return(result.Sender, result.Price, result.Volume);        //\"!SYNTAX!\"\n    }\n\n//************************************************************************//\n//************************************************************************//\n//************************************************************************//\n\n}\n",
  "sourcePath": "/home/mahsa/ProjectRepo/2020-Orderbook/Code/New-Truffle/contracts/CallMarket/Heap with Dynamic Array/Orderbook_V11.sol",
  "compiler": {
    "name": "solc",
    "version": "0.5.12+commit.7709ece9.Emscripten.clang"
  },
  "schemaVersion": "3.2.0",
  "updatedAt": "2020-06-10T20:06:41.021Z",
  "networkType": "ethereum",
  "devdoc": {
    "methods": {}
  },
  "userdoc": {
    "methods": {}
  }
}