{
  "contractName": "Orderbook_V10",
  "abi": [
    {
      "constant": true,
      "inputs": [
        {
          "internalType": "uint256",
          "name": "",
          "type": "uint256"
        }
      ],
      "name": "BuyList",
      "outputs": [
        {
          "internalType": "address",
          "name": "Sender",
          "type": "address"
        },
        {
          "internalType": "uint256",
          "name": "Price",
          "type": "uint256"
        },
        {
          "internalType": "uint256",
          "name": "Volume",
          "type": "uint256"
        }
      ],
      "payable": false,
      "stateMutability": "view",
      "type": "function"
    },
    {
      "constant": true,
      "inputs": [
        {
          "internalType": "uint256",
          "name": "",
          "type": "uint256"
        }
      ],
      "name": "SellList",
      "outputs": [
        {
          "internalType": "address",
          "name": "Sender",
          "type": "address"
        },
        {
          "internalType": "uint256",
          "name": "Price",
          "type": "uint256"
        },
        {
          "internalType": "uint256",
          "name": "Volume",
          "type": "uint256"
        }
      ],
      "payable": false,
      "stateMutability": "view",
      "type": "function"
    },
    {
      "constant": false,
      "inputs": [],
      "name": "toy",
      "outputs": [
        {
          "internalType": "uint256",
          "name": "",
          "type": "uint256"
        }
      ],
      "payable": false,
      "stateMutability": "nonpayable",
      "type": "function"
    },
    {
      "constant": false,
      "inputs": [
        {
          "internalType": "uint256",
          "name": "_price",
          "type": "uint256"
        },
        {
          "internalType": "uint256",
          "name": "_volume",
          "type": "uint256"
        }
      ],
      "name": "submitBid",
      "outputs": [],
      "payable": false,
      "stateMutability": "nonpayable",
      "type": "function"
    },
    {
      "constant": false,
      "inputs": [
        {
          "internalType": "uint256",
          "name": "_price",
          "type": "uint256"
        },
        {
          "internalType": "uint256",
          "name": "_volume",
          "type": "uint256"
        }
      ],
      "name": "submitAsk",
      "outputs": [],
      "payable": false,
      "stateMutability": "nonpayable",
      "type": "function"
    },
    {
      "constant": true,
      "inputs": [],
      "name": "BuyListpeak",
      "outputs": [
        {
          "internalType": "uint256",
          "name": "_price",
          "type": "uint256"
        }
      ],
      "payable": false,
      "stateMutability": "view",
      "type": "function"
    },
    {
      "constant": false,
      "inputs": [],
      "name": "SellListpeak",
      "outputs": [
        {
          "internalType": "address",
          "name": "_sender",
          "type": "address"
        },
        {
          "internalType": "uint256",
          "name": "_price",
          "type": "uint256"
        },
        {
          "internalType": "uint256",
          "name": "_volume",
          "type": "uint256"
        }
      ],
      "payable": false,
      "stateMutability": "nonpayable",
      "type": "function"
    },
    {
      "constant": false,
      "inputs": [
        {
          "internalType": "address",
          "name": "_sender",
          "type": "address"
        },
        {
          "internalType": "uint256",
          "name": "_price",
          "type": "uint256"
        },
        {
          "internalType": "uint256",
          "name": "_volume",
          "type": "uint256"
        }
      ],
      "name": "maxheap_insert",
      "outputs": [],
      "payable": false,
      "stateMutability": "nonpayable",
      "type": "function"
    },
    {
      "constant": false,
      "inputs": [],
      "name": "maxheap_delete",
      "outputs": [
        {
          "internalType": "address",
          "name": "_sender",
          "type": "address"
        },
        {
          "internalType": "uint256",
          "name": "_price",
          "type": "uint256"
        },
        {
          "internalType": "uint256",
          "name": "_volume",
          "type": "uint256"
        }
      ],
      "payable": false,
      "stateMutability": "nonpayable",
      "type": "function"
    },
    {
      "constant": false,
      "inputs": [],
      "name": "minheap_delete",
      "outputs": [
        {
          "internalType": "address",
          "name": "",
          "type": "address"
        },
        {
          "internalType": "uint256",
          "name": "",
          "type": "uint256"
        },
        {
          "internalType": "uint256",
          "name": "",
          "type": "uint256"
        }
      ],
      "payable": false,
      "stateMutability": "nonpayable",
      "type": "function"
    }
  ],
  "bytecode": "0x6080604052600260005534801561001557600080fd5b506115c9806100256000396000f3fe608060405234801561001057600080fd5b506004361061009e5760003560e01c80637288a28a116100665780637288a28a14610269578063b821da1b146102a1578063bf0e40a6146102d9578063f266d41014610331578063ff1369e21461034f5761009e565b80630def7a3b146100a35780631646e893146100c15780631eae43811461013d5780636a051e23146101b95780637253aaf914610211575b600080fd5b6100ab6103a7565b6040518082815260200191505060405180910390f35b6100ed600480360360208110156100d757600080fd5b81019080803590602001909291905050506103e3565b604051808473ffffffffffffffffffffffffffffffffffffffff1673ffffffffffffffffffffffffffffffffffffffff168152602001838152602001828152602001935050505060405180910390f35b6101696004803603602081101561015357600080fd5b810190808035906020019092919050505061043a565b604051808473ffffffffffffffffffffffffffffffffffffffff1673ffffffffffffffffffffffffffffffffffffffff168152602001838152602001828152602001935050505060405180910390f35b61020f600480360360608110156101cf57600080fd5b81019080803573ffffffffffffffffffffffffffffffffffffffff1690602001909291908035906020019092919080359060200190929190505050610491565b005b610219610566565b604051808473ffffffffffffffffffffffffffffffffffffffff1673ffffffffffffffffffffffffffffffffffffffff168152602001838152602001828152602001935050505060405180910390f35b61029f6004803603604081101561027f57600080fd5b810190808035906020019092919080359060200190929190505050610879565b005b6102d7600480360360408110156102b757600080fd5b810190808035906020019092919080359060200190929190505050610888565b005b6102e1610897565b604051808473ffffffffffffffffffffffffffffffffffffffff1673ffffffffffffffffffffffffffffffffffffffff168152602001838152602001828152602001935050505060405180910390f35b610339610b9c565b6040518082815260200191505060405180910390f35b610357610ba5565b604051808473ffffffffffffffffffffffffffffffffffffffff1673ffffffffffffffffffffffffffffffffffffffff168152602001838152602001828152602001935050505060405180910390f35b60008060018054905014156103bb57600080fd5b60016000815481106103c957fe5b906000526020600020906003020160010154905080905090565b600281815481106103f057fe5b90600052602060002090600302016000915090508060000160009054906101000a900473ffffffffffffffffffffffffffffffffffffffff16908060010154908060020154905083565b6001818154811061044757fe5b90600052602060002090600302016000915090508060000160009054906101000a900473ffffffffffffffffffffffffffffffffffffffff16908060010154908060020154905083565b61049961155d565b60405180606001604052808573ffffffffffffffffffffffffffffffffffffffff1681526020018481526020018381525090506002819080600181540180825580915050906001820390600052602060002090600302016000909192909190915060008201518160000160006101000a81548173ffffffffffffffffffffffffffffffffffffffff021916908373ffffffffffffffffffffffffffffffffffffffff1602179055506020820151816001015560408201518160020155505050610560610c50565b50505050565b600080600080600280549050141561057d57600080fd5b600160028054905014156106a05761059361155d565b60026000815481106105a157fe5b90600052602060002090600302016040518060600160405290816000820160009054906101000a900473ffffffffffffffffffffffffffffffffffffffff1673ffffffffffffffffffffffffffffffffffffffff1673ffffffffffffffffffffffffffffffffffffffff168152602001600182015481526020016002820154815250509050600260008154811061063457fe5b9060005260206000209060030201600080820160006101000a81549073ffffffffffffffffffffffffffffffffffffffff021916905560018201600090556002820160009055505080600001519350806020015192508060400151915083838393509350935050610874565b6106a861155d565b60026000815481106106b657fe5b90600052602060002090600302016040518060600160405290816000820160009054906101000a900473ffffffffffffffffffffffffffffffffffffffff1673ffffffffffffffffffffffffffffffffffffffff1673ffffffffffffffffffffffffffffffffffffffff16815260200160018201548152602001600282015481525050905060026001600280549050038154811061075057fe5b9060005260206000209060030201600260008154811061076c57fe5b90600052602060002090600302016000820160009054906101000a900473ffffffffffffffffffffffffffffffffffffffff168160000160006101000a81548173ffffffffffffffffffffffffffffffffffffffff021916908373ffffffffffffffffffffffffffffffffffffffff160217905550600182015481600101556002820154816002015590505060026001600280549050038154811061080d57fe5b9060005260206000209060030201600080820160006101000a81549073ffffffffffffffffffffffffffffffffffffffff021916905560018201600090556002820160009055505061085d610e9c565b806000015181602001518260400151935093509350505b909192565b610884338383610491565b5050565b610893338383611150565b5050565b60008060008060018054905014156108ae57600080fd5b6001808054905014156109c7576108c361155d565b60016000815481106108d157fe5b90600052602060002090600302016040518060600160405290816000820160009054906101000a900473ffffffffffffffffffffffffffffffffffffffff1673ffffffffffffffffffffffffffffffffffffffff1673ffffffffffffffffffffffffffffffffffffffff168152602001600182015481526020016002820154815250509050600160008154811061096457fe5b9060005260206000209060030201600080820160006101000a81549073ffffffffffffffffffffffffffffffffffffffff021916905560018201600090556002820160009055505080600001518160200151826040015193509350935050610b97565b6109cf61155d565b60016000815481106109dd57fe5b90600052602060002090600302016040518060600160405290816000820160009054906101000a900473ffffffffffffffffffffffffffffffffffffffff1673ffffffffffffffffffffffffffffffffffffffff1673ffffffffffffffffffffffffffffffffffffffff16815260200160018201548152602001600282015481525050905060018080805490500381548110610a7557fe5b90600052602060002090600302016001600081548110610a9157fe5b90600052602060002090600302016000820160009054906101000a900473ffffffffffffffffffffffffffffffffffffffff168160000160006101000a81548173ffffffffffffffffffffffffffffffffffffffff021916908373ffffffffffffffffffffffffffffffffffffffff160217905550600182015481600101556002820154816002015590505060018080805490500381548110610b3057fe5b9060005260206000209060030201600080820160006101000a81549073ffffffffffffffffffffffffffffffffffffffff0219169055600182016000905560028201600090555050610b80611225565b806000015181602001518260400151935093509350505b909192565b60008054905090565b6000806000806002805490501415610bbc57600080fd5b6002600081548110610bca57fe5b906000526020600020906003020160000160009054906101000a900473ffffffffffffffffffffffffffffffffffffffff1692506002600081548110610c0c57fe5b90600052602060002090600302016001015491506002600081548110610c2e57fe5b9060005260206000209060030201600201549050828282925092509250909192565b600060016002805490500390505b6000811115610e9957600060026001830381610c7657fe5b04905060028181548110610c8657fe5b90600052602060002090600302016001015460028381548110610ca557fe5b90600052602060002090600302016001015410610e8d57610cc461155d565b60028381548110610cd157fe5b90600052602060002090600302016040518060600160405290816000820160009054906101000a900473ffffffffffffffffffffffffffffffffffffffff1673ffffffffffffffffffffffffffffffffffffffff1673ffffffffffffffffffffffffffffffffffffffff16815260200160018201548152602001600282015481525050905060028281548110610d6357fe5b906000526020600020906003020160028481548110610d7e57fe5b90600052602060002090600302016000820160009054906101000a900473ffffffffffffffffffffffffffffffffffffffff168160000160006101000a81548173ffffffffffffffffffffffffffffffffffffffff021916908373ffffffffffffffffffffffffffffffffffffffff16021790555060018201548160010155600282015481600201559050508060028381548110610e1857fe5b906000526020600020906003020160008201518160000160006101000a81548173ffffffffffffffffffffffffffffffffffffffff021916908373ffffffffffffffffffffffffffffffffffffffff160217905550602082015181600101556040820151816002015590505081925050610e93565b50610e99565b50610c5e565b50565b600080905060006001826002020190505b60028054905081101561114c5760008190506000600183019050600280549050811015610f215760028381548110610ee157fe5b90600052602060002090600302016001015460028281548110610f0057fe5b90600052602060002090600302016001015410610f205781806001019250505b5b60028281548110610f2e57fe5b90600052602060002090600302016001015460028581548110610f4d57fe5b9060005260206000209060030201600101541161113e57610f6c61155d565b60028581548110610f7957fe5b90600052602060002090600302016040518060600160405290816000820160009054906101000a900473ffffffffffffffffffffffffffffffffffffffff1673ffffffffffffffffffffffffffffffffffffffff1673ffffffffffffffffffffffffffffffffffffffff1681526020016001820154815260200160028201548152505090506002838154811061100b57fe5b90600052602060002090600302016002868154811061102657fe5b90600052602060002090600302016000820160009054906101000a900473ffffffffffffffffffffffffffffffffffffffff168160000160006101000a81548173ffffffffffffffffffffffffffffffffffffffff021916908373ffffffffffffffffffffffffffffffffffffffff160217905550600182015481600101556002820154816002015590505080600284815481106110c057fe5b906000526020600020906003020160008201518160000160006101000a81548173ffffffffffffffffffffffffffffffffffffffff021916908373ffffffffffffffffffffffffffffffffffffffff160217905550602082015181600101556040820151816002015590505082945060018560020201935050611145565b505061114c565b5050610ead565b5050565b61115861155d565b60405180606001604052808573ffffffffffffffffffffffffffffffffffffffff1681526020018481526020018381525090506001819080600181540180825580915050906001820390600052602060002090600302016000909192909190915060008201518160000160006101000a81548173ffffffffffffffffffffffffffffffffffffffff021916908373ffffffffffffffffffffffffffffffffffffffff160217905550602082015181600101556040820151816002015550505061121f6114da565b50505050565b600080905060006001826002020190505b6001805490508110156114d657600081905060006001830190506001805490508110156112ab576001838154811061126a57fe5b9060005260206000209060030201600101546001828154811061128957fe5b90600052602060002090600302016001015410156112aa5781806001019250505b5b600184815481106112b857fe5b906000526020600020906003020160010154600183815481106112d757fe5b906000526020600020906003020160010154116114c8576112f661155d565b6001858154811061130357fe5b90600052602060002090600302016040518060600160405290816000820160009054906101000a900473ffffffffffffffffffffffffffffffffffffffff1673ffffffffffffffffffffffffffffffffffffffff1673ffffffffffffffffffffffffffffffffffffffff1681526020016001820154815260200160028201548152505090506001838154811061139557fe5b9060005260206000209060030201600186815481106113b057fe5b90600052602060002090600302016000820160009054906101000a900473ffffffffffffffffffffffffffffffffffffffff168160000160006101000a81548173ffffffffffffffffffffffffffffffffffffffff021916908373ffffffffffffffffffffffffffffffffffffffff1602179055506001820154816001015560028201548160020155905050806001848154811061144a57fe5b906000526020600020906003020160008201518160000160006101000a81548173ffffffffffffffffffffffffffffffffffffffff021916908373ffffffffffffffffffffffffffffffffffffffff1602179055506020820151816001015560408201518160020155905050829450600185600202019350506114cf565b50506114d6565b5050611236565b5050565b6000600180805490500390505b600081111561155a576000600260018303816114ff57fe5b0490506001818154811061150f57fe5b9060005260206000209060030201600101546001838154811061152e57fe5b906000526020600020906003020160010154101561154e57809150611554565b5061155a565b506114e7565b50565b6040518060600160405280600073ffffffffffffffffffffffffffffffffffffffff1681526020016000815260200160008152509056fea265627a7a723158203ce88314d6834c2e3ccedb067ae2f6398cb253d38ff8f5c1d0312ba9df93fdd964736f6c634300050c0032",
  "source": "pragma solidity >=0.4.22;\n//pragma experimental ABIEncoderV2;\n\ncontract Orderbook_V10{\nuint256 x = 2;\n\nfunction toy() public  returns (uint256){\n    return x;\n    \n}\n\n//**********************************************//\n//Every order has some attributes:\n    struct OrderStruct\n    {\n        address Sender;\n        uint256 Price;\n        uint256 Volume;\n\n    }\n\n//**********************************************//\n    OrderStruct[] public BuyList;  //The array that contains Bid OrderStructs (ascending (incremental))\n    OrderStruct[] public SellList; //The array that contains Ask OrderStructs (descending (deccremental) = maxheap)\n\n//**********************************************//\n//******************** submitBid function ********************//\n    //submitBid function calls the minheap_insert function\n    function submitBid (uint256 _price, uint256 _volume ) public {\n\n        minheap_insert( msg.sender, _price, _volume );\n\n    }\n//******************** submitask function ********************//\n    //submitAsk function calls the maxheap_insert function\n    function submitAsk (uint _price, uint _volume ) public {\n\n        maxheap_insert( msg.sender, _price, _volume );\n\n    }\n//**********************************************//\n\n\n//************************************************************************//\n//*********************     function modifiers    ************************//\n//************************************************************************//\n\n\n\n//************************************************************************//\n//*********************     auxillary functions    ************************//\n//************************************************************************//\n\n\n//****************   ordertype function  *********************//\n    //ordertype order checks if the incoming order is a bid or ask\n    /*function ordertype ( bool _type ) private returns (bool success){\n\n        OrderStruct memory temp = a[i];    //\"!SYNTAX!\"\n        a[i] = a[j];\n        a[p] = temp;\n    }*/\n\n\n//****************   swap function  *********************//\n    //swap function swaps the elements i and j in the array list (i=k, j=p)\n    /*function swap(OrderStruct[] memory a, uint i, uint j ) public returns (bool success){\n\n        OrderStruct memory temp = a[i];    //\"!SYNTAX!\"\n        a[i] = a[j];\n        a[j] = temp;\n    }*/\n\n    /*function toy () public view returns (uint256)\n    {   \n        uint256 x = 2;\n        return x; \n    }*/\n\n//****************   BuyListpeak function  *********************//\n    //BuyListpeak function returns the highest priority element\n    //function BuyListpeak() public view returns (address _sender, uint256 _price, uint256 _volume){\n    function BuyListpeak() public view returns (uint256 _price){\n\n        //require(BuyList.length != 0, “BuyList length is 0”) //Shayan\n        if (BuyList.length == 0) { revert(); } //the delete function throws exception if the heap is empty\n        //_sender =  BuyList[0].Sender;\n        _price = BuyList[0].Price;\n        //_volume = BuyList[0].Volume;\n        //return (_sender, _price, _volume);\n        return(_price);\n    }\n\n//****************   SellListpeak function  *********************//\n    //SellListpeak function returns the highest priority element\n    function SellListpeak() public returns (address _sender, uint256 _price, uint256 _volume){\n\n        if (SellList.length == 0) { revert(); } //the delete function throws exception if the heap is empty\n        _sender =  SellList[0].Sender;\n        _price = SellList[0].Price;\n        _volume = SellList[0].Volume;\n        return (_sender, _price, _volume);\n    }\n\n\n\n\n//************************************************************************//\n//*********************     Maxheap (SellList)    ************************//\n//************************************************************************//\n\n\n//*******************  maxheap_heapifyUp () ***************************//\n    //this function is called everytime we insert a new element to the end of the array (aka a new sell order is submitted) and\n    //now the heap has to be sorted again\n    function maxheap_heapifyUp () internal {\n        uint k = SellList.length - 1;                   //k is set to be the last entry of the array (also heap) which is the element that's just added and has to be moved up\n        while (k > 0){                                  //while we havent reached to the top of the heap\n            uint p = (k-1)/2;                           //we need to compute the parent of this last element which is p = (k-1)/2\n            if (SellList[k].Price >= SellList[p].Price) //if the element is greater than its parent\n            {   //\"!SYNTAX!\"\n                //Orderbook_V9.swap(SellList, k, p);              //swap the element at index k with its parent\n                OrderStruct memory temp = SellList[k];    //\"!SYNTAX!\"//swap the element at index k with its parent\n                SellList[k] = SellList[p];\n                SellList[p] = temp;\n                k = p;                                  //k moves up one level\n            }\n            else {break;}                               //if not the break statement exits the loop (it continues until no element index k is not greater than its parent)\n        }\n    }\n//*******************  maxheap_heapifyDown () ***************************//\n    //when we want to remove an element from the heap we remove the root of the heap and add the last item\n    //to the root and reorder the heap again\n    function maxheap_heapifyDown () internal {\n        uint k =0;\n        uint leftchild = 2*k + 1;\n        while (leftchild < SellList.length)\n        {                                   //as long as the left child is within the array that heap is stored in\n            uint max = leftchild;\n            uint rightchild = leftchild + 1;                                     //rightchild = 2k+2\n\n            if (rightchild < SellList.length)                                       //if there is a rightchild\n            {\n                if (SellList[rightchild].Price >= SellList[leftchild].Price)    //then the right child and left child are compared\n                {\n                    max++;                                                       //now max is set to rightchild, otherwise max remains to be the leftchild\n                }\n            }\n\n        if (SellList[k].Price <= SellList[max].Price)                        //compares the k item with the max item and if k is smaller than its greatest children they are swapped\n        {\n            //swap k with its greatest children (max)\n            //\"!SYNTAX!\"\n            //Orderbook_V9.swap (SellList, k, max);\n            OrderStruct memory temp = SellList[k];    //\"!SYNTAX!\"//swap the element at index k with its parent\n            SellList[k] = SellList[max];\n            SellList[max] = temp;\n            k = max;                                                         //k is set to max\n            leftchild =2*k + 1;                                              //l is recompuetd in preparation for the next iteration\n        }\n        else{                                                               //if the k item is not smaller than the max item, heapifyDown should stop\n            break;\n            }\n        }\n    }\n\n//*******************  maxheap_insert () ***************************//\n    //the new item will be added to the end of the array list (a sell order is submitted)\n    //then heapified up with a call to heapifyUp method\n    function maxheap_insert (address _sender, uint256 _price, uint256 _volume) public\n    {\n        OrderStruct memory neworder = OrderStruct(_sender, _price ,_volume);\n        SellList.push(neworder);\n        maxheap_heapifyUp (); //\"!SYNTAX!\"\n    }\n\n//*******************  maxheap_delete () ***************************//\n    //the highest priority item will be removed from the list and is returned by the function\n    //then the heap is reordered uising the heapifyDown method\n    function maxheap_delete () public returns (address _sender, uint _price, uint _volume) \n    {\n        if (SellList.length == 0) { revert(); }                             //the delete function throws exception if the heap is empty\n        if (SellList.length == 1) {                                      // if the heap has only one items\n            OrderStruct memory result =  SellList[0];         //\"!SYNTAX!\"\n            delete SellList[0];                                          //the only element of the heap is removed and returned \"!SYNTAX!\"\n            _sender = result.Sender;\n            _price = result.Price;\n            _volume = result.Volume;\n            return(_sender,_price,_volume);\n        }\n\n        //if neither of these conditions are true, then there are at least 2 items in the heap and deletion proceeds\n        OrderStruct memory hold = SellList[0]; //the element on the of the heap is placed in the variable called hold\n        SellList[0] = SellList[SellList.length -1]; //the last elementof the heap is removed and written into the first position\n        delete SellList [SellList.length -1];\n        maxheap_heapifyDown(); //now the siftdown is called\n        return (hold.Sender, hold.Price, hold.Volume);\n    }\n\n//************************************************************************//\n//*********************     Minheap (BuyList)    ************************//\n//************************************************************************//\n\n\n//*******************  minheap_heapifyUp () ***************************//\n    //this function is called everytime we insert a new element to the end of the array (aka a new buy order is submitted) and\n    //now the heap has to be sorted again\n    function minheap_heapifyUp () internal {\n\n        uint k = BuyList.length - 1;                   //k is set to be the last entry of the array(also heap) which is the element that's just added and has to be moved up\n        while (k > 0){                                 //while we havent reached to the top of the heap\n            uint p = (k-1)/2;                          //we need to compute the parent of this last element which is p = (k-1)/2\n            if (BuyList[k].Price < BuyList[p].Price) //if the element is greater than its parent\n            {\n                //this. swap (BuyList, k, p); //swap k with its parent \"!SYNTAX!\"\n                k = p; //k moves up one level\n            }\n            else {break;} //if not the break statement exits the loop (it continues until no element index k is not greater than its parent)\n        }\n    }\n//*******************  minheap_heapifyDown () ***************************//\n    //when we want to remove an element from the heap we remove the root of the heap and add the last item\n    //to the root and reorder the heap again\n    function minheap_heapifyDown () internal {\n        uint k =0;\n        uint leftchild = 2*k + 1;\n        while (leftchild < BuyList.length){               //as long as the left child is within the array that heap is stored in\n            uint min = leftchild;\n            uint rightchild = leftchild + 1;              //rightchild = 2k+2\n\n            if (rightchild < BuyList.length)                //if there is a rightchild, then the right child and left child are compared\n            {\n                if (BuyList[rightchild].Price < BuyList[leftchild].Price)\n                {    min++;   }                               //now min is set to rightchild, otherwise min remains to be the leftchild\n            }\n\n            if (BuyList[min].Price <= BuyList[k].Price) //compares the k item with the max item and if its less they are swapped\n            {\n                //swap (BuyList, k, min); //swap k with its smaller children\n                \n                OrderStruct memory temp = BuyList[k];    //\"!SYNTAX!\"//swap the element at index k with its parent\n                BuyList[k] = BuyList[min];\n                BuyList[min] = temp;\n\n                k = min; //k is set to min\n                leftchild =2*k + 1; //l is recompuetd in preparation for the next iteration\n            }\n            else{ //if k item's smaller childer is not smaller than k item itself, heapifyDown should stop\n                break;\n            }\n        }\n    }\n//*******************  minheap_insert () ***************************//\n    //the new item will be added to the end of the array list (a buy order is submitted)\n    //then heapified up with a call to heapifyUp method\n    function minheap_insert (address _sender, uint256 _price, uint256 _volume) internal\n    {\n        OrderStruct memory neworder = OrderStruct(_sender, _price ,_volume); //\"!SYNTAX!\"\n        BuyList.push(neworder);\n        minheap_heapifyUp();                           //\"!SYNTAX!\"\n    }\n\n//*******************  minheap_delete () ***************************//\n    //the highest priority item (the smallest bid) will be removed from the list and is returned by the function\n    //then the heap is reordered uising the heapifyDown method\n    function minheap_delete () public returns (address, uint, uint)\n    {\n        if (BuyList.length == 0) { revert(); }                      //the delete function throws exception if the heap is empty\n        if (BuyList.length == 1) {                               // if the heap has only one item\n            OrderStruct memory result = BuyList[0];  //\"!SYNTAX!\"\n            delete BuyList[0];                                   //the only element of the heap is removed and returned  \"!SYNTAX!\"\n            return (result.Sender, result.Price, result.Volume);                                       // \"!SYNTAX!\"\n        }\n\n        //if neither of these conditions are true, then there are at least 2 items in the heap and deletion proceeds\n        OrderStruct memory hold = BuyList[0];                        //the element on the of the heap is placed in the variable called hold \"!SYNTAX!\"\n        BuyList[0] = BuyList[BuyList.length -1];                      //the last elementof the heap is removed and written into the first position\n        delete BuyList [BuyList.length -1];                   //\"!SYNTAX!\"\n        minheap_heapifyDown();                           //now the heapifyDown is called to restore the ordering of the heap \"!SYNTAX!\"\n        return (hold.Sender, hold.Price, hold.Volume);        //\"!SYNTAX!\"\n    }\n\n//************************************************************************//\n//************************************************************************//\n//************************************************************************//\n\n}\n",
  "sourcePath": "/home/mahsa/ProjectRepo/2020-Orderbook/Code/New-Truffle/contracts/CallMarket/Heap with Dynamic Array/Orderbook_V10.sol",
  "compiler": {
    "name": "solc",
    "version": "0.5.12+commit.7709ece9.Emscripten.clang"
  },
  "schemaVersion": "3.2.0",
  "updatedAt": "2020-06-10T20:06:40.987Z",
  "networkType": "ethereum",
  "devdoc": {
    "methods": {}
  },
  "userdoc": {
    "methods": {}
  }
}