{
  "contractName": "Orderbook_V12",
  "abi": [
    {
      "constant": true,
      "inputs": [
        {
          "internalType": "uint256",
          "name": "",
          "type": "uint256"
        }
      ],
      "name": "BuyList",
      "outputs": [
        {
          "internalType": "address",
          "name": "Sender",
          "type": "address"
        },
        {
          "internalType": "uint256",
          "name": "Price",
          "type": "uint256"
        },
        {
          "internalType": "uint256",
          "name": "Volume",
          "type": "uint256"
        }
      ],
      "payable": false,
      "stateMutability": "view",
      "type": "function"
    },
    {
      "constant": true,
      "inputs": [],
      "name": "CreationTime",
      "outputs": [
        {
          "internalType": "uint256",
          "name": "",
          "type": "uint256"
        }
      ],
      "payable": false,
      "stateMutability": "view",
      "type": "function"
    },
    {
      "constant": true,
      "inputs": [
        {
          "internalType": "uint256",
          "name": "",
          "type": "uint256"
        }
      ],
      "name": "SellList",
      "outputs": [
        {
          "internalType": "address",
          "name": "Sender",
          "type": "address"
        },
        {
          "internalType": "uint256",
          "name": "Price",
          "type": "uint256"
        },
        {
          "internalType": "uint256",
          "name": "Volume",
          "type": "uint256"
        }
      ],
      "payable": false,
      "stateMutability": "view",
      "type": "function"
    },
    {
      "constant": false,
      "inputs": [
        {
          "internalType": "uint256",
          "name": "_price",
          "type": "uint256"
        },
        {
          "internalType": "uint256",
          "name": "_volume",
          "type": "uint256"
        }
      ],
      "name": "submitBid",
      "outputs": [
        {
          "internalType": "bool",
          "name": "",
          "type": "bool"
        }
      ],
      "payable": false,
      "stateMutability": "nonpayable",
      "type": "function"
    },
    {
      "constant": false,
      "inputs": [
        {
          "internalType": "uint256",
          "name": "_price",
          "type": "uint256"
        },
        {
          "internalType": "uint256",
          "name": "_volume",
          "type": "uint256"
        }
      ],
      "name": "submitAsk",
      "outputs": [
        {
          "internalType": "bool",
          "name": "",
          "type": "bool"
        }
      ],
      "payable": false,
      "stateMutability": "nonpayable",
      "type": "function"
    },
    {
      "constant": true,
      "inputs": [],
      "name": "BuyListpeak",
      "outputs": [
        {
          "internalType": "address",
          "name": "",
          "type": "address"
        },
        {
          "internalType": "uint256",
          "name": "",
          "type": "uint256"
        },
        {
          "internalType": "uint256",
          "name": "",
          "type": "uint256"
        }
      ],
      "payable": false,
      "stateMutability": "view",
      "type": "function"
    },
    {
      "constant": true,
      "inputs": [],
      "name": "SellListpeak",
      "outputs": [
        {
          "internalType": "address",
          "name": "",
          "type": "address"
        },
        {
          "internalType": "uint256",
          "name": "",
          "type": "uint256"
        },
        {
          "internalType": "uint256",
          "name": "",
          "type": "uint256"
        }
      ],
      "payable": false,
      "stateMutability": "view",
      "type": "function"
    },
    {
      "constant": false,
      "inputs": [],
      "name": "maxheap_delete",
      "outputs": [
        {
          "internalType": "address",
          "name": "",
          "type": "address"
        },
        {
          "internalType": "uint256",
          "name": "",
          "type": "uint256"
        },
        {
          "internalType": "uint256",
          "name": "",
          "type": "uint256"
        }
      ],
      "payable": false,
      "stateMutability": "nonpayable",
      "type": "function"
    },
    {
      "constant": false,
      "inputs": [],
      "name": "minheap_delete",
      "outputs": [
        {
          "internalType": "address",
          "name": "",
          "type": "address"
        },
        {
          "internalType": "uint256",
          "name": "",
          "type": "uint256"
        },
        {
          "internalType": "uint256",
          "name": "",
          "type": "uint256"
        }
      ],
      "payable": false,
      "stateMutability": "nonpayable",
      "type": "function"
    }
  ],
  "bytecode": "0x60806040526103e760035534801561001657600080fd5b50611ba5806100266000396000f3fe608060405234801561001057600080fd5b50600436106100935760003560e01c80637288a28a116100665780637288a28a1461024057806390c6b18a14610290578063b821da1b146102ae578063bf0e40a6146102fe578063ff1369e21461035657610093565b80630def7a3b146100985780631646e893146100f05780631eae43811461016c5780637253aaf9146101e8575b600080fd5b6100a06103ae565b604051808473ffffffffffffffffffffffffffffffffffffffff1673ffffffffffffffffffffffffffffffffffffffff168152602001838152602001828152602001935050505060405180910390f35b61011c6004803603602081101561010657600080fd5b810190808035906020019092919050505061044d565b604051808473ffffffffffffffffffffffffffffffffffffffff1673ffffffffffffffffffffffffffffffffffffffff168152602001838152602001828152602001935050505060405180910390f35b6101986004803603602081101561018257600080fd5b81019080803590602001909291905050506104a4565b604051808473ffffffffffffffffffffffffffffffffffffffff1673ffffffffffffffffffffffffffffffffffffffff168152602001838152602001828152602001935050505060405180910390f35b6101f06104fb565b604051808473ffffffffffffffffffffffffffffffffffffffff1673ffffffffffffffffffffffffffffffffffffffff168152602001838152602001828152602001935050505060405180910390f35b6102766004803603604081101561025657600080fd5b81019080803590602001909291908035906020019092919050505061077b565b604051808215151515815260200191505060405180910390f35b61029861083b565b6040518082815260200191505060405180910390f35b6102e4600480360360408110156102c457600080fd5b810190808035906020019092919080359060200190929190505050610841565b604051808215151515815260200191505060405180910390f35b610306610900565b604051808473ffffffffffffffffffffffffffffffffffffffff1673ffffffffffffffffffffffffffffffffffffffff168152602001838152602001828152602001935050505060405180910390f35b61035e610b81565b604051808473ffffffffffffffffffffffffffffffffffffffff1673ffffffffffffffffffffffffffffffffffffffff168152602001838152602001828152602001935050505060405180910390f35b60008060008060008054905014156103c557600080fd5b600080815481106103d257fe5b906000526020600020906003020160000160009054906101000a900473ffffffffffffffffffffffffffffffffffffffff166000808154811061041157fe5b9060005260206000209060030201600101546000808154811061043057fe5b906000526020600020906003020160020154925092509250909192565b6001818154811061045a57fe5b90600052602060002090600302016000915090508060000160009054906101000a900473ffffffffffffffffffffffffffffffffffffffff16908060010154908060020154905083565b600081815481106104b157fe5b90600052602060002090600302016000915090508060000160009054906101000a900473ffffffffffffffffffffffffffffffffffffffff16908060010154908060020154905083565b600080600080600180549050141561051257600080fd5b6001808054905014156105eb57610527611a8d565b600160008154811061053557fe5b90600052602060002090600302016040518060600160405290816000820160009054906101000a900473ffffffffffffffffffffffffffffffffffffffff1673ffffffffffffffffffffffffffffffffffffffff1673ffffffffffffffffffffffffffffffffffffffff16815260200160018201548152602001600282015481525050905060018054809190600190036105cf9190611ac4565b5080600001518160200151826040015193509350935050610776565b6105f3611a8d565b600160008154811061060157fe5b90600052602060002090600302016040518060600160405290816000820160009054906101000a900473ffffffffffffffffffffffffffffffffffffffff1673ffffffffffffffffffffffffffffffffffffffff1673ffffffffffffffffffffffffffffffffffffffff1681526020016001820154815260200160028201548152505090506001808080549050038154811061069957fe5b906000526020600020906003020160016000815481106106b557fe5b90600052602060002090600302016000820160009054906101000a900473ffffffffffffffffffffffffffffffffffffffff168160000160006101000a81548173ffffffffffffffffffffffffffffffffffffffff021916908373ffffffffffffffffffffffffffffffffffffffff160217905550600182015481600101556002820154816002015590505060018054809190600190036107569190611ac4565b5061075f610c23565b806000015181602001518260400151935093509350505b909192565b60008060008054905014801561079657506000600180549050145b156107a357426004819055505b60b460045401421015806107ba57506103e8600354145b806107c857506107cf600254145b156107de576107d5610ed9565b50426004819055505b600060606107fe6107ee86610f0f565b6107f9600254610f0f565b61103c565b905061080981611104565b915061081633838661117d565b1561082f57600360008154809291906001900391905055505b60019250505092915050565b60045481565b60008060008054905014801561085c57506000600180549050145b1561086957426004819055505b60b4600454014210158061088057506103e8600354145b8061088e57506107cf600254145b156108a45761089b610ed9565b50426004819055505b600060606108c46108b486610f0f565b6108bf600254610f0f565b61103c565b90506108cf81611104565b91506108dc33838661125a565b156108f4576002600081548092919060010191905055505b60019250505092915050565b600080600080600080549050141561091757600080fd5b600160008054905014156109f05761092d611a8d565b6000808154811061093a57fe5b90600052602060002090600302016040518060600160405290816000820160009054906101000a900473ffffffffffffffffffffffffffffffffffffffff1673ffffffffffffffffffffffffffffffffffffffff1673ffffffffffffffffffffffffffffffffffffffff16815260200160018201548152602001600282015481525050905060008054809190600190036109d49190611ac4565b5080600001518160200151826040015193509350935050610b7c565b6109f8611a8d565b60008081548110610a0557fe5b90600052602060002090600302016040518060600160405290816000820160009054906101000a900473ffffffffffffffffffffffffffffffffffffffff1673ffffffffffffffffffffffffffffffffffffffff1673ffffffffffffffffffffffffffffffffffffffff168152602001600182015481526020016002820154815250509050600060016000805490500381548110610a9f57fe5b906000526020600020906003020160008081548110610aba57fe5b90600052602060002090600302016000820160009054906101000a900473ffffffffffffffffffffffffffffffffffffffff168160000160006101000a81548173ffffffffffffffffffffffffffffffffffffffff021916908373ffffffffffffffffffffffffffffffffffffffff16021790555060018201548160010155600282015481600201559050506000805480919060019003610b5b9190611ac4565b50610b64611337565b50806000015181602001518260400151935093509350505b909192565b6000806000806001805490501415610b9857600080fd5b6001600081548110610ba657fe5b906000526020600020906003020160000160009054906101000a900473ffffffffffffffffffffffffffffffffffffffff166001600081548110610be657fe5b9060005260206000209060030201600101546001600081548110610c0657fe5b906000526020600020906003020160020154925092509250909192565b600080905060006001826002020190505b600180549050811015610ed55760008190506000600183019050600180549050811015610ca95760018381548110610c6857fe5b90600052602060002090600302016001015460018281548110610c8757fe5b9060005260206000209060030201600101541115610ca85781806001019250505b5b60018281548110610cb657fe5b90600052602060002090600302016001015460018581548110610cd557fe5b9060005260206000209060030201600101541015610ec757610cf5611a8d565b60018581548110610d0257fe5b90600052602060002090600302016040518060600160405290816000820160009054906101000a900473ffffffffffffffffffffffffffffffffffffffff1673ffffffffffffffffffffffffffffffffffffffff1673ffffffffffffffffffffffffffffffffffffffff16815260200160018201548152602001600282015481525050905060018381548110610d9457fe5b906000526020600020906003020160018681548110610daf57fe5b90600052602060002090600302016000820160009054906101000a900473ffffffffffffffffffffffffffffffffffffffff168160000160006101000a81548173ffffffffffffffffffffffffffffffffffffffff021916908373ffffffffffffffffffffffffffffffffffffffff16021790555060018201548160010155600282015481600201559050508060018481548110610e4957fe5b906000526020600020906003020160008201518160000160006101000a81548173ffffffffffffffffffffffffffffffffffffffff021916908373ffffffffffffffffffffffffffffffffffffffff160217905550602082015181600101556040820151816002015590505082945060018560020201935050610ece565b5050610ed5565b5050610c34565b5050565b6000806000610ee89190611af6565b60016000610ef69190611af6565b6103e86002819055506107cf6003819055506001905090565b60606000821415610f57576040518060400160405280600181526020017f30000000000000000000000000000000000000000000000000000000000000008152509050611037565b600082905060005b60008214610f81578080600101915050600a8281610f7957fe5b049150610f5f565b6060816040519080825280601f01601f191660200182016040528015610fb65781602001600182028038833980820191505090505b50905060006001830390505b6000861461102f57600a8681610fd457fe5b0660300160f81b82828060019003935081518110610fee57fe5b60200101907effffffffffffffffffffffffffffffffffffffffffffffffffffffffffffff1916908160001a905350600a868161102757fe5b049550610fc2565b819450505050505b919050565b606082826040516020018083805190602001908083835b602083106110765780518252602082019150602081019050602083039250611053565b6001836020036101000a03801982511681845116808217855250505050505090500182805190602001908083835b602083106110c757805182526020820191506020810190506020830392506110a4565b6001836020036101000a03801982511681845116808217855250505050505090500192505050604051602081830303815290604052905092915050565b6000606082905060008060009050600091505b825182101561117257600083838151811061112e57fe5b602001015160f81c60f81b60f81c60ff16905060308110158015611153575060398111155b156111645760308103600a83020191505b508180600101925050611117565b809350505050919050565b6000611187611a8d565b60405180606001604052808673ffffffffffffffffffffffffffffffffffffffff1681526020018581526020018481525090506001819080600181540180825580915050906001820390600052602060002090600302016000909192909190915060008201518160000160006101000a81548173ffffffffffffffffffffffffffffffffffffffff021916908373ffffffffffffffffffffffffffffffffffffffff160217905550602082015181600101556040820151816002015550505061124e6115f4565b60019150509392505050565b6000611264611a8d565b60405180606001604052808673ffffffffffffffffffffffffffffffffffffffff1681526020018581526020018481525090506000819080600181540180825580915050906001820390600052602060002090600302016000909192909190915060008201518160000160006101000a81548173ffffffffffffffffffffffffffffffffffffffff021916908373ffffffffffffffffffffffffffffffffffffffff160217905550602082015181600101556040820151816002015550505061132b611840565b60019150509392505050565b6000806000905060006001826002020190505b6000805490508110156115eb57600081905060006001830190506000805490508110156113bf576000838154811061137e57fe5b9060005260206000209060030201600101546000828154811061139d57fe5b90600052602060002090600302016001015410156113be5781806001019250505b5b600084815481106113cc57fe5b906000526020600020906003020160010154600083815481106113eb57fe5b90600052602060002090600302016001015410156115dd5761140b611a8d565b6000858154811061141857fe5b90600052602060002090600302016040518060600160405290816000820160009054906101000a900473ffffffffffffffffffffffffffffffffffffffff1673ffffffffffffffffffffffffffffffffffffffff1673ffffffffffffffffffffffffffffffffffffffff168152602001600182015481526020016002820154815250509050600083815481106114aa57fe5b9060005260206000209060030201600086815481106114c557fe5b90600052602060002090600302016000820160009054906101000a900473ffffffffffffffffffffffffffffffffffffffff168160000160006101000a81548173ffffffffffffffffffffffffffffffffffffffff021916908373ffffffffffffffffffffffffffffffffffffffff1602179055506001820154816001015560028201548160020155905050806000848154811061155f57fe5b906000526020600020906003020160008201518160000160006101000a81548173ffffffffffffffffffffffffffffffffffffffff021916908373ffffffffffffffffffffffffffffffffffffffff1602179055506020820151816001015560408201518160020155905050829450600185600202019350506115e4565b50506115eb565b505061134a565b60019250505090565b6000600180805490500390505b600081111561183d5760006002600183038161161957fe5b0490506001818154811061162957fe5b9060005260206000209060030201600101546001838154811061164857fe5b906000526020600020906003020160010154111561183157611668611a8d565b6001838154811061167557fe5b90600052602060002090600302016040518060600160405290816000820160009054906101000a900473ffffffffffffffffffffffffffffffffffffffff1673ffffffffffffffffffffffffffffffffffffffff1673ffffffffffffffffffffffffffffffffffffffff1681526020016001820154815260200160028201548152505090506001828154811061170757fe5b90600052602060002090600302016001848154811061172257fe5b90600052602060002090600302016000820160009054906101000a900473ffffffffffffffffffffffffffffffffffffffff168160000160006101000a81548173ffffffffffffffffffffffffffffffffffffffff021916908373ffffffffffffffffffffffffffffffffffffffff160217905550600182015481600101556002820154816002015590505080600183815481106117bc57fe5b906000526020600020906003020160008201518160000160006101000a81548173ffffffffffffffffffffffffffffffffffffffff021916908373ffffffffffffffffffffffffffffffffffffffff160217905550602082015181600101556040820151816002015590505081925050611837565b5061183d565b50611601565b50565b600060016000805490500390505b6000811115611a8a5760006002600183038161186657fe5b0490506000818154811061187657fe5b9060005260206000209060030201600101546000838154811061189557fe5b9060005260206000209060030201600101541015611a7e576118b5611a8d565b600083815481106118c257fe5b90600052602060002090600302016040518060600160405290816000820160009054906101000a900473ffffffffffffffffffffffffffffffffffffffff1673ffffffffffffffffffffffffffffffffffffffff1673ffffffffffffffffffffffffffffffffffffffff1681526020016001820154815260200160028201548152505090506000828154811061195457fe5b90600052602060002090600302016000848154811061196f57fe5b90600052602060002090600302016000820160009054906101000a900473ffffffffffffffffffffffffffffffffffffffff168160000160006101000a81548173ffffffffffffffffffffffffffffffffffffffff021916908373ffffffffffffffffffffffffffffffffffffffff16021790555060018201548160010155600282015481600201559050508060008381548110611a0957fe5b906000526020600020906003020160008201518160000160006101000a81548173ffffffffffffffffffffffffffffffffffffffff021916908373ffffffffffffffffffffffffffffffffffffffff160217905550602082015181600101556040820151816002015590505081925050611a84565b50611a8a565b5061184e565b50565b6040518060600160405280600073ffffffffffffffffffffffffffffffffffffffff16815260200160008152602001600081525090565b815481835581811115611af157600302816003028360005260206000209182019101611af09190611b1a565b5b505050565b5080546000825560030290600052602060002090810190611b179190611b1a565b50565b611b6d91905b80821115611b6957600080820160006101000a81549073ffffffffffffffffffffffffffffffffffffffff02191690556001820160009055600282016000905550600301611b20565b5090565b9056fea265627a7a72315820163f4cbe9a5a07dce1d26260dc139d2c2b4bec20087dc1e4fe1d02a71cdf6bea64736f6c634300050c0032",
  "source": "pragma solidity >=0.4.22;\n//pragma experimental ABIEncoderV2;\n\n\ncontract Orderbook_V12{\n\n\n\n\n//************************String Converaion and Contcatenation************************//\n\n\nfunction str2uint (string memory s) internal pure returns (uint) {\n        bytes memory b = bytes(s);\n        uint i;\n        uint result = 0;\n        for (i = 0; i < b.length; i++) {\n            uint c = uint(uint8(b[i]));\n            if (c >= 48 && c <= 57) {\n                result = result * 10 + (c - 48);\n            }\n        }\n    \n    return result;\n    }\n\nfunction uint2str(uint _i) internal pure returns (string memory _uintAsString) {\n        if (_i == 0) {\n            return \"0\";\n        }\n        uint j = _i;\n        uint len;\n        while (j != 0) {\n            len++;\n            j /= 10;\n        }\n        bytes memory bstr = new bytes(len);\n        uint k = len - 1;\n        while (_i != 0) {\n            bstr[k--] = byte(uint8(48 + _i % 10));\n            _i /= 10;\n        }\n        return string(bstr);\n    }\n\n// Contcatenation of strings\n    /*function contcat(string memory a, string memory b, string memory c ) internal pure returns (string memory) {\n\n        return string (abi.encodePacked( a , b, c));\n\n\n    }*/\n    function contcat(string memory a, string memory b) internal pure returns (string memory) {\n\n        return string (abi.encodePacked( a , b));\n\n\n    }\n\n//*********************************************************************************//\n\n//**********************************************//\n//Every order has some attributes:\n    struct OrderStruct\n    {\n        address Sender;\n        uint256 Price;\n        uint256 Volume;\n\n    }\n\n//**********************************************//\n    OrderStruct[] public BuyList;  //The array that contains Bid OrderStructs (ascending (incremental))\n    OrderStruct[] public SellList; //The array that contains Ask OrderStructs (descending (deccremental) = maxheap)\n    \n    //mapping (address => OrderStruct[]) BuyListMappig;\n    \n    \n    uint256 BuyListCounter;  //the counter for BuyList which sorts the order incrementally\n    uint256 SellListCounter = 999;  //the counter for SellList which sorts the order decrementally\n    //enum States {Empty, NonEmpty} \n    //States public state;\n    uint256 public CreationTime;\n\n    \n\n//**********************************************//\n\n    \n    \n    \n    \n    \n//**********************************************//\n\n    //SellListpeak function returns the highest priority element\n    function Flush () internal returns (bool success){\n        \n        delete BuyList;\n        delete SellList;\n        BuyListCounter = 1000;\n        SellListCounter = 1999;\n        return true;    \n        \n    }\n    \n    \n    modifier isinitialized () {\n        if ( BuyList.length == 0 && SellList.length == 0){ \n            CreationTime = now; \n            \n        } \n        _;\n    }\n    modifier iftobeFlushed () {\n        if (now >= CreationTime + 3 minutes || SellListCounter == 1000 || BuyListCounter == 1999  ) { \n            \n            \n            Flush();\n            CreationTime = now;\n        }\n        \n        _;\n    }\n    \n    \n    \n//******************** submitBid function ********************//\n    //submitBid function calls the minheap_insert function    \n    function submitBid (uint256 _price, uint256 _volume ) public isinitialized() iftobeFlushed() returns (bool){\n        \n        /*uint256 _finalpriceUint;\n        string memory _finalpriceString; \n        \n        if ( BuyListCounter < 10){\n            _finalpriceString = contcat ( uint2str(_price), \"00\", uint2str (BuyListCounter));\n            _finalpriceUint = str2uint (_finalpriceString);\n        }\n        if ( 10 <= BuyListCounter && BuyListCounter < 100){\n            _finalpriceString = contcat ( uint2str(_price), \"0\", uint2str (BuyListCounter));\n            _finalpriceUint = str2uint (_finalpriceString);\n        }\n        if ( 100 <= BuyListCounter && BuyListCounter < 1000){\n            _finalpriceString = contcat2 ( uint2str(_price), uint2str (BuyListCounter));\n            _finalpriceUint = str2uint (_finalpriceString);\n        }*/\n        \n        \n        uint256 _finalpriceUint;\n        string memory _finalpriceString;\n        _finalpriceString = contcat ( uint2str(_price), uint2str (BuyListCounter));\n        _finalpriceUint = str2uint (_finalpriceString);\n        \n        if (minheap_insert( msg.sender, _finalpriceUint, _volume))\n        {\n                BuyListCounter ++;\n        }\n    \n        return true;\n    }\n//******************** submitask function ********************//\n    //submitAsk function calls the maxheap_insert function\n    function submitAsk (uint _price, uint _volume ) public isinitialized() iftobeFlushed() returns (bool) {\n\n        uint256 _finalpriceUint;\n        string memory _finalpriceString;\n        _finalpriceString = contcat ( uint2str(_price), uint2str (BuyListCounter));\n        _finalpriceUint = str2uint (_finalpriceString);\n        \n        if(maxheap_insert( msg.sender, _finalpriceUint, _volume))\n        {\n                SellListCounter --;\n        }\n        \n        return true;\n\n    }\n//**********************************************//\n\n\n//************************************************************************//\n//*********************     function modifiers    ************************//\n//************************************************************************//\n\n\n\n//************************************************************************//\n//*********************     auxillary functions    ************************//\n//************************************************************************//\n\n\n//****************   ordertype function  *********************//\n    //ordertype order checks if the incoming order is a bid or ask\n    /*function ordertype ( bool _type ) private returns (bool success){\n\n        OrderStruct memory temp = a[i];    //\"!SYNTAX!\"\n        a[i] = a[j];\n        a[p] = temp;\n    }*/\n\n\n//****************   swap function  *********************//\n    //swap function swaps the elements i and j in the array list (i=k, j=p)\n    /*function swap(OrderStruct[]  a, uint i, uint j ) internal returns (bool success){\n\n        OrderStruct memory temp = a[i];    //\"!SYNTAX!\"\n        a[i] = a[j];\n        a[j] = temp;\n    }*/\n\n\n//****************   BuyListpeak function  *********************//\n    //BuyListpeak function returns the highest priority element\n    function BuyListpeak() public view returns (address, uint256 , uint256){\n    //function BuyListpeak() public returns (uint256 _price){\n\n        //require(BuyList.length != 0, BuyList length is 0) //Shayan\n        if (BuyList.length == 0) { revert(); } //the delete function throws exception if the heap is empty\n        //_sender =  BuyList[0].Sender;\n        //_price = BuyList[0].Price;\n        //_volume = BuyList[0].Volume;\n        return (BuyList[0].Sender, BuyList[0].Price,BuyList[0].Volume );\n    }\n\n\n\n//****************   SellListpeak function  *********************//\n    //SellListpeak function returns the highest priority element\n    function SellListpeak() public view returns (address, uint256, uint256){\n\n        if (SellList.length == 0) { revert(); } //the delete function throws exception if the heap is empty\n        //_sender =  SellList[0].Sender;\n        //_price = SellList[0].Price;\n        //_volume = SellList[0].Volume;\n        return (SellList[0].Sender, SellList[0].Price, SellList[0].Volume);\n    }\n\n\n\n\n//************************************************************************//\n//*********************     Maxheap (SellList)    ************************//\n//************************************************************************//\n\n\n//*******************  maxheap_heapifyUp () ***************************//\n    //this function is called everytime we insert a new element to the end of the array (aka a new sell order is submitted) and\n    //now the heap has to be sorted again\n    function maxheap_heapifyUp () internal {\n        uint256 k = SellList.length - 1;                   //k is set to be the last entry of the array (also heap) which is the element that's just added and has to be moved up\n        while (k > 0){                                  //while we havent reached to the top of the heap\n            uint256 p = (k-1)/2;                           //we need to compute the parent of this last element which is p = (k-1)/2\n            if (SellList[k].Price > SellList[p].Price) //if the element is greater than its parent\n            {   //\"!SYNTAX!\"\n                //Orderbook_V9.swap(SellList, k, p);              //swap the element at index k with its parent\n                OrderStruct memory temp = SellList[k];    //\"!SYNTAX!\"//swap the element at index k with its parent\n                SellList[k] = SellList[p];\n                SellList[p] = temp;\n                k = p;                                  //k moves up one level\n            }\n            else {break;}                               //if not the break statement exits the loop (it continues until no element index k is not greater than its parent)\n        }\n    }\n//*******************  maxheap_heapifyDown () ***************************//\n    //when we want to remove an element from the heap we remove the root of the heap and add the last item\n    //to the root and reorder the heap again\n    function maxheap_heapifyDown () internal {\n        uint256 k =0;\n        uint256 leftchild = 2*k + 1;\n        while (leftchild < SellList.length)\n        {                                   //as long as the left child is within the array that heap is stored in\n            uint max = leftchild;\n            uint rightchild = leftchild + 1;                                     //rightchild = 2k+2\n\n            if (rightchild < SellList.length)                                       //if there is a rightchild\n            {\n                if (SellList[rightchild].Price > SellList[leftchild].Price)    //then the right child and left child are compared\n                {\n                    max++;                                                       //now max is set to rightchild, otherwise max remains to be the leftchild\n                }\n            }\n\n        if (SellList[k].Price < SellList[max].Price)                        //compares the k item with the max item and if k is smaller than its greatest children they are swapped\n        {\n            //swap k with its greatest children (max)\n            //\"!SYNTAX!\"\n            //Orderbook_V9.swap (SellList, k, max);\n            OrderStruct memory temp = SellList[k];    //\"!SYNTAX!\"//swap the element at index k with its parent\n            SellList[k] = SellList[max];\n            SellList[max] = temp;\n            k = max;                                                         //k is set to max\n            leftchild =2*k + 1;                                              //l is recompuetd in preparation for the next iteration\n        }\n        else{                                                               //if the k item is not smaller than the max item, heapifyDown should stop\n            break;\n            }\n        }\n    }\n\n//*******************  maxheap_insert () ***************************//\n    //the new item will be added to the end of the array list (a sell order is submitted)\n    //then heapified up with a call to heapifyUp method\n    function maxheap_insert (address _sender, uint256 _price, uint256 _volume) internal returns (bool)\n    {\n        OrderStruct memory neworder = OrderStruct(_sender, _price ,_volume);\n        SellList.push(neworder);\n        maxheap_heapifyUp ();\n        return(true);\n    }\n\n//*******************  maxheap_delete () ***************************//\n    //the highest priority item will be removed from the list and is returned by the function\n    //then the heap is reordered uising the heapifyDown method\n    function maxheap_delete () public returns (address, uint256, uint256) \n    {\n        if (SellList.length == 0) { revert(); }                             //the delete function throws exception if the heap is empty\n        if (SellList.length == 1) {                                      // if the heap has only one items\n            OrderStruct memory result =  SellList[0];         //\"!SYNTAX!\"\n            //delete SellList[0];  \n            SellList.length--;                                        //the only element of the heap is removed and returned \"!SYNTAX!\"\n            //_sender = result.Sender;\n            //_price = result.Price;\n            //_volume = result.Volume;\n            return(result.Sender,result.Price,result.Volume);\n        }\n\n        //if neither of these conditions are true, then there are at least 2 items in the heap and deletion proceeds\n        OrderStruct memory result = SellList[0]; //the element on the of the heap is placed in the variable called hold\n        SellList[0] = SellList[SellList.length -1]; //the last elementof the heap is removed and written into the first position\n        //delete SellList [SellList.length -1];\n        SellList.length--;\n        maxheap_heapifyDown(); //now the siftdown is called\n        return (result.Sender,result.Price,result.Volume);\n    }\n\n//************************************************************************//\n//*********************     Minheap (BuyList)    ************************//\n//************************************************************************//\n\n\n//*******************  minheap_heapifyUp () ***************************//\n    //this function is called everytime we insert a new element to the end of the array (aka a new buy order is submitted) and\n    //now the heap has to be sorted again\n    function minheap_heapifyUp () internal {\n\n        uint256 k = BuyList.length - 1;                   //k is set to be the last entry of the array(also heap) which is the element that's just added and has to be moved up\n        while (k > 0){                                 //while we havent reached to the top of the heap\n            uint256 p = (k-1)/2;                          //we need to compute the parent of this last element which is p = (k-1)/2\n            if (BuyList[k].Price < BuyList[p].Price) //if the element is greater than its parent\n            { \n                //swap (BuyList, k, p); //swap k with its parent \"!SYNTAX!\"\n            \n                OrderStruct memory temp = BuyList[k];    //\"!SYNTAX!\"//swap the element at index k with its parent\n                BuyList[k] = BuyList[p];\n                BuyList[p] = temp;\n                \n                k = p; //k moves up one level\n            }\n            else {break;} //if not the break statement exits the loop (it continues until no element index k is not greater than its parent)\n        }\n    }\n//*******************  minheap_heapifyDown () ***************************//\n    //when we want to remove an element from the heap we remove the root of the heap and add the last item\n    //to the root and reorder the heap again\n    function minheap_heapifyDown () internal returns (bool) {\n        uint256 k =0;\n        uint256 leftchild = 2*k + 1;\n        while (leftchild < BuyList.length){               //as long as the left child is within the array that heap is stored in\n            uint256 min = leftchild;\n            uint256 rightchild = leftchild + 1;              //rightchild = 2k+2\n\n            if (rightchild < BuyList.length)                //if there is a rightchild, then the right child and left child are compared\n            {\n                if (BuyList[rightchild].Price < BuyList[leftchild].Price)\n                {    min++;   }                               //now min is set to rightchild, otherwise min remains to be the leftchild\n            }\n\n            if (BuyList[min].Price < BuyList[k].Price) //compares the k item with the max item and if its less they are swapped\n            {\n                //swap (BuyList, k, min); //swap k with its smaller children\n                \n                OrderStruct memory temp = BuyList[k];    //\"!SYNTAX!\"//swap the element at index k with its parent\n                BuyList[k] = BuyList[min];\n                BuyList[min] = temp;\n\n                k = min; //k is set to min\n                leftchild = 2*k + 1; //l is recompuetd in preparation for the next iteration\n            }\n            else{ //if k item's smaller childer is not smaller than k item itself, heapifyDown should stop\n                break;\n            }\n\n        }\n        return true;\n    }\n//*******************  minheap_insert () ***************************//\n    //the new item will be added to the end of the array list (a buy order is submitted)\n    //then heapified up with a call to heapifyUp method\n    function minheap_insert (address _sender, uint256 _price, uint256 _volume) internal returns (bool)\n    {\n        OrderStruct memory neworder = OrderStruct(_sender, _price ,_volume); //\"!SYNTAX!\"\n        BuyList.push(neworder);\n        minheap_heapifyUp(); //\"!SYNTAX!\"\n        return true;\n        //uint256 x = 3;\n        //return x;\n    }\n\n//*******************  minheap_delete () ***************************//\n    //the highest priority item (the smallest bid) will be removed from the list and is returned by the function\n    //then the heap is reordered uising the heapifyDown method\n    function minheap_delete () public returns (address, uint256, uint256)\n    //function minheap_delete () public view returns (uint256 _price)\n    {\n        if (BuyList.length == 0) { revert(); }                      //the delete function throws exception if the heap is empty\n        if (BuyList.length == 1) {                               // if the heap has only one item\n            OrderStruct memory result = BuyList[0];  //\"!SYNTAX!\"\n            //delete BuyList[0];                                   //the only element of the heap is removed and returned  \"!SYNTAX!\"\n            BuyList.length--;   \n            return (result.Sender, result.Price, result.Volume);                                       // \"!SYNTAX!\"\n        }\n\n        //if neither of these conditions are true, then there are at least 2 items in the heap and deletion proceeds\n        //_sender = BuyList[0].Sender;\n        //_price = BuyList[0].Price;\n       // _volume = BuyList[0].Volume;\n        OrderStruct memory result = BuyList[0];\n        //OrderStruct memory hold = BuyList[0];                        //the element on the of the heap is placed in the variable called hold \"!SYNTAX!\"\n        BuyList[0] = BuyList[BuyList.length -1];                      //the last elementof the heap is removed and written into the first position\n        //delete BuyList[BuyList.length -1]; \n        BuyList.length--;                  //\"!SYNTAX!\"\n        minheap_heapifyDown();                           //now the heapifyDown is called to restore the ordering of the heap \"!SYNTAX!\"\n        return(result.Sender, result.Price, result.Volume);        //\"!SYNTAX!\"\n    }\n\n//************************************************************************//\n//************************************************************************//\n//************************************************************************//\n\n}\n",
  "sourcePath": "/Users/mahsamoosavi/Documents/GitHub/2020-Orderbook/Code/New-Truffle/contracts/CallMarket/Heap with Dynamic Array/Orderbook_V12.sol",
  "compiler": {
    "name": "solc",
    "version": "0.5.12+commit.7709ece9.Emscripten.clang"
  },
  "schemaVersion": "3.2.0",
  "updatedAt": "2020-06-10T16:31:46.344Z",
  "networkType": "ethereum",
  "devdoc": {
    "methods": {}
  },
  "userdoc": {
    "methods": {}
  }
}