{
  "contractName": "Orderbook_V14",
  "abi": [
    {
      "anonymous": false,
      "inputs": [
        {
          "indexed": false,
          "internalType": "address",
          "name": "_sender",
          "type": "address"
        },
        {
          "indexed": false,
          "internalType": "uint256",
          "name": "_price",
          "type": "uint256"
        },
        {
          "indexed": false,
          "internalType": "uint256",
          "name": "_volume",
          "type": "uint256"
        }
      ],
      "name": "LogBuyList",
      "type": "event"
    },
    {
      "constant": true,
      "inputs": [
        {
          "internalType": "uint256",
          "name": "",
          "type": "uint256"
        }
      ],
      "name": "Auctions",
      "outputs": [
        {
          "internalType": "uint256",
          "name": "CreationTime",
          "type": "uint256"
        },
        {
          "internalType": "uint256",
          "name": "NumOrders",
          "type": "uint256"
        },
        {
          "internalType": "enum Orderbook_V14.States",
          "name": "state",
          "type": "uint8"
        },
        {
          "internalType": "bool",
          "name": "isValue",
          "type": "bool"
        },
        {
          "internalType": "uint256",
          "name": "BuyListCounter",
          "type": "uint256"
        },
        {
          "internalType": "uint256",
          "name": "SellListCounter",
          "type": "uint256"
        },
        {
          "internalType": "address",
          "name": "Token",
          "type": "address"
        }
      ],
      "payable": false,
      "stateMutability": "view",
      "type": "function"
    },
    {
      "constant": true,
      "inputs": [
        {
          "internalType": "address",
          "name": "",
          "type": "address"
        },
        {
          "internalType": "address",
          "name": "",
          "type": "address"
        }
      ],
      "name": "TokenBalance",
      "outputs": [
        {
          "internalType": "uint256",
          "name": "",
          "type": "uint256"
        }
      ],
      "payable": false,
      "stateMutability": "view",
      "type": "function"
    },
    {
      "constant": true,
      "inputs": [],
      "name": "biddingTime",
      "outputs": [
        {
          "internalType": "uint256",
          "name": "",
          "type": "uint256"
        }
      ],
      "payable": false,
      "stateMutability": "view",
      "type": "function"
    },
    {
      "constant": false,
      "inputs": [
        {
          "internalType": "address",
          "name": "_token",
          "type": "address"
        },
        {
          "internalType": "uint256",
          "name": "_amount",
          "type": "uint256"
        }
      ],
      "name": "DepositToken",
      "outputs": [
        {
          "internalType": "bool",
          "name": "",
          "type": "bool"
        }
      ],
      "payable": false,
      "stateMutability": "nonpayable",
      "type": "function"
    },
    {
      "constant": false,
      "inputs": [],
      "name": "DepositEther",
      "outputs": [
        {
          "internalType": "bool",
          "name": "",
          "type": "bool"
        }
      ],
      "payable": true,
      "stateMutability": "payable",
      "type": "function"
    },
    {
      "constant": false,
      "inputs": [
        {
          "internalType": "address",
          "name": "_token",
          "type": "address"
        }
      ],
      "name": "OpenMarket",
      "outputs": [
        {
          "internalType": "uint256",
          "name": "_AuctionID",
          "type": "uint256"
        }
      ],
      "payable": false,
      "stateMutability": "nonpayable",
      "type": "function"
    },
    {
      "constant": false,
      "inputs": [
        {
          "internalType": "uint256",
          "name": "_AuctionID",
          "type": "uint256"
        }
      ],
      "name": "CloseMarket",
      "outputs": [
        {
          "internalType": "bool",
          "name": "",
          "type": "bool"
        }
      ],
      "payable": false,
      "stateMutability": "nonpayable",
      "type": "function"
    },
    {
      "constant": false,
      "inputs": [
        {
          "internalType": "uint256",
          "name": "_AuctionID",
          "type": "uint256"
        }
      ],
      "name": "MatchOrders",
      "outputs": [
        {
          "internalType": "bool",
          "name": "",
          "type": "bool"
        }
      ],
      "payable": false,
      "stateMutability": "nonpayable",
      "type": "function"
    },
    {
      "constant": false,
      "inputs": [
        {
          "internalType": "address",
          "name": "_token",
          "type": "address"
        }
      ],
      "name": "claimTokens",
      "outputs": [
        {
          "internalType": "bool",
          "name": "",
          "type": "bool"
        }
      ],
      "payable": false,
      "stateMutability": "nonpayable",
      "type": "function"
    },
    {
      "constant": false,
      "inputs": [],
      "name": "claimEther",
      "outputs": [
        {
          "internalType": "bool",
          "name": "",
          "type": "bool"
        }
      ],
      "payable": false,
      "stateMutability": "nonpayable",
      "type": "function"
    },
    {
      "constant": false,
      "inputs": [
        {
          "internalType": "uint256",
          "name": "_AuctionID",
          "type": "uint256"
        },
        {
          "internalType": "uint256",
          "name": "_numofEthers",
          "type": "uint256"
        },
        {
          "internalType": "uint256",
          "name": "_volume",
          "type": "uint256"
        }
      ],
      "name": "submitBid",
      "outputs": [
        {
          "internalType": "bool",
          "name": "",
          "type": "bool"
        }
      ],
      "payable": false,
      "stateMutability": "nonpayable",
      "type": "function"
    },
    {
      "constant": false,
      "inputs": [
        {
          "internalType": "uint256",
          "name": "_AuctionID",
          "type": "uint256"
        },
        {
          "internalType": "uint256",
          "name": "_numofTokens",
          "type": "uint256"
        },
        {
          "internalType": "uint256",
          "name": "_volume",
          "type": "uint256"
        }
      ],
      "name": "submitAsk",
      "outputs": [
        {
          "internalType": "bool",
          "name": "",
          "type": "bool"
        }
      ],
      "payable": false,
      "stateMutability": "nonpayable",
      "type": "function"
    },
    {
      "constant": true,
      "inputs": [
        {
          "internalType": "uint256",
          "name": "_AuctionID",
          "type": "uint256"
        }
      ],
      "name": "BuyListpeak",
      "outputs": [
        {
          "components": [
            {
              "internalType": "address",
              "name": "Sender",
              "type": "address"
            },
            {
              "internalType": "uint256",
              "name": "Price",
              "type": "uint256"
            },
            {
              "internalType": "uint256",
              "name": "AuxPrice",
              "type": "uint256"
            },
            {
              "internalType": "uint256",
              "name": "Volume",
              "type": "uint256"
            }
          ],
          "internalType": "struct Orderbook_V14.OrderStruct",
          "name": "",
          "type": "tuple"
        }
      ],
      "payable": false,
      "stateMutability": "view",
      "type": "function"
    },
    {
      "constant": true,
      "inputs": [
        {
          "internalType": "uint256",
          "name": "_AuctionID",
          "type": "uint256"
        }
      ],
      "name": "SellListpeak",
      "outputs": [
        {
          "components": [
            {
              "internalType": "address",
              "name": "Sender",
              "type": "address"
            },
            {
              "internalType": "uint256",
              "name": "Price",
              "type": "uint256"
            },
            {
              "internalType": "uint256",
              "name": "AuxPrice",
              "type": "uint256"
            },
            {
              "internalType": "uint256",
              "name": "Volume",
              "type": "uint256"
            }
          ],
          "internalType": "struct Orderbook_V14.OrderStruct",
          "name": "",
          "type": "tuple"
        }
      ],
      "payable": false,
      "stateMutability": "view",
      "type": "function"
    },
    {
      "constant": false,
      "inputs": [
        {
          "internalType": "uint256",
          "name": "_AuctionID",
          "type": "uint256"
        }
      ],
      "name": "ReadBuyList",
      "outputs": [],
      "payable": false,
      "stateMutability": "nonpayable",
      "type": "function"
    }
  ],
  "bytecode": "0x608060405261012c60025534801561001657600080fd5b50612e19806100266000396000f3fe6080604052600436106100e85760003560e01c80635093803f1161008a578063bbc0c87311610059578063bbc0c87314610347578063d074a38d14610384578063df8de3e7146103af578063e8cd181f146103ec576100e8565b80635093803f1461027957806355291dbd146102b65780638401d05a146102e15780638949f0911461031e576100e8565b8063416f222a116100c6578063416f222a1461018557806347ea5004146101c2578063488e0f59146101ff578063506c24ae1461023c576100e8565b8063253a96e9146100ed5780632d0c0a881461010b5780632e00af8d14610148575b600080fd5b6100f561042f565b6040516101029190612ba7565b60405180910390f35b34801561011757600080fd5b50610132600480360361012d91908101906128e0565b610485565b60405161013f9190612ba7565b60405180910390f35b34801561015457600080fd5b5061016f600480360361016a9190810190612945565b6105b3565b60405161017c9190612ba7565b60405180910390f35b34801561019157600080fd5b506101ac60048036036101a7919081019061296e565b610843565b6040516101b99190612ba7565b60405180910390f35b3480156101ce57600080fd5b506101e960048036036101e491908101906128a4565b610acd565b6040516101f69190612bfd565b60405180910390f35b34801561020b57600080fd5b5061022660048036036102219190810190612945565b610af2565b6040516102339190612be2565b60405180910390f35b34801561024857600080fd5b50610263600480360361025e9190810190612945565b610bd7565b6040516102709190612be2565b60405180910390f35b34801561028557600080fd5b506102a0600480360361029b919081019061287b565b610cbc565b6040516102ad9190612bfd565b60405180910390f35b3480156102c257600080fd5b506102cb610dff565b6040516102d89190612ba7565b60405180910390f35b3480156102ed57600080fd5b5061030860048036036103039190810190612945565b610f24565b6040516103159190612ba7565b60405180910390f35b34801561032a57600080fd5b5061034560048036036103409190810190612945565b611022565b005b34801561035357600080fd5b5061036e6004803603610369919081019061296e565b61114b565b60405161037b9190612ba7565b60405180910390f35b34801561039057600080fd5b506103996114b6565b6040516103a69190612bfd565b60405180910390f35b3480156103bb57600080fd5b506103d660048036036103d1919081019061287b565b6114bc565b6040516103e39190612ba7565b60405180910390f35b3480156103f857600080fd5b50610413600480360361040e9190810190612945565b6116e1565b6040516104269796959493929190612c18565b60405180910390f35b600034600460003373ffffffffffffffffffffffffffffffffffffffff1673ffffffffffffffffffffffffffffffffffffffff168152602001908152602001600020600082825401925050819055506001905090565b60008273ffffffffffffffffffffffffffffffffffffffff166323b872dd3330856040518463ffffffff1660e01b81526004016104c493929190612b10565b602060405180830381600087803b1580156104de57600080fd5b505af11580156104f2573d6000803e3d6000fd5b505050506040513d601f19601f82011682018060405250610516919081019061291c565b61051f57600080fd5b81600360003373ffffffffffffffffffffffffffffffffffffffff1673ffffffffffffffffffffffffffffffffffffffff16815260200190815260200160002060008573ffffffffffffffffffffffffffffffffffffffff1673ffffffffffffffffffffffffffffffffffffffff168152602001908152602001600020600082825401925050819055506001905092915050565b60008160028060028111156105c457fe5b6001600084815260200190815260200160002060020160009054906101000a900460ff1660028111156105f357fe5b146105fd57600080fd5b600080600061060b87610af2565b6020015161061888610bd7565b60200151106108395761062a87610bd7565b60200151925061063987610af2565b6020015191506106a561064b88610af2565b6000015161065889610bd7565b60000151600160008b815260200190815260200160002060070160009054906101000a900473ffffffffffffffffffffffffffffffffffffffff1661069c8b610bd7565b6060015161175d565b61070b6106b188610bd7565b600001516106be89610af2565b60000151600160008b815260200190815260200160002060070160009054906101000a900473ffffffffffffffffffffffffffffffffffffffff166107028b610af2565b60200151611936565b6000828403141561071b57600080fd5b818303600460004173ffffffffffffffffffffffffffffffffffffffff1673ffffffffffffffffffffffffffffffffffffffff16815260200190815260200160002060008282540192505081905550600460004173ffffffffffffffffffffffffffffffffffffffff1673ffffffffffffffffffffffffffffffffffffffff1681526020019081526020016000205490506000600460004173ffffffffffffffffffffffffffffffffffffffff1673ffffffffffffffffffffffffffffffffffffffff168152602001908152602001600020819055504173ffffffffffffffffffffffffffffffffffffffff166108fc829081150290604051600060405180830381858888f19350505050158015610837573d6000803e3d6000fd5b505b5050505050919050565b600083600015156001600083815260200190815260200160002060020160019054906101000a900460ff16151514156108af5760006001600083815260200190815260200160002060020160006101000a81548160ff021916908360028111156108a957fe5b02179055505b600254600160008381526020019081526020016000206000015401421015806108ef57506103e86001600083815260200190815260200160002060010154145b156109375760026001600083815260200190815260200160002060020160006101000a81548160ff0219169083600281111561092757fe5b021790555061093581610f24565b505b84600180600281111561094657fe5b6001600084815260200190815260200160002060020160009054906101000a900460ff16600281111561097557fe5b1461097f57600080fd5b858502600460003373ffffffffffffffffffffffffffffffffffffffff1673ffffffffffffffffffffffffffffffffffffffff1681526020019081526020016000205410156109cd57600080fd5b60006060610a016109dd89611a58565b6109fc600160008d815260200190815260200160002060030154611a58565b611b85565b9050610a0c81611bb1565b9150610a1b89338a858b611c2a565b15610abd57600160008a81526020019081526020016000206003016000815480929190600190039190505550600160008a815260200190815260200160002060010160008154809291906001019190505550878702600460003373ffffffffffffffffffffffffffffffffffffffff1673ffffffffffffffffffffffffffffffffffffffff168152602001908152602001600020600082825403925050819055505b6001955050505050509392505050565b6003602052816000526040600020602052806000526040600020600091509150505481565b610afa6127fe565b600060016000848152602001908152602001600020600601805490501415610b2157600080fd5b60016000838152602001908152602001600020600601600081548110610b4357fe5b90600052602060002090600402016040518060800160405290816000820160009054906101000a900473ffffffffffffffffffffffffffffffffffffffff1673ffffffffffffffffffffffffffffffffffffffff1673ffffffffffffffffffffffffffffffffffffffff16815260200160018201548152602001600282015481526020016003820154815250509050919050565b610bdf6127fe565b600060016000848152602001908152602001600020600501805490501415610c0657600080fd5b60016000838152602001908152602001600020600501600081548110610c2857fe5b90600052602060002090600402016040518060800160405290816000820160009054906101000a900473ffffffffffffffffffffffffffffffffffffffff1673ffffffffffffffffffffffffffffffffffffffff1673ffffffffffffffffffffffffffffffffffffffff16815260200160018201548152602001600282015481526020016003820154815250509050919050565b600080600081548092919060010191905055905042600160008381526020019081526020016000206000018190555060006001600083815260200190815260200160002060010181905550600180600083815260200190815260200160002060020160006101000a81548160ff02191690836002811115610d3957fe5b0217905550600180600083815260200190815260200160002060020160016101000a81548160ff0219169083151502179055506103e7600160008381526020019081526020016000206003018190555060006001600083815260200190815260200160002060040181905550816001600083815260200190815260200160002060070160006101000a81548173ffffffffffffffffffffffffffffffffffffffff021916908373ffffffffffffffffffffffffffffffffffffffff160217905550919050565b600080600460003373ffffffffffffffffffffffffffffffffffffffff1673ffffffffffffffffffffffffffffffffffffffff1681526020019081526020016000205411610e4c57600080fd5b6000600460003373ffffffffffffffffffffffffffffffffffffffff1673ffffffffffffffffffffffffffffffffffffffff1681526020019081526020016000205490506000600460003373ffffffffffffffffffffffffffffffffffffffff1673ffffffffffffffffffffffffffffffffffffffff168152602001908152602001600020819055503373ffffffffffffffffffffffffffffffffffffffff166108fc829081150290604051600060405180830381858888f19350505050158015610f1b573d6000803e3d6000fd5b50600191505090565b600081600015156001600083815260200190815260200160002060020160019054906101000a900460ff1615151415610f905760006001600083815260200190815260200160002060020160006101000a81548160ff02191690836002811115610f8a57fe5b02179055505b60025460016000838152602001908152602001600020600001540142101580610fd057506103e86001600083815260200190815260200160002060010154145b156110185760026001600083815260200190815260200160002060020160006101000a81548160ff0219169083600281111561100857fe5b021790555061101681610f24565b505b6001915050919050565b60008090505b6001600083815260200190815260200160002060050180549050811015611147577f48c9ef4b22c4620cffddc88ced9ac3dffe0e51f01c430f0497eceed104606a5a60016000848152602001908152602001600020600501828154811061108b57fe5b906000526020600020906004020160000160009054906101000a900473ffffffffffffffffffffffffffffffffffffffff166001600085815260200190815260200160002060050183815481106110de57fe5b90600052602060002090600402016001015460016000868152602001908152602001600020600501848154811061111157fe5b90600052602060002090600402016003015460405161113293929190612b70565b60405180910390a18080600101915050611028565b5050565b600083600015156001600083815260200190815260200160002060020160019054906101000a900460ff16151514156111b75760006001600083815260200190815260200160002060020160006101000a81548160ff021916908360028111156111b157fe5b02179055505b600254600160008381526020019081526020016000206000015401421015806111f757506103e86001600083815260200190815260200160002060010154145b1561123f5760026001600083815260200190815260200160002060020160006101000a81548160ff0219169083600281111561122f57fe5b021790555061123d81610f24565b505b84600180600281111561124e57fe5b6001600084815260200190815260200160002060020160009054906101000a900460ff16600281111561127d57fe5b1461128757600080fd5b84600360003373ffffffffffffffffffffffffffffffffffffffff1673ffffffffffffffffffffffffffffffffffffffff1681526020019081526020016000206000600160008b815260200190815260200160002060070160009054906101000a900473ffffffffffffffffffffffffffffffffffffffff1673ffffffffffffffffffffffffffffffffffffffff1673ffffffffffffffffffffffffffffffffffffffff16815260200190815260200160002054101561134657600080fd5b6000606061137a61135689611a58565b611375600160008d815260200190815260200160002060040154611a58565b611b85565b905061138581611bb1565b915061139489338a858b611e22565b156114a657600160008a815260200190815260200160002060040160008154809291906001019190505550600160008a81526020019081526020016000206001016000815480929190600101919050555086600360003373ffffffffffffffffffffffffffffffffffffffff1673ffffffffffffffffffffffffffffffffffffffff1681526020019081526020016000206000600160008d815260200190815260200160002060070160009054906101000a900473ffffffffffffffffffffffffffffffffffffffff1673ffffffffffffffffffffffffffffffffffffffff1673ffffffffffffffffffffffffffffffffffffffff168152602001908152602001600020600082825403925050819055505b6001955050505050509392505050565b60025481565b600080600360003373ffffffffffffffffffffffffffffffffffffffff1673ffffffffffffffffffffffffffffffffffffffff16815260200190815260200160002060008473ffffffffffffffffffffffffffffffffffffffff1673ffffffffffffffffffffffffffffffffffffffff168152602001908152602001600020541161154657600080fd5b6000600360003373ffffffffffffffffffffffffffffffffffffffff1673ffffffffffffffffffffffffffffffffffffffff16815260200190815260200160002060008473ffffffffffffffffffffffffffffffffffffffff1673ffffffffffffffffffffffffffffffffffffffff1681526020019081526020016000205490506000600360003373ffffffffffffffffffffffffffffffffffffffff1673ffffffffffffffffffffffffffffffffffffffff16815260200190815260200160002060008573ffffffffffffffffffffffffffffffffffffffff1673ffffffffffffffffffffffffffffffffffffffff168152602001908152602001600020819055508273ffffffffffffffffffffffffffffffffffffffff1663a9059cbb33836040518363ffffffff1660e01b8152600401611684929190612b47565b602060405180830381600087803b15801561169e57600080fd5b505af11580156116b2573d6000803e3d6000fd5b505050506040513d601f19601f820116820180604052506116d6919081019061291c565b506001915050919050565b60016020528060005260406000206000915090508060000154908060010154908060020160009054906101000a900460ff16908060020160019054906101000a900460ff16908060030154908060040154908060070160009054906101000a900473ffffffffffffffffffffffffffffffffffffffff16905087565b80600360008673ffffffffffffffffffffffffffffffffffffffff1673ffffffffffffffffffffffffffffffffffffffff16815260200190815260200160002060008473ffffffffffffffffffffffffffffffffffffffff1673ffffffffffffffffffffffffffffffffffffffff16815260200190815260200160002054101561181c576040517f08c379a000000000000000000000000000000000000000000000000000000000815260040161181390612bc2565b60405180910390fd5b80600360008673ffffffffffffffffffffffffffffffffffffffff1673ffffffffffffffffffffffffffffffffffffffff16815260200190815260200160002060008473ffffffffffffffffffffffffffffffffffffffff1673ffffffffffffffffffffffffffffffffffffffff1681526020019081526020016000206000828254039250508190555080600360008573ffffffffffffffffffffffffffffffffffffffff1673ffffffffffffffffffffffffffffffffffffffff16815260200190815260200160002060008473ffffffffffffffffffffffffffffffffffffffff1673ffffffffffffffffffffffffffffffffffffffff1681526020019081526020016000206000828254019250508190555050505050565b80600460008673ffffffffffffffffffffffffffffffffffffffff1673ffffffffffffffffffffffffffffffffffffffff1681526020019081526020016000205410156119b8576040517f08c379a00000000000000000000000000000000000000000000000000000000081526004016119af90612bc2565b60405180910390fd5b80600460008673ffffffffffffffffffffffffffffffffffffffff1673ffffffffffffffffffffffffffffffffffffffff1681526020019081526020016000206000828254039250508190555080600460008573ffffffffffffffffffffffffffffffffffffffff1673ffffffffffffffffffffffffffffffffffffffff1681526020019081526020016000206000828254019250508190555050505050565b60606000821415611aa0576040518060400160405280600181526020017f30000000000000000000000000000000000000000000000000000000000000008152509050611b80565b600082905060005b60008214611aca578080600101915050600a8281611ac257fe5b049150611aa8565b6060816040519080825280601f01601f191660200182016040528015611aff5781602001600182028038833980820191505090505b50905060006001830390505b60008614611b7857600a8681611b1d57fe5b0660300160f81b82828060019003935081518110611b3757fe5b60200101907effffffffffffffffffffffffffffffffffffffffffffffffffffffffffffff1916908160001a905350600a8681611b7057fe5b049550611b0b565b819450505050505b919050565b60608282604051602001611b9a929190612aec565b604051602081830303815290604052905092915050565b6000606082905060008060009050600091505b8251821015611c1f576000838381518110611bdb57fe5b602001015160f81c60f81b60f81c60ff16905060308110158015611c00575060398111155b15611c115760308103600a83020191505b508180600101925050611bc4565b809350505050919050565b600085600015156001600083815260200190815260200160002060020160019054906101000a900460ff1615151415611c965760006001600083815260200190815260200160002060020160006101000a81548160ff02191690836002811115611c9057fe5b02179055505b60025460016000838152602001908152602001600020600001540142101580611cd657506103e86001600083815260200190815260200160002060010154145b15611d1e5760026001600083815260200190815260200160002060020160006101000a81548160ff02191690836002811115611d0e57fe5b0217905550611d1c81610f24565b505b611d266127fe565b60405180608001604052808873ffffffffffffffffffffffffffffffffffffffff16815260200187815260200186815260200185815250905060016000898152602001908152602001600020600501819080600181540180825580915050906001820390600052602060002090600402016000909192909190915060008201518160000160006101000a81548173ffffffffffffffffffffffffffffffffffffffff021916908373ffffffffffffffffffffffffffffffffffffffff160217905550602082015181600101556040820151816002015560608201518160030155505050611e128861201a565b5060019250505095945050505050565b600085600015156001600083815260200190815260200160002060020160019054906101000a900460ff1615151415611e8e5760006001600083815260200190815260200160002060020160006101000a81548160ff02191690836002811115611e8857fe5b02179055505b60025460016000838152602001908152602001600020600001540142101580611ece57506103e86001600083815260200190815260200160002060010154145b15611f165760026001600083815260200190815260200160002060020160006101000a81548160ff02191690836002811115611f0657fe5b0217905550611f1481610f24565b505b611f1e6127fe565b60405180608001604052808873ffffffffffffffffffffffffffffffffffffffff16815260200187815260200186815260200185815250905060016000898152602001908152602001600020600601819080600181540180825580915050906001820390600052602060002090600402016000909192909190915060008201518160000160006101000a81548173ffffffffffffffffffffffffffffffffffffffff021916908373ffffffffffffffffffffffffffffffffffffffff16021790555060208201518160010155604082015181600201556060820151816003015550505061200a8861240c565b5060019250505095945050505050565b600081600015156001600083815260200190815260200160002060020160019054906101000a900460ff16151514156120865760006001600083815260200190815260200160002060020160006101000a81548160ff0219169083600281111561208057fe5b02179055505b600254600160008381526020019081526020016000206000015401421015806120c657506103e86001600083815260200190815260200160002060010154145b1561210e5760026001600083815260200190815260200160002060020160006101000a81548160ff021916908360028111156120fe57fe5b021790555061210c81610f24565b505b60006001806000868152602001908152602001600020600501805490500390505b60008111156124015760006002600183038161214757fe5b04905060016000868152602001908152602001600020600501818154811061216b57fe5b90600052602060002090600402016001015460016000878152602001908152602001600020600501838154811061219e57fe5b90600052602060002090600402016001015411156123f5576121be6127fe565b6001600087815260200190815260200160002060050183815481106121df57fe5b90600052602060002090600402016040518060800160405290816000820160009054906101000a900473ffffffffffffffffffffffffffffffffffffffff1673ffffffffffffffffffffffffffffffffffffffff1673ffffffffffffffffffffffffffffffffffffffff1681526020016001820154815260200160028201548152602001600382015481525050905060016000878152602001908152602001600020600501828154811061228f57fe5b90600052602060002090600402016001600088815260200190815260200160002060050184815481106122be57fe5b90600052602060002090600402016000820160009054906101000a900473ffffffffffffffffffffffffffffffffffffffff168160000160006101000a81548173ffffffffffffffffffffffffffffffffffffffff021916908373ffffffffffffffffffffffffffffffffffffffff1602179055506001820154816001015560028201548160020155600382015481600301559050508060016000888152602001908152602001600020600501838154811061237657fe5b906000526020600020906004020160008201518160000160006101000a81548173ffffffffffffffffffffffffffffffffffffffff021916908373ffffffffffffffffffffffffffffffffffffffff160217905550602082015181600101556040820151816002015560608201518160030155905050819250506123fb565b50612401565b5061212f565b600192505050919050565b600081600015156001600083815260200190815260200160002060020160019054906101000a900460ff16151514156124785760006001600083815260200190815260200160002060020160006101000a81548160ff0219169083600281111561247257fe5b02179055505b600254600160008381526020019081526020016000206000015401421015806124b857506103e86001600083815260200190815260200160002060010154145b156125005760026001600083815260200190815260200160002060020160006101000a81548160ff021916908360028111156124f057fe5b02179055506124fe81610f24565b505b60006001806000868152602001908152602001600020600601805490500390505b60008111156127f35760006002600183038161253957fe5b04905060016000868152602001908152602001600020600601818154811061255d57fe5b90600052602060002090600402016001015460016000878152602001908152602001600020600601838154811061259057fe5b90600052602060002090600402016001015410156127e7576125b06127fe565b6001600087815260200190815260200160002060060183815481106125d157fe5b90600052602060002090600402016040518060800160405290816000820160009054906101000a900473ffffffffffffffffffffffffffffffffffffffff1673ffffffffffffffffffffffffffffffffffffffff1673ffffffffffffffffffffffffffffffffffffffff1681526020016001820154815260200160028201548152602001600382015481525050905060016000878152602001908152602001600020600601828154811061268157fe5b90600052602060002090600402016001600088815260200190815260200160002060060184815481106126b057fe5b90600052602060002090600402016000820160009054906101000a900473ffffffffffffffffffffffffffffffffffffffff168160000160006101000a81548173ffffffffffffffffffffffffffffffffffffffff021916908373ffffffffffffffffffffffffffffffffffffffff1602179055506001820154816001015560028201548160020155600382015481600301559050508060016000888152602001908152602001600020600601838154811061276857fe5b906000526020600020906004020160008201518160000160006101000a81548173ffffffffffffffffffffffffffffffffffffffff021916908373ffffffffffffffffffffffffffffffffffffffff160217905550602082015181600101556040820151816002015560608201518160030155905050819250506127ed565b506127f3565b50612521565b600192505050919050565b6040518060800160405280600073ffffffffffffffffffffffffffffffffffffffff1681526020016000815260200160008152602001600081525090565b60008135905061284b81612d91565b92915050565b60008151905061286081612da8565b92915050565b60008135905061287581612dbf565b92915050565b60006020828403121561288d57600080fd5b600061289b8482850161283c565b91505092915050565b600080604083850312156128b757600080fd5b60006128c58582860161283c565b92505060206128d68582860161283c565b9150509250929050565b600080604083850312156128f357600080fd5b60006129018582860161283c565b925050602061291285828601612866565b9150509250929050565b60006020828403121561292e57600080fd5b600061293c84828501612851565b91505092915050565b60006020828403121561295757600080fd5b600061296584828501612866565b91505092915050565b60008060006060848603121561298357600080fd5b600061299186828701612866565b93505060206129a286828701612866565b92505060406129b386828701612866565b9150509250925092565b6129c681612d09565b82525050565b6129d581612cae565b82525050565b6129e481612cae565b82525050565b6129f381612cc0565b82525050565b612a0281612d1b565b82525050565b6000612a1382612c87565b612a1d8185612ca3565b9350612a2d818560208601612d51565b80840191505092915050565b6000612a46601583612c92565b91507f496e73756666696369656e742062616c616e63652e00000000000000000000006000830152602082019050919050565b608082016000820151612a8f60008501826129cc565b506020820151612aa26020850182612ace565b506040820151612ab56040850182612ace565b506060820151612ac86060850182612ace565b50505050565b612ad781612cff565b82525050565b612ae681612cff565b82525050565b6000612af88285612a08565b9150612b048284612a08565b91508190509392505050565b6000606082019050612b2560008301866129bd565b612b3260208301856129db565b612b3f6040830184612add565b949350505050565b6000604082019050612b5c60008301856129bd565b612b696020830184612add565b9392505050565b6000606082019050612b8560008301866129db565b612b926020830185612add565b612b9f6040830184612add565b949350505050565b6000602082019050612bbc60008301846129ea565b92915050565b60006020820190508181036000830152612bdb81612a39565b9050919050565b6000608082019050612bf76000830184612a79565b92915050565b6000602082019050612c126000830184612add565b92915050565b600060e082019050612c2d600083018a612add565b612c3a6020830189612add565b612c4760408301886129f9565b612c5460608301876129ea565b612c616080830186612add565b612c6e60a0830185612add565b612c7b60c08301846129db565b98975050505050505050565b600081519050919050565b600082825260208201905092915050565b600081905092915050565b6000612cb982612cdf565b9050919050565b60008115159050919050565b6000819050612cda82612d84565b919050565b600073ffffffffffffffffffffffffffffffffffffffff82169050919050565b6000819050919050565b6000612d1482612d2d565b9050919050565b6000612d2682612ccc565b9050919050565b6000612d3882612d3f565b9050919050565b6000612d4a82612cdf565b9050919050565b60005b83811015612d6f578082015181840152602081019050612d54565b83811115612d7e576000848401525b50505050565b60038110612d8e57fe5b50565b612d9a81612cae565b8114612da557600080fd5b50565b612db181612cc0565b8114612dbc57600080fd5b50565b612dc881612cff565b8114612dd357600080fd5b5056fea365627a7a7231582065b7781014d8ec18efc23223b88d48d3f8b5389f73bdc9ee3616a5aa7e6be5766c6578706572696d656e74616cf564736f6c634300050c0040",
  "source": "pragma solidity >=0.4.22;\npragma experimental ABIEncoderV2;\n\n//import \"http://github.com/OpenZeppelin/openzeppelin-solidity/contracts/token/ERC20/IERC20.sol\";\nimport \"openzeppelin-solidity/contracts/token/ERC20/IERC20.sol\";\n\n//call martket (2nd version), collateralized\ncontract Orderbook_V14{\n\n//************************String Converaion and Contcatenation************************//\n\n\nfunction str2uint (string memory s) internal pure returns (uint) {\n        bytes memory b = bytes(s);\n        uint i;\n        uint result = 0;\n        for (i = 0; i < b.length; i++) {\n            uint c = uint(uint8(b[i]));\n            if (c >= 48 && c <= 57) {\n                result = result * 10 + (c - 48);\n            }\n        }\n    \n    return result;\n    }\n\nfunction uint2str(uint _i) internal pure returns (string memory _uintAsString) {\n        if (_i == 0) {\n            return \"0\";\n        }\n        uint j = _i;\n        uint len;\n        while (j != 0) {\n            len++;\n            j /= 10;\n        }\n        bytes memory bstr = new bytes(len);\n        uint k = len - 1;\n        while (_i != 0) {\n            bstr[k--] = byte(uint8(48 + _i % 10));\n            _i /= 10;\n        }\n        return string(bstr);\n    }\n    \n    function contcat(string memory a, string memory b) internal pure returns (string memory) {\n\n        return string (abi.encodePacked( a , b));\n\n\n    }\n    \n    function bytes32ToString(bytes32 x) internal pure returns (string memory) {\n    bytes memory bytesString = new bytes(32);\n    uint charCount = 0;\n    for (uint j = 0; j < 32; j++) {\n        byte char = byte(bytes32(uint(x) * 2 ** (8 * j)));\n        if (char != 0) {\n            bytesString[charCount] = char;\n            charCount++;\n        }\n    }\n    bytes memory bytesStringTrimmed = new bytes(charCount);\n    for (uint j = 0; j < charCount; j++) {\n        bytesStringTrimmed[j] = bytesString[j];\n    }\n    return string(bytesStringTrimmed);\n}\n\n//*********************************************************************************//\n\n//**********************************************//\n//Every order has some attributes:\n    struct OrderStruct \n    {\n        address Sender;\n        uint256 Price;\n        uint256 AuxPrice; //This is not the real price of the order, it's the contcantenation of the real price and the counter which helps to sort the heap wehen there are ties\n        uint256 Volume; //The volume is 1 for now\n        \n    }\n//**********************************************//\n//Every Auction has some attributes:\n    struct AuctionStruct\n    {\n        uint256 CreationTime;\n        uint256 NumOrders;      //Number of all the orders within the auction\n        States state;\n        bool isValue;\n        uint256 BuyListCounter;  //the counter for BuyList which sorts the order incrementally\n        uint256 SellListCounter;  //the counter for SellList which sorts the order decrementally\n        OrderStruct[] BuyList;  //The array that contains Bid OrderStructs (descending (decremental)), we always want the highest bid (maxheap)\n        OrderStruct[] SellList; //The array that contains Ask OrderStructs (ascending (incremental)), we always want the lowest ask (minheap)\n        address Token;          //The token that is being traded in the auction\n    }    \n    \n //**********************************************//   \n    enum States {UnInitiallized, Opened, Closed} \n    //Opened: biddingTime, Settlement has not yet started.\n    //Locked: biddingTimes over, Settlements satrted and not finished yet.\n    //Ended: biddingTime and Settlement are both over , which means the auction is ended. \n    uint256 numAuctions;\n    mapping (uint256 => AuctionStruct) public Auctions;\n    uint public biddingTime = 5 minutes;\n\n    event LogBuyList (address _sender, uint256 _price, uint256 _volume);\n    \n    \n\n//**********************************************//\n//***************Modifiers*******************//\n//**********************************************//\n    //Checks if the auction should be closed or not.\n    modifier CheckAuctionStage (uint256 _AuctionID) {\n        if (Auctions[_AuctionID].isValue == false) {Auctions[_AuctionID].state = States.UnInitiallized;}\n        if (now >= Auctions[_AuctionID].CreationTime + biddingTime || Auctions[_AuctionID].NumOrders == 1000) \n        {\n            Auctions[_AuctionID].state = States.Closed;\n            CloseMarket(_AuctionID);\n            \n        }\n        _;\n    }\n//**********************************************// \n    //Allows a function (submitbid() or submitask()) to get executed if the auction is in a desired state.\n    modifier ToPlaceOrderAuctionAtStage (uint256 _AuctionID , States state_1) { \n        require (Auctions[_AuctionID].state == state_1);\n        _;\n    }\n//**********************************************// \n    //Checks wether the auction is at state_1 or not\n    modifier AuctionAtStage (uint256 _AuctionID , States state_1 ) { \n        require (Auctions[_AuctionID].state == state_1); \n        _;\n    }\n//**********************************************// \n    //Checks wether the auction is at state_1 or not\n    modifier CheckEscrow (uint256 _AuctionID , States state_1 ) { \n        require (Auctions[_AuctionID].state == state_1); \n        _;\n    }\n\n\n    \n//***************Escrow Variables and Functions******************//    \n    \n    //To make the escrow fully general, the contract does not assume a specific ERC20 token, \n    //so a single account may escrow different tokens at the same time. \n    //For each (account, token) pair, the contract tracks its balance and the time when escrow expires:\n    //User (Sellers) => Token => balanace\n    mapping(address => mapping(address => uint256)) public TokenBalance;\n    //mapping(address => mapping(address => uint256)) public escrowExpiration;\n    \n    \n    //User (Biders) => balance(Ether)\n    mapping(address => uint256) EtherBalance;\n\n//**************DepositToken() Function*********************//   \n    //The token holder must first approve the amount to the exchange contract by calling the approve() from the ERC20 token contract\n    function DepositToken(address _token, uint256 _amount) public returns (bool) {\n        \n        require(IERC20(_token).transferFrom(msg.sender, address(this), _amount));\n        TokenBalance[msg.sender][_token] += _amount;\n        return true;\n        \n    }\n//**************DepositEther() Function*********************//    \n    \n    function DepositEther() public payable returns (bool) {\n        EtherBalance[msg.sender] += msg.value;\n        return true;\n        \n    }\n    \n\n\n//******************** OpenMarket function ********************//\n    //To open a market(auction) on an specific token, user has to call OpenMarket() function and pass the address of ERC20 token to it\n    function OpenMarket(address _token) public returns (uint256 _AuctionID){\n    \n\n        _AuctionID = numAuctions++;\n        \n        Auctions[_AuctionID].CreationTime = now; \n        Auctions[_AuctionID].NumOrders = 0;\n        Auctions[_AuctionID].state = States.Opened;\n        Auctions[_AuctionID].isValue = true;\n        Auctions[_AuctionID].BuyListCounter = 999;\n        Auctions[_AuctionID].SellListCounter = 0;\n        Auctions[_AuctionID].Token = _token;\n        \n        \n\n    }\n//******************** CloseMarket function ********************//\n    \n    function CloseMarket(uint256 _AuctionID) public \n    CheckAuctionStage (_AuctionID)\n    returns (bool){\n\n        //MatchOrders(_AuctionID);\n        return true;\n\n    }\n//******************** MatchOrders function ********************//\n    function MatchOrders(uint256 _AuctionID) public \n    AuctionAtStage (_AuctionID, States.Closed)\n    returns (bool){\n        \n        uint256 BestBid;\n        uint256 BestAsk;\n        uint256 refund;\n      \n        \n        \n        \n        if (BuyListpeak(_AuctionID).Price >= SellListpeak(_AuctionID).Price)\n        {\n            BestBid = BuyListpeak(_AuctionID).Price;\n            BestAsk = SellListpeak(_AuctionID).Price;\n    \n            transferToken (SellListpeak(_AuctionID).Sender, BuyListpeak(_AuctionID).Sender, Auctions[_AuctionID].Token, BuyListpeak(_AuctionID).Volume);\n            transferEther (BuyListpeak(_AuctionID).Sender,SellListpeak(_AuctionID).Sender, Auctions[_AuctionID].Token, SellListpeak(_AuctionID).Price );\n\n            //Pays the difference to the miner\n            require (BestBid - BestAsk != 0);\n            EtherBalance[block.coinbase] += BestBid - BestAsk;\n            refund = EtherBalance[block.coinbase]; \n            EtherBalance[block.coinbase] = 0; \n            block.coinbase.transfer(refund);\n        \n            \n        }\n        \n       \n        \n    }\n    \n//******************** transferToken() & transferEther() internal ********************//    \n    //These two functions are fired During the order matching \n    function transferToken( address _fromSeller, address _toBuyer, address _token, uint256 _numofTokens) internal\n    {\n        require(TokenBalance[_fromSeller][_token] >= _numofTokens,  \"Insufficient balance.\");\n\n        TokenBalance[_fromSeller][_token] -= _numofTokens;\n        TokenBalance[_toBuyer][_token] += _numofTokens;\n    }\n//******************************************************//    \n    function transferEther( address _fromBuyer, address _toSeller, address _token, uint256 _numofEthers) internal\n    {\n        require(EtherBalance[_fromBuyer] >= _numofEthers,  \"Insufficient balance.\");\n\n        EtherBalance[_fromBuyer] -= _numofEthers;\n        EtherBalance[_toSeller] += _numofEthers;\n    } \n//******************************************************// \n\n\n//******************** claimTokens() & claimEther() ********************//\n    //traders can claim their tokens or ethers uisng the following two functions\n\n    function claimTokens (address _token) public returns (bool)\n    {\n        require (TokenBalance[msg.sender][_token] > 0);\n        uint tokensToBeClaimed = TokenBalance[msg.sender][_token] ;\n        TokenBalance[msg.sender][_token] = 0;\n        IERC20(_token).transfer(msg.sender, tokensToBeClaimed);\n        return true;\n    }\n//******************************************************//      \n    function claimEther () public returns (bool)\n    {\n        require (EtherBalance[msg.sender] > 0);\n        uint EthersToBeClaimed = EtherBalance[msg.sender] ;\n        EtherBalance[msg.sender]  = 0;\n        msg.sender.transfer(EthersToBeClaimed);\n        return true;\n    }    \n\n\n    \n    \n    \n    \n    \n    \n//******************** submitBid function ********************//\n    //submitBid function calls the maxheap_insert function    \n    //The Bidder must first deposit enough Ether in the exachange (DepositEther())\n    function submitBid (uint256 _AuctionID, uint256 _numofEthers, uint256 _volume) public \n    CheckAuctionStage (_AuctionID) \n    ToPlaceOrderAuctionAtStage (_AuctionID, States.Opened)\n    returns (bool)\n    {\n        \n        \n        require (EtherBalance[msg.sender] >= _volume * _numofEthers );\n        \n        uint256 _finalpriceUint;\n        string memory _finalpriceString;\n        _finalpriceString = contcat ( uint2str(_numofEthers), uint2str (Auctions[_AuctionID].BuyListCounter));\n        _finalpriceUint = str2uint (_finalpriceString);\n        \n        \n        if(maxheap_insert(_AuctionID , msg.sender, _numofEthers, _finalpriceUint, _volume)){\n            Auctions[_AuctionID].BuyListCounter--;\n            Auctions[_AuctionID].NumOrders++;\n            EtherBalance[msg.sender] -= _volume * _numofEthers;\n            \n        }\n        \n    \n        return true;\n    }\n\n//******************** submitask function ********************//\n    //submitAsk function calls the minheap_insert function\n    //The Bidder must first deposit enough Token in the exachange (DepositToken())\n    function submitAsk (uint256 _AuctionID, uint256 _numofTokens, uint256 _volume ) public \n    CheckAuctionStage (_AuctionID) \n    ToPlaceOrderAuctionAtStage (_AuctionID, States.Opened)\n    returns (bool)\n    {\n        require( TokenBalance[msg.sender][Auctions[_AuctionID].Token] >= _volume);\n        \n        uint256 _finalpriceUint;\n        string memory _finalpriceString;\n        _finalpriceString = contcat ( uint2str(_numofTokens), uint2str (Auctions[_AuctionID].SellListCounter));\n        _finalpriceUint = str2uint (_finalpriceString);\n        \n        if (minheap_insert( _AuctionID, msg.sender, _numofTokens, _finalpriceUint, _volume))\n        {\n                Auctions[_AuctionID].SellListCounter++;\n                Auctions[_AuctionID].NumOrders++;\n                TokenBalance[msg.sender][Auctions[_AuctionID].Token] -= _volume;\n        }\n        \n        return true;\n\n    }\n\n//*******************  maxheap Functions (BuyList) ****************//\n//*****************************************************************//\n//*****************************************************************//\n//*****************************************************************//\n\n\n//*******************  maxheap_insert () ***************************//\n    //the new item will be added to the end of the array list (a buy order is submitted)\n    //then heapified up with a call to heapifyUp method\n    function maxheap_insert (uint256 _AuctionID, address _sender, uint256 _numofEthers, uint256 _auxPrice, uint256 _volume) internal \n    CheckAuctionStage (_AuctionID)\n    returns (bool)\n    {\n        \n        OrderStruct memory neworder = OrderStruct(_sender, _numofEthers , _auxPrice, _volume);\n        Auctions[_AuctionID].BuyList.push(neworder);\n        maxheap_heapifyUp (_AuctionID);\n        return true;\n    }    \n//*******************  maxheap_heapifyUp () ***************************//\n    //this function is called everytime we insert a new element to the end of the array (aka a new Buy order is submitted) and\n    //now the heap has to be sorted again\n    function maxheap_heapifyUp (uint256 _AuctionID) internal \n    CheckAuctionStage (_AuctionID)\n    returns (bool) {\n    \n        uint256 k = Auctions[_AuctionID].BuyList.length - 1;                   //k is set to be the last entry of the array (also heap) which is the element that's just added and has to be moved up\n        while (k > 0){                                  //while we havent reached to the top of the heap\n            uint256 p = (k-1)/2;                           //we need to compute the parent of this last element which is p = (k-1)/2\n            if (Auctions[_AuctionID].BuyList[k].Price > Auctions[_AuctionID].BuyList[p].Price) //if the element is greater than its parent\n            {   //\"!SYNTAX!\"\n                //Orderbook_V9.swap(SellList, k, p);              //swap the element at index k with its parent\n                OrderStruct memory temp = Auctions[_AuctionID].BuyList[k];    //\"!SYNTAX!\"//swap the element at index k with its parent\n                Auctions[_AuctionID].BuyList[k] = Auctions[_AuctionID].BuyList[p];\n                Auctions[_AuctionID].BuyList[p] = temp;\n                k = p;                                  //k moves up one level\n            }\n            else {break;}                               //if not the break statement exits the loop (it continues until no element index k is not greater than its parent)\n        }\n        return true;\n    }\n    \n//****************   BuyListpeak()  *********************//\n    //BuyListpeak function returns the highest priority element (The highest bid)\n    function BuyListpeak(uint256 _AuctionID) public view returns (OrderStruct memory){\n\n        require(Auctions[_AuctionID].BuyList.length != 0); //throws exception if the maxheap (BuyList) is empty\n        return (Auctions[_AuctionID].BuyList[0]);\n    }\n\n    \n    \n//*******************  minheap Functions (SellList) ****************//\n//*****************************************************************//\n//*****************************************************************//\n//*****************************************************************//\n\n//*******************  minheap_insert () ***************************//\n    //the new item will be added to the end of the array list (a buy order is submitted)\n    //then heapified up with a call to heapifyUp method\n    function minheap_insert (uint256 _AuctionID, address _sender, uint256 _numofTokens, uint256 _auxPrice, uint256 _volume) internal \n    CheckAuctionStage (_AuctionID)\n    returns (bool)\n    {\n        OrderStruct memory neworder = OrderStruct(_sender, _numofTokens , _auxPrice, _volume); \n        Auctions[_AuctionID].SellList.push(neworder);\n        minheap_heapifyUp(_AuctionID);\n        return true;\n    }\n\n//*******************  minheap_heapifyUp () ***************************//\n    //this function is called everytime we insert a new element to the end of the array (aka a new sell order is submitted) and\n    //now the heap has to be sorted again\n    function minheap_heapifyUp (uint256 _AuctionID) internal \n    CheckAuctionStage (_AuctionID)\n    returns (bool) {\n\n        uint256 k = Auctions[_AuctionID].SellList.length - 1; //k is set to be the last entry of the array(also heap) which is the element that's just added and has to be moved up\n        while (k > 0){                                      //while we havent reached to the top of the heap\n            uint256 p = (k-1)/2;                            //we need to compute the parent of this last element which is p = (k-1)/2\n            if (Auctions[_AuctionID].SellList[k].Price < Auctions[_AuctionID].SellList[p].Price) //if the element is greater than its parent\n            { \n            \n                OrderStruct memory temp = Auctions[_AuctionID].SellList[k];    //swap the element at index k with its parent\n                Auctions[_AuctionID].SellList[k] = Auctions[_AuctionID].SellList[p];\n                Auctions[_AuctionID].SellList[p] = temp;\n                \n                k = p; //k moves up one level\n            }\n            else {break;} //if not the break statement exits the loop (it continues until no element index k is not greater than its parent)\n        }\n        \n        return true;\n    }\n\n//****************   SellListpeak()  *********************//\n    //SellListpeak function returns the highest priority element (The Lowest ask)\n    function SellListpeak(uint256 _AuctionID) public view returns (OrderStruct memory){\n\n        require(Auctions[_AuctionID].SellList.length != 0); //throws exception if the minheap (SellList) is empty\n        return (Auctions[_AuctionID].SellList[0]);\n    }\n\n\n//************************************************************************//\n\n\n\n\n\n\n\n\n\n\n\n\n\n\n    \n    function ReadBuyList(uint256 _AuctionID) public {\n        for (uint i = 0; i< Auctions[_AuctionID].BuyList.length ; i++) {\n            emit LogBuyList(Auctions[_AuctionID].BuyList[i].Sender, Auctions[_AuctionID].BuyList[i].Price, Auctions[_AuctionID].BuyList[i].Volume);\n            \n        }\n        \n    }\n\n\n//************************************************************************//\n//************************************************************************//\n//************************************************************************//\n\n}\n",
  "sourcePath": "/home/mahsa/ProjectRepo/2020-Orderbook/Code/New-Truffle/contracts/CallMarket/Heap with Dynamic Array/Orderbook_V14.sol",
  "compiler": {
    "name": "solc",
    "version": "0.5.12+commit.7709ece9.Emscripten.clang"
  },
  "schemaVersion": "3.2.0",
  "updatedAt": "2020-06-10T20:06:41.170Z",
  "networkType": "ethereum",
  "devdoc": {
    "methods": {}
  },
  "userdoc": {
    "methods": {}
  }
}