{
  "contractName": "Orderbook_V15",
  "abi": [
    {
      "anonymous": false,
      "inputs": [
        {
          "indexed": false,
          "internalType": "address",
          "name": "_sender",
          "type": "address"
        },
        {
          "indexed": false,
          "internalType": "uint256",
          "name": "_price",
          "type": "uint256"
        },
        {
          "indexed": false,
          "internalType": "uint256",
          "name": "_volume",
          "type": "uint256"
        }
      ],
      "name": "LogBuyList",
      "type": "event"
    },
    {
      "constant": true,
      "inputs": [
        {
          "internalType": "uint256",
          "name": "",
          "type": "uint256"
        }
      ],
      "name": "Auctions",
      "outputs": [
        {
          "internalType": "uint256",
          "name": "CreationTime",
          "type": "uint256"
        },
        {
          "internalType": "uint256",
          "name": "NumOrders",
          "type": "uint256"
        },
        {
          "internalType": "enum Orderbook_V15.States",
          "name": "state",
          "type": "uint8"
        },
        {
          "internalType": "bool",
          "name": "isValue",
          "type": "bool"
        },
        {
          "internalType": "uint256",
          "name": "BuyListCounter",
          "type": "uint256"
        },
        {
          "internalType": "uint256",
          "name": "SellListCounter",
          "type": "uint256"
        },
        {
          "internalType": "address",
          "name": "Token",
          "type": "address"
        }
      ],
      "payable": false,
      "stateMutability": "view",
      "type": "function"
    },
    {
      "constant": true,
      "inputs": [
        {
          "internalType": "address",
          "name": "",
          "type": "address"
        }
      ],
      "name": "EtherBalance",
      "outputs": [
        {
          "internalType": "uint256",
          "name": "",
          "type": "uint256"
        }
      ],
      "payable": false,
      "stateMutability": "view",
      "type": "function"
    },
    {
      "constant": true,
      "inputs": [
        {
          "internalType": "address",
          "name": "",
          "type": "address"
        },
        {
          "internalType": "address",
          "name": "",
          "type": "address"
        }
      ],
      "name": "TokenBalance",
      "outputs": [
        {
          "internalType": "uint256",
          "name": "",
          "type": "uint256"
        }
      ],
      "payable": false,
      "stateMutability": "view",
      "type": "function"
    },
    {
      "constant": true,
      "inputs": [],
      "name": "biddingTime",
      "outputs": [
        {
          "internalType": "uint256",
          "name": "",
          "type": "uint256"
        }
      ],
      "payable": false,
      "stateMutability": "view",
      "type": "function"
    },
    {
      "constant": false,
      "inputs": [
        {
          "internalType": "address",
          "name": "_token",
          "type": "address"
        },
        {
          "internalType": "uint256",
          "name": "_numofTokens",
          "type": "uint256"
        }
      ],
      "name": "DepositToken",
      "outputs": [
        {
          "internalType": "bool",
          "name": "",
          "type": "bool"
        }
      ],
      "payable": false,
      "stateMutability": "nonpayable",
      "type": "function"
    },
    {
      "constant": false,
      "inputs": [],
      "name": "DepositEther",
      "outputs": [
        {
          "internalType": "bool",
          "name": "",
          "type": "bool"
        }
      ],
      "payable": true,
      "stateMutability": "payable",
      "type": "function"
    },
    {
      "constant": false,
      "inputs": [
        {
          "internalType": "address",
          "name": "_token",
          "type": "address"
        }
      ],
      "name": "OpenMarket",
      "outputs": [
        {
          "internalType": "uint256",
          "name": "_AuctionID",
          "type": "uint256"
        }
      ],
      "payable": false,
      "stateMutability": "nonpayable",
      "type": "function"
    },
    {
      "constant": false,
      "inputs": [
        {
          "internalType": "uint256",
          "name": "_AuctionID",
          "type": "uint256"
        }
      ],
      "name": "CloseMarket",
      "outputs": [
        {
          "internalType": "bool",
          "name": "",
          "type": "bool"
        }
      ],
      "payable": false,
      "stateMutability": "nonpayable",
      "type": "function"
    },
    {
      "constant": false,
      "inputs": [
        {
          "internalType": "uint256",
          "name": "_AuctionID",
          "type": "uint256"
        }
      ],
      "name": "MatchOrders",
      "outputs": [
        {
          "internalType": "bool",
          "name": "",
          "type": "bool"
        }
      ],
      "payable": false,
      "stateMutability": "nonpayable",
      "type": "function"
    },
    {
      "constant": false,
      "inputs": [
        {
          "internalType": "address",
          "name": "_token",
          "type": "address"
        }
      ],
      "name": "claimTokens",
      "outputs": [
        {
          "internalType": "bool",
          "name": "",
          "type": "bool"
        }
      ],
      "payable": false,
      "stateMutability": "nonpayable",
      "type": "function"
    },
    {
      "constant": false,
      "inputs": [],
      "name": "claimEther",
      "outputs": [
        {
          "internalType": "bool",
          "name": "",
          "type": "bool"
        }
      ],
      "payable": false,
      "stateMutability": "nonpayable",
      "type": "function"
    },
    {
      "constant": false,
      "inputs": [
        {
          "internalType": "uint256",
          "name": "_AuctionID",
          "type": "uint256"
        },
        {
          "internalType": "uint256",
          "name": "_price",
          "type": "uint256"
        },
        {
          "internalType": "uint256",
          "name": "_volume",
          "type": "uint256"
        }
      ],
      "name": "submitBid",
      "outputs": [
        {
          "internalType": "bool",
          "name": "",
          "type": "bool"
        }
      ],
      "payable": false,
      "stateMutability": "nonpayable",
      "type": "function"
    },
    {
      "constant": false,
      "inputs": [
        {
          "internalType": "uint256",
          "name": "_AuctionID",
          "type": "uint256"
        },
        {
          "internalType": "uint256",
          "name": "_price",
          "type": "uint256"
        },
        {
          "internalType": "uint256",
          "name": "_volume",
          "type": "uint256"
        }
      ],
      "name": "submitAsk",
      "outputs": [
        {
          "internalType": "bool",
          "name": "",
          "type": "bool"
        }
      ],
      "payable": false,
      "stateMutability": "nonpayable",
      "type": "function"
    },
    {
      "constant": true,
      "inputs": [
        {
          "internalType": "uint256",
          "name": "_AuctionID",
          "type": "uint256"
        }
      ],
      "name": "BuyListpeak",
      "outputs": [
        {
          "components": [
            {
              "internalType": "address",
              "name": "Sender",
              "type": "address"
            },
            {
              "internalType": "uint256",
              "name": "Price",
              "type": "uint256"
            },
            {
              "internalType": "uint256",
              "name": "AuxPrice",
              "type": "uint256"
            },
            {
              "internalType": "uint256",
              "name": "Volume",
              "type": "uint256"
            }
          ],
          "internalType": "struct Orderbook_V15.OrderStruct",
          "name": "",
          "type": "tuple"
        }
      ],
      "payable": false,
      "stateMutability": "view",
      "type": "function"
    },
    {
      "constant": false,
      "inputs": [
        {
          "internalType": "uint256",
          "name": "_AuctionID",
          "type": "uint256"
        }
      ],
      "name": "maxheap_delete",
      "outputs": [
        {
          "components": [
            {
              "internalType": "address",
              "name": "Sender",
              "type": "address"
            },
            {
              "internalType": "uint256",
              "name": "Price",
              "type": "uint256"
            },
            {
              "internalType": "uint256",
              "name": "AuxPrice",
              "type": "uint256"
            },
            {
              "internalType": "uint256",
              "name": "Volume",
              "type": "uint256"
            }
          ],
          "internalType": "struct Orderbook_V15.OrderStruct",
          "name": "",
          "type": "tuple"
        }
      ],
      "payable": false,
      "stateMutability": "nonpayable",
      "type": "function"
    },
    {
      "constant": true,
      "inputs": [
        {
          "internalType": "uint256",
          "name": "_AuctionID",
          "type": "uint256"
        }
      ],
      "name": "SellListpeak",
      "outputs": [
        {
          "components": [
            {
              "internalType": "address",
              "name": "Sender",
              "type": "address"
            },
            {
              "internalType": "uint256",
              "name": "Price",
              "type": "uint256"
            },
            {
              "internalType": "uint256",
              "name": "AuxPrice",
              "type": "uint256"
            },
            {
              "internalType": "uint256",
              "name": "Volume",
              "type": "uint256"
            }
          ],
          "internalType": "struct Orderbook_V15.OrderStruct",
          "name": "",
          "type": "tuple"
        }
      ],
      "payable": false,
      "stateMutability": "view",
      "type": "function"
    },
    {
      "constant": false,
      "inputs": [
        {
          "internalType": "uint256",
          "name": "_AuctionID",
          "type": "uint256"
        }
      ],
      "name": "minheap_delete",
      "outputs": [
        {
          "components": [
            {
              "internalType": "address",
              "name": "Sender",
              "type": "address"
            },
            {
              "internalType": "uint256",
              "name": "Price",
              "type": "uint256"
            },
            {
              "internalType": "uint256",
              "name": "AuxPrice",
              "type": "uint256"
            },
            {
              "internalType": "uint256",
              "name": "Volume",
              "type": "uint256"
            }
          ],
          "internalType": "struct Orderbook_V15.OrderStruct",
          "name": "",
          "type": "tuple"
        }
      ],
      "payable": false,
      "stateMutability": "nonpayable",
      "type": "function"
    },
    {
      "constant": false,
      "inputs": [
        {
          "internalType": "uint256",
          "name": "_AuctionID",
          "type": "uint256"
        }
      ],
      "name": "ReadBuyList",
      "outputs": [],
      "payable": false,
      "stateMutability": "nonpayable",
      "type": "function"
    }
  ],
  "bytecode": "0x608060405261012c60025534801561001657600080fd5b50613d9a806100266000396000f3fe6080604052600436106101095760003560e01c806355291dbd116100955780638949f091116100645780638949f091146103f6578063bbc0c8731461041f578063d074a38d1461045c578063df8de3e714610487578063e8cd181f146104c457610109565b806355291dbd14610314578063707c33ef1461033f57806381754e201461037c5780638401d05a146103b957610109565b806347da9052116100dc57806347da9052146101e357806347ea500414610220578063488e0f591461025d578063506c24ae1461029a5780635093803f146102d757610109565b8063253a96e91461010e5780632d0c0a881461012c5780632e00af8d14610169578063416f222a146101a6575b600080fd5b610116610507565b6040516101239190613b08565b60405180910390f35b34801561013857600080fd5b50610153600480360361014e9190810190613801565b61055d565b6040516101609190613b08565b60405180910390f35b34801561017557600080fd5b50610190600480360361018b9190810190613866565b61068b565b60405161019d9190613b08565b60405180910390f35b3480156101b257600080fd5b506101cd60048036036101c8919081019061388f565b610905565b6040516101da9190613b08565b60405180910390f35b3480156101ef57600080fd5b5061020a6004803603610205919081019061379c565b610b8f565b6040516102179190613b7e565b60405180910390f35b34801561022c57600080fd5b50610247600480360361024291908101906137c5565b610ba7565b6040516102549190613b7e565b60405180910390f35b34801561026957600080fd5b50610284600480360361027f9190810190613866565b610bcc565b6040516102919190613b63565b60405180910390f35b3480156102a657600080fd5b506102c160048036036102bc9190810190613866565b610cb1565b6040516102ce9190613b63565b60405180910390f35b3480156102e357600080fd5b506102fe60048036036102f9919081019061379c565b610d96565b60405161030b9190613b7e565b60405180910390f35b34801561032057600080fd5b50610329610edc565b6040516103369190613b08565b60405180910390f35b34801561034b57600080fd5b5061036660048036036103619190810190613866565b611001565b6040516103739190613b63565b60405180910390f35b34801561038857600080fd5b506103a3600480360361039e9190810190613866565b6113e0565b6040516103b09190613b63565b60405180910390f35b3480156103c557600080fd5b506103e060048036036103db9190810190613866565b6117be565b6040516103ed9190613b08565b60405180910390f35b34801561040257600080fd5b5061041d60048036036104189190810190613866565b611801565b005b34801561042b57600080fd5b506104466004803603610441919081019061388f565b61192a565b6040516104539190613b08565b60405180910390f35b34801561046857600080fd5b50610471611c95565b60405161047e9190613b7e565b60405180910390f35b34801561049357600080fd5b506104ae60048036036104a9919081019061379c565b611c9b565b6040516104bb9190613b08565b60405180910390f35b3480156104d057600080fd5b506104eb60048036036104e69190810190613866565b611ec0565b6040516104fe9796959493929190613b99565b60405180910390f35b600034600460003373ffffffffffffffffffffffffffffffffffffffff1673ffffffffffffffffffffffffffffffffffffffff168152602001908152602001600020600082825401925050819055506001905090565b60008273ffffffffffffffffffffffffffffffffffffffff166323b872dd3330856040518463ffffffff1660e01b815260040161059c93929190613a71565b602060405180830381600087803b1580156105b657600080fd5b505af11580156105ca573d6000803e3d6000fd5b505050506040513d601f19601f820116820180604052506105ee919081019061383d565b6105f757600080fd5b81600360003373ffffffffffffffffffffffffffffffffffffffff1673ffffffffffffffffffffffffffffffffffffffff16815260200190815260200160002060008573ffffffffffffffffffffffffffffffffffffffff1673ffffffffffffffffffffffffffffffffffffffff168152602001908152602001600020600082825401925050819055506001905092915050565b600081600280600281111561069c57fe5b6001600084815260200190815260200160002060020160009054906101000a900460ff1660028111156106cb57fe5b146106d557600080fd5b60005b6106e185610bcc565b602001516106ee86610cb1565b60200151106108fd576106ff61371f565b61070886610cb1565b905061071261371f565b61071b87610bcc565b905061076b81600001518360000151600160008b815260200190815260200160002060070160009054906101000a900473ffffffffffffffffffffffffffffffffffffffff168560600151611f3c565b6107b982600001518260000151600160008b815260200190815260200160002060070160009054906101000a900473ffffffffffffffffffffffffffffffffffffffff168460200151612115565b6000816020015183602001510314156107d157600080fd5b8060200151826020015103600460004173ffffffffffffffffffffffffffffffffffffffff1673ffffffffffffffffffffffffffffffffffffffff16815260200190815260200160002060008282540192505081905550600460004173ffffffffffffffffffffffffffffffffffffffff1673ffffffffffffffffffffffffffffffffffffffff1681526020019081526020016000205492506000600460004173ffffffffffffffffffffffffffffffffffffffff1673ffffffffffffffffffffffffffffffffffffffff168152602001908152602001600020819055504173ffffffffffffffffffffffffffffffffffffffff166108fc849081150290604051600060405180830381858888f193505050501580156108f5573d6000803e3d6000fd5b5050506106d8565b505050919050565b600083600015156001600083815260200190815260200160002060020160019054906101000a900460ff16151514156109715760006001600083815260200190815260200160002060020160006101000a81548160ff0219169083600281111561096b57fe5b02179055505b600254600160008381526020019081526020016000206000015401421015806109b157506103e86001600083815260200190815260200160002060010154145b156109f95760026001600083815260200190815260200160002060020160006101000a81548160ff021916908360028111156109e957fe5b02179055506109f7816117be565b505b846001806002811115610a0857fe5b6001600084815260200190815260200160002060020160009054906101000a900460ff166002811115610a3757fe5b14610a4157600080fd5b858502600460003373ffffffffffffffffffffffffffffffffffffffff1673ffffffffffffffffffffffffffffffffffffffff168152602001908152602001600020541015610a8f57600080fd5b60006060610ac3610a9f89612237565b610abe600160008d815260200190815260200160002060030154612237565b612364565b9050610ace81612390565b9150610add89338a858b612409565b15610b7f57600160008a81526020019081526020016000206003016000815480929190600190039190505550600160008a815260200190815260200160002060010160008154809291906001019190505550878702600460003373ffffffffffffffffffffffffffffffffffffffff1673ffffffffffffffffffffffffffffffffffffffff168152602001908152602001600020600082825403925050819055505b6001955050505050509392505050565b60046020528060005260406000206000915090505481565b6003602052816000526040600020602052806000526040600020600091509150505481565b610bd461371f565b600060016000848152602001908152602001600020600601805490501415610bfb57600080fd5b60016000838152602001908152602001600020600601600081548110610c1d57fe5b90600052602060002090600402016040518060800160405290816000820160009054906101000a900473ffffffffffffffffffffffffffffffffffffffff1673ffffffffffffffffffffffffffffffffffffffff1673ffffffffffffffffffffffffffffffffffffffff16815260200160018201548152602001600282015481526020016003820154815250509050919050565b610cb961371f565b600060016000848152602001908152602001600020600501805490501415610ce057600080fd5b60016000838152602001908152602001600020600501600081548110610d0257fe5b90600052602060002090600402016040518060800160405290816000820160009054906101000a900473ffffffffffffffffffffffffffffffffffffffff1673ffffffffffffffffffffffffffffffffffffffff1673ffffffffffffffffffffffffffffffffffffffff16815260200160018201548152602001600282015481526020016003820154815250509050919050565b600080600081548092919060010191905055905042600160008381526020019081526020016000206000018190555060006001600083815260200190815260200160002060010181905550600180600083815260200190815260200160002060020160006101000a81548160ff02191690836002811115610e1357fe5b0217905550600180600083815260200190815260200160002060020160016101000a81548160ff0219169083151502179055506103e7600160008381526020019081526020016000206003018190555060006001600083815260200190815260200160002060040181905550816001600083815260200190815260200160002060070160006101000a81548173ffffffffffffffffffffffffffffffffffffffff021916908373ffffffffffffffffffffffffffffffffffffffff160217905550809050919050565b600080600460003373ffffffffffffffffffffffffffffffffffffffff1673ffffffffffffffffffffffffffffffffffffffff1681526020019081526020016000205411610f2957600080fd5b6000600460003373ffffffffffffffffffffffffffffffffffffffff1673ffffffffffffffffffffffffffffffffffffffff1681526020019081526020016000205490506000600460003373ffffffffffffffffffffffffffffffffffffffff1673ffffffffffffffffffffffffffffffffffffffff168152602001908152602001600020819055503373ffffffffffffffffffffffffffffffffffffffff166108fc829081150290604051600060405180830381858888f19350505050158015610ff8573d6000803e3d6000fd5b50600191505090565b61100961371f565b60006001600084815260200190815260200160002060060180549050141561103057600080fd5b60018060008481526020019081526020016000206006018054905014156111855761105961371f565b6001600084815260200190815260200160002060060160008154811061107b57fe5b90600052602060002090600402016040518060800160405290816000820160009054906101000a900473ffffffffffffffffffffffffffffffffffffffff1673ffffffffffffffffffffffffffffffffffffffff1673ffffffffffffffffffffffffffffffffffffffff168152602001600182015481526020016002820154815260200160038201548152505090506001600084815260200190815260200160002060060160008154811061112c57fe5b9060005260206000209060040201600080820160006101000a81549073ffffffffffffffffffffffffffffffffffffffff02191690556001820160009055600282016000905560038201600090555050809150506113db565b61118d61371f565b600160008481526020019081526020016000206006016000815481106111af57fe5b90600052602060002090600402016040518060800160405290816000820160009054906101000a900473ffffffffffffffffffffffffffffffffffffffff1673ffffffffffffffffffffffffffffffffffffffff1673ffffffffffffffffffffffffffffffffffffffff1681526020016001820154815260200160028201548152602001600382015481525050905060016000848152602001908152602001600020600601600180600086815260200190815260200160002060060180549050038154811061127a57fe5b9060005260206000209060040201600160008581526020019081526020016000206006016000815481106112aa57fe5b90600052602060002090600402016000820160009054906101000a900473ffffffffffffffffffffffffffffffffffffffff168160000160006101000a81548173ffffffffffffffffffffffffffffffffffffffff021916908373ffffffffffffffffffffffffffffffffffffffff16021790555060018201548160010155600282015481600201556003820154816003015590505060016000848152602001908152602001600020600601600180600086815260200190815260200160002060060180549050038154811061137c57fe5b9060005260206000209060040201600080820160006101000a81549073ffffffffffffffffffffffffffffffffffffffff021916905560018201600090556002820160009055600382016000905550506113d583612601565b50809150505b919050565b6113e861371f565b60006001600084815260200190815260200160002060050180549050141561140f57600080fd5b60018060008481526020019081526020016000206005018054905014156115645761143861371f565b6001600084815260200190815260200160002060050160008154811061145a57fe5b90600052602060002090600402016040518060800160405290816000820160009054906101000a900473ffffffffffffffffffffffffffffffffffffffff1673ffffffffffffffffffffffffffffffffffffffff1673ffffffffffffffffffffffffffffffffffffffff168152602001600182015481526020016002820154815260200160038201548152505090506001600084815260200190815260200160002060050160008154811061150b57fe5b9060005260206000209060040201600080820160006101000a81549073ffffffffffffffffffffffffffffffffffffffff02191690556001820160009055600282016000905560038201600090555050809150506117b9565b61156c61371f565b6001600084815260200190815260200160002060050160008154811061158e57fe5b90600052602060002090600402016040518060800160405290816000820160009054906101000a900473ffffffffffffffffffffffffffffffffffffffff1673ffffffffffffffffffffffffffffffffffffffff1673ffffffffffffffffffffffffffffffffffffffff1681526020016001820154815260200160028201548152602001600382015481525050905060016000848152602001908152602001600020600501600180600086815260200190815260200160002060050180549050038154811061165957fe5b90600052602060002090600402016001600085815260200190815260200160002060050160008154811061168957fe5b90600052602060002090600402016000820160009054906101000a900473ffffffffffffffffffffffffffffffffffffffff168160000160006101000a81548173ffffffffffffffffffffffffffffffffffffffff021916908373ffffffffffffffffffffffffffffffffffffffff16021790555060018201548160010155600282015481600201556003820154816003015590505060016000848152602001908152602001600020600501600180600086815260200190815260200160002060050180549050038154811061175b57fe5b9060005260206000209060040201600080820160006101000a81549073ffffffffffffffffffffffffffffffffffffffff021916905560018201600090556002820160009055600382016000905550506117b4836129a6565b809150505b919050565b600060026001600084815260200190815260200160002060020160006101000a81548160ff021916908360028111156117f357fe5b021790555060019050919050565b60008090505b6001600083815260200190815260200160002060050180549050811015611926577f48c9ef4b22c4620cffddc88ced9ac3dffe0e51f01c430f0497eceed104606a5a60016000848152602001908152602001600020600501828154811061186a57fe5b906000526020600020906004020160000160009054906101000a900473ffffffffffffffffffffffffffffffffffffffff166001600085815260200190815260200160002060050183815481106118bd57fe5b9060005260206000209060040201600101546001600086815260200190815260200160002060050184815481106118f057fe5b90600052602060002090600402016003015460405161191193929190613ad1565b60405180910390a18080600101915050611807565b5050565b600083600015156001600083815260200190815260200160002060020160019054906101000a900460ff16151514156119965760006001600083815260200190815260200160002060020160006101000a81548160ff0219169083600281111561199057fe5b02179055505b600254600160008381526020019081526020016000206000015401421015806119d657506103e86001600083815260200190815260200160002060010154145b15611a1e5760026001600083815260200190815260200160002060020160006101000a81548160ff02191690836002811115611a0e57fe5b0217905550611a1c816117be565b505b846001806002811115611a2d57fe5b6001600084815260200190815260200160002060020160009054906101000a900460ff166002811115611a5c57fe5b14611a6657600080fd5b84600360003373ffffffffffffffffffffffffffffffffffffffff1673ffffffffffffffffffffffffffffffffffffffff1681526020019081526020016000206000600160008b815260200190815260200160002060070160009054906101000a900473ffffffffffffffffffffffffffffffffffffffff1673ffffffffffffffffffffffffffffffffffffffff1673ffffffffffffffffffffffffffffffffffffffff168152602001908152602001600020541015611b2557600080fd5b60006060611b59611b3589612237565b611b54600160008d815260200190815260200160002060040154612237565b612364565b9050611b6481612390565b9150611b7389338a858b612d43565b15611c8557600160008a815260200190815260200160002060040160008154809291906001019190505550600160008a81526020019081526020016000206001016000815480929190600101919050555086600360003373ffffffffffffffffffffffffffffffffffffffff1673ffffffffffffffffffffffffffffffffffffffff1681526020019081526020016000206000600160008d815260200190815260200160002060070160009054906101000a900473ffffffffffffffffffffffffffffffffffffffff1673ffffffffffffffffffffffffffffffffffffffff1673ffffffffffffffffffffffffffffffffffffffff168152602001908152602001600020600082825403925050819055505b6001955050505050509392505050565b60025481565b600080600360003373ffffffffffffffffffffffffffffffffffffffff1673ffffffffffffffffffffffffffffffffffffffff16815260200190815260200160002060008473ffffffffffffffffffffffffffffffffffffffff1673ffffffffffffffffffffffffffffffffffffffff1681526020019081526020016000205411611d2557600080fd5b6000600360003373ffffffffffffffffffffffffffffffffffffffff1673ffffffffffffffffffffffffffffffffffffffff16815260200190815260200160002060008473ffffffffffffffffffffffffffffffffffffffff1673ffffffffffffffffffffffffffffffffffffffff1681526020019081526020016000205490506000600360003373ffffffffffffffffffffffffffffffffffffffff1673ffffffffffffffffffffffffffffffffffffffff16815260200190815260200160002060008573ffffffffffffffffffffffffffffffffffffffff1673ffffffffffffffffffffffffffffffffffffffff168152602001908152602001600020819055508273ffffffffffffffffffffffffffffffffffffffff1663a9059cbb33836040518363ffffffff1660e01b8152600401611e63929190613aa8565b602060405180830381600087803b158015611e7d57600080fd5b505af1158015611e91573d6000803e3d6000fd5b505050506040513d601f19601f82011682018060405250611eb5919081019061383d565b506001915050919050565b60016020528060005260406000206000915090508060000154908060010154908060020160009054906101000a900460ff16908060020160019054906101000a900460ff16908060030154908060040154908060070160009054906101000a900473ffffffffffffffffffffffffffffffffffffffff16905087565b80600360008673ffffffffffffffffffffffffffffffffffffffff1673ffffffffffffffffffffffffffffffffffffffff16815260200190815260200160002060008473ffffffffffffffffffffffffffffffffffffffff1673ffffffffffffffffffffffffffffffffffffffff168152602001908152602001600020541015611ffb576040517f08c379a0000000000000000000000000000000000000000000000000000000008152600401611ff290613b43565b60405180910390fd5b80600360008673ffffffffffffffffffffffffffffffffffffffff1673ffffffffffffffffffffffffffffffffffffffff16815260200190815260200160002060008473ffffffffffffffffffffffffffffffffffffffff1673ffffffffffffffffffffffffffffffffffffffff1681526020019081526020016000206000828254039250508190555080600360008573ffffffffffffffffffffffffffffffffffffffff1673ffffffffffffffffffffffffffffffffffffffff16815260200190815260200160002060008473ffffffffffffffffffffffffffffffffffffffff1673ffffffffffffffffffffffffffffffffffffffff1681526020019081526020016000206000828254019250508190555050505050565b80600460008673ffffffffffffffffffffffffffffffffffffffff1673ffffffffffffffffffffffffffffffffffffffff168152602001908152602001600020541015612197576040517f08c379a000000000000000000000000000000000000000000000000000000000815260040161218e90613b23565b60405180910390fd5b80600460008673ffffffffffffffffffffffffffffffffffffffff1673ffffffffffffffffffffffffffffffffffffffff1681526020019081526020016000206000828254039250508190555080600460008573ffffffffffffffffffffffffffffffffffffffff1673ffffffffffffffffffffffffffffffffffffffff1681526020019081526020016000206000828254019250508190555050505050565b6060600082141561227f576040518060400160405280600181526020017f3000000000000000000000000000000000000000000000000000000000000000815250905061235f565b600082905060005b600082146122a9578080600101915050600a82816122a157fe5b049150612287565b6060816040519080825280601f01601f1916602001820160405280156122de5781602001600182028038833980820191505090505b50905060006001830390505b6000861461235757600a86816122fc57fe5b0660300160f81b8282806001900393508151811061231657fe5b60200101907effffffffffffffffffffffffffffffffffffffffffffffffffffffffffffff1916908160001a905350600a868161234f57fe5b0495506122ea565b819450505050505b919050565b60608282604051602001612379929190613a4d565b604051602081830303815290604052905092915050565b6000606082905060008060009050600091505b82518210156123fe5760008383815181106123ba57fe5b602001015160f81c60f81b60f81c60ff169050603081101580156123df575060398111155b156123f05760308103600a83020191505b5081806001019250506123a3565b809350505050919050565b600085600015156001600083815260200190815260200160002060020160019054906101000a900460ff16151514156124755760006001600083815260200190815260200160002060020160006101000a81548160ff0219169083600281111561246f57fe5b02179055505b600254600160008381526020019081526020016000206000015401421015806124b557506103e86001600083815260200190815260200160002060010154145b156124fd5760026001600083815260200190815260200160002060020160006101000a81548160ff021916908360028111156124ed57fe5b02179055506124fb816117be565b505b61250561371f565b60405180608001604052808873ffffffffffffffffffffffffffffffffffffffff16815260200187815260200186815260200185815250905060016000898152602001908152602001600020600501819080600181540180825580915050906001820390600052602060002090600402016000909192909190915060008201518160000160006101000a81548173ffffffffffffffffffffffffffffffffffffffff021916908373ffffffffffffffffffffffffffffffffffffffff1602179055506020820151816001015560408201518160020155606082015181600301555050506125f188612f3b565b5060019250505095945050505050565b6000806000905060006001826002020190505b600160008581526020019081526020016000206006018054905081101561299b576000819050600060018301905060016000878152602001908152602001600020600601805490508110156126d95760016000878152602001908152602001600020600601838154811061268457fe5b9060005260206000209060040201600101546001600088815260200190815260200160002060060182815481106126b757fe5b90600052602060002090600402016001015410156126d85781806001019250505b5b6001600087815260200190815260200160002060060184815481106126fa57fe5b90600052602060002090600402016001015460016000888152602001908152602001600020600601838154811061272d57fe5b906000526020600020906004020160010154101561298d5761274d61371f565b60016000888152602001908152602001600020600601858154811061276e57fe5b90600052602060002090600402016040518060800160405290816000820160009054906101000a900473ffffffffffffffffffffffffffffffffffffffff1673ffffffffffffffffffffffffffffffffffffffff1673ffffffffffffffffffffffffffffffffffffffff1681526020016001820154815260200160028201548152602001600382015481525050905060016000888152602001908152602001600020600601838154811061281e57fe5b906000526020600020906004020160016000898152602001908152602001600020600601868154811061284d57fe5b90600052602060002090600402016000820160009054906101000a900473ffffffffffffffffffffffffffffffffffffffff168160000160006101000a81548173ffffffffffffffffffffffffffffffffffffffff021916908373ffffffffffffffffffffffffffffffffffffffff1602179055506001820154816001015560028201548160020155600382015481600301559050508060016000898152602001908152602001600020600601848154811061290557fe5b906000526020600020906004020160008201518160000160006101000a81548173ffffffffffffffffffffffffffffffffffffffff021916908373ffffffffffffffffffffffffffffffffffffffff16021790555060208201518160010155604082015181600201556060820151816003015590505082945060018560020201935050612994565b505061299b565b5050612614565b600192505050919050565b600080905060006001826002020190505b6001600084815260200190815260200160002060050180549050811015612d3e57600081905060006001830190506001600086815260200190815260200160002060050180549050811015612a7c57600160008681526020019081526020016000206005018381548110612a2757fe5b906000526020600020906004020160010154600160008781526020019081526020016000206005018281548110612a5a57fe5b9060005260206000209060040201600101541115612a7b5781806001019250505b5b600160008681526020019081526020016000206005018281548110612a9d57fe5b906000526020600020906004020160010154600160008781526020019081526020016000206005018581548110612ad057fe5b9060005260206000209060040201600101541015612d3057612af061371f565b600160008781526020019081526020016000206005018581548110612b1157fe5b90600052602060002090600402016040518060800160405290816000820160009054906101000a900473ffffffffffffffffffffffffffffffffffffffff1673ffffffffffffffffffffffffffffffffffffffff1673ffffffffffffffffffffffffffffffffffffffff16815260200160018201548152602001600282015481526020016003820154815250509050600160008781526020019081526020016000206005018381548110612bc157fe5b9060005260206000209060040201600160008881526020019081526020016000206005018681548110612bf057fe5b90600052602060002090600402016000820160009054906101000a900473ffffffffffffffffffffffffffffffffffffffff168160000160006101000a81548173ffffffffffffffffffffffffffffffffffffffff021916908373ffffffffffffffffffffffffffffffffffffffff16021790555060018201548160010155600282015481600201556003820154816003015590505080600160008881526020019081526020016000206005018481548110612ca857fe5b906000526020600020906004020160008201518160000160006101000a81548173ffffffffffffffffffffffffffffffffffffffff021916908373ffffffffffffffffffffffffffffffffffffffff16021790555060208201518160010155604082015181600201556060820151816003015590505082945060018560020201935050612d37565b5050612d3e565b50506129b7565b505050565b600085600015156001600083815260200190815260200160002060020160019054906101000a900460ff1615151415612daf5760006001600083815260200190815260200160002060020160006101000a81548160ff02191690836002811115612da957fe5b02179055505b60025460016000838152602001908152602001600020600001540142101580612def57506103e86001600083815260200190815260200160002060010154145b15612e375760026001600083815260200190815260200160002060020160006101000a81548160ff02191690836002811115612e2757fe5b0217905550612e35816117be565b505b612e3f61371f565b60405180608001604052808873ffffffffffffffffffffffffffffffffffffffff16815260200187815260200186815260200185815250905060016000898152602001908152602001600020600601819080600181540180825580915050906001820390600052602060002090600402016000909192909190915060008201518160000160006101000a81548173ffffffffffffffffffffffffffffffffffffffff021916908373ffffffffffffffffffffffffffffffffffffffff160217905550602082015181600101556040820151816002015560608201518160030155505050612f2b8861332d565b5060019250505095945050505050565b600081600015156001600083815260200190815260200160002060020160019054906101000a900460ff1615151415612fa75760006001600083815260200190815260200160002060020160006101000a81548160ff02191690836002811115612fa157fe5b02179055505b60025460016000838152602001908152602001600020600001540142101580612fe757506103e86001600083815260200190815260200160002060010154145b1561302f5760026001600083815260200190815260200160002060020160006101000a81548160ff0219169083600281111561301f57fe5b021790555061302d816117be565b505b60006001806000868152602001908152602001600020600501805490500390505b60008111156133225760006002600183038161306857fe5b04905060016000868152602001908152602001600020600501818154811061308c57fe5b9060005260206000209060040201600101546001600087815260200190815260200160002060050183815481106130bf57fe5b9060005260206000209060040201600101541115613316576130df61371f565b60016000878152602001908152602001600020600501838154811061310057fe5b90600052602060002090600402016040518060800160405290816000820160009054906101000a900473ffffffffffffffffffffffffffffffffffffffff1673ffffffffffffffffffffffffffffffffffffffff1673ffffffffffffffffffffffffffffffffffffffff168152602001600182015481526020016002820154815260200160038201548152505090506001600087815260200190815260200160002060050182815481106131b057fe5b90600052602060002090600402016001600088815260200190815260200160002060050184815481106131df57fe5b90600052602060002090600402016000820160009054906101000a900473ffffffffffffffffffffffffffffffffffffffff168160000160006101000a81548173ffffffffffffffffffffffffffffffffffffffff021916908373ffffffffffffffffffffffffffffffffffffffff1602179055506001820154816001015560028201548160020155600382015481600301559050508060016000888152602001908152602001600020600501838154811061329757fe5b906000526020600020906004020160008201518160000160006101000a81548173ffffffffffffffffffffffffffffffffffffffff021916908373ffffffffffffffffffffffffffffffffffffffff1602179055506020820151816001015560408201518160020155606082015181600301559050508192505061331c565b50613322565b50613050565b600192505050919050565b600081600015156001600083815260200190815260200160002060020160019054906101000a900460ff16151514156133995760006001600083815260200190815260200160002060020160006101000a81548160ff0219169083600281111561339357fe5b02179055505b600254600160008381526020019081526020016000206000015401421015806133d957506103e86001600083815260200190815260200160002060010154145b156134215760026001600083815260200190815260200160002060020160006101000a81548160ff0219169083600281111561341157fe5b021790555061341f816117be565b505b60006001806000868152602001908152602001600020600601805490500390505b60008111156137145760006002600183038161345a57fe5b04905060016000868152602001908152602001600020600601818154811061347e57fe5b9060005260206000209060040201600101546001600087815260200190815260200160002060060183815481106134b157fe5b9060005260206000209060040201600101541015613708576134d161371f565b6001600087815260200190815260200160002060060183815481106134f257fe5b90600052602060002090600402016040518060800160405290816000820160009054906101000a900473ffffffffffffffffffffffffffffffffffffffff1673ffffffffffffffffffffffffffffffffffffffff1673ffffffffffffffffffffffffffffffffffffffff168152602001600182015481526020016002820154815260200160038201548152505090506001600087815260200190815260200160002060060182815481106135a257fe5b90600052602060002090600402016001600088815260200190815260200160002060060184815481106135d157fe5b90600052602060002090600402016000820160009054906101000a900473ffffffffffffffffffffffffffffffffffffffff168160000160006101000a81548173ffffffffffffffffffffffffffffffffffffffff021916908373ffffffffffffffffffffffffffffffffffffffff1602179055506001820154816001015560028201548160020155600382015481600301559050508060016000888152602001908152602001600020600601838154811061368957fe5b906000526020600020906004020160008201518160000160006101000a81548173ffffffffffffffffffffffffffffffffffffffff021916908373ffffffffffffffffffffffffffffffffffffffff1602179055506020820151816001015560408201518160020155606082015181600301559050508192505061370e565b50613714565b50613442565b600192505050919050565b6040518060800160405280600073ffffffffffffffffffffffffffffffffffffffff1681526020016000815260200160008152602001600081525090565b60008135905061376c81613d12565b92915050565b60008151905061378181613d29565b92915050565b60008135905061379681613d40565b92915050565b6000602082840312156137ae57600080fd5b60006137bc8482850161375d565b91505092915050565b600080604083850312156137d857600080fd5b60006137e68582860161375d565b92505060206137f78582860161375d565b9150509250929050565b6000806040838503121561381457600080fd5b60006138228582860161375d565b925050602061383385828601613787565b9150509250929050565b60006020828403121561384f57600080fd5b600061385d84828501613772565b91505092915050565b60006020828403121561387857600080fd5b600061388684828501613787565b91505092915050565b6000806000606084860312156138a457600080fd5b60006138b286828701613787565b93505060206138c386828701613787565b92505060406138d486828701613787565b9150509250925092565b6138e781613c8a565b82525050565b6138f681613c2f565b82525050565b61390581613c2f565b82525050565b61391481613c41565b82525050565b61392381613c9c565b82525050565b600061393482613c08565b61393e8185613c24565b935061394e818560208601613cd2565b80840191505092915050565b6000613967601b83613c13565b91507f496e73756666696369656e742045746865722062616c616e63652e00000000006000830152602082019050919050565b60006139a7601b83613c13565b91507f496e73756666696369656e7420546f6b656e2062616c616e63652e00000000006000830152602082019050919050565b6080820160008201516139f060008501826138ed565b506020820151613a036020850182613a2f565b506040820151613a166040850182613a2f565b506060820151613a296060850182613a2f565b50505050565b613a3881613c80565b82525050565b613a4781613c80565b82525050565b6000613a598285613929565b9150613a658284613929565b91508190509392505050565b6000606082019050613a8660008301866138de565b613a9360208301856138fc565b613aa06040830184613a3e565b949350505050565b6000604082019050613abd60008301856138de565b613aca6020830184613a3e565b9392505050565b6000606082019050613ae660008301866138fc565b613af36020830185613a3e565b613b006040830184613a3e565b949350505050565b6000602082019050613b1d600083018461390b565b92915050565b60006020820190508181036000830152613b3c8161395a565b9050919050565b60006020820190508181036000830152613b5c8161399a565b9050919050565b6000608082019050613b7860008301846139da565b92915050565b6000602082019050613b936000830184613a3e565b92915050565b600060e082019050613bae600083018a613a3e565b613bbb6020830189613a3e565b613bc8604083018861391a565b613bd5606083018761390b565b613be26080830186613a3e565b613bef60a0830185613a3e565b613bfc60c08301846138fc565b98975050505050505050565b600081519050919050565b600082825260208201905092915050565b600081905092915050565b6000613c3a82613c60565b9050919050565b60008115159050919050565b6000819050613c5b82613d05565b919050565b600073ffffffffffffffffffffffffffffffffffffffff82169050919050565b6000819050919050565b6000613c9582613cae565b9050919050565b6000613ca782613c4d565b9050919050565b6000613cb982613cc0565b9050919050565b6000613ccb82613c60565b9050919050565b60005b83811015613cf0578082015181840152602081019050613cd5565b83811115613cff576000848401525b50505050565b60038110613d0f57fe5b50565b613d1b81613c2f565b8114613d2657600080fd5b50565b613d3281613c41565b8114613d3d57600080fd5b50565b613d4981613c80565b8114613d5457600080fd5b5056fea365627a7a723158204822d78e07cb40931564b48b56f95eda68f9ed121dd855f0a30eac926e8dd3f26c6578706572696d656e74616cf564736f6c634300050c0040",
  "source": "pragma solidity >=0.4.22;\npragma experimental ABIEncoderV2;\n\n//import \"http://github.com/OpenZeppelin/openzeppelin-solidity/contracts/token/ERC20/IERC20.sol\";\nimport \"openzeppelin-solidity/contracts/token/ERC20/IERC20.sol\";\n\n//call martket, collateralized\ncontract Orderbook_V15{\n\n//************************String Converaion and Contcatenation************************//\n\n\nfunction str2uint (string memory s) internal pure returns (uint) {\n        bytes memory b = bytes(s);\n        uint i;\n        uint result = 0;\n        for (i = 0; i < b.length; i++) {\n            uint c = uint(uint8(b[i]));\n            if (c >= 48 && c <= 57) {\n                result = result * 10 + (c - 48);\n            }\n        }\n    \n    return result;\n    }\n\nfunction uint2str(uint _i) internal pure returns (string memory _uintAsString) {\n        if (_i == 0) {\n            return \"0\";\n        }\n        uint j = _i;\n        uint len;\n        while (j != 0) {\n            len++;\n            j /= 10;\n        }\n        bytes memory bstr = new bytes(len);\n        uint k = len - 1;\n        while (_i != 0) {\n            bstr[k--] = byte(uint8(48 + _i % 10));\n            _i /= 10;\n        }\n        return string(bstr);\n    }\n    \n    function contcat(string memory a, string memory b) internal pure returns (string memory) {\n\n        return string (abi.encodePacked( a , b));\n\n\n    }\n    \n    function bytes32ToString(bytes32 x) internal pure returns (string memory) {\n    bytes memory bytesString = new bytes(32);\n    uint charCount = 0;\n    for (uint j = 0; j < 32; j++) {\n        byte char = byte(bytes32(uint(x) * 2 ** (8 * j)));\n        if (char != 0) {\n            bytesString[charCount] = char;\n            charCount++;\n        }\n    }\n    bytes memory bytesStringTrimmed = new bytes(charCount);\n    for (uint j = 0; j < charCount; j++) {\n        bytesStringTrimmed[j] = bytesString[j];\n    }\n    return string(bytesStringTrimmed);\n}\n\n//*********************************************************************************//\n\n//**********************************************//\n//Every order has some attributes:\n    struct OrderStruct \n    {\n        address Sender;\n        uint256 Price;\n        uint256 AuxPrice; //This is not the real price of the order, it's the contcantenation of the real price and the counter which helps to sort the heap wehen there are ties\n        uint256 Volume; //The volume is 1 for now\n        \n    }\n//**********************************************//\n//Every Auction has some attributes:\n    struct AuctionStruct\n    {\n        uint256 CreationTime;\n        uint256 NumOrders;      //Number of all the orders within the auction\n        States state;\n        bool isValue;\n        uint256 BuyListCounter;  //the counter for BuyList which sorts the order incrementally\n        uint256 SellListCounter;  //the counter for SellList which sorts the order decrementally\n        OrderStruct[] BuyList;  //The array that contains Bid OrderStructs (descending (decremental)), we always want the highest bid (maxheap)\n        OrderStruct[] SellList; //The array that contains Ask OrderStructs (ascending (incremental)), we always want the lowest ask (minheap)\n        address Token;          //The token that is being traded in the auction\n    }    \n    \n //**********************************************//   \n    enum States {UnInitiallized, Opened, Closed} \n    //Opened: biddingTime, Settlement has not yet started.\n    //Locked: biddingTimes over, Settlements satrted and not finished yet.\n    //Ended: biddingTime and Settlement are both over , which means the auction is ended. \n    uint256 numAuctions;\n    mapping (uint256 => AuctionStruct) public Auctions;\n    uint public biddingTime = 5 minutes;\n\n    event LogBuyList (address _sender, uint256 _price, uint256 _volume);\n    \n    \n\n//**********************************************//\n//***************Modifiers*******************//\n//**********************************************//\n    //Checks if the auction should be closed or not.\n    modifier CheckAuctionStage (uint256 _AuctionID) {\n        if (Auctions[_AuctionID].isValue == false) {Auctions[_AuctionID].state = States.UnInitiallized;}\n        if (now >= Auctions[_AuctionID].CreationTime + biddingTime || Auctions[_AuctionID].NumOrders == 1000) \n        {\n            Auctions[_AuctionID].state = States.Closed;\n            CloseMarket(_AuctionID);\n            \n        }\n        _;\n    }\n//**********************************************// \n    //Allows a function (submitbid() or submitask()) to get executed if the auction is in a desired state.\n    modifier ToPlaceOrderAuctionAtStage (uint256 _AuctionID , States state_1) { \n        require (Auctions[_AuctionID].state == state_1);\n        _;\n    }\n//**********************************************// \n    //Checks wether the auction is at state_1 or not\n    modifier AuctionAtStage (uint256 _AuctionID , States state_1 ) { \n        require (Auctions[_AuctionID].state == state_1); \n        _;\n    }\n//**********************************************// \n    //Checks wether the auction is at state_1 or not\n    modifier CheckEscrow (uint256 _AuctionID , States state_1 ) { \n        require (Auctions[_AuctionID].state == state_1); \n        _;\n    }\n\n\n    \n//***************Escrow Variables and Functions******************//    \n    \n    //To make the escrow fully general, the contract does not assume a specific ERC20 token, \n    //so a single account may escrow different tokens at the same time. \n    //For each (account, token) pair, the contract tracks its balance and the time when escrow expires:\n    //User (Sellers) => Token => balanace\n    mapping(address => mapping(address => uint256)) public TokenBalance;\n    //mapping(address => mapping(address => uint256)) public escrowExpiration;\n    \n    \n    //User (Biders) => balance(Ether)\n    mapping(address => uint256) public EtherBalance;\n\n//**************DepositToken() Function*********************//   \n    //The token holder must first approve the amount to the exchange contract by calling the approve() from the ERC20 token contract\n    function DepositToken(address _token, uint256 _numofTokens) public returns (bool) {\n        \n        require(IERC20(_token).transferFrom(msg.sender, address(this), _numofTokens));\n        TokenBalance[msg.sender][_token] += _numofTokens;\n        return true;\n        \n        \n    }\n//**************DepositEther() Function*********************//    \n    \n    function DepositEther() public payable returns (bool) {\n        EtherBalance[msg.sender] += msg.value;\n        return true;\n        \n    }\n    \n\n\n//******************** OpenMarket function ********************//\n    //To open a market(auction) on an specific token, user has to call OpenMarket() function and pass the address of ERC20 token to it\n    function OpenMarket(address _token) public returns (uint256 _AuctionID){\n    \n\n        _AuctionID = numAuctions++;\n        \n        Auctions[_AuctionID].CreationTime = now; \n        Auctions[_AuctionID].NumOrders = 0;\n        Auctions[_AuctionID].state = States.Opened;\n        Auctions[_AuctionID].isValue = true;\n        Auctions[_AuctionID].BuyListCounter = 999;\n        Auctions[_AuctionID].SellListCounter = 0;\n        Auctions[_AuctionID].Token = _token;\n        \n        return _AuctionID;\n\n    }\n//******************** CloseMarket function ********************//\n    \n    function CloseMarket(uint256 _AuctionID) public returns (bool){\n\n        //MatchOrders(_AuctionID);\n        Auctions[_AuctionID].state = States.Closed;\n        return true;\n\n    }\n//******************** MatchOrders function ********************//\n    function MatchOrders(uint256 _AuctionID) public \n    AuctionAtStage (_AuctionID, States.Closed)\n    returns (bool){\n        \n        //uint256 BestBid;\n        //uint256 BestAsk;\n        uint256 refund;\n        \n           \n        while (BuyListpeak(_AuctionID).Price >= SellListpeak(_AuctionID).Price){\n            OrderStruct memory temp_BestBid = BuyListpeak(_AuctionID);\n            OrderStruct memory temp_BestAsk = SellListpeak(_AuctionID);\n            \n        \n    \n            transferToken (temp_BestAsk.Sender, temp_BestBid.Sender, Auctions[_AuctionID].Token, temp_BestBid.Volume);\n            transferEther (temp_BestBid.Sender,temp_BestAsk.Sender, Auctions[_AuctionID].Token, temp_BestAsk.Price );\n\n            //Pays the difference to the miner\n            require (temp_BestBid.Price - temp_BestAsk.Price != 0);\n            EtherBalance[block.coinbase] += temp_BestBid.Price - temp_BestAsk.Price;\n            refund = EtherBalance[block.coinbase]; \n            EtherBalance[block.coinbase] = 0; \n            block.coinbase.transfer(refund);    \n            \n            \n        }\n        \n\n        \n    }\n    \n    \n//******************** transferToken() & transferEther() internal ********************//    \n    //These two functions are fired During the order matching \n    function transferToken( address _fromSeller, address _toBuyer, address _token, uint256 _numofTokens) internal\n    {\n        require(TokenBalance[_fromSeller][_token] >= _numofTokens,  \"Insufficient Token balance.\");\n\n        TokenBalance[_fromSeller][_token] -= _numofTokens;\n        TokenBalance[_toBuyer][_token] += _numofTokens;\n    }\n//******************************************************//    \n    function transferEther( address _fromBuyer, address _toSeller, address _token, uint256 _numofEthers) internal\n    {\n        require(EtherBalance[_fromBuyer] >= _numofEthers,  \"Insufficient Ether balance.\");\n\n        EtherBalance[_fromBuyer] -= _numofEthers;\n        EtherBalance[_toSeller] += _numofEthers;\n    } \n//******************************************************// \n\n\n//******************** claimTokens() & claimEther() ********************//\n    //traders can claim their tokens or ethers uisng the following two functions\n\n    function claimTokens (address _token) public returns (bool)\n    {\n        require (TokenBalance[msg.sender][_token] > 0);\n        uint tokensToBeClaimed = TokenBalance[msg.sender][_token] ;\n        TokenBalance[msg.sender][_token] = 0;\n        IERC20(_token).transfer(msg.sender, tokensToBeClaimed);\n        return true;\n    }\n//******************************************************//      \n    function claimEther () public returns (bool)\n    {\n        require (EtherBalance[msg.sender] > 0);\n        uint EthersToBeClaimed = EtherBalance[msg.sender] ;\n        EtherBalance[msg.sender]  = 0;\n        msg.sender.transfer(EthersToBeClaimed);\n        return true;\n    }    \n\n    \n//******************** submitBid function ********************//\n    //submitBid function calls the maxheap_insert function    \n    //The Bidder must first deposit enough Ether in the exachange (DepositEther())\n    function submitBid (uint256 _AuctionID, uint256 _price, uint256 _volume) public \n    CheckAuctionStage (_AuctionID) \n    ToPlaceOrderAuctionAtStage (_AuctionID, States.Opened)\n    returns (bool)\n    {\n        \n        \n        require (EtherBalance[msg.sender] >= _volume * _price );\n        \n        uint256 _finalpriceUint;\n        string memory _finalpriceString;\n        _finalpriceString = contcat ( uint2str(_price), uint2str (Auctions[_AuctionID].BuyListCounter));\n        _finalpriceUint = str2uint (_finalpriceString);\n        \n        \n        if(maxheap_insert(_AuctionID , msg.sender, _price, _finalpriceUint, _volume)){\n            Auctions[_AuctionID].BuyListCounter--;\n            Auctions[_AuctionID].NumOrders++;\n            EtherBalance[msg.sender] -= _volume * _price;\n            \n        }\n        \n    \n        return true;\n    }\n\n//******************** submitask function ********************//\n    //submitAsk function calls the minheap_insert function\n    //The Bidder must first deposit enough Token in the exachange (DepositToken())\n    function submitAsk (uint256 _AuctionID, uint256 _price, uint256 _volume ) public \n    CheckAuctionStage (_AuctionID) \n    ToPlaceOrderAuctionAtStage (_AuctionID, States.Opened)\n    returns (bool)\n    {\n        require( TokenBalance[msg.sender][Auctions[_AuctionID].Token] >= _volume);\n        \n        uint256 _finalpriceUint;\n        string memory _finalpriceString;\n        _finalpriceString = contcat ( uint2str(_price), uint2str (Auctions[_AuctionID].SellListCounter));\n        _finalpriceUint = str2uint (_finalpriceString);\n        \n        if (minheap_insert( _AuctionID, msg.sender, _price, _finalpriceUint, _volume))\n        {\n                Auctions[_AuctionID].SellListCounter++;\n                Auctions[_AuctionID].NumOrders++;\n                TokenBalance[msg.sender][Auctions[_AuctionID].Token] -= _volume;\n        }\n        \n        return true;\n\n    }\n\n//*******************  maxheap Functions (BuyList) ****************//\n//*****************************************************************//\n//*****************************************************************//\n//*****************************************************************//\n\n\n//*******************  maxheap_insert () ***************************//\n    //the new item will be added to the end of the array list (a buy order is submitted)\n    //then heapified up with a call to heapifyUp method\n    function maxheap_insert (uint256 _AuctionID, address _sender, uint256 _price, uint256 _auxPrice, uint256 _volume) internal \n    CheckAuctionStage (_AuctionID)\n    returns (bool)\n    {\n        \n        OrderStruct memory neworder = OrderStruct(_sender, _price , _auxPrice, _volume);\n        Auctions[_AuctionID].BuyList.push(neworder);\n        maxheap_heapifyUp (_AuctionID);\n        return true;\n    }    \n//*******************  maxheap_heapifyUp () ***************************//\n    //this function is called everytime we insert a new element to the end of the array (aka a new Buy order is submitted) and\n    //now the heap has to be sorted again\n    function maxheap_heapifyUp (uint256 _AuctionID) internal \n    CheckAuctionStage (_AuctionID)\n    returns (bool) {\n    \n        uint256 k = Auctions[_AuctionID].BuyList.length - 1;                   //k is set to be the last entry of the array (also heap) which is the element that's just added and has to be moved up\n        while (k > 0){                                  //while we havent reached to the top of the heap\n            uint256 p = (k-1)/2;                           //we need to compute the parent of this last element which is p = (k-1)/2\n            if (Auctions[_AuctionID].BuyList[k].Price > Auctions[_AuctionID].BuyList[p].Price) //if the element is greater than its parent\n            {   //\"!SYNTAX!\"\n                //Orderbook_V9.swap(SellList, k, p);              //swap the element at index k with its parent\n                OrderStruct memory temp = Auctions[_AuctionID].BuyList[k];    //\"!SYNTAX!\"//swap the element at index k with its parent\n                Auctions[_AuctionID].BuyList[k] = Auctions[_AuctionID].BuyList[p];\n                Auctions[_AuctionID].BuyList[p] = temp;\n                k = p;                                  //k moves up one level\n            }\n            else {break;}                               //if not the break statement exits the loop (it continues until no element index k is not greater than its parent)\n        }\n        return true;\n    }\n//*******************  maxheap_heapifyDown () ***************************//\n    //when we want to remove an element from the heap we remove the root of the heap and add the last item\n    //to the root and reorder the heap again\n    function maxheap_heapifyDown (uint256 _AuctionID) internal {\n        uint256 k =0;\n        uint256 leftchild = 2*k + 1;\n        while (leftchild < Auctions[_AuctionID].BuyList.length)\n        {                                   //as long as the left child is within the array that heap is stored in\n            uint max = leftchild;\n            uint rightchild = leftchild + 1;                                     //rightchild = 2k+2\n\n            if (rightchild < Auctions[_AuctionID].BuyList.length)                                       //if there is a rightchild\n            {\n                if (Auctions[_AuctionID].BuyList[rightchild].Price > Auctions[_AuctionID].BuyList[leftchild].Price)    //then the right child and left child are compared\n                {\n                    max++;                                                       //now max is set to rightchild, otherwise max remains to be the leftchild\n                }\n            }\n\n        if (Auctions[_AuctionID].BuyList[k].Price < Auctions[_AuctionID].BuyList[max].Price)                        //compares the k item with the max item and if k is smaller than its greatest children they are swapped\n        {\n            //swap k with its greatest children (max)\n            //\"!SYNTAX!\"\n            //Orderbook_V9.swap (SellList, k, max);\n            OrderStruct memory temp = Auctions[_AuctionID].BuyList[k];    //\"!SYNTAX!\"//swap the element at index k with its parent\n            Auctions[_AuctionID].BuyList[k] = Auctions[_AuctionID].BuyList[max];\n            Auctions[_AuctionID].BuyList[max] = temp;\n            k = max;                                                         //k is set to max\n            leftchild =2*k + 1;                                              //l is recompuetd in preparation for the next iteration\n        }\n        else{                                                               //if the k item is not smaller than the max item, heapifyDown should stop\n            break;\n            }\n        }\n    }\n    \n//****************   BuyListpeak()  *********************//\n    //BuyListpeak function returns the highest priority element (The highest bid)\n    function BuyListpeak(uint256 _AuctionID) public view returns (OrderStruct memory){\n\n        require(Auctions[_AuctionID].BuyList.length != 0); //throws exception if the maxheap (BuyList) is empty\n        return (Auctions[_AuctionID].BuyList[0]);\n    }\n    \n    //Function Overloading: When BuyListpeak() is called from inside of the MatchingOrder(), it recieves just an array (and not an AuctionID) as paramater  \n    function BuyListpeak(OrderStruct[] memory _array) internal view returns (OrderStruct memory){\n\n        require(_array.length != 0); //throws exception if the list is empty\n        return (_array[0]);\n    }\n    \n//*******************  maxheap_delete () ***************************//\n    //the highest priority item will be removed from the list and is returned by the function\n    //then the heap is reordered uising the heapifyDown method\n    function maxheap_delete (uint256 _AuctionID) public returns (OrderStruct memory) \n    {\n        if (Auctions[_AuctionID].BuyList.length == 0) { revert(); }                             //the delete function throws exception if the heap is empty\n        if (Auctions[_AuctionID].BuyList.length == 1) {                                      // if the heap has only one items\n            OrderStruct memory result =  Auctions[_AuctionID].BuyList[0];         \n            delete Auctions[_AuctionID].BuyList[0];  \n            //Auctions[_AuctionID].BuyList.length--;                                        //the only element of the heap is removed and returned \"!SYNTAX!\"\n            //_sender = result.Sender;\n            //_price = result.Price;\n            //_volume = result.Volume;\n            return(result);\n        }\n\n        //if neither of these conditions are true, then there are at least 2 items in the heap and deletion proceeds\n        OrderStruct memory result = Auctions[_AuctionID].BuyList[0]; //the element on the of the heap is placed in the variable called hold\n        Auctions[_AuctionID].BuyList[0] = Auctions[_AuctionID].BuyList[Auctions[_AuctionID].BuyList.length -1]; //the last elementof the heap is removed and written into the first position\n        delete Auctions[_AuctionID].BuyList[Auctions[_AuctionID].BuyList.length -1];\n        //Auctions[_AuctionID].BuyList.length--;\n        maxheap_heapifyDown(_AuctionID); //now the siftdown is called\n        return (result);\n    }\n    \n    \n    \n    \n//*******************  minheap Functions (SellList) ****************//\n//*****************************************************************//\n//*****************************************************************//\n//*****************************************************************//\n\n//*******************  minheap_insert () ***************************//\n    //the new item will be added to the end of the array list (a buy order is submitted)\n    //then heapified up with a call to heapifyUp method\n    function minheap_insert (uint256 _AuctionID, address _sender, uint256 _price, uint256 _auxPrice, uint256 _volume) internal \n    CheckAuctionStage (_AuctionID)\n    returns (bool)\n    {\n        OrderStruct memory neworder = OrderStruct(_sender, _price , _auxPrice, _volume); \n        Auctions[_AuctionID].SellList.push(neworder);\n        minheap_heapifyUp(_AuctionID);\n        return true;\n    }\n\n//*******************  minheap_heapifyUp () ***************************//\n    //this function is called everytime we insert a new element to the end of the array (aka a new sell order is submitted) and\n    //now the heap has to be sorted again\n    function minheap_heapifyUp (uint256 _AuctionID) internal \n    CheckAuctionStage (_AuctionID)\n    returns (bool) {\n\n        uint256 k = Auctions[_AuctionID].SellList.length - 1; //k is set to be the last entry of the array(also heap) which is the element that's just added and has to be moved up\n        while (k > 0){                                      //while we havent reached to the top of the heap\n            uint256 p = (k-1)/2;                            //we need to compute the parent of this last element which is p = (k-1)/2\n            if (Auctions[_AuctionID].SellList[k].Price < Auctions[_AuctionID].SellList[p].Price) //if the element is greater than its parent\n            { \n            \n                OrderStruct memory temp = Auctions[_AuctionID].SellList[k];    //swap the element at index k with its parent\n                Auctions[_AuctionID].SellList[k] = Auctions[_AuctionID].SellList[p];\n                Auctions[_AuctionID].SellList[p] = temp;\n                \n                k = p; //k moves up one level\n            }\n            else {break;} //if not the break statement exits the loop (it continues until no element index k is not greater than its parent)\n        }\n        \n        return true;\n    }\n//*******************  minheap_heapifyDown () ***************************//\n    //when we want to remove an element from the heap we remove the root of the heap and add the last item\n    //to the root and reorder the heap again\n    function minheap_heapifyDown (uint256 _AuctionID) internal returns (bool) {\n        uint256 k =0;\n        uint256 leftchild = 2*k + 1;\n        while (leftchild < Auctions[_AuctionID].SellList.length){               //as long as the left child is within the array that heap is stored in\n            uint256 min = leftchild;\n            uint256 rightchild = leftchild + 1;              //rightchild = 2k+2\n\n            if (rightchild < Auctions[_AuctionID].SellList.length)                //if there is a rightchild, then the right child and left child are compared\n            {\n                if (Auctions[_AuctionID].SellList[rightchild].Price < Auctions[_AuctionID].SellList[leftchild].Price)\n                {    min++;   }                               //now min is set to rightchild, otherwise min remains to be the leftchild\n            }\n\n            if (Auctions[_AuctionID].SellList[min].Price < Auctions[_AuctionID].SellList[k].Price) //compares the k item with the max item and if its less they are swapped\n            {\n                //swap (BuyList, k, min); //swap k with its smaller children\n                \n                OrderStruct memory temp = Auctions[_AuctionID].SellList[k];    //\"!SYNTAX!\"//swap the element at index k with its parent\n                Auctions[_AuctionID].SellList[k] = Auctions[_AuctionID].SellList[min];\n                Auctions[_AuctionID].SellList[min] = temp;\n\n                k = min; //k is set to min\n                leftchild = 2*k + 1; //l is recompuetd in preparation for the next iteration\n            }\n            else{ //if k item's smaller childer is not smaller than k item itself, heapifyDown should stop\n                break;\n            }\n\n        }\n        return true;\n    }\n\n//****************   SellListpeak()  *********************//\n    //SellListpeak function returns the highest priority element (The Lowest ask)\n    function SellListpeak(uint256 _AuctionID) public view returns (OrderStruct memory){\n\n        require(Auctions[_AuctionID].SellList.length != 0); //throws exception if the minheap (SellList) is empty\n        return (Auctions[_AuctionID].SellList[0]);\n    }\n    //Function Overloading: When SellListpeak() is called from inside of the MatchingOrder(), it recieves just an array (and not an AuctionID) as paramater  \n    function SellListpeak(OrderStruct[] memory _array) internal view returns (OrderStruct memory){\n\n        require(_array.length != 0); //throws exception if the list is empty\n        return (_array[0]);\n    }\n\n\n//*******************  minheap_delete () ***************************//\n    //the highest priority item (the smallest bid) will be removed from the list and is returned by the function\n    //then the heap is reordered uising the heapifyDown method\n    function minheap_delete (uint256 _AuctionID) public returns (OrderStruct memory)\n    //function minheap_delete () public view returns (uint256 _price)\n    {\n        if (Auctions[_AuctionID].SellList.length == 0) { revert(); }                      //the delete function throws exception if the heap is empty\n        if (Auctions[_AuctionID].SellList.length == 1) {                               // if the heap has only one item\n            OrderStruct memory result = Auctions[_AuctionID].SellList[0];  //\"!SYNTAX!\"\n            delete Auctions[_AuctionID].SellList[0];                                   //the only element of the heap is removed and returned  \"!SYNTAX!\"\n            //Auctions[_AuctionID].SellList.length--;   \n            return (result);                                       // \"!SYNTAX!\"\n        }\n\n        //if neither of these conditions are true, then there are at least 2 items in the heap and deletion proceeds\n        //_sender = BuyList[0].Sender;\n        //_price = BuyList[0].Price;\n       // _volume = BuyList[0].Volume;\n        OrderStruct memory result = Auctions[_AuctionID].SellList[0];\n        //OrderStruct memory hold = BuyList[0];                        //the element on the of the heap is placed in the variable called hold \"!SYNTAX!\"\n        Auctions[_AuctionID].SellList[0] = Auctions[_AuctionID].SellList[Auctions[_AuctionID].SellList.length -1];                      //the last elementof the heap is removed and written into the first position\n        delete Auctions[_AuctionID].SellList[Auctions[_AuctionID].SellList.length -1]; \n        //Auctions[_AuctionID].SellList.length--;                  //\"!SYNTAX!\"\n        minheap_heapifyDown(_AuctionID);                           //now the heapifyDown is called to restore the ordering of the heap \"!SYNTAX!\"\n        return (result);        \n    }\n\n//************************************************************************//\n//************************************************************************//\n//************************************************************************//\n\n\n\n\n\n\n\n\n\n\n    \n    function ReadBuyList(uint256 _AuctionID) public {\n        for (uint i = 0; i< Auctions[_AuctionID].BuyList.length ; i++) {\n            emit LogBuyList(Auctions[_AuctionID].BuyList[i].Sender, Auctions[_AuctionID].BuyList[i].Price, Auctions[_AuctionID].BuyList[i].Volume);\n            \n        }\n        \n    }\n\n\n//************************************************************************//\n//************************************************************************//\n//************************************************************************//\n\n}\n",
  "sourcePath": "/home/mahsa/ProjectRepo/2020-Orderbook/Code/New-Truffle/contracts/CallMarket/Heap with Dynamic Array/Orderbook_V15.sol",
  "compiler": {
    "name": "solc",
    "version": "0.5.12+commit.7709ece9.Emscripten.clang"
  },
  "schemaVersion": "3.2.0",
  "updatedAt": "2020-06-10T20:06:41.273Z",
  "networkType": "ethereum",
  "devdoc": {
    "methods": {}
  },
  "userdoc": {
    "methods": {}
  }
}