{
  "contractName": "PQ1",
  "abi": [
    {
      "constant": false,
      "inputs": [
        {
          "internalType": "uint256",
          "name": "_number",
          "type": "uint256"
        }
      ],
      "name": "Enqueue",
      "outputs": [
        {
          "internalType": "bool",
          "name": "",
          "type": "bool"
        }
      ],
      "payable": false,
      "stateMutability": "nonpayable",
      "type": "function"
    },
    {
      "constant": false,
      "inputs": [],
      "name": "RemoveMax",
      "outputs": [
        {
          "internalType": "uint256",
          "name": "",
          "type": "uint256"
        }
      ],
      "payable": false,
      "stateMutability": "nonpayable",
      "type": "function"
    },
    {
      "constant": false,
      "inputs": [],
      "name": "Dequeue",
      "outputs": [
        {
          "internalType": "uint256",
          "name": "",
          "type": "uint256"
        }
      ],
      "payable": false,
      "stateMutability": "nonpayable",
      "type": "function"
    },
    {
      "constant": false,
      "inputs": [],
      "name": "Peek",
      "outputs": [
        {
          "internalType": "uint256",
          "name": "",
          "type": "uint256"
        }
      ],
      "payable": false,
      "stateMutability": "nonpayable",
      "type": "function"
    },
    {
      "constant": false,
      "inputs": [],
      "name": "isEmpty",
      "outputs": [
        {
          "internalType": "bool",
          "name": "",
          "type": "bool"
        }
      ],
      "payable": false,
      "stateMutability": "nonpayable",
      "type": "function"
    }
  ],
  "bytecode": "0x608060405234801561001057600080fd5b506106b9806100206000396000f3fe608060405234801561001057600080fd5b50600436106100575760003560e01c80630c4a515c1461005c57806327702186146100a2578063681fe70c146100c05780636dd5fa7b146100e2578063b64456a714610100575b600080fd5b6100886004803603602081101561007257600080fd5b810190808035906020019092919050505061011e565b604051808215151515815260200191505060405180910390f35b6100aa610183565b6040518082815260200191505060405180910390f35b6100c86101aa565b604051808215151515815260200191505060405180910390f35b6100ea6101ca565b6040518082815260200191505060405180910390f35b610108610267565b6040518082815260200191505060405180910390f35b6000610128610671565b6040518060200160405280848152509050600081908060018154018082558091505090600182039060005260206000200160009091929091909150600082015181600001555050506101786103dd565b506001915050919050565b60005b600115156101926101aa565b1515146101a7576101a1610267565b50610186565b90565b60008060008054905014156101c257600190506101c7565b600090505b90565b6000806000805490501415610247576040517f08c379a000000000000000000000000000000000000000000000000000000000815260040180806020018281038252600e8152602001807f4c69737420697320656d7074792100000000000000000000000000000000000081525060200191505060405180910390fd5b6000808154811061025457fe5b9060005260206000200160000154905090565b60008060008054905014156102e4576040517f08c379a000000000000000000000000000000000000000000000000000000000815260040180806020018281038252600e8152602001807f4c69737420697320656d7074792100000000000000000000000000000000000081525060200191505060405180910390fd5b600160008054905014156103425760008060008154811061030157fe5b90600052602060002001600001549050600080548061031c57fe5b6001900381819060005260206000200160008082016000905550509055809150506103da565b60008060008154811061035157fe5b9060005260206000200160000154905060006001600080549050038154811061037657fe5b906000526020600020016000808154811061038d57fe5b906000526020600020016000820154816000015590505060008054806103af57fe5b60019003818190600052602060002001600080820160009055505090556103d46104f6565b50809150505b90565b60008060016000805490500390505b60008111156104ee5760006002600183038161040457fe5b0490506000818154811061041457fe5b90600052602060002001600001546000838154811061042f57fe5b906000526020600020016000015411156104e25761044b610671565b6000838154811061045857fe5b9060005260206000200160405180602001604052908160008201548152505090506000828154811061048657fe5b906000526020600020016000848154811061049d57fe5b906000526020600020016000820154816000015590505080600083815481106104c257fe5b9060005260206000200160008201518160000155905050819250506104e8565b506104ee565b506103ec565b600191505090565b6000806000905060006001826002020190505b6000805490508110156106685760008190506000600183019050600080549050811015610576576000838154811061053d57fe5b90600052602060002001600001546000828154811061055857fe5b906000526020600020016000015411156105755781806001019250505b5b6000828154811061058357fe5b90600052602060002001600001546000858154811061059e57fe5b9060005260206000200160000154101561065a576105ba610671565b600085815481106105c757fe5b906000526020600020016040518060200160405290816000820154815250509050600083815481106105f557fe5b906000526020600020016000868154811061060c57fe5b9060005260206000200160008201548160000155905050806000848154811061063157fe5b906000526020600020016000820151816000015590505082945060018560020201935050610661565b5050610668565b5050610509565b60019250505090565b604051806020016040528060008152509056fea265627a7a7231582029242df45ed8b7b1cb40f0c23cb4bbf452daeb6ac6780ee97761304da15e1d1d64736f6c63430005100032",
  "source": "pragma solidity >=0.4.22;\n//pragma experimental ABIEncoderV2;\n\n//Heap with dynamic array wrapped in a priority queue\n\n\ncontract PQ1{\n    \n    //uint256[] MaxHeap;      //The array that contains integers in (descending (decremental)) order, we always want the highest nuber (maxheap)\n    struct OrderStruct \n    {\n        uint256 Number;\n\n    }\n    OrderStruct[] MaxHeap;\n\n//******************* Enqueue() ***************************//\n    //the new item will be added to the end of the array list\n    //then heapified up with a call to heapifyUp method\n    function Enqueue (uint256 _number) public returns (bool)\n    {\n        OrderStruct memory neworder = OrderStruct(_number);\n        MaxHeap.push(neworder);\n        maxheap_heapifyUp();\n        return true;\n    }    \n//*******************  maxheap_heapifyUp () ***************************//\n    //this function is called everytime we insert a new element to the end of the array\n    //now the heap has to be sorted again\n    function maxheap_heapifyUp () internal returns (bool) {\n    \n        uint256 k = MaxHeap.length - 1;                   //k is set to be the last entry of the array (also heap) which is the element that's just added and has to be moved up\n        while (k > 0){                                  //while we havent reached to the top of the heap\n            uint256 p = (k-1)/2;                           //we need to compute the parent of this last element which is p = (k-1)/2\n            if (MaxHeap[k].Number > MaxHeap[p].Number) //if the element is greater than its parent\n            {   \n                OrderStruct memory temp = MaxHeap[k];    //\"!SYNTAX!\"//swap the element at index k with its parent\n                MaxHeap[k] = MaxHeap[p];\n                MaxHeap[p] = temp;\n                k = p;                                  //k moves up one level\n            }\n            else {break;}                               //if not the break statement exits the loop (it continues until no element index k is not greater than its parent)\n        }\n        return true;\n    }\n\n//******************** RemoveMax() function ********************//    \n    //the highest priority item will be removed from the list and returned\n    //then the heap is reordered uising the heapifyDown method\n    function RemoveMax() public returns (uint256) \n    {\n        require (MaxHeap.length != 0,'List is empty!'); //the delete function throws exception if the heap is empty\n        \n        if (MaxHeap.length == 1) {                                      //if the heap has only one items                     \n            uint256 _number =  MaxHeap[0].Number;\n            MaxHeap.pop();                                                 //the only element of the heap is removed and returned \n            return (_number);     \n       \n        }\n\n        //if neither of these conditions are true, then there are at least 2 items in the heap and deletion proceeds\n        uint256 _number =  MaxHeap[0].Number;\n        MaxHeap[0] = MaxHeap[MaxHeap.length -1]; //the last elementof the heap is removed and written into the first position\n        MaxHeap.pop();\n        maxheap_heapifyDown(); //now the siftdown is called\n        return (_number);  \n    }\n//******************** Dequeue() function ********************//    \n    //Emptying the list by iterating over it and deleting the highest priority number in each round (similar to match funtion in the call market)\n    function Dequeue() public returns (uint256) \n    {\n        while (isEmpty() != true)\n        {  \n            RemoveMax();\n        }\n    }\n\n//*******************  maxheap_heapifyDown () ***************************//\n    //when we want to remove an element from the heap we remove the root of the heap and add the last item\n    //to the root and reorder the heap again\n    function maxheap_heapifyDown () internal returns (bool)\n    {\n        uint256 k =0;\n        uint256 leftchild = 2*k + 1;\n        while (leftchild < MaxHeap.length)\n        {                                   //as long as the left child is within the array that heap is stored in\n            uint256 max = leftchild;\n            uint256 rightchild = leftchild + 1;                                     //rightchild = 2k+2\n\n            if (rightchild < MaxHeap.length)                                       //if there is a rightchild\n            {\n                if (MaxHeap[rightchild].Number > MaxHeap[leftchild].Number)    //then the right child and left child are compared\n                {\n                    max++;                                                       //now max is set to rightchild, otherwise max remains to be the leftchild\n                }\n            }\n\n        if (MaxHeap[k].Number < MaxHeap[max].Number)                        //compares the k item with the max item and if k is smaller than its greatest children they are swapped\n        {\n            \n            OrderStruct memory temp = MaxHeap[k];\n            MaxHeap[k] = MaxHeap[max];    \n            MaxHeap[max] = temp;\n            k = max;                                                         //k is set to max\n            leftchild =2*k + 1;                                              //l is recompuetd in preparation for the next iteration\n        }\n        else{                                                               //if the k item is not smaller than the max item, heapifyDown should stop\n            break;\n            }\n        }\n        return true;\n    }\n    \n//****************   Peek()  *********************//\n    //Retrieves, but does not remove, the head of this queue\n    function Peek() public  returns (uint256){\n        \n        require (MaxHeap.length != 0,'List is empty!'); //throws exception if the maxheap (BuyList) is empty\n        return (MaxHeap[0].Number);\n        \n    }\n\n//****************   isEmpty()  *********************//\n    //checks if the MaxHeap is empty or not\n    function isEmpty() public returns (bool){\n        \n        if (MaxHeap.length == 0) \n        {\n            return true;\n\n        }\n        else\n        {\n            return false;\n        }\n    }\n\n\n\n\n}",
  "sourcePath": "/home/mahsa/ProjectRepo/2020-Orderbook/Code/New-Truffle/contracts/PQs_for_Unit_Testings/PQ1.sol",
  "compiler": {
    "name": "solc",
    "version": "0.5.16+commit.9c3226ce.Emscripten.clang"
  },
  "schemaVersion": "3.2.5",
  "updatedAt": "2020-09-15T15:37:55.392Z",
  "networkType": "ethereum",
  "devdoc": {
    "methods": {}
  },
  "userdoc": {
    "methods": {}
  }
}