{
  "contractName": "PQ1",
  "abi": [
    {
      "constant": false,
      "inputs": [
        {
          "internalType": "uint256",
          "name": "_number",
          "type": "uint256"
        }
      ],
      "name": "Enqueue",
      "outputs": [
        {
          "internalType": "bool",
          "name": "",
          "type": "bool"
        }
      ],
      "payable": false,
      "stateMutability": "nonpayable",
      "type": "function",
      "signature": "0x0c4a515c"
    },
    {
      "constant": false,
      "inputs": [],
      "name": "RemoveMax",
      "outputs": [
        {
          "internalType": "uint256",
          "name": "",
          "type": "uint256"
        }
      ],
      "payable": false,
      "stateMutability": "nonpayable",
      "type": "function",
      "signature": "0xb64456a7"
    },
    {
      "constant": false,
      "inputs": [],
      "name": "Dequeue",
      "outputs": [
        {
          "internalType": "uint256",
          "name": "",
          "type": "uint256"
        }
      ],
      "payable": false,
      "stateMutability": "nonpayable",
      "type": "function",
      "signature": "0x27702186"
    },
    {
      "constant": false,
      "inputs": [],
      "name": "Peek",
      "outputs": [
        {
          "internalType": "uint256",
          "name": "",
          "type": "uint256"
        }
      ],
      "payable": false,
      "stateMutability": "nonpayable",
      "type": "function",
      "signature": "0x6dd5fa7b"
    },
    {
      "constant": false,
      "inputs": [],
      "name": "isEmpty",
      "outputs": [
        {
          "internalType": "bool",
          "name": "",
          "type": "bool"
        }
      ],
      "payable": false,
      "stateMutability": "nonpayable",
      "type": "function",
      "signature": "0x681fe70c"
    }
  ],
  "bytecode": "0x608060405234801561001057600080fd5b50610777806100206000396000f3fe608060405234801561001057600080fd5b50600436106100575760003560e01c80630c4a515c1461005c578063277021861461008c578063681fe70c146100aa5780636dd5fa7b146100c8578063b64456a7146100e6575b600080fd5b61007660048036036100719190810190610619565b610104565b60405161008391906106a0565b60405180910390f35b610094610169565b6040516100a191906106db565b60405180910390f35b6100b2610190565b6040516100bf91906106a0565b60405180910390f35b6100d06101b0565b6040516100dd91906106db565b60405180910390f35b6100ee61021a565b6040516100fb91906106db565b60405180910390f35b600061010e6105f1565b60405180602001604052808481525090506000819080600181540180825580915050906001820390600052602060002001600090919290919091506000820151816000015550505061015e61035d565b506001915050919050565b60005b60011515610178610190565b15151461018d5761018761021a565b5061016c565b90565b60008060008054905014156101a857600190506101ad565b600090505b90565b60008060008054905014156101fa576040517f08c379a00000000000000000000000000000000000000000000000000000000081526004016101f1906106bb565b60405180910390fd5b6000808154811061020757fe5b9060005260206000200160000154905090565b6000806000805490501415610264576040517f08c379a000000000000000000000000000000000000000000000000000000000815260040161025b906106bb565b60405180910390fd5b600160008054905014156102c25760008060008154811061028157fe5b90600052602060002001600001549050600080548061029c57fe5b60019003818190600052602060002001600080820160009055505090558091505061035a565b6000806000815481106102d157fe5b906000526020600020016000015490506000600160008054905003815481106102f657fe5b906000526020600020016000808154811061030d57fe5b9060005260206000200160008201548160000155905050600080548061032f57fe5b6001900381819060005260206000200160008082016000905550509055610354610476565b50809150505b90565b60008060016000805490500390505b600081111561046e5760006002600183038161038457fe5b0490506000818154811061039457fe5b9060005260206000200160000154600083815481106103af57fe5b90600052602060002001600001541115610462576103cb6105f1565b600083815481106103d857fe5b9060005260206000200160405180602001604052908160008201548152505090506000828154811061040657fe5b906000526020600020016000848154811061041d57fe5b9060005260206000200160008201548160000155905050806000838154811061044257fe5b906000526020600020016000820151816000015590505081925050610468565b5061046e565b5061036c565b600191505090565b6000806000905060006001826002020190505b6000805490508110156105e857600081905060006001830190506000805490508110156104f657600083815481106104bd57fe5b9060005260206000200160000154600082815481106104d857fe5b906000526020600020016000015411156104f55781806001019250505b5b6000828154811061050357fe5b90600052602060002001600001546000858154811061051e57fe5b906000526020600020016000015410156105da5761053a6105f1565b6000858154811061054757fe5b9060005260206000200160405180602001604052908160008201548152505090506000838154811061057557fe5b906000526020600020016000868154811061058c57fe5b906000526020600020016000820154816000015590505080600084815481106105b157fe5b9060005260206000200160008201518160000155905050829450600185600202019350506105e1565b50506105e8565b5050610489565b60019250505090565b6040518060200160405280600081525090565b6000813590506106138161071d565b92915050565b60006020828403121561062b57600080fd5b600061063984828501610604565b91505092915050565b61064b81610707565b82525050565b600061065e600e836106f6565b91507f4c69737420697320656d707479210000000000000000000000000000000000006000830152602082019050919050565b61069a81610713565b82525050565b60006020820190506106b56000830184610642565b92915050565b600060208201905081810360008301526106d481610651565b9050919050565b60006020820190506106f06000830184610691565b92915050565b600082825260208201905092915050565b60008115159050919050565b6000819050919050565b61072681610713565b811461073157600080fd5b5056fea365627a7a72315820bd6fbbcc7853a4cfe33f180ff989f4aa3cd5bea4b058bd88a565e9482ce5e7ed6c6578706572696d656e74616cf564736f6c634300050c0040",
  "source": "pragma solidity >=0.4.22;\npragma experimental ABIEncoderV2;\n\n//Heap with dynamic array wrapped in a priority queue\n\n\ncontract PQ1{\n    \n    //uint256[] MaxHeap;      //The array that contains integers in (descending (decremental)) order, we always want the highest nuber (maxheap)\n    struct OrderStruct \n    {\n        uint256 Number;\n\n    }\n    OrderStruct[] MaxHeap;\n\n//******************* Enqueue() ***************************//\n    //the new item will be added to the end of the array list\n    //then heapified up with a call to heapifyUp method\n    function Enqueue (uint256 _number) public returns (bool)\n    {\n        OrderStruct memory neworder = OrderStruct(_number);\n        MaxHeap.push(neworder);\n        maxheap_heapifyUp();\n        return true;\n    }    \n//*******************  maxheap_heapifyUp () ***************************//\n    //this function is called everytime we insert a new element to the end of the array\n    //now the heap has to be sorted again\n    function maxheap_heapifyUp () internal returns (bool) {\n    \n        uint256 k = MaxHeap.length - 1;                   //k is set to be the last entry of the array (also heap) which is the element that's just added and has to be moved up\n        while (k > 0){                                  //while we havent reached to the top of the heap\n            uint256 p = (k-1)/2;                           //we need to compute the parent of this last element which is p = (k-1)/2\n            if (MaxHeap[k].Number > MaxHeap[p].Number) //if the element is greater than its parent\n            {   \n                OrderStruct memory temp = MaxHeap[k];    //\"!SYNTAX!\"//swap the element at index k with its parent\n                MaxHeap[k] = MaxHeap[p];\n                MaxHeap[p] = temp;\n                k = p;                                  //k moves up one level\n            }\n            else {break;}                               //if not the break statement exits the loop (it continues until no element index k is not greater than its parent)\n        }\n        return true;\n    }\n\n//******************** RemoveMax() function ********************//    \n    //the highest priority item will be removed from the list and returned\n    //then the heap is reordered uising the heapifyDown method\n    function RemoveMax() public returns (uint256) \n    {\n        require (MaxHeap.length != 0,'List is empty!'); //the delete function throws exception if the heap is empty\n        \n        if (MaxHeap.length == 1) {                                      //if the heap has only one items                     \n            uint256 _number =  MaxHeap[0].Number;\n            MaxHeap.pop();                                                 //the only element of the heap is removed and returned \n            return (_number);     \n       \n        }\n\n        //if neither of these conditions are true, then there are at least 2 items in the heap and deletion proceeds\n        uint256 _number =  MaxHeap[0].Number;\n        MaxHeap[0] = MaxHeap[MaxHeap.length -1]; //the last elementof the heap is removed and written into the first position\n        MaxHeap.pop();\n        maxheap_heapifyDown(); //now the siftdown is called\n        return (_number);  \n    }\n//******************** Dequeue() function ********************//    \n    //Emptying the list by iterating over it and deleting the highest priority number in each round (similar to match funtion in the call market)\n    function Dequeue() public returns (uint256) \n    {\n        while (isEmpty() != true)\n        {  \n            RemoveMax();\n        }\n    }\n\n//*******************  maxheap_heapifyDown () ***************************//\n    //when we want to remove an element from the heap we remove the root of the heap and add the last item\n    //to the root and reorder the heap again\n    function maxheap_heapifyDown () internal returns (bool)\n    {\n        uint256 k =0;\n        uint256 leftchild = 2*k + 1;\n        while (leftchild < MaxHeap.length)\n        {                                   //as long as the left child is within the array that heap is stored in\n            uint256 max = leftchild;\n            uint256 rightchild = leftchild + 1;                                     //rightchild = 2k+2\n\n            if (rightchild < MaxHeap.length)                                       //if there is a rightchild\n            {\n                if (MaxHeap[rightchild].Number > MaxHeap[leftchild].Number)    //then the right child and left child are compared\n                {\n                    max++;                                                       //now max is set to rightchild, otherwise max remains to be the leftchild\n                }\n            }\n\n        if (MaxHeap[k].Number < MaxHeap[max].Number)                        //compares the k item with the max item and if k is smaller than its greatest children they are swapped\n        {\n            \n            OrderStruct memory temp = MaxHeap[k];\n            MaxHeap[k] = MaxHeap[max];    \n            MaxHeap[max] = temp;\n            k = max;                                                         //k is set to max\n            leftchild =2*k + 1;                                              //l is recompuetd in preparation for the next iteration\n        }\n        else{                                                               //if the k item is not smaller than the max item, heapifyDown should stop\n            break;\n            }\n        }\n        return true;\n    }\n    \n//****************   Peek()  *********************//\n    //Retrieves, but does not remove, the head of this queue\n    function Peek() public  returns (uint256){\n        \n        require (MaxHeap.length != 0,'List is empty!'); //throws exception if the maxheap (BuyList) is empty\n        return (MaxHeap[0].Number);\n        \n    }\n\n//****************   isEmpty()  *********************//\n    //checks if the MaxHeap is empty or not\n    function isEmpty() public returns (bool){\n        \n        if (MaxHeap.length == 0) \n        {\n            return true;\n\n        }\n        else\n        {\n            return false;\n        }\n    }\n\n\n\n\n}",
  "sourcePath": "/home/mahsa/ProjectRepo/2020-Orderbook/Code/New-Truffle/contracts/PQs_for_Unit_Testings/PQ1.sol",
  "compiler": {
    "name": "solc",
    "version": "0.5.12+commit.7709ece9.Emscripten.clang"
  },
  "schemaVersion": "3.0.2",
  "updatedAt": "2020-09-10T13:48:49.935Z",
  "devdoc": {
    "methods": {}
  },
  "userdoc": {
    "methods": {}
  }
}