{
  "contractName": "PQ1_Heap_Dynamic_Array",
  "abi": [
    {
      "constant": false,
      "inputs": [
        {
          "internalType": "address",
          "name": "_sender",
          "type": "address"
        },
        {
          "internalType": "uint256",
          "name": "_price",
          "type": "uint256"
        },
        {
          "internalType": "uint256",
          "name": "_volume",
          "type": "uint256"
        },
        {
          "internalType": "uint256",
          "name": "_auxprice",
          "type": "uint256"
        }
      ],
      "name": "InsertBid",
      "outputs": [
        {
          "internalType": "bool",
          "name": "",
          "type": "bool"
        }
      ],
      "payable": false,
      "stateMutability": "nonpayable",
      "type": "function"
    },
    {
      "constant": false,
      "inputs": [],
      "name": "BuyListMaxDelete",
      "outputs": [
        {
          "internalType": "uint256",
          "name": "",
          "type": "uint256"
        },
        {
          "internalType": "address",
          "name": "",
          "type": "address"
        }
      ],
      "payable": false,
      "stateMutability": "nonpayable",
      "type": "function"
    },
    {
      "constant": false,
      "inputs": [],
      "name": "BuyListMaxPrice",
      "outputs": [
        {
          "internalType": "uint256",
          "name": "",
          "type": "uint256"
        }
      ],
      "payable": false,
      "stateMutability": "nonpayable",
      "type": "function"
    },
    {
      "constant": false,
      "inputs": [],
      "name": "BuyListMaxSender",
      "outputs": [
        {
          "internalType": "address",
          "name": "",
          "type": "address"
        }
      ],
      "payable": false,
      "stateMutability": "nonpayable",
      "type": "function"
    },
    {
      "constant": false,
      "inputs": [],
      "name": "BuyListisEmpty",
      "outputs": [
        {
          "internalType": "bool",
          "name": "",
          "type": "bool"
        }
      ],
      "payable": false,
      "stateMutability": "nonpayable",
      "type": "function"
    },
    {
      "constant": false,
      "inputs": [
        {
          "internalType": "address",
          "name": "_sender",
          "type": "address"
        },
        {
          "internalType": "uint256",
          "name": "_price",
          "type": "uint256"
        },
        {
          "internalType": "uint256",
          "name": "_volume",
          "type": "uint256"
        },
        {
          "internalType": "uint256",
          "name": "_auxprice",
          "type": "uint256"
        }
      ],
      "name": "InsertAsk",
      "outputs": [
        {
          "internalType": "bool",
          "name": "",
          "type": "bool"
        }
      ],
      "payable": false,
      "stateMutability": "nonpayable",
      "type": "function"
    },
    {
      "constant": false,
      "inputs": [],
      "name": "SellListMaxPrice",
      "outputs": [
        {
          "internalType": "uint256",
          "name": "",
          "type": "uint256"
        }
      ],
      "payable": false,
      "stateMutability": "nonpayable",
      "type": "function"
    },
    {
      "constant": false,
      "inputs": [],
      "name": "SellListMaxSender",
      "outputs": [
        {
          "internalType": "address",
          "name": "",
          "type": "address"
        }
      ],
      "payable": false,
      "stateMutability": "nonpayable",
      "type": "function"
    },
    {
      "constant": false,
      "inputs": [],
      "name": "SellListisEmpty",
      "outputs": [
        {
          "internalType": "bool",
          "name": "",
          "type": "bool"
        }
      ],
      "payable": false,
      "stateMutability": "nonpayable",
      "type": "function"
    },
    {
      "constant": false,
      "inputs": [],
      "name": "SellListMaxDelete",
      "outputs": [
        {
          "internalType": "uint256",
          "name": "",
          "type": "uint256"
        },
        {
          "internalType": "address",
          "name": "",
          "type": "address"
        }
      ],
      "payable": false,
      "stateMutability": "nonpayable",
      "type": "function"
    }
  ],
  "bytecode": "0x608060405234801561001057600080fd5b50611bf0806100206000396000f3fe608060405234801561001057600080fd5b506004361061009e5760003560e01c806364d4497b1161006657806364d4497b1461013b578063657ffc3c14610159578063ccde53ca14610177578063d735b05f146101a7578063d98ed481146101d75761009e565b806309ab210a146100a35780630b21881b146100c157806315991626146100e057806339f3b8a3146100fe5780635cbe5bed1461011d575b600080fd5b6100ab6101f5565b6040516100b89190611a87565b60405180910390f35b6100c9610215565b6040516100d7929190611afd565b60405180910390f35b6100e8610541565b6040516100f59190611ae2565b60405180910390f35b6101066105b0565b604051610114929190611afd565b60405180910390f35b6101256108d9565b6040516101329190611ae2565b60405180910390f35b610143610947565b6040516101509190611a6c565b60405180910390f35b6101616109d5565b60405161016e9190611a6c565b60405180910390f35b610191600480360361018c919081019061195c565b610a64565b60405161019e9190611a87565b60405180910390f35b6101c160048036036101bc919081019061195c565b610b7c565b6040516101ce9190611a87565b60405180910390f35b6101df610c94565b6040516101ec9190611a87565b60405180910390f35b600080600180549050141561020d5760019050610212565b600090505b90565b60008060006001805490501415610261576040517f08c379a000000000000000000000000000000000000000000000000000000000815260040161025890611ac2565b60405180910390fd5b60018080549050141561035a576000600160008154811061027e57fe5b9060005260206000209060050201600101549050600060016000815481106102a257fe5b906000526020600020906005020160000160009054906101000a900473ffffffffffffffffffffffffffffffffffffffff16905060018054806102e157fe5b6001900381819060005260206000209060050201600080820160006101000a81549073ffffffffffffffffffffffffffffffffffffffff0219169055600182016000905560028201600090556003820160006101000a81549060ff0219169055600482016000905550509055818193509350505061053d565b6000600160008154811061036a57fe5b90600052602060002090600502016001015490506000600160008154811061038e57fe5b906000526020600020906005020160000160009054906101000a900473ffffffffffffffffffffffffffffffffffffffff169050600180808054905003815481106103d557fe5b906000526020600020906005020160016000815481106103f157fe5b90600052602060002090600502016000820160009054906101000a900473ffffffffffffffffffffffffffffffffffffffff168160000160006101000a81548173ffffffffffffffffffffffffffffffffffffffff021916908373ffffffffffffffffffffffffffffffffffffffff16021790555060018201548160010155600282015481600201556003820160009054906101000a900460ff168160030160006101000a81548160ff0219169083151502179055506004820154816004015590505060018054806104bf57fe5b6001900381819060005260206000209060050201600080820160006101000a81549073ffffffffffffffffffffffffffffffffffffffff0219169055600182016000905560028201600090556003820160006101000a81549060ff0219169055600482016000905550509055610533610cb4565b5081819350935050505b9091565b600080600180549050141561058b576040517f08c379a000000000000000000000000000000000000000000000000000000000815260040161058290611ac2565b60405180910390fd5b600160008154811061059957fe5b906000526020600020906005020160010154905090565b6000806000808054905014156105fb576040517f08c379a00000000000000000000000000000000000000000000000000000000081526004016105f290611aa2565b60405180910390fd5b600160008054905014156106f35760008060008154811061061857fe5b906000526020600020906005020160010154905060008060008154811061063b57fe5b906000526020600020906005020160000160009054906101000a900473ffffffffffffffffffffffffffffffffffffffff169050600080548061067a57fe5b6001900381819060005260206000209060050201600080820160006101000a81549073ffffffffffffffffffffffffffffffffffffffff0219169055600182016000905560028201600090556003820160006101000a81549060ff021916905560048201600090555050905581819350935050506108d5565b60008060008154811061070257fe5b906000526020600020906005020160010154905060008060008154811061072557fe5b906000526020600020906005020160000160009054906101000a900473ffffffffffffffffffffffffffffffffffffffff16905060006001600080549050038154811061076e57fe5b90600052602060002090600502016000808154811061078957fe5b90600052602060002090600502016000820160009054906101000a900473ffffffffffffffffffffffffffffffffffffffff168160000160006101000a81548173ffffffffffffffffffffffffffffffffffffffff021916908373ffffffffffffffffffffffffffffffffffffffff16021790555060018201548160010155600282015481600201556003820160009054906101000a900460ff168160030160006101000a81548160ff02191690831515021790555060048201548160040155905050600080548061085757fe5b6001900381819060005260206000209060050201600080820160006101000a81549073ffffffffffffffffffffffffffffffffffffffff0219169055600182016000905560028201600090556003820160006101000a81549060ff02191690556004820160009055505090556108cb610ff7565b5081819350935050505b9091565b6000806000805490501415610923576040517f08c379a000000000000000000000000000000000000000000000000000000000815260040161091a90611aa2565b60405180910390fd5b6000808154811061093057fe5b906000526020600020906005020160010154905090565b6000806000805490501415610991576040517f08c379a000000000000000000000000000000000000000000000000000000000815260040161098890611aa2565b60405180910390fd5b6000808154811061099e57fe5b906000526020600020906005020160000160009054906101000a900473ffffffffffffffffffffffffffffffffffffffff16905090565b6000806001805490501415610a1f576040517f08c379a0000000000000000000000000000000000000000000000000000000008152600401610a1690611ac2565b60405180910390fd5b6001600081548110610a2d57fe5b906000526020600020906005020160000160009054906101000a900473ffffffffffffffffffffffffffffffffffffffff16905090565b6000610a6e6118eb565b6040518060a001604052808773ffffffffffffffffffffffffffffffffffffffff1681526020018681526020018581526020016001151581526020018481525090506001819080600181540180825580915050906001820390600052602060002090600502016000909192909190915060008201518160000160006101000a81548173ffffffffffffffffffffffffffffffffffffffff021916908373ffffffffffffffffffffffffffffffffffffffff160217905550602082015181600101556040820151816002015560608201518160030160006101000a81548160ff02191690831515021790555060808201518160040155505050610b6e61133a565b506001915050949350505050565b6000610b866118eb565b6040518060a001604052808773ffffffffffffffffffffffffffffffffffffffff1681526020018681526020018581526020016001151581526020018481525090506000819080600181540180825580915050906001820390600052602060002090600502016000909192909190915060008201518160000160006101000a81548173ffffffffffffffffffffffffffffffffffffffff021916908373ffffffffffffffffffffffffffffffffffffffff160217905550602082015181600101556040820151816002015560608201518160030160006101000a81548160ff02191690831515021790555060808201518160040155505050610c86611612565b506001915050949350505050565b6000806000805490501415610cac5760019050610cb1565b600090505b90565b6000806000905060006001826002020190505b600180549050811015610fee5760008190506000600183019050600180549050811015610d3c5760018381548110610cfb57fe5b90600052602060002090600502016004015460018281548110610d1a57fe5b9060005260206000209060050201600401541015610d3b5781806001019250505b5b60018481548110610d4957fe5b90600052602060002090600502016004015460018381548110610d6857fe5b9060005260206000209060050201600401541015610fe057610d886118eb565b60018581548110610d9557fe5b90600052602060002090600502016040518060a00160405290816000820160009054906101000a900473ffffffffffffffffffffffffffffffffffffffff1673ffffffffffffffffffffffffffffffffffffffff1673ffffffffffffffffffffffffffffffffffffffff16815260200160018201548152602001600282015481526020016003820160009054906101000a900460ff16151515158152602001600482015481525050905060018381548110610e4c57fe5b906000526020600020906005020160018681548110610e6757fe5b90600052602060002090600502016000820160009054906101000a900473ffffffffffffffffffffffffffffffffffffffff168160000160006101000a81548173ffffffffffffffffffffffffffffffffffffffff021916908373ffffffffffffffffffffffffffffffffffffffff16021790555060018201548160010155600282015481600201556003820160009054906101000a900460ff168160030160006101000a81548160ff021916908315150217905550600482015481600401559050508060018481548110610f3857fe5b906000526020600020906005020160008201518160000160006101000a81548173ffffffffffffffffffffffffffffffffffffffff021916908373ffffffffffffffffffffffffffffffffffffffff160217905550602082015181600101556040820151816002015560608201518160030160006101000a81548160ff0219169083151502179055506080820151816004015590505082945060018560020201935050610fe7565b5050610fee565b5050610cc7565b60019250505090565b6000806000905060006001826002020190505b600080549050811015611331576000819050600060018301905060008054905081101561107f576000838154811061103e57fe5b9060005260206000209060050201600401546000828154811061105d57fe5b906000526020600020906005020160040154111561107e5781806001019250505b5b6000828154811061108c57fe5b906000526020600020906005020160040154600085815481106110ab57fe5b9060005260206000209060050201600401541015611323576110cb6118eb565b600085815481106110d857fe5b90600052602060002090600502016040518060a00160405290816000820160009054906101000a900473ffffffffffffffffffffffffffffffffffffffff1673ffffffffffffffffffffffffffffffffffffffff1673ffffffffffffffffffffffffffffffffffffffff16815260200160018201548152602001600282015481526020016003820160009054906101000a900460ff1615151515815260200160048201548152505090506000838154811061118f57fe5b9060005260206000209060050201600086815481106111aa57fe5b90600052602060002090600502016000820160009054906101000a900473ffffffffffffffffffffffffffffffffffffffff168160000160006101000a81548173ffffffffffffffffffffffffffffffffffffffff021916908373ffffffffffffffffffffffffffffffffffffffff16021790555060018201548160010155600282015481600201556003820160009054906101000a900460ff168160030160006101000a81548160ff02191690831515021790555060048201548160040155905050806000848154811061127b57fe5b906000526020600020906005020160008201518160000160006101000a81548173ffffffffffffffffffffffffffffffffffffffff021916908373ffffffffffffffffffffffffffffffffffffffff160217905550602082015181600101556040820151816002015560608201518160030160006101000a81548160ff021916908315150217905550608082015181600401559050508294506001856002020193505061132a565b5050611331565b505061100a565b60019250505090565b600080600180805490500390505b600081111561160a5760006002600183038161136057fe5b0490506001818154811061137057fe5b9060005260206000209060050201600401546001838154811061138f57fe5b90600052602060002090600502016004015410156115fe576113af6118eb565b600183815481106113bc57fe5b90600052602060002090600502016040518060a00160405290816000820160009054906101000a900473ffffffffffffffffffffffffffffffffffffffff1673ffffffffffffffffffffffffffffffffffffffff1673ffffffffffffffffffffffffffffffffffffffff16815260200160018201548152602001600282015481526020016003820160009054906101000a900460ff1615151515815260200160048201548152505090506001828154811061147357fe5b90600052602060002090600502016001848154811061148e57fe5b90600052602060002090600502016000820160009054906101000a900473ffffffffffffffffffffffffffffffffffffffff168160000160006101000a81548173ffffffffffffffffffffffffffffffffffffffff021916908373ffffffffffffffffffffffffffffffffffffffff16021790555060018201548160010155600282015481600201556003820160009054906101000a900460ff168160030160006101000a81548160ff02191690831515021790555060048201548160040155905050806001838154811061155f57fe5b906000526020600020906005020160008201518160000160006101000a81548173ffffffffffffffffffffffffffffffffffffffff021916908373ffffffffffffffffffffffffffffffffffffffff160217905550602082015181600101556040820151816002015560608201518160030160006101000a81548160ff0219169083151502179055506080820151816004015590505081925050611604565b5061160a565b50611348565b600191505090565b60008060016000805490500390505b60008111156118e35760006002600183038161163957fe5b0490506000818154811061164957fe5b9060005260206000209060050201600401546000838154811061166857fe5b90600052602060002090600502016004015411156118d7576116886118eb565b6000838154811061169557fe5b90600052602060002090600502016040518060a00160405290816000820160009054906101000a900473ffffffffffffffffffffffffffffffffffffffff1673ffffffffffffffffffffffffffffffffffffffff1673ffffffffffffffffffffffffffffffffffffffff16815260200160018201548152602001600282015481526020016003820160009054906101000a900460ff1615151515815260200160048201548152505090506000828154811061174c57fe5b90600052602060002090600502016000848154811061176757fe5b90600052602060002090600502016000820160009054906101000a900473ffffffffffffffffffffffffffffffffffffffff168160000160006101000a81548173ffffffffffffffffffffffffffffffffffffffff021916908373ffffffffffffffffffffffffffffffffffffffff16021790555060018201548160010155600282015481600201556003820160009054906101000a900460ff168160030160006101000a81548160ff02191690831515021790555060048201548160040155905050806000838154811061183857fe5b906000526020600020906005020160008201518160000160006101000a81548173ffffffffffffffffffffffffffffffffffffffff021916908373ffffffffffffffffffffffffffffffffffffffff160217905550602082015181600101556040820151816002015560608201518160030160006101000a81548160ff02191690831515021790555060808201518160040155905050819250506118dd565b506118e3565b50611621565b600191505090565b6040518060a00160405280600073ffffffffffffffffffffffffffffffffffffffff1681526020016000815260200160008152602001600015158152602001600081525090565b60008135905061194181611b7f565b92915050565b60008135905061195681611b96565b92915050565b6000806000806080858703121561197257600080fd5b600061198087828801611932565b945050602061199187828801611947565b93505060406119a287828801611947565b92505060606119b387828801611947565b91505092959194509250565b6119c881611b37565b82525050565b6119d781611b49565b82525050565b60006119ea601183611b26565b91507f4275794c69737420697320656d707479210000000000000000000000000000006000830152602082019050919050565b6000611a2a601283611b26565b91507f53656c6c4c69737420697320656d7074792100000000000000000000000000006000830152602082019050919050565b611a6681611b75565b82525050565b6000602082019050611a8160008301846119bf565b92915050565b6000602082019050611a9c60008301846119ce565b92915050565b60006020820190508181036000830152611abb816119dd565b9050919050565b60006020820190508181036000830152611adb81611a1d565b9050919050565b6000602082019050611af76000830184611a5d565b92915050565b6000604082019050611b126000830185611a5d565b611b1f60208301846119bf565b9392505050565b600082825260208201905092915050565b6000611b4282611b55565b9050919050565b60008115159050919050565b600073ffffffffffffffffffffffffffffffffffffffff82169050919050565b6000819050919050565b611b8881611b37565b8114611b9357600080fd5b50565b611b9f81611b75565b8114611baa57600080fd5b5056fea365627a7a72315820f7cee68e1e6589a70da0431ff8f91ef098515ccfff94d2fbdea6984ef38f3adf6c6578706572696d656e74616cf564736f6c634300050c0040",
  "source": "//pragma solidity >=0.4.22;\npragma solidity 0.5.12;\n\npragma experimental ABIEncoderV2;\n\n//Heap with dynamic array wrapped in a priority queue\n\n\ncontract PQ1_Heap_Dynamic_Array{\n//Every order has some attributes:\n    struct OrderStruct \n    {\n        address Sender;\n        uint256 Price;\n        uint256 Volume;     //The volume is 1 for now\n        bool Exists;\n        uint256 AuxPrice;   //This is not the real price of the order, it's the contcantenation of the real price and the counter which helps to sort the heap wehen there are ties\n\n    }\n    OrderStruct[] internal BuyList;  //The array that contains Bid OrderStructs (descending (decremental)), we always want the highest bid (maxheap)\n    OrderStruct[] internal SellList; //The array that contains Ask OrderStructs (ascending (incremental)), we always want the lowest ask (minheap)\n\n//*****************************************************************//\n//*******************  maxheap Functions (BuyList) ****************//\n//*****************************************************************//\n\n//******************* InsertBid() ***************************//\n    //the new item will be added to the end of the array list (a buy order is submitted)\n    //then heapified up with a call to heapifyUp method\n    function InsertBid (address _sender, uint256 _price, uint256 _volume, uint256 _auxprice) public returns (bool)\n    {\n        OrderStruct memory neworder = OrderStruct(_sender, _price , _volume, true, _auxprice);\n        BuyList.push(neworder);\n        maxheap_heapifyUp();\n        return true;\n    }    \n//*******************  maxheap_heapifyUp () ***************************//\n    //this function is called everytime we insert a new element to the end of the array (aka a new Buy order is submitted) and\n    //now the heap has to be sorted again\n    function maxheap_heapifyUp () internal returns (bool) {\n    \n        uint256 k = BuyList.length - 1;                   //k is set to be the last entry of the array (also heap) which is the element that's just added and has to be moved up\n        while (k > 0){                                  //while we havent reached to the top of the heap\n            uint256 p = (k-1)/2;                           //we need to compute the parent of this last element which is p = (k-1)/2\n            if (BuyList[k].AuxPrice > BuyList[p].AuxPrice) //if the element is greater than its parent\n            {   \n                OrderStruct memory temp = BuyList[k];    //\"!SYNTAX!\"//swap the element at index k with its parent\n                BuyList[k] = BuyList[p];\n                BuyList[p] = temp;\n                k = p;                                  //k moves up one level\n            }\n            else {break;}                               //if not the break statement exits the loop (it continues until no element index k is not greater than its parent)\n        }\n        return true;\n    }\n\n//******************** BuyListMaxDelete() function ********************//    \n    //the highest priority item will be removed from the list and returned\n    //then the heap is reordered uising the heapifyDown method\n    function BuyListMaxDelete() public returns (uint256, address) \n    {\n        require (BuyList.length != 0,'BuyList is empty!'); //the delete function throws exception if the heap is empty\n        \n        if (BuyList.length == 1) {                                      //if the heap has only one items                     \n            uint256 _price =  BuyList[0].Price;\n            address _sender =  BuyList[0].Sender;\n            BuyList.pop();                                                 //the only element of the heap is removed and returned \n            return (_price ,_sender);     \n       \n        }\n\n        //if neither of these conditions are true, then there are at least 2 items in the heap and deletion proceeds\n        uint256 _price =  BuyList[0].Price;\n        address _sender =  BuyList[0].Sender;\n        BuyList[0] = BuyList[BuyList.length -1]; //the last elementof the heap is removed and written into the first position\n        BuyList.pop();\n        maxheap_heapifyDown(); //now the siftdown is called\n        return (_price, _sender);  \n    }\n\n//*******************  maxheap_heapifyDown () ***************************//\n    //when we want to remove an element from the heap we remove the root of the heap and add the last item\n    //to the root and reorder the heap again\n    function maxheap_heapifyDown () internal returns (bool)\n    {\n        uint256 k =0;\n        uint256 leftchild = 2*k + 1;\n        while (leftchild < BuyList.length)\n        {                                   //as long as the left child is within the array that heap is stored in\n            uint256 max = leftchild;\n            uint256 rightchild = leftchild + 1;                                     //rightchild = 2k+2\n\n            if (rightchild < BuyList.length)                                       //if there is a rightchild\n            {\n                if (BuyList[rightchild].AuxPrice > BuyList[leftchild].AuxPrice)    //then the right child and left child are compared\n                {\n                    max++;                                                       //now max is set to rightchild, otherwise max remains to be the leftchild\n                }\n            }\n\n        if (BuyList[k].AuxPrice < BuyList[max].AuxPrice)                        //compares the k item with the max item and if k is smaller than its greatest children they are swapped\n        {\n            \n            OrderStruct memory temp = BuyList[k];\n            BuyList[k] = BuyList[max];    \n            BuyList[max] = temp;\n            k = max;                                                         //k is set to max\n            leftchild =2*k + 1;                                              //l is recompuetd in preparation for the next iteration\n        }\n        else{                                                               //if the k item is not smaller than the max item, heapifyDown should stop\n            break;\n            }\n        }\n        return true;\n    }\n    \n//****************   BuyListMaxPrice()  *********************//\n    //returns the price for the highest priority element (The highest bid)\n    function BuyListMaxPrice() public  returns (uint256){\n        \n        require (BuyList.length != 0,'BuyList is empty!'); //throws exception if the maxheap (BuyList) is empty\n        return (BuyList[0].Price);\n        \n    }\n//****************   BuyListMaxSender()()  *********************//\n    //returns the sender for the highest priority element (The highest bid)\n    function BuyListMaxSender() public  returns (address){\n        \n        require (BuyList.length != 0,'BuyList is empty!'); //throws exception if the maxheap (BuyList) is empty\n        return (BuyList[0].Sender);\n        \n    }\n//****************   BuyListisEmpty()  *********************//\n    //checks if the Buylist is empty or not\n    function BuyListisEmpty() public returns (bool){\n        \n        if (BuyList.length == 0) \n        {\n            return true;\n\n        }\n        else\n        {\n            return false;\n        }\n        \n    }\n//*****************************************************************//\n//*******************  minheap Functions (SellList) ****************//\n//*****************************************************************//\n\n//*******************  InsertAsk() ***************************//\n    //the new item will be added to the end of the array list (an ask order is submitted)\n    //then heapified up with a call to heapifyUp method\n    function InsertAsk (address _sender, uint256 _price, uint256 _volume, uint256 _auxprice) public  returns (bool)\n    {\n        OrderStruct memory neworder = OrderStruct(_sender, _price , _volume, true, _auxprice); \n        SellList.push(neworder);\n        minheap_heapifyUp();\n        return true;\n    }    \n//*******************  minheap_heapifyUp () ***************************//\n    //this function is called everytime we insert a new element to the end of the array (aka a new sell order is submitted) and\n    //now the heap has to be sorted again\n    function minheap_heapifyUp () internal returns (bool) {\n\n        uint256 k = SellList.length - 1; //k is set to be the last entry of the array(also heap) which is the element that's just added and has to be moved up\n        while (k > 0){                                      //while we havent reached to the top of the heap\n            uint256 p = (k-1)/2;                            //we need to compute the parent of this last element which is p = (k-1)/2\n            if (SellList[k].AuxPrice < SellList[p].AuxPrice) //if the element is greater than its parent\n            { \n            \n                OrderStruct memory temp = SellList[k];    //swap the element at index k with its parent\n                SellList[k] = SellList[p];\n                SellList[p] = temp;\n                \n                k = p; //k moves up one level\n            }\n            else {break;} //if not the break statement exits the loop (it continues until no element index k is not greater than its parent)\n        }\n        \n        return true;\n    }    \n//****************   SellListMaxPrice()  *********************//\n    //returns the price for the highest priority element (The lowest ask)\n    function SellListMaxPrice() public  returns (uint256){\n\n        require(SellList.length != 0, 'SellList is empty!'); //throws exception if the minheap (SellList) is empty\n        return (SellList[0].Price);\n    }\n//****************   SellListMaxSender()  *********************//\n    //returns the sender for the highest priority element (The lowest ask)\n    function SellListMaxSender() public  returns (address){\n\n        require(SellList.length != 0, 'SellList is empty!'); //throws exception if the minheap (SellList) is empty\n        return (SellList[0].Sender);\n    }\n//****************   SellListisEmpty()  *********************//\n    //checks if the SellList is empty or not\n    function SellListisEmpty() public returns (bool){\n        \n        if (SellList.length == 0) \n        {\n            return true;\n\n        }\n        else\n        {\n            return false;\n        }\n        \n    }\n    \n\n//*******************  SellListMaxDelete() ***************************//\n    //the highest priority item (the lowest ask) will be removed from the list and returned\n    //then the heap is reordered uising the heapifyDown method\n    function SellListMaxDelete() public returns (uint256, address)\n    \n    {\n        require(SellList.length != 0, 'SellList is empty!');             //the delete function throws exception if the heap is empty\n        if (SellList.length == 1) {                               // if the heap has only one item\n            uint256 _price =  SellList[0].Price;\n            address _sender =  SellList[0].Sender;\n            SellList.pop();                                   //the only element of the heap is removed and returned  \n            return (_price, _sender);\n        }\n\n        //if neither of these conditions are true, then there are at least 2 items in the heap and deletion proceeds\n        uint256 _price =  SellList[0].Price;\n        address _sender =  SellList[0].Sender;\n        SellList[0] = SellList[SellList.length -1];                      //the last elementof the heap is removed and written into the first position\n        SellList.pop(); \n        minheap_heapifyDown();                           //now the heapifyDown is called to restore the ordering of the heap \n        return (_price, _sender);       \n    }\n//*******************  minheap_heapifyDown () ***************************//\n    //when we want to remove an element from the heap we remove the root of the heap and add the last item\n    //to the root and reorder the heap again\n    function minheap_heapifyDown () internal returns (bool) {\n        uint256 k =0;\n        uint256 leftchild = 2*k + 1;\n        while (leftchild < SellList.length){               //as long as the left child is within the array that heap is stored in\n            uint256 min = leftchild;\n            uint256 rightchild = leftchild + 1;              //rightchild = 2k+2\n\n            if (rightchild < SellList.length)                //if there is a rightchild, then the right child and left child are compared\n            {\n                if (SellList[rightchild].AuxPrice < SellList[leftchild].AuxPrice)\n                {    min++;   }                               //now min is set to rightchild, otherwise min remains to be the leftchild\n            }\n\n            if (SellList[min].AuxPrice < SellList[k].AuxPrice) //compares the k item with the max item and if its less they are swapped\n            {\n                //swap (BuyList, k, min); //swap k with its smaller children\n                \n                OrderStruct memory temp = SellList[k];    //\"!SYNTAX!\"//swap the element at index k with its parent\n                SellList[k] = SellList[min];\n                SellList[min] = temp;\n\n                k = min; //k is set to min\n                leftchild = 2*k + 1; //l is recompuetd in preparation for the next iteration\n            }\n            else{ //if k item's smaller childer is not smaller than k item itself, heapifyDown should stop\n                break;\n            }\n\n        }\n        return true;\n    }\n\n\n\n\n\n\n\n\n\n\n\n\n}",
  "sourcePath": "/home/mahsa/ProjectRepo/2020-Orderbook/Code/New-Truffle/contracts/CallMarket/Priority_Queues/PQ1_Heap_Dynamic_Array.sol",
  "compiler": {
    "name": "solc",
    "version": "0.5.12+commit.7709ece9.Emscripten.clang"
  },
  "schemaVersion": "3.0.2",
  "updatedAt": "2020-09-10T15:44:06.751Z",
  "devdoc": {
    "methods": {}
  },
  "userdoc": {
    "methods": {}
  }
}