{
  "contractName": "PQ2",
  "abi": [
    {
      "constant": true,
      "inputs": [],
      "name": "Index",
      "outputs": [
        {
          "internalType": "uint256",
          "name": "",
          "type": "uint256"
        }
      ],
      "payable": false,
      "stateMutability": "view",
      "type": "function",
      "signature": "0x5ace4d96"
    },
    {
      "constant": false,
      "inputs": [
        {
          "internalType": "uint256",
          "name": "_number",
          "type": "uint256"
        }
      ],
      "name": "Enqueue",
      "outputs": [
        {
          "internalType": "bool",
          "name": "",
          "type": "bool"
        }
      ],
      "payable": false,
      "stateMutability": "nonpayable",
      "type": "function",
      "signature": "0x0c4a515c"
    },
    {
      "constant": false,
      "inputs": [],
      "name": "RemoveMax",
      "outputs": [
        {
          "internalType": "uint256",
          "name": "",
          "type": "uint256"
        }
      ],
      "payable": false,
      "stateMutability": "nonpayable",
      "type": "function",
      "signature": "0xb64456a7"
    },
    {
      "constant": false,
      "inputs": [],
      "name": "Dequeue",
      "outputs": [
        {
          "internalType": "uint256",
          "name": "",
          "type": "uint256"
        }
      ],
      "payable": false,
      "stateMutability": "nonpayable",
      "type": "function",
      "signature": "0x27702186"
    },
    {
      "constant": false,
      "inputs": [],
      "name": "Peek",
      "outputs": [
        {
          "internalType": "uint256",
          "name": "",
          "type": "uint256"
        }
      ],
      "payable": false,
      "stateMutability": "nonpayable",
      "type": "function",
      "signature": "0x6dd5fa7b"
    },
    {
      "constant": false,
      "inputs": [],
      "name": "isEmpty",
      "outputs": [
        {
          "internalType": "bool",
          "name": "",
          "type": "bool"
        }
      ],
      "payable": false,
      "stateMutability": "nonpayable",
      "type": "function",
      "signature": "0x681fe70c"
    }
  ],
  "bytecode": "0x608060405234801561001057600080fd5b506107bc806100206000396000f3fe608060405234801561001057600080fd5b50600436106100625760003560e01c80630c4a515c1461006757806327702186146100975780635ace4d96146100b5578063681fe70c146100d35780636dd5fa7b146100f1578063b64456a71461010f575b600080fd5b610081600480360361007c919081019061065e565b61012d565b60405161008e91906106e5565b60405180910390f35b61009f6101c8565b6040516100ac9190610720565b60405180910390f35b6100bd6101ef565b6040516100ca9190610720565b60405180910390f35b6100db6101f5565b6040516100e891906106e5565b60405180910390f35b6100f9610222565b6040516101069190610720565b60405180910390f35b610117610291565b6040516101249190610720565b60405180910390f35b6000610137610636565b60405180602001604052808481525090506000600160006032811061015857fe5b016000015414156101855780600160006032811061017257fe5b01600082015181600001559050506101be565b6000808154809291906001019190505550806001600054603281106101a657fe5b01600082015181600001559050506101bc61042d565b505b6001915050919050565b60005b600115156101d76101f5565b1515146101ec576101e6610291565b506101cb565b90565b60005481565b600080600160006032811061020657fe5b0160000154141561021a576001905061021f565b600090505b90565b600080600160006032811061023357fe5b01600001541415610279576040517f08c379a000000000000000000000000000000000000000000000000000000000815260040161027090610700565b60405180910390fd5b600160006032811061028757fe5b0160000154905090565b60008060016000603281106102a257fe5b016000015414156102e8576040517f08c379a00000000000000000000000000000000000000000000000000000000081526004016102df90610700565b60405180910390fd5b60008054141561032c576000600160006032811061030257fe5b01600001549050600160006032811061031757fe5b0160008082016000905550508091505061042a565b600160005414156103ac576000600160006032811061034757fe5b016000015490506001806032811061035b57fe5b01600160006032811061036a57fe5b01600082015481600001559050506001806032811061038557fe5b0160008082016000905550506000808154809291906001900391905055508091505061042a565b600060016000603281106103bc57fe5b016000015490506001600054603281106103d257fe5b0160016000603281106103e157fe5b01600082015481600001559050506001600054603281106103fe57fe5b01600080820160009055505060008081548092919060019003919050555061042461050a565b50809150505b90565b60008060005490505b60008111156105025760006002600183038161044e57fe5b0490506001816032811061045e57fe5b01600001546001836032811061047057fe5b016000015411156104f657610483610636565b6001836032811061049057fe5b016040518060200160405290816000820154815250509050600182603281106104b557fe5b01600184603281106104c357fe5b016000820154816000015590505080600183603281106104df57fe5b0160008201518160000155905050819250506104fc565b50610502565b50610436565b600191505090565b6000806000905060006001826002020190505b600054811161062d5760008190506000600183019050600054811015610571576001836032811061054a57fe5b01600001546001826032811061055c57fe5b016000015411156105705781806001019250505b5b6001826032811061057e57fe5b01600001546001856032811061059057fe5b0160000154101561061f576105a3610636565b600185603281106105b057fe5b016040518060200160405290816000820154815250509050600183603281106105d557fe5b01600186603281106105e357fe5b016000820154816000015590505080600184603281106105ff57fe5b016000820151816000015590505082945060018560020201935050610626565b505061062d565b505061051d565b60019250505090565b6040518060200160405280600081525090565b60008135905061065881610762565b92915050565b60006020828403121561067057600080fd5b600061067e84828501610649565b91505092915050565b6106908161074c565b82525050565b60006106a3600e8361073b565b91507f4c69737420697320656d707479210000000000000000000000000000000000006000830152602082019050919050565b6106df81610758565b82525050565b60006020820190506106fa6000830184610687565b92915050565b6000602082019050818103600083015261071981610696565b9050919050565b600060208201905061073560008301846106d6565b92915050565b600082825260208201905092915050565b60008115159050919050565b6000819050919050565b61076b81610758565b811461077657600080fd5b5056fea365627a7a72315820add3eeec84680e94a04dafcce81a89102733102f8ababe3e746d752e136f32c56c6578706572696d656e74616cf564736f6c634300050c0040",
  "source": "pragma solidity >=0.4.22;\npragma experimental ABIEncoderV2;\n\n//Heap with static array wrapped in a priority queue\n\ncontract PQ2{\n    \n    //uint256[50] MaxHeap;         //The array that contains integers in (descending (decremental)) order, we always want the highest nuber (maxheap)\n    struct OrderStruct \n    {\n        uint256 Number;\n\n        \n    }\n    uint256 public Index;\n    OrderStruct[50] MaxHeap;\n    \n\n//*******************  Enqueue() ***************************//\n    //the new item will be added to the end of the array list\n    //then heapified up with a call to heapifyUp method\n    function Enqueue (uint256 _number) public returns (bool)\n    {\n        OrderStruct memory neworder = OrderStruct(_number);\n        \n        if (MaxHeap[0].Number == 0)\n        {\n            MaxHeap[0] = neworder; \n        }\n       else{\n            Index ++;\n            MaxHeap[Index] = neworder;\n            maxheap_heapifyUp ();\n        }    \n        return true;\n    }    \n//*******************  maxheap_heapifyUp () ***************************//\n    //this function is called everytime we insert a new element to the end of the array \n    //now the heap has to be sorted again\n    function maxheap_heapifyUp () internal returns (bool) {\n\n        uint256 k = Index;                   //k is set to be the last entry of the array (also heap) which is the element that's just added and has to be moved up\n        while (k > 0){                                  //while we havent reached to the top of the heap\n            uint256 p = (k-1)/2;                           //we need to compute the parent of this last element which is p = (k-1)/2\n            if (MaxHeap[k].Number > MaxHeap[p].Number) //if the element is greater than its parent\n            {   \n                OrderStruct memory temp = MaxHeap[k];    //swap the element at index k with its parent\n                MaxHeap[k] = MaxHeap[p];\n                MaxHeap[p] = temp;\n                k = p;                                  //k moves up one level\n            }\n            else {break;}                               //if not the break statement exits the loop (it continues until no element index k is not greater than its parent)\n        }\n    \n        return true;\n    }\n\n//******************** RemoveMax() function ********************//    \n    //the highest priority item will be removed from the list and is returned by the function\n    //then the heap is reordered uising the heapifyDown method\n    function RemoveMax() public returns (uint256) \n    {   \n        require (MaxHeap[0].Number != 0, 'List is empty!');   //the delete function throws exception if the list is empty\n        \n        \n        if (Index == 0) \n        {   \n            uint256 _number =  MaxHeap[0].Number;\n            delete MaxHeap[0];\n            return(_number);\n\n        }                           \n        if (Index == 1)  //if the heap has two items\n        {                                     \n            uint256 _number =  MaxHeap[0].Number;\n                            \n            MaxHeap[0] = MaxHeap[1]; //the first element of the heap is removed \n            delete MaxHeap[1];\n            Index--;\n            return(_number);\n            \n       \n        }\n        //if neither of these conditions are true, then there are at least 2 items in the heap and deletion proceeds\n        uint256 _number =  MaxHeap[0].Number;\n        MaxHeap[0] = MaxHeap[Index]; //the last elementof the heap is removed and written into the first position\n        delete MaxHeap[Index];\n        Index--;\n        maxheap_heapifyDown(); //now the siftdown is called\n        return(_number);\n    }\n//******************** Dequeue() function ********************//    \n    //Emptying the list by iterating over it and deleting the highest priority number in each round (similar to match funtion in the call market)\n    function Dequeue() public returns (uint256) \n    {\n        while (isEmpty() != true)\n        {  \n            RemoveMax();\n        }\n    }\n\n//*******************  maxheap_heapifyDown () ***************************//\n    //when we want to remove an element from the heap we remove the root of the heap and add the last item\n    //to the root and reorder the heap again\n    function maxheap_heapifyDown () internal \n \n    returns (bool)\n    {\n        uint256 k =0;\n        uint256 leftchild = 2*k + 1;\n        while (leftchild <= Index )\n        {                                   //as long as the left child is within the array that heap is stored in\n            uint256 max = leftchild;\n            uint256 rightchild = leftchild + 1;                                     //rightchild = 2k+2\n\n            if (rightchild < Index )                                       //if there is a rightchild\n            {\n                if (MaxHeap[rightchild].Number > MaxHeap[leftchild].Number)    //then the right child and left child are compared\n                {\n                    max++;                                                       //now max is set to rightchild, otherwise max remains to be the leftchild\n                }\n            }\n\n        if (MaxHeap[k].Number < MaxHeap[max].Number)                        //compares the k item with the max item and if k is smaller than its greatest children they are swapped\n        {\n            \n            OrderStruct memory temp = MaxHeap[k];    //swap the element at index k with its parent\n            MaxHeap[k] = MaxHeap[max];\n            MaxHeap[max] = temp;\n            k = max;                                                         //k is set to max\n            leftchild =2*k + 1;                                              //l is recompuetd in preparation for the next iteration\n        }\n        else{                                                               //if the k item is not smaller than the max item, heapifyDown should stop\n            break;\n            }\n        }\n        return true;\n    }\n    \n//****************   Peek()  *********************//\n    //Retrieves, but does not remove, the head of this queue\n    function Peek() public  returns (uint256){\n        \n        require (MaxHeap[0].Number != 0, 'List is empty!'); //throws exception if the maxheap (BuyList) is empty\n        return (MaxHeap[0].Number);\n        \n    }\n//****************  isEmpty()  *********************//\n    //checks if the Buylist is empty or not \n    function isEmpty() public returns (bool){\n        \n        if (MaxHeap[0].Number == 0)\n        {\n            return true;\n\n        }\n        else\n        {\n            return false;\n        }\n        \n    }\n\n\n\n\n}",
  "sourcePath": "/home/mahsa/ProjectRepo/2020-Orderbook/Code/New-Truffle/contracts/PQs_for_Unit_Testings/PQ2.sol",
  "compiler": {
    "name": "solc",
    "version": "0.5.12+commit.7709ece9.Emscripten.clang"
  },
  "schemaVersion": "3.0.2",
  "updatedAt": "2020-09-10T13:48:49.939Z",
  "devdoc": {
    "methods": {}
  },
  "userdoc": {
    "methods": {}
  }
}