{
  "contractName": "PQ2_Heap_Static_Array",
  "abi": [
    {
      "inputs": [
        {
          "internalType": "uint256",
          "name": "_MAXORDERS",
          "type": "uint256"
        }
      ],
      "payable": false,
      "stateMutability": "nonpayable",
      "type": "constructor"
    },
    {
      "constant": true,
      "inputs": [],
      "name": "BuyIndex",
      "outputs": [
        {
          "internalType": "uint256",
          "name": "",
          "type": "uint256"
        }
      ],
      "payable": false,
      "stateMutability": "view",
      "type": "function"
    },
    {
      "constant": true,
      "inputs": [],
      "name": "MAXORDERS",
      "outputs": [
        {
          "internalType": "uint256",
          "name": "",
          "type": "uint256"
        }
      ],
      "payable": false,
      "stateMutability": "view",
      "type": "function"
    },
    {
      "constant": true,
      "inputs": [],
      "name": "SellIndex",
      "outputs": [
        {
          "internalType": "uint256",
          "name": "",
          "type": "uint256"
        }
      ],
      "payable": false,
      "stateMutability": "view",
      "type": "function"
    },
    {
      "constant": false,
      "inputs": [
        {
          "internalType": "address",
          "name": "_sender",
          "type": "address"
        },
        {
          "internalType": "uint256",
          "name": "_price",
          "type": "uint256"
        },
        {
          "internalType": "uint256",
          "name": "_volume",
          "type": "uint256"
        },
        {
          "internalType": "uint256",
          "name": "_auxprice",
          "type": "uint256"
        }
      ],
      "name": "InsertBid",
      "outputs": [
        {
          "internalType": "bool",
          "name": "",
          "type": "bool"
        }
      ],
      "payable": false,
      "stateMutability": "nonpayable",
      "type": "function"
    },
    {
      "constant": false,
      "inputs": [],
      "name": "BuyListMaxDelete",
      "outputs": [
        {
          "internalType": "uint256",
          "name": "",
          "type": "uint256"
        },
        {
          "internalType": "address",
          "name": "",
          "type": "address"
        }
      ],
      "payable": false,
      "stateMutability": "nonpayable",
      "type": "function"
    },
    {
      "constant": false,
      "inputs": [],
      "name": "BuyListMaxPrice",
      "outputs": [
        {
          "internalType": "uint256",
          "name": "",
          "type": "uint256"
        }
      ],
      "payable": false,
      "stateMutability": "nonpayable",
      "type": "function"
    },
    {
      "constant": false,
      "inputs": [],
      "name": "BuyListMaxSender",
      "outputs": [
        {
          "internalType": "address",
          "name": "",
          "type": "address"
        }
      ],
      "payable": false,
      "stateMutability": "nonpayable",
      "type": "function"
    },
    {
      "constant": false,
      "inputs": [],
      "name": "BuyListisEmpty",
      "outputs": [
        {
          "internalType": "bool",
          "name": "",
          "type": "bool"
        }
      ],
      "payable": false,
      "stateMutability": "nonpayable",
      "type": "function"
    },
    {
      "constant": false,
      "inputs": [
        {
          "internalType": "address",
          "name": "_sender",
          "type": "address"
        },
        {
          "internalType": "uint256",
          "name": "_price",
          "type": "uint256"
        },
        {
          "internalType": "uint256",
          "name": "_volume",
          "type": "uint256"
        },
        {
          "internalType": "uint256",
          "name": "_auxprice",
          "type": "uint256"
        }
      ],
      "name": "InsertAsk",
      "outputs": [
        {
          "internalType": "bool",
          "name": "",
          "type": "bool"
        }
      ],
      "payable": false,
      "stateMutability": "nonpayable",
      "type": "function"
    },
    {
      "constant": false,
      "inputs": [],
      "name": "SellListMaxPrice",
      "outputs": [
        {
          "internalType": "uint256",
          "name": "",
          "type": "uint256"
        }
      ],
      "payable": false,
      "stateMutability": "nonpayable",
      "type": "function"
    },
    {
      "constant": false,
      "inputs": [],
      "name": "SellListMaxSender",
      "outputs": [
        {
          "internalType": "address",
          "name": "",
          "type": "address"
        }
      ],
      "payable": false,
      "stateMutability": "nonpayable",
      "type": "function"
    },
    {
      "constant": false,
      "inputs": [],
      "name": "SellListisEmpty",
      "outputs": [
        {
          "internalType": "bool",
          "name": "",
          "type": "bool"
        }
      ],
      "payable": false,
      "stateMutability": "nonpayable",
      "type": "function"
    },
    {
      "constant": false,
      "inputs": [],
      "name": "SellListMaxDelete",
      "outputs": [
        {
          "internalType": "uint256",
          "name": "",
          "type": "uint256"
        },
        {
          "internalType": "address",
          "name": "",
          "type": "address"
        }
      ],
      "payable": false,
      "stateMutability": "nonpayable",
      "type": "function"
    }
  ],
  "bytecode": "0x60806040523480156200001157600080fd5b50604051620021f3380380620021f383398181016040526200003791908101906200005c565b8060008190555050620000ac565b600081519050620000568162000092565b92915050565b6000602082840312156200006f57600080fd5b60006200007f8482850162000045565b91505092915050565b6000819050919050565b6200009d8162000088565b8114620000a957600080fd5b50565b61213780620000bc6000396000f3fe608060405234801561001057600080fd5b50600436106100cf5760003560e01c806364d4497b1161008c57806395b977591161006657806395b97759146101e4578063ccde53ca14610202578063d735b05f14610232578063d98ed48114610262576100cf565b806364d4497b1461018a578063657ffc3c146101a8578063956f1677146101c6576100cf565b806309ab210a146100d45780630b21881b146100f2578063159916261461011157806339f3b8a31461012f57806340328eb41461014e5780635cbe5bed1461016c575b600080fd5b6100dc610280565b6040516100e99190611fce565b60405180910390f35b6100fa6102c3565b604051610108929190612044565b60405180910390f35b6101196107a6565b6040516101269190612029565b60405180910390f35b610137610830565b604051610145929190612044565b60405180910390f35b610156610d03565b6040516101639190612029565b60405180910390f35b610174610d0a565b6040516101819190612029565b60405180910390f35b610192610d92565b60405161019f9190611fb3565b60405180910390f35b6101b0610e3a565b6040516101bd9190611fb3565b60405180910390f35b6101ce610ee4565b6040516101db9190612029565b60405180910390f35b6101ec610eeb565b6040516101f99190612029565b60405180910390f35b61021c60048036036102179190810190611ea3565b610ef1565b6040516102299190611fce565b60405180910390f35b61024c60048036036102479190810190611ea3565b6110d9565b6040516102599190611fce565b60405180910390f35b61026a6112ba565b6040516102779190611fce565b60405180910390f35b60008015156109c560006101f4811061029557fe5b6005020160030160009054906101000a900460ff16151514156102bb57600190506102c0565b600090505b90565b600080600015156109c560006101f481106102da57fe5b6005020160030160009054906101000a900460ff1615151415610332576040517f08c379a000000000000000000000000000000000000000000000000000000000815260040161032990612009565b60405180910390fd5b600061138954141561040d5760006109c560006101f4811061035057fe5b6005020160010154905060006109c560006101f4811061036c57fe5b6005020160000160009054906101000a900473ffffffffffffffffffffffffffffffffffffffff1690506109c560006101f481106103a657fe5b60050201600080820160006101000a81549073ffffffffffffffffffffffffffffffffffffffff0219169055600182016000905560028201600090556003820160006101000a81549060ff02191690556004820160009055505081819350935050506107a2565b60016113895414156105d95760006109c560006101f4811061042b57fe5b6005020160010154905060006109c560006101f4811061044757fe5b6005020160000160009054906101000a900473ffffffffffffffffffffffffffffffffffffffff1690506109c560016101f4811061048157fe5b600502016109c560006101f4811061049557fe5b600502016000820160009054906101000a900473ffffffffffffffffffffffffffffffffffffffff168160000160006101000a81548173ffffffffffffffffffffffffffffffffffffffff021916908373ffffffffffffffffffffffffffffffffffffffff16021790555060018201548160010155600282015481600201556003820160009054906101000a900460ff168160030160006101000a81548160ff021916908315150217905550600482015481600401559050506109c560016101f4811061055e57fe5b60050201600080820160006101000a81549073ffffffffffffffffffffffffffffffffffffffff0219169055600182016000905560028201600090556003820160006101000a81549060ff021916905560048201600090555050611389600081548092919060019003919050555081819350935050506107a2565b60006109c560006101f481106105eb57fe5b6005020160010154905060006109c560006101f4811061060757fe5b6005020160000160009054906101000a900473ffffffffffffffffffffffffffffffffffffffff1690506109c5611389546101f4811061064357fe5b600502016109c560006101f4811061065757fe5b600502016000820160009054906101000a900473ffffffffffffffffffffffffffffffffffffffff168160000160006101000a81548173ffffffffffffffffffffffffffffffffffffffff021916908373ffffffffffffffffffffffffffffffffffffffff16021790555060018201548160010155600282015481600201556003820160009054906101000a900460ff168160030160006101000a81548160ff021916908315150217905550600482015481600401559050506109c5611389546101f4811061072257fe5b60050201600080820160006101000a81549073ffffffffffffffffffffffffffffffffffffffff0219169055600182016000905560028201600090556003820160006101000a81549060ff02191690556004820160009055505061138960008154809291906001900391905055506107986112fc565b5081819350935050505b9091565b6000600115156109c560006101f481106107bc57fe5b6005020160030160009054906101000a900460ff16151514610813576040517f08c379a000000000000000000000000000000000000000000000000000000000815260040161080a90612009565b60405180910390fd5b6109c560006101f4811061082357fe5b6005020160010154905090565b60008060001515600160006101f4811061084657fe5b6005020160030160009054906101000a900460ff161515141561089e576040517f08c379a000000000000000000000000000000000000000000000000000000000815260040161089590611fe9565b60405180910390fd5b600061138a541415610976576000600160006101f481106108bb57fe5b600502016001015490506000600160006101f481106108d657fe5b6005020160000160009054906101000a900473ffffffffffffffffffffffffffffffffffffffff169050600160006101f4811061090f57fe5b60050201600080820160006101000a81549073ffffffffffffffffffffffffffffffffffffffff0219169055600182016000905560028201600090556003820160006101000a81549060ff0219169055600482016000905550508181935093505050610cff565b600161138a541415610b3b576000600160006101f4811061099357fe5b600502016001015490506000600160006101f481106109ae57fe5b6005020160000160009054906101000a900473ffffffffffffffffffffffffffffffffffffffff1690506001806101f481106109e657fe5b60050201600160006101f481106109f957fe5b600502016000820160009054906101000a900473ffffffffffffffffffffffffffffffffffffffff168160000160006101000a81548173ffffffffffffffffffffffffffffffffffffffff021916908373ffffffffffffffffffffffffffffffffffffffff16021790555060018201548160010155600282015481600201556003820160009054906101000a900460ff168160030160006101000a81548160ff021916908315150217905550600482015481600401559050506001806101f48110610ac057fe5b60050201600080820160006101000a81549073ffffffffffffffffffffffffffffffffffffffff0219169055600182016000905560028201600090556003820160006101000a81549060ff02191690556004820160009055505061138a60008154809291906001900391905055508181935093505050610cff565b6000600160006101f48110610b4c57fe5b600502016001015490506000600160006101f48110610b6757fe5b6005020160000160009054906101000a900473ffffffffffffffffffffffffffffffffffffffff169050600161138a546101f48110610ba257fe5b60050201600160006101f48110610bb557fe5b600502016000820160009054906101000a900473ffffffffffffffffffffffffffffffffffffffff168160000160006101000a81548173ffffffffffffffffffffffffffffffffffffffff021916908373ffffffffffffffffffffffffffffffffffffffff16021790555060018201548160010155600282015481600201556003820160009054906101000a900460ff168160030160006101000a81548160ff02191690831515021790555060048201548160040155905050600161138a546101f48110610c7f57fe5b60050201600080820160006101000a81549073ffffffffffffffffffffffffffffffffffffffff0219169055600182016000905560028201600090556003820160006101000a81549060ff02191690556004820160009055505061138a6000815480929190600190039190505550610cf56115fa565b5081819350935050505b9091565b6113895481565b600060011515600160006101f48110610d1f57fe5b6005020160030160009054906101000a900460ff16151514610d76576040517f08c379a0000000000000000000000000000000000000000000000000000000008152600401610d6d90611fe9565b60405180910390fd5b600160006101f48110610d8557fe5b6005020160010154905090565b600060011515600160006101f48110610da757fe5b6005020160030160009054906101000a900460ff16151514610dfe576040517f08c379a0000000000000000000000000000000000000000000000000000000008152600401610df590611fe9565b60405180910390fd5b600160006101f48110610e0d57fe5b6005020160000160009054906101000a900473ffffffffffffffffffffffffffffffffffffffff16905090565b6000600115156109c560006101f48110610e5057fe5b6005020160030160009054906101000a900460ff16151514610ea7576040517f08c379a0000000000000000000000000000000000000000000000000000000008152600401610e9e90612009565b60405180910390fd5b6109c560006101f48110610eb757fe5b6005020160000160009054906101000a900473ffffffffffffffffffffffffffffffffffffffff16905090565b61138a5481565b60005481565b6000610efb611e32565b6040518060a001604052808773ffffffffffffffffffffffffffffffffffffffff168152602001868152602001858152602001600115158152602001848152509050600015156109c560006101f48110610f5157fe5b6005020160030160009054906101000a900460ff161515141561101057806109c560006101f48110610f7f57fe5b6005020160008201518160000160006101000a81548173ffffffffffffffffffffffffffffffffffffffff021916908373ffffffffffffffffffffffffffffffffffffffff160217905550602082015181600101556040820151816002015560608201518160030160006101000a81548160ff021916908315150217905550608082015181600401559050506110cc565b61138960008154809291906001019190505550806109c5611389546101f4811061103657fe5b6005020160008201518160000160006101000a81548173ffffffffffffffffffffffffffffffffffffffff021916908373ffffffffffffffffffffffffffffffffffffffff160217905550602082015181600101556040820151816002015560608201518160030160006101000a81548160ff021916908315150217905550608082015181600401559050506110ca6118f0565b505b6001915050949350505050565b60006110e3611e32565b6040518060a001604052808773ffffffffffffffffffffffffffffffffffffffff16815260200186815260200185815260200160011515815260200184815250905060001515600160006101f4811061113857fe5b6005020160030160009054906101000a900460ff16151514156111f65780600160006101f4811061116557fe5b6005020160008201518160000160006101000a81548173ffffffffffffffffffffffffffffffffffffffff021916908373ffffffffffffffffffffffffffffffffffffffff160217905550602082015181600101556040820151816002015560608201518160030160006101000a81548160ff021916908315150217905550608082015181600401559050506112b1565b61138a6000815480929190600101919050555080600161138a546101f4811061121b57fe5b6005020160008201518160000160006101000a81548173ffffffffffffffffffffffffffffffffffffffff021916908373ffffffffffffffffffffffffffffffffffffffff160217905550602082015181600101556040820151816002015560608201518160030160006101000a81548160ff021916908315150217905550608082015181600401559050506112af611b94565b505b50949350505050565b6000801515600160006101f481106112ce57fe5b6005020160030160009054906101000a900460ff16151514156112f457600190506112f9565b600090505b90565b6000806000905060006001826002020190505b6113895481116115f157600081905060006001830190506113895481101561136f576109c5836101f4811061134057fe5b60050201600401546109c5826101f4811061135757fe5b6005020160040154101561136e5781806001019250505b5b6109c5846101f4811061137e57fe5b60050201600401546109c5836101f4811061139557fe5b600502016004015410156115e3576113ab611e32565b6109c5856101f481106113ba57fe5b600502016040518060a00160405290816000820160009054906101000a900473ffffffffffffffffffffffffffffffffffffffff1673ffffffffffffffffffffffffffffffffffffffff1673ffffffffffffffffffffffffffffffffffffffff16815260200160018201548152602001600282015481526020016003820160009054906101000a900460ff1615151515815260200160048201548152505090506109c5836101f4811061146957fe5b600502016109c5866101f4811061147c57fe5b600502016000820160009054906101000a900473ffffffffffffffffffffffffffffffffffffffff168160000160006101000a81548173ffffffffffffffffffffffffffffffffffffffff021916908373ffffffffffffffffffffffffffffffffffffffff16021790555060018201548160010155600282015481600201556003820160009054906101000a900460ff168160030160006101000a81548160ff02191690831515021790555060048201548160040155905050806109c5846101f4811061154557fe5b6005020160008201518160000160006101000a81548173ffffffffffffffffffffffffffffffffffffffff021916908373ffffffffffffffffffffffffffffffffffffffff160217905550602082015181600101556040820151816002015560608201518160030160006101000a81548160ff02191690831515021790555060808201518160040155905050829450600185600202019350506115ea565b50506115f1565b505061130f565b60019250505090565b6000806000905060006001826002020190505b61138a5481116118e7576000819050600060018301905061138a5481101561166b576001836101f4811061163d57fe5b60050201600401546001826101f4811061165357fe5b6005020160040154111561166a5781806001019250505b5b6001826101f4811061167957fe5b60050201600401546001856101f4811061168f57fe5b600502016004015410156118d9576116a5611e32565b6001856101f481106116b357fe5b600502016040518060a00160405290816000820160009054906101000a900473ffffffffffffffffffffffffffffffffffffffff1673ffffffffffffffffffffffffffffffffffffffff1673ffffffffffffffffffffffffffffffffffffffff16815260200160018201548152602001600282015481526020016003820160009054906101000a900460ff1615151515815260200160048201548152505090506001836101f4811061176157fe5b600502016001866101f4811061177357fe5b600502016000820160009054906101000a900473ffffffffffffffffffffffffffffffffffffffff168160000160006101000a81548173ffffffffffffffffffffffffffffffffffffffff021916908373ffffffffffffffffffffffffffffffffffffffff16021790555060018201548160010155600282015481600201556003820160009054906101000a900460ff168160030160006101000a81548160ff02191690831515021790555060048201548160040155905050806001846101f4811061183b57fe5b6005020160008201518160000160006101000a81548173ffffffffffffffffffffffffffffffffffffffff021916908373ffffffffffffffffffffffffffffffffffffffff160217905550602082015181600101556040820151816002015560608201518160030160006101000a81548160ff02191690831515021790555060808201518160040155905050829450600185600202019350506118e0565b50506118e7565b505061160d565b60019250505090565b6000806113895490505b6000811115611b8c5760006002600183038161191257fe5b0490506109c5816101f4811061192457fe5b60050201600401546109c5836101f4811061193b57fe5b60050201600401541015611b8057611951611e32565b6109c5836101f4811061196057fe5b600502016040518060a00160405290816000820160009054906101000a900473ffffffffffffffffffffffffffffffffffffffff1673ffffffffffffffffffffffffffffffffffffffff1673ffffffffffffffffffffffffffffffffffffffff16815260200160018201548152602001600282015481526020016003820160009054906101000a900460ff1615151515815260200160048201548152505090506109c5826101f48110611a0f57fe5b600502016109c5846101f48110611a2257fe5b600502016000820160009054906101000a900473ffffffffffffffffffffffffffffffffffffffff168160000160006101000a81548173ffffffffffffffffffffffffffffffffffffffff021916908373ffffffffffffffffffffffffffffffffffffffff16021790555060018201548160010155600282015481600201556003820160009054906101000a900460ff168160030160006101000a81548160ff02191690831515021790555060048201548160040155905050806109c5836101f48110611aeb57fe5b6005020160008201518160000160006101000a81548173ffffffffffffffffffffffffffffffffffffffff021916908373ffffffffffffffffffffffffffffffffffffffff160217905550602082015181600101556040820151816002015560608201518160030160006101000a81548160ff0219169083151502179055506080820151816004015590505081925050611b86565b50611b8c565b506118fa565b600191505090565b60008061138a5490505b6000811115611e2a57600060026001830381611bb657fe5b0490506001816101f48110611bc757fe5b60050201600401546001836101f48110611bdd57fe5b60050201600401541115611e1e57611bf3611e32565b6001836101f48110611c0157fe5b600502016040518060a00160405290816000820160009054906101000a900473ffffffffffffffffffffffffffffffffffffffff1673ffffffffffffffffffffffffffffffffffffffff1673ffffffffffffffffffffffffffffffffffffffff16815260200160018201548152602001600282015481526020016003820160009054906101000a900460ff1615151515815260200160048201548152505090506001826101f48110611caf57fe5b600502016001846101f48110611cc157fe5b600502016000820160009054906101000a900473ffffffffffffffffffffffffffffffffffffffff168160000160006101000a81548173ffffffffffffffffffffffffffffffffffffffff021916908373ffffffffffffffffffffffffffffffffffffffff16021790555060018201548160010155600282015481600201556003820160009054906101000a900460ff168160030160006101000a81548160ff02191690831515021790555060048201548160040155905050806001836101f48110611d8957fe5b6005020160008201518160000160006101000a81548173ffffffffffffffffffffffffffffffffffffffff021916908373ffffffffffffffffffffffffffffffffffffffff160217905550602082015181600101556040820151816002015560608201518160030160006101000a81548160ff0219169083151502179055506080820151816004015590505081925050611e24565b50611e2a565b50611b9e565b600191505090565b6040518060a00160405280600073ffffffffffffffffffffffffffffffffffffffff1681526020016000815260200160008152602001600015158152602001600081525090565b600081359050611e88816120c6565b92915050565b600081359050611e9d816120dd565b92915050565b60008060008060808587031215611eb957600080fd5b6000611ec787828801611e79565b9450506020611ed887828801611e8e565b9350506040611ee987828801611e8e565b9250506060611efa87828801611e8e565b91505092959194509250565b611f0f8161207e565b82525050565b611f1e81612090565b82525050565b6000611f3160118361206d565b91507f4275794c69737420697320656d707479210000000000000000000000000000006000830152602082019050919050565b6000611f7160128361206d565b91507f53656c6c4c69737420697320656d7074792100000000000000000000000000006000830152602082019050919050565b611fad816120bc565b82525050565b6000602082019050611fc86000830184611f06565b92915050565b6000602082019050611fe36000830184611f15565b92915050565b6000602082019050818103600083015261200281611f24565b9050919050565b6000602082019050818103600083015261202281611f64565b9050919050565b600060208201905061203e6000830184611fa4565b92915050565b60006040820190506120596000830185611fa4565b6120666020830184611f06565b9392505050565b600082825260208201905092915050565b60006120898261209c565b9050919050565b60008115159050919050565b600073ffffffffffffffffffffffffffffffffffffffff82169050919050565b6000819050919050565b6120cf8161207e565b81146120da57600080fd5b50565b6120e6816120bc565b81146120f157600080fd5b5056fea365627a7a72315820ab9d89f39b30e60b5ef5271c8d44503a2dc2e8fef930534dc32cdbc7c35cab156c6578706572696d656e74616cf564736f6c634300050c0040",
  "source": "pragma solidity >=0.4.22;\npragma experimental ABIEncoderV2;\n\n//Heap with static array wrapped in a priority queue\n\ncontract PQ2_Heap_Static_Array{\n    \n    constructor (uint256 _MAXORDERS) public\n    {\n        MAXORDERS = _MAXORDERS;\n    }\n\n//Every order has some attributes:\n    struct OrderStruct \n    {\n        address Sender;\n        uint256 Price;\n        uint256 Volume;     //The volume is 1 for now\n        bool Exists;\n        uint256 AuxPrice;   //This is not the real price of the order, it's the contcantenation of the real price and the counter which helps to sort the heap wehen there are ties\n\n        \n    }\n    uint256 public MAXORDERS;\n    OrderStruct[500] BuyList;  //The array that contains Bid OrderStructs (descending (decremental)), we always want the highest bid (maxheap)\n    OrderStruct[500] SellList; //The array that contains Ask OrderStructs (ascending (incremental)), we always want the lowest ask (minheap)\n    uint256 public SellIndex;\n    uint256 public BuyIndex;\n\n//*****************************************************************//\n//*******************  maxheap Functions (BuyList) ****************//\n//*****************************************************************//\n\n//*******************  InsertBid() ***************************//\n    //the new item will be added to the end of the array list (a buy order is submitted)\n    //then heapified up with a call to heapifyUp method\n    function InsertBid (address _sender, uint256 _price, uint256 _volume, uint256 _auxprice) public returns (bool)\n    {\n        OrderStruct memory neworder = OrderStruct(_sender, _price , _volume, true, _auxprice);\n\n        if (BuyList[0].Exists == false)\n        {\n            BuyList[0] = neworder; \n        }\n       else{\n            BuyIndex ++;\n            BuyList[BuyIndex] = neworder;\n            maxheap_heapifyUp ();\n        }    \n    }    \n//*******************  maxheap_heapifyUp () ***************************//\n    //this function is called everytime we insert a new element to the end of the array (aka a new Buy order is submitted) and\n    //now the heap has to be sorted again\n    function maxheap_heapifyUp () internal returns (bool) {\n\n        uint256 k = BuyIndex;                   //k is set to be the last entry of the array (also heap) which is the element that's just added and has to be moved up\n        while (k > 0){                                  //while we havent reached to the top of the heap\n            uint256 p = (k-1)/2;                           //we need to compute the parent of this last element which is p = (k-1)/2\n            if (BuyList[k].AuxPrice > BuyList[p].AuxPrice) //if the element is greater than its parent\n            {   \n                OrderStruct memory temp = BuyList[k];    //swap the element at index k with its parent\n                BuyList[k] = BuyList[p];\n                BuyList[p] = temp;\n                k = p;                                  //k moves up one level\n            }\n            else {break;}                               //if not the break statement exits the loop (it continues until no element index k is not greater than its parent)\n        }\n    \n        return true;\n    }\n\n//******************** BuyListMaxDelete() function ********************//    \n    //the highest priority item will be removed from the list and is returned by the function\n    //then the heap is reordered uising the heapifyDown method\n    function BuyListMaxDelete() public returns (uint256, address) \n    {   \n        require (BuyList[0].Exists != false, 'BuyList is empty!');   //the delete function throws exception if the list is empty\n        \n        \n        if (BuyIndex == 0) \n        {   \n            uint256 _price =  BuyList[0].Price;\n            address _sender =  BuyList[0].Sender;\n            delete BuyList[0];\n            return(_price,_sender);\n\n        }                           \n        if (BuyIndex == 1)  //if the heap has two items\n        {                                     \n            uint256 _price =  BuyList[0].Price;\n            address _sender =  BuyList[0].Sender;                  \n            BuyList[0] = BuyList[1]; //the first element of the heap is removed \n            delete BuyList[1];\n            BuyIndex --;\n            return(_price,_sender);\n            \n       \n        }\n        //if neither of these conditions are true, then there are at least 2 items in the heap and deletion proceeds\n        uint256 _price =  BuyList[0].Price;\n        address _sender =  BuyList[0].Sender;\n        BuyList[0] = BuyList[BuyIndex]; //the last elementof the heap is removed and written into the first position\n        delete BuyList[BuyIndex];\n        BuyIndex--;\n        maxheap_heapifyDown(); //now the siftdown is called\n        return(_price,_sender);\n    }\n\n//*******************  maxheap_heapifyDown () ***************************//\n    //when we want to remove an element from the heap we remove the root of the heap and add the last item\n    //to the root and reorder the heap again\n    function maxheap_heapifyDown () internal \n \n    returns (bool)\n    {\n        uint256 k =0;\n        uint256 leftchild = 2*k + 1;\n        while (leftchild <= BuyIndex )\n        {                                   //as long as the left child is within the array that heap is stored in\n            uint256 max = leftchild;\n            uint256 rightchild = leftchild + 1;                                     //rightchild = 2k+2\n\n            if (rightchild < BuyIndex )                                       //if there is a rightchild\n            {\n                if (BuyList[rightchild].AuxPrice > BuyList[leftchild].AuxPrice)    //then the right child and left child are compared\n                {\n                    max++;                                                       //now max is set to rightchild, otherwise max remains to be the leftchild\n                }\n            }\n\n        if (BuyList[k].AuxPrice < BuyList[max].AuxPrice)                        //compares the k item with the max item and if k is smaller than its greatest children they are swapped\n        {\n            \n            OrderStruct memory temp = BuyList[k];    //swap the element at index k with its parent\n            BuyList[k] = BuyList[max];\n            BuyList[max] = temp;\n            k = max;                                                         //k is set to max\n            leftchild =2*k + 1;                                              //l is recompuetd in preparation for the next iteration\n        }\n        else{                                                               //if the k item is not smaller than the max item, heapifyDown should stop\n            break;\n            }\n        }\n        return true;\n    }\n    \n//****************   BuyListMaxPrice()  *********************//\n    //BuyListMaxPrice function returns the price of the highest priority element (The highest bid)\n    function BuyListMaxPrice() public  returns (uint256){\n        \n        require (BuyList[0].Exists == true, 'BuyList is empty!'); //throws exception if the maxheap (BuyList) is empty\n        return (BuyList[0].Price);\n        \n    }\n//****************   BuyListMaxSender()  *********************//\n    //BuyListMaxSender function returns the sender of the highest priority element (The highest bid)\n    function BuyListMaxSender() public  returns (address){\n        \n        require (BuyList[0].Exists == true, 'BuyList is empty!'); //throws exception if the maxheap (BuyList) is empty\n        return (BuyList[0].Sender);\n        \n    }\n//****************   BuyListisEmpty()  *********************//\n    //checks if the Buylist is empty or not \n    function BuyListisEmpty() public returns (bool){\n        \n        if (BuyList[0].Exists == false)\n        {\n            return true;\n\n        }\n        else\n        {\n            return false;\n        }\n        \n    }\n//*****************************************************************//\n//*******************  minheap Functions (SellList) ****************//\n//*****************************************************************//\n\n//*******************  minheap_insert () ***************************//\n    //the new item will be added to the end of the array list (a sell order is submitted)\n    //then heapified up with a call to heapifyUp method\n    function InsertAsk (address _sender, uint256 _price, uint256 _volume, uint256 _auxprice) public  returns (bool)\n    {\n        OrderStruct memory neworder = OrderStruct(_sender, _price , _volume, true, _auxprice); \n        \n        if (SellList[0].Exists == false)\n        {\n           SellList[0] = neworder;\n           \n        }\n        else\n        {\n            SellIndex ++;\n            SellList[SellIndex] = neworder;\n            minheap_heapifyUp();\n        }\n    \n        return true;\n    }    \n//*******************  minheap_heapifyUp () ***************************//\n    //this function is called everytime we insert a new element to the end of the array (aka a new sell order is submitted) and\n    //now the heap has to be sorted again\n    function minheap_heapifyUp () internal returns (bool) {\n\n        uint256 k = SellIndex ; //k is set to be the last entry of the array(also heap) which is the element that's just added and has to be moved up\n        while (k > 0){                                      //while we havent reached to the top of the heap\n            uint256 p = (k-1)/2;                            //we need to compute the parent of this last element which is p = (k-1)/2\n            if (SellList[k].AuxPrice < SellList[p].AuxPrice) //if the element is greater than its parent\n            { \n            \n                OrderStruct memory temp = SellList[k];    //swap the element at index k with its parent\n                SellList[k] = SellList[p];\n                SellList[p] = temp;\n                \n                k = p; //k moves up one level\n            }\n            else {break;} //if not the break statement exits the loop (it continues until no element index k is not greater than its parent)\n        }\n        \n        return true;\n    }    \n//****************   SellListMaxPrice()  *********************//\n    //SellListMaxPrice function returns the price of the highest priority element (The Lowest ask)\n    function SellListMaxPrice() public  returns (uint256){\n\n        require(SellList[0].Exists == true,'SellList is empty!'); //throws exception if the minheap (SellList) is empty\n        return (SellList[0].Price);\n    }\n//****************   SellListMaxSender()  *********************//\n    //SellListMaxSender function returns the address of the highest priority element (The Lowest ask)\n    function SellListMaxSender() public  returns (address){\n\n        require(SellList[0].Exists == true,'SellList is empty!'); //throws exception if the minheap (SellList) is empty\n        return (SellList[0].Sender);\n    }\n//****************   SellListisEmpty()  *********************//\n    //checks if the SellList is empty or not \n    function SellListisEmpty() public returns (bool){\n        \n        if (SellList[0].Exists == false)\n        {\n            return true;\n\n        }\n        else\n        {\n            return false;\n        }\n        \n    }\n//*******************  SellListMaxDelete () ***************************//\n    //the highest priority item (the lowest ask) will be removed from the list and is returned by the function\n    //then the heap is reordered uising the heapifyDown method\n    function SellListMaxDelete() public returns (uint256, address)\n    {\n        require(SellList[0].Exists != false,'SellList is empty!');            //the delete function throws exception if the list is empty\n        \n        \n        if (SellIndex == 0) \n        {\n            uint256 _price =  SellList[0].Price;\n            address _sender =  SellList[0].Sender;\n            delete SellList[0]; \n            return (_price,_sender);\n        }\n            \n        \n        if (SellIndex == 1) {                               // if the heap has only one item\n   \n            uint256 _price =  SellList[0].Price;\n            address _sender =  SellList[0].Sender;\n            SellList[0] = SellList[1];\n            delete SellList[1];                                   //the only element of the heap is removed and returned  \n            SellIndex --;\n            return (_price,_sender);\n        }\n\n        //if neither of these conditions are true, then there are at least 2 items in the heap and deletion proceeds\n      \n        uint256 _price =  SellList[0].Price;\n        address _sender =  SellList[0].Sender;\n        SellList[0] = SellList[SellIndex];                      //the last elementof the heap is removed and written into the first position\n        delete SellList[SellIndex]; \n        SellIndex--;\n        minheap_heapifyDown();                           //now the heapifyDown is called to restore the ordering of the heap \n        return (_price,_sender);\n    }\n//*******************  minheap_heapifyDown () ***************************//\n    //when we want to remove an element from the heap we remove the root of the heap and add the last item\n    //to the root and reorder the heap again\n    function minheap_heapifyDown () internal returns (bool) {\n        uint256 k =0;\n        uint256 leftchild = 2*k + 1;\n        while (leftchild <= SellIndex ){               //as long as the left child is within the array that heap is stored in\n            uint256 min = leftchild;\n            uint256 rightchild = leftchild + 1;              //rightchild = 2k+2\n\n            if (rightchild < SellIndex )                //if there is a rightchild, then the right child and left child are compared\n            {\n                if (SellList[rightchild].AuxPrice < SellList[leftchild].AuxPrice)\n                {    min++;   }                               //now min is set to rightchild, otherwise min remains to be the leftchild\n            }\n\n            if (SellList[min].AuxPrice < SellList[k].AuxPrice) //compares the k item with the max item and if its less they are swapped\n            {\n                \n                OrderStruct memory temp = SellList[k];    //swap the element at index k with its parent\n                SellList[k] = SellList[min];\n                SellList[min] = temp;\n\n                k = min; //k is set to min\n                leftchild = 2*k + 1; //l is recompuetd in preparation for the next iteration\n            }\n            else{ //if k item's smaller childer is not smaller than k item itself, heapifyDown should stop\n                break;\n            }\n\n        }\n        return true;\n    }\n\n\n\n}",
  "sourcePath": "/home/mahsa/ProjectRepo/2020-Orderbook/Code/New-Truffle/contracts/CallMarket/Priority_Queues/PQ2_Heap_Static_Array.sol",
  "compiler": {
    "name": "solc",
    "version": "0.5.12+commit.7709ece9.Emscripten.clang"
  },
  "schemaVersion": "3.2.0",
  "updatedAt": "2020-07-11T19:04:04.262Z",
  "networkType": "ethereum",
  "devdoc": {
    "methods": {}
  },
  "userdoc": {
    "methods": {}
  }
}