{
  "contractName": "PQ2_Heap_Static_Array",
  "abi": [
    {
      "inputs": [
        {
          "internalType": "uint256",
          "name": "_MAXORDERS",
          "type": "uint256"
        }
      ],
      "payable": false,
      "stateMutability": "nonpayable",
      "type": "constructor"
    },
    {
      "constant": true,
      "inputs": [],
      "name": "BuyIndex",
      "outputs": [
        {
          "internalType": "uint256",
          "name": "",
          "type": "uint256"
        }
      ],
      "payable": false,
      "stateMutability": "view",
      "type": "function"
    },
    {
      "constant": true,
      "inputs": [],
      "name": "MAXORDERS",
      "outputs": [
        {
          "internalType": "uint256",
          "name": "",
          "type": "uint256"
        }
      ],
      "payable": false,
      "stateMutability": "view",
      "type": "function"
    },
    {
      "constant": true,
      "inputs": [],
      "name": "SellIndex",
      "outputs": [
        {
          "internalType": "uint256",
          "name": "",
          "type": "uint256"
        }
      ],
      "payable": false,
      "stateMutability": "view",
      "type": "function"
    },
    {
      "constant": false,
      "inputs": [
        {
          "internalType": "address",
          "name": "_sender",
          "type": "address"
        },
        {
          "internalType": "uint256",
          "name": "_price",
          "type": "uint256"
        },
        {
          "internalType": "uint256",
          "name": "_volume",
          "type": "uint256"
        },
        {
          "internalType": "uint256",
          "name": "_auxprice",
          "type": "uint256"
        }
      ],
      "name": "InsertBid",
      "outputs": [
        {
          "internalType": "bool",
          "name": "",
          "type": "bool"
        }
      ],
      "payable": false,
      "stateMutability": "nonpayable",
      "type": "function"
    },
    {
      "constant": false,
      "inputs": [],
      "name": "BuyListMaxDelete",
      "outputs": [
        {
          "internalType": "uint256",
          "name": "",
          "type": "uint256"
        },
        {
          "internalType": "address",
          "name": "",
          "type": "address"
        }
      ],
      "payable": false,
      "stateMutability": "nonpayable",
      "type": "function"
    },
    {
      "constant": false,
      "inputs": [],
      "name": "BuyListMaxPrice",
      "outputs": [
        {
          "internalType": "uint256",
          "name": "",
          "type": "uint256"
        }
      ],
      "payable": false,
      "stateMutability": "nonpayable",
      "type": "function"
    },
    {
      "constant": false,
      "inputs": [],
      "name": "BuyListMaxSender",
      "outputs": [
        {
          "internalType": "address",
          "name": "",
          "type": "address"
        }
      ],
      "payable": false,
      "stateMutability": "nonpayable",
      "type": "function"
    },
    {
      "constant": false,
      "inputs": [],
      "name": "BuyListisEmpty",
      "outputs": [
        {
          "internalType": "bool",
          "name": "",
          "type": "bool"
        }
      ],
      "payable": false,
      "stateMutability": "nonpayable",
      "type": "function"
    },
    {
      "constant": false,
      "inputs": [
        {
          "internalType": "address",
          "name": "_sender",
          "type": "address"
        },
        {
          "internalType": "uint256",
          "name": "_price",
          "type": "uint256"
        },
        {
          "internalType": "uint256",
          "name": "_volume",
          "type": "uint256"
        },
        {
          "internalType": "uint256",
          "name": "_auxprice",
          "type": "uint256"
        }
      ],
      "name": "InsertAsk",
      "outputs": [
        {
          "internalType": "bool",
          "name": "",
          "type": "bool"
        }
      ],
      "payable": false,
      "stateMutability": "nonpayable",
      "type": "function"
    },
    {
      "constant": false,
      "inputs": [],
      "name": "SellListMaxPrice",
      "outputs": [
        {
          "internalType": "uint256",
          "name": "",
          "type": "uint256"
        }
      ],
      "payable": false,
      "stateMutability": "nonpayable",
      "type": "function"
    },
    {
      "constant": false,
      "inputs": [],
      "name": "SellListMaxSender",
      "outputs": [
        {
          "internalType": "address",
          "name": "",
          "type": "address"
        }
      ],
      "payable": false,
      "stateMutability": "nonpayable",
      "type": "function"
    },
    {
      "constant": false,
      "inputs": [],
      "name": "SellListisEmpty",
      "outputs": [
        {
          "internalType": "bool",
          "name": "",
          "type": "bool"
        }
      ],
      "payable": false,
      "stateMutability": "nonpayable",
      "type": "function"
    },
    {
      "constant": false,
      "inputs": [],
      "name": "SellListMaxDelete",
      "outputs": [
        {
          "internalType": "uint256",
          "name": "",
          "type": "uint256"
        },
        {
          "internalType": "address",
          "name": "",
          "type": "address"
        }
      ],
      "payable": false,
      "stateMutability": "nonpayable",
      "type": "function"
    }
  ],
  "bytecode": "0x60806040523480156200001157600080fd5b506040516200218b3803806200218b83398181016040526200003791908101906200005c565b8060008190555050620000ac565b600081519050620000568162000092565b92915050565b6000602082840312156200006f57600080fd5b60006200007f8482850162000045565b91505092915050565b6000819050919050565b6200009d8162000088565b8114620000a957600080fd5b50565b6120cf80620000bc6000396000f3fe608060405234801561001057600080fd5b50600436106100cf5760003560e01c806364d4497b1161008c57806395b977591161006657806395b97759146101e4578063ccde53ca14610202578063d735b05f14610232578063d98ed48114610262576100cf565b806364d4497b1461018a578063657ffc3c146101a8578063956f1677146101c6576100cf565b806309ab210a146100d45780630b21881b146100f2578063159916261461011157806339f3b8a31461012f57806340328eb41461014e5780635cbe5bed1461016c575b600080fd5b6100dc610280565b6040516100e99190611f66565b60405180910390f35b6100fa6102c1565b604051610108929190611fdc565b60405180910390f35b610119610788565b6040516101269190611fc1565b60405180910390f35b61013761080e565b604051610145929190611fdc565b60405180910390f35b610156610cd3565b6040516101639190611fc1565b60405180910390f35b610174610cda565b6040516101819190611fc1565b60405180910390f35b610192610d60565b60405161019f9190611f4b565b60405180910390f35b6101b0610e06565b6040516101bd9190611f4b565b60405180910390f35b6101ce610eac565b6040516101db9190611fc1565b60405180910390f35b6101ec610eb3565b6040516101f99190611fc1565b60405180910390f35b61021c60048036036102179190810190611e3b565b610eb9565b6040516102299190611f66565b60405180910390f35b61024c60048036036102479190810190611e3b565b61109b565b6040516102599190611f66565b60405180910390f35b61026a61127d565b6040516102779190611f66565b60405180910390f35b600080151560d36000602a811061029357fe5b6005020160030160009054906101000a900460ff16151514156102b957600190506102be565b600090505b90565b6000806000151560d36000602a81106102d657fe5b6005020160030160009054906101000a900460ff161515141561032e576040517f08c379a000000000000000000000000000000000000000000000000000000000815260040161032590611fa1565b60405180910390fd5b60006101a554141561040357600060d36000602a811061034a57fe5b60050201600101549050600060d36000602a811061036457fe5b6005020160000160009054906101000a900473ffffffffffffffffffffffffffffffffffffffff16905060d36000602a811061039c57fe5b60050201600080820160006101000a81549073ffffffffffffffffffffffffffffffffffffffff0219169055600182016000905560028201600090556003820160006101000a81549060ff0219169055600482016000905550508181935093505050610784565b60016101a55414156105c557600060d36000602a811061041f57fe5b60050201600101549050600060d36000602a811061043957fe5b6005020160000160009054906101000a900473ffffffffffffffffffffffffffffffffffffffff16905060d36001602a811061047157fe5b6005020160d36000602a811061048357fe5b600502016000820160009054906101000a900473ffffffffffffffffffffffffffffffffffffffff168160000160006101000a81548173ffffffffffffffffffffffffffffffffffffffff021916908373ffffffffffffffffffffffffffffffffffffffff16021790555060018201548160010155600282015481600201556003820160009054906101000a900460ff168160030160006101000a81548160ff0219169083151502179055506004820154816004015590505060d36001602a811061054a57fe5b60050201600080820160006101000a81549073ffffffffffffffffffffffffffffffffffffffff0219169055600182016000905560028201600090556003820160006101000a81549060ff0219169055600482016000905550506101a560008154809291906001900391905055508181935093505050610784565b600060d36000602a81106105d557fe5b60050201600101549050600060d36000602a81106105ef57fe5b6005020160000160009054906101000a900473ffffffffffffffffffffffffffffffffffffffff16905060d36101a554602a811061062957fe5b6005020160d36000602a811061063b57fe5b600502016000820160009054906101000a900473ffffffffffffffffffffffffffffffffffffffff168160000160006101000a81548173ffffffffffffffffffffffffffffffffffffffff021916908373ffffffffffffffffffffffffffffffffffffffff16021790555060018201548160010155600282015481600201556003820160009054906101000a900460ff168160030160006101000a81548160ff0219169083151502179055506004820154816004015590505060d36101a554602a811061070457fe5b60050201600080820160006101000a81549073ffffffffffffffffffffffffffffffffffffffff0219169055600182016000905560028201600090556003820160006101000a81549060ff0219169055600482016000905550506101a5600081548092919060019003919050555061077a6112be565b5081819350935050505b9091565b60006001151560d36000602a811061079c57fe5b6005020160030160009054906101000a900460ff161515146107f3576040517f08c379a00000000000000000000000000000000000000000000000000000000081526004016107ea90611fa1565b60405180910390fd5b60d36000602a811061080157fe5b6005020160010154905090565b6000806000151560016000602a811061082357fe5b6005020160030160009054906101000a900460ff161515141561087b576040517f08c379a000000000000000000000000000000000000000000000000000000000815260040161087290611f81565b60405180910390fd5b60006101a654141561095057600060016000602a811061089757fe5b60050201600101549050600060016000602a81106108b157fe5b6005020160000160009054906101000a900473ffffffffffffffffffffffffffffffffffffffff16905060016000602a81106108e957fe5b60050201600080820160006101000a81549073ffffffffffffffffffffffffffffffffffffffff0219169055600182016000905560028201600090556003820160006101000a81549060ff0219169055600482016000905550508181935093505050610ccf565b60016101a6541415610b1057600060016000602a811061096c57fe5b60050201600101549050600060016000602a811061098657fe5b6005020160000160009054906101000a900473ffffffffffffffffffffffffffffffffffffffff169050600180602a81106109bd57fe5b6005020160016000602a81106109cf57fe5b600502016000820160009054906101000a900473ffffffffffffffffffffffffffffffffffffffff168160000160006101000a81548173ffffffffffffffffffffffffffffffffffffffff021916908373ffffffffffffffffffffffffffffffffffffffff16021790555060018201548160010155600282015481600201556003820160009054906101000a900460ff168160030160006101000a81548160ff02191690831515021790555060048201548160040155905050600180602a8110610a9557fe5b60050201600080820160006101000a81549073ffffffffffffffffffffffffffffffffffffffff0219169055600182016000905560028201600090556003820160006101000a81549060ff0219169055600482016000905550506101a660008154809291906001900391905055508181935093505050610ccf565b600060016000602a8110610b2057fe5b60050201600101549050600060016000602a8110610b3a57fe5b6005020160000160009054906101000a900473ffffffffffffffffffffffffffffffffffffffff16905060016101a654602a8110610b7457fe5b6005020160016000602a8110610b8657fe5b600502016000820160009054906101000a900473ffffffffffffffffffffffffffffffffffffffff168160000160006101000a81548173ffffffffffffffffffffffffffffffffffffffff021916908373ffffffffffffffffffffffffffffffffffffffff16021790555060018201548160010155600282015481600201556003820160009054906101000a900460ff168160030160006101000a81548160ff0219169083151502179055506004820154816004015590505060016101a654602a8110610c4f57fe5b60050201600080820160006101000a81549073ffffffffffffffffffffffffffffffffffffffff0219169055600182016000905560028201600090556003820160006101000a81549060ff0219169055600482016000905550506101a66000815480929190600190039190505550610cc56115ac565b5081819350935050505b9091565b6101a55481565b60006001151560016000602a8110610cee57fe5b6005020160030160009054906101000a900460ff16151514610d45576040517f08c379a0000000000000000000000000000000000000000000000000000000008152600401610d3c90611f81565b60405180910390fd5b60016000602a8110610d5357fe5b6005020160010154905090565b60006001151560016000602a8110610d7457fe5b6005020160030160009054906101000a900460ff16151514610dcb576040517f08c379a0000000000000000000000000000000000000000000000000000000008152600401610dc290611f81565b60405180910390fd5b60016000602a8110610dd957fe5b6005020160000160009054906101000a900473ffffffffffffffffffffffffffffffffffffffff16905090565b60006001151560d36000602a8110610e1a57fe5b6005020160030160009054906101000a900460ff16151514610e71576040517f08c379a0000000000000000000000000000000000000000000000000000000008152600401610e6890611fa1565b60405180910390fd5b60d36000602a8110610e7f57fe5b6005020160000160009054906101000a900473ffffffffffffffffffffffffffffffffffffffff16905090565b6101a65481565b60005481565b6000610ec3611dca565b6040518060a001604052808773ffffffffffffffffffffffffffffffffffffffff1681526020018681526020018581526020016001151581526020018481525090506000151560d36000602a8110610f1757fe5b6005020160030160009054906101000a900460ff1615151415610fd4578060d36000602a8110610f4357fe5b6005020160008201518160000160006101000a81548173ffffffffffffffffffffffffffffffffffffffff021916908373ffffffffffffffffffffffffffffffffffffffff160217905550602082015181600101556040820151816002015560608201518160030160006101000a81548160ff0219169083151502179055506080820151816004015590505061108e565b6101a5600081548092919060010191905055508060d36101a554602a8110610ff857fe5b6005020160008201518160000160006101000a81548173ffffffffffffffffffffffffffffffffffffffff021916908373ffffffffffffffffffffffffffffffffffffffff160217905550602082015181600101556040820151816002015560608201518160030160006101000a81548160ff0219169083151502179055506080820151816004015590505061108c61189a565b505b6001915050949350505050565b60006110a5611dca565b6040518060a001604052808773ffffffffffffffffffffffffffffffffffffffff1681526020018681526020018581526020016001151581526020018481525090506000151560016000602a81106110f957fe5b6005020160030160009054906101000a900460ff16151514156111b6578060016000602a811061112557fe5b6005020160008201518160000160006101000a81548173ffffffffffffffffffffffffffffffffffffffff021916908373ffffffffffffffffffffffffffffffffffffffff160217905550602082015181600101556040820151816002015560608201518160030160006101000a81548160ff02191690831515021790555060808201518160040155905050611270565b6101a6600081548092919060010191905055508060016101a654602a81106111da57fe5b6005020160008201518160000160006101000a81548173ffffffffffffffffffffffffffffffffffffffff021916908373ffffffffffffffffffffffffffffffffffffffff160217905550602082015181600101556040820151816002015560608201518160030160006101000a81548160ff0219169083151502179055506080820151816004015590505061126e611b32565b505b6001915050949350505050565b600080151560016000602a811061129057fe5b6005020160030160009054906101000a900460ff16151514156112b657600190506112bb565b600090505b90565b6000806000905060006001826002020190505b6101a55481116115a357600081905060006001830190506101a55481101561132d5760d383602a811061130057fe5b600502016004015460d382602a811061131557fe5b6005020160040154101561132c5781806001019250505b5b60d384602a811061133a57fe5b600502016004015460d383602a811061134f57fe5b6005020160040154101561159557611365611dca565b60d385602a811061137257fe5b600502016040518060a00160405290816000820160009054906101000a900473ffffffffffffffffffffffffffffffffffffffff1673ffffffffffffffffffffffffffffffffffffffff1673ffffffffffffffffffffffffffffffffffffffff16815260200160018201548152602001600282015481526020016003820160009054906101000a900460ff16151515158152602001600482015481525050905060d383602a811061141f57fe5b6005020160d386602a811061143057fe5b600502016000820160009054906101000a900473ffffffffffffffffffffffffffffffffffffffff168160000160006101000a81548173ffffffffffffffffffffffffffffffffffffffff021916908373ffffffffffffffffffffffffffffffffffffffff16021790555060018201548160010155600282015481600201556003820160009054906101000a900460ff168160030160006101000a81548160ff021916908315150217905550600482015481600401559050508060d384602a81106114f757fe5b6005020160008201518160000160006101000a81548173ffffffffffffffffffffffffffffffffffffffff021916908373ffffffffffffffffffffffffffffffffffffffff160217905550602082015181600101556040820151816002015560608201518160030160006101000a81548160ff021916908315150217905550608082015181600401559050508294506001856002020193505061159c565b50506115a3565b50506112d1565b60019250505090565b6000806000905060006001826002020190505b6101a654811161189157600081905060006001830190506101a65481101561161b57600183602a81106115ee57fe5b6005020160040154600182602a811061160357fe5b6005020160040154111561161a5781806001019250505b5b600182602a811061162857fe5b6005020160040154600185602a811061163d57fe5b6005020160040154101561188357611653611dca565b600185602a811061166057fe5b600502016040518060a00160405290816000820160009054906101000a900473ffffffffffffffffffffffffffffffffffffffff1673ffffffffffffffffffffffffffffffffffffffff1673ffffffffffffffffffffffffffffffffffffffff16815260200160018201548152602001600282015481526020016003820160009054906101000a900460ff161515151581526020016004820154815250509050600183602a811061170d57fe5b60050201600186602a811061171e57fe5b600502016000820160009054906101000a900473ffffffffffffffffffffffffffffffffffffffff168160000160006101000a81548173ffffffffffffffffffffffffffffffffffffffff021916908373ffffffffffffffffffffffffffffffffffffffff16021790555060018201548160010155600282015481600201556003820160009054906101000a900460ff168160030160006101000a81548160ff0219169083151502179055506004820154816004015590505080600184602a81106117e557fe5b6005020160008201518160000160006101000a81548173ffffffffffffffffffffffffffffffffffffffff021916908373ffffffffffffffffffffffffffffffffffffffff160217905550602082015181600101556040820151816002015560608201518160030160006101000a81548160ff021916908315150217905550608082015181600401559050508294506001856002020193505061188a565b5050611891565b50506115bf565b60019250505090565b6000806101a55490505b6000811115611b2a576000600260018303816118bc57fe5b04905060d381602a81106118cc57fe5b600502016004015460d383602a81106118e157fe5b60050201600401541015611b1e576118f7611dca565b60d383602a811061190457fe5b600502016040518060a00160405290816000820160009054906101000a900473ffffffffffffffffffffffffffffffffffffffff1673ffffffffffffffffffffffffffffffffffffffff1673ffffffffffffffffffffffffffffffffffffffff16815260200160018201548152602001600282015481526020016003820160009054906101000a900460ff16151515158152602001600482015481525050905060d382602a81106119b157fe5b6005020160d384602a81106119c257fe5b600502016000820160009054906101000a900473ffffffffffffffffffffffffffffffffffffffff168160000160006101000a81548173ffffffffffffffffffffffffffffffffffffffff021916908373ffffffffffffffffffffffffffffffffffffffff16021790555060018201548160010155600282015481600201556003820160009054906101000a900460ff168160030160006101000a81548160ff021916908315150217905550600482015481600401559050508060d383602a8110611a8957fe5b6005020160008201518160000160006101000a81548173ffffffffffffffffffffffffffffffffffffffff021916908373ffffffffffffffffffffffffffffffffffffffff160217905550602082015181600101556040820151816002015560608201518160030160006101000a81548160ff0219169083151502179055506080820151816004015590505081925050611b24565b50611b2a565b506118a4565b600191505090565b6000806101a65490505b6000811115611dc257600060026001830381611b5457fe5b049050600181602a8110611b6457fe5b6005020160040154600183602a8110611b7957fe5b60050201600401541115611db657611b8f611dca565b600183602a8110611b9c57fe5b600502016040518060a00160405290816000820160009054906101000a900473ffffffffffffffffffffffffffffffffffffffff1673ffffffffffffffffffffffffffffffffffffffff1673ffffffffffffffffffffffffffffffffffffffff16815260200160018201548152602001600282015481526020016003820160009054906101000a900460ff161515151581526020016004820154815250509050600182602a8110611c4957fe5b60050201600184602a8110611c5a57fe5b600502016000820160009054906101000a900473ffffffffffffffffffffffffffffffffffffffff168160000160006101000a81548173ffffffffffffffffffffffffffffffffffffffff021916908373ffffffffffffffffffffffffffffffffffffffff16021790555060018201548160010155600282015481600201556003820160009054906101000a900460ff168160030160006101000a81548160ff0219169083151502179055506004820154816004015590505080600183602a8110611d2157fe5b6005020160008201518160000160006101000a81548173ffffffffffffffffffffffffffffffffffffffff021916908373ffffffffffffffffffffffffffffffffffffffff160217905550602082015181600101556040820151816002015560608201518160030160006101000a81548160ff0219169083151502179055506080820151816004015590505081925050611dbc565b50611dc2565b50611b3c565b600191505090565b6040518060a00160405280600073ffffffffffffffffffffffffffffffffffffffff1681526020016000815260200160008152602001600015158152602001600081525090565b600081359050611e208161205e565b92915050565b600081359050611e3581612075565b92915050565b60008060008060808587031215611e5157600080fd5b6000611e5f87828801611e11565b9450506020611e7087828801611e26565b9350506040611e8187828801611e26565b9250506060611e9287828801611e26565b91505092959194509250565b611ea781612016565b82525050565b611eb681612028565b82525050565b6000611ec9601183612005565b91507f4275794c69737420697320656d707479210000000000000000000000000000006000830152602082019050919050565b6000611f09601283612005565b91507f53656c6c4c69737420697320656d7074792100000000000000000000000000006000830152602082019050919050565b611f4581612054565b82525050565b6000602082019050611f606000830184611e9e565b92915050565b6000602082019050611f7b6000830184611ead565b92915050565b60006020820190508181036000830152611f9a81611ebc565b9050919050565b60006020820190508181036000830152611fba81611efc565b9050919050565b6000602082019050611fd66000830184611f3c565b92915050565b6000604082019050611ff16000830185611f3c565b611ffe6020830184611e9e565b9392505050565b600082825260208201905092915050565b600061202182612034565b9050919050565b60008115159050919050565b600073ffffffffffffffffffffffffffffffffffffffff82169050919050565b6000819050919050565b61206781612016565b811461207257600080fd5b50565b61207e81612054565b811461208957600080fd5b5056fea365627a7a723158201265e7b4037804dad58ffdbfa4abcad277ec768e6a95a09861f94d6abddd58b06c6578706572696d656e74616cf564736f6c634300050c0040",
  "source": "//pragma solidity >=0.4.22;\npragma solidity 0.5.12;\n\npragma experimental ABIEncoderV2;\n\n//Heap with static array wrapped in a priority queue\n\ncontract PQ2_Heap_Static_Array{\n    \n    constructor (uint256 _MAXORDERS) public\n    {\n        MAXORDERS = _MAXORDERS;\n    }\n\n//Every order has some attributes:\n    struct OrderStruct \n    {\n        address Sender;\n        uint256 Price;\n        uint256 Volume;     //The volume is 1 for now\n        bool Exists;\n        uint256 AuxPrice;   //This is not the real price of the order, it's the contcantenation of the real price and the counter which helps to sort the heap wehen there are ties\n\n        \n    }\n    uint256 public MAXORDERS;\n    OrderStruct[42] internal BuyList;  //The array that contains Bid OrderStructs (descending (decremental)), we always want the highest bid (maxheap)\n    OrderStruct[42] internal SellList; //The array that contains Ask OrderStructs (ascending (incremental)), we always want the lowest ask (minheap)\n    uint256 public SellIndex;\n    uint256 public BuyIndex;\n\n//*****************************************************************//\n//*******************  maxheap Functions (BuyList) ****************//\n//*****************************************************************//\n\n//*******************  InsertBid() ***************************//\n    //the new item will be added to the end of the array list (a buy order is submitted)\n    //then heapified up with a call to heapifyUp method\n    function InsertBid (address _sender, uint256 _price, uint256 _volume, uint256 _auxprice) public returns (bool)\n    {\n        OrderStruct memory neworder = OrderStruct(_sender, _price , _volume, true, _auxprice);\n\n        if (BuyList[0].Exists == false)\n        {\n            BuyList[0] = neworder; \n        }\n       else{\n            BuyIndex ++;\n            BuyList[BuyIndex] = neworder;\n            maxheap_heapifyUp ();\n        }  \n        return true;  \n    }    \n//*******************  maxheap_heapifyUp () ***************************//\n    //this function is called everytime we insert a new element to the end of the array (aka a new Buy order is submitted) and\n    //now the heap has to be sorted again\n    function maxheap_heapifyUp () internal returns (bool) {\n\n        uint256 k = BuyIndex;                   //k is set to be the last entry of the array (also heap) which is the element that's just added and has to be moved up\n        while (k > 0){                                  //while we havent reached to the top of the heap\n            uint256 p = (k-1)/2;                           //we need to compute the parent of this last element which is p = (k-1)/2\n            if (BuyList[k].AuxPrice > BuyList[p].AuxPrice) //if the element is greater than its parent\n            {   \n                OrderStruct memory temp = BuyList[k];    //swap the element at index k with its parent\n                BuyList[k] = BuyList[p];\n                BuyList[p] = temp;\n                k = p;                                  //k moves up one level\n            }\n            else {break;}                               //if not the break statement exits the loop (it continues until no element index k is not greater than its parent)\n        }\n    \n        return true;\n    }\n\n//******************** BuyListMaxDelete() function ********************//    \n    //the highest priority item will be removed from the list and is returned by the function\n    //then the heap is reordered uising the heapifyDown method\n    function BuyListMaxDelete() public returns (uint256, address) \n    {   \n        require (BuyList[0].Exists != false, 'BuyList is empty!');   //the delete function throws exception if the list is empty\n        \n        \n        if (BuyIndex == 0) \n        {   \n            uint256 _price =  BuyList[0].Price;\n            address _sender =  BuyList[0].Sender;\n            delete BuyList[0];\n            return(_price,_sender);\n\n        }                           \n        if (BuyIndex == 1)  //if the heap has two items\n        {                                     \n            uint256 _price =  BuyList[0].Price;\n            address _sender =  BuyList[0].Sender;                  \n            BuyList[0] = BuyList[1]; //the first element of the heap is removed \n            delete BuyList[1];\n            BuyIndex --;\n            return(_price,_sender);\n            \n       \n        }\n        //if neither of these conditions are true, then there are at least 2 items in the heap and deletion proceeds\n        uint256 _price =  BuyList[0].Price;\n        address _sender =  BuyList[0].Sender;\n        BuyList[0] = BuyList[BuyIndex]; //the last elementof the heap is removed and written into the first position\n        delete BuyList[BuyIndex];\n        BuyIndex--;\n        maxheap_heapifyDown(); //now the siftdown is called\n        return(_price,_sender);\n    }\n\n//*******************  maxheap_heapifyDown () ***************************//\n    //when we want to remove an element from the heap we remove the root of the heap and add the last item\n    //to the root and reorder the heap again\n    function maxheap_heapifyDown () internal \n \n    returns (bool)\n    {\n        uint256 k =0;\n        uint256 leftchild = 2*k + 1;\n        while (leftchild <= BuyIndex )\n        {                                   //as long as the left child is within the array that heap is stored in\n            uint256 max = leftchild;\n            uint256 rightchild = leftchild + 1;                                     //rightchild = 2k+2\n\n            if (rightchild < BuyIndex )                                       //if there is a rightchild\n            {\n                if (BuyList[rightchild].AuxPrice > BuyList[leftchild].AuxPrice)    //then the right child and left child are compared\n                {\n                    max++;                                                       //now max is set to rightchild, otherwise max remains to be the leftchild\n                }\n            }\n\n        if (BuyList[k].AuxPrice < BuyList[max].AuxPrice)                        //compares the k item with the max item and if k is smaller than its greatest children they are swapped\n        {\n            \n            OrderStruct memory temp = BuyList[k];    //swap the element at index k with its parent\n            BuyList[k] = BuyList[max];\n            BuyList[max] = temp;\n            k = max;                                                         //k is set to max\n            leftchild =2*k + 1;                                              //l is recompuetd in preparation for the next iteration\n        }\n        else{                                                               //if the k item is not smaller than the max item, heapifyDown should stop\n            break;\n            }\n        }\n        return true;\n    }\n    \n//****************   BuyListMaxPrice()  *********************//\n    //BuyListMaxPrice function returns the price of the highest priority element (The highest bid)\n    function BuyListMaxPrice() public  returns (uint256){\n        \n        require (BuyList[0].Exists == true, 'BuyList is empty!'); //throws exception if the maxheap (BuyList) is empty\n        return (BuyList[0].Price);\n        \n    }\n//****************   BuyListMaxSender()  *********************//\n    //BuyListMaxSender function returns the sender of the highest priority element (The highest bid)\n    function BuyListMaxSender() public  returns (address){\n        \n        require (BuyList[0].Exists == true, 'BuyList is empty!'); //throws exception if the maxheap (BuyList) is empty\n        return (BuyList[0].Sender);\n        \n    }\n//****************   BuyListisEmpty()  *********************//\n    //checks if the Buylist is empty or not \n    function BuyListisEmpty() public returns (bool){\n        \n        if (BuyList[0].Exists == false)\n        {\n            return true;\n\n        }\n        else\n        {\n            return false;\n        }\n        \n    }\n//*****************************************************************//\n//*******************  minheap Functions (SellList) ****************//\n//*****************************************************************//\n\n//*******************  minheap_insert () ***************************//\n    //the new item will be added to the end of the array list (a sell order is submitted)\n    //then heapified up with a call to heapifyUp method\n    function InsertAsk (address _sender, uint256 _price, uint256 _volume, uint256 _auxprice) public  returns (bool)\n    {\n        OrderStruct memory neworder = OrderStruct(_sender, _price , _volume, true, _auxprice); \n        \n        if (SellList[0].Exists == false)\n        {\n           SellList[0] = neworder;\n           \n        }\n        else\n        {\n            SellIndex ++;\n            SellList[SellIndex] = neworder;\n            minheap_heapifyUp();\n        }\n    \n        return true;\n    }    \n//*******************  minheap_heapifyUp () ***************************//\n    //this function is called everytime we insert a new element to the end of the array (aka a new sell order is submitted) and\n    //now the heap has to be sorted again\n    function minheap_heapifyUp () internal returns (bool) {\n\n        uint256 k = SellIndex ; //k is set to be the last entry of the array(also heap) which is the element that's just added and has to be moved up\n        while (k > 0){                                      //while we havent reached to the top of the heap\n            uint256 p = (k-1)/2;                            //we need to compute the parent of this last element which is p = (k-1)/2\n            if (SellList[k].AuxPrice < SellList[p].AuxPrice) //if the element is greater than its parent\n            { \n            \n                OrderStruct memory temp = SellList[k];    //swap the element at index k with its parent\n                SellList[k] = SellList[p];\n                SellList[p] = temp;\n                \n                k = p; //k moves up one level\n            }\n            else {break;} //if not the break statement exits the loop (it continues until no element index k is not greater than its parent)\n        }\n        \n        return true;\n    }    \n//****************   SellListMaxPrice()  *********************//\n    //SellListMaxPrice function returns the price of the highest priority element (The Lowest ask)\n    function SellListMaxPrice() public  returns (uint256){\n\n        require(SellList[0].Exists == true,'SellList is empty!'); //throws exception if the minheap (SellList) is empty\n        return (SellList[0].Price);\n    }\n//****************   SellListMaxSender()  *********************//\n    //SellListMaxSender function returns the address of the highest priority element (The Lowest ask)\n    function SellListMaxSender() public  returns (address){\n\n        require(SellList[0].Exists == true,'SellList is empty!'); //throws exception if the minheap (SellList) is empty\n        return (SellList[0].Sender);\n    }\n//****************   SellListisEmpty()  *********************//\n    //checks if the SellList is empty or not \n    function SellListisEmpty() public returns (bool){\n        \n        if (SellList[0].Exists == false)\n        {\n            return true;\n\n        }\n        else\n        {\n            return false;\n        }\n        \n    }\n//*******************  SellListMaxDelete () ***************************//\n    //the highest priority item (the lowest ask) will be removed from the list and is returned by the function\n    //then the heap is reordered uising the heapifyDown method\n    function SellListMaxDelete() public returns (uint256, address)\n    {\n        require(SellList[0].Exists != false,'SellList is empty!');            //the delete function throws exception if the list is empty\n        \n        \n        if (SellIndex == 0) \n        {\n            uint256 _price =  SellList[0].Price;\n            address _sender =  SellList[0].Sender;\n            delete SellList[0]; \n            return (_price,_sender);\n        }\n            \n        \n        if (SellIndex == 1) {                               // if the heap has only one item\n   \n            uint256 _price =  SellList[0].Price;\n            address _sender =  SellList[0].Sender;\n            SellList[0] = SellList[1];\n            delete SellList[1];                                   //the only element of the heap is removed and returned  \n            SellIndex --;\n            return (_price,_sender);\n        }\n\n        //if neither of these conditions are true, then there are at least 2 items in the heap and deletion proceeds\n      \n        uint256 _price =  SellList[0].Price;\n        address _sender =  SellList[0].Sender;\n        SellList[0] = SellList[SellIndex];                      //the last elementof the heap is removed and written into the first position\n        delete SellList[SellIndex]; \n        SellIndex--;\n        minheap_heapifyDown();                           //now the heapifyDown is called to restore the ordering of the heap \n        return (_price,_sender);\n    }\n//*******************  minheap_heapifyDown () ***************************//\n    //when we want to remove an element from the heap we remove the root of the heap and add the last item\n    //to the root and reorder the heap again\n    function minheap_heapifyDown () internal returns (bool) {\n        uint256 k =0;\n        uint256 leftchild = 2*k + 1;\n        while (leftchild <= SellIndex ){               //as long as the left child is within the array that heap is stored in\n            uint256 min = leftchild;\n            uint256 rightchild = leftchild + 1;              //rightchild = 2k+2\n\n            if (rightchild < SellIndex )                //if there is a rightchild, then the right child and left child are compared\n            {\n                if (SellList[rightchild].AuxPrice < SellList[leftchild].AuxPrice)\n                {    min++;   }                               //now min is set to rightchild, otherwise min remains to be the leftchild\n            }\n\n            if (SellList[min].AuxPrice < SellList[k].AuxPrice) //compares the k item with the max item and if its less they are swapped\n            {\n                \n                OrderStruct memory temp = SellList[k];    //swap the element at index k with its parent\n                SellList[k] = SellList[min];\n                SellList[min] = temp;\n\n                k = min; //k is set to min\n                leftchild = 2*k + 1; //l is recompuetd in preparation for the next iteration\n            }\n            else{ //if k item's smaller childer is not smaller than k item itself, heapifyDown should stop\n                break;\n            }\n\n        }\n        return true;\n    }\n\n\n\n}",
  "sourcePath": "/home/mahsa/ProjectRepo/2020-Orderbook/Code/New-Truffle/contracts/CallMarket/Priority_Queues/PQ2_Heap_Static_Array.sol",
  "compiler": {
    "name": "solc",
    "version": "0.5.12+commit.7709ece9.Emscripten.clang"
  },
  "schemaVersion": "3.0.2",
  "updatedAt": "2020-09-10T15:44:06.795Z",
  "devdoc": {
    "methods": {}
  },
  "userdoc": {
    "methods": {}
  }
}