{
  "contractName": "PQ3",
  "abi": [
    {
      "constant": true,
      "inputs": [],
      "name": "Key",
      "outputs": [
        {
          "internalType": "uint256",
          "name": "",
          "type": "uint256"
        }
      ],
      "payable": false,
      "stateMutability": "view",
      "type": "function",
      "signature": "0xf39d8c65"
    },
    {
      "constant": true,
      "inputs": [
        {
          "internalType": "uint256",
          "name": "",
          "type": "uint256"
        }
      ],
      "name": "List",
      "outputs": [
        {
          "internalType": "uint256",
          "name": "",
          "type": "uint256"
        }
      ],
      "payable": false,
      "stateMutability": "view",
      "type": "function",
      "signature": "0xdd11eaf2"
    },
    {
      "constant": false,
      "inputs": [
        {
          "internalType": "uint256",
          "name": "_number",
          "type": "uint256"
        }
      ],
      "name": "Enqueue",
      "outputs": [
        {
          "internalType": "bool",
          "name": "",
          "type": "bool"
        }
      ],
      "payable": false,
      "stateMutability": "nonpayable",
      "type": "function",
      "signature": "0x0c4a515c"
    },
    {
      "constant": false,
      "inputs": [],
      "name": "RemoveMax",
      "outputs": [
        {
          "internalType": "uint256",
          "name": "",
          "type": "uint256"
        }
      ],
      "payable": false,
      "stateMutability": "nonpayable",
      "type": "function",
      "signature": "0xb64456a7"
    },
    {
      "constant": false,
      "inputs": [],
      "name": "Dequeue",
      "outputs": [
        {
          "internalType": "uint256",
          "name": "",
          "type": "uint256"
        }
      ],
      "payable": false,
      "stateMutability": "nonpayable",
      "type": "function",
      "signature": "0x27702186"
    },
    {
      "constant": false,
      "inputs": [],
      "name": "Peek",
      "outputs": [
        {
          "internalType": "uint256",
          "name": "",
          "type": "uint256"
        }
      ],
      "payable": false,
      "stateMutability": "nonpayable",
      "type": "function",
      "signature": "0x6dd5fa7b"
    },
    {
      "constant": false,
      "inputs": [],
      "name": "isEmpty",
      "outputs": [
        {
          "internalType": "bool",
          "name": "",
          "type": "bool"
        }
      ],
      "payable": false,
      "stateMutability": "nonpayable",
      "type": "function",
      "signature": "0x681fe70c"
    }
  ],
  "bytecode": "0x608060405234801561001057600080fd5b5061089f806100206000396000f3fe608060405234801561001057600080fd5b506004361061007d5760003560e01c80636dd5fa7b1161005b5780636dd5fa7b146100ee578063b64456a71461010c578063dd11eaf21461012a578063f39d8c651461015a5761007d565b80630c4a515c1461008257806327702186146100b2578063681fe70c146100d0575b600080fd5b61009c60048036036100979190810190610741565b610178565b6040516100a991906107c8565b60405180910390f35b6100ba6101e5565b6040516100c79190610803565b60405180910390f35b6100d861020c565b6040516100e591906107c8565b60405180910390f35b6100f661022c565b6040516101039190610803565b60405180910390f35b6101146102a6565b6040516101219190610803565b60405180910390f35b610144600480360361013f9190810190610741565b610476565b6040516101519190610803565b60405180910390f35b61016261048e565b60405161016f9190610803565b60405180910390f35b600081600080600154815260200190815260200160002081905550600260015490806001815401808255809150509060018203906000526020600020016000909192909190915055506001600081548092919060010191905055506101db610494565b5060019050919050565b60005b600115156101f461020c565b151514610209576102036102a6565b506101e8565b90565b60008060028054905014156102245760019050610229565b600090505b90565b6000806002805490501415610276576040517f08c379a000000000000000000000000000000000000000000000000000000000815260040161026d906107e3565b60405180910390fd5b600080600260008154811061028757fe5b9060005260206000200154815260200190815260200160002054905090565b60008060028054905014156102f0576040517f08c379a00000000000000000000000000000000000000000000000000000000081526004016102e7906107e3565b60405180910390fd5b60016002805490501415610398576000806000600260008154811061031157fe5b90600052602060002001548152602001908152602001600020549050600080600260008154811061033e57fe5b9060005260206000200154815260200190815260200160002060009055600280548061036657fe5b600190038181906000526020600020016000905590556001600081548092919060019003919050555080915050610473565b600080600060026000815481106103ab57fe5b9060005260206000200154815260200190815260200160002054905060008060026000815481106103d857fe5b906000526020600020015481526020019081526020016000206000905560026001600280549050038154811061040a57fe5b9060005260206000200154600260008154811061042357fe5b9060005260206000200181905550600280548061043c57fe5b6001900381819060005260206000200160009055905561045a6105a0565b5060016000815480929190600190039190505550809150505b90565b60006020528060005260406000206000915090505481565b60015481565b60008060016002805490500390505b6000811115610598576000600260018303816104bb57fe5b049050600080600283815481106104ce57fe5b9060005260206000200154815260200190815260200160002054600080600285815481106104f857fe5b9060005260206000200154815260200190815260200160002054111561058c5760006002838154811061052757fe5b906000526020600020015490506002828154811061054157fe5b90600052602060002001546002848154811061055957fe5b9060005260206000200181905550806002838154811061057557fe5b906000526020600020018190555081925050610592565b50610598565b506104a3565b600191505090565b6000806000905060006001826002020190505b600280549050811015610723576000819050600060018301905060028054905081101561063e57600080600285815481106105ea57fe5b90600052602060002001548152602001908152602001600020546000806002848154811061061457fe5b9060005260206000200154815260200190815260200160002054111561063d5781806001019250505b5b6000806002848154811061064e57fe5b90600052602060002001548152602001908152602001600020546000806002878154811061067857fe5b90600052602060002001548152602001908152602001600020541015610715576000600285815481106106a757fe5b90600052602060002001549050600283815481106106c157fe5b9060005260206000200154600286815481106106d957fe5b906000526020600020018190555080600284815481106106f557fe5b90600052602060002001819055508294506001856002020193505061071c565b5050610723565b50506105b3565b60019250505090565b60008135905061073b81610845565b92915050565b60006020828403121561075357600080fd5b60006107618482850161072c565b91505092915050565b6107738161082f565b82525050565b6000610786600e8361081e565b91507f4c69737420697320656d707479210000000000000000000000000000000000006000830152602082019050919050565b6107c28161083b565b82525050565b60006020820190506107dd600083018461076a565b92915050565b600060208201905081810360008301526107fc81610779565b9050919050565b600060208201905061081860008301846107b9565b92915050565b600082825260208201905092915050565b60008115159050919050565b6000819050919050565b61084e8161083b565b811461085957600080fd5b5056fea365627a7a72315820c3a164b0fda0a4200b007a1d7b44de08fd31d3f8668bbebc5873739cb571ea906c6578706572696d656e74616cf564736f6c634300050c0040",
  "source": "pragma solidity >=0.4.22;\npragma experimental ABIEncoderV2;\n\n\n//Mapping and Heap with dynamic array wrapped in a priority queue\n//The code stores integers in the mapping and have keys for them. and stores the keys in the sorted heap that is implemented by dynamic array\n\n\ncontract PQ3{\n\n    mapping(uint256 => uint256) public List;        //mapping that contains the integers and have keys for them. This mapping is not sorted, we store the keys into the heap and sort them there\n    uint256 public Key;\n    uint256[] MaxHeap;\n\n\n//*******************  Enqueue()() ***************************//\n    //the new item will be added to the end of the array list \n    //then heapified up with a call to heapifyUp method\n    function Enqueue(uint256 _number) public returns (bool)\n    {\n        List[Key] = _number;\n        MaxHeap.push(Key);\n        Key++;\n        maxheap_heapifyUp ();\n        return true;\n    }\n\n//*******************  maxheap_heapifyUp () ***************************//\n    //this function is called everytime we insert a new element to the end of the array\n    //now the heap has to be sorted again\n    function maxheap_heapifyUp () internal returns (bool) {\n    \n        uint256 k = MaxHeap.length - 1;                   //k is set to be the last entry of the array (also heap) which is the element that's just added and has to be moved up\n        while (k > 0){                                  //while we havent reached to the top of the heap\n            uint256 p = (k-1)/2;                           //we need to compute the parent of this last element which is p = (k-1)/2\n            if (List[MaxHeap[k]] > List[MaxHeap[p]]) \n            {   \n                uint256 temp = MaxHeap[k];    //swap the element at index k with its parent\n                MaxHeap[k] = MaxHeap[p];\n                MaxHeap[p] = temp;\n                k = p;                                  //k moves up one level\n            }\n            else {break;}                               //if not the break statement exits the loop (it continues until no element index k is not greater than its parent)\n        }\n        return true;\n    }\n//******************** RemoveMax() function ********************//    \n    //the highest priority item will be removed from the list and is returned by the function\n    //then the heap is reordered uising the heapifyDown method\n    function RemoveMax() public returns (uint256)\n    {\n        require (MaxHeap.length != 0, 'List is empty!');                            //the delete function throws exception if the heap is empty\n        \n        \n        if (MaxHeap.length == 1) {                                      //if the heap has only one items\n\n            uint256 _number =  List[MaxHeap[0]];\n            delete List[MaxHeap[0]];\n            MaxHeap.pop();                                                 //the only element of the heap is removed and returned \n            Key--;\n            return (_number);     \n       \n        }\n\n        //if neither of these conditions are true, then there are at least 2 items in the heap and deletion proceeds\n        \n        uint256 _number =  List[MaxHeap[0]];\n        delete List[MaxHeap[0]];\n        MaxHeap[0] = MaxHeap[MaxHeap.length -1]; //the last elementof the heap is removed and written into the first position\n        MaxHeap.pop();\n        maxheap_heapifyDown(); //now the siftdown is called\n        Key--;\n        return (_number);  \n    }\n//******************** Dequeue() function ********************//    \n    //Emptying the list by iterating over it and deleting the highest priority number in each round (similar to match funtion in the call market)\n    function Dequeue() public returns (uint256) \n    {\n        while (isEmpty() != true)\n        {  \n            RemoveMax();\n        }\n    }\n//*******************  maxheap_heapifyDown () ***************************//\n    //when we want to remove an element from the heap we remove the root of the heap and add the last item\n    //to the root and reorder the heap again\n    function maxheap_heapifyDown () internal returns (bool)\n    {\n        uint256 k =0;\n        uint256 leftchild = 2*k + 1;\n        while (leftchild < MaxHeap.length)\n        {                                   //as long as the left child is within the array that heap is stored in\n            uint256 max = leftchild;\n            uint256 rightchild = leftchild + 1;                                     //rightchild = 2k+2\n\n            if (rightchild < MaxHeap.length)                                       //if there is a rightchild\n            {\n                if (List[MaxHeap[rightchild]] > List[MaxHeap[leftchild]])    //then the right child and left child are compared\n                {\n                    max++;                                                       //now max is set to rightchild, otherwise max remains to be the leftchild\n                }\n            }\n\n        if (List[MaxHeap[k]] < List[MaxHeap[max]])                        //compares the k item with the max item and if k is smaller than its greatest children they are swapped\n        {\n            uint256 temp = MaxHeap[k];    //swap the element at index k with its parent\n            MaxHeap[k] = MaxHeap[max];\n            MaxHeap[max] = temp;\n            k = max;                                                         //k is set to max\n            leftchild =2*k + 1;                                              //l is recompuetd in preparation for the next iteration\n        }\n        else{                                                               //if the k item is not smaller than the max item, heapifyDown should stop\n            break;\n            }\n        }\n        return true;\n    }\n//****************   Peek()  *********************//\n    //Retrieves, but does not remove, the head of this queue\n    function Peek() public  returns (uint256){\n        \n        require (MaxHeap.length != 0, 'List is empty!'); //throws exception if the maxheap (BuyList) is empty\n        return (List[MaxHeap[0]]);\n        \n    }\n\n//****************   isEmpty()  *********************//\n    //checks if the List is empty\n    function isEmpty() public returns (bool){\n        \n        if (MaxHeap.length == 0)\n        {\n            return true;\n\n        }\n        else\n        {\n            return false;\n        }\n        \n    }\n\n\n\n}",
  "sourcePath": "/home/mahsa/ProjectRepo/2020-Orderbook/Code/New-Truffle/contracts/PQs_for_Unit_Testings/PQ3.sol",
  "compiler": {
    "name": "solc",
    "version": "0.5.12+commit.7709ece9.Emscripten.clang"
  },
  "schemaVersion": "3.0.2",
  "updatedAt": "2020-09-10T13:48:49.944Z",
  "devdoc": {
    "methods": {}
  },
  "userdoc": {
    "methods": {}
  }
}