{
  "contractName": "PQ3_Heap_Mapping",
  "abi": [
    {
      "constant": true,
      "inputs": [
        {
          "internalType": "uint256",
          "name": "",
          "type": "uint256"
        }
      ],
      "name": "BuyList",
      "outputs": [
        {
          "internalType": "address",
          "name": "Sender",
          "type": "address"
        },
        {
          "internalType": "uint256",
          "name": "Price",
          "type": "uint256"
        },
        {
          "internalType": "uint256",
          "name": "Volume",
          "type": "uint256"
        },
        {
          "internalType": "bool",
          "name": "Exists",
          "type": "bool"
        },
        {
          "internalType": "uint256",
          "name": "AuxPrice",
          "type": "uint256"
        }
      ],
      "payable": false,
      "stateMutability": "view",
      "type": "function"
    },
    {
      "constant": true,
      "inputs": [],
      "name": "BuyListKey",
      "outputs": [
        {
          "internalType": "uint256",
          "name": "",
          "type": "uint256"
        }
      ],
      "payable": false,
      "stateMutability": "view",
      "type": "function"
    },
    {
      "constant": true,
      "inputs": [
        {
          "internalType": "uint256",
          "name": "",
          "type": "uint256"
        }
      ],
      "name": "SellList",
      "outputs": [
        {
          "internalType": "address",
          "name": "Sender",
          "type": "address"
        },
        {
          "internalType": "uint256",
          "name": "Price",
          "type": "uint256"
        },
        {
          "internalType": "uint256",
          "name": "Volume",
          "type": "uint256"
        },
        {
          "internalType": "bool",
          "name": "Exists",
          "type": "bool"
        },
        {
          "internalType": "uint256",
          "name": "AuxPrice",
          "type": "uint256"
        }
      ],
      "payable": false,
      "stateMutability": "view",
      "type": "function"
    },
    {
      "constant": true,
      "inputs": [],
      "name": "SellListKey",
      "outputs": [
        {
          "internalType": "uint256",
          "name": "",
          "type": "uint256"
        }
      ],
      "payable": false,
      "stateMutability": "view",
      "type": "function"
    },
    {
      "constant": false,
      "inputs": [
        {
          "internalType": "address",
          "name": "_sender",
          "type": "address"
        },
        {
          "internalType": "uint256",
          "name": "_price",
          "type": "uint256"
        },
        {
          "internalType": "uint256",
          "name": "_volume",
          "type": "uint256"
        },
        {
          "internalType": "uint256",
          "name": "_auxprice",
          "type": "uint256"
        }
      ],
      "name": "InsertBid",
      "outputs": [
        {
          "internalType": "bool",
          "name": "",
          "type": "bool"
        }
      ],
      "payable": false,
      "stateMutability": "nonpayable",
      "type": "function"
    },
    {
      "constant": false,
      "inputs": [],
      "name": "BuyListMaxDelete",
      "outputs": [
        {
          "internalType": "uint256",
          "name": "",
          "type": "uint256"
        },
        {
          "internalType": "address",
          "name": "",
          "type": "address"
        }
      ],
      "payable": false,
      "stateMutability": "nonpayable",
      "type": "function"
    },
    {
      "constant": false,
      "inputs": [],
      "name": "BuyListMaxPrice",
      "outputs": [
        {
          "internalType": "uint256",
          "name": "",
          "type": "uint256"
        }
      ],
      "payable": false,
      "stateMutability": "nonpayable",
      "type": "function"
    },
    {
      "constant": false,
      "inputs": [],
      "name": "BuyListMaxSender",
      "outputs": [
        {
          "internalType": "address",
          "name": "",
          "type": "address"
        }
      ],
      "payable": false,
      "stateMutability": "nonpayable",
      "type": "function"
    },
    {
      "constant": false,
      "inputs": [],
      "name": "BuyListisEmpty",
      "outputs": [
        {
          "internalType": "bool",
          "name": "",
          "type": "bool"
        }
      ],
      "payable": false,
      "stateMutability": "nonpayable",
      "type": "function"
    },
    {
      "constant": false,
      "inputs": [
        {
          "internalType": "address",
          "name": "_sender",
          "type": "address"
        },
        {
          "internalType": "uint256",
          "name": "_price",
          "type": "uint256"
        },
        {
          "internalType": "uint256",
          "name": "_volume",
          "type": "uint256"
        },
        {
          "internalType": "uint256",
          "name": "_auxprice",
          "type": "uint256"
        }
      ],
      "name": "InsertAsk",
      "outputs": [
        {
          "internalType": "bool",
          "name": "",
          "type": "bool"
        }
      ],
      "payable": false,
      "stateMutability": "nonpayable",
      "type": "function"
    },
    {
      "constant": false,
      "inputs": [],
      "name": "SellListMaxDelete",
      "outputs": [
        {
          "internalType": "uint256",
          "name": "",
          "type": "uint256"
        },
        {
          "internalType": "address",
          "name": "",
          "type": "address"
        }
      ],
      "payable": false,
      "stateMutability": "nonpayable",
      "type": "function"
    },
    {
      "constant": false,
      "inputs": [],
      "name": "SellListMaxPrice",
      "outputs": [
        {
          "internalType": "uint256",
          "name": "",
          "type": "uint256"
        }
      ],
      "payable": false,
      "stateMutability": "nonpayable",
      "type": "function"
    },
    {
      "constant": false,
      "inputs": [],
      "name": "SellListMaxSender",
      "outputs": [
        {
          "internalType": "address",
          "name": "",
          "type": "address"
        }
      ],
      "payable": false,
      "stateMutability": "nonpayable",
      "type": "function"
    },
    {
      "constant": false,
      "inputs": [],
      "name": "SellListisEmpty",
      "outputs": [
        {
          "internalType": "bool",
          "name": "",
          "type": "bool"
        }
      ],
      "payable": false,
      "stateMutability": "nonpayable",
      "type": "function"
    }
  ],
  "bytecode": "0x608060405234801561001057600080fd5b506117df806100206000396000f3fe608060405234801561001057600080fd5b50600436106100ea5760003560e01c80635cbe5bed1161008c578063ccde53ca11610066578063ccde53ca14610249578063d735b05f14610279578063d98ed481146102a9578063f5a57dae146102c7576100ea565b80635cbe5bed146101ef57806364d4497b1461020d578063657ffc3c1461022b576100ea565b80631646e893116100c85780631646e8931461014a5780631eae43811461017e57806339f3b8a3146101b257806349b9d267146101d1576100ea565b806309ab210a146100ef5780630b21881b1461010d578063159916261461012c575b600080fd5b6100f76102e5565b6040516101049190611676565b60405180910390f35b610115610305565b6040516101239291906116ec565b60405180910390f35b610134610634565b60405161014191906116d1565b60405180910390f35b610164600480360361015f9190810190611532565b6106b2565b604051610175959493929190611623565b60405180910390f35b61019860048036036101939190810190611532565b610715565b6040516101a9959493929190611623565b60405180910390f35b6101ba610778565b6040516101c89291906116ec565b60405180910390f35b6101d9610aa1565b6040516101e691906116d1565b60405180910390f35b6101f7610aa7565b60405161020491906116d1565b60405180910390f35b610215610b24565b6040516102229190611608565b60405180910390f35b610233610bc1565b6040516102409190611608565b60405180910390f35b610263600480360361025e91908101906114cf565b610c5f565b6040516102709190611676565b60405180910390f35b610293600480360361028e91908101906114cf565b610d9f565b6040516102a09190611676565b60405180910390f35b6102b1610ede565b6040516102be9190611676565b60405180910390f35b6102cf610efe565b6040516102dc91906116d1565b60405180910390f35b60008060058054905014156102fd5760019050610302565b600090505b90565b60008060006005805490501415610351576040517f08c379a000000000000000000000000000000000000000000000000000000000815260040161034890611691565b60405180910390fd5b600160058054905014156104a757600060016000600560008154811061037357fe5b9060005260206000200154815260200190815260200160002060010154905060006001600060056000815481106103a657fe5b9060005260206000200154815260200190815260200160002060000160009054906101000a900473ffffffffffffffffffffffffffffffffffffffff1690506001600060056000815481106103f757fe5b90600052602060002001548152602001908152602001600020600080820160006101000a81549073ffffffffffffffffffffffffffffffffffffffff0219169055600182016000905560028201600090556003820160006101000a81549060ff021916905560048201600090555050600580548061047157fe5b60019003818190600052602060002001600090559055600360008154809291906001900391905055508181935093505050610630565b60006001600060056000815481106104bb57fe5b9060005260206000200154815260200190815260200160002060010154905060006001600060056000815481106104ee57fe5b9060005260206000200154815260200190815260200160002060000160009054906101000a900473ffffffffffffffffffffffffffffffffffffffff16905060016000600560008154811061053f57fe5b90600052602060002001548152602001908152602001600020600080820160006101000a81549073ffffffffffffffffffffffffffffffffffffffff0219169055600182016000905560028201600090556003820160006101000a81549060ff0219169055600482016000905550506005600160058054905003815481106105c357fe5b906000526020600020015460056000815481106105dc57fe5b906000526020600020018190555060058054806105f557fe5b60019003818190600052602060002001600090559055610613610f04565b506003600081548092919060019003919050555081819350935050505b9091565b600080600580549050141561067e576040517f08c379a0000000000000000000000000000000000000000000000000000000008152600401610675906116b1565b60405180910390fd5b60016000600560008154811061069057fe5b9060005260206000200154815260200190815260200160002060010154905090565b60016020528060005260406000206000915090508060000160009054906101000a900473ffffffffffffffffffffffffffffffffffffffff16908060010154908060020154908060030160009054906101000a900460ff16908060040154905085565b60006020528060005260406000206000915090508060000160009054906101000a900473ffffffffffffffffffffffffffffffffffffffff16908060010154908060020154908060030160009054906101000a900460ff16908060040154905085565b600080600060048054905014156107c4576040517f08c379a00000000000000000000000000000000000000000000000000000000081526004016107bb90611691565b60405180910390fd5b6001600480549050141561091757600080600060046000815481106107e557fe5b906000526020600020015481526020019081526020016000206001015490506000806000600460008154811061081757fe5b9060005260206000200154815260200190815260200160002060000160009054906101000a900473ffffffffffffffffffffffffffffffffffffffff169050600080600460008154811061086757fe5b90600052602060002001548152602001908152602001600020600080820160006101000a81549073ffffffffffffffffffffffffffffffffffffffff0219169055600182016000905560028201600090556003820160006101000a81549060ff02191690556004820160009055505060048054806108e157fe5b60019003818190600052602060002001600090559055600260008154809291906001900391905055508181935093505050610a9d565b6000806000600460008154811061092a57fe5b906000526020600020015481526020019081526020016000206001015490506000806000600460008154811061095c57fe5b9060005260206000200154815260200190815260200160002060000160009054906101000a900473ffffffffffffffffffffffffffffffffffffffff16905060008060046000815481106109ac57fe5b90600052602060002001548152602001908152602001600020600080820160006101000a81549073ffffffffffffffffffffffffffffffffffffffff0219169055600182016000905560028201600090556003820160006101000a81549060ff021916905560048201600090555050600460016004805490500381548110610a3057fe5b90600052602060002001546004600081548110610a4957fe5b90600052602060002001819055506004805480610a6257fe5b60019003818190600052602060002001600090559055610a806110a0565b506002600081548092919060019003919050555081819350935050505b9091565b60025481565b6000806004805490501415610af1576040517f08c379a0000000000000000000000000000000000000000000000000000000008152600401610ae890611691565b60405180910390fd5b6000806004600081548110610b0257fe5b9060005260206000200154815260200190815260200160002060010154905090565b6000806004805490501415610b6e576040517f08c379a0000000000000000000000000000000000000000000000000000000008152600401610b6590611691565b60405180910390fd5b6000806004600081548110610b7f57fe5b9060005260206000200154815260200190815260200160002060000160009054906101000a900473ffffffffffffffffffffffffffffffffffffffff16905090565b6000806005805490501415610c0b576040517f08c379a0000000000000000000000000000000000000000000000000000000008152600401610c02906116b1565b60405180910390fd5b600160006005600081548110610c1d57fe5b9060005260206000200154815260200190815260200160002060000160009054906101000a900473ffffffffffffffffffffffffffffffffffffffff16905090565b6000610c6961145e565b6040518060a001604052803373ffffffffffffffffffffffffffffffffffffffff1681526020018681526020018581526020016001151581526020018481525090508060016000600354815260200190815260200160002060008201518160000160006101000a81548173ffffffffffffffffffffffffffffffffffffffff021916908373ffffffffffffffffffffffffffffffffffffffff160217905550602082015181600101556040820151816002015560608201518160030160006101000a81548160ff0219169083151502179055506080820151816004015590505060056003549080600181540180825580915050906001820390600052602060002001600090919290919091505550600360008154809291906001019190505550610d91611238565b506001915050949350505050565b6000610da961145e565b6040518060a001604052803373ffffffffffffffffffffffffffffffffffffffff16815260200186815260200185815260200160011515815260200184815250905080600080600254815260200190815260200160002060008201518160000160006101000a81548173ffffffffffffffffffffffffffffffffffffffff021916908373ffffffffffffffffffffffffffffffffffffffff160217905550602082015181600101556040820151816002015560608201518160030160006101000a81548160ff0219169083151502179055506080820151816004015590505060046002549080600181540180825580915050906001820390600052602060002001600090919290919091505550600260008154809291906001019190505550610ed061134c565b506001915050949350505050565b6000806004805490501415610ef65760019050610efb565b600090505b90565b60035481565b6000806000905060006001826002020190505b6005805490508110156110975760008190506000600183019050600580549050811015610faa576001600060058581548110610f4f57fe5b90600052602060002001548152602001908152602001600020600401546001600060058481548110610f7d57fe5b90600052602060002001548152602001908152602001600020600401541015610fa95781806001019250505b5b6001600060058681548110610fbb57fe5b90600052602060002001548152602001908152602001600020600401546001600060058581548110610fe957fe5b906000526020600020015481526020019081526020016000206004015410156110895760006005858154811061101b57fe5b906000526020600020015490506005838154811061103557fe5b90600052602060002001546005868154811061104d57fe5b9060005260206000200181905550806005848154811061106957fe5b906000526020600020018190555082945060018560020201935050611090565b5050611097565b5050610f17565b60019250505090565b6000806000905060006001826002020190505b60048054905081101561122f576000819050600060018301905060048054905081101561114457600080600485815481106110ea57fe5b90600052602060002001548152602001908152602001600020600401546000806004848154811061111757fe5b906000526020600020015481526020019081526020016000206004015411156111435781806001019250505b5b6000806004848154811061115457fe5b90600052602060002001548152602001908152602001600020600401546000806004878154811061118157fe5b90600052602060002001548152602001908152602001600020600401541015611221576000600485815481106111b357fe5b90600052602060002001549050600483815481106111cd57fe5b9060005260206000200154600486815481106111e557fe5b9060005260206000200181905550806004848154811061120157fe5b906000526020600020018190555082945060018560020201935050611228565b505061122f565b50506110b3565b60019250505090565b60008060016005805490500390505b60008111156113445760006002600183038161125f57fe5b049050600160006005838154811061127357fe5b906000526020600020015481526020019081526020016000206004015460016000600585815481106112a157fe5b90600052602060002001548152602001908152602001600020600401541015611338576000600583815481106112d357fe5b90600052602060002001549050600582815481106112ed57fe5b90600052602060002001546005848154811061130557fe5b9060005260206000200181905550806005838154811061132157fe5b90600052602060002001819055508192505061133e565b50611344565b50611247565b600191505090565b60008060016004805490500390505b60008111156114565760006002600183038161137357fe5b0490506000806004838154811061138657fe5b9060005260206000200154815260200190815260200160002060040154600080600485815481106113b357fe5b9060005260206000200154815260200190815260200160002060040154111561144a576000600483815481106113e557fe5b90600052602060002001549050600482815481106113ff57fe5b90600052602060002001546004848154811061141757fe5b9060005260206000200181905550806004838154811061143357fe5b906000526020600020018190555081925050611450565b50611456565b5061135b565b600191505090565b6040518060a00160405280600073ffffffffffffffffffffffffffffffffffffffff1681526020016000815260200160008152602001600015158152602001600081525090565b6000813590506114b48161176e565b92915050565b6000813590506114c981611785565b92915050565b600080600080608085870312156114e557600080fd5b60006114f3878288016114a5565b9450506020611504878288016114ba565b9350506040611515878288016114ba565b9250506060611526878288016114ba565b91505092959194509250565b60006020828403121561154457600080fd5b6000611552848285016114ba565b91505092915050565b61156481611726565b82525050565b61157381611738565b82525050565b6000611586601183611715565b91507f4275794c69737420697320656d707479210000000000000000000000000000006000830152602082019050919050565b60006115c6601283611715565b91507f53656c6c4c69737420697320656d7074792100000000000000000000000000006000830152602082019050919050565b61160281611764565b82525050565b600060208201905061161d600083018461155b565b92915050565b600060a082019050611638600083018861155b565b61164560208301876115f9565b61165260408301866115f9565b61165f606083018561156a565b61166c60808301846115f9565b9695505050505050565b600060208201905061168b600083018461156a565b92915050565b600060208201905081810360008301526116aa81611579565b9050919050565b600060208201905081810360008301526116ca816115b9565b9050919050565b60006020820190506116e660008301846115f9565b92915050565b600060408201905061170160008301856115f9565b61170e602083018461155b565b9392505050565b600082825260208201905092915050565b600061173182611744565b9050919050565b60008115159050919050565b600073ffffffffffffffffffffffffffffffffffffffff82169050919050565b6000819050919050565b61177781611726565b811461178257600080fd5b50565b61178e81611764565b811461179957600080fd5b5056fea365627a7a72315820a1209a0f7b2b4dedb0b211728de3c7241f603d35101768efd303bc94fafd262f6c6578706572696d656e74616cf564736f6c634300050c0040",
  "source": "//pragma solidity >=0.4.22;\npragma solidity 0.5.12;\n\npragma experimental ABIEncoderV2;\n\n\n//Mapping and Heap with dynamic array wrapped in a priority queue\n//The code stores orderstructs in the mapping and have keys for them. and stores the keys in the sorted heap that is implemented by dynamic array\n\n\ncontract PQ3_Heap_Mapping{\n\n    //Every order has some attributes:\n    struct OrderStruct \n    {\n        address Sender;\n        uint256 Price;  \n        uint256 Volume;     //The volume is 1 for now\n        bool Exists;\n        uint256 AuxPrice; //This is not the real price of the order, it's the contcantenation of the real price and the counter which helps to sort the heap wehen there are ties\n    }\n\n\n    mapping(uint256 => OrderStruct) public BuyList;   //mapping that contains the buy orders and have keys for them. This mapping is not sorted, we store the keys into the heap and sort them there\n    mapping(uint256 => OrderStruct) public SellList;  //same as above but for sell orders\n    uint256 public BuyListKey;\n    uint256 public SellListKey;\n\n    uint256[] internal BuyListHeap;\n    uint256[] internal SellListHeap;\n\n//*****************************************************************//\n//*******************  maxheap Functions (BuyList) ****************//\n//*****************************************************************//    \n\n//*******************  InsertBid() ***************************//\n    //the new item will be added to the end of the array list (a buy order is submitted)\n    //then heapified up with a call to heapifyUp method\n    function InsertBid (address _sender, uint256 _price, uint256 _volume, uint256 _auxprice) public returns (bool)\n    {\n        OrderStruct memory neworder = OrderStruct(msg.sender, _price, _volume, true, _auxprice);\n        BuyList[BuyListKey] = neworder;\n        BuyListHeap.push(BuyListKey);\n        BuyListKey++;\n        maxheap_heapifyUp ();\n        return true;\n    }\n\n//*******************  maxheap_heapifyUp () ***************************//\n    //this function is called everytime we insert a new element to the end of the array (aka a new Buy order is submitted) and\n    //now the heap has to be sorted again\n    function maxheap_heapifyUp () internal returns (bool) {\n    \n        uint256 k = BuyListHeap.length - 1;                   //k is set to be the last entry of the array (also heap) which is the element that's just added and has to be moved up\n        while (k > 0){                                  //while we havent reached to the top of the heap\n            uint256 p = (k-1)/2;                           //we need to compute the parent of this last element which is p = (k-1)/2\n            if (BuyList[BuyListHeap[k]].AuxPrice > BuyList[BuyListHeap[p]].AuxPrice) \n            {   \n                uint256 temp = BuyListHeap[k];    //swap the element at index k with its parent\n                BuyListHeap[k] = BuyListHeap[p];\n                BuyListHeap[p] = temp;\n                k = p;                                  //k moves up one level\n            }\n            else {break;}                               //if not the break statement exits the loop (it continues until no element index k is not greater than its parent)\n        }\n        return true;\n    }\n//******************** BuyListMaxDelete() function ********************//    \n    //the highest priority item will be removed from the list and is returned by the function\n    //then the heap is reordered uising the heapifyDown method\n    function BuyListMaxDelete() public returns (uint256, address)\n    {\n        require (BuyListHeap.length != 0, 'BuyList is empty!');                            //the delete function throws exception if the heap is empty\n        \n        \n        if (BuyListHeap.length == 1) {                                      //if the heap has only one items\n\n            uint256 _price =  BuyList[BuyListHeap[0]].Price;\n            address _sender =  BuyList[BuyListHeap[0]].Sender;\n            delete BuyList[BuyListHeap[0]];\n            BuyListHeap.pop();                                                 //the only element of the heap is removed and returned \n            BuyListKey--;\n            return (_price, _sender);     \n       \n        }\n\n        //if neither of these conditions are true, then there are at least 2 items in the heap and deletion proceeds\n        \n        uint256 _price =  BuyList[BuyListHeap[0]].Price;\n        address _sender =  BuyList[BuyListHeap[0]].Sender;\n        delete BuyList[BuyListHeap[0]];\n        BuyListHeap[0] = BuyListHeap[BuyListHeap.length -1]; //the last elementof the heap is removed and written into the first position\n        BuyListHeap.pop();\n        maxheap_heapifyDown(); //now the siftdown is called\n        BuyListKey--;\n        return (_price, _sender);  \n    }\n//*******************  maxheap_heapifyDown () ***************************//\n    //when we want to remove an element from the heap we remove the root of the heap and add the last item\n    //to the root and reorder the heap again\n    function maxheap_heapifyDown () internal returns (bool)\n    {\n        uint256 k =0;\n        uint256 leftchild = 2*k + 1;\n        while (leftchild < BuyListHeap.length)\n        {                                   //as long as the left child is within the array that heap is stored in\n            uint256 max = leftchild;\n            uint256 rightchild = leftchild + 1;                                     //rightchild = 2k+2\n\n            if (rightchild < BuyListHeap.length)                                       //if there is a rightchild\n            {\n                if (BuyList[BuyListHeap[rightchild]].AuxPrice > BuyList[BuyListHeap[leftchild]].AuxPrice)    //then the right child and left child are compared\n                {\n                    max++;                                                       //now max is set to rightchild, otherwise max remains to be the leftchild\n                }\n            }\n\n        if (BuyList[BuyListHeap[k]].AuxPrice < BuyList[BuyListHeap[max]].AuxPrice)                        //compares the k item with the max item and if k is smaller than its greatest children they are swapped\n        {\n            uint256 temp = BuyListHeap[k];    //swap the element at index k with its parent\n            BuyListHeap[k] = BuyListHeap[max];\n            BuyListHeap[max] = temp;\n            k = max;                                                         //k is set to max\n            leftchild =2*k + 1;                                              //l is recompuetd in preparation for the next iteration\n        }\n        else{                                                               //if the k item is not smaller than the max item, heapifyDown should stop\n            break;\n            }\n        }\n        return true;\n    }\n//****************   BuyListMaxPrice()  *********************//\n    //BuyListpeak function returns the price of the highest priority element (The highest bid)\n    function BuyListMaxPrice() public  returns (uint256){\n        \n        require (BuyListHeap.length != 0, 'BuyList is empty!'); //throws exception if the maxheap (BuyList) is empty\n        return (BuyList[BuyListHeap[0]].Price);\n        \n    }\n//****************   BuyListMaxSender()  *********************//\n    //BuyListpeak function returns the sender of the highest priority element (The highest bid)\n    function BuyListMaxSender() public  returns (address){\n        \n        require (BuyListHeap.length != 0, 'BuyList is empty!'); //throws exception if the maxheap (BuyList) is empty\n        return (BuyList[BuyListHeap[0]].Sender);\n        \n    }\n//****************   BuyListisEmpty()  *********************//\n    //checks if the BuyList is empty\n    function BuyListisEmpty() public returns (bool){\n        \n        if (BuyListHeap.length == 0)\n        {\n            return true;\n\n        }\n        else\n        {\n            return false;\n        }\n        \n    }\n//*****************************************************************//\n//*******************  minheap Functions (SellList) ****************//\n//*****************************************************************//\n\n//*******************  InsertAsk() ***************************//\n    //the new item will be added to the end of the array list (a sell order is submitted)\n    //then heapified up with a call to heapifyUp method\n    function InsertAsk (address _sender, uint256 _price, uint256 _volume, uint256 _auxprice) public  returns (bool)\n    {\n        OrderStruct memory neworder = OrderStruct(msg.sender, _price, _volume, true, _auxprice);\n        SellList[SellListKey] = neworder;\n        SellListHeap.push(SellListKey);\n        SellListKey++;\n        minheap_heapifyUp();\n        return true;\n    }    \n//*******************  minheap_heapifyUp () ***************************//\n    //this function is called everytime we insert a new element to the end of the array (aka a new sell order is submitted) and\n    //now the heap has to be sorted again\n    function minheap_heapifyUp () internal returns (bool) {\n\n        uint256 k = SellListHeap.length - 1; //k is set to be the last entry of the array(also heap) which is the element that's just added and has to be moved up\n        while (k > 0){                                      //while we havent reached to the top of the heap\n            uint256 p = (k-1)/2;                            //we need to compute the parent of this last element which is p = (k-1)/2\n            if (SellList[SellListHeap[k]].AuxPrice < SellList[SellListHeap[p]].AuxPrice) //if the element is greater than its parent\n            { \n            \n                uint256 temp = SellListHeap[k];    //swap the element at index k with its parent\n                SellListHeap[k] = SellListHeap[p];\n                SellListHeap[p] = temp;\n                \n                k = p; //k moves up one level\n            }\n            else {break;} //if not the break statement exits the loop (it continues until no element index k is not greater than its parent)\n        }\n        \n        return true;\n    }\n//*******************  SellListMaxDelete () ***************************//\n    //the highest priority item (the smallest ask) will be removed from the list and is returned by the function\n    //then the heap is reordered uising the heapifyDown method\n    function SellListMaxDelete() public returns (uint256, address)\n    {\n        require (SellListHeap.length != 0, 'BuyList is empty!');                      //the delete function throws exception if the heap is empty\n        \n        \n        if (SellListHeap.length == 1) {                               // if the heap has only one item\n            \n            uint256 _price =  SellList[SellListHeap[0]].Price;\n            address _sender =  SellList[SellListHeap[0]].Sender;\n            delete SellList[SellListHeap[0]];\n            SellListHeap.pop();                                   //the only element of the heap is removed and returned  \n            SellListKey --;\n            return (_price, _sender);\n        }\n\n        //if neither of these conditions are true, then there are at least 2 items in the heap and deletion proceeds\n      \n        uint256 _price =  SellList[SellListHeap[0]].Price;\n        address _sender =  SellList[SellListHeap[0]].Sender;\n        delete SellList[SellListHeap[0]];\n        SellListHeap[0] = SellListHeap[SellListHeap.length -1];                      //the last elementof the heap is removed and written into the first position\n        SellListHeap.pop(); \n        minheap_heapifyDown();                           //now the heapifyDown is called to restore the ordering of the heap \n        SellListKey --;\n        return (_price, _sender);    \n    }\n//*******************  minheap_heapifyDown () ***************************//\n    //when we want to remove an element from the heap we remove the root of the heap and add the last item\n    //to the root and reorder the heap again\n    function minheap_heapifyDown () internal  returns (bool) {\n        uint256 k =0;\n        uint256 leftchild = 2*k + 1;\n        while (leftchild < SellListHeap.length){               //as long as the left child is within the array that heap is stored in\n            uint256 min = leftchild;\n            uint256 rightchild = leftchild + 1;              //rightchild = 2k+2\n\n            if (rightchild < SellListHeap.length)                //if there is a rightchild, then the right child and left child are compared\n            {\n                if (SellList[SellListHeap[rightchild]].AuxPrice < SellList[SellListHeap[leftchild]].AuxPrice)\n                {    min++;   }                               //now min is set to rightchild, otherwise min remains to be the leftchild\n            }\n\n            if (SellList[SellListHeap[min]].AuxPrice < SellList[SellListHeap[k]].AuxPrice) //compares the k item with the max item and if its less they are swapped\n            {\n                \n                uint256 temp = SellListHeap[k];    //swap the element at index k with its parent\n                SellListHeap[k] = SellListHeap[min];\n                SellListHeap[min] = temp;\n\n                k = min; //k is set to min\n                leftchild = 2*k + 1; //l is recompuetd in preparation for the next iteration\n            }\n            else{ //if k item's smaller childer is not smaller than k item itself, heapifyDown should stop\n                break;\n            }\n\n        }\n        return true;\n    }\n//****************   SellListMaxPrice()  *********************//\n    //SellListpeak function returns the price of the highest priority element (The Lowest ask)\n    function SellListMaxPrice() public  returns (uint256){\n        \n        require (SellListHeap.length != 0, 'SellList is empty!'); //throws exception if the minheap (SellList) is empty\n        return (SellList[SellListHeap[0]].Price);\n    }\n//****************   SellListMaxSender()  *********************//\n    //SellListpeak function returns the sender of the highest priority element (The Lowest ask)\n    function SellListMaxSender() public  returns (address){\n        \n        require (SellListHeap.length != 0, 'SellList is empty!'); //throws exception if the minheap (SellList) is empty\n        return (SellList[SellListHeap[0]].Sender);\n    }\n//****************   SellListisEmpty()  *********************//\n    //checks if the SellList is empty\n    function SellListisEmpty() public returns (bool){\n        \n        if (SellListHeap.length == 0)\n        {\n            return true;\n\n        }\n        else\n        {\n            return false;\n        }\n        \n    }\n\n\n\n\n}",
  "sourcePath": "/home/mahsa/ProjectRepo/2020-Orderbook/Code/New-Truffle/contracts/CallMarket/Priority_Queues/PQ3_Heap_Mapping.sol",
  "compiler": {
    "name": "solc",
    "version": "0.5.12+commit.7709ece9.Emscripten.clang"
  },
  "schemaVersion": "3.0.2",
  "updatedAt": "2020-09-10T15:44:06.760Z",
  "devdoc": {
    "methods": {}
  },
  "userdoc": {
    "methods": {}
  }
}