{
  "contractName": "PQ3_Heap_Mapping",
  "abi": [
    {
      "constant": true,
      "inputs": [
        {
          "internalType": "uint256",
          "name": "",
          "type": "uint256"
        }
      ],
      "name": "BuyList",
      "outputs": [
        {
          "internalType": "address",
          "name": "Sender",
          "type": "address"
        },
        {
          "internalType": "uint256",
          "name": "Price",
          "type": "uint256"
        },
        {
          "internalType": "uint256",
          "name": "Volume",
          "type": "uint256"
        },
        {
          "internalType": "bool",
          "name": "Exists",
          "type": "bool"
        },
        {
          "internalType": "uint256",
          "name": "AuxPrice",
          "type": "uint256"
        }
      ],
      "payable": false,
      "stateMutability": "view",
      "type": "function"
    },
    {
      "constant": true,
      "inputs": [],
      "name": "BuyListKey",
      "outputs": [
        {
          "internalType": "uint256",
          "name": "",
          "type": "uint256"
        }
      ],
      "payable": false,
      "stateMutability": "view",
      "type": "function"
    },
    {
      "constant": true,
      "inputs": [
        {
          "internalType": "uint256",
          "name": "",
          "type": "uint256"
        }
      ],
      "name": "SellList",
      "outputs": [
        {
          "internalType": "address",
          "name": "Sender",
          "type": "address"
        },
        {
          "internalType": "uint256",
          "name": "Price",
          "type": "uint256"
        },
        {
          "internalType": "uint256",
          "name": "Volume",
          "type": "uint256"
        },
        {
          "internalType": "bool",
          "name": "Exists",
          "type": "bool"
        },
        {
          "internalType": "uint256",
          "name": "AuxPrice",
          "type": "uint256"
        }
      ],
      "payable": false,
      "stateMutability": "view",
      "type": "function"
    },
    {
      "constant": true,
      "inputs": [],
      "name": "SellListKey",
      "outputs": [
        {
          "internalType": "uint256",
          "name": "",
          "type": "uint256"
        }
      ],
      "payable": false,
      "stateMutability": "view",
      "type": "function"
    },
    {
      "constant": false,
      "inputs": [
        {
          "internalType": "address",
          "name": "_sender",
          "type": "address"
        },
        {
          "internalType": "uint256",
          "name": "_price",
          "type": "uint256"
        },
        {
          "internalType": "uint256",
          "name": "_volume",
          "type": "uint256"
        },
        {
          "internalType": "uint256",
          "name": "_auxprice",
          "type": "uint256"
        }
      ],
      "name": "InsertBid",
      "outputs": [
        {
          "internalType": "bool",
          "name": "",
          "type": "bool"
        }
      ],
      "payable": false,
      "stateMutability": "nonpayable",
      "type": "function"
    },
    {
      "constant": false,
      "inputs": [],
      "name": "BuyListMaxDelete",
      "outputs": [
        {
          "internalType": "uint256",
          "name": "",
          "type": "uint256"
        },
        {
          "internalType": "address",
          "name": "",
          "type": "address"
        }
      ],
      "payable": false,
      "stateMutability": "nonpayable",
      "type": "function"
    },
    {
      "constant": false,
      "inputs": [],
      "name": "BuyListMaxPrice",
      "outputs": [
        {
          "internalType": "uint256",
          "name": "",
          "type": "uint256"
        }
      ],
      "payable": false,
      "stateMutability": "nonpayable",
      "type": "function"
    },
    {
      "constant": false,
      "inputs": [],
      "name": "BuyListMaxSender",
      "outputs": [
        {
          "internalType": "address",
          "name": "",
          "type": "address"
        }
      ],
      "payable": false,
      "stateMutability": "nonpayable",
      "type": "function"
    },
    {
      "constant": false,
      "inputs": [],
      "name": "BuyListisEmpty",
      "outputs": [
        {
          "internalType": "bool",
          "name": "",
          "type": "bool"
        }
      ],
      "payable": false,
      "stateMutability": "nonpayable",
      "type": "function"
    },
    {
      "constant": false,
      "inputs": [
        {
          "internalType": "address",
          "name": "_sender",
          "type": "address"
        },
        {
          "internalType": "uint256",
          "name": "_price",
          "type": "uint256"
        },
        {
          "internalType": "uint256",
          "name": "_volume",
          "type": "uint256"
        },
        {
          "internalType": "uint256",
          "name": "_auxprice",
          "type": "uint256"
        }
      ],
      "name": "InsertAsk",
      "outputs": [
        {
          "internalType": "bool",
          "name": "",
          "type": "bool"
        }
      ],
      "payable": false,
      "stateMutability": "nonpayable",
      "type": "function"
    },
    {
      "constant": false,
      "inputs": [],
      "name": "SellListMaxDelete",
      "outputs": [
        {
          "internalType": "uint256",
          "name": "",
          "type": "uint256"
        },
        {
          "internalType": "address",
          "name": "",
          "type": "address"
        }
      ],
      "payable": false,
      "stateMutability": "nonpayable",
      "type": "function"
    },
    {
      "constant": false,
      "inputs": [],
      "name": "SellListMaxPrice",
      "outputs": [
        {
          "internalType": "uint256",
          "name": "",
          "type": "uint256"
        }
      ],
      "payable": false,
      "stateMutability": "nonpayable",
      "type": "function"
    },
    {
      "constant": false,
      "inputs": [],
      "name": "SellListMaxSender",
      "outputs": [
        {
          "internalType": "address",
          "name": "",
          "type": "address"
        }
      ],
      "payable": false,
      "stateMutability": "nonpayable",
      "type": "function"
    },
    {
      "constant": false,
      "inputs": [],
      "name": "SellListisEmpty",
      "outputs": [
        {
          "internalType": "bool",
          "name": "",
          "type": "bool"
        }
      ],
      "payable": false,
      "stateMutability": "nonpayable",
      "type": "function"
    }
  ],
  "bytecode": "0x608060405234801561001057600080fd5b506115dd806100206000396000f3fe608060405234801561001057600080fd5b50600436106100ea5760003560e01c80635cbe5bed1161008c578063ccde53ca11610066578063ccde53ca14610249578063d735b05f14610279578063d98ed481146102a9578063f5a57dae146102c7576100ea565b80635cbe5bed146101ef57806364d4497b1461020d578063657ffc3c1461022b576100ea565b80631646e893116100c85780631646e8931461014a5780631eae43811461017e57806339f3b8a3146101b257806349b9d267146101d1576100ea565b806309ab210a146100ef5780630b21881b1461010d578063159916261461012c575b600080fd5b6100f76102e5565b6040516101049190611474565b60405180910390f35b610115610305565b6040516101239291906114ea565b60405180910390f35b610134610532565b60405161014191906114cf565b60405180910390f35b610164600480360361015f9190810190611330565b6105b0565b604051610175959493929190611421565b60405180910390f35b61019860048036036101939190810190611330565b610613565b6040516101a9959493929190611421565b60405180910390f35b6101ba610676565b6040516101c89291906114ea565b60405180910390f35b6101d961089f565b6040516101e691906114cf565b60405180910390f35b6101f76108a5565b60405161020491906114cf565b60405180910390f35b610215610922565b6040516102229190611406565b60405180910390f35b6102336109bf565b6040516102409190611406565b60405180910390f35b610263600480360361025e91908101906112cd565b610a5d565b6040516102709190611474565b60405180910390f35b610293600480360361028e91908101906112cd565b610b9d565b6040516102a09190611474565b60405180910390f35b6102b1610cdc565b6040516102be9190611474565b60405180910390f35b6102cf610cfc565b6040516102dc91906114cf565b60405180910390f35b60008060058054905014156102fd5760019050610302565b600090505b90565b60008060006005805490501415610351576040517f08c379a00000000000000000000000000000000000000000000000000000000081526004016103489061148f565b60405180910390fd5b6001600580549050141561042657600060016000600560008154811061037357fe5b9060005260206000200154815260200190815260200160002060010154905060006001600060056000815481106103a657fe5b9060005260206000200154815260200190815260200160002060000160009054906101000a900473ffffffffffffffffffffffffffffffffffffffff16905060058054806103f057fe5b6001900381819060005260206000200160009055905560036000815480929190600190039190505550818193509350505061052e565b600060016000600560008154811061043a57fe5b90600052602060002001548152602001908152602001600020600101549050600060016000600560008154811061046d57fe5b9060005260206000200154815260200190815260200160002060000160009054906101000a900473ffffffffffffffffffffffffffffffffffffffff1690506005600160058054905003815481106104c157fe5b906000526020600020015460056000815481106104da57fe5b906000526020600020018190555060058054806104f357fe5b60019003818190600052602060002001600090559055610511610d02565b506003600081548092919060019003919050555081819350935050505b9091565b600080600580549050141561057c576040517f08c379a0000000000000000000000000000000000000000000000000000000008152600401610573906114af565b60405180910390fd5b60016000600560008154811061058e57fe5b9060005260206000200154815260200190815260200160002060010154905090565b60016020528060005260406000206000915090508060000160009054906101000a900473ffffffffffffffffffffffffffffffffffffffff16908060010154908060020154908060030160009054906101000a900460ff16908060040154905085565b60006020528060005260406000206000915090508060000160009054906101000a900473ffffffffffffffffffffffffffffffffffffffff16908060010154908060020154908060030160009054906101000a900460ff16908060040154905085565b600080600060048054905014156106c2576040517f08c379a00000000000000000000000000000000000000000000000000000000081526004016106b99061148f565b60405180910390fd5b6001600480549050141561079557600080600060046000815481106106e357fe5b906000526020600020015481526020019081526020016000206001015490506000806000600460008154811061071557fe5b9060005260206000200154815260200190815260200160002060000160009054906101000a900473ffffffffffffffffffffffffffffffffffffffff169050600480548061075f57fe5b6001900381819060005260206000200160009055905560026000815480929190600190039190505550818193509350505061089b565b600080600060046000815481106107a857fe5b90600052602060002001548152602001908152602001600020600101549050600080600060046000815481106107da57fe5b9060005260206000200154815260200190815260200160002060000160009054906101000a900473ffffffffffffffffffffffffffffffffffffffff16905060046001600480549050038154811061082e57fe5b9060005260206000200154600460008154811061084757fe5b9060005260206000200181905550600480548061086057fe5b6001900381819060005260206000200160009055905561087e610e9e565b506002600081548092919060019003919050555081819350935050505b9091565b60025481565b60008060048054905014156108ef576040517f08c379a00000000000000000000000000000000000000000000000000000000081526004016108e69061148f565b60405180910390fd5b600080600460008154811061090057fe5b9060005260206000200154815260200190815260200160002060010154905090565b600080600480549050141561096c576040517f08c379a00000000000000000000000000000000000000000000000000000000081526004016109639061148f565b60405180910390fd5b600080600460008154811061097d57fe5b9060005260206000200154815260200190815260200160002060000160009054906101000a900473ffffffffffffffffffffffffffffffffffffffff16905090565b6000806005805490501415610a09576040517f08c379a0000000000000000000000000000000000000000000000000000000008152600401610a00906114af565b60405180910390fd5b600160006005600081548110610a1b57fe5b9060005260206000200154815260200190815260200160002060000160009054906101000a900473ffffffffffffffffffffffffffffffffffffffff16905090565b6000610a6761125c565b6040518060a001604052803373ffffffffffffffffffffffffffffffffffffffff1681526020018681526020018581526020016001151581526020018481525090508060016000600354815260200190815260200160002060008201518160000160006101000a81548173ffffffffffffffffffffffffffffffffffffffff021916908373ffffffffffffffffffffffffffffffffffffffff160217905550602082015181600101556040820151816002015560608201518160030160006101000a81548160ff0219169083151502179055506080820151816004015590505060056003549080600181540180825580915050906001820390600052602060002001600090919290919091505550600360008154809291906001019190505550610b8f611036565b506001915050949350505050565b6000610ba761125c565b6040518060a001604052803373ffffffffffffffffffffffffffffffffffffffff16815260200186815260200185815260200160011515815260200184815250905080600080600254815260200190815260200160002060008201518160000160006101000a81548173ffffffffffffffffffffffffffffffffffffffff021916908373ffffffffffffffffffffffffffffffffffffffff160217905550602082015181600101556040820151816002015560608201518160030160006101000a81548160ff0219169083151502179055506080820151816004015590505060046002549080600181540180825580915050906001820390600052602060002001600090919290919091505550600260008154809291906001019190505550610cce61114a565b506001915050949350505050565b6000806004805490501415610cf45760019050610cf9565b600090505b90565b60035481565b6000806000905060006001826002020190505b600580549050811015610e955760008190506000600183019050600580549050811015610da8576001600060058581548110610d4d57fe5b90600052602060002001548152602001908152602001600020600401546001600060058481548110610d7b57fe5b90600052602060002001548152602001908152602001600020600401541015610da75781806001019250505b5b6001600060058681548110610db957fe5b90600052602060002001548152602001908152602001600020600401546001600060058581548110610de757fe5b90600052602060002001548152602001908152602001600020600401541015610e8757600060058581548110610e1957fe5b9060005260206000200154905060058381548110610e3357fe5b906000526020600020015460058681548110610e4b57fe5b90600052602060002001819055508060058481548110610e6757fe5b906000526020600020018190555082945060018560020201935050610e8e565b5050610e95565b5050610d15565b60019250505090565b6000806000905060006001826002020190505b60048054905081101561102d5760008190506000600183019050600480549050811015610f425760008060048581548110610ee857fe5b906000526020600020015481526020019081526020016000206004015460008060048481548110610f1557fe5b90600052602060002001548152602001908152602001600020600401541115610f415781806001019250505b5b60008060048481548110610f5257fe5b906000526020600020015481526020019081526020016000206004015460008060048781548110610f7f57fe5b9060005260206000200154815260200190815260200160002060040154101561101f57600060048581548110610fb157fe5b9060005260206000200154905060048381548110610fcb57fe5b906000526020600020015460048681548110610fe357fe5b90600052602060002001819055508060048481548110610fff57fe5b906000526020600020018190555082945060018560020201935050611026565b505061102d565b5050610eb1565b60019250505090565b60008060016005805490500390505b60008111156111425760006002600183038161105d57fe5b049050600160006005838154811061107157fe5b9060005260206000200154815260200190815260200160002060040154600160006005858154811061109f57fe5b90600052602060002001548152602001908152602001600020600401541015611136576000600583815481106110d157fe5b90600052602060002001549050600582815481106110eb57fe5b90600052602060002001546005848154811061110357fe5b9060005260206000200181905550806005838154811061111f57fe5b90600052602060002001819055508192505061113c565b50611142565b50611045565b600191505090565b60008060016004805490500390505b60008111156112545760006002600183038161117157fe5b0490506000806004838154811061118457fe5b9060005260206000200154815260200190815260200160002060040154600080600485815481106111b157fe5b90600052602060002001548152602001908152602001600020600401541115611248576000600483815481106111e357fe5b90600052602060002001549050600482815481106111fd57fe5b90600052602060002001546004848154811061121557fe5b9060005260206000200181905550806004838154811061123157fe5b90600052602060002001819055508192505061124e565b50611254565b50611159565b600191505090565b6040518060a00160405280600073ffffffffffffffffffffffffffffffffffffffff1681526020016000815260200160008152602001600015158152602001600081525090565b6000813590506112b28161156c565b92915050565b6000813590506112c781611583565b92915050565b600080600080608085870312156112e357600080fd5b60006112f1878288016112a3565b9450506020611302878288016112b8565b9350506040611313878288016112b8565b9250506060611324878288016112b8565b91505092959194509250565b60006020828403121561134257600080fd5b6000611350848285016112b8565b91505092915050565b61136281611524565b82525050565b61137181611536565b82525050565b6000611384601183611513565b91507f4275794c69737420697320656d707479210000000000000000000000000000006000830152602082019050919050565b60006113c4601283611513565b91507f53656c6c4c69737420697320656d7074792100000000000000000000000000006000830152602082019050919050565b61140081611562565b82525050565b600060208201905061141b6000830184611359565b92915050565b600060a0820190506114366000830188611359565b61144360208301876113f7565b61145060408301866113f7565b61145d6060830185611368565b61146a60808301846113f7565b9695505050505050565b60006020820190506114896000830184611368565b92915050565b600060208201905081810360008301526114a881611377565b9050919050565b600060208201905081810360008301526114c8816113b7565b9050919050565b60006020820190506114e460008301846113f7565b92915050565b60006040820190506114ff60008301856113f7565b61150c6020830184611359565b9392505050565b600082825260208201905092915050565b600061152f82611542565b9050919050565b60008115159050919050565b600073ffffffffffffffffffffffffffffffffffffffff82169050919050565b6000819050919050565b61157581611524565b811461158057600080fd5b50565b61158c81611562565b811461159757600080fd5b5056fea365627a7a72315820bb549524507f0c9d779adc0cd0ebc5d1a6a31cdce6b663b6e80598d00a60db346c6578706572696d656e74616cf564736f6c634300050c0040",
  "source": "pragma solidity >=0.4.22;\npragma experimental ABIEncoderV2;\n\n\n//Mapping and Heap with dynamic array wrapped in a priority queue\n//The code stores orderstructs in the mapping and have keys for them. and stores the keys in the sorted heap that is implemented by dynamic array\n\n\ncontract PQ3_Heap_Mapping{\n\n    //Every order has some attributes:\n    struct OrderStruct \n    {\n        address Sender;\n        uint256 Price;  \n        uint256 Volume;     //The volume is 1 for now\n        bool Exists;\n        uint256 AuxPrice; //This is not the real price of the order, it's the contcantenation of the real price and the counter which helps to sort the heap wehen there are ties\n    }\n\n\n    mapping(uint256 => OrderStruct) public BuyList;   //mapping that contains the buy orders and have keys for them. This mapping is not sorted, we store the keys into the heap and sort them there\n    mapping(uint256 => OrderStruct) public SellList;  //same as above but for sell orders\n    uint256 public BuyListKey;\n    uint256 public SellListKey;\n\n    uint256[] BuyListHeap;\n    uint256[] SellListHeap;\n\n//*****************************************************************//\n//*******************  maxheap Functions (BuyList) ****************//\n//*****************************************************************//    \n\n//*******************  InsertBid() ***************************//\n    //the new item will be added to the end of the array list (a buy order is submitted)\n    //then heapified up with a call to heapifyUp method\n    function InsertBid (address _sender, uint256 _price, uint256 _volume, uint256 _auxprice) public returns (bool)\n    {\n        OrderStruct memory neworder = OrderStruct(msg.sender, _price, _volume, true, _auxprice);\n        BuyList[BuyListKey] = neworder;\n        BuyListHeap.push(BuyListKey);\n        BuyListKey++;\n        maxheap_heapifyUp ();\n        return true;\n    }\n\n//*******************  maxheap_heapifyUp () ***************************//\n    //this function is called everytime we insert a new element to the end of the array (aka a new Buy order is submitted) and\n    //now the heap has to be sorted again\n    function maxheap_heapifyUp () internal returns (bool) {\n    \n        uint256 k = BuyListHeap.length - 1;                   //k is set to be the last entry of the array (also heap) which is the element that's just added and has to be moved up\n        while (k > 0){                                  //while we havent reached to the top of the heap\n            uint256 p = (k-1)/2;                           //we need to compute the parent of this last element which is p = (k-1)/2\n            if (BuyList[BuyListHeap[k]].AuxPrice > BuyList[BuyListHeap[p]].AuxPrice) \n            {   \n                uint256 temp = BuyListHeap[k];    //swap the element at index k with its parent\n                BuyListHeap[k] = BuyListHeap[p];\n                BuyListHeap[p] = temp;\n                k = p;                                  //k moves up one level\n            }\n            else {break;}                               //if not the break statement exits the loop (it continues until no element index k is not greater than its parent)\n        }\n        return true;\n    }\n//******************** BuyListMaxDelete() function ********************//    \n    //the highest priority item will be removed from the list and is returned by the function\n    //then the heap is reordered uising the heapifyDown method\n    function BuyListMaxDelete() public returns (uint256, address)\n    {\n        require (BuyListHeap.length != 0, 'BuyList is empty!');                            //the delete function throws exception if the heap is empty\n        \n        \n        if (BuyListHeap.length == 1) {                                      //if the heap has only one items\n\n            uint256 _price =  BuyList[BuyListHeap[0]].Price;\n            address _sender =  BuyList[BuyListHeap[0]].Sender;\n            //delete BuyList[BuyListHeap[0]];\n            BuyListHeap.pop();                                                 //the only element of the heap is removed and returned \n            BuyListKey--;\n            return (_price, _sender);     \n       \n        }\n\n        //if neither of these conditions are true, then there are at least 2 items in the heap and deletion proceeds\n        \n        uint256 _price =  BuyList[BuyListHeap[0]].Price;\n        address _sender =  BuyList[BuyListHeap[0]].Sender;\n        //delete BuyList[BuyListHeap[0]];\n        BuyListHeap[0] = BuyListHeap[BuyListHeap.length -1]; //the last elementof the heap is removed and written into the first position\n        BuyListHeap.pop();\n        maxheap_heapifyDown(); //now the siftdown is called\n        BuyListKey--;\n        return (_price, _sender);  \n    }\n//*******************  maxheap_heapifyDown () ***************************//\n    //when we want to remove an element from the heap we remove the root of the heap and add the last item\n    //to the root and reorder the heap again\n    function maxheap_heapifyDown () internal returns (bool)\n    {\n        uint256 k =0;\n        uint256 leftchild = 2*k + 1;\n        while (leftchild < BuyListHeap.length)\n        {                                   //as long as the left child is within the array that heap is stored in\n            uint256 max = leftchild;\n            uint256 rightchild = leftchild + 1;                                     //rightchild = 2k+2\n\n            if (rightchild < BuyListHeap.length)                                       //if there is a rightchild\n            {\n                if (BuyList[BuyListHeap[rightchild]].AuxPrice > BuyList[BuyListHeap[leftchild]].AuxPrice)    //then the right child and left child are compared\n                {\n                    max++;                                                       //now max is set to rightchild, otherwise max remains to be the leftchild\n                }\n            }\n\n        if (BuyList[BuyListHeap[k]].AuxPrice < BuyList[BuyListHeap[max]].AuxPrice)                        //compares the k item with the max item and if k is smaller than its greatest children they are swapped\n        {\n            uint256 temp = BuyListHeap[k];    //swap the element at index k with its parent\n            BuyListHeap[k] = BuyListHeap[max];\n            BuyListHeap[max] = temp;\n            k = max;                                                         //k is set to max\n            leftchild =2*k + 1;                                              //l is recompuetd in preparation for the next iteration\n        }\n        else{                                                               //if the k item is not smaller than the max item, heapifyDown should stop\n            break;\n            }\n        }\n        return true;\n    }\n//****************   BuyListMaxPrice()  *********************//\n    //BuyListpeak function returns the price of the highest priority element (The highest bid)\n    function BuyListMaxPrice() public  returns (uint256){\n        \n        require (BuyListHeap.length != 0, 'BuyList is empty!'); //throws exception if the maxheap (BuyList) is empty\n        return (BuyList[BuyListHeap[0]].Price);\n        \n    }\n//****************   BuyListMaxSender()  *********************//\n    //BuyListpeak function returns the sender of the highest priority element (The highest bid)\n    function BuyListMaxSender() public  returns (address){\n        \n        require (BuyListHeap.length != 0, 'BuyList is empty!'); //throws exception if the maxheap (BuyList) is empty\n        return (BuyList[BuyListHeap[0]].Sender);\n        \n    }\n//****************   BuyListisEmpty()  *********************//\n    //checks if the BuyList is empty\n    function BuyListisEmpty() public returns (bool){\n        \n        if (BuyListHeap.length == 0)\n        {\n            return true;\n\n        }\n        else\n        {\n            return false;\n        }\n        \n    }\n//*****************************************************************//\n//*******************  minheap Functions (SellList) ****************//\n//*****************************************************************//\n\n//*******************  InsertAsk() ***************************//\n    //the new item will be added to the end of the array list (a sell order is submitted)\n    //then heapified up with a call to heapifyUp method\n    function InsertAsk (address _sender, uint256 _price, uint256 _volume, uint256 _auxprice) public  returns (bool)\n    {\n        OrderStruct memory neworder = OrderStruct(msg.sender, _price, _volume, true, _auxprice);\n        SellList[SellListKey] = neworder;\n        SellListHeap.push(SellListKey);\n        SellListKey++;\n        minheap_heapifyUp();\n        return true;\n    }    \n//*******************  minheap_heapifyUp () ***************************//\n    //this function is called everytime we insert a new element to the end of the array (aka a new sell order is submitted) and\n    //now the heap has to be sorted again\n    function minheap_heapifyUp () internal returns (bool) {\n\n        uint256 k = SellListHeap.length - 1; //k is set to be the last entry of the array(also heap) which is the element that's just added and has to be moved up\n        while (k > 0){                                      //while we havent reached to the top of the heap\n            uint256 p = (k-1)/2;                            //we need to compute the parent of this last element which is p = (k-1)/2\n            if (SellList[SellListHeap[k]].AuxPrice < SellList[SellListHeap[p]].AuxPrice) //if the element is greater than its parent\n            { \n            \n                uint256 temp = SellListHeap[k];    //swap the element at index k with its parent\n                SellListHeap[k] = SellListHeap[p];\n                SellListHeap[p] = temp;\n                \n                k = p; //k moves up one level\n            }\n            else {break;} //if not the break statement exits the loop (it continues until no element index k is not greater than its parent)\n        }\n        \n        return true;\n    }\n//*******************  SellListMaxDelete () ***************************//\n    //the highest priority item (the smallest ask) will be removed from the list and is returned by the function\n    //then the heap is reordered uising the heapifyDown method\n    function SellListMaxDelete() public returns (uint256, address)\n    {\n        require (SellListHeap.length != 0, 'BuyList is empty!');                      //the delete function throws exception if the heap is empty\n        \n        \n        if (SellListHeap.length == 1) {                               // if the heap has only one item\n            \n            uint256 _price =  SellList[SellListHeap[0]].Price;\n            address _sender =  SellList[SellListHeap[0]].Sender;\n            //delete SellList[SellListHeap[0]];\n            SellListHeap.pop();                                   //the only element of the heap is removed and returned  \n            SellListKey --;\n            return (_price, _sender);\n        }\n\n        //if neither of these conditions are true, then there are at least 2 items in the heap and deletion proceeds\n      \n        uint256 _price =  SellList[SellListHeap[0]].Price;\n        address _sender =  SellList[SellListHeap[0]].Sender;\n        //delete SellList[SellListHeap[0]];\n        SellListHeap[0] = SellListHeap[SellListHeap.length -1];                      //the last elementof the heap is removed and written into the first position\n        SellListHeap.pop(); \n        minheap_heapifyDown();                           //now the heapifyDown is called to restore the ordering of the heap \n        SellListKey --;\n        return (_price, _sender);    \n    }\n//*******************  minheap_heapifyDown () ***************************//\n    //when we want to remove an element from the heap we remove the root of the heap and add the last item\n    //to the root and reorder the heap again\n    function minheap_heapifyDown () internal  returns (bool) {\n        uint256 k =0;\n        uint256 leftchild = 2*k + 1;\n        while (leftchild < SellListHeap.length){               //as long as the left child is within the array that heap is stored in\n            uint256 min = leftchild;\n            uint256 rightchild = leftchild + 1;              //rightchild = 2k+2\n\n            if (rightchild < SellListHeap.length)                //if there is a rightchild, then the right child and left child are compared\n            {\n                if (SellList[SellListHeap[rightchild]].AuxPrice < SellList[SellListHeap[leftchild]].AuxPrice)\n                {    min++;   }                               //now min is set to rightchild, otherwise min remains to be the leftchild\n            }\n\n            if (SellList[SellListHeap[min]].AuxPrice < SellList[SellListHeap[k]].AuxPrice) //compares the k item with the max item and if its less they are swapped\n            {\n                \n                uint256 temp = SellListHeap[k];    //swap the element at index k with its parent\n                SellListHeap[k] = SellListHeap[min];\n                SellListHeap[min] = temp;\n\n                k = min; //k is set to min\n                leftchild = 2*k + 1; //l is recompuetd in preparation for the next iteration\n            }\n            else{ //if k item's smaller childer is not smaller than k item itself, heapifyDown should stop\n                break;\n            }\n\n        }\n        return true;\n    }\n//****************   SellListMaxPrice()  *********************//\n    //SellListpeak function returns the price of the highest priority element (The Lowest ask)\n    function SellListMaxPrice() public  returns (uint256){\n        \n        require (SellListHeap.length != 0, 'SellList is empty!'); //throws exception if the minheap (SellList) is empty\n        return (SellList[SellListHeap[0]].Price);\n    }\n//****************   SellListMaxSender()  *********************//\n    //SellListpeak function returns the sender of the highest priority element (The Lowest ask)\n    function SellListMaxSender() public  returns (address){\n        \n        require (SellListHeap.length != 0, 'SellList is empty!'); //throws exception if the minheap (SellList) is empty\n        return (SellList[SellListHeap[0]].Sender);\n    }\n//****************   SellListisEmpty()  *********************//\n    //checks if the SellList is empty\n    function SellListisEmpty() public returns (bool){\n        \n        if (SellListHeap.length == 0)\n        {\n            return true;\n\n        }\n        else\n        {\n            return false;\n        }\n        \n    }\n\n\n\n\n}",
  "sourcePath": "/home/mahsa/ProjectRepo/2020-Orderbook/Code/New-Truffle/contracts/CallMarket/Priority_Queues/PQ3_Heap_Mapping.sol",
  "compiler": {
    "name": "solc",
    "version": "0.5.12+commit.7709ece9.Emscripten.clang"
  },
  "schemaVersion": "3.2.0",
  "updatedAt": "2020-07-11T19:04:04.275Z",
  "networkType": "ethereum",
  "devdoc": {
    "methods": {}
  },
  "userdoc": {
    "methods": {}
  }
}