{
  "contractName": "PQ4",
  "abi": [
    {
      "inputs": [],
      "payable": false,
      "stateMutability": "nonpayable",
      "type": "constructor",
      "signature": "constructor"
    },
    {
      "constant": true,
      "inputs": [],
      "name": "First",
      "outputs": [
        {
          "internalType": "contract List",
          "name": "",
          "type": "address"
        }
      ],
      "payable": false,
      "stateMutability": "view",
      "type": "function",
      "signature": "0xafe6c096"
    },
    {
      "constant": false,
      "inputs": [
        {
          "internalType": "uint256",
          "name": "_number",
          "type": "uint256"
        }
      ],
      "name": "Enqueue",
      "outputs": [
        {
          "internalType": "bool",
          "name": "",
          "type": "bool"
        }
      ],
      "payable": false,
      "stateMutability": "nonpayable",
      "type": "function",
      "signature": "0x0c4a515c"
    },
    {
      "constant": false,
      "inputs": [],
      "name": "RemoveMax",
      "outputs": [
        {
          "internalType": "uint256",
          "name": "",
          "type": "uint256"
        }
      ],
      "payable": false,
      "stateMutability": "nonpayable",
      "type": "function",
      "signature": "0xb64456a7"
    },
    {
      "constant": false,
      "inputs": [],
      "name": "Dequeue",
      "outputs": [
        {
          "internalType": "uint256",
          "name": "",
          "type": "uint256"
        }
      ],
      "payable": false,
      "stateMutability": "nonpayable",
      "type": "function",
      "signature": "0x27702186"
    },
    {
      "constant": false,
      "inputs": [],
      "name": "Peek",
      "outputs": [
        {
          "internalType": "uint256",
          "name": "",
          "type": "uint256"
        }
      ],
      "payable": false,
      "stateMutability": "nonpayable",
      "type": "function",
      "signature": "0x6dd5fa7b"
    },
    {
      "constant": false,
      "inputs": [],
      "name": "isEmpty",
      "outputs": [
        {
          "internalType": "bool",
          "name": "",
          "type": "bool"
        }
      ],
      "payable": false,
      "stateMutability": "nonpayable",
      "type": "function",
      "signature": "0x681fe70c"
    }
  ],
  "bytecode": "0x608060405234801561001057600080fd5b5060008060006101000a81548173ffffffffffffffffffffffffffffffffffffffff021916908373ffffffffffffffffffffffffffffffffffffffff160217905550610f44806100616000396000f3fe608060405234801561001057600080fd5b50600436106100625760003560e01c80630c4a515c146100675780632770218614610097578063681fe70c146100b55780636dd5fa7b146100d3578063afe6c096146100f1578063b64456a71461010f575b600080fd5b610081600480360361007c919081019061098e565b61012d565b60405161008e9190610a4d565b60405180910390f35b61009f610436565b6040516100ac9190610aa3565b60405180910390f35b6100bd61045d565b6040516100ca9190610a4d565b60405180910390f35b6100db6104c5565b6040516100e89190610aa3565b60405180910390f35b6100f96105fb565b6040516101069190610a68565b60405180910390f35b610117610620565b6040516101249190610aa3565b60405180910390f35b6000808260405161013d90610919565b6101479190610aa3565b604051809103906000f080158015610163573d6000803e3d6000fd5b50905060008060009054906101000a900473ffffffffffffffffffffffffffffffffffffffff16905060008090505b600073ffffffffffffffffffffffffffffffffffffffff168273ffffffffffffffffffffffffffffffffffffffff161415801561024c57508173ffffffffffffffffffffffffffffffffffffffff1663624de7256040518163ffffffff1660e01b815260040160206040518083038186803b15801561021057600080fd5b505afa158015610224573d6000803e3d6000fd5b505050506040513d601f19601f8201168201806040525061024891908101906109b7565b8511155b156102d9578190508173ffffffffffffffffffffffffffffffffffffffff16634c8fe5266040518163ffffffff1660e01b815260040160206040518083038186803b15801561029a57600080fd5b505afa1580156102ae573d6000803e3d6000fd5b505050506040513d601f19601f820116820180604052506102d29190810190610965565b9150610192565b600073ffffffffffffffffffffffffffffffffffffffff168173ffffffffffffffffffffffffffffffffffffffff16141561035357826000806101000a81548173ffffffffffffffffffffffffffffffffffffffff021916908373ffffffffffffffffffffffffffffffffffffffff1602179055506103bf565b8073ffffffffffffffffffffffffffffffffffffffff1663d7ef453f846040518263ffffffff1660e01b815260040161038c9190610a68565b600060405180830381600087803b1580156103a657600080fd5b505af11580156103ba573d6000803e3d6000fd5b505050505b8273ffffffffffffffffffffffffffffffffffffffff1663d7ef453f836040518263ffffffff1660e01b81526004016103f89190610a68565b600060405180830381600087803b15801561041257600080fd5b505af1158015610426573d6000803e3d6000fd5b5050505060019350505050919050565b60005b6001151561044561045d565b15151461045a57610454610620565b50610439565b90565b60008073ffffffffffffffffffffffffffffffffffffffff166000809054906101000a900473ffffffffffffffffffffffffffffffffffffffff1673ffffffffffffffffffffffffffffffffffffffff1614156104bd57600190506104c2565b600090505b90565b60008073ffffffffffffffffffffffffffffffffffffffff166000809054906101000a900473ffffffffffffffffffffffffffffffffffffffff1673ffffffffffffffffffffffffffffffffffffffff161415610557576040517f08c379a000000000000000000000000000000000000000000000000000000000815260040161054e90610a83565b60405180910390fd5b6000809054906101000a900473ffffffffffffffffffffffffffffffffffffffff1673ffffffffffffffffffffffffffffffffffffffff1663624de7256040518163ffffffff1660e01b815260040160206040518083038186803b1580156105be57600080fd5b505afa1580156105d2573d6000803e3d6000fd5b505050506040513d601f19601f820116820180604052506105f691908101906109b7565b905090565b6000809054906101000a900473ffffffffffffffffffffffffffffffffffffffff1681565b60008073ffffffffffffffffffffffffffffffffffffffff166000809054906101000a900473ffffffffffffffffffffffffffffffffffffffff1673ffffffffffffffffffffffffffffffffffffffff1614156106b2576040517f08c379a00000000000000000000000000000000000000000000000000000000081526004016106a990610a83565b60405180910390fd5b6000809054906101000a900473ffffffffffffffffffffffffffffffffffffffff16600160006101000a81548173ffffffffffffffffffffffffffffffffffffffff021916908373ffffffffffffffffffffffffffffffffffffffff1602179055506000809054906101000a900473ffffffffffffffffffffffffffffffffffffffff1673ffffffffffffffffffffffffffffffffffffffff1663fe81dc856040518163ffffffff1660e01b8152600401600060405180830381600087803b15801561077d57600080fd5b505af1158015610791573d6000803e3d6000fd5b50505050600160009054906101000a900473ffffffffffffffffffffffffffffffffffffffff1673ffffffffffffffffffffffffffffffffffffffff16634c8fe5266040518163ffffffff1660e01b815260040160206040518083038186803b1580156107fd57600080fd5b505afa158015610811573d6000803e3d6000fd5b505050506040513d601f19601f820116820180604052506108359190810190610965565b6000806101000a81548173ffffffffffffffffffffffffffffffffffffffff021916908373ffffffffffffffffffffffffffffffffffffffff160217905550600160009054906101000a900473ffffffffffffffffffffffffffffffffffffffff1673ffffffffffffffffffffffffffffffffffffffff1663624de7256040518163ffffffff1660e01b815260040160206040518083038186803b1580156108dc57600080fd5b505afa1580156108f0573d6000803e3d6000fd5b505050506040513d601f19601f8201168201806040525061091491908101906109b7565b905090565b61038680610b7c83390190565b60008151905061093581610b4d565b92915050565b60008135905061094a81610b64565b92915050565b60008151905061095f81610b64565b92915050565b60006020828403121561097757600080fd5b600061098584828501610926565b91505092915050565b6000602082840312156109a057600080fd5b60006109ae8482850161093b565b91505092915050565b6000602082840312156109c957600080fd5b60006109d784828501610950565b91505092915050565b6109e981610ae1565b82525050565b6109f881610b29565b82525050565b6000610a0b600e83610abe565b91507f4c69737420697320656d707479210000000000000000000000000000000000006000830152602082019050919050565b610a4781610b1f565b82525050565b6000602082019050610a6260008301846109e0565b92915050565b6000602082019050610a7d60008301846109ef565b92915050565b60006020820190508181036000830152610a9c816109fe565b9050919050565b6000602082019050610ab86000830184610a3e565b92915050565b600082825260208201905092915050565b6000610ada82610aff565b9050919050565b60008115159050919050565b6000610af882610acf565b9050919050565b600073ffffffffffffffffffffffffffffffffffffffff82169050919050565b6000819050919050565b6000610b3482610b3b565b9050919050565b6000610b4682610aff565b9050919050565b610b5681610aed565b8114610b6157600080fd5b50565b610b6d81610b1f565b8114610b7857600080fd5b5056fe608060405234801561001057600080fd5b5060405161038638038061038683398181016040526100329190810190610095565b8060018190555060008060006101000a81548173ffffffffffffffffffffffffffffffffffffffff021916908373ffffffffffffffffffffffffffffffffffffffff160217905550506100df565b60008151905061008f816100c8565b92915050565b6000602082840312156100a757600080fd5b60006100b584828501610080565b91505092915050565b6000819050919050565b6100d1816100be565b81146100dc57600080fd5b50565b610298806100ee6000396000f3fe608060405234801561001057600080fd5b506004361061004c5760003560e01c80634c8fe52614610051578063624de7251461006f578063d7ef453f1461008d578063fe81dc85146100a9575b600080fd5b6100596100b3565b6040516100669190610196565b60405180910390f35b6100776100d8565b60405161008491906101b1565b60405180910390f35b6100a760048036036100a2919081019061014f565b6100de565b005b6100b1610121565b005b6000809054906101000a900473ffffffffffffffffffffffffffffffffffffffff1681565b60015481565b806000806101000a81548173ffffffffffffffffffffffffffffffffffffffff021916908373ffffffffffffffffffffffffffffffffffffffff16021790555050565b4173ffffffffffffffffffffffffffffffffffffffff16ff5b6000813590506101498161023e565b92915050565b60006020828403121561016157600080fd5b600061016f8482850161013a565b91505092915050565b6101818161021a565b82525050565b61019081610210565b82525050565b60006020820190506101ab6000830184610178565b92915050565b60006020820190506101c66000830184610187565b92915050565b60006101d7826101f0565b9050919050565b60006101e9826101cc565b9050919050565b600073ffffffffffffffffffffffffffffffffffffffff82169050919050565b6000819050919050565b60006102258261022c565b9050919050565b6000610237826101f0565b9050919050565b610247816101de565b811461025257600080fd5b5056fea365627a7a723158203c52fe37dc918c732e981b5cf7b3e5162eec3655b5991c19d30863a59ed5590b6c6578706572696d656e74616cf564736f6c634300050c0040a365627a7a72315820e912f0d452eb5c182bfae2fea26a0a5ff6bf87435ed8a64893ce2f768be6edbb6c6578706572696d656e74616cf564736f6c634300050c0040",
  "source": "pragma solidity >=0.4.22;\npragma experimental ABIEncoderV2;\n\n//Linkedlist wrapped in a priority queue\n\ncontract PQ4{\n    \n    List public First;\n    List temp;\n    \n    constructor () public {\n        \n        First = List(0);\n    }\n//******************** Enqueue() function ********************//\n    //A new integer will be added in its right position in the list\n    function Enqueue(uint256 _number) public returns (bool)\n    {\n        List newitem = new List (_number);\n        List current = First; \n        List previous = List(0);\n        \n        //we iterate through our list with 2 conditions:\n        while (current != List(0) && _number <= current.Number()) //The linkedlist is sorted in an descending order (descreasing)\n        {\n            previous = current;\n            current = current.next();\n            // we only exit this loop if we find the position to insert our data;\n        } \n        //now if we have to check if we have to insert the node to the begining of the list:\n        if (previous == List(0)) //it means the current is equal to first and in that case we have to insert the node as a new head\n        {\n            First = newitem; \n        }\n        else //the node next to the privious is no longer the current but it's our new node\n        {\n            previous.addNew(newitem);\n        }\n        \n        //and in all cases regardless of if it's a first node or not, we must say we have to say the node next to our new node is current\n        \n        newitem.addNew(current);\n        return true;\n    }\n//******************** RemoveMax() function ********************//    \n    //the highest priority item will be removed from the list and is returned by the function\n    function RemoveMax() public returns(uint256) \n    {\n        require (First != List(0), 'List is empty!'); //throws exception if the maxheap (BuyList) is empty\n        temp = First;\n        First.deletenode();\n        First = temp.next();\n        return (temp.Number());\n    }\n//******************** Dequeue() function ********************//    \n    //Emptying the list by iterating over it and deleting the highest priority number in each round (similar to match funtion in the call market)\n    function Dequeue() public returns (uint256) \n    {\n        while (isEmpty() != true)\n        {  \n            RemoveMax();\n        }\n    }\n//****************   Peek()  *********************//\n    //Retrieves, but does not remove, the head of this queue\n    function Peek() public  returns (uint256){\n        \n        require (First != List(0), 'List is empty!'); //throws exception if the List is empty\n        return (First.Number());\n        \n    }\n//****************   isEmpty()  *********************//\n    //checks if the List is empty \n    function isEmpty() public returns (bool){\n        \n        if (First == List(0))\n        {\n            return true;\n\n        }\n        else\n        {\n            return false;\n        }\n        \n    }\n\n}\n//*****************************************************************//\n//*******************  List Contract  ************************//\n//*****************************************************************//    \n    \ncontract List {\n    List public next;\n    uint256 public Number;\n    \n    constructor(uint256 _number) public {\n        \n        Number = _number;\n        next = List(0);\n    }\n   \n    function addNew(List _number) public {\n        \n        next = _number;\n       \n    }\n    function deletenode () public {\n        selfdestruct(block.coinbase);\n    }\n} ",
  "sourcePath": "/home/mahsa/ProjectRepo/2020-Orderbook/Code/New-Truffle/contracts/PQs_for_Unit_Testings/PQ4.sol",
  "compiler": {
    "name": "solc",
    "version": "0.5.12+commit.7709ece9.Emscripten.clang"
  },
  "schemaVersion": "3.0.2",
  "updatedAt": "2020-09-10T13:48:49.947Z",
  "devdoc": {
    "methods": {}
  },
  "userdoc": {
    "methods": {}
  }
}