{
  "contractName": "PQ4_Linkedlist",
  "abi": [
    {
      "inputs": [
        {
          "internalType": "address",
          "name": "_callmarket",
          "type": "address"
        }
      ],
      "payable": false,
      "stateMutability": "nonpayable",
      "type": "constructor"
    },
    {
      "constant": true,
      "inputs": [],
      "name": "BuyFirst",
      "outputs": [
        {
          "internalType": "contract BuyList",
          "name": "",
          "type": "address"
        }
      ],
      "payable": false,
      "stateMutability": "view",
      "type": "function"
    },
    {
      "constant": true,
      "inputs": [],
      "name": "SellFirst",
      "outputs": [
        {
          "internalType": "contract SellList",
          "name": "",
          "type": "address"
        }
      ],
      "payable": false,
      "stateMutability": "view",
      "type": "function"
    },
    {
      "constant": false,
      "inputs": [
        {
          "internalType": "address",
          "name": "_sender",
          "type": "address"
        },
        {
          "internalType": "uint256",
          "name": "_price",
          "type": "uint256"
        },
        {
          "internalType": "uint256",
          "name": "_volume",
          "type": "uint256"
        },
        {
          "internalType": "uint256",
          "name": "_auxprice",
          "type": "uint256"
        }
      ],
      "name": "InsertBid",
      "outputs": [
        {
          "internalType": "bool",
          "name": "",
          "type": "bool"
        }
      ],
      "payable": false,
      "stateMutability": "nonpayable",
      "type": "function"
    },
    {
      "constant": false,
      "inputs": [],
      "name": "BuyListMaxDelete",
      "outputs": [
        {
          "internalType": "uint256",
          "name": "",
          "type": "uint256"
        },
        {
          "internalType": "address",
          "name": "",
          "type": "address"
        }
      ],
      "payable": false,
      "stateMutability": "nonpayable",
      "type": "function"
    },
    {
      "constant": false,
      "inputs": [],
      "name": "BuyListMaxPrice",
      "outputs": [
        {
          "internalType": "uint256",
          "name": "",
          "type": "uint256"
        }
      ],
      "payable": false,
      "stateMutability": "nonpayable",
      "type": "function"
    },
    {
      "constant": false,
      "inputs": [],
      "name": "BuyListMaxSender",
      "outputs": [
        {
          "internalType": "address",
          "name": "",
          "type": "address"
        }
      ],
      "payable": false,
      "stateMutability": "nonpayable",
      "type": "function"
    },
    {
      "constant": false,
      "inputs": [],
      "name": "BuyListisEmpty",
      "outputs": [
        {
          "internalType": "bool",
          "name": "",
          "type": "bool"
        }
      ],
      "payable": false,
      "stateMutability": "nonpayable",
      "type": "function"
    },
    {
      "constant": false,
      "inputs": [
        {
          "internalType": "address",
          "name": "_sender",
          "type": "address"
        },
        {
          "internalType": "uint256",
          "name": "_price",
          "type": "uint256"
        },
        {
          "internalType": "uint256",
          "name": "_volume",
          "type": "uint256"
        },
        {
          "internalType": "uint256",
          "name": "_auxprice",
          "type": "uint256"
        }
      ],
      "name": "InsertAsk",
      "outputs": [
        {
          "internalType": "bool",
          "name": "",
          "type": "bool"
        }
      ],
      "payable": false,
      "stateMutability": "nonpayable",
      "type": "function"
    },
    {
      "constant": false,
      "inputs": [],
      "name": "SellListMaxDelete",
      "outputs": [
        {
          "internalType": "uint256",
          "name": "",
          "type": "uint256"
        },
        {
          "internalType": "address",
          "name": "",
          "type": "address"
        }
      ],
      "payable": false,
      "stateMutability": "nonpayable",
      "type": "function"
    },
    {
      "constant": false,
      "inputs": [],
      "name": "SellListMaxPrice",
      "outputs": [
        {
          "internalType": "uint256",
          "name": "",
          "type": "uint256"
        }
      ],
      "payable": false,
      "stateMutability": "nonpayable",
      "type": "function"
    },
    {
      "constant": false,
      "inputs": [],
      "name": "SellListMaxSender",
      "outputs": [
        {
          "internalType": "address",
          "name": "",
          "type": "address"
        }
      ],
      "payable": false,
      "stateMutability": "nonpayable",
      "type": "function"
    },
    {
      "constant": false,
      "inputs": [],
      "name": "SellListisEmpty",
      "outputs": [
        {
          "internalType": "bool",
          "name": "",
          "type": "bool"
        }
      ],
      "payable": false,
      "stateMutability": "nonpayable",
      "type": "function"
    }
  ],
  "bytecode": "0x60806040523480156200001157600080fd5b506040516200292438038062002924833981810160405262000037919081019062000119565b80600460006101000a81548173ffffffffffffffffffffffffffffffffffffffff021916908373ffffffffffffffffffffffffffffffffffffffff16021790555060008060006101000a81548173ffffffffffffffffffffffffffffffffffffffff021916908373ffffffffffffffffffffffffffffffffffffffff1602179055506000600160006101000a81548173ffffffffffffffffffffffffffffffffffffffff021916908373ffffffffffffffffffffffffffffffffffffffff1602179055505062000193565b600081519050620001138162000179565b92915050565b6000602082840312156200012c57600080fd5b60006200013c8482850162000102565b91505092915050565b6000620001528262000159565b9050919050565b600073ffffffffffffffffffffffffffffffffffffffff82169050919050565b620001848162000145565b81146200019057600080fd5b50565b61278180620001a36000396000f3fe60806040523480156200001157600080fd5b5060043610620000c45760003560e01c806364d4497b116200007b57806364d4497b1462000197578063657ffc3c14620001b9578063ccde53ca14620001db578063d735b05f1462000211578063d98ed4811462000247578063fbaf01c7146200026957620000c4565b806309ab210a14620000c95780630b21881b14620000eb57806315991626146200010e5780631ae48276146200013057806339f3b8a314620001525780635cbe5bed1462000175575b600080fd5b620000d36200028b565b604051620000e29190620017b8565b60405180910390f35b620000f5620002f5565b6040516200010592919062001870565b60405180910390f35b62000118620006d3565b60405162000127919062001853565b60405180910390f35b6200013a6200077d565b604051620001499190620017f2565b60405180910390f35b6200015c620007a2565b6040516200016c92919062001870565b60405180910390f35b6200017f62000b84565b6040516200018e919062001853565b60405180910390f35b620001a162000c2f565b604051620001b0919062001721565b60405180910390f35b620001c362000cda565b604051620001d2919062001721565b60405180910390f35b620001f96004803603620001f3919081019062001547565b62000d84565b604051620002089190620017b8565b60405180910390f35b6200022f600480360362000229919081019062001547565b620010b3565b6040516200023e9190620017b8565b60405180910390f35b62000251620013e4565b604051620002609190620017b8565b60405180910390f35b620002736200144f565b604051620002829190620017d5565b60405180910390f35b60008073ffffffffffffffffffffffffffffffffffffffff166000809054906101000a900473ffffffffffffffffffffffffffffffffffffffff1673ffffffffffffffffffffffffffffffffffffffff161415620002ed5760019050620002f2565b600090505b90565b600080600073ffffffffffffffffffffffffffffffffffffffff166000809054906101000a900473ffffffffffffffffffffffffffffffffffffffff1673ffffffffffffffffffffffffffffffffffffffff1614156200038c576040517f08c379a0000000000000000000000000000000000000000000000000000000008152600401620003839062001831565b60405180910390fd5b6000809054906101000a900473ffffffffffffffffffffffffffffffffffffffff16600260006101000a81548173ffffffffffffffffffffffffffffffffffffffff021916908373ffffffffffffffffffffffffffffffffffffffff1602179055506000809054906101000a900473ffffffffffffffffffffffffffffffffffffffff1673ffffffffffffffffffffffffffffffffffffffff1663af243cd4600460009054906101000a900473ffffffffffffffffffffffffffffffffffffffff166040518263ffffffff1660e01b81526004016200046c91906200173e565b600060405180830381600087803b1580156200048757600080fd5b505af11580156200049c573d6000803e3d6000fd5b50505050600260009054906101000a900473ffffffffffffffffffffffffffffffffffffffff1673ffffffffffffffffffffffffffffffffffffffff16634c8fe5266040518163ffffffff1660e01b815260040160206040518083038186803b1580156200050957600080fd5b505afa1580156200051e573d6000803e3d6000fd5b505050506040513d601f19601f82011682018060405250620005449190810190620015df565b6000806101000a81548173ffffffffffffffffffffffffffffffffffffffff021916908373ffffffffffffffffffffffffffffffffffffffff160217905550600260009054906101000a900473ffffffffffffffffffffffffffffffffffffffff1673ffffffffffffffffffffffffffffffffffffffff16639dfde2016040518163ffffffff1660e01b815260040160206040518083038186803b158015620005ec57600080fd5b505afa15801562000601573d6000803e3d6000fd5b505050506040513d601f19601f820116820180604052506200062791908101906200160b565b600260009054906101000a900473ffffffffffffffffffffffffffffffffffffffff1673ffffffffffffffffffffffffffffffffffffffff1663eea96c576040518163ffffffff1660e01b815260040160206040518083038186803b1580156200069057600080fd5b505afa158015620006a5573d6000803e3d6000fd5b505050506040513d601f19601f82011682018060405250620006cb91908101906200151b565b915091509091565b60008060009054906101000a900473ffffffffffffffffffffffffffffffffffffffff1673ffffffffffffffffffffffffffffffffffffffff16639dfde2016040518163ffffffff1660e01b815260040160206040518083038186803b1580156200073d57600080fd5b505afa15801562000752573d6000803e3d6000fd5b505050506040513d601f19601f820116820180604052506200077891908101906200160b565b905090565b6000809054906101000a900473ffffffffffffffffffffffffffffffffffffffff1681565b600080600073ffffffffffffffffffffffffffffffffffffffff16600160009054906101000a900473ffffffffffffffffffffffffffffffffffffffff1673ffffffffffffffffffffffffffffffffffffffff1614156200083a576040517f08c379a000000000000000000000000000000000000000000000000000000000815260040162000831906200180f565b60405180910390fd5b600160009054906101000a900473ffffffffffffffffffffffffffffffffffffffff16600360006101000a81548173ffffffffffffffffffffffffffffffffffffffff021916908373ffffffffffffffffffffffffffffffffffffffff160217905550600160009054906101000a900473ffffffffffffffffffffffffffffffffffffffff1673ffffffffffffffffffffffffffffffffffffffff1663af243cd4600460009054906101000a900473ffffffffffffffffffffffffffffffffffffffff166040518263ffffffff1660e01b81526004016200091c91906200173e565b600060405180830381600087803b1580156200093757600080fd5b505af11580156200094c573d6000803e3d6000fd5b50505050600360009054906101000a900473ffffffffffffffffffffffffffffffffffffffff1673ffffffffffffffffffffffffffffffffffffffff16634c8fe5266040518163ffffffff1660e01b815260040160206040518083038186803b158015620009b957600080fd5b505afa158015620009ce573d6000803e3d6000fd5b505050506040513d601f19601f82011682018060405250620009f49190810190620015b3565b600160006101000a81548173ffffffffffffffffffffffffffffffffffffffff021916908373ffffffffffffffffffffffffffffffffffffffff160217905550600360009054906101000a900473ffffffffffffffffffffffffffffffffffffffff1673ffffffffffffffffffffffffffffffffffffffff16639dfde2016040518163ffffffff1660e01b815260040160206040518083038186803b15801562000a9d57600080fd5b505afa15801562000ab2573d6000803e3d6000fd5b505050506040513d601f19601f8201168201806040525062000ad891908101906200160b565b600360009054906101000a900473ffffffffffffffffffffffffffffffffffffffff1673ffffffffffffffffffffffffffffffffffffffff1663eea96c576040518163ffffffff1660e01b815260040160206040518083038186803b15801562000b4157600080fd5b505afa15801562000b56573d6000803e3d6000fd5b505050506040513d601f19601f8201168201806040525062000b7c91908101906200151b565b915091509091565b6000600160009054906101000a900473ffffffffffffffffffffffffffffffffffffffff1673ffffffffffffffffffffffffffffffffffffffff16639dfde2016040518163ffffffff1660e01b815260040160206040518083038186803b15801562000bef57600080fd5b505afa15801562000c04573d6000803e3d6000fd5b505050506040513d601f19601f8201168201806040525062000c2a91908101906200160b565b905090565b6000600160009054906101000a900473ffffffffffffffffffffffffffffffffffffffff1673ffffffffffffffffffffffffffffffffffffffff1663eea96c576040518163ffffffff1660e01b815260040160206040518083038186803b15801562000c9a57600080fd5b505afa15801562000caf573d6000803e3d6000fd5b505050506040513d601f19601f8201168201806040525062000cd591908101906200151b565b905090565b60008060009054906101000a900473ffffffffffffffffffffffffffffffffffffffff1673ffffffffffffffffffffffffffffffffffffffff1663eea96c576040518163ffffffff1660e01b815260040160206040518083038186803b15801562000d4457600080fd5b505afa15801562000d59573d6000803e3d6000fd5b505050506040513d601f19601f8201168201806040525062000d7f91908101906200151b565b905090565b60008085858560018660405162000d9b9062001475565b62000dab9594939291906200175b565b604051809103906000f08015801562000dc8573d6000803e3d6000fd5b50905060008060009054906101000a900473ffffffffffffffffffffffffffffffffffffffff16905060008090505b600073ffffffffffffffffffffffffffffffffffffffff168273ffffffffffffffffffffffffffffffffffffffff161415801562000eb657508173ffffffffffffffffffffffffffffffffffffffff1663f6c177846040518163ffffffff1660e01b815260040160206040518083038186803b15801562000e7757600080fd5b505afa15801562000e8c573d6000803e3d6000fd5b505050506040513d601f19601f8201168201806040525062000eb291908101906200160b565b8510155b1562000f49578190508173ffffffffffffffffffffffffffffffffffffffff16634c8fe5266040518163ffffffff1660e01b815260040160206040518083038186803b15801562000f0657600080fd5b505afa15801562000f1b573d6000803e3d6000fd5b505050506040513d601f19601f8201168201806040525062000f419190810190620015df565b915062000df7565b600073ffffffffffffffffffffffffffffffffffffffff168173ffffffffffffffffffffffffffffffffffffffff16141562000fc557826000806101000a81548173ffffffffffffffffffffffffffffffffffffffff021916908373ffffffffffffffffffffffffffffffffffffffff16021790555062001035565b8073ffffffffffffffffffffffffffffffffffffffff1663d7ef453f846040518263ffffffff1660e01b8152600401620010009190620017f2565b600060405180830381600087803b1580156200101b57600080fd5b505af115801562001030573d6000803e3d6000fd5b505050505b8273ffffffffffffffffffffffffffffffffffffffff1663d7ef453f836040518263ffffffff1660e01b8152600401620010709190620017f2565b600060405180830381600087803b1580156200108b57600080fd5b505af1158015620010a0573d6000803e3d6000fd5b5050505060019350505050949350505050565b600080858585600186604051620010ca9062001483565b620010da9594939291906200175b565b604051809103906000f080158015620010f7573d6000803e3d6000fd5b5090506000600160009054906101000a900473ffffffffffffffffffffffffffffffffffffffff16905060008090505b600073ffffffffffffffffffffffffffffffffffffffff168273ffffffffffffffffffffffffffffffffffffffff1614158015620011e657508173ffffffffffffffffffffffffffffffffffffffff1663f6c177846040518163ffffffff1660e01b815260040160206040518083038186803b158015620011a757600080fd5b505afa158015620011bc573d6000803e3d6000fd5b505050506040513d601f19601f82011682018060405250620011e291908101906200160b565b8511155b1562001279578190508173ffffffffffffffffffffffffffffffffffffffff16634c8fe5266040518163ffffffff1660e01b815260040160206040518083038186803b1580156200123657600080fd5b505afa1580156200124b573d6000803e3d6000fd5b505050506040513d601f19601f82011682018060405250620012719190810190620015b3565b915062001127565b600073ffffffffffffffffffffffffffffffffffffffff168173ffffffffffffffffffffffffffffffffffffffff161415620012f65782600160006101000a81548173ffffffffffffffffffffffffffffffffffffffff021916908373ffffffffffffffffffffffffffffffffffffffff16021790555062001366565b8073ffffffffffffffffffffffffffffffffffffffff1663d7ef453f846040518263ffffffff1660e01b8152600401620013319190620017d5565b600060405180830381600087803b1580156200134c57600080fd5b505af115801562001361573d6000803e3d6000fd5b505050505b8273ffffffffffffffffffffffffffffffffffffffff1663d7ef453f836040518263ffffffff1660e01b8152600401620013a19190620017d5565b600060405180830381600087803b158015620013bc57600080fd5b505af1158015620013d1573d6000803e3d6000fd5b5050505060019350505050949350505050565b60008073ffffffffffffffffffffffffffffffffffffffff16600160009054906101000a900473ffffffffffffffffffffffffffffffffffffffff1673ffffffffffffffffffffffffffffffffffffffff1614156200144757600190506200144c565b600090505b90565b600160009054906101000a900473ffffffffffffffffffffffffffffffffffffffff1681565b6106a980620019ed83390190565b6106a9806200209683390190565b600081359050620014a28162001984565b92915050565b600081519050620014b98162001984565b92915050565b600081519050620014d0816200199e565b92915050565b600081519050620014e781620019b8565b92915050565b600081359050620014fe81620019d2565b92915050565b6000815190506200151581620019d2565b92915050565b6000602082840312156200152e57600080fd5b60006200153e84828501620014a8565b91505092915050565b600080600080608085870312156200155e57600080fd5b60006200156e8782880162001491565b94505060206200158187828801620014ed565b93505060406200159487828801620014ed565b9250506060620015a787828801620014ed565b91505092959194509250565b600060208284031215620015c657600080fd5b6000620015d684828501620014bf565b91505092915050565b600060208284031215620015f257600080fd5b60006200160284828501620014d6565b91505092915050565b6000602082840312156200161e57600080fd5b60006200162e8482850162001504565b91505092915050565b6200164281620018c2565b82525050565b6200165381620018ae565b82525050565b6200166481620018d6565b82525050565b620016758162001934565b82525050565b62001686816200195c565b82525050565b60006200169b6011836200189d565b91507f4275794c69737420697320656d707479210000000000000000000000000000006000830152602082019050919050565b6000620016dd6012836200189d565b91507f53656c6c4c69737420697320656d7074792100000000000000000000000000006000830152602082019050919050565b6200171b816200192a565b82525050565b600060208201905062001738600083018462001648565b92915050565b600060208201905062001755600083018462001637565b92915050565b600060a08201905062001772600083018862001648565b62001781602083018762001710565b62001790604083018662001710565b6200179f606083018562001659565b620017ae608083018462001710565b9695505050505050565b6000602082019050620017cf600083018462001659565b92915050565b6000602082019050620017ec60008301846200166a565b92915050565b60006020820190506200180960008301846200167b565b92915050565b600060208201905081810360008301526200182a816200168c565b9050919050565b600060208201905081810360008301526200184c81620016ce565b9050919050565b60006020820190506200186a600083018462001710565b92915050565b600060408201905062001887600083018562001710565b62001896602083018462001648565b9392505050565b600082825260208201905092915050565b6000620018bb826200190a565b9050919050565b6000620018cf826200190a565b9050919050565b60008115159050919050565b6000620018ef82620018ae565b9050919050565b60006200190382620018ae565b9050919050565b600073ffffffffffffffffffffffffffffffffffffffff82169050919050565b6000819050919050565b6000620019418262001948565b9050919050565b600062001955826200190a565b9050919050565b6000620019698262001970565b9050919050565b60006200197d826200190a565b9050919050565b6200198f81620018ae565b81146200199b57600080fd5b50565b620019a981620018e2565b8114620019b557600080fd5b50565b620019c381620018f6565b8114620019cf57600080fd5b50565b620019dd816200192a565b8114620019e957600080fd5b5056fe608060405234801561001057600080fd5b506040516106a93803806106a98339818101604052610032919081019061012c565b84600160006101000a81548173ffffffffffffffffffffffffffffffffffffffff021916908373ffffffffffffffffffffffffffffffffffffffff160217905550836002819055508260038190555081600460006101000a81548160ff0219169083151502179055508060058190555060008060006101000a81548173ffffffffffffffffffffffffffffffffffffffff021916908373ffffffffffffffffffffffffffffffffffffffff1602179055505050505050610230565b6000815190506100fc816101eb565b92915050565b60008151905061011181610202565b92915050565b60008151905061012681610219565b92915050565b600080600080600060a0868803121561014457600080fd5b6000610152888289016100ed565b955050602061016388828901610117565b945050604061017488828901610117565b935050606061018588828901610102565b925050608061019688828901610117565b9150509295509295909350565b60006101ae826101c1565b9050919050565b60008115159050919050565b600073ffffffffffffffffffffffffffffffffffffffff82169050919050565b6000819050919050565b6101f4816101a3565b81146101ff57600080fd5b50565b61020b816101b5565b811461021657600080fd5b50565b610222816101e1565b811461022d57600080fd5b50565b61046a8061023f6000396000f3fe608060405234801561001057600080fd5b50600436106100885760003560e01c8063af243cd41161005b578063af243cd414610105578063d7ef453f14610121578063eea96c571461013d578063f6c177841461015b57610088565b80633baad3921461008d5780634c8fe526146100ab578063846ec056146100c95780639dfde201146100e7575b600080fd5b610095610179565b6040516100a2919061034e565b60405180910390f35b6100b361017f565b6040516100c09190610333565b60405180910390f35b6100d16101a4565b6040516100de9190610318565b60405180910390f35b6100ef6101b7565b6040516100fc919061034e565b60405180910390f35b61011f600480360361011a919081019061026f565b6101bd565b005b61013b60048036036101369190810190610298565b6101d6565b005b610145610219565b60405161015291906102fd565b60405180910390f35b61016361023f565b604051610170919061034e565b60405180910390f35b60035481565b6000809054906101000a900473ffffffffffffffffffffffffffffffffffffffff1681565b600460009054906101000a900460ff1681565b60025481565b8073ffffffffffffffffffffffffffffffffffffffff16ff5b806000806101000a81548173ffffffffffffffffffffffffffffffffffffffff021916908373ffffffffffffffffffffffffffffffffffffffff16021790555050565b600160009054906101000a900473ffffffffffffffffffffffffffffffffffffffff1681565b60055481565b600081359050610254816103f9565b92915050565b60008135905061026981610410565b92915050565b60006020828403121561028157600080fd5b600061028f84828501610245565b91505092915050565b6000602082840312156102aa57600080fd5b60006102b88482850161025a565b91505092915050565b6102ca81610369565b82525050565b6102d98161038d565b82525050565b6102e8816103d5565b82525050565b6102f7816103cb565b82525050565b600060208201905061031260008301846102c1565b92915050565b600060208201905061032d60008301846102d0565b92915050565b600060208201905061034860008301846102df565b92915050565b600060208201905061036360008301846102ee565b92915050565b6000610374826103ab565b9050919050565b6000610386826103ab565b9050919050565b60008115159050919050565b60006103a482610369565b9050919050565b600073ffffffffffffffffffffffffffffffffffffffff82169050919050565b6000819050919050565b60006103e0826103e7565b9050919050565b60006103f2826103ab565b9050919050565b6104028161037b565b811461040d57600080fd5b50565b61041981610399565b811461042457600080fd5b5056fea365627a7a723158201ecfe73be954b11a30dcbb22a4f14e3dffe2f6aac1555433c273c66778ccb8f06c6578706572696d656e74616cf564736f6c634300050c0040608060405234801561001057600080fd5b506040516106a93803806106a98339818101604052610032919081019061012c565b84600160006101000a81548173ffffffffffffffffffffffffffffffffffffffff021916908373ffffffffffffffffffffffffffffffffffffffff160217905550836002819055508260038190555081600460006101000a81548160ff0219169083151502179055508060058190555060008060006101000a81548173ffffffffffffffffffffffffffffffffffffffff021916908373ffffffffffffffffffffffffffffffffffffffff1602179055505050505050610230565b6000815190506100fc816101eb565b92915050565b60008151905061011181610202565b92915050565b60008151905061012681610219565b92915050565b600080600080600060a0868803121561014457600080fd5b6000610152888289016100ed565b955050602061016388828901610117565b945050604061017488828901610117565b935050606061018588828901610102565b925050608061019688828901610117565b9150509295509295909350565b60006101ae826101c1565b9050919050565b60008115159050919050565b600073ffffffffffffffffffffffffffffffffffffffff82169050919050565b6000819050919050565b6101f4816101a3565b81146101ff57600080fd5b50565b61020b816101b5565b811461021657600080fd5b50565b610222816101e1565b811461022d57600080fd5b50565b61046a8061023f6000396000f3fe608060405234801561001057600080fd5b50600436106100885760003560e01c8063af243cd41161005b578063af243cd414610105578063d7ef453f14610121578063eea96c571461013d578063f6c177841461015b57610088565b80633baad3921461008d5780634c8fe526146100ab578063846ec056146100c95780639dfde201146100e7575b600080fd5b610095610179565b6040516100a2919061034e565b60405180910390f35b6100b361017f565b6040516100c09190610333565b60405180910390f35b6100d16101a4565b6040516100de9190610318565b60405180910390f35b6100ef6101b7565b6040516100fc919061034e565b60405180910390f35b61011f600480360361011a919081019061026f565b6101bd565b005b61013b60048036036101369190810190610298565b6101d6565b005b610145610219565b60405161015291906102fd565b60405180910390f35b61016361023f565b604051610170919061034e565b60405180910390f35b60035481565b6000809054906101000a900473ffffffffffffffffffffffffffffffffffffffff1681565b600460009054906101000a900460ff1681565b60025481565b8073ffffffffffffffffffffffffffffffffffffffff16ff5b806000806101000a81548173ffffffffffffffffffffffffffffffffffffffff021916908373ffffffffffffffffffffffffffffffffffffffff16021790555050565b600160009054906101000a900473ffffffffffffffffffffffffffffffffffffffff1681565b60055481565b600081359050610254816103f9565b92915050565b60008135905061026981610410565b92915050565b60006020828403121561028157600080fd5b600061028f84828501610245565b91505092915050565b6000602082840312156102aa57600080fd5b60006102b88482850161025a565b91505092915050565b6102ca81610369565b82525050565b6102d98161038d565b82525050565b6102e8816103d5565b82525050565b6102f7816103cb565b82525050565b600060208201905061031260008301846102c1565b92915050565b600060208201905061032d60008301846102d0565b92915050565b600060208201905061034860008301846102df565b92915050565b600060208201905061036360008301846102ee565b92915050565b6000610374826103ab565b9050919050565b6000610386826103ab565b9050919050565b60008115159050919050565b60006103a482610369565b9050919050565b600073ffffffffffffffffffffffffffffffffffffffff82169050919050565b6000819050919050565b60006103e0826103e7565b9050919050565b60006103f2826103ab565b9050919050565b6104028161037b565b811461040d57600080fd5b50565b61041981610399565b811461042457600080fd5b5056fea365627a7a7231582070442b97fc6486b95015b0bc2d6f1c141bcf5877b00dd7d8fba5e298a9baf67c6c6578706572696d656e74616cf564736f6c634300050c0040a365627a7a72315820a75507eaad19dfb4a9168174f1452060c87325551ef69b906f5c183125c613a86c6578706572696d656e74616cf564736f6c634300050c0040",
  "source": "pragma solidity >=0.4.22;\npragma experimental ABIEncoderV2;\n\n//Linkedlist wrapped in a priority queue\n\ncontract PQ4_Linkedlist{\n    \n    SellList public SellFirst;\n    BuyList public BuyFirst;\n    SellList selltemp;\n    BuyList buytemp;\n    address payable callmarket;\n\n\n    constructor (address _callmarket) public {\n        callmarket = address(uint160(_callmarket));\n        SellFirst = SellList(0);\n        BuyFirst = BuyList(0);\n    }\n//******************** InsertBid() function ********************//\n    //A new buy order will be added in its right position in the list\n    function InsertBid(address _sender, uint256 _price, uint256 _volume, uint256 _auxprice) public returns (bool)\n    {\n        BuyList newitem = new BuyList (_sender, _price , _volume, true, _auxprice);\n        BuyList current = BuyFirst; \n        BuyList previous = BuyList(0);\n        \n        //we iterate through our list with 2 conditions:\n        while (current != BuyList(0) && _auxprice <= current.AuxPrice()) //The linkedlist is sorted in an descending order (descreasing)\n        {\n            previous = current;\n            current = current.next();\n            // we only exit this loop if we find the position to insert our data;\n        } \n        //now if we have to check if we have to insert the node to the begining of the list:\n        if (previous == BuyList(0)) //it means the current is equal to first and in that case we have to insert the node as a new head\n        {\n            BuyFirst = newitem; \n        }\n        else //the node next to the privious is no longer the current but it's our new node\n        {\n            previous.addNew(newitem);\n        }\n        \n        //and in all cases regardless of if it's a first node or not, we must say we have to say the node next to our new node is current\n        \n        newitem.addNew(current);\n        return true;\n    }\n//******************** BuyListMaxDelete() function ********************//    \n    //the highest priority item will be removed from the list and is returned by the function\n    function BuyListMaxDelete() public returns(uint256, address) \n    {\n        require (BuyFirst != BuyList(0), 'BuyList is empty!'); //throws exception if the maxheap (BuyList) is empty\n        buytemp = BuyFirst;\n        BuyFirst.deletenode(callmarket);\n        BuyFirst = buytemp.next();\n        return (buytemp.Price(), buytemp.Sender());\n    }\n//****************   BuyListMaxPrice()  *********************//\n    //BuyListMaxPrice function returns the price of the highest priority element (The highest bid)\n    function BuyListMaxPrice() public  returns (uint256){\n        \n        //require (BuyFirst != BuyList(0), 'BuyList is empty!'); //throws exception if the maxheap (BuyList) is empty\n        return (BuyFirst.Price());\n        \n    }\n//****************   BuyListMaxSender()  *********************//\n    //BuyListMaxSender function returns the sender of the highest priority element (The highest bid)\n    function BuyListMaxSender() public  returns (address){\n        \n        //require (BuyFirst != BuyList(0), 'BuyList is empty!'); //throws exception if the maxheap (BuyList) is empty\n        return (BuyFirst.Sender());\n        \n    }\n//****************   BuyListisEmpty()  *********************//\n    //checks if the BuyList is empty \n    function BuyListisEmpty() public returns (bool){\n        \n        if (BuyFirst == BuyList(0))\n        {\n            return true;\n\n        }\n        else\n        {\n            return false;\n        }\n        \n    }\n\n//*******************  InsertAsk() ***************************//\n    //A new sell order will be added in its right position in the list\n    function InsertAsk (address _sender, uint256 _price, uint256 _volume, uint256 _auxprice) public returns (bool)\n    {\n        SellList newitem = new SellList (_sender, _price , _volume, true, _auxprice);\n        SellList current = SellFirst; \n        SellList previous = SellList(0);\n        \n        //we iterate through our list with 2 conditions:\n        while (current != SellList(0) && _auxprice >= current.AuxPrice()) //The linkedlist is sorted in an ascending order (increasing)\n        {\n            previous = current;\n            current = current.next();\n            // we only exit this loop if we find the position to insert our data;\n        } \n        //now if we have to check if we have to insert the node to the begining of the list:\n        if (previous == SellList(0)) //it means the current is equal to first and in that case we have to insert the node as a new head\n        {\n            SellFirst = newitem; \n        }\n        else //the node next to the privious is no longer the current but it's our new node\n        {\n            previous.addNew(newitem);\n        }\n        \n        //and in all cases regardless of if it's a first node or not, we must say we have to say the node next to our new node is current\n        \n        newitem.addNew(current);\n        return true; \n    }  \n//*******************  SellListMaxDelete () ***************************//\n    //the highest priority item (the smallest ask) will be removed from the list and is returned by the function\n    function SellListMaxDelete() public returns (uint256, address)\n    {\n        require(SellFirst != SellList(0),'SellList is empty!'); //throws exception if the minheap (SellList) is empty\n        selltemp = SellFirst;\n        SellFirst.deletenode(callmarket);\n        SellFirst = selltemp.next();\n        return (selltemp.Price(), selltemp.Sender());\n    }  \n//****************   SellListMaxPrice()  *********************//\n    //SellListMaxPrice function returns the price of the highest priority element (The Lowest ask)\n    function SellListMaxPrice() public  returns (uint256){\n\n        //require(SellFirst != SellList(0),'SellList is empty!'); //throws exception if the minheap (SellList) is empty\n        return (SellFirst.Price());\n    }\n//****************   SellListMaxSender()  *********************//\n    //SellListMaxSender function returns the sender of the highest priority element (The Lowest ask)\n    function SellListMaxSender() public  returns (address){\n\n        //require(SellFirst != SellList(0),'SellList is empty!'); //throws exception if the minheap (SellList) is empty\n        return (SellFirst.Sender());\n    }\n//****************   SellListisEmpty()  *********************//\n    //checks if the SellList is empty\n    function SellListisEmpty() public returns (bool){\n        \n        if (SellFirst == SellList(0))\n        {\n            return true;\n\n        }\n        else\n        {\n            return false;\n        }\n        \n    }\n\n}\n//*****************************************************************//\n//*******************  SellList Contract  ************************//\n//*****************************************************************//\ncontract SellList {\n    SellList public next;\n    address public Sender;\n    uint256 public Price;\n    uint256 public Volume;\n    bool public Exists;\n    uint256 public AuxPrice;\n    \n    constructor(address _sender, uint256 _price, uint256 _volume, bool _exists, uint256 _auxprice) public {\n        \n        Sender = _sender;\n        Price = _price;\n        Volume = _volume;\n        Exists = _exists;\n        AuxPrice = _auxprice;\n        next = SellList(0);\n    }\n\n    function addNew(SellList _askorder) public {\n        \n        next = _askorder;\n       \n    }\n   \n    function deletenode (address payable _callmarket) public {\n\n        selfdestruct(_callmarket);\n        \n    }\n}   \n\n//*****************************************************************//\n//*******************  BuyList Contract  ************************//\n//*****************************************************************//    \n    \ncontract BuyList {\n    BuyList public next;\n    address public Sender;\n    uint256 public Price;\n    uint256 public Volume;\n    bool public Exists;\n    uint256 public AuxPrice;\n    constructor(address _sender, uint256 _price, uint256 _volume, bool _exists, uint256 _auxprice) public {\n        \n        Sender = _sender;\n        Price = _price;\n        Volume = _volume;\n        Exists = _exists;\n        AuxPrice = _auxprice;\n        next = BuyList(0);\n    }\n\n    function addNew(BuyList _bidorder) public {\n        \n        next = _bidorder;\n       \n    }\n   \n\n    function deletenode (address payable _callmarket) public {\n        selfdestruct(_callmarket);\n    }\n} ",
  "sourcePath": "/home/mahsa/ProjectRepo/2020-Orderbook/Code/New-Truffle/contracts/CallMarket/Priority_Queues/PQ4_Linkedlist.sol",
  "compiler": {
    "name": "solc",
    "version": "0.5.12+commit.7709ece9.Emscripten.clang"
  },
  "schemaVersion": "3.2.0",
  "updatedAt": "2020-07-11T19:04:04.286Z",
  "networkType": "ethereum",
  "devdoc": {
    "methods": {}
  },
  "userdoc": {
    "methods": {}
  }
}