{
  "contractName": "PQ4_Linkedlist",
  "abi": [
    {
      "inputs": [
        {
          "internalType": "address",
          "name": "_callmarket",
          "type": "address"
        }
      ],
      "payable": false,
      "stateMutability": "nonpayable",
      "type": "constructor"
    },
    {
      "constant": true,
      "inputs": [],
      "name": "BuyFirst",
      "outputs": [
        {
          "internalType": "contract BuyList",
          "name": "",
          "type": "address"
        }
      ],
      "payable": false,
      "stateMutability": "view",
      "type": "function"
    },
    {
      "constant": true,
      "inputs": [],
      "name": "SellFirst",
      "outputs": [
        {
          "internalType": "contract SellList",
          "name": "",
          "type": "address"
        }
      ],
      "payable": false,
      "stateMutability": "view",
      "type": "function"
    },
    {
      "constant": false,
      "inputs": [
        {
          "internalType": "address",
          "name": "_sender",
          "type": "address"
        },
        {
          "internalType": "uint256",
          "name": "_price",
          "type": "uint256"
        },
        {
          "internalType": "uint256",
          "name": "_volume",
          "type": "uint256"
        },
        {
          "internalType": "uint256",
          "name": "_auxprice",
          "type": "uint256"
        }
      ],
      "name": "InsertBid",
      "outputs": [
        {
          "internalType": "bool",
          "name": "",
          "type": "bool"
        }
      ],
      "payable": false,
      "stateMutability": "nonpayable",
      "type": "function"
    },
    {
      "constant": false,
      "inputs": [],
      "name": "BuyListMaxDelete",
      "outputs": [
        {
          "internalType": "uint256",
          "name": "",
          "type": "uint256"
        },
        {
          "internalType": "address",
          "name": "",
          "type": "address"
        }
      ],
      "payable": false,
      "stateMutability": "nonpayable",
      "type": "function"
    },
    {
      "constant": false,
      "inputs": [],
      "name": "BuyListMaxPrice",
      "outputs": [
        {
          "internalType": "uint256",
          "name": "",
          "type": "uint256"
        }
      ],
      "payable": false,
      "stateMutability": "nonpayable",
      "type": "function"
    },
    {
      "constant": false,
      "inputs": [],
      "name": "BuyListMaxSender",
      "outputs": [
        {
          "internalType": "address",
          "name": "",
          "type": "address"
        }
      ],
      "payable": false,
      "stateMutability": "nonpayable",
      "type": "function"
    },
    {
      "constant": false,
      "inputs": [],
      "name": "BuyListisEmpty",
      "outputs": [
        {
          "internalType": "bool",
          "name": "",
          "type": "bool"
        }
      ],
      "payable": false,
      "stateMutability": "nonpayable",
      "type": "function"
    },
    {
      "constant": false,
      "inputs": [
        {
          "internalType": "address",
          "name": "_sender",
          "type": "address"
        },
        {
          "internalType": "uint256",
          "name": "_price",
          "type": "uint256"
        },
        {
          "internalType": "uint256",
          "name": "_volume",
          "type": "uint256"
        },
        {
          "internalType": "uint256",
          "name": "_auxprice",
          "type": "uint256"
        }
      ],
      "name": "InsertAsk",
      "outputs": [
        {
          "internalType": "bool",
          "name": "",
          "type": "bool"
        }
      ],
      "payable": false,
      "stateMutability": "nonpayable",
      "type": "function"
    },
    {
      "constant": false,
      "inputs": [],
      "name": "SellListMaxDelete",
      "outputs": [
        {
          "internalType": "uint256",
          "name": "",
          "type": "uint256"
        },
        {
          "internalType": "address",
          "name": "",
          "type": "address"
        }
      ],
      "payable": false,
      "stateMutability": "nonpayable",
      "type": "function"
    },
    {
      "constant": false,
      "inputs": [],
      "name": "SellListMaxPrice",
      "outputs": [
        {
          "internalType": "uint256",
          "name": "",
          "type": "uint256"
        }
      ],
      "payable": false,
      "stateMutability": "nonpayable",
      "type": "function"
    },
    {
      "constant": false,
      "inputs": [],
      "name": "SellListMaxSender",
      "outputs": [
        {
          "internalType": "address",
          "name": "",
          "type": "address"
        }
      ],
      "payable": false,
      "stateMutability": "nonpayable",
      "type": "function"
    },
    {
      "constant": false,
      "inputs": [],
      "name": "SellListisEmpty",
      "outputs": [
        {
          "internalType": "bool",
          "name": "",
          "type": "bool"
        }
      ],
      "payable": false,
      "stateMutability": "nonpayable",
      "type": "function"
    }
  ],
  "bytecode": "0x60806040523480156200001157600080fd5b5060405162002b7238038062002b72833981810160405262000037919081019062000119565b80600460006101000a81548173ffffffffffffffffffffffffffffffffffffffff021916908373ffffffffffffffffffffffffffffffffffffffff16021790555060008060006101000a81548173ffffffffffffffffffffffffffffffffffffffff021916908373ffffffffffffffffffffffffffffffffffffffff1602179055506000600160006101000a81548173ffffffffffffffffffffffffffffffffffffffff021916908373ffffffffffffffffffffffffffffffffffffffff1602179055505062000193565b600081519050620001138162000179565b92915050565b6000602082840312156200012c57600080fd5b60006200013c8482850162000102565b91505092915050565b6000620001528262000159565b9050919050565b600073ffffffffffffffffffffffffffffffffffffffff82169050919050565b620001848162000145565b81146200019057600080fd5b50565b6129cf80620001a36000396000f3fe60806040523480156200001157600080fd5b5060043610620000c45760003560e01c806364d4497b116200007b57806364d4497b1462000197578063657ffc3c14620001b9578063ccde53ca14620001db578063d735b05f1462000211578063d98ed4811462000247578063fbaf01c7146200026957620000c4565b806309ab210a14620000c95780630b21881b14620000eb57806315991626146200010e5780631ae48276146200013057806339f3b8a314620001525780635cbe5bed1462000175575b600080fd5b620000d36200028b565b604051620000e2919062001a06565b60405180910390f35b620000f5620002f5565b6040516200010592919062001abe565b60405180910390f35b62000118620006d3565b60405162000127919062001aa1565b60405180910390f35b6200013a62000810565b60405162000149919062001a40565b60405180910390f35b6200015c62000835565b6040516200016c92919062001abe565b60405180910390f35b6200017f62000c17565b6040516200018e919062001aa1565b60405180910390f35b620001a162000d56565b604051620001b091906200196f565b60405180910390f35b620001c362000e95565b604051620001d291906200196f565b60405180910390f35b620001f96004803603620001f3919081019062001795565b62000fd2565b60405162000208919062001a06565b60405180910390f35b6200022f600480360362000229919081019062001795565b62001301565b6040516200023e919062001a06565b60405180910390f35b6200025162001632565b60405162000260919062001a06565b60405180910390f35b620002736200169d565b60405162000282919062001a23565b60405180910390f35b60008073ffffffffffffffffffffffffffffffffffffffff166000809054906101000a900473ffffffffffffffffffffffffffffffffffffffff1673ffffffffffffffffffffffffffffffffffffffff161415620002ed5760019050620002f2565b600090505b90565b600080600073ffffffffffffffffffffffffffffffffffffffff166000809054906101000a900473ffffffffffffffffffffffffffffffffffffffff1673ffffffffffffffffffffffffffffffffffffffff1614156200038c576040517f08c379a0000000000000000000000000000000000000000000000000000000008152600401620003839062001a7f565b60405180910390fd5b6000809054906101000a900473ffffffffffffffffffffffffffffffffffffffff16600260006101000a81548173ffffffffffffffffffffffffffffffffffffffff021916908373ffffffffffffffffffffffffffffffffffffffff1602179055506000809054906101000a900473ffffffffffffffffffffffffffffffffffffffff1673ffffffffffffffffffffffffffffffffffffffff1663af243cd4600460009054906101000a900473ffffffffffffffffffffffffffffffffffffffff166040518263ffffffff1660e01b81526004016200046c91906200198c565b600060405180830381600087803b1580156200048757600080fd5b505af11580156200049c573d6000803e3d6000fd5b50505050600260009054906101000a900473ffffffffffffffffffffffffffffffffffffffff1673ffffffffffffffffffffffffffffffffffffffff16634c8fe5266040518163ffffffff1660e01b815260040160206040518083038186803b1580156200050957600080fd5b505afa1580156200051e573d6000803e3d6000fd5b505050506040513d601f19601f820116820180604052506200054491908101906200182d565b6000806101000a81548173ffffffffffffffffffffffffffffffffffffffff021916908373ffffffffffffffffffffffffffffffffffffffff160217905550600260009054906101000a900473ffffffffffffffffffffffffffffffffffffffff1673ffffffffffffffffffffffffffffffffffffffff16639dfde2016040518163ffffffff1660e01b815260040160206040518083038186803b158015620005ec57600080fd5b505afa15801562000601573d6000803e3d6000fd5b505050506040513d601f19601f8201168201806040525062000627919081019062001859565b600260009054906101000a900473ffffffffffffffffffffffffffffffffffffffff1673ffffffffffffffffffffffffffffffffffffffff1663eea96c576040518163ffffffff1660e01b815260040160206040518083038186803b1580156200069057600080fd5b505afa158015620006a5573d6000803e3d6000fd5b505050506040513d601f19601f82011682018060405250620006cb919081019062001769565b915091509091565b60008073ffffffffffffffffffffffffffffffffffffffff166000809054906101000a900473ffffffffffffffffffffffffffffffffffffffff1673ffffffffffffffffffffffffffffffffffffffff16141562000768576040517f08c379a00000000000000000000000000000000000000000000000000000000081526004016200075f9062001a7f565b60405180910390fd5b6000809054906101000a900473ffffffffffffffffffffffffffffffffffffffff1673ffffffffffffffffffffffffffffffffffffffff16639dfde2016040518163ffffffff1660e01b815260040160206040518083038186803b158015620007d057600080fd5b505afa158015620007e5573d6000803e3d6000fd5b505050506040513d601f19601f820116820180604052506200080b919081019062001859565b905090565b6000809054906101000a900473ffffffffffffffffffffffffffffffffffffffff1681565b600080600073ffffffffffffffffffffffffffffffffffffffff16600160009054906101000a900473ffffffffffffffffffffffffffffffffffffffff1673ffffffffffffffffffffffffffffffffffffffff161415620008cd576040517f08c379a0000000000000000000000000000000000000000000000000000000008152600401620008c49062001a5d565b60405180910390fd5b600160009054906101000a900473ffffffffffffffffffffffffffffffffffffffff16600360006101000a81548173ffffffffffffffffffffffffffffffffffffffff021916908373ffffffffffffffffffffffffffffffffffffffff160217905550600160009054906101000a900473ffffffffffffffffffffffffffffffffffffffff1673ffffffffffffffffffffffffffffffffffffffff1663af243cd4600460009054906101000a900473ffffffffffffffffffffffffffffffffffffffff166040518263ffffffff1660e01b8152600401620009af91906200198c565b600060405180830381600087803b158015620009ca57600080fd5b505af1158015620009df573d6000803e3d6000fd5b50505050600360009054906101000a900473ffffffffffffffffffffffffffffffffffffffff1673ffffffffffffffffffffffffffffffffffffffff16634c8fe5266040518163ffffffff1660e01b815260040160206040518083038186803b15801562000a4c57600080fd5b505afa15801562000a61573d6000803e3d6000fd5b505050506040513d601f19601f8201168201806040525062000a87919081019062001801565b600160006101000a81548173ffffffffffffffffffffffffffffffffffffffff021916908373ffffffffffffffffffffffffffffffffffffffff160217905550600360009054906101000a900473ffffffffffffffffffffffffffffffffffffffff1673ffffffffffffffffffffffffffffffffffffffff16639dfde2016040518163ffffffff1660e01b815260040160206040518083038186803b15801562000b3057600080fd5b505afa15801562000b45573d6000803e3d6000fd5b505050506040513d601f19601f8201168201806040525062000b6b919081019062001859565b600360009054906101000a900473ffffffffffffffffffffffffffffffffffffffff1673ffffffffffffffffffffffffffffffffffffffff1663eea96c576040518163ffffffff1660e01b815260040160206040518083038186803b15801562000bd457600080fd5b505afa15801562000be9573d6000803e3d6000fd5b505050506040513d601f19601f8201168201806040525062000c0f919081019062001769565b915091509091565b60008073ffffffffffffffffffffffffffffffffffffffff16600160009054906101000a900473ffffffffffffffffffffffffffffffffffffffff1673ffffffffffffffffffffffffffffffffffffffff16141562000cad576040517f08c379a000000000000000000000000000000000000000000000000000000000815260040162000ca49062001a5d565b60405180910390fd5b600160009054906101000a900473ffffffffffffffffffffffffffffffffffffffff1673ffffffffffffffffffffffffffffffffffffffff16639dfde2016040518163ffffffff1660e01b815260040160206040518083038186803b15801562000d1657600080fd5b505afa15801562000d2b573d6000803e3d6000fd5b505050506040513d601f19601f8201168201806040525062000d51919081019062001859565b905090565b60008073ffffffffffffffffffffffffffffffffffffffff16600160009054906101000a900473ffffffffffffffffffffffffffffffffffffffff1673ffffffffffffffffffffffffffffffffffffffff16141562000dec576040517f08c379a000000000000000000000000000000000000000000000000000000000815260040162000de39062001a5d565b60405180910390fd5b600160009054906101000a900473ffffffffffffffffffffffffffffffffffffffff1673ffffffffffffffffffffffffffffffffffffffff1663eea96c576040518163ffffffff1660e01b815260040160206040518083038186803b15801562000e5557600080fd5b505afa15801562000e6a573d6000803e3d6000fd5b505050506040513d601f19601f8201168201806040525062000e90919081019062001769565b905090565b60008073ffffffffffffffffffffffffffffffffffffffff166000809054906101000a900473ffffffffffffffffffffffffffffffffffffffff1673ffffffffffffffffffffffffffffffffffffffff16141562000f2a576040517f08c379a000000000000000000000000000000000000000000000000000000000815260040162000f219062001a7f565b60405180910390fd5b6000809054906101000a900473ffffffffffffffffffffffffffffffffffffffff1673ffffffffffffffffffffffffffffffffffffffff1663eea96c576040518163ffffffff1660e01b815260040160206040518083038186803b15801562000f9257600080fd5b505afa15801562000fa7573d6000803e3d6000fd5b505050506040513d601f19601f8201168201806040525062000fcd919081019062001769565b905090565b60008085858560018660405162000fe990620016c3565b62000ff9959493929190620019a9565b604051809103906000f08015801562001016573d6000803e3d6000fd5b50905060008060009054906101000a900473ffffffffffffffffffffffffffffffffffffffff16905060008090505b600073ffffffffffffffffffffffffffffffffffffffff168273ffffffffffffffffffffffffffffffffffffffff16141580156200110457508173ffffffffffffffffffffffffffffffffffffffff1663f6c177846040518163ffffffff1660e01b815260040160206040518083038186803b158015620010c557600080fd5b505afa158015620010da573d6000803e3d6000fd5b505050506040513d601f19601f8201168201806040525062001100919081019062001859565b8510155b1562001197578190508173ffffffffffffffffffffffffffffffffffffffff16634c8fe5266040518163ffffffff1660e01b815260040160206040518083038186803b1580156200115457600080fd5b505afa15801562001169573d6000803e3d6000fd5b505050506040513d601f19601f820116820180604052506200118f91908101906200182d565b915062001045565b600073ffffffffffffffffffffffffffffffffffffffff168173ffffffffffffffffffffffffffffffffffffffff1614156200121357826000806101000a81548173ffffffffffffffffffffffffffffffffffffffff021916908373ffffffffffffffffffffffffffffffffffffffff16021790555062001283565b8073ffffffffffffffffffffffffffffffffffffffff1663d7ef453f846040518263ffffffff1660e01b81526004016200124e919062001a40565b600060405180830381600087803b1580156200126957600080fd5b505af11580156200127e573d6000803e3d6000fd5b505050505b8273ffffffffffffffffffffffffffffffffffffffff1663d7ef453f836040518263ffffffff1660e01b8152600401620012be919062001a40565b600060405180830381600087803b158015620012d957600080fd5b505af1158015620012ee573d6000803e3d6000fd5b5050505060019350505050949350505050565b6000808585856001866040516200131890620016d1565b62001328959493929190620019a9565b604051809103906000f08015801562001345573d6000803e3d6000fd5b5090506000600160009054906101000a900473ffffffffffffffffffffffffffffffffffffffff16905060008090505b600073ffffffffffffffffffffffffffffffffffffffff168273ffffffffffffffffffffffffffffffffffffffff16141580156200143457508173ffffffffffffffffffffffffffffffffffffffff1663f6c177846040518163ffffffff1660e01b815260040160206040518083038186803b158015620013f557600080fd5b505afa1580156200140a573d6000803e3d6000fd5b505050506040513d601f19601f8201168201806040525062001430919081019062001859565b8511155b15620014c7578190508173ffffffffffffffffffffffffffffffffffffffff16634c8fe5266040518163ffffffff1660e01b815260040160206040518083038186803b1580156200148457600080fd5b505afa15801562001499573d6000803e3d6000fd5b505050506040513d601f19601f82011682018060405250620014bf919081019062001801565b915062001375565b600073ffffffffffffffffffffffffffffffffffffffff168173ffffffffffffffffffffffffffffffffffffffff161415620015445782600160006101000a81548173ffffffffffffffffffffffffffffffffffffffff021916908373ffffffffffffffffffffffffffffffffffffffff160217905550620015b4565b8073ffffffffffffffffffffffffffffffffffffffff1663d7ef453f846040518263ffffffff1660e01b81526004016200157f919062001a23565b600060405180830381600087803b1580156200159a57600080fd5b505af1158015620015af573d6000803e3d6000fd5b505050505b8273ffffffffffffffffffffffffffffffffffffffff1663d7ef453f836040518263ffffffff1660e01b8152600401620015ef919062001a23565b600060405180830381600087803b1580156200160a57600080fd5b505af11580156200161f573d6000803e3d6000fd5b5050505060019350505050949350505050565b60008073ffffffffffffffffffffffffffffffffffffffff16600160009054906101000a900473ffffffffffffffffffffffffffffffffffffffff1673ffffffffffffffffffffffffffffffffffffffff1614156200169557600190506200169a565b600090505b90565b600160009054906101000a900473ffffffffffffffffffffffffffffffffffffffff1681565b6106a98062001c3b83390190565b6106a980620022e483390190565b600081359050620016f08162001bd2565b92915050565b600081519050620017078162001bd2565b92915050565b6000815190506200171e8162001bec565b92915050565b600081519050620017358162001c06565b92915050565b6000813590506200174c8162001c20565b92915050565b600081519050620017638162001c20565b92915050565b6000602082840312156200177c57600080fd5b60006200178c84828501620016f6565b91505092915050565b60008060008060808587031215620017ac57600080fd5b6000620017bc87828801620016df565b9450506020620017cf878288016200173b565b9350506040620017e2878288016200173b565b9250506060620017f5878288016200173b565b91505092959194509250565b6000602082840312156200181457600080fd5b600062001824848285016200170d565b91505092915050565b6000602082840312156200184057600080fd5b6000620018508482850162001724565b91505092915050565b6000602082840312156200186c57600080fd5b60006200187c8482850162001752565b91505092915050565b620018908162001b10565b82525050565b620018a18162001afc565b82525050565b620018b28162001b24565b82525050565b620018c38162001b82565b82525050565b620018d48162001baa565b82525050565b6000620018e960118362001aeb565b91507f4275794c69737420697320656d707479210000000000000000000000000000006000830152602082019050919050565b60006200192b60128362001aeb565b91507f53656c6c4c69737420697320656d7074792100000000000000000000000000006000830152602082019050919050565b620019698162001b78565b82525050565b600060208201905062001986600083018462001896565b92915050565b6000602082019050620019a3600083018462001885565b92915050565b600060a082019050620019c0600083018862001896565b620019cf60208301876200195e565b620019de60408301866200195e565b620019ed6060830185620018a7565b620019fc60808301846200195e565b9695505050505050565b600060208201905062001a1d6000830184620018a7565b92915050565b600060208201905062001a3a6000830184620018b8565b92915050565b600060208201905062001a576000830184620018c9565b92915050565b6000602082019050818103600083015262001a7881620018da565b9050919050565b6000602082019050818103600083015262001a9a816200191c565b9050919050565b600060208201905062001ab860008301846200195e565b92915050565b600060408201905062001ad560008301856200195e565b62001ae4602083018462001896565b9392505050565b600082825260208201905092915050565b600062001b098262001b58565b9050919050565b600062001b1d8262001b58565b9050919050565b60008115159050919050565b600062001b3d8262001afc565b9050919050565b600062001b518262001afc565b9050919050565b600073ffffffffffffffffffffffffffffffffffffffff82169050919050565b6000819050919050565b600062001b8f8262001b96565b9050919050565b600062001ba38262001b58565b9050919050565b600062001bb78262001bbe565b9050919050565b600062001bcb8262001b58565b9050919050565b62001bdd8162001afc565b811462001be957600080fd5b50565b62001bf78162001b30565b811462001c0357600080fd5b50565b62001c118162001b44565b811462001c1d57600080fd5b50565b62001c2b8162001b78565b811462001c3757600080fd5b5056fe608060405234801561001057600080fd5b506040516106a93803806106a98339818101604052610032919081019061012c565b84600160006101000a81548173ffffffffffffffffffffffffffffffffffffffff021916908373ffffffffffffffffffffffffffffffffffffffff160217905550836002819055508260038190555081600460006101000a81548160ff0219169083151502179055508060058190555060008060006101000a81548173ffffffffffffffffffffffffffffffffffffffff021916908373ffffffffffffffffffffffffffffffffffffffff1602179055505050505050610230565b6000815190506100fc816101eb565b92915050565b60008151905061011181610202565b92915050565b60008151905061012681610219565b92915050565b600080600080600060a0868803121561014457600080fd5b6000610152888289016100ed565b955050602061016388828901610117565b945050604061017488828901610117565b935050606061018588828901610102565b925050608061019688828901610117565b9150509295509295909350565b60006101ae826101c1565b9050919050565b60008115159050919050565b600073ffffffffffffffffffffffffffffffffffffffff82169050919050565b6000819050919050565b6101f4816101a3565b81146101ff57600080fd5b50565b61020b816101b5565b811461021657600080fd5b50565b610222816101e1565b811461022d57600080fd5b50565b61046a8061023f6000396000f3fe608060405234801561001057600080fd5b50600436106100885760003560e01c8063af243cd41161005b578063af243cd414610105578063d7ef453f14610121578063eea96c571461013d578063f6c177841461015b57610088565b80633baad3921461008d5780634c8fe526146100ab578063846ec056146100c95780639dfde201146100e7575b600080fd5b610095610179565b6040516100a2919061034e565b60405180910390f35b6100b361017f565b6040516100c09190610333565b60405180910390f35b6100d16101a4565b6040516100de9190610318565b60405180910390f35b6100ef6101b7565b6040516100fc919061034e565b60405180910390f35b61011f600480360361011a919081019061026f565b6101bd565b005b61013b60048036036101369190810190610298565b6101d6565b005b610145610219565b60405161015291906102fd565b60405180910390f35b61016361023f565b604051610170919061034e565b60405180910390f35b60035481565b6000809054906101000a900473ffffffffffffffffffffffffffffffffffffffff1681565b600460009054906101000a900460ff1681565b60025481565b8073ffffffffffffffffffffffffffffffffffffffff16ff5b806000806101000a81548173ffffffffffffffffffffffffffffffffffffffff021916908373ffffffffffffffffffffffffffffffffffffffff16021790555050565b600160009054906101000a900473ffffffffffffffffffffffffffffffffffffffff1681565b60055481565b600081359050610254816103f9565b92915050565b60008135905061026981610410565b92915050565b60006020828403121561028157600080fd5b600061028f84828501610245565b91505092915050565b6000602082840312156102aa57600080fd5b60006102b88482850161025a565b91505092915050565b6102ca81610369565b82525050565b6102d98161038d565b82525050565b6102e8816103d5565b82525050565b6102f7816103cb565b82525050565b600060208201905061031260008301846102c1565b92915050565b600060208201905061032d60008301846102d0565b92915050565b600060208201905061034860008301846102df565b92915050565b600060208201905061036360008301846102ee565b92915050565b6000610374826103ab565b9050919050565b6000610386826103ab565b9050919050565b60008115159050919050565b60006103a482610369565b9050919050565b600073ffffffffffffffffffffffffffffffffffffffff82169050919050565b6000819050919050565b60006103e0826103e7565b9050919050565b60006103f2826103ab565b9050919050565b6104028161037b565b811461040d57600080fd5b50565b61041981610399565b811461042457600080fd5b5056fea365627a7a72315820a67da0e2915a8eb038b6fdae04ef224a3becd766978b78c952117e25eefecda26c6578706572696d656e74616cf564736f6c634300050c0040608060405234801561001057600080fd5b506040516106a93803806106a98339818101604052610032919081019061012c565b84600160006101000a81548173ffffffffffffffffffffffffffffffffffffffff021916908373ffffffffffffffffffffffffffffffffffffffff160217905550836002819055508260038190555081600460006101000a81548160ff0219169083151502179055508060058190555060008060006101000a81548173ffffffffffffffffffffffffffffffffffffffff021916908373ffffffffffffffffffffffffffffffffffffffff1602179055505050505050610230565b6000815190506100fc816101eb565b92915050565b60008151905061011181610202565b92915050565b60008151905061012681610219565b92915050565b600080600080600060a0868803121561014457600080fd5b6000610152888289016100ed565b955050602061016388828901610117565b945050604061017488828901610117565b935050606061018588828901610102565b925050608061019688828901610117565b9150509295509295909350565b60006101ae826101c1565b9050919050565b60008115159050919050565b600073ffffffffffffffffffffffffffffffffffffffff82169050919050565b6000819050919050565b6101f4816101a3565b81146101ff57600080fd5b50565b61020b816101b5565b811461021657600080fd5b50565b610222816101e1565b811461022d57600080fd5b50565b61046a8061023f6000396000f3fe608060405234801561001057600080fd5b50600436106100885760003560e01c8063af243cd41161005b578063af243cd414610105578063d7ef453f14610121578063eea96c571461013d578063f6c177841461015b57610088565b80633baad3921461008d5780634c8fe526146100ab578063846ec056146100c95780639dfde201146100e7575b600080fd5b610095610179565b6040516100a2919061034e565b60405180910390f35b6100b361017f565b6040516100c09190610333565b60405180910390f35b6100d16101a4565b6040516100de9190610318565b60405180910390f35b6100ef6101b7565b6040516100fc919061034e565b60405180910390f35b61011f600480360361011a919081019061026f565b6101bd565b005b61013b60048036036101369190810190610298565b6101d6565b005b610145610219565b60405161015291906102fd565b60405180910390f35b61016361023f565b604051610170919061034e565b60405180910390f35b60035481565b6000809054906101000a900473ffffffffffffffffffffffffffffffffffffffff1681565b600460009054906101000a900460ff1681565b60025481565b8073ffffffffffffffffffffffffffffffffffffffff16ff5b806000806101000a81548173ffffffffffffffffffffffffffffffffffffffff021916908373ffffffffffffffffffffffffffffffffffffffff16021790555050565b600160009054906101000a900473ffffffffffffffffffffffffffffffffffffffff1681565b60055481565b600081359050610254816103f9565b92915050565b60008135905061026981610410565b92915050565b60006020828403121561028157600080fd5b600061028f84828501610245565b91505092915050565b6000602082840312156102aa57600080fd5b60006102b88482850161025a565b91505092915050565b6102ca81610369565b82525050565b6102d98161038d565b82525050565b6102e8816103d5565b82525050565b6102f7816103cb565b82525050565b600060208201905061031260008301846102c1565b92915050565b600060208201905061032d60008301846102d0565b92915050565b600060208201905061034860008301846102df565b92915050565b600060208201905061036360008301846102ee565b92915050565b6000610374826103ab565b9050919050565b6000610386826103ab565b9050919050565b60008115159050919050565b60006103a482610369565b9050919050565b600073ffffffffffffffffffffffffffffffffffffffff82169050919050565b6000819050919050565b60006103e0826103e7565b9050919050565b60006103f2826103ab565b9050919050565b6104028161037b565b811461040d57600080fd5b50565b61041981610399565b811461042457600080fd5b5056fea365627a7a72315820146a4eb2afb117db093f520ea63b85e77387e2db0a6faca48d9f15c5faa8d9f06c6578706572696d656e74616cf564736f6c634300050c0040a365627a7a723158205c5af19d0a32d2768395c15f966a6b13d7d3c57b8cfec0f01cc350fb2d8eb7be6c6578706572696d656e74616cf564736f6c634300050c0040",
  "source": "//pragma solidity >=0.4.22;\npragma solidity 0.5.12;\n\npragma experimental ABIEncoderV2;\n\n//Linkedlist wrapped in a priority queue\n\ncontract PQ4_Linkedlist{\n    \n    SellList public SellFirst;\n    BuyList public BuyFirst;\n    SellList internal selltemp;\n    BuyList internal buytemp;\n    address payable callmarket;\n\n\n    constructor (address _callmarket) public {\n        callmarket = address(uint160(_callmarket));\n        SellFirst = SellList(0);\n        BuyFirst = BuyList(0);\n    }\n//******************** InsertBid() function ********************//\n    //A new buy order will be added in its right position in the list\n    function InsertBid(address _sender, uint256 _price, uint256 _volume, uint256 _auxprice) public returns (bool)\n    {\n        BuyList newitem = new BuyList (_sender, _price , _volume, true, _auxprice);\n        BuyList current = BuyFirst; \n        BuyList previous = BuyList(0);\n        \n        //we iterate through our list with 2 conditions:\n        while (current != BuyList(0) && _auxprice <= current.AuxPrice()) //The linkedlist is sorted in an descending order (descreasing)\n        {\n            previous = current;\n            current = current.next();\n            // we only exit this loop if we find the position to insert our data;\n        } \n        //now if we have to check if we have to insert the node to the begining of the list:\n        if (previous == BuyList(0)) //it means the current is equal to first and in that case we have to insert the node as a new head\n        {\n            BuyFirst = newitem; \n        }\n        else //the node next to the privious is no longer the current but it's our new node\n        {\n            previous.addNew(newitem);\n        }\n        \n        //and in all cases regardless of if it's a first node or not, we must say we have to say the node next to our new node is current\n        \n        newitem.addNew(current);\n        return true;\n    }\n//******************** BuyListMaxDelete() function ********************//    \n    //the highest priority item will be removed from the list and is returned by the function\n    function BuyListMaxDelete() public returns(uint256, address) \n    {\n        require (BuyFirst != BuyList(0), 'BuyList is empty!'); //throws exception if the maxheap (BuyList) is empty\n        buytemp = BuyFirst;\n        BuyFirst.deletenode(callmarket);\n        BuyFirst = buytemp.next();\n        return (buytemp.Price(), buytemp.Sender());\n    }\n//****************   BuyListMaxPrice()  *********************//\n    //BuyListMaxPrice function returns the price of the highest priority element (The highest bid)\n    function BuyListMaxPrice() public  returns (uint256){\n        \n        require (BuyFirst != BuyList(0), 'BuyList is empty!'); //throws exception if the maxheap (BuyList) is empty\n        return (BuyFirst.Price());\n        \n    }\n//****************   BuyListMaxSender()  *********************//\n    //BuyListMaxSender function returns the sender of the highest priority element (The highest bid)\n    function BuyListMaxSender() public  returns (address){\n        \n        require (BuyFirst != BuyList(0), 'BuyList is empty!'); //throws exception if the maxheap (BuyList) is empty\n        return (BuyFirst.Sender());\n        \n    }\n//****************   BuyListisEmpty()  *********************//\n    //checks if the BuyList is empty \n    function BuyListisEmpty() public returns (bool){\n        \n        if (BuyFirst == BuyList(0))\n        {\n            return true;\n\n        }\n        else\n        {\n            return false;\n        }\n        \n    }\n\n//*******************  InsertAsk() ***************************//\n    //A new sell order will be added in its right position in the list\n    function InsertAsk (address _sender, uint256 _price, uint256 _volume, uint256 _auxprice) public returns (bool)\n    {\n        SellList newitem = new SellList (_sender, _price , _volume, true, _auxprice);\n        SellList current = SellFirst; \n        SellList previous = SellList(0);\n        \n        //we iterate through our list with 2 conditions:\n        while (current != SellList(0) && _auxprice >= current.AuxPrice()) //The linkedlist is sorted in an ascending order (increasing)\n        {\n            previous = current;\n            current = current.next();\n            // we only exit this loop if we find the position to insert our data;\n        } \n        //now if we have to check if we have to insert the node to the begining of the list:\n        if (previous == SellList(0)) //it means the current is equal to first and in that case we have to insert the node as a new head\n        {\n            SellFirst = newitem; \n        }\n        else //the node next to the privious is no longer the current but it's our new node\n        {\n            previous.addNew(newitem);\n        }\n        \n        //and in all cases regardless of if it's a first node or not, we must say we have to say the node next to our new node is current\n        \n        newitem.addNew(current);\n        return true; \n    }  \n//*******************  SellListMaxDelete () ***************************//\n    //the highest priority item (the smallest ask) will be removed from the list and is returned by the function\n    function SellListMaxDelete() public returns (uint256, address)\n    {\n        require(SellFirst != SellList(0),'SellList is empty!'); //throws exception if the minheap (SellList) is empty\n        selltemp = SellFirst;\n        SellFirst.deletenode(callmarket);\n        SellFirst = selltemp.next();\n        return (selltemp.Price(), selltemp.Sender());\n    }  \n//****************   SellListMaxPrice()  *********************//\n    //SellListMaxPrice function returns the price of the highest priority element (The Lowest ask)\n    function SellListMaxPrice() public  returns (uint256){\n\n        require(SellFirst != SellList(0),'SellList is empty!'); //throws exception if the minheap (SellList) is empty\n        return (SellFirst.Price());\n    }\n//****************   SellListMaxSender()  *********************//\n    //SellListMaxSender function returns the sender of the highest priority element (The Lowest ask)\n    function SellListMaxSender() public  returns (address){\n\n        require(SellFirst != SellList(0),'SellList is empty!'); //throws exception if the minheap (SellList) is empty\n        return (SellFirst.Sender());\n    }\n//****************   SellListisEmpty()  *********************//\n    //checks if the SellList is empty\n    function SellListisEmpty() public returns (bool){\n        \n        if (SellFirst == SellList(0))\n        {\n            return true;\n\n        }\n        else\n        {\n            return false;\n        }\n        \n    }\n\n}\n//*****************************************************************//\n//*******************  SellList Contract  ************************//\n//*****************************************************************//\ncontract SellList {\n    SellList public next;\n    address public Sender;\n    uint256 public Price;\n    uint256 public Volume;\n    bool public Exists;\n    uint256 public AuxPrice;\n    \n    constructor(address _sender, uint256 _price, uint256 _volume, bool _exists, uint256 _auxprice) public {\n        \n        Sender = _sender;\n        Price = _price;\n        Volume = _volume;\n        Exists = _exists;\n        AuxPrice = _auxprice;\n        next = SellList(0);\n    }\n\n    function addNew(SellList _askorder) public {\n        \n        next = _askorder;\n       \n    }\n   \n    function deletenode (address payable _callmarket) public {\n\n        selfdestruct(_callmarket);\n        \n    }\n    \n    \n}   \n\n//*****************************************************************//\n//*******************  BuyList Contract  ************************//\n//*****************************************************************//    \n    \ncontract BuyList {\n    BuyList public next;\n    address public Sender;\n    uint256 public Price;\n    uint256 public Volume;\n    bool public Exists;\n    uint256 public AuxPrice;\n    \n    constructor(address _sender, uint256 _price, uint256 _volume, bool _exists, uint256 _auxprice) public {\n        \n        Sender = _sender;\n        Price = _price;\n        Volume = _volume;\n        Exists = _exists;\n        AuxPrice = _auxprice;\n        next = BuyList(0);\n    }\n\n    function addNew(BuyList _bidorder) public {\n        \n        next = _bidorder;\n       \n    }\n\n    function deletenode (address payable _callmarket) public {\n        selfdestruct(_callmarket);\n    }\n} ",
  "sourcePath": "/home/mahsa/ProjectRepo/2020-Orderbook/Code/New-Truffle/contracts/CallMarket/Priority_Queues/PQ4_Linkedlist.sol",
  "compiler": {
    "name": "solc",
    "version": "0.5.12+commit.7709ece9.Emscripten.clang"
  },
  "schemaVersion": "3.0.2",
  "updatedAt": "2020-09-10T15:44:06.778Z",
  "devdoc": {
    "methods": {}
  },
  "userdoc": {
    "methods": {}
  }
}