{
  "contractName": "PQ5_Linkedlist_Mapping",
  "abi": [
    {
      "inputs": [],
      "payable": false,
      "stateMutability": "nonpayable",
      "type": "constructor"
    },
    {
      "constant": true,
      "inputs": [],
      "name": "BuyHead",
      "outputs": [
        {
          "internalType": "uint256",
          "name": "",
          "type": "uint256"
        }
      ],
      "payable": false,
      "stateMutability": "view",
      "type": "function"
    },
    {
      "constant": true,
      "inputs": [
        {
          "internalType": "uint256",
          "name": "",
          "type": "uint256"
        }
      ],
      "name": "BuyList",
      "outputs": [
        {
          "internalType": "address",
          "name": "Sender",
          "type": "address"
        },
        {
          "internalType": "uint256",
          "name": "Price",
          "type": "uint256"
        },
        {
          "internalType": "uint256",
          "name": "Volume",
          "type": "uint256"
        },
        {
          "internalType": "bool",
          "name": "Exists",
          "type": "bool"
        },
        {
          "internalType": "uint256",
          "name": "AuxPrice",
          "type": "uint256"
        },
        {
          "internalType": "uint256",
          "name": "id",
          "type": "uint256"
        },
        {
          "internalType": "uint256",
          "name": "next",
          "type": "uint256"
        },
        {
          "internalType": "uint256",
          "name": "prev",
          "type": "uint256"
        }
      ],
      "payable": false,
      "stateMutability": "view",
      "type": "function"
    },
    {
      "constant": true,
      "inputs": [],
      "name": "BuyListCounter",
      "outputs": [
        {
          "internalType": "uint256",
          "name": "",
          "type": "uint256"
        }
      ],
      "payable": false,
      "stateMutability": "view",
      "type": "function"
    },
    {
      "constant": true,
      "inputs": [],
      "name": "BuyTail",
      "outputs": [
        {
          "internalType": "uint256",
          "name": "",
          "type": "uint256"
        }
      ],
      "payable": false,
      "stateMutability": "view",
      "type": "function"
    },
    {
      "constant": true,
      "inputs": [],
      "name": "SellHead",
      "outputs": [
        {
          "internalType": "uint256",
          "name": "",
          "type": "uint256"
        }
      ],
      "payable": false,
      "stateMutability": "view",
      "type": "function"
    },
    {
      "constant": true,
      "inputs": [
        {
          "internalType": "uint256",
          "name": "",
          "type": "uint256"
        }
      ],
      "name": "SellList",
      "outputs": [
        {
          "internalType": "address",
          "name": "Sender",
          "type": "address"
        },
        {
          "internalType": "uint256",
          "name": "Price",
          "type": "uint256"
        },
        {
          "internalType": "uint256",
          "name": "Volume",
          "type": "uint256"
        },
        {
          "internalType": "bool",
          "name": "Exists",
          "type": "bool"
        },
        {
          "internalType": "uint256",
          "name": "AuxPrice",
          "type": "uint256"
        },
        {
          "internalType": "uint256",
          "name": "id",
          "type": "uint256"
        },
        {
          "internalType": "uint256",
          "name": "next",
          "type": "uint256"
        },
        {
          "internalType": "uint256",
          "name": "prev",
          "type": "uint256"
        }
      ],
      "payable": false,
      "stateMutability": "view",
      "type": "function"
    },
    {
      "constant": true,
      "inputs": [],
      "name": "SellTail",
      "outputs": [
        {
          "internalType": "uint256",
          "name": "",
          "type": "uint256"
        }
      ],
      "payable": false,
      "stateMutability": "view",
      "type": "function"
    },
    {
      "constant": true,
      "inputs": [],
      "name": "SellistCounter",
      "outputs": [
        {
          "internalType": "uint256",
          "name": "",
          "type": "uint256"
        }
      ],
      "payable": false,
      "stateMutability": "view",
      "type": "function"
    },
    {
      "constant": false,
      "inputs": [
        {
          "internalType": "address",
          "name": "_sender",
          "type": "address"
        },
        {
          "internalType": "uint256",
          "name": "_price",
          "type": "uint256"
        },
        {
          "internalType": "uint256",
          "name": "_volume",
          "type": "uint256"
        },
        {
          "internalType": "uint256",
          "name": "_auxprice",
          "type": "uint256"
        }
      ],
      "name": "InsertBid",
      "outputs": [
        {
          "internalType": "bool",
          "name": "",
          "type": "bool"
        }
      ],
      "payable": false,
      "stateMutability": "nonpayable",
      "type": "function"
    },
    {
      "constant": false,
      "inputs": [],
      "name": "BuyListMaxPrice",
      "outputs": [
        {
          "internalType": "uint256",
          "name": "",
          "type": "uint256"
        }
      ],
      "payable": false,
      "stateMutability": "nonpayable",
      "type": "function"
    },
    {
      "constant": false,
      "inputs": [],
      "name": "BuyListMaxSender",
      "outputs": [
        {
          "internalType": "address",
          "name": "",
          "type": "address"
        }
      ],
      "payable": false,
      "stateMutability": "nonpayable",
      "type": "function"
    },
    {
      "constant": false,
      "inputs": [],
      "name": "BuyListMaxDelete",
      "outputs": [
        {
          "internalType": "uint256",
          "name": "",
          "type": "uint256"
        },
        {
          "internalType": "address",
          "name": "",
          "type": "address"
        }
      ],
      "payable": false,
      "stateMutability": "nonpayable",
      "type": "function"
    },
    {
      "constant": false,
      "inputs": [],
      "name": "BuyListisEmpty",
      "outputs": [
        {
          "internalType": "bool",
          "name": "",
          "type": "bool"
        }
      ],
      "payable": false,
      "stateMutability": "nonpayable",
      "type": "function"
    },
    {
      "constant": false,
      "inputs": [
        {
          "internalType": "address",
          "name": "_sender",
          "type": "address"
        },
        {
          "internalType": "uint256",
          "name": "_price",
          "type": "uint256"
        },
        {
          "internalType": "uint256",
          "name": "_volume",
          "type": "uint256"
        },
        {
          "internalType": "uint256",
          "name": "_auxprice",
          "type": "uint256"
        }
      ],
      "name": "InsertAsk",
      "outputs": [
        {
          "internalType": "bool",
          "name": "",
          "type": "bool"
        }
      ],
      "payable": false,
      "stateMutability": "nonpayable",
      "type": "function"
    },
    {
      "constant": false,
      "inputs": [],
      "name": "SellListMaxPrice",
      "outputs": [
        {
          "internalType": "uint256",
          "name": "",
          "type": "uint256"
        }
      ],
      "payable": false,
      "stateMutability": "nonpayable",
      "type": "function"
    },
    {
      "constant": false,
      "inputs": [],
      "name": "SellListMaxSender",
      "outputs": [
        {
          "internalType": "address",
          "name": "",
          "type": "address"
        }
      ],
      "payable": false,
      "stateMutability": "nonpayable",
      "type": "function"
    },
    {
      "constant": false,
      "inputs": [],
      "name": "SellListMaxDelete",
      "outputs": [
        {
          "internalType": "uint256",
          "name": "",
          "type": "uint256"
        },
        {
          "internalType": "address",
          "name": "",
          "type": "address"
        }
      ],
      "payable": false,
      "stateMutability": "nonpayable",
      "type": "function"
    },
    {
      "constant": false,
      "inputs": [],
      "name": "SellListisEmpty",
      "outputs": [
        {
          "internalType": "bool",
          "name": "",
          "type": "bool"
        }
      ],
      "payable": false,
      "stateMutability": "nonpayable",
      "type": "function"
    },
    {
      "constant": false,
      "inputs": [
        {
          "internalType": "address payable",
          "name": "_callmarket",
          "type": "address"
        }
      ],
      "name": "deletePQ",
      "outputs": [],
      "payable": false,
      "stateMutability": "nonpayable",
      "type": "function"
    }
  ],
  "bytecode": "0x608060405234801561001057600080fd5b506000808190555060006001819055506001600281905550600060038190555060006004819055506001600581905550611af68061004f6000396000f3fe608060405234801561001057600080fd5b50600436106101215760003560e01c806363ddcc02116100ad578063b4c1feee11610071578063b4c1feee146104bc578063ccde53ca146104da578063d735b05f14610554578063d98ed481146105ce578063e801cdab146105f057610121565b806363ddcc02146103a857806364d4497b146103ec578063657ffc3c14610436578063734c74f1146104805780637ccb249d1461049e57610121565b806315991626116100f457806315991626146101d55780631646e893146101f35780631eae43811461029657806339f3b8a3146103395780635cbe5bed1461038a57610121565b806308180ae01461012657806309ab210a146101445780630b21881b146101665780630e2d524d146101b7575b600080fd5b61012e61060e565b6040518082815260200191505060405180910390f35b61014c610614565b604051808215151515815260200191505060405180910390f35b61016e610631565b604051808381526020018273ffffffffffffffffffffffffffffffffffffffff1673ffffffffffffffffffffffffffffffffffffffff1681526020019250505060405180910390f35b6101bf6107fb565b6040518082815260200191505060405180910390f35b6101dd610801565b6040518082815260200191505060405180910390f35b61021f6004803603602081101561020957600080fd5b8101908080359060200190929190505050610898565b604051808973ffffffffffffffffffffffffffffffffffffffff1673ffffffffffffffffffffffffffffffffffffffff168152602001888152602001878152602001861515151581526020018581526020018481526020018381526020018281526020019850505050505050505060405180910390f35b6102c2600480360360208110156102ac57600080fd5b810190808035906020019092919050505061090d565b604051808973ffffffffffffffffffffffffffffffffffffffff1673ffffffffffffffffffffffffffffffffffffffff168152602001888152602001878152602001861515151581526020018581526020018481526020018381526020018281526020019850505050505050505060405180910390f35b610341610982565b604051808381526020018273ffffffffffffffffffffffffffffffffffffffff1673ffffffffffffffffffffffffffffffffffffffff1681526020019250505060405180910390f35b610392610b4e565b6040518082815260200191505060405180910390f35b6103ea600480360360208110156103be57600080fd5b81019080803573ffffffffffffffffffffffffffffffffffffffff169060200190929190505050610be6565b005b6103f4610bff565b604051808273ffffffffffffffffffffffffffffffffffffffff1673ffffffffffffffffffffffffffffffffffffffff16815260200191505060405180910390f35b61043e610cb7565b604051808273ffffffffffffffffffffffffffffffffffffffff1673ffffffffffffffffffffffffffffffffffffffff16815260200191505060405180910390f35b610488610d6e565b6040518082815260200191505060405180910390f35b6104a6610d74565b6040518082815260200191505060405180910390f35b6104c4610d7a565b6040518082815260200191505060405180910390f35b61053a600480360360808110156104f057600080fd5b81019080803573ffffffffffffffffffffffffffffffffffffffff169060200190929190803590602001909291908035906020019092919080359060200190929190505050610d80565b604051808215151515815260200191505060405180910390f35b6105b46004803603608081101561056a57600080fd5b81019080803573ffffffffffffffffffffffffffffffffffffffff169060200190929190803590602001909291908035906020019092919080359060200190929190505050610f8e565b604051808215151515815260200191505060405180910390f35b6105d661119d565b604051808215151515815260200191505060405180910390f35b6105f86111ba565b6040518082815260200191505060405180910390f35b60035481565b6000806000541415610629576001905061062e565b600090505b90565b60008061063c611a64565b6006600080548152602001908152602001600020604051806101000160405290816000820160009054906101000a900473ffffffffffffffffffffffffffffffffffffffff1673ffffffffffffffffffffffffffffffffffffffff1673ffffffffffffffffffffffffffffffffffffffff16815260200160018201548152602001600282015481526020016003820160009054906101000a900460ff161515151581526020016004820154815260200160058201548152602001600682015481526020016007820154815250509050600081602001519050600082600001519050600054600154141561073d57600080819055506000600181905550610769565b8260c001516000819055506000600660008560c001518152602001908152602001600020600701819055505b600660008460a001518152602001908152602001600020600080820160006101000a81549073ffffffffffffffffffffffffffffffffffffffff0219169055600182016000905560028201600090556003820160006101000a81549060ff0219169055600482016000905560058201600090556006820160009055600782016000905550508181945094505050509091565b60015481565b600080600054141561087b576040517f08c379a00000000000000000000000000000000000000000000000000000000081526004018080602001828103825260128152602001807f53656c6c4c69737420697320656d70747921000000000000000000000000000081525060200191505060405180910390fd5b600660008054815260200190815260200160002060010154905090565b60066020528060005260406000206000915090508060000160009054906101000a900473ffffffffffffffffffffffffffffffffffffffff16908060010154908060020154908060030160009054906101000a900460ff16908060040154908060050154908060060154908060070154905088565b60076020528060005260406000206000915090508060000160009054906101000a900473ffffffffffffffffffffffffffffffffffffffff16908060010154908060020154908060030160009054906101000a900460ff16908060040154908060050154908060060154908060070154905088565b60008061098d611a64565b600760006003548152602001908152602001600020604051806101000160405290816000820160009054906101000a900473ffffffffffffffffffffffffffffffffffffffff1673ffffffffffffffffffffffffffffffffffffffff1673ffffffffffffffffffffffffffffffffffffffff16815260200160018201548152602001600282015481526020016003820160009054906101000a900460ff1615151515815260200160048201548152602001600582015481526020016006820154815260200160078201548152505090506000816020015190506000826000015190506003546004541415610a905760006003819055506000600481905550610abc565b8260c001516003819055506000600760008560c001518152602001908152602001600020600701819055505b600760008460a001518152602001908152602001600020600080820160006101000a81549073ffffffffffffffffffffffffffffffffffffffff0219169055600182016000905560028201600090556003820160006101000a81549060ff0219169055600482016000905560058201600090556006820160009055600782016000905550508181945094505050509091565b6000806003541415610bc8576040517f08c379a00000000000000000000000000000000000000000000000000000000081526004018080602001828103825260118152602001807f4275794c69737420697320656d7074792100000000000000000000000000000081525060200191505060405180910390fd5b60076000600354815260200190815260200160002060010154905090565b8073ffffffffffffffffffffffffffffffffffffffff16ff5b6000806003541415610c79576040517f08c379a00000000000000000000000000000000000000000000000000000000081526004018080602001828103825260118152602001807f4275794c69737420697320656d7074792100000000000000000000000000000081525060200191505060405180910390fd5b60076000600354815260200190815260200160002060000160009054906101000a900473ffffffffffffffffffffffffffffffffffffffff16905090565b6000806000541415610d31576040517f08c379a00000000000000000000000000000000000000000000000000000000081526004018080602001828103825260128152602001807f53656c6c4c69737420697320656d70747921000000000000000000000000000081525060200191505060405180910390fd5b600660008054815260200190815260200160002060000160009054906101000a900473ffffffffffffffffffffffffffffffffffffffff16905090565b60045481565b60025481565b60055481565b6000610d8a611a64565b6006600080548152602001908152602001600020604051806101000160405290816000820160009054906101000a900473ffffffffffffffffffffffffffffffffffffffff1673ffffffffffffffffffffffffffffffffffffffff1673ffffffffffffffffffffffffffffffffffffffff16815260200160018201548152602001600282015481526020016003820160009054906101000a900460ff1615151515815260200160048201548152602001600582015481526020016006820154815260200160078201548152505090505b60008160a0015114158015610e73575080608001518310155b15610f4f57600660008260c001518152602001908152602001600020604051806101000160405290816000820160009054906101000a900473ffffffffffffffffffffffffffffffffffffffff1673ffffffffffffffffffffffffffffffffffffffff1673ffffffffffffffffffffffffffffffffffffffff16815260200160018201548152602001600282015481526020016003820160009054906101000a900460ff161515151581526020016004820154815260200160058201548152602001600682015481526020016007820154815250509050610e5a565b60008160e001511415610f6e57610f68868686866111c0565b50610f81565b610f7f8160e001518787878761120a565b505b6001915050949350505050565b6000610f98611a64565b600760006003548152602001908152602001600020604051806101000160405290816000820160009054906101000a900473ffffffffffffffffffffffffffffffffffffffff1673ffffffffffffffffffffffffffffffffffffffff1673ffffffffffffffffffffffffffffffffffffffff16815260200160018201548152602001600282015481526020016003820160009054906101000a900460ff1615151515815260200160048201548152602001600582015481526020016006820154815260200160078201548152505090505b60008160a0015114158015611082575080608001518311155b1561115e57600760008260c001518152602001908152602001600020604051806101000160405290816000820160009054906101000a900473ffffffffffffffffffffffffffffffffffffffff1673ffffffffffffffffffffffffffffffffffffffff1673ffffffffffffffffffffffffffffffffffffffff16815260200160018201548152602001600282015481526020016003820160009054906101000a900460ff161515151581526020016004820154815260200160058201548152602001600682015481526020016007820154815250509050611069565b60008160e00151141561117d5761117786868686611417565b50611190565b61118e8160e0015187878787611460565b505b6001915050949350505050565b60008060035414156111b257600190506111b7565b600090505b90565b60005481565b6000806111cf8686868661166b565b90506111dd816000546117b3565b506111e7816117f5565b50600060015414156111fe576111fc81611807565b505b80915050949350505050565b60006001548614156112285761122285858585611819565b5061140a565b611230611a64565b60066000888152602001908152602001600020604051806101000160405290816000820160009054906101000a900473ffffffffffffffffffffffffffffffffffffffff1673ffffffffffffffffffffffffffffffffffffffff1673ffffffffffffffffffffffffffffffffffffffff16815260200160018201548152602001600282015481526020016003820160009054906101000a900460ff161515151581526020016004820154815260200160058201548152602001600682015481526020016007820154815250509050611306611a64565b600660008360c001518152602001908152602001600020604051806101000160405290816000820160009054906101000a900473ffffffffffffffffffffffffffffffffffffffff1673ffffffffffffffffffffffffffffffffffffffff1673ffffffffffffffffffffffffffffffffffffffff16815260200160018201548152602001600282015481526020016003820160009054906101000a900460ff16151515158152602001600482015481526020016005820154815260200160068201548152602001600782015481525050905060006113e68888888861166b565b90506113f6818360a001516117b3565b506114058360a00151826117b3565b505050505b6001905095945050505050565b6000806114268686868661186c565b9050611434816003546119b4565b61143d816119ee565b50600060045414156114545761145281611a00565b505b80915050949350505050565b600060045486141561147e5761147885858585611a12565b5061165e565b611486611a64565b60076000888152602001908152602001600020604051806101000160405290816000820160009054906101000a900473ffffffffffffffffffffffffffffffffffffffff1673ffffffffffffffffffffffffffffffffffffffff1673ffffffffffffffffffffffffffffffffffffffff16815260200160018201548152602001600282015481526020016003820160009054906101000a900460ff16151515158152602001600482015481526020016005820154815260200160068201548152602001600782015481525050905061155c611a64565b600760008360c001518152602001908152602001600020604051806101000160405290816000820160009054906101000a900473ffffffffffffffffffffffffffffffffffffffff1673ffffffffffffffffffffffffffffffffffffffff1673ffffffffffffffffffffffffffffffffffffffff16815260200160018201548152602001600282015481526020016003820160009054906101000a900460ff161515151581526020016004820154815260200160058201548152602001600682015481526020016007820154815250509050600061163c8888888861186c565b905061164c818360a001516119b4565b61165a8360a00151826119b4565b5050505b6001905095945050505050565b600080600254905060026000815480929190600101919050555061168d611a64565b6040518061010001604052808873ffffffffffffffffffffffffffffffffffffffff168152602001878152602001868152602001600115158152602001858152602001838152602001600081526020016000815250905080600660008360a00151815260200190815260200160002060008201518160000160006101000a81548173ffffffffffffffffffffffffffffffffffffffff021916908373ffffffffffffffffffffffffffffffffffffffff160217905550602082015181600101556040820151816002015560608201518160030160006101000a81548160ff0219169083151502179055506080820151816004015560a0820151816005015560c0820151816006015560e082015181600701559050508060a0015192505050949350505050565b60008160066000858152602001908152602001600020600601819055508260066000848152602001908152602001600020600701819055506001905092915050565b60008160008190555060019050919050565b60008160018190555060019050919050565b600080600054141561183757611831858585856111c0565b50611860565b60006118458686868661166b565b9050611853600154826117b3565b5061185d81611807565b50505b60019050949350505050565b600080600554905060056000815480929190600101919050555061188e611a64565b6040518061010001604052808873ffffffffffffffffffffffffffffffffffffffff168152602001878152602001868152602001600115158152602001858152602001838152602001600081526020016000815250905080600760008360a00151815260200190815260200160002060008201518160000160006101000a81548173ffffffffffffffffffffffffffffffffffffffff021916908373ffffffffffffffffffffffffffffffffffffffff160217905550602082015181600101556040820151816002015560608201518160030160006101000a81548160ff0219169083151502179055506080820151816004015560a0820151816005015560c0820151816006015560e082015181600701559050508060a0015192505050949350505050565b8060076000848152602001908152602001600020600601819055508160076000838152602001908152602001600020600701819055505050565b60008160038190555060019050919050565b60008160048190555060019050919050565b6000806003541415611a3057611a2a85858585611417565b50611a58565b6000611a3e8686868661186c565b9050611a4c600454826119b4565b611a5581611a00565b50505b60019050949350505050565b604051806101000160405280600073ffffffffffffffffffffffffffffffffffffffff168152602001600081526020016000815260200160001515815260200160008152602001600081526020016000815260200160008152509056fea265627a7a723158207d50a5247dea705851fe82395bb77895c356b7e3a271f077e44cce002437c50164736f6c634300050c0032",
  "source": "//pragma solidity >=0.4.22;\npragma solidity 0.5.12;\n\n//Linkedlist implemented with mapping wrapped in a priority queue\n\ncontract PQ5_Linkedlist_Mapping{\n    \n\n    constructor() public \n    {\n        SellHead = 0;\n        SellTail = 0;\n        SellistCounter = 1;\n        BuyHead = 0;\n        BuyTail = 0;\n        BuyListCounter = 1;\n        \n\n    }\n    \n\n    struct OrderStruct\n    {\n        address Sender;\n        uint256 Price;\n        uint256 Volume;     //The volume is 1 for now\n        bool Exists;\n        uint256 AuxPrice;   //This is not the real price of the order, it's the contcantenation of the real price and the counter which helps to sort the heap wehen there are ties\n        uint256 id;\n        uint256 next;\n        uint256 prev;\n    }\n\n    uint256 public SellHead;\n    uint256 public SellTail;\n    uint256 public SellistCounter;\n\n    uint256 public BuyHead;\n    uint256 public BuyTail;\n    uint256 public BuyListCounter;\n  \n    mapping (uint256 => OrderStruct) public SellList;\n    mapping (uint256 => OrderStruct) public BuyList;\n    \n    \n\n//******************** InsertBid() function ********************//\n    //A new buy order will be added in its right position in the list\n    function InsertBid(address _sender, uint256 _price, uint256 _volume, uint256 _auxprice) public returns (bool)\n    {\n       OrderStruct memory current = BuyList[BuyHead];\n        while (current.id !=0 && _auxprice <= current.AuxPrice) //The linkedlist is sorted in an desceding order (decreasing)\n        {\n            current = BuyList[current.next];\n            // we only exit this loop if we find the position to insert our data;\n        }  \n        if (current.prev == 0) //it means the current is equal to first and in that case we have to insert the node as a new head\n        {\n            BuyList_AddHead(_sender, _price, _volume, _auxprice);\n        }\n        else //the node next to the privious is no longer the current but it's our new node\n        {\n            BuyList_InsertAfter(current.prev, _sender, _price, _volume, _auxprice );           \n        }\n        return true; \n       \n    \n    }    \n\n//******************** BuyList_InsertAfter() function ********************//\n    function BuyList_InsertAfter(uint256 _prevId, address _sender, uint256 _price, uint256 _volume, uint256 _auxprice) internal returns (bool)\n    {\n        \n        if (_prevId == BuyTail) {\n            BuyList_AddTail(_sender,_price, _volume, _auxprice);\n        }\n        else{\n            OrderStruct memory prevOrder = BuyList[_prevId];\n            OrderStruct memory nextOrder = BuyList[prevOrder.next];\n            uint256 newOrderId = BuyList_CreateObject(_sender,_price, _volume, _auxprice);\n            BuyList_Link(newOrderId, nextOrder.id);\n            BuyList_Link(prevOrder.id, newOrderId);  \n        }\n        return true;\n    }\n//******************** BuyList_InsertBefore() function ********************//\n    function BuyList_InsertBefore(uint256 _nextId, address _sender, uint256 _price, uint256 _volume, uint256 _auxprice) internal returns (bool)\n    {\n        if (_nextId == BuyHead) {\n            BuyList_AddHead(_sender,_price, _volume, _auxprice);\n        }\n        else {\n            BuyList_InsertAfter(BuyList[_nextId].prev, _sender, _price, _volume, _auxprice);\n        }\n        return true;\n    }\n    \n//******************** BuyList_AddTail() function ********************//\n    function BuyList_AddTail(address _sender, uint256 _price, uint256 _volume, uint256 _auxprice) internal returns (bool)\n    {\n        \n        if (BuyHead == 0) {\n            BuyList_AddHead(_sender, _price, _volume, _auxprice);\n        }\n        else {\n            uint256 ordertId = BuyList_CreateObject(_sender, _price, _volume, _auxprice);\n            BuyList_Link(BuyTail, ordertId);\n            BuyList_SetTail(ordertId);\n        }\n        \n        return true;\n    }\n//******************** BuyList_SetTail() function ********************//\n    function BuyList_SetTail(uint256 _id) internal returns(bool)\n    {\n        BuyTail = _id;\n        return true;\n    }\n//******************** BuyList_AddHead() function ********************//\n    function BuyList_AddHead(address _sender, uint256 _price, uint256 _volume, uint256 _auxprice) internal returns (uint256)\n    {\n        uint256 ordertId = BuyList_CreateObject(_sender, _price, _volume, _auxprice);\n        BuyList_Link(ordertId, BuyHead);\n        BuyList_SetHead(ordertId);\n        if (BuyTail == 0) BuyList_SetTail(ordertId);\n        return ordertId;\n    }\n//******************** BuyList_SetHead() function ********************//\n    function BuyList_SetHead(uint256 _id) internal returns(bool)\n    {\n        BuyHead = _id;\n        return true;\n    }      \n    \n//******************** BuyList_CreateObject() function ********************//\n    function BuyList_CreateObject(address _sender,uint256 _price, uint256 _volume, uint256 _auxprice) internal returns (uint256)\n    {\n        uint256 newId = BuyListCounter;\n        BuyListCounter ++;\n        OrderStruct memory order = OrderStruct(_sender, _price, _volume, true, _auxprice, newId, 0, 0);\n        BuyList[order.id] = order;\n        return order.id;\n    }\n//******************** BuyList_CreateObject() function ********************//\n    function BuyList_Link(uint256 _prevId, uint256 _nextId) internal\n    {\n        BuyList[_prevId].next = _nextId;\n        BuyList[_nextId].prev = _prevId;   \n    }\n//****************   BuyListMaxPrice()  *********************//\n    //BuyListMaxPrice function returns the price of the highest priority element (The highest bid)\n    function BuyListMaxPrice() public  returns (uint256){\n        \n        require (BuyHead != 0, 'BuyList is empty!'); //throws exception if the maxheap (BuyList) is empty\n        return (BuyList[BuyHead].Price);\n        \n    }\n//****************   BuyListMaxSender()  *********************//\n    //BuyListMaxSender function returns the sender of the highest priority element (The highest bid)\n    function BuyListMaxSender() public  returns (address){\n        \n        require (BuyHead != 0, 'BuyList is empty!'); //throws exception if the maxheap (BuyList) is empty\n        return (BuyList[BuyHead].Sender);\n        \n    }\n//******************** BuyListMaxDelete() function ********************//    \n    //the highest priority item will be removed from the list and is returned by the function\n    function BuyListMaxDelete() public returns (uint256, address)\n    {\n        \n        OrderStruct memory removeObject = BuyList[BuyHead];\n        uint256 _price =  removeObject.Price;\n        address _sender = removeObject.Sender;\n\n        if (BuyTail == BuyHead)\n        {\n            BuyHead = 0;\n            BuyTail = 0;\n            \n        }\n        else\n        {\n            BuyHead = removeObject.next;\n            BuyList[removeObject.next].prev = 0;\n            \n        }\n        \n        delete BuyList[removeObject.id];\n        return (_price,_sender); \n        \n        \n\n\n        /* OrderStruct memory removeObject = BuyList[BuyHead];\n        BuyList_SetHead(removeObject.next);\n        BuyList[removeObject.next].prev = 0;\n        \n        if (BuyTail == BuyHead)\n        {\n            BuyList_SetHead(0);\n            BuyList_SetTail(0);\n        }\n        else\n        {\n            BuyList_SetHead(removeObject.next);\n            BuyList[removeObject.next].prev = 0;\n            BuyList_Link(removeObject.prev, removeObject.next);\n        }\n        uint256 _price =  removeObject.Price;\n        address _sender = removeObject.Sender;\n        delete BuyList[removeObject.id];\n        return (_price,_sender); */\n    \n    }\n\n//****************   BuyListisEmpty()  *********************//\n    //checks if the BUyList is empty\n    function BuyListisEmpty() public returns (bool){\n        \n        if (BuyHead == 0)\n        {\n            return true;\n\n        }\n        else\n        {\n            return false;\n        }\n        \n    }\n\n//*******************  InsertAsk () ***************************//\n    //A new buy order will be added in its right position in the list\n    function InsertAsk (address _sender, uint256 _price, uint256 _volume, uint256 _auxprice) public returns (bool)\n    {\n        OrderStruct memory current = SellList[SellHead];\n        while (current.id !=0 && _auxprice >= current.AuxPrice) //The linkedlist is sorted in an ascending order (increasing)\n        {\n        current = SellList[current.next];\n        // we only exit this loop if we find the position to insert our data;\n        }  \n        if (current.prev == 0) //it means the current is equal to first and in that case we have to insert the node as a new head\n        {\n            SellList_AddHead(_sender, _price, _volume, _auxprice);\n        }\n        else //the node next to the privious is no longer the current but it's our new node\n        {\n        SellList_InsertAfter(current.prev, _sender, _price, _volume, _auxprice);           \n        }\n        return true;     \n         \n    }\n//******************** SellList_InsertAfter() function ********************//\n    function SellList_InsertAfter(uint256 _prevId, address _sender, uint256 _price, uint256 _volume, uint256 _auxprice) internal returns (bool)\n    {\n        if (_prevId == SellTail) \n        {\n            SellList_AddTail(_sender, _price, _volume, _auxprice);\n        }\n        else \n        {\n            OrderStruct memory prevOrder = SellList[_prevId];\n            OrderStruct memory nextOrder = SellList[prevOrder.next];\n            uint256 newOrderId = SellList_CreateObject(_sender, _price, _volume, _auxprice);\n            SellList_Link(newOrderId, nextOrder.id);\n            SellList_Link(prevOrder.id, newOrderId);  \n        }\n        return true;\n    }\n//******************** SellList_InsertBefore() function ********************//\n    function SellList_InsertBefore(uint256 _nextId, address _sender, uint256 _price, uint256 _volume, uint256 _auxprice) internal returns (bool)\n    {\n        if (_nextId == SellHead) {\n            SellList_AddHead(_sender, _price, _volume, _auxprice);\n        }\n        else {\n            SellList_InsertAfter(SellList[_nextId].prev, _sender, _price, _volume, _auxprice);\n        }\n        return true;\n    }\n//******************** SellList_AddTail() function ********************//\n    function SellList_AddTail(address _sender, uint256 _price, uint256 _volume, uint256 _auxprice) internal returns (bool)\n    {\n        if (SellHead == 0) {\n            SellList_AddHead(_sender, _price, _volume, _auxprice);\n        }\n        else {\n            uint256 ordertId = SellList_CreateObject(_sender, _price, _volume, _auxprice);\n            SellList_Link(SellTail, ordertId);\n            SellList_SetTail(ordertId);\n        }\n        \n        return true;\n    }\n//******************** SellList_SetTail() function ********************//\n    function SellList_SetTail(uint256 _id) internal returns(bool)\n    {\n        SellTail = _id;\n        return true;\n    }\n//******************** SellList_AddHead() function ********************//\n    function SellList_AddHead(address _sender,uint256 _price, uint256 _volume, uint256 _auxprice) internal returns (uint256)\n    {\n        uint256 ordertId = SellList_CreateObject(_sender, _price, _volume, _auxprice);\n        SellList_Link(ordertId, SellHead);\n        SellList_SetHead(ordertId);\n        if (SellTail == 0) SellList_SetTail(ordertId);\n        return ordertId;\n    }\n//******************** SellList_SetHead() function ********************//\n    function SellList_SetHead(uint256 _id) internal returns (bool)\n    {\n        SellHead = _id;\n        return true;\n    }      \n//******************** SellList_CreateObject() function ********************//\n    function SellList_CreateObject(address _sender, uint256 _price, uint256 _volume, uint256 _auxprice) internal returns (uint256)\n    {\n        uint256 newId = SellistCounter;\n        SellistCounter ++;\n        OrderStruct memory order =  OrderStruct( _sender , _price, _volume, true, _auxprice, newId, 0, 0);\n        SellList[order.id] = order;\n        return order.id;\n    }\n//******************** SellList_CreateObject() function ********************//\n    function SellList_Link(uint256 _prevId, uint256 _nextId) internal returns (bool)\n    {\n        SellList[_prevId].next = _nextId;\n        SellList[_nextId].prev = _prevId;\n        return true;    \n    }\n//****************   SellListMaxPrice()  *********************//\n    //SellListMaxPrice function returns the price of the highest priority element (The Lowest ask)\n    function SellListMaxPrice() public  returns (uint256){\n\n        require(SellHead != 0,'SellList is empty!'); //throws exception if the minheap (SellList) is empty\n        return (SellList[SellHead].Price);\n    }\n//****************   SellListMaxSender()  *********************//\n    //SellListMaxSender function returns the sender of the highest priority element (The Lowest ask)\n    function SellListMaxSender() public  returns (address){\n\n        require(SellHead != 0,'SellList is empty!'); //throws exception if the minheap (SellList) is empty\n        return (SellList[SellHead].Sender);\n    }\n//*******************  SellListMaxDelete () ***************************//\n    //the highest priority item (the smallest ask) will be removed from the list and is returned by the function\n    function SellListMaxDelete() public returns (uint256, address)\n    {\n        \n\n        \n        OrderStruct memory removeObject = SellList[SellHead];\n        uint256 _price =  removeObject.Price;\n        address _sender = removeObject.Sender;\n\n        if (SellTail == SellHead)\n        {\n            SellHead = 0;\n            SellTail = 0;\n            \n        }\n        else\n        {\n            SellHead = removeObject.next;\n            SellList[removeObject.next].prev = 0;\n            \n        }\n        \n        delete SellList[removeObject.id];\n        return (_price,_sender); \n    \n\n        /* OrderStruct memory removeObject = SellList[SellHead];\n        if (SellTail == SellHead)\n        {\n            SellList_SetHead(0);\n            SellList_SetTail(0);\n        }\n        else\n        {\n            SellList_SetHead(removeObject.next);\n            SellList[removeObject.next].prev = 0;\n        }\n        uint256 _price =  removeObject.Price;\n        address _sender =  removeObject.Sender;\n        delete SellList[removeObject.id];\n        return (_price,_sender); */\n    }\n\n        \n    \n//****************   SellListisEmpty()  *********************//\n    //checks if the SellList is empty\n    function SellListisEmpty() public returns (bool){\n        \n        if (SellHead == 0)\n        {\n            return true;\n\n        }\n        else\n        {\n            return false;\n        }\n        \n    }\n\n//****************   deletePQ()  *********************//\n    function deletePQ (address payable _callmarket) public {\n        selfdestruct(_callmarket);\n    }\n\n\n}",
  "sourcePath": "/home/mahsa/ProjectRepo/2020-Orderbook/Code/New-Truffle/contracts/CallMarket/Priority_Queues/PQ5_Linkedlist_Mapping.sol",
  "compiler": {
    "name": "solc",
    "version": "0.5.12+commit.7709ece9.Emscripten.clang"
  },
  "schemaVersion": "3.0.2",
  "updatedAt": "2020-09-10T15:44:06.816Z",
  "devdoc": {
    "methods": {}
  },
  "userdoc": {
    "methods": {}
  }
}