{
  "contractName": "SellList",
  "abi": [
    {
      "inputs": [
        {
          "internalType": "uint256",
          "name": "_price",
          "type": "uint256"
        }
      ],
      "payable": false,
      "stateMutability": "nonpayable",
      "type": "constructor"
    },
    {
      "constant": true,
      "inputs": [],
      "name": "next",
      "outputs": [
        {
          "internalType": "contract SellList",
          "name": "",
          "type": "address"
        }
      ],
      "payable": false,
      "stateMutability": "view",
      "type": "function"
    },
    {
      "constant": true,
      "inputs": [],
      "name": "price",
      "outputs": [
        {
          "internalType": "uint256",
          "name": "",
          "type": "uint256"
        }
      ],
      "payable": false,
      "stateMutability": "view",
      "type": "function"
    },
    {
      "constant": false,
      "inputs": [
        {
          "internalType": "contract SellList",
          "name": "_askorder",
          "type": "address"
        }
      ],
      "name": "addNew",
      "outputs": [],
      "payable": false,
      "stateMutability": "nonpayable",
      "type": "function"
    },
    {
      "constant": false,
      "inputs": [
        {
          "internalType": "uint256",
          "name": "_price",
          "type": "uint256"
        }
      ],
      "name": "replacedata",
      "outputs": [],
      "payable": false,
      "stateMutability": "nonpayable",
      "type": "function"
    }
  ],
  "bytecode": "0x608060405234801561001057600080fd5b506040516102743803806102748339818101604052602081101561003357600080fd5b81019080805190602001909291905050508060018190555060008060006101000a81548173ffffffffffffffffffffffffffffffffffffffff021916908373ffffffffffffffffffffffffffffffffffffffff160217905550506101d88061009c6000396000f3fe608060405234801561001057600080fd5b506004361061004c5760003560e01c80634c8fe5261461005157806385d46bf11461009b578063a035b1fe146100c9578063d7ef453f146100e7575b600080fd5b61005961012b565b604051808273ffffffffffffffffffffffffffffffffffffffff1673ffffffffffffffffffffffffffffffffffffffff16815260200191505060405180910390f35b6100c7600480360360208110156100b157600080fd5b8101908080359060200190929190505050610150565b005b6100d161015a565b6040518082815260200191505060405180910390f35b610129600480360360208110156100fd57600080fd5b81019080803573ffffffffffffffffffffffffffffffffffffffff169060200190929190505050610160565b005b6000809054906101000a900473ffffffffffffffffffffffffffffffffffffffff1681565b8060018190555050565b60015481565b806000806101000a81548173ffffffffffffffffffffffffffffffffffffffff021916908373ffffffffffffffffffffffffffffffffffffffff1602179055505056fea265627a7a723158201f897c28acb4791292f34cc7fea693f0b7297813c251979d81673aa0f9cc88b264736f6c634300050c0032",
  "source": "pragma solidity >=0.4.22;\n\n////Call market with linked list \n//This is just for the sake of testing:\n//Here the “close market” just tells you how many orders matched and how many didn’t\n//It doesn’t actually swap anything\n//and then see how much gas that consumes\ncontract Orderbook_V26{\n    uint public countervariable;\n    SellList public SellFirst;\n    BuyList public BuyFirst;\n    uint public SellCounter;\n    uint public BuyCounter;\n\n    uint public test;\n\n    function changetest() public {\n        \n        test = SellCounter;\n        \n    }\n    constructor () public{\n      SellFirst = SellList(0);\n      BuyFirst = BuyList(0);\n    }\n\n\n//******************** submitask() function ********************/\n    function submitAsk (uint256 _price ) public returns (bool)\n    {\n        if (SellListInsert( _price))\n        {   \n            SellCounter++;\n        \n        }\n    \n        return true;\n    }\n//******************** submitBid() function ********************//\n    function submitBid (uint256 _price) public returns (bool)\n    {\n        if (BuyListInsert( _price))\n        {\n            BuyCounter++;\n        }\n        return true;\n    }\n//******************** MatchOrders() function ********************//\n    function MatchOrders() public  returns (bool)\n    {\n  \n        //uint256 counter;\n        SellList currentask = SellFirst;\n        BuyList currentbuy = BuyFirst;\n        SellList selltemp;\n        BuyList buytemp;\n\n        if (BuyCounter >= SellCounter) \n        { \n            while (currentask != SellList(0)) //while the list is not empty\n            {\n                if (currentbuy.price() >= currentask.price())\n                {\n                    countervariable++;\n                    selltemp = currentask;\n                    buytemp = currentbuy;\n                    BuyListtRemove(buytemp.price());\n                    SellListRemove(selltemp.price());\n                    currentask =  selltemp.next();\n                    currentbuy = buytemp.next();\n\n       \n                }\n                else {break;}\n            \n            }\n        }\n        else //Buylist is shorter than sellluiist\n        {\n            while (currentbuy != BuyList(0)) //while the list is not empty\n            {\n                if (currentbuy.price() >= currentask.price())\n                {\n                    countervariable++;\n                    currentask = currentask.next();\n                    currentbuy = currentbuy.next();\n                }\n                else {break;}\n            \n            }\n\n\n        }\n        \n    \n\n        \n    }\n\n//*****************************************************************//\n//*******************  SellList Functions  ************************//\n//*****************************************************************//\n\n\n//******************** SellListRemove() function ********************//\n    function SellListRemove(uint _price) public returns (SellList)  \n    { \n        SellList current = SellFirst;\n        SellList previous = SellList(0);\n        while (current.price() != _price)\n        {\n            if (current.next() == SellList(0))\n            {\n                return SellList(0); //we have not found the element so we return null\n            }\n            \n            else \n            {   previous = current;\n                current = current.next();\n            }\n        }\n        //we exit the while loop while we find the key\n        //now if have to check if the node we want to delete is the first node\n        if (current == SellFirst)\n        {   \n            SellFirst = SellFirst.next();\n            \n            \n        }\n        else\n        {\n            previous.addNew(current.next());\n        }\n        return current;\n        \n    }\n//******************** SellListInsert() function ********************//\n    function SellListInsert(uint _price) public returns (bool)\n    {\n        SellList newitem = new SellList (_price);\n        SellList current = SellFirst; \n        SellList previous = SellList(0);\n        \n        //we iterate through our list with 2 conditions:\n        while (current != SellList(0) && _price > current.price()) //The linkedlist is sorted in an ascending order (increasing)\n        {\n            previous = current;\n            current = current.next();\n            // we only exit this loop if we find the position to insert our data;\n        } \n        //now if we have to check if we have to insert the node to the begining of the list:\n        if (previous == SellList(0)) //it means the current is equal to first and in that case we have to insert the node as a new head\n        {\n            SellFirst = newitem; \n        }\n        else //the node next to the privious is no longer the current but it's our new node\n        {\n            previous.addNew(newitem);\n        }\n        \n        //and in all cases regardless of if it's a first node or not, we must say we have to say the node next to our new node is current\n        \n        newitem.addNew(current);\n        return true;\n    }            \n\n//*****************************************************************//\n//*******************  BuyList Functions  ************************//\n//*****************************************************************//\n\n//******************** BuyListContains() function ********************//\n\n    function BuyListContains(uint _price) public returns (bool success)  //returns true if the key is in the list\n    { \n        BuyList current = BuyFirst;\n        while (current.price() != _price)\n        {\n            if (current.next() == BuyList(0))\n            {\n                return  false; //we reach the end of the list and we dont find the _key, so we return false\n                \n            }\n            else \n            {\n                current = current.next();\n            }\n        }\n        return true;\n        \n    }\n//******************** BuyListtRemove() function ********************//\n    function BuyListtRemove(uint _price) public returns (BuyList)  \n    { \n        BuyList current = BuyFirst;\n        BuyList previous = BuyList(0);\n        while (current.price() != _price)\n        {\n            if (current.next() == BuyList(0))\n            {\n                return BuyList(0); //we have not found the element so we return null\n            }\n            \n            else \n            {   previous = current;\n                current = current.next();\n            }\n        }\n        //we exit the while loop while we find the key\n        //now if have to check if the node we want to delete is the first node\n        if (current == BuyFirst)\n        {   \n            BuyFirst = BuyFirst.next();\n            \n        }\n        else\n        {\n            previous.addNew(current.next());\n        }\n        return current;\n        \n    }\n//******************** BuyListInsert() function ********************//\n    function BuyListInsert(uint _price) public returns (bool)\n    {\n        BuyList newitem = new BuyList (_price);\n        BuyList current = BuyFirst; \n        BuyList previous = BuyList(0);\n        \n        //we iterate through our list with 2 conditions:\n        while (current != BuyList(0) && _price < current.price()) //The linkedlist is sorted in an descending order (descreasing)\n        {\n            previous = current;\n            current = current.next();\n            // we only exit this loop if we find the position to insert our data;\n        } \n        //now if we have to check if we have to insert the node to the begining of the list:\n        if (previous == BuyList(0)) //it means the current is equal to first and in that case we have to insert the node as a new head\n        {\n            BuyFirst = newitem; \n        }\n        else //the node next to the privious is no longer the current but it's our new node\n        {\n            previous.addNew(newitem);\n        }\n        \n        //and in all cases regardless of if it's a first node or not, we must say we have to say the node next to our new node is current\n        \n        newitem.addNew(current);\n        return true;\n    } \n\n    \n}\n//*****************************************************************//\n//*******************  SellList Contract  ************************//\n//*****************************************************************//\ncontract SellList {\n    SellList public next;\n    uint public price;\n    \n    constructor(uint _price) public {\n        \n        price = _price;\n        next = SellList(0);\n    }\n\n    function addNew(SellList _askorder) public {\n        \n        next = _askorder;\n       \n    }\n   \n    \n    function replacedata ( uint _price) public {\n        price = _price;\n        \n    }\n}   \n\n//*****************************************************************//\n//*******************  BuyList Contract  ************************//\n//*****************************************************************//    \n    \ncontract BuyList {\n    BuyList public next;\n    uint public price;\n    \n    constructor(uint _price) public {\n        \n        price = _price;\n        next = BuyList(0);\n    }\n\n    function addNew(BuyList _bidorder) public {\n        \n        next = _bidorder;\n       \n    }\n   \n    \n    function replacedata ( uint _price) public {\n        price = _price;\n        \n    }\n}      \n    \n    \n    \n    \n    \n    \n    \n    ",
  "sourcePath": "/Users/mahsamoosavi/Documents/GitHub/2020-Orderbook/Code/New-Truffle/contracts/CallMarket/Linked List/Orderbook_V26.sol",
  "compiler": {
    "name": "solc",
    "version": "0.5.12+commit.7709ece9.Emscripten.clang"
  },
  "schemaVersion": "3.2.0",
  "updatedAt": "2020-06-10T16:31:30.662Z",
  "devdoc": {
    "methods": {}
  },
  "userdoc": {
    "methods": {}
  }
}