{
  "contractName": "Sorted_linkedlist_V1",
  "abi": [
    {
      "inputs": [
        {
          "internalType": "uint256",
          "name": "_data",
          "type": "uint256"
        }
      ],
      "payable": false,
      "stateMutability": "nonpayable",
      "type": "constructor"
    },
    {
      "constant": true,
      "inputs": [],
      "name": "head",
      "outputs": [
        {
          "internalType": "contract Item",
          "name": "",
          "type": "address"
        }
      ],
      "payable": false,
      "stateMutability": "view",
      "type": "function"
    },
    {
      "constant": true,
      "inputs": [],
      "name": "i",
      "outputs": [
        {
          "internalType": "bool",
          "name": "",
          "type": "bool"
        }
      ],
      "payable": false,
      "stateMutability": "view",
      "type": "function"
    },
    {
      "constant": true,
      "inputs": [],
      "name": "j",
      "outputs": [
        {
          "internalType": "uint256",
          "name": "",
          "type": "uint256"
        }
      ],
      "payable": false,
      "stateMutability": "view",
      "type": "function"
    },
    {
      "constant": true,
      "inputs": [
        {
          "internalType": "uint256",
          "name": "",
          "type": "uint256"
        }
      ],
      "name": "newItems",
      "outputs": [
        {
          "internalType": "address",
          "name": "",
          "type": "address"
        }
      ],
      "payable": false,
      "stateMutability": "view",
      "type": "function"
    },
    {
      "constant": false,
      "inputs": [
        {
          "internalType": "uint256",
          "name": "_data",
          "type": "uint256"
        }
      ],
      "name": "add",
      "outputs": [
        {
          "internalType": "bool",
          "name": "",
          "type": "bool"
        }
      ],
      "payable": false,
      "stateMutability": "nonpayable",
      "type": "function"
    }
  ],
  "bytecode": "0x608060405234801561001057600080fd5b506040516115bb3803806115bb8339818101604052602081101561003357600080fd5b810190808051906020019092919050505060008160405161005390610179565b808373ffffffffffffffffffffffffffffffffffffffff1673ffffffffffffffffffffffffffffffffffffffff16815260200182815260200192505050604051809103906000f0801580156100ac573d6000803e3d6000fd5b506000806101000a81548173ffffffffffffffffffffffffffffffffffffffff021916908373ffffffffffffffffffffffffffffffffffffffff16021790555060016000809054906101000a900473ffffffffffffffffffffffffffffffffffffffff1690806001815401808255809150509060018203906000526020600020016000909192909190916101000a81548173ffffffffffffffffffffffffffffffffffffffff021916908373ffffffffffffffffffffffffffffffffffffffff1602179055505050610186565b6104258061119683390190565b611001806101956000396000f3fe608060405234801561001057600080fd5b50600436106100575760003560e01c80631003e2d21461005c57806310862527146100a25780638f7dcfa314610110578063b582ec5f1461015a578063e5aa3d5814610178575b600080fd5b6100886004803603602081101561007257600080fd5b810190808035906020019092919050505061019a565b604051808215151515815260200191505060405180910390f35b6100ce600480360360208110156100b857600080fd5b8101908080359060200190929190505050610b20565b604051808273ffffffffffffffffffffffffffffffffffffffff1673ffffffffffffffffffffffffffffffffffffffff16815260200191505060405180910390f35b610118610b5c565b604051808273ffffffffffffffffffffffffffffffffffffffff1673ffffffffffffffffffffffffffffffffffffffff16815260200191505060405180910390f35b610162610b81565b6040518082815260200191505060405180910390f35b610180610b87565b604051808215151515815260200191505060405180910390f35b60008060009054906101000a900473ffffffffffffffffffffffffffffffffffffffff1673ffffffffffffffffffffffffffffffffffffffff166000809054906101000a900473ffffffffffffffffffffffffffffffffffffffff1673ffffffffffffffffffffffffffffffffffffffff16634c8fe5266040518163ffffffff1660e01b815260040160206040518083038186803b15801561023b57600080fd5b505afa15801561024f573d6000803e3d6000fd5b505050506040513d602081101561026557600080fd5b810190808051906020019092919050505073ffffffffffffffffffffffffffffffffffffffff1614156104c75760008060009054906101000a900473ffffffffffffffffffffffffffffffffffffffff1673ffffffffffffffffffffffffffffffffffffffff16634c8fe5266040518163ffffffff1660e01b815260040160206040518083038186803b1580156102fb57600080fd5b505afa15801561030f573d6000803e3d6000fd5b505050506040513d602081101561032557600080fd5b810190808051906020019092919050505090506000818460405161034890610b9a565b808373ffffffffffffffffffffffffffffffffffffffff1673ffffffffffffffffffffffffffffffffffffffff16815260200182815260200192505050604051809103906000f0801580156103a1573d6000803e3d6000fd5b5090508173ffffffffffffffffffffffffffffffffffffffff1663d7ef453f826040518263ffffffff1660e01b8152600401808273ffffffffffffffffffffffffffffffffffffffff1673ffffffffffffffffffffffffffffffffffffffff168152602001915050600060405180830381600087803b15801561042357600080fd5b505af1158015610437573d6000803e3d6000fd5b5050505060018190806001815401808255809150509060018203906000526020600020016000909192909190916101000a81548173ffffffffffffffffffffffffffffffffffffffff021916908373ffffffffffffffffffffffffffffffffffffffff160217905550506000600360006101000a81548160ff021916908315150217905550600192505050610b1b565b60008060009054906101000a900473ffffffffffffffffffffffffffffffffffffffff1673ffffffffffffffffffffffffffffffffffffffff16634c8fe5266040518163ffffffff1660e01b815260040160206040518083038186803b15801561053057600080fd5b505afa158015610544573d6000803e3d6000fd5b505050506040513d602081101561055a57600080fd5b810190808051906020019092919050505090505b60008173ffffffffffffffffffffffffffffffffffffffff166373d4a13a6040518163ffffffff1660e01b815260040160206040518083038186803b1580156105b657600080fd5b505afa1580156105ca573d6000803e3d6000fd5b505050506040513d60208110156105e057600080fd5b81019080805190602001909291905050501415801561067e5750828173ffffffffffffffffffffffffffffffffffffffff166373d4a13a6040518163ffffffff1660e01b815260040160206040518083038186803b15801561064157600080fd5b505afa158015610655573d6000803e3d6000fd5b505050506040513d602081101561066b57600080fd5b8101908080519060200190929190505050115b1561090a578073ffffffffffffffffffffffffffffffffffffffff1663d7ef453f8273ffffffffffffffffffffffffffffffffffffffff16634c8fe5266040518163ffffffff1660e01b815260040160206040518083038186803b1580156106e557600080fd5b505afa1580156106f9573d6000803e3d6000fd5b505050506040513d602081101561070f57600080fd5b81019080805190602001909291905050506040518263ffffffff1660e01b8152600401808273ffffffffffffffffffffffffffffffffffffffff1673ffffffffffffffffffffffffffffffffffffffff168152602001915050600060405180830381600087803b15801561078257600080fd5b505af1158015610796573d6000803e3d6000fd5b505050508073ffffffffffffffffffffffffffffffffffffffff166385d46bf18273ffffffffffffffffffffffffffffffffffffffff16634c8fe5266040518163ffffffff1660e01b815260040160206040518083038186803b1580156107fc57600080fd5b505afa158015610810573d6000803e3d6000fd5b505050506040513d602081101561082657600080fd5b810190808051906020019092919050505073ffffffffffffffffffffffffffffffffffffffff166373d4a13a6040518163ffffffff1660e01b815260040160206040518083038186803b15801561087c57600080fd5b505afa158015610890573d6000803e3d6000fd5b505050506040513d60208110156108a657600080fd5b81019080805190602001909291905050506040518263ffffffff1660e01b815260040180828152602001915050600060405180830381600087803b1580156108ed57600080fd5b505af1158015610901573d6000803e3d6000fd5b5050505061056e565b60008173ffffffffffffffffffffffffffffffffffffffff16634c8fe5266040518163ffffffff1660e01b815260040160206040518083038186803b15801561095257600080fd5b505afa158015610966573d6000803e3d6000fd5b505050506040513d602081101561097c57600080fd5b810190808051906020019092919050505090506000818560405161099f90610b9a565b808373ffffffffffffffffffffffffffffffffffffffff1673ffffffffffffffffffffffffffffffffffffffff16815260200182815260200192505050604051809103906000f0801580156109f8573d6000803e3d6000fd5b5090508173ffffffffffffffffffffffffffffffffffffffff1663d7ef453f826040518263ffffffff1660e01b8152600401808273ffffffffffffffffffffffffffffffffffffffff1673ffffffffffffffffffffffffffffffffffffffff168152602001915050600060405180830381600087803b158015610a7a57600080fd5b505af1158015610a8e573d6000803e3d6000fd5b5050505060018190806001815401808255809150509060018203906000526020600020016000909192909190916101000a81548173ffffffffffffffffffffffffffffffffffffffff021916908373ffffffffffffffffffffffffffffffffffffffff160217905550506000600360006101000a81548160ff021916908315150217905550600193505050505b919050565b60018181548110610b2d57fe5b906000526020600020016000915054906101000a900473ffffffffffffffffffffffffffffffffffffffff1681565b6000809054906101000a900473ffffffffffffffffffffffffffffffffffffffff1681565b60025481565b600360009054906101000a900460ff1681565b61042580610ba88339019056fe608060405234801561001057600080fd5b506040516104253803806104258339818101604052604081101561003357600080fd5b810190808051906020019092919080519060200190929190505050600073ffffffffffffffffffffffffffffffffffffffff168273ffffffffffffffffffffffffffffffffffffffff1614156100cf57306000806101000a81548173ffffffffffffffffffffffffffffffffffffffff021916908373ffffffffffffffffffffffffffffffffffffffff16021790555080600181905550610117565b816000806101000a81548173ffffffffffffffffffffffffffffffffffffffff021916908373ffffffffffffffffffffffffffffffffffffffff160217905550806001819055505b50506102fd806101286000396000f3fe608060405234801561001057600080fd5b50600436106100625760003560e01c80634c8fe526146100675780634d158057146100b157806373d4a13a146100cf57806385d46bf1146100ed5780638c76c6a51461011b578063d7ef453f14610173575b600080fd5b61006f6101b7565b604051808273ffffffffffffffffffffffffffffffffffffffff1673ffffffffffffffffffffffffffffffffffffffff16815260200191505060405180910390f35b6100b96101dc565b6040518082815260200191505060405180910390f35b6100d76101e2565b6040518082815260200191505060405180910390f35b6101196004803603602081101561010357600080fd5b81019080803590602001909291905050506101e8565b005b61015d6004803603602081101561013157600080fd5b81019080803573ffffffffffffffffffffffffffffffffffffffff1690602001909291905050506101f2565b6040518082815260200191505060405180910390f35b6101b56004803603602081101561018957600080fd5b81019080803573ffffffffffffffffffffffffffffffffffffffff169060200190929190505050610285565b005b6000809054906101000a900473ffffffffffffffffffffffffffffffffffffffff1681565b60025481565b60015481565b8060018190555050565b60008173ffffffffffffffffffffffffffffffffffffffff166373d4a13a6040518163ffffffff1660e01b815260040160206040518083038186803b15801561023a57600080fd5b505afa15801561024e573d6000803e3d6000fd5b505050506040513d602081101561026457600080fd5b81019080805190602001909291905050506002819055506002549050919050565b806000806101000a81548173ffffffffffffffffffffffffffffffffffffffff021916908373ffffffffffffffffffffffffffffffffffffffff1602179055505056fea265627a7a7231582079627e31d6c17c9cd32cf4e6b17c159e67878d9c7f03e7e781e144af1a4d853964736f6c634300050c0032a265627a7a723158208b2f8b1fd5b111f0413b30b53ef36370f05e6e56089be81e656057adbc0f4ecf64736f6c634300050c0032608060405234801561001057600080fd5b506040516104253803806104258339818101604052604081101561003357600080fd5b810190808051906020019092919080519060200190929190505050600073ffffffffffffffffffffffffffffffffffffffff168273ffffffffffffffffffffffffffffffffffffffff1614156100cf57306000806101000a81548173ffffffffffffffffffffffffffffffffffffffff021916908373ffffffffffffffffffffffffffffffffffffffff16021790555080600181905550610117565b816000806101000a81548173ffffffffffffffffffffffffffffffffffffffff021916908373ffffffffffffffffffffffffffffffffffffffff160217905550806001819055505b50506102fd806101286000396000f3fe608060405234801561001057600080fd5b50600436106100625760003560e01c80634c8fe526146100675780634d158057146100b157806373d4a13a146100cf57806385d46bf1146100ed5780638c76c6a51461011b578063d7ef453f14610173575b600080fd5b61006f6101b7565b604051808273ffffffffffffffffffffffffffffffffffffffff1673ffffffffffffffffffffffffffffffffffffffff16815260200191505060405180910390f35b6100b96101dc565b6040518082815260200191505060405180910390f35b6100d76101e2565b6040518082815260200191505060405180910390f35b6101196004803603602081101561010357600080fd5b81019080803590602001909291905050506101e8565b005b61015d6004803603602081101561013157600080fd5b81019080803573ffffffffffffffffffffffffffffffffffffffff1690602001909291905050506101f2565b6040518082815260200191505060405180910390f35b6101b56004803603602081101561018957600080fd5b81019080803573ffffffffffffffffffffffffffffffffffffffff169060200190929190505050610285565b005b6000809054906101000a900473ffffffffffffffffffffffffffffffffffffffff1681565b60025481565b60015481565b8060018190555050565b60008173ffffffffffffffffffffffffffffffffffffffff166373d4a13a6040518163ffffffff1660e01b815260040160206040518083038186803b15801561023a57600080fd5b505afa15801561024e573d6000803e3d6000fd5b505050506040513d602081101561026457600080fd5b81019080805190602001909291905050506002819055506002549050919050565b806000806101000a81548173ffffffffffffffffffffffffffffffffffffffff021916908373ffffffffffffffffffffffffffffffffffffffff1602179055505056fea265627a7a7231582079627e31d6c17c9cd32cf4e6b17c159e67878d9c7f03e7e781e144af1a4d853964736f6c634300050c0032",
  "source": "pragma solidity >=0.4.22;\n\n\ncontract Sorted_linkedlist_V1{\n    Item public head;\n    address[] public newItems;\n    //Item public item;\n    uint public j;\n    bool public i;\n\n\n    constructor(uint _data) public {\n        head = new Item(Item(0), _data);\n        newItems.push(address(head));\n    }\n\n    function add(uint _data) public returns (bool){\n\n\n        /*if (head.data() < _data){ //replace head with the new node\n\n            Item link = head.next();\n            Item previoushead = new Item(link, head.data());\n\n            head = new Item (head, _data);\n            newItems.push(address(head));\n\n        }*/\n        if(head.next() == head) {\n            Item link = head.next();\n            Item next = new Item(link, _data);\n            link.addNew(next);\n            newItems.push(address(next));\n            i = false;\n            return true;\n\n        }\n\n\n        Item link = head.next();\n        while (link.data() != 0 && link.data() > _data)\n        {\n            //i = true;\n            //uint sec_data = link.data();\n            //uint found = 0;\n            //Item T2 = new Item (head, head.data());\n\n\n            link.addNew(link.next());\n            link.replacedata(link.next().data());\n\n        }\n\n        Item link2 = link.next();\n        Item next = new Item(link2, _data);\n        link2.addNew(next);\n\n        newItems.push(address(next));\n\n        i = false;\n\n\n\n\n\n\n\n        return true;\n\n\n    }\n\n\n\n\n\n\n\n\n}\n\n\n\n\n\n\n\n\n\ncontract Item {\n    Item public next;\n    uint public data;\n    uint public returndata;\n\n    constructor(Item _next, uint _data) public {\n\n        if (_next == Item(0)) {\n            next = this;\n            data = _data;\n        } else {\n            next = _next;\n            data = _data;\n        }\n    }\n\n    function addNew(Item item) public {\n\n        next = item;\n\n    }\n\n    function replacedata ( uint _data) public {\n        data = _data;\n\n    }\n\n    function getdata (Item item) public returns (uint){\n\n        returndata = item.data();\n        return returndata;\n\n    }\n\n\n\n\n\n\n\n\n\n\n\n}\n",
  "sourcePath": "/home/mahsa/ProjectRepo/2020-Orderbook/Code/New-Truffle/contracts/CallMarket/Linked List/Sorted_linkedlist_V1.sol",
  "compiler": {
    "name": "solc",
    "version": "0.5.12+commit.7709ece9.Emscripten.clang"
  },
  "schemaVersion": "3.2.0",
  "updatedAt": "2020-06-10T16:51:31.617Z",
  "devdoc": {
    "methods": {}
  },
  "userdoc": {
    "methods": {}
  }
}