{
  "contractName": "test1",
  "abi": [
    {
      "constant": true,
      "inputs": [],
      "name": "x",
      "outputs": [
        {
          "internalType": "uint256",
          "name": "",
          "type": "uint256"
        }
      ],
      "payable": false,
      "stateMutability": "view",
      "type": "function",
      "signature": "0x0c55699c"
    },
    {
      "constant": false,
      "inputs": [],
      "name": "ChangeVariable",
      "outputs": [],
      "payable": false,
      "stateMutability": "nonpayable",
      "type": "function",
      "signature": "0x1db7b6e1"
    }
  ],
  "bytecode": "0x6080604052348015600f57600080fd5b5060988061001e6000396000f3fe6080604052348015600f57600080fd5b506004361060325760003560e01c80630c55699c1460375780631db7b6e1146053575b600080fd5b603d605b565b6040518082815260200191505060405180910390f35b60596061565b005b60005481565b56fea265627a7a72315820e0aeca3d674ec9a0e1d0d63fb0363246239bb569f61d3e23cfe6b1eedbdb620564736f6c634300050c0032",
  "source": "pragma solidity >=0.4.22;\n\n\ncontract test1{\n\n\n    // uint256[] public test1;\n\n    // function SubmitInt (uint256 _number) public {\n\n    //     test1.push(_number);\n        \n    // }\n\n    // function killcontract() public {\n\n    //     selfdestruct(block.coinbase);\n    // }\n\n\n    uint256 public x;\n    \n    function ChangeVariable() public {\n        uint256 y;\n        //x = 6;\n    }\n\n}",
  "sourcePath": "/home/mahsa/ProjectRepo/2020-Orderbook/Code/New-Truffle/contracts/test1.sol",
  "compiler": {
    "name": "solc",
    "version": "0.5.12+commit.7709ece9.Emscripten.clang"
  },
  "schemaVersion": "3.0.2",
  "updatedAt": "2020-09-10T13:48:49.953Z",
  "devdoc": {
    "methods": {}
  },
  "userdoc": {
    "methods": {}
  }
}