{
  "contractName": "BuyList",
  "abi": [
    {
      "inputs": [
        {
          "internalType": "address",
          "name": "orderSender",
          "type": "address"
        },
        {
          "internalType": "uint256",
          "name": "orderPrice",
          "type": "uint256"
        },
        {
          "internalType": "uint256",
          "name": "orderVolume",
          "type": "uint256"
        },
        {
          "internalType": "uint256",
          "name": "auxprice",
          "type": "uint256"
        }
      ],
      "stateMutability": "nonpayable",
      "type": "constructor"
    },
    {
      "inputs": [],
      "name": "auxPrice",
      "outputs": [
        {
          "internalType": "uint256",
          "name": "",
          "type": "uint256"
        }
      ],
      "stateMutability": "view",
      "type": "function"
    },
    {
      "inputs": [],
      "name": "next",
      "outputs": [
        {
          "internalType": "contract BuyList",
          "name": "",
          "type": "address"
        }
      ],
      "stateMutability": "view",
      "type": "function"
    },
    {
      "inputs": [],
      "name": "price",
      "outputs": [
        {
          "internalType": "uint256",
          "name": "",
          "type": "uint256"
        }
      ],
      "stateMutability": "view",
      "type": "function"
    },
    {
      "inputs": [],
      "name": "sender",
      "outputs": [
        {
          "internalType": "address",
          "name": "",
          "type": "address"
        }
      ],
      "stateMutability": "view",
      "type": "function"
    },
    {
      "inputs": [],
      "name": "volume",
      "outputs": [
        {
          "internalType": "uint256",
          "name": "",
          "type": "uint256"
        }
      ],
      "stateMutability": "view",
      "type": "function"
    },
    {
      "inputs": [
        {
          "internalType": "contract BuyList",
          "name": "bidorder",
          "type": "address"
        }
      ],
      "name": "addNew",
      "outputs": [],
      "stateMutability": "nonpayable",
      "type": "function"
    },
    {
      "inputs": [
        {
          "internalType": "address",
          "name": "ownerContract",
          "type": "address"
        }
      ],
      "name": "deletenode",
      "outputs": [],
      "stateMutability": "nonpayable",
      "type": "function"
    }
  ],
  "bytecode": "0x608060405234801561001057600080fd5b506040516102923803806102928339818101604052608081101561003357600080fd5b50805160208201516040830151606090930151600180546001600160a01b039094166001600160a01b03199485161790556002919091556003929092556004919091556000805490911690556102048061008e6000396000f3fe608060405234801561001057600080fd5b506004361061007d5760003560e01c8063a035b1fe1161005b578063a035b1fe146100c8578063af243cd4146100d0578063c618a1e4146100f8578063d7ef453f146101005761007d565b80634c8fe526146100825780635a5339f1146100a657806367e404ce146100c0575b600080fd5b61008a610126565b604080516001600160a01b039092168252519081900360200190f35b6100ae610135565b60408051918252519081900360200190f35b61008a61013b565b6100ae61014a565b6100f6600480360360208110156100e657600080fd5b50356001600160a01b0316610150565b005b6100ae6101a6565b6100f66004803603602081101561011657600080fd5b50356001600160a01b03166101ac565b6000546001600160a01b031681565b60045481565b6001546001600160a01b031681565b60025481565b336001600160a01b038216146101a3576040805162461bcd60e51b815260206004820152601360248201527229b437bab632103132903a34329027bbb732b960691b604482015290519081900360640190fd5b33ff5b60035481565b600080546001600160a01b0319166001600160a01b039290921691909117905556fea26469706673582212200f6111b7cd54eb36631e2a1d6465f1b100fa4e1dbb90913f65458b998d588caf64736f6c634300060b0033",
  "immutableReferences": {},
  "source": "pragma solidity >=0.4.22;\n\n\n//Linkedlist wrapped in a priority queue\n\ncontract LinkedList{\n\n\n/**\n*   @dev \n    sellFirst: The head node of the SellList (each node is a contract itself, so it's a contract from the type \"SellList\")\n    buyFirst: The head node of the BuyList (each node is a contract itself, so it's a contract from the type \"BuyList\")\n*/\n    \n    SellList public sellFirst;\n    BuyList public buyFirst;\n    SellList internal selltemp;\n    BuyList internal buytemp;\n    //address payable callmarket;\n    address internal owner;\n    \n\n    constructor () public {\n        //callmarket = address(uint160(_callmarket)); \n        sellFirst = SellList(0);\n        buyFirst = BuyList(0);\n        owner = address(this);\n    }\n//*****************************************************************//\n//**********************  buyList Functions  **********************//\n//*****************************************************************//\n\n\n//***********************************************************************//\n\n    /**\n    *   @dev Adds the incoming bid orders to its right position in the list\n    */\n    function insertBid(address sender, uint256 price, uint256 volume, uint256 auxprice) external \n    {\n        BuyList newitem = new BuyList (sender, price , volume, auxprice);\n        BuyList current = buyFirst; \n        BuyList previous = BuyList(0);\n        \n        //we iterate through our list with 2 conditions:\n        while (current != BuyList(0) && auxprice <= current.auxPrice()) //The linkedlist is sorted in an descending order (descreasing)\n        {\n            previous = current;\n            current = current.next();\n            // we only exit this loop if we find the position to insert our data;\n        } \n        //now if we have to check if we have to insert the node to the begining of the list:\n        if (previous == BuyList(0)) //it means the current is equal to first and in that case we have to insert the node as a new head\n        {\n            buyFirst = newitem; \n        }\n        else //the node next to the privious is no longer the current but it's our new node\n        {\n            previous.addNew(newitem);\n        }\n        \n        //and in all cases regardless of if it's a first node or not, we must say we have to say the node next to our new node is current\n        \n        newitem.addNew(current);\n        \n    }\n\n//***********************************************************************//\n\n    /**\n    *   @dev Removes and returns the highest bid of the list\n        Only if the list is not empty\n    */\n    function buyListMaxDelete() external returns(uint256, address, uint256) \n    {\n        require (buyFirst != BuyList(0), 'buyList is empty!'); //throws exception if the buyList is empty\n        buytemp = buyFirst;\n        buyFirst = buytemp.next();\n        buytemp.deletenode(owner);\n        //buyFirst.deletenode(callmarket);\n        //buyFirst = buytemp.next();\n        return (buytemp.price(), buytemp.sender(), buytemp.volume());\n    }\n//***********************************************************************//\n    /**\n    *   @dev Returns the sender, price, and volume of the highest priority element (The highest bid)\n    */ \n    function buyListMax() external view returns (uint256, address, uint256){\n        \n        require (buyFirst != BuyList(0), 'buyList is empty!'); //throws exception if the buyList is empty\n        return (buyFirst.price(), buyFirst.sender(), buyFirst.volume());\n        \n    }\n//***********************************************************************//\n    /**\n    *   @dev Checks if the buyList is empty or not\n    */ \n\n    function buyListisEmpty() external view returns (bool){\n        \n        if (buyFirst == BuyList(0))\n        {\n            return true;\n\n        }\n        else\n        {\n            return false;\n        }\n        \n    }\n//*****************************************************************//\n//**********************  SellList Functions  *********************//\n//*****************************************************************//\n\n//***********************************************************************//\n\n    /**\n    *   @dev Adds the incoming ask orders to its right position in the list\n    */\n    function insertAsk (address sender, uint256 price, uint256 volume, uint256 auxprice) external \n    {\n        SellList newitem = new SellList (sender, price , volume, auxprice);\n        SellList current = sellFirst; \n        SellList previous = SellList(0);\n        \n        //we iterate through our list with 2 conditions:\n        while (current != SellList(0) && auxprice >= current.auxPrice()) //The linkedlist is sorted in an ascending order (increasing)\n        {\n            previous = current;\n            current = current.next();\n            // we only exit this loop if we find the position to insert our data;\n        } \n        //now if we have to check if we have to insert the node to the begining of the list:\n        if (previous == SellList(0)) //it means the current is equal to first and in that case we have to insert the node as a new head\n        {\n            sellFirst = newitem; \n        }\n        else //the node next to the privious is no longer the current but it's our new node\n        {\n            previous.addNew(newitem);\n        }\n        \n        //and in all cases regardless of if it's a first node or not, we must say we have to say the node next to our new node is current\n        \n        newitem.addNew(current);\n    }  \n//***********************************************************************//\n\n    /**\n    *   @dev Removes and returns the lowest ask of the list (highest priority element)\n        Only if the list is not empty\n    */\n    function sellListMaxDelete() external returns (uint256, address, uint256)\n    {\n        require(sellFirst != SellList(0),'sellList is empty!'); //throws exception if the sellList is empty\n        selltemp = sellFirst;\n        sellFirst = selltemp.next();\n        selltemp.deletenode(owner);\n        //sellFirst.deletenode(callmarket);\n        //sellFirst = selltemp.next();\n        return (selltemp.price(), selltemp.sender(), selltemp.volume());\n    }  \n//***********************************************************************//\n    /**\n    *   @dev Returns the sender, price, and volume of the highest priority element (The lowest ask)\n    */ \n    function sellListMax() external view returns (uint256, address, uint256){\n        \n        require(sellFirst != SellList(0),'sellList is empty!'); //throws exception if the sellList is empty\n        return (sellFirst.price(), sellFirst.sender(), sellFirst.volume());\n        \n    }\n\n//***********************************************************************//\n    /**\n    *   @dev Checks if the sellList is empty or not\n    */ \n    function sellListisEmpty() external view returns (bool){\n        \n        if (sellFirst == SellList(0))\n        {\n            return true;\n\n        }\n        else\n        {\n            return false;\n        }\n        \n    }\n\n}\n//*****************************************************************//\n//*******************  SellList Contract  ************************//\n//*****************************************************************//\n\ncontract SellList {\n    /**\n*   @dev \n    each node of the sellList is a contract from type \"SellList\" that has the following attributes:\n    next: The address of the next node (contract) in the sellList\n    sender: The sender of the ask order\n    price: The price of the ask order\n    volume: The volume of the ask order\n    auxPrice: The contcantenation of the order's price and the counter which helps to sort the heap when there are ties\n*/\n    SellList public next;\n    address public sender;\n    uint256 public price;\n    uint256 public volume;\n    uint256 public auxPrice;\n    \n    constructor(address orderSender, uint256 orderPrice, uint256 orderVolume, uint256 auxprice)  public {\n        \n        sender = orderSender;\n        price = orderPrice;\n        volume = orderVolume;\n        auxPrice = auxprice;\n        next = SellList(0);\n    }\n\n    function addNew(SellList askorder) external {\n        \n        next = askorder;\n       \n    }\n   \n    function deletenode (address ownerContract) external {\n        require (msg.sender == ownerContract,\"Should be the Owner\");\n        selfdestruct(msg.sender);\n        \n    }\n    \n    \n}   \n\n//*****************************************************************//\n//*******************  BuyList Contract  ************************//\n//*****************************************************************//    \n    \ncontract BuyList {\n    /**\n*   @dev \n    each node of the BuyList is a contract from type \"BuyList\" that has the following attributes:\n    next: The address of the next node (contract) in the buyList\n    sender: The sender of the bid order\n    price: The price of the bid order\n    volume: The volume of the bid order\n    auxPrice: The contcantenation of the order's price and the counter which helps to sort the heap when there are ties\n*/\n    BuyList public next;\n    address public sender;\n    uint256 public price;\n    uint256 public volume;\n    \n    uint256 public auxPrice;\n    \n    constructor(address orderSender, uint256 orderPrice, uint256 orderVolume, uint256 auxprice) public {\n        \n        sender = orderSender;\n        price = orderPrice;\n        volume = orderVolume;\n        auxPrice = auxprice;\n        next = BuyList(0);\n    }\n\n    function addNew(BuyList bidorder) external {\n        \n        next = bidorder;\n       \n    }\n\n    function deletenode (address ownerContract) external {\n        require (msg.sender == ownerContract,\"Should be the Owner\");\n        selfdestruct(msg.sender);\n    }\n} ",
  "sourcePath": "/Users/mahsamoosavi/Documents/GitHub/2020-Orderbook/Code/L2-Truffle/contracts/LinkedList.sol",
  "compiler": {
    "name": "solc",
    "version": "0.6.11+commit.5ef660b1.Emscripten.clang"
  },
  "schemaVersion": "3.3.3",
  "updatedAt": "2021-02-27T15:04:03.243Z",
  "devdoc": {
    "kind": "dev",
    "methods": {},
    "stateVariables": {
      "next": {
        "details": " each node of the BuyList is a contract from type \"BuyList\" that has the following attributes: next: The address of the next node (contract) in the buyList sender: The sender of the bid order price: The price of the bid order volume: The volume of the bid order auxPrice: The contcantenation of the order's price and the counter which helps to sort the heap when there are ties"
      }
    },
    "version": 1
  },
  "userdoc": {
    "kind": "user",
    "methods": {},
    "version": 1
  }
}