{
  "contractName": "CallMarket",
  "abi": [
    {
      "inputs": [
        {
          "internalType": "address",
          "name": "_PQ",
          "type": "address"
        }
      ],
      "stateMutability": "nonpayable",
      "type": "constructor"
    },
    {
      "inputs": [],
      "name": "biddingPeriod",
      "outputs": [
        {
          "internalType": "uint256",
          "name": "",
          "type": "uint256"
        }
      ],
      "stateMutability": "view",
      "type": "function"
    },
    {
      "inputs": [],
      "name": "buylistCounter",
      "outputs": [
        {
          "internalType": "uint256",
          "name": "",
          "type": "uint256"
        }
      ],
      "stateMutability": "view",
      "type": "function"
    },
    {
      "inputs": [],
      "name": "callmarket",
      "outputs": [
        {
          "internalType": "address payable",
          "name": "",
          "type": "address"
        }
      ],
      "stateMutability": "view",
      "type": "function"
    },
    {
      "inputs": [],
      "name": "creationTime",
      "outputs": [
        {
          "internalType": "uint256",
          "name": "",
          "type": "uint256"
        }
      ],
      "stateMutability": "view",
      "type": "function"
    },
    {
      "inputs": [],
      "name": "numOrders",
      "outputs": [
        {
          "internalType": "uint256",
          "name": "",
          "type": "uint256"
        }
      ],
      "stateMutability": "view",
      "type": "function"
    },
    {
      "inputs": [],
      "name": "sellistCounter",
      "outputs": [
        {
          "internalType": "uint256",
          "name": "",
          "type": "uint256"
        }
      ],
      "stateMutability": "view",
      "type": "function"
    },
    {
      "inputs": [
        {
          "internalType": "address",
          "name": "",
          "type": "address"
        }
      ],
      "name": "totalEtherBalance",
      "outputs": [
        {
          "internalType": "uint256",
          "name": "",
          "type": "uint256"
        }
      ],
      "stateMutability": "view",
      "type": "function"
    },
    {
      "inputs": [
        {
          "internalType": "address",
          "name": "",
          "type": "address"
        }
      ],
      "name": "totalTokenBalance",
      "outputs": [
        {
          "internalType": "uint256",
          "name": "",
          "type": "uint256"
        }
      ],
      "stateMutability": "view",
      "type": "function"
    },
    {
      "inputs": [
        {
          "internalType": "uint256",
          "name": "",
          "type": "uint256"
        }
      ],
      "name": "unavailableEtherArray",
      "outputs": [
        {
          "internalType": "address",
          "name": "",
          "type": "address"
        }
      ],
      "stateMutability": "view",
      "type": "function"
    },
    {
      "inputs": [
        {
          "internalType": "address",
          "name": "",
          "type": "address"
        }
      ],
      "name": "unavailableEtherBalance",
      "outputs": [
        {
          "internalType": "uint256",
          "name": "",
          "type": "uint256"
        }
      ],
      "stateMutability": "view",
      "type": "function"
    },
    {
      "inputs": [
        {
          "internalType": "uint256",
          "name": "",
          "type": "uint256"
        }
      ],
      "name": "unavailableTokenArray",
      "outputs": [
        {
          "internalType": "address",
          "name": "",
          "type": "address"
        }
      ],
      "stateMutability": "view",
      "type": "function"
    },
    {
      "inputs": [
        {
          "internalType": "address",
          "name": "",
          "type": "address"
        }
      ],
      "name": "unavailableTokenBalance",
      "outputs": [
        {
          "internalType": "uint256",
          "name": "",
          "type": "uint256"
        }
      ],
      "stateMutability": "view",
      "type": "function"
    },
    {
      "inputs": [
        {
          "internalType": "address",
          "name": "token",
          "type": "address"
        },
        {
          "internalType": "uint256",
          "name": "numofTokens",
          "type": "uint256"
        }
      ],
      "name": "depositToken",
      "outputs": [
        {
          "internalType": "bool",
          "name": "",
          "type": "bool"
        }
      ],
      "stateMutability": "nonpayable",
      "type": "function"
    },
    {
      "inputs": [],
      "name": "depositEther",
      "outputs": [
        {
          "internalType": "bool",
          "name": "",
          "type": "bool"
        }
      ],
      "stateMutability": "payable",
      "type": "function"
    },
    {
      "inputs": [],
      "name": "openMarket",
      "outputs": [
        {
          "internalType": "bool",
          "name": "",
          "type": "bool"
        }
      ],
      "stateMutability": "nonpayable",
      "type": "function"
    },
    {
      "inputs": [
        {
          "internalType": "uint256",
          "name": "price",
          "type": "uint256"
        },
        {
          "internalType": "uint256",
          "name": "volume",
          "type": "uint256"
        }
      ],
      "name": "submitBid",
      "outputs": [
        {
          "internalType": "bool",
          "name": "",
          "type": "bool"
        }
      ],
      "stateMutability": "nonpayable",
      "type": "function"
    },
    {
      "inputs": [
        {
          "internalType": "uint256",
          "name": "price",
          "type": "uint256"
        },
        {
          "internalType": "uint256",
          "name": "volume",
          "type": "uint256"
        }
      ],
      "name": "submitAsk",
      "outputs": [
        {
          "internalType": "bool",
          "name": "",
          "type": "bool"
        }
      ],
      "stateMutability": "nonpayable",
      "type": "function"
    },
    {
      "inputs": [],
      "name": "closeMarket",
      "outputs": [
        {
          "internalType": "bool",
          "name": "",
          "type": "bool"
        }
      ],
      "stateMutability": "nonpayable",
      "type": "function"
    },
    {
      "inputs": [
        {
          "internalType": "address",
          "name": "token",
          "type": "address"
        },
        {
          "internalType": "uint256",
          "name": "numofTokens",
          "type": "uint256"
        }
      ],
      "name": "claimTokens",
      "outputs": [
        {
          "internalType": "bool",
          "name": "",
          "type": "bool"
        }
      ],
      "stateMutability": "nonpayable",
      "type": "function"
    },
    {
      "inputs": [
        {
          "internalType": "uint256",
          "name": "numofEthers",
          "type": "uint256"
        }
      ],
      "name": "claimEther",
      "outputs": [
        {
          "internalType": "bool",
          "name": "",
          "type": "bool"
        }
      ],
      "stateMutability": "nonpayable",
      "type": "function"
    },
    {
      "inputs": [],
      "name": "getBalance",
      "outputs": [
        {
          "internalType": "uint256",
          "name": "",
          "type": "uint256"
        }
      ],
      "stateMutability": "view",
      "type": "function"
    }
  ],
  "bytecode": "0x6080604052600180546001600160a01b0319163017905534801561002257600080fd5b5060405161133338038061133383398101604081905261004191610066565b600080546001600160a01b0319166001600160a01b0392909216919091179055610094565b600060208284031215610077578081fd5b81516001600160a01b038116811461008d578182fd5b9392505050565b611290806100a36000396000f3fe60806040526004361061012a5760003560e01c80639621dc16116100ab578063c511ed5e1161006f578063c511ed5e146102da578063c9ed9d87146102ef578063d8270dce1461030f578063f546599214610324578063fa43d13d14610344578063fe417fa5146103645761012a565b80639621dc161461025d57806398ea5fca1461027d578063a96ca50814610285578063b821da1b1461029a578063c1b617ca146102ba5761012a565b806349407a44116100f257806349407a44146101de5780635f8909bd146101fe57806367f7e81a1461021357806369abe5ac146102285780637288a28a1461023d5761012a565b80630854a4ea1461012f57806312065fe014610165578063338b5dea146101875780633606f5b9146101b457806345d53788146101c9575b600080fd5b34801561013b57600080fd5b5061014f61014a366004610fe1565b610384565b60405161015c9190611080565b60405180910390f35b34801561017157600080fd5b5061017a6103ab565b60405161015c9190611209565b34801561019357600080fd5b506101a76101a2366004610f96565b6103af565b60405161015c91906110f7565b3480156101c057600080fd5b506101a761044f565b3480156101d557600080fd5b5061017a61047a565b3480156101ea57600080fd5b506101a76101f9366004610fe1565b610480565b34801561020a57600080fd5b5061017a610511565b34801561021f57600080fd5b5061014f610517565b34801561023457600080fd5b5061017a610526565b34801561024957600080fd5b506101a7610258366004611031565b61052c565b34801561026957600080fd5b5061017a610278366004610f73565b6106cc565b6101a76106de565b34801561029157600080fd5b5061017a6106f8565b3480156102a657600080fd5b506101a76102b5366004611031565b6106fe565b3480156102c657600080fd5b5061017a6102d5366004610f73565b610863565b3480156102e657600080fd5b506101a7610875565b3480156102fb57600080fd5b5061014f61030a366004610fe1565b610d01565b34801561031b57600080fd5b5061017a610d0e565b34801561033057600080fd5b5061017a61033f366004610f73565b610d14565b34801561035057600080fd5b5061017a61035f366004610f73565b610d26565b34801561037057600080fd5b506101a761037f366004610f96565b610d38565b600a818154811061039157fe5b6000918252602090912001546001600160a01b0316905081565b4790565b33600081815260086020526040808220805485019055516323b872dd60e01b815290916001600160a01b038516916323b872dd916103f39130908790600401611094565b602060405180830381600087803b15801561040d57600080fd5b505af1158015610421573d6000803e3d6000fd5b505050506040513d601f19601f820116820180604052508101906104459190610fc1565b5060019392505050565b42600255621275006003556001805460ff60a01b19168155600060045560646006556103e760055590565b60045481565b336000908152600c6020908152604080832054600b909252822054038211156104c45760405162461bcd60e51b81526004016104bb906111b3565b60405180910390fd5b336000818152600b6020526040808220805486900390555184929183156108fc02918491818181858888f19350505050158015610505573d6000803e3d6000fd5b5060019150505b919050565b60035481565b6001546001600160a01b031681565b60065481565b6000600354600254014210158061054557506004546064145b1561055457610552610875565b505b60008060018054600160a01b900460ff169081111561056f57fe5b1461058c5760405162461bcd60e51b81526004016104bb90611170565b33600090815260096020908152604080832054600890925290912054038311156105c85760405162461bcd60e51b81526004016104bb90611102565b600060606105e86105d887610e14565b6105e3600654610e14565b610eec565b90506105f381610f18565b600480546001908101825560068054820190553360008181526009602052604080822080548c019055600a8054948501815582527fc65a7bb8d6351c1cf70c95a316cc6a92839c986682d98bc35f958f4883f9d2a890930180546001600160a01b0319168317905554915163a78b790760e01b81529395506001600160a01b039091169263a78b79079261068e92918b918b918991016110d1565b600060405180830381600087803b1580156106a857600080fd5b505af11580156106bc573d6000803e3d6000fd5b5060019998505050505050505050565b600b6020526000908152604090205481565b336000908152600b60205260409020805434019055600190565b60055481565b6000600354600254014210158061071757506004546064145b1561072657610724610875565b505b60008060018054600160a01b900460ff169081111561074157fe5b1461075e5760405162461bcd60e51b81526004016104bb90611170565b336000908152600c6020908152604080832054600b90925290912054848602919003101561079e5760405162461bcd60e51b81526004016104bb90611139565b600060606107b96107ae87610e14565b6105e3600554610e14565b90506107c481610f18565b600480546001908101825560058054600019019055336000818152600c602052604080822080548d8d02019055600d8054948501815582527fd7b6990105719101dabeb77144f2a3385c8033acd3af97e9423a695e81ad1eb590930180546001600160a01b0319168317905554915163502f860960e01b81529395506001600160a01b039091169263502f86099261068e92918b918b918991016110d1565b600c6020526000908152604090205481565b6001805460ff60a01b1916600160a01b17905560008054604080516301b44d8d60e41b815290518392839283926001600160a01b0390921691631b44d8d09160048082019260609290919082900301818787803b1580156108d557600080fd5b505af11580156108e9573d6000803e3d6000fd5b505050506040513d601f19601f8201168201806040525081019061090d9190610ff9565b92509250925060008060008060009054906101000a90046001600160a01b03166001600160a01b03166391447d326040518163ffffffff1660e01b8152600401606060405180830381600087803b15801561096757600080fd5b505af115801561097b573d6000803e3d6000fd5b505050506040513d601f19601f8201168201806040525081019061099f9190610ff9565b9250925092505b828610610c19576001600160a01b03808616600090815260086020818152604080842080546001019055600b825280842080548c900390558685168452808420805489019055918152818320805460001901905591548151630846c34f60e21b8152915193169263211b0d3c92600480840193919291829003018186803b158015610a3057600080fd5b505afa158015610a44573d6000803e3d6000fd5b505050506040513d601f19601f82011682018060405250810190610a689190610fc1565b80610af357506000809054906101000a90046001600160a01b03166001600160a01b031663cc0ba6706040518163ffffffff1660e01b815260040160206040518083038186803b158015610abb57600080fd5b505afa158015610acf573d6000803e3d6000fd5b505050506040513d601f19601f82011682018060405250810190610af39190610fc1565b15610afd57610c19565b6000809054906101000a90046001600160a01b03166001600160a01b0316631b44d8d06040518163ffffffff1660e01b8152600401606060405180830381600087803b158015610b4c57600080fd5b505af1158015610b60573d6000803e3d6000fd5b505050506040513d601f19601f82011682018060405250810190610b849190610ff9565b60008054604080516348a23e9960e11b81529051959b509399509197506001600160a01b03909116926391447d32926004808201936060939283900390910190829087803b158015610bd557600080fd5b505af1158015610be9573d6000803e3d6000fd5b505050506040513d601f19601f82011682018060405250810190610c0d9190610ff9565b919450925090506109a6565b41600081815260076020526040808220805490839055905190929183156108fc02918491818181858888f19350505050158015610c5a573d6000803e3d6000fd5b5060005b600a54811015610ca65760096000600a8381548110610c7957fe5b60009182526020808320909101546001600160a01b03168352820192909252604001812055600101610c5e565b5060005b600d54811015610cf257600c6000600d8381548110610cc557fe5b60009182526020808320909101546001600160a01b03168352820192909252604001812055600101610caa565b50600197505050505050505090565b600d818154811061039157fe5b60025481565b60086020526000908152604090205481565b60096020526000908152604090205481565b33600090815260096020908152604080832054600890925282205403821115610d735760405162461bcd60e51b81526004016104bb906111de565b3360008181526008602052604090819020805485900390555163a9059cbb60e01b815283916001600160a01b0386169163a9059cbb91610db79185906004016110b8565b602060405180830381600087803b158015610dd157600080fd5b505af1158015610de5573d6000803e3d6000fd5b505050506040513d601f19601f82011682018060405250810190610e099190610fc1565b506001949350505050565b606081610e3957506040805180820190915260018152600360fc1b602082015261050c565b8160005b8115610e5157600101600a82049150610e3d565b60608167ffffffffffffffff81118015610e6a57600080fd5b506040519080825280601f01601f191660200182016040528015610e95576020820181803683370190505b50905060001982015b8515610ee357600a860660300160f81b82828060019003935081518110610ec157fe5b60200101906001600160f81b031916908160001a905350600a86049550610e9e565b50949350505050565b60608282604051602001610f01929190611052565b604051602081830303815290604052905092915050565b80516000908290829081905b80831015610ee3576000848481518110610f3a57fe5b016020015160f81c905060308110801590610f56575060398111155b15610f67576030810383600a020192505b50600190920191610f24565b600060208284031215610f84578081fd5b8135610f8f81611242565b9392505050565b60008060408385031215610fa8578081fd5b8235610fb381611242565b946020939093013593505050565b600060208284031215610fd2578081fd5b81518015158114610f8f578182fd5b600060208284031215610ff2578081fd5b5035919050565b60008060006060848603121561100d578081fd5b83519250602084015161101f81611242565b80925050604084015190509250925092565b60008060408385031215611043578182fd5b50508035926020909101359150565b60008351611064818460208801611212565b8351908301611077828260208801611212565b01949350505050565b6001600160a01b0391909116815260200190565b6001600160a01b039384168152919092166020820152604081019190915260600190565b6001600160a01b03929092168252602082015260400190565b6001600160a01b0394909416845260208401929092526040830152606082015260800190565b901515815260200190565b6020808252601c908201527f546f6b656e2062616c616e6365206973206e6f7420656e6f7567682100000000604082015260600190565b6020808252601c908201527f45746865722062616c616e6365206973206e6f7420656e6f7567682100000000604082015260600190565b60208082526023908201527f546865206d61726b6574206973206e6f7420616e74206465736972656420737460408201526261746560e81b606082015260800190565b6020808252601190820152704e6f7420656e6f7567682045746865727360781b604082015260600190565b6020808252601190820152704e6f7420656e6f75676820546f6b656e7360781b604082015260600190565b90815260200190565b60005b8381101561122d578181015183820152602001611215565b8381111561123c576000848401525b50505050565b6001600160a01b038116811461125757600080fd5b5056fea264697066735822122002e3383972d4022d855a76b4f13e227a4bf1a354465bdfbbfd7bf404670b3d1364736f6c634300060b0033",
  "immutableReferences": {},
  "source": "pragma solidity >=0.4.22;\npragma experimental ABIEncoderV2;\nimport \"@openzeppelin/contracts/token/ERC20/IERC20.sol\";\n\n//import \"./HeapDynamicArray.sol\";\nimport \"./HeapStaticArray.sol\";\n//import \"./LinkedList.sol\";\n//import \"./HeapMapping.sol\";\n//import \"./LinkedList.sol\";\n//import \"./LinkedListMapping.sol\";\n\ncontract CallMarket{\n\n    //HeapDynamicArray priorityQueue;\n    HeapStaticArray priorityQueue;\n    //HeapMapping priorityQueue;\n    //LinkedList priorityQueue;\n    //LinkedListMapping priorityQueue;\n\n    address payable public callmarket = address(uint160(address(this)));\n    constructor(address _PQ) public\n    {\n        //priorityQueue = HeapDynamicArray(_PQ);\n        priorityQueue = HeapStaticArray(_PQ);\n        //priorityQueue = HeapMapping(_PQ);\n        //we pass the address of the callmarket to the LinkedList so that the selfdestruct could send Ethers back to the callmarket\n        //priorityQueue = LinkedList(_PQ,address(this));\n        //priorityQueue = LinkedListMapping(_PQ);\n    }\n\n    \n//***********************************************************************//\n\n    /**\n    *   @dev Converts string to uint and returns the uint\n    */\n\n    function strTouint (string memory s) internal pure returns (uint) {\n        bytes memory b = bytes(s);\n        uint i;\n        uint result = 0;\n        uint j = b.length;\n        for (i = 0; i < j; i++) {\n            uint c = uint(uint8(b[i]));\n            if (c >= 48 && c <= 57) {\n                result = result * 10 + (c - 48);\n            }\n        }\n\n        return result;\n    }\n//***********************************************************************//\n\n    /**\n    *   @dev Converts uint to string and returns the string\n    */\n\n    function uintTostr (uint intVar) internal pure returns (string memory _uintAsString) {\n        if (intVar == 0) {\n            return \"0\";\n        }\n        uint j = intVar;\n        uint len;\n        while (j != 0) {\n            len++;\n            j /= 10;\n        }\n        bytes memory bstr = new bytes(len);\n        uint k = len - 1;\n        while (intVar != 0) {\n            bstr[k--] = byte(uint8(48 + intVar % 10));\n            intVar /= 10;\n        }\n        return string(bstr);\n    }\n//***********************************************************************//\n    \n    /**\n    *   @dev Contcatenates two string and returns the result\n    */\n\n    function contcat(string memory a, string memory b) internal pure returns (string memory) {\n\n        return string (abi.encodePacked( a , b));\n    }\n\n//****************************************************//\n//****************************************************//\n//****************************************************//\n\n    /**\n    *   @dev\n        States.Open: The market is open\n        States.Settled: The market is closed and settled (orders have been processed)\n        creationTime: The openning time of the market\n        biddingPeriod: The window of time during which the market is open\n        numOrders: Total orders in the market (both bids and asks)\n        buylistCounter: A bid orders counter that is decremented every time a bid is submitted (used for handling ties)\n        sellistCounter: An ask orders counter that is incremented every time an ask is submitted (used for handling ties)\n        refunds: Maintains the refund counters to be transferred to the block.coinbase (current block miner)\n\n        totalTokenBalance: Maintains the total token balance of each trader \n        unavailableTokenBalance: Maintains the number of tokens a trader has depositted\n        unavailableTokenArray: Maintains a list of unavailableTokenBalance addresses, this list will be used to delete the unavailableTokenBalance mapping\n\n        totalEtherBalance: Maintains the total ETH balance of each trader \n        unavailableEtherBalance: Maintains the number of ETH a trader has depositted\n        unavailableEtherArray: Maintains a list of unavailableEtherBalance addresses, this list will be used to delete the unavailableEtherBalance mapping\n    */\n\n    //uint256 public countervariable;\n    enum States {Open, Settled} \n    States internal state;\n    uint256 public creationTime;\n    uint256 public biddingPeriod;\n    uint256 public numOrders;        \n    uint256 public buylistCounter;   \n    uint256 public sellistCounter;  \n    mapping(address => uint256) internal refunds;\n\n    mapping(address => uint256) public totalTokenBalance;\n    mapping(address => uint256) public unavailableTokenBalance;\n    address[] public unavailableTokenArray;\n\n    mapping(address => uint256) public totalEtherBalance;\n    mapping(address => uint256) public unavailableEtherBalance;\n    address[] public unavailableEtherArray;\n    \n\n\n//**********************************************//\n//***************Function Modifiers*************//\n//**********************************************//\n    \n    /**\n    *   @dev Checks whether the market should be closed or not\n    */\n    \n    modifier CheckAuctionStage () {\n        if (block.timestamp >= creationTime + biddingPeriod || numOrders == 100) \n        {\n            closeMarket();\n        }\n        _;\n    }\n\n    \n//**********************************************// \n    /**\n    *   @dev Checks whether the market is at state_1 or not \n    */\n\n    modifier auctionAtStage (States state_1 ) { \n        require (state == state_1,  'The market is not ant desired state'); \n        _;\n    }\n//***********************************************************************//\n    /**\n    *   @dev Allows the traders to deposit ERC20 tokens\n        Traders must firs call the approve() from the ERC20 token contract to allow the call market contract to spend those tokens\n    */\n\n    function depositToken(address token, uint256 numofTokens) external returns (bool) {\n        \n        totalTokenBalance[msg.sender] += numofTokens;\n        IERC20(token).transferFrom(msg.sender, address(this), numofTokens);        \n        return true;\n    \n    }\n//***********************************************************************//\n    /**\n    *   @dev Allows the traders to deposit ETH\n    */ \n\n    function depositEther() external payable returns (bool) {\n        totalEtherBalance[msg.sender] += msg.value;\n        \n        return true;\n    }\n\n\n\n//***********************************************************************//\n    /**\n    *   @dev Opens the market\n    */ \n\n    function openMarket() external returns (bool) {\n\n        creationTime = block.timestamp; \n        biddingPeriod = 14 days;\n        state = States.Open;\n        numOrders = 0;\n        sellistCounter = 100;\n        buylistCounter = 999;\n        return true;\n\n    }\n//***********************************************************************//\n    /**\n    *   @dev \n        Allows traders to submit bid orders if the market is at the open state\n        Traders must have enough ETH already depositted\n        To handle ties: Converts the bid price to string, contactenate it with the buylistCounter and converts the constactenated string to uint\n        Calls the PQ InsertBid function\n        Increment the market's total number of orders \n        Decrements the buylistCounter\n        Increase the unavailableEtherBalance of the trader by _volume * _price;\n    */ \n  \n    function submitBid (uint256 price, uint256 volume) external CheckAuctionStage() auctionAtStage (States.Open) returns (bool)\n    {\n        require ((totalEtherBalance[msg.sender] - unavailableEtherBalance[msg.sender]) >= volume * price, 'Ether balance is not enough!' );\n        \n        uint256 _finalpriceUint;\n        string memory _finalpriceString;\n        _finalpriceString = contcat ( uintTostr(price), uintTostr (buylistCounter));\n        _finalpriceUint = strTouint (_finalpriceString);\n        \n        numOrders++;\n        buylistCounter--;\n        unavailableEtherBalance[msg.sender] += volume * price;\n        unavailableEtherArray.push(msg.sender);\n        priorityQueue.insertBid(msg.sender, price, volume, _finalpriceUint);\n        return true;\n    }\n\n//***********************************************************************//\n    /**\n    *   @dev \n        Allows traders to submit ask orders if the market is at the open state\n        Traders must have enough tokens already depositted\n        To handle ties: Converts the ask price to string, contactenate it with the sellistCounter and converts the constactenated string to uint\n        Calls the PQ InsertAsk function\n        Increments the market's total number of orders \n        Increments the sellistCounter\n        Increase the unavailableTokenBalance of the trader by _volume\n    */ \n\n    function submitAsk (uint256 price, uint256 volume) external CheckAuctionStage() auctionAtStage (States.Open) returns (bool)\n    {\n        require((totalTokenBalance[msg.sender] - unavailableTokenBalance[msg.sender]) >= volume, 'Token balance is not enough!');\n        uint256 _finalpriceUint;\n        string memory _finalpriceString;\n        _finalpriceString = contcat ( uintTostr(price), uintTostr (sellistCounter));\n        _finalpriceUint = strTouint (_finalpriceString);\n        \n        numOrders++;\n        sellistCounter++;\n        unavailableTokenBalance[msg.sender] += volume;\n        unavailableTokenArray.push(msg.sender);\n        priorityQueue.insertAsk(msg.sender, price, volume, _finalpriceUint);\n        return true;\n\n    }\n\n\n\n\n//***********************************************************************//\n    /**\n    *   @dev \n        closeMarket() version1: Closes the market and processes all the orders (all voulmes are 1)\n        \n\n    */\n    \n    function closeMarket() public returns (bool){\n\n        state = States.Settled;\n\n        (uint256 BBPrice, address BBSender, uint256 BBVolume) = priorityQueue.buyListMaxDelete();\n        (uint256 BAPrice, address BASender, uint256 BAVolume) = priorityQueue.sellListMaxDelete();\n    \n        while (BBPrice >= BAPrice)\n        \n        {  \n    \n            //Alice bids 110$, Bob asks for 90$ -> Alice pays 110$ but Bob only gets what he's asked for (90$). 20$ price improvements go to the miner\n            totalTokenBalance[BBSender] += 1;\n            totalEtherBalance[BBSender] -= BBPrice;\n\n            totalEtherBalance[BASender] += BAPrice;\n            totalTokenBalance[BASender] -= 1;\n            //refunds[block.coinbase] += BBPrice - BAPrice;\n         \n            if (priorityQueue.buyListisEmpty() || priorityQueue.sellListisEmpty()) \n            {\n                break;\n            }\n\n            (BBPrice,BBSender,BBVolume) = priorityQueue.buyListMaxDelete();\n            (BAPrice,BASender,BAVolume) = priorityQueue.sellListMaxDelete();\n        }\n        \n        uint refund = refunds[block.coinbase]; \n        refunds[block.coinbase] = 0; \n        block.coinbase.transfer(refund);\n        \n        for (uint i = 0 ; i< unavailableTokenArray.length; i++) \n        {   \n            delete unavailableTokenBalance[unavailableTokenArray[i]];\n        }\n        \n        for (uint j= 0 ; j< unavailableEtherArray.length; j++) \n        {   \n            delete unavailableEtherBalance[unavailableEtherArray[j]];\n        }\n             \n        \n        \n        return true;\n\n        \n    }\n//***********************************************************************//\n    /**\n    *   @dev \n        closeMarket() version2: Closes the market and processes all the orders (partial filling)\n        \n\n    */\n \n    // function closeMarket() public returns (bool){\n\n    //     state = States.Settled;\n        \n    //     (uint256 BBPrice, address BBSender, uint256 BBVolume) = priorityQueue.buyListMax();\n    //     (uint256 BAPrice, address BASender, uint256 BAVolume) = priorityQueue.sellListMax();\n    \n        \n        \n        \n    //      while (BBPrice >= BAPrice)\n    //     {  \n            \n    //         if (BBVolume > BAVolume ) \n    //         {\n    //             totalTokenBalance[BBSender] += BAVolume ;\n    //             totalEtherBalance[BBSender] -= BBPrice;\n\n    //             totalEtherBalance[BASender] += BAPrice;\n    //             totalTokenBalance[BASender] -= BAVolume;\n                \n    //             BBVolume = BBVolume - BAVolume;\n    //             priorityQueue.sellListMaxDelete();\n                \n\n    //             if (priorityQueue.buyListisEmpty() || priorityQueue.sellListisEmpty()) \n    //             {\n    //                 break;\n    //             }\n    //             (BAPrice, BASender, BAVolume) = priorityQueue.sellListMax();\n    //         }\n            \n    //         if (BBVolume < BAVolume) \n    //         {   \n                \n    //             totalTokenBalance[BBSender] += BBVolume ;\n    //             totalEtherBalance[BBSender] -= BBPrice;\n\n    //             totalEtherBalance[BASender] += BAPrice;\n    //             totalTokenBalance[BASender] -= BBVolume;\n\n    //             BAVolume = BAVolume - BBVolume;\n    //             priorityQueue.buyListMaxDelete();\n                \n\n    //             if (priorityQueue.buyListisEmpty() || priorityQueue.sellListisEmpty()) \n    //             {\n    //                 break;\n    //             }\n    //             (BBPrice,BBSender,BBVolume) = priorityQueue.buyListMax();\n                \n\n\n    //         }\n\n    //         if (BBVolume == BAVolume) \n    //         {\n                \n    //             totalTokenBalance[BBSender] += BBVolume ;\n    //             totalEtherBalance[BBSender] -= BBPrice;\n\n    //             totalEtherBalance[BASender] += BAPrice;\n    //             totalTokenBalance[BASender] -= BBVolume;\n\n    //             priorityQueue.buyListMaxDelete();\n    //             priorityQueue.sellListMaxDelete();\n                \n\n    //             if (priorityQueue.buyListisEmpty() || priorityQueue.sellListisEmpty()) \n    //             {\n    //                 break;\n    //             }\n    //             (BBPrice,BBSender,BBVolume) = priorityQueue.buyListMax();\n    //             (BAPrice,BASender,BAVolume) = priorityQueue.sellListMax();\n\n    //         }\n    \n            \n\n    //     uint refund = refunds[block.coinbase]; \n    //     refunds[block.coinbase] = 0; \n    //     block.coinbase.transfer(refund);\n        \n    //     for (uint i = 0 ; i< unavailableTokenArray.length; i++) \n    //     {   \n    //        delete unavailableTokenBalance[unavailableTokenArray[i]];\n    //     }\n        \n    //     for (uint j= 0 ; j< unavailableEtherArray.length; j++) \n    //     {   \n    //        delete unavailableEtherBalance[unavailableEtherArray[j]];\n    //     }\n             \n        \n        \n        \n    //     } \n    //     return true;\n        \n    // }\n//***********************************************************************//\n    /**\n    *   @dev Allows the tarders to claim their available tokens back\n    */    \n    function claimTokens (address token, uint256 numofTokens ) external returns (bool)\n    {\n        require ((totalTokenBalance[msg.sender] - unavailableTokenBalance[msg.sender]) >= numofTokens, 'Not enough Tokens');\n        uint256 tokensToBeClaimed = numofTokens ;\n        totalTokenBalance[msg.sender] -= tokensToBeClaimed;\n        IERC20(token).transfer(msg.sender, tokensToBeClaimed);\n        return true;\n    }\n//***********************************************************************//\n    /**\n    *   @dev Allows the tarders to claim their available ETH back\n    */     \n    function claimEther (uint256 numofEthers) external returns (bool)\n    {\n        require ((totalEtherBalance[msg.sender] - unavailableEtherBalance[msg.sender]) >= numofEthers, 'Not enough Ethers');\n        uint256 EthersToBeClaimed = numofEthers ;\n        totalEtherBalance[msg.sender] -= EthersToBeClaimed;\n        msg.sender.transfer(EthersToBeClaimed);\n        return true;\n    }    \n//***********************************************************************//\n    /**\n    *   @dev Getter function to get the Ether balanace of the contract \n    */     \n    function getBalance() public view returns (uint256) {\n        return address(this).balance;\n    } \n                                                                                                                                                                                   \n}                                                                                                                                                                                                                                                                                                                                                                                                       ",
  "sourcePath": "/Users/mahsamoosavi/Documents/GitHub/2020-Orderbook/Code/L2-Truffle/contracts/CallMarket.sol",
  "compiler": {
    "name": "solc",
    "version": "0.6.11+commit.5ef660b1.Emscripten.clang"
  },
  "schemaVersion": "3.3.3",
  "updatedAt": "2021-02-23T15:27:02.639Z",
  "devdoc": {
    "kind": "dev",
    "methods": {
      "claimEther(uint256)": {
        "details": "Allows the tarders to claim their available ETH back"
      },
      "claimTokens(address,uint256)": {
        "details": "Allows the tarders to claim their available tokens back"
      },
      "closeMarket()": {
        "details": " closeMarket() version1: Closes the market and processes all the orders (all voulmes are 1)"
      },
      "depositEther()": {
        "details": "Allows the traders to deposit ETH"
      },
      "depositToken(address,uint256)": {
        "details": "Allows the traders to deposit ERC20 tokens Traders must firs call the approve() from the ERC20 token contract to allow the call market contract to spend those tokens"
      },
      "getBalance()": {
        "details": "Getter function to get the Ether balanace of the contract "
      },
      "openMarket()": {
        "details": "Opens the market"
      },
      "submitAsk(uint256,uint256)": {
        "details": " Allows traders to submit ask orders if the market is at the open state Traders must have enough tokens already depositted To handle ties: Converts the ask price to string, contactenate it with the sellistCounter and converts the constactenated string to uint Calls the PQ InsertAsk function Increments the market's total number of orders  Increments the sellistCounter Increase the unavailableTokenBalance of the trader by _volume"
      },
      "submitBid(uint256,uint256)": {
        "details": " Allows traders to submit bid orders if the market is at the open state Traders must have enough ETH already depositted To handle ties: Converts the bid price to string, contactenate it with the buylistCounter and converts the constactenated string to uint Calls the PQ InsertBid function Increment the market's total number of orders  Decrements the buylistCounter Increase the unavailableEtherBalance of the trader by _volume * _price;"
      }
    },
    "version": 1
  },
  "userdoc": {
    "kind": "user",
    "methods": {},
    "version": 1
  }
}