{
  "contractName": "HeapDynamicArray",
  "abi": [
    {
      "inputs": [
        {
          "internalType": "address",
          "name": "sender",
          "type": "address"
        },
        {
          "internalType": "uint256",
          "name": "price",
          "type": "uint256"
        },
        {
          "internalType": "uint256",
          "name": "volume",
          "type": "uint256"
        },
        {
          "internalType": "uint256",
          "name": "auxprice",
          "type": "uint256"
        }
      ],
      "name": "insertBid",
      "outputs": [],
      "stateMutability": "nonpayable",
      "type": "function"
    },
    {
      "inputs": [],
      "name": "buyListMaxDelete",
      "outputs": [
        {
          "internalType": "uint256",
          "name": "",
          "type": "uint256"
        },
        {
          "internalType": "address",
          "name": "",
          "type": "address"
        },
        {
          "internalType": "uint256",
          "name": "",
          "type": "uint256"
        }
      ],
      "stateMutability": "nonpayable",
      "type": "function"
    },
    {
      "inputs": [],
      "name": "buyListMax",
      "outputs": [
        {
          "internalType": "uint256",
          "name": "",
          "type": "uint256"
        },
        {
          "internalType": "address",
          "name": "",
          "type": "address"
        },
        {
          "internalType": "uint256",
          "name": "",
          "type": "uint256"
        }
      ],
      "stateMutability": "view",
      "type": "function"
    },
    {
      "inputs": [],
      "name": "buyListisEmpty",
      "outputs": [
        {
          "internalType": "bool",
          "name": "",
          "type": "bool"
        }
      ],
      "stateMutability": "view",
      "type": "function"
    },
    {
      "inputs": [
        {
          "internalType": "address",
          "name": "sender",
          "type": "address"
        },
        {
          "internalType": "uint256",
          "name": "price",
          "type": "uint256"
        },
        {
          "internalType": "uint256",
          "name": "volume",
          "type": "uint256"
        },
        {
          "internalType": "uint256",
          "name": "auxprice",
          "type": "uint256"
        }
      ],
      "name": "insertAsk",
      "outputs": [],
      "stateMutability": "nonpayable",
      "type": "function"
    },
    {
      "inputs": [],
      "name": "sellListMaxDelete",
      "outputs": [
        {
          "internalType": "uint256",
          "name": "",
          "type": "uint256"
        },
        {
          "internalType": "address",
          "name": "",
          "type": "address"
        },
        {
          "internalType": "uint256",
          "name": "",
          "type": "uint256"
        }
      ],
      "stateMutability": "nonpayable",
      "type": "function"
    },
    {
      "inputs": [],
      "name": "sellListMax",
      "outputs": [
        {
          "internalType": "uint256",
          "name": "",
          "type": "uint256"
        },
        {
          "internalType": "address",
          "name": "",
          "type": "address"
        },
        {
          "internalType": "uint256",
          "name": "",
          "type": "uint256"
        }
      ],
      "stateMutability": "view",
      "type": "function"
    },
    {
      "inputs": [],
      "name": "sellListisEmpty",
      "outputs": [
        {
          "internalType": "bool",
          "name": "",
          "type": "bool"
        }
      ],
      "stateMutability": "view",
      "type": "function"
    }
  ],
  "bytecode": "0x608060405234801561001057600080fd5b50611105806100206000396000f3fe608060405234801561001057600080fd5b50600436106100885760003560e01c806391447d321161005b57806391447d32146100df5780639484d404146100e7578063a78b7907146100ef578063cc0ba6701461010257610088565b80631b44d8d01461008d578063211b0d3c146100ad578063502f8609146100c25780638a07bb65146100d7575b600080fd5b61009561010a565b6040516100a4939291906110b0565b60405180910390f35b6100b561033f565b6040516100a4919061104e565b6100d56100d0366004611009565b610356565b005b61009561045b565b6100956104f4565b6100956106db565b6100d56100fd366004611009565b610752565b6100b5610851565b60008054819081906101375760405162461bcd60e51b815260040161012e90611085565b60405180910390fd5b600054600114156101ff5760008060008154811061015157fe5b906000526020600020906004020160010154905060008060008154811061017457fe5b6000918252602082206004909102015481546001600160a01b0390911692508190819061019d57fe5b906000526020600020906004020160020154905060008054806101bc57fe5b60008281526020812060046000199093019283020180546001600160a01b031916815560018101829055600281018290556003015590559194509250905061033a565b60008060008154811061020e57fe5b906000526020600020906004020160010154905060008060008154811061023157fe5b6000918252602082206004909102015481546001600160a01b0390911692508190819061025a57fe5b600091825260208220600260049092020101548154909250600019810190811061028057fe5b90600052602060002090600402016000808154811061029b57fe5b600091825260208220835460049092020180546001600160a01b0319166001600160a01b0390921691909117815560018084015490820155600280840154908201556003928301549201919091558054806102f257fe5b60008281526020812060046000199093019283020180546001600160a01b03191681556001810182905560028101829055600301559055610331610863565b50919450925090505b909192565b6000805461034f57506001610353565b5060005b90565b61035e610fd8565b50604080516080810182526001600160a01b03868116825260208201868152928201858152606083018581526000805460018101825590805284517f290decd9548b62a8d60345a988386fc84ba6bc95484008f6362f93160ef3e563600490920291820180546001600160a01b031916919095161790935593517f290decd9548b62a8d60345a988386fc84ba6bc95484008f6362f93160ef3e564830155517f290decd9548b62a8d60345a988386fc84ba6bc95484008f6362f93160ef3e56582015591517f290decd9548b62a8d60345a988386fc84ba6bc95484008f6362f93160ef3e56690920191909155610453610a7b565b505050505050565b600154600090819081906104815760405162461bcd60e51b815260040161012e90611059565b600160008154811061048f57fe5b90600052602060002090600402016001015460016000815481106104af57fe5b60009182526020822060049091020154600180546001600160a01b039092169290916104d757fe5b906000526020600020906004020160020154925092509250909192565b6001546000908190819061051a5760405162461bcd60e51b815260040161012e90611059565b6001805414156105a1576000600160008154811061053457fe5b90600052602060002090600402016001015490506000600160008154811061055857fe5b60009182526020822060049091020154600180546001600160a01b03909216935090829061058257fe5b906000526020600020906004020160020154905060018054806101bc57fe5b600060016000815481106105b157fe5b9060005260206000209060040201600101549050600060016000815481106105d557fe5b60009182526020822060049091020154600180546001600160a01b0390921693509082906105ff57fe5b90600052602060002090600402016002015490506001808080549050038154811061062657fe5b9060005260206000209060040201600160008154811061064257fe5b60009182526020909120825460049092020180546001600160a01b0319166001600160a01b039092169190911781556001808301548183015560028084015490830155600392830154929091019190915580548061069c57fe5b60008281526020812060046000199093019283020180546001600160a01b03191681556001810182905560028101829055600301559055610331610c2a565b60008054819081906106ff5760405162461bcd60e51b815260040161012e90611085565b6000808154811061070c57fe5b9060005260206000209060040201600101546000808154811061072b57fe5b6000918252602082206004909102015481546001600160a01b03909116919081906104d757fe5b61075a610fd8565b50604080516080810182526001600160a01b038681168252602082018681529282018581526060830185815260018054808201825560009190915284517fb10e2d527612073b26eecdfd717e6a320cf44b4afac2b0732d9fcbe2b7fa0cf6600490920291820180546001600160a01b031916919095161790935593517fb10e2d527612073b26eecdfd717e6a320cf44b4afac2b0732d9fcbe2b7fa0cf7830155517fb10e2d527612073b26eecdfd717e6a320cf44b4afac2b0732d9fcbe2b7fa0cf882015591517fb10e2d527612073b26eecdfd717e6a320cf44b4afac2b0732d9fcbe2b7fa0cf990920191909155610453610e34565b60015460009061034f57506001610353565b60008060015b600054811015610a7257600054819060018201908110156108cf576000838154811061089157fe5b906000526020600020906004020160030154600082815481106108b057fe5b90600052602060002090600402016003015411156108cf576001909101905b600082815481106108dc57fe5b906000526020600020906004020160030154600085815481106108fb57fe5b9060005260206000209060040201600301541015610a645761091b610fd8565b6000858154811061092857fe5b6000918252602080832060408051608081018252600490940290910180546001600160a01b0316845260018101549284019290925260028201549083015260030154606082015281549092508490811061097e57fe5b90600052602060002090600402016000868154811061099957fe5b600091825260208220835460049092020180546001600160a01b0319166001600160a01b0390921691909117815560018084015490820155600280840154908201556003928301549201919091558054829190859081106109f657fe5b906000526020600020906004020160008201518160000160006101000a8154816001600160a01b0302191690836001600160a01b0316021790555060208201518160010155604082015181600201556060820151816003015590505082945084600202600101935050610a6b565b5050610a72565b5050610869565b60019250505090565b60008054600019015b8015610c225760006002600019830104905060008181548110610aa357fe5b90600052602060002090600402016003015460008381548110610ac257fe5b9060005260206000209060040201600301541115610c1657610ae2610fd8565b60008381548110610aef57fe5b6000918252602080832060408051608081018252600490940290910180546001600160a01b03168452600181015492840192909252600282015490830152600301546060820152815490925083908110610b4557fe5b906000526020600020906004020160008481548110610b6057fe5b600091825260208220835460049092020180546001600160a01b0319166001600160a01b039092169190911781556001808401549082015560028084015490820155600392830154920191909155805482919084908110610bbd57fe5b600091825260209182902083516004929092020180546001600160a01b0319166001600160a01b039092169190911781559082015160018201556040820151600282015560609091015160039091015550905080610c1c565b50610c22565b50610a84565b600191505090565b60008060015b600154811015610a7257600180548291820190811015610c955760018381548110610c5757fe5b90600052602060002090600402016003015460018281548110610c7657fe5b9060005260206000209060040201600301541015610c95576001909101905b60018481548110610ca257fe5b90600052602060002090600402016003015460018381548110610cc157fe5b9060005260206000209060040201600301541015610a6457610ce1610fd8565b60018581548110610cee57fe5b600091825260209182902060408051608081018252600490930290910180546001600160a01b0316835260018082015494840194909452600281015491830191909152600301546060820152815490925084908110610d4957fe5b906000526020600020906004020160018681548110610d6457fe5b60009182526020909120825460049092020180546001600160a01b0319166001600160a01b0390921691909117815560018083015481830155600280840154908301556003928301549290910191909155805482919085908110610dc457fe5b906000526020600020906004020160008201518160000160006101000a8154816001600160a01b0302191690836001600160a01b03160217905550602082015181600101556040820151816002015560608201518160030155905050829450846002026001019350505050610c30565b600154600090600019015b8015610c225760006002600019830104905060018181548110610e5e57fe5b90600052602060002090600402016003015460018381548110610e7d57fe5b9060005260206000209060040201600301541015610c1657610e9d610fd8565b60018381548110610eaa57fe5b600091825260209182902060408051608081018252600490930290910180546001600160a01b0316835260018082015494840194909452600281015491830191909152600301546060820152815490925083908110610f0557fe5b906000526020600020906004020160018481548110610f2057fe5b60009182526020909120825460049092020180546001600160a01b0319166001600160a01b0390921691909117815560018083015481830155600280840154908301556003928301549290910191909155805482919084908110610f8057fe5b600091825260209182902083516004929092020180546001600160a01b0319166001600160a01b0390921691909117815590820151600182015560408201516002820155606090910151600390910155509050610e3f565b604051806080016040528060006001600160a01b031681526020016000815260200160008152602001600081525090565b6000806000806080858703121561101e578384fd5b84356001600160a01b0381168114611034578485fd5b966020860135965060408601359560600135945092505050565b901515815260200190565b60208082526012908201527173656c6c4c69737420697320656d7074792160701b604082015260600190565b6020808252601190820152706275794c69737420697320656d7074792160781b604082015260600190565b9283526001600160a01b0391909116602083015260408201526060019056fea264697066735822122038d4615e57f729ce72f054e8e25cb84e6a3f4e9fa38ab8455d3d88c6fb94f31a64736f6c634300060b0033",
  "immutableReferences": {},
  "source": "pragma solidity >=0.4.22;\npragma experimental ABIEncoderV2;\n\n//Heap with dynamic array wrapped in a priority queue\ncontract HeapDynamicArray{\n  \n\n/**\n*   @dev \n    Orderstruct with its elements:\n        Sender: The address of the trader submitting the order\n        Price: The price of the order\n        Volume: The volume of the order\n        AuxPrice: The contcantenation of the order's price and the counter which helps to sort the heap when there are ties\n    \n    buyList: The array that contains bid OrderStructs, it is a maxheap (decrementally sorted)\n    sellList: The array that contains ask OrderStructs, it is a minheap (incrementally sorted)\n*/\n    struct OrderStruct \n    {\n        address Sender;\n        uint256 Price;\n        uint256 Volume;     \n        uint256 AuxPrice;   \n\n    }\n\n    OrderStruct[] internal buyList;  \n    OrderStruct[] internal sellList; \n\n//*****************************************************************//\n//**********************  buyList Functions  **********************//\n//*****************************************************************//\n\n//***********************************************************************//\n\n    /**\n    *   @dev Adds the incoming bid orders to the end of the buyList array which will be then heapified\n    */\n  \n    function insertBid (address sender, uint256 price, uint256 volume, uint256 auxprice) external \n    {\n        OrderStruct memory neworder = OrderStruct(sender, price , volume, auxprice);\n        buyList.push(neworder);\n        maxheapHeapifyUp();\n    }    \n//***********************************************************************//\n\n    /**\n    *   @dev Sorts the heap\n    */\n    \n    function maxheapHeapifyUp () internal returns (bool) {\n        \n        //k is set to be the index of the last entry of the buyList array which is the oredr that has been added and needs to be moved up\n        uint256 k = buyList.length - 1;                   \n\n        //while we havent reached to the top of the heap\n        while (k > 0){       \n            //compute the parent of this last element which is p = (k-1)/2                           \n            uint256 p = (k-1)/2;  \n            //if the element's price is greater than its parent's price                         \n            if (buyList[k].AuxPrice > buyList[p].AuxPrice) \n            {   \n                //swap the element at index k with its parent\n                OrderStruct memory temp = buyList[k];    \n                buyList[k] = buyList[p];\n                buyList[p] = temp;\n                //k moves up one level\n                k = p;                                  \n            }\n            //if not, break statement exits the loop (it continues until no element index k is greater than its parent)\n            else {break;}                               \n        }\n        return true;\n    }\n\n//***********************************************************************//\n\n    /**\n    *   @dev Removes and returns the highest priority element of the buyList\n        Only if the buyList is not empty\n        then the heap is reordered using the heapifyDown method\n    */\n\n    function buyListMaxDelete() external returns (uint256, address, uint256) \n    {\n        require (buyList.length != 0,'buyList is empty!');\n        \n        //If the buyList has only one order\n        if (buyList.length == 1) {                                                          \n            uint256 _price =  buyList[0].Price;\n            address _sender =  buyList[0].Sender;\n            uint256 _volume = buyList[0].Volume;\n            buyList.pop();                                                  \n            return (_price ,_sender, _volume);     \n       \n        }\n\n        uint256 _price =  buyList[0].Price;\n        address _sender =  buyList[0].Sender;\n        uint256 _volume = buyList[0].Volume;\n        //The last elementof the buyList is removed and written into the first position\n        buyList[0] = buyList[buyList.length -1]; \n        buyList.pop();\n        maxheapHeapifyDown();\n        return (_price, _sender, _volume);  \n    }\n//***********************************************************************//\n    /**\n    *   @dev Returns the sender, price, and volume of the highest priority element (The highest bid)\n    */ \n    function buyListMax() external view returns (uint256, address, uint256){\n        \n        require (buyList.length != 0,'buyList is empty!');  //throws exception if the buylist is empty\n        return (buyList[0].Price, buyList[0].Sender, buyList[0].Volume);\n        \n    }\n\n//***********************************************************************//\n\n    /**\n    *   @dev Heapifydown the buyList when a bid order is removed \n    */ \n\n    function maxheapHeapifyDown () internal returns (bool)\n    {\n        uint256 k =0;\n        uint256 leftchild = 2*k + 1;\n        \n        //As long as the left child is within the array that heap is stored in\n        while (leftchild < buyList.length)\n        {                                   \n            uint256 max = leftchild;\n            //rightchild = 2k+2\n            uint256 rightchild = leftchild + 1;                                     \n            //if there is a rightchild\n            if (rightchild < buyList.length)                                       \n            {   \n                //then the right child and left child are compared\n                if (buyList[rightchild].AuxPrice > buyList[leftchild].AuxPrice)    \n                {\n                    //now max is set to rightchild, otherwise max remains to be the leftchild\n                    max++;                                                       \n                }\n            }\n            //compares the k item with the max item and if k is smaller than its greatest children they are swapped\n            if (buyList[k].AuxPrice < buyList[max].AuxPrice)                        \n            {\n            \n                OrderStruct memory temp = buyList[k];\n                buyList[k] = buyList[max];    \n                buyList[max] = temp;\n                //k is set to max\n                k = max;    \n                //leftchild is recompuetd in preparation for the next iteration                                                     \n                leftchild =2*k + 1;                                              \n            }\n            else\n            { \n                //if the k item is not smaller than the max item, heapifyDown should stop                                                              \n                break;\n            }\n        }\n        return true;\n    }\n\n//***********************************************************************//\n    /**\n    *   @dev Checks if the buyList is empty or not\n    */ \n    function buyListisEmpty() external view returns (bool){\n        \n        if (buyList.length == 0) \n        {\n            return true;\n\n        }\n        else\n        {\n            return false;\n        }\n        \n    }\n//*****************************************************************//\n//**********************  SellList Functions  *********************//\n//*****************************************************************//\n\n//***********************************************************************//\n\n    /**\n    *   @dev Adds the incoming ask orders to the end of the sellList array which will be then heapified\n    */\n\n    function insertAsk (address sender, uint256 price, uint256 volume, uint256 auxprice) external  \n    {\n        OrderStruct memory neworder = OrderStruct(sender, price , volume, auxprice); \n        sellList.push(neworder);\n        minheapHeapifyUp();\n        \n    }    \n//***********************************************************************//\n\n    /**\n    *   @dev Sorts the heap\n    */\n    function minheapHeapifyUp () internal returns (bool) {\n\n        //k is set to be the index of the last entry of the sellList array which is the oredr that has been added and needs to be moved up\n        uint256 k = sellList.length - 1; \n        //while we havent reached to the top of the heap\n        while (k > 0){                                      \n            //we need to compute the parent of this last element which is p = (k-1)/2\n            uint256 p = (k-1)/2;                            \n            //if the element is smaller than its parent\n            if (sellList[k].AuxPrice < sellList[p].AuxPrice) \n            { \n                //swap the element at index k with its parent\n                OrderStruct memory temp = sellList[k];    \n                sellList[k] = sellList[p];\n                sellList[p] = temp;\n                //k moves up one level\n                k = p; \n            }\n            //if not, the break statement exits the loop (it continues until no element index k is smaller than its parent)\n            else {break;} \n        }\n        \n        return true;\n    }    \n//***********************************************************************//\n\n    /**\n    *   @dev Removes and returns the highest priority element of the sellList (the lowest ask order)\n        Only if the sellList is not empty\n        then the heap is reordered using the heapifyDown method\n    */\n    function sellListMaxDelete() external returns (uint256, address, uint256)\n    \n    {\n        require(sellList.length != 0, 'sellList is empty!');             \n        //if the heap has only one order\n        if (sellList.length == 1) {                               \n            uint256 _price =  sellList[0].Price;\n            address _sender =  sellList[0].Sender;\n            uint256 _volume = sellList[0].Volume;\n            sellList.pop();                                    \n            return (_price, _sender, _volume);\n        }\n\n        uint256 _price =  sellList[0].Price;\n        address _sender =  sellList[0].Sender;\n        uint256 _volume = sellList[0].Volume;\n        //the last elementof the heap is removed and written into the first position\n        sellList[0] = sellList[sellList.length -1];                      \n        sellList.pop(); \n        minheapHeapifyDown();                           \n        return (_price, _sender, _volume);       \n    }\n//***********************************************************************//\n    /**\n    *   @dev Returns the sender, price, and volume of the highest priority element (The lowest ask)\n    */ \n    function sellListMax() external view returns (uint256, address, uint256){\n        \n        require(sellList.length != 0, 'sellList is empty!');  //throws exception if the sellist is empty\n        return (sellList[0].Price, sellList[0].Sender, sellList[0].Volume);\n        \n    }\n\n//***********************************************************************//\n\n    /**\n    *   @dev Heapifydown the sellList when an order is removed \n    */ \n\n    function minheapHeapifyDown () internal returns (bool) \n    {\n        uint256 k =0;\n        uint256 leftchild = 2*k + 1;\n        //as long as the left child is within the array that heap is stored in\n        while (leftchild < sellList.length){               \n            uint256 min = leftchild;\n            //rightchild = 2k+2\n            uint256 rightchild = leftchild + 1;              \n            \n            //if there is a rightchild, then the right child and left child are compared\n            if (rightchild < sellList.length)               \n            {\n                if (sellList[rightchild].AuxPrice < sellList[leftchild].AuxPrice)\n                {   //now min is set to rightchild, otherwise min remains to be the leftchild\n                    min++;   \n                }                               \n            }\n            //compares the k item with the max item and if its less they are swapped\n            if (sellList[min].AuxPrice < sellList[k].AuxPrice) \n            {                   \n                //swap the element at index k with its parent \n                OrderStruct memory temp = sellList[k];    \n                sellList[k] = sellList[min];\n                sellList[min] = temp;\n                \n                //k is set to min\n                k = min; \n                //leftchild is recompuetd in preparation for the next iteration\n                leftchild = 2*k + 1; \n            }\n            //if k item's smaller childer is not smaller than k item itself, heapifyDown should stop\n            else\n            { \n                break;\n            }\n\n        }\n        return true;\n    }\n\n//***********************************************************************//\n    /**\n    *   @dev Checks if the sellList is empty or not\n    */\n\n    function sellListisEmpty() external view returns (bool){\n        \n        if (sellList.length == 0) \n        {\n            return true;\n\n        }\n        else\n        {\n            return false;\n        }\n        \n    }\n        \n\n\n\n\n\n\n}",
  "sourcePath": "/Users/mahsamoosavi/Documents/GitHub/2020-Orderbook/Code/L2-Truffle/contracts/HeapDynamicArray.sol",
  "compiler": {
    "name": "solc",
    "version": "0.6.11+commit.5ef660b1.Emscripten.clang"
  },
  "schemaVersion": "3.3.3",
  "updatedAt": "2021-02-27T15:04:03.140Z",
  "devdoc": {
    "kind": "dev",
    "methods": {
      "buyListMax()": {
        "details": "Returns the sender, price, and volume of the highest priority element (The highest bid)"
      },
      "buyListMaxDelete()": {
        "details": "Removes and returns the highest priority element of the buyList Only if the buyList is not empty then the heap is reordered using the heapifyDown method"
      },
      "buyListisEmpty()": {
        "details": "Checks if the buyList is empty or not"
      },
      "insertAsk(address,uint256,uint256,uint256)": {
        "details": "Adds the incoming ask orders to the end of the sellList array which will be then heapified"
      },
      "insertBid(address,uint256,uint256,uint256)": {
        "details": "Adds the incoming bid orders to the end of the buyList array which will be then heapified"
      },
      "sellListMax()": {
        "details": "Returns the sender, price, and volume of the highest priority element (The lowest ask)"
      },
      "sellListMaxDelete()": {
        "details": "Removes and returns the highest priority element of the sellList (the lowest ask order) Only if the sellList is not empty then the heap is reordered using the heapifyDown method"
      },
      "sellListisEmpty()": {
        "details": "Checks if the sellList is empty or not"
      }
    },
    "version": 1
  },
  "userdoc": {
    "kind": "user",
    "methods": {},
    "version": 1
  }
}