{
  "contractName": "HeapStaticArray",
  "abi": [
    {
      "inputs": [
        {
          "internalType": "uint256",
          "name": "_MAXORDERS",
          "type": "uint256"
        }
      ],
      "stateMutability": "nonpayable",
      "type": "constructor"
    },
    {
      "inputs": [],
      "name": "buyIndex",
      "outputs": [
        {
          "internalType": "uint256",
          "name": "",
          "type": "uint256"
        }
      ],
      "stateMutability": "view",
      "type": "function"
    },
    {
      "inputs": [],
      "name": "maxOrders",
      "outputs": [
        {
          "internalType": "uint256",
          "name": "",
          "type": "uint256"
        }
      ],
      "stateMutability": "view",
      "type": "function"
    },
    {
      "inputs": [],
      "name": "sellIndex",
      "outputs": [
        {
          "internalType": "uint256",
          "name": "",
          "type": "uint256"
        }
      ],
      "stateMutability": "view",
      "type": "function"
    },
    {
      "inputs": [
        {
          "internalType": "address",
          "name": "sender",
          "type": "address"
        },
        {
          "internalType": "uint256",
          "name": "price",
          "type": "uint256"
        },
        {
          "internalType": "uint256",
          "name": "volume",
          "type": "uint256"
        },
        {
          "internalType": "uint256",
          "name": "auxprice",
          "type": "uint256"
        }
      ],
      "name": "insertBid",
      "outputs": [],
      "stateMutability": "nonpayable",
      "type": "function"
    },
    {
      "inputs": [],
      "name": "buyListMaxDelete",
      "outputs": [
        {
          "internalType": "uint256",
          "name": "",
          "type": "uint256"
        },
        {
          "internalType": "address",
          "name": "",
          "type": "address"
        },
        {
          "internalType": "uint256",
          "name": "",
          "type": "uint256"
        }
      ],
      "stateMutability": "nonpayable",
      "type": "function"
    },
    {
      "inputs": [],
      "name": "buyListMax",
      "outputs": [
        {
          "internalType": "uint256",
          "name": "",
          "type": "uint256"
        },
        {
          "internalType": "address",
          "name": "",
          "type": "address"
        },
        {
          "internalType": "uint256",
          "name": "",
          "type": "uint256"
        }
      ],
      "stateMutability": "view",
      "type": "function"
    },
    {
      "inputs": [],
      "name": "buyListisEmpty",
      "outputs": [
        {
          "internalType": "bool",
          "name": "",
          "type": "bool"
        }
      ],
      "stateMutability": "view",
      "type": "function"
    },
    {
      "inputs": [
        {
          "internalType": "address",
          "name": "sender",
          "type": "address"
        },
        {
          "internalType": "uint256",
          "name": "price",
          "type": "uint256"
        },
        {
          "internalType": "uint256",
          "name": "volume",
          "type": "uint256"
        },
        {
          "internalType": "uint256",
          "name": "auxprice",
          "type": "uint256"
        }
      ],
      "name": "insertAsk",
      "outputs": [],
      "stateMutability": "nonpayable",
      "type": "function"
    },
    {
      "inputs": [],
      "name": "sellListMaxDelete",
      "outputs": [
        {
          "internalType": "uint256",
          "name": "",
          "type": "uint256"
        },
        {
          "internalType": "address",
          "name": "",
          "type": "address"
        },
        {
          "internalType": "uint256",
          "name": "",
          "type": "uint256"
        }
      ],
      "stateMutability": "nonpayable",
      "type": "function"
    },
    {
      "inputs": [],
      "name": "sellListMax",
      "outputs": [
        {
          "internalType": "uint256",
          "name": "",
          "type": "uint256"
        },
        {
          "internalType": "address",
          "name": "",
          "type": "address"
        },
        {
          "internalType": "uint256",
          "name": "",
          "type": "uint256"
        }
      ],
      "stateMutability": "view",
      "type": "function"
    },
    {
      "inputs": [],
      "name": "sellListisEmpty",
      "outputs": [
        {
          "internalType": "bool",
          "name": "",
          "type": "bool"
        }
      ],
      "stateMutability": "view",
      "type": "function"
    }
  ],
  "bytecode": "0x608060405234801561001057600080fd5b5060405161111f38038061111f83398101604081905261002f91610037565b60005561004f565b600060208284031215610048578081fd5b5051919050565b6110c18061005e6000396000f3fe608060405234801561001057600080fd5b50600436106100a95760003560e01c80639484d404116100715780639484d40414610108578063a78b790714610110578063cc0ba67014610123578063d9fa92531461012b578063efc77ff614610140578063f009716c14610148576100a9565b80631b44d8d0146100ae578063211b0d3c146100ce578063502f8609146100e35780638a07bb65146100f857806391447d3214610100575b600080fd5b6100b6610150565b6040516100c59392919061106c565b60405180910390f35b6100d661035f565b6040516100c59190611001565b6100f66100f1366004610fbc565b610383565b005b6100b66104bf565b6100b661050f565b6100b66106c9565b6100f661011e366004610fbc565b61070a565b6100d66107dc565b6101336107e6565b6040516100c59190611063565b6101336107ec565b6101336107f3565b6004546000908190819060ff166101825760405162461bcd60e51b815260040161017990611038565b60405180910390fd5b6101a6546101e357600254600180546003546001600160a01b039091169160005b6005020180546001600160a01b03191681556000600182018190556002820181905560038201805460ff191690556004909101559194509250905061035a565b6101a6546001141561027a575050600280546001805460038054600680546001600160a01b03198086166001600160a01b03838116919091179097556007805490995560088054909555600980546004805460ff8316151560ff1991821617909155600a8054600555939094169094556000998a90559489905591169092559490556101a68054600019019055919350169061035a565b600254600180546003546101a6546001600160a01b03909216929091602a81106102a057fe5b6005908102919091018054600180546001600160a01b039092166001600160a01b031990921691909117815580820154600290815582015460039081558201546004805460ff191660ff9092161515919091178155909101549091556101a654602a811061030a57fe5b6005020180546001600160a01b03191681556000600182018190556002820181905560038201805460ff191690556004909101556101a680546000190190556103516107fa565b50919450925090505b909192565b60006001815b600502016003015460ff1661037c57506001610380565b5060005b90565b61038b610f82565b506040805160a0810182526001600160a01b038616815260208101859052908101839052600160608201526080810182905260045460ff166104335780600160005b82516005919091029190910180546001600160a01b0319166001600160a01b039092169190911781556020820151600182015560408201516002820155606082015160038201805460ff19169115159190911790556080909101516004909101556104b8565b6101a680546001908101918290558291602a811061044d57fe5b82516005919091029190910180546001600160a01b0319166001600160a01b039092169190911781556020820151600182015560408201516002820155606082015160038201805460ff19169115159190911790556080909101516004909101556104b6610a17565b505b5050505050565b60d6546000908190819060ff166104e85760405162461bcd60e51b81526004016101799061100c565b60d45460d380546001600160a01b03169060005b6005020160020154925092509250909192565b60d6546000908190819060ff166105385760405162461bcd60e51b81526004016101799061100c565b6101a55461055d5760d45460d3805460d5546001600160a01b039091169160006101a3565b6101a554600114156105f457505060d4805460d3805460d5805460d880546001600160a01b03198086166001600160a01b038381169190911790975560d9805490995560da805490955560db805460d6805460ff8316151560ff199182161790915560dc805460d755939094169094556000998a90559489905591169092559490556101a58054600019019055919350169061035a565b60d45460d3805460d5546101a5546001600160a01b03909216929091602a811061061a57fe5b60050201805460d380546001600160a01b039092166001600160a01b0319909216919091178155600182015460d455600282015460d555600382015460d6805460ff191660ff909216151591909117905560049091015460d7556101a554602a811061068257fe5b6005020180546001600160a01b03191681556000600182018190556002820181905560038201805460ff191690556004909101556101a58054600019019055610351610bd4565b6004546000908190819060ff166106f25760405162461bcd60e51b815260040161017990611038565b600254600180546001600160a01b03169060006104fc565b610712610f82565b506040805160a0810182526001600160a01b038616815260208101859052908101839052600160608201526080810182905260d65460ff16610758578060d360006103cd565b6101a5805460010190819055819060d390602a811061077357fe5b82516005919091029190910180546001600160a01b0319166001600160a01b039092169190911781556020820151600182015560408201516002820155606082015160038201805460ff19169115159190911790556080909101516004909101556104b6610ddb565b600060d381610365565b60005481565b6101a65481565b6101a55481565b60008060015b6101a6548111610a0e576101a6548190600182019081101561085357600183602a811061082957fe5b6005020160040154600182602a811061083e57fe5b60050201600401541115610853576001909101905b600182602a811061086057fe5b6005020160040154600185602a811061087557fe5b60050201600401541015610a005761088b610f82565b600185602a811061089857fe5b6040805160a0810182526005929092029290920180546001600160a01b031682526001808201546020840152600282015493830193909352600381015460ff1615156060830152600401546080820152915083602a81106108f557fe5b60050201600186602a811061090657fe5b82546005919091029190910180546001600160a01b0319166001600160a01b039092169190911781556001808301548183015560028084015490830155600380840154908301805460ff909216151560ff199092169190911790556004928301549290910191909155819084602a811061097c57fe5b6005020160008201518160000160006101000a8154816001600160a01b0302191690836001600160a01b03160217905550602082015181600101556040820151816002015560608201518160030160006101000a81548160ff0219169083151502179055506080820151816004015590505082945084600202600101935050610a07565b5050610a0e565b5050610800565b60019250505090565b6101a6546000905b8015610bcc576002600019820104600181602a8110610a3a57fe5b6005020160040154600183602a8110610a4f57fe5b60050201600401541115610bc057610a65610f82565b600183602a8110610a7257fe5b6040805160a0810182526005929092029290920180546001600160a01b031682526001808201546020840152600282015493830193909352600381015460ff1615156060830152600401546080820152915082602a8110610acf57fe5b60050201600184602a8110610ae057fe5b82546005919091029190910180546001600160a01b0319166001600160a01b039092169190911781556001808301548183015560028084015490830155600380840154908301805460ff909216151560ff199092169190911790556004928301549290910191909155819083602a8110610b5657fe5b82516005919091029190910180546001600160a01b0319166001600160a01b039092169190911781556020820151600182015560408201516002820155606082015160038201805460ff191691151591909117905560809091015160049091015550905080610bc6565b50610bcc565b50610a1f565b600191505090565b60008060015b6101a5548111610a0e576101a55481906001820190811015610c2d5760d383602a8110610c0357fe5b600502016004015460d382602a8110610c1857fe5b60050201600401541015610c2d576001909101905b60d384602a8110610c3a57fe5b600502016004015460d383602a8110610c4f57fe5b60050201600401541015610a0057610c65610f82565b60d385602a8110610c7257fe5b6040805160a0810182526005929092029290920180546001600160a01b0316825260018101546020830152600281015492820192909252600382015460ff16151560608201526004909101546080820152905060d383602a8110610cd257fe5b6005020160d386602a8110610ce357fe5b82546005919091029190910180546001600160a01b0319166001600160a01b039092169190911781556001808301549082015560028083015490820155600380830154908201805460ff909216151560ff199092169190911790556004918201549101558060d384602a8110610d5557fe5b6005020160008201518160000160006101000a8154816001600160a01b0302191690836001600160a01b03160217905550602082015181600101556040820151816002015560608201518160030160006101000a81548160ff02191690831515021790555060808201518160040155905050829450846002026001019350505050610bda565b6101a5546000905b8015610bcc57600260001982010460d381602a8110610dfe57fe5b600502016004015460d383602a8110610e1357fe5b60050201600401541015610bc057610e29610f82565b60d383602a8110610e3657fe5b6040805160a0810182526005929092029290920180546001600160a01b0316825260018101546020830152600281015492820192909252600382015460ff16151560608201526004909101546080820152905060d382602a8110610e9657fe5b6005020160d384602a8110610ea757fe5b82546005919091029190910180546001600160a01b0319166001600160a01b039092169190911781556001808301549082015560028083015490820155600380830154908201805460ff909216151560ff199092169190911790556004918201549101558060d383602a8110610f1957fe5b82516005919091029190910180546001600160a01b0319166001600160a01b039092169190911781556020820151600182015560408201516002820155606082015160038201805460ff1916911515919091179055608090910151600490910155509050610de3565b6040518060a0016040528060006001600160a01b031681526020016000815260200160008152602001600015158152602001600081525090565b60008060008060808587031215610fd1578384fd5b84356001600160a01b0381168114610fe7578485fd5b966020860135965060408601359560600135945092505050565b901515815260200190565b60208082526012908201527173656c6c4c69737420697320656d7074792160701b604082015260600190565b6020808252601190820152706275794c69737420697320656d7074792160781b604082015260600190565b90815260200190565b9283526001600160a01b0391909116602083015260408201526060019056fea26469706673582212205c8a36664225d6c04581bcb89d0b23a7195bd90f1ad3eca4aa2faf6f2d33e53964736f6c634300060b0033",
  "immutableReferences": {},
  "source": "pragma solidity >=0.4.22;\npragma experimental ABIEncoderV2;\n\n//Heap with static array wrapped in a priority queue\ncontract HeapStaticArray{\n    \n    \n    constructor (uint256 _MAXORDERS) public\n    {\n        maxOrders = _MAXORDERS;\n    }\n\n/**\n*   @dev \n    Order structs with its element:\n        Sender: The address of the trader submitting the order\n        Price: The price of the order\n        Volume: The volume of the order, it is considered 1 by now\n        AuxPrice: The contcantenation of the order's price and the counter which helps to sort the heap when there are ties\n    buyList: The array that contains bid OrderStructs, it is a maxheap (decrementally ordered)\n    sellList: The array that contains ask OrderStructs, it is a minheap (incrementally ordered)\n*/\n\n\n\n/**\n*   @dev \n    Orderstruct with its elements:\n        Sender: The address of the trader submitting the order\n        Price: The price of the order\n        Volume: The volume of the order\n        Exists: Is set to true when the incoming order is stored in the mapping\n        AuxPrice: The contcantenation of the order's price and the counter which helps to sort the heap when there are ties\n    \n    maxOrders: sets the maximum number of orders that could be submitted to the market (buyList and sellList arrays' sizes are set to this number)\n    buyList: The array that contains bid OrderStructs, it is a maxheap (decrementally sorted)\n    sellList: sellList: The array that contains ask OrderStructs, it is a minheap (incrementally sorted)\n    sellIndex: The index used to access asks in the sellList static array\n    buyIndex: The index used to access bids in the buyList static array\n*/ \n\n\n    struct OrderStruct \n    {\n        address Sender;\n        uint256 Price;\n        uint256 Volume;     \n        bool Exists;\n        uint256 AuxPrice;   \n\n        \n    }\n    uint256 public maxOrders;\n    OrderStruct[42] internal buyList;  \n    OrderStruct[42] internal sellList; \n    uint256 public sellIndex;\n    uint256 public buyIndex;\n\n//*****************************************************************//\n//**********************  buyList Functions  **********************//\n//*****************************************************************//\n\n\n//***********************************************************************//\n\n    /**\n    *   @dev Adds the incoming bid orders to the buyList array which will be then heapified\n    */\n    function insertBid (address sender, uint256 price, uint256 volume, uint256 auxprice) external \n    {\n        OrderStruct memory neworder = OrderStruct(sender, price , volume, true, auxprice);\n\n        if (!buyList[0].Exists)\n        {\n            buyList[0] = neworder; \n        }\n       else{\n            buyIndex ++;\n            buyList[buyIndex] = neworder;\n            maxheapHeapifyUp ();\n        }  \n        \n    }    \n\n//***********************************************************************//\n    /**\n    *   @dev Sorts the heap\n    */\n    function maxheapHeapifyUp () internal returns (bool) {\n\n        uint256 k = buyIndex;                   //k is set to be the last entry of the array (also heap) which is the element that's just added and has to be moved up\n        while (k > 0){                                  //while we havent reached to the top of the heap\n            uint256 p = (k-1)/2;                           //we need to compute the parent of this last element which is p = (k-1)/2\n            if (buyList[k].AuxPrice > buyList[p].AuxPrice) //if the element is greater than its parent\n            {   \n                OrderStruct memory temp = buyList[k];    //swap the element at index k with its parent\n                buyList[k] = buyList[p];\n                buyList[p] = temp;\n                k = p;                                  //k moves up one level\n            }\n            else {break;}                               //if not the break statement exits the loop (it continues until no element index k is not greater than its parent)\n        }\n    \n        return true;\n    }\n//***********************************************************************//\n\n    /**\n    *   @dev Removes and returns the highest priority element of the buyList\n        Only if the buyList is not empty\n        then the heap is reordered using the heapifyDown method\n    */\n    function buyListMaxDelete() external returns (uint256, address, uint256) \n    {   \n        require (buyList[0].Exists, 'buyList is empty!');   //the delete function throws exception if the list is empty\n        \n        \n        if (buyIndex == 0) \n        {   \n            uint256 _price =  buyList[0].Price;\n            address _sender =  buyList[0].Sender;\n            uint256 _volume = buyList[0].Volume;\n            delete buyList[0];\n            return(_price, _sender, _volume);\n\n        }                           \n        if (buyIndex == 1)  //if the heap has two items\n        {                                     \n            uint256 _price =  buyList[0].Price;\n            address _sender =  buyList[0].Sender;  \n            uint256 _volume = buyList[0].Volume;                \n            buyList[0] = buyList[1]; //the first element of the heap is removed \n            delete buyList[1];\n            buyIndex --;\n            return(_price, _sender, _volume);\n            \n       \n        }\n        //if neither of these conditions are true, then there are at least 2 items in the heap and deletion proceeds\n        uint256 _price =  buyList[0].Price;\n        address _sender =  buyList[0].Sender;\n        uint256 _volume = buyList[0].Volume; \n        buyList[0] = buyList[buyIndex]; //the last elementof the heap is removed and written into the first position\n        delete buyList[buyIndex];\n        buyIndex--;\n        maxheapHeapifyDown(); //now the heapifydown is called\n        return(_price, _sender, _volume);\n    }\n//***********************************************************************//\n    /**\n    *   @dev Returns the sender, price, and volume of the highest priority element (The highest bid)\n    */ \n    function buyListMax() external view returns (uint256, address, uint256){\n        \n        require (buyList[0].Exists, 'buyList is empty!');   //the delete function throws exception if the list is empty\n        return (buyList[0].Price, buyList[0].Sender, buyList[0].Volume);\n        \n    }\n\n//***********************************************************************//\n\n    /**\n    *   @dev Heapifydown the buyList when a bid order is removed \n        (1)the heap root is removed and is replaced by the last element in the list,(2) the heap gets resorted\n    */\n\n    function maxheapHeapifyDown () internal returns (bool)\n    {\n        uint256 k =0;\n        uint256 leftchild = 2*k + 1;\n        while (leftchild <= buyIndex )\n        {                                   //as long as the left child is within the array that heap is stored in\n            uint256 max = leftchild;\n            uint256 rightchild = leftchild + 1;                                     //rightchild = 2k+2\n\n            if (rightchild < buyIndex )                                       //if there is a rightchild\n            {\n                if (buyList[rightchild].AuxPrice > buyList[leftchild].AuxPrice)    //then the right child and left child are compared\n                {\n                    max++;                                                       //now max is set to rightchild, otherwise max remains to be the leftchild\n                }\n            }\n\n        if (buyList[k].AuxPrice < buyList[max].AuxPrice)                        //compares the k item with the max item and if k is smaller than its greatest children they are swapped\n        {\n            \n            OrderStruct memory temp = buyList[k];    //swap the element at index k with its parent\n            buyList[k] = buyList[max];\n            buyList[max] = temp;\n            k = max;                                                         //k is set to max\n            leftchild =2*k + 1;                                              //l is recompuetd in preparation for the next iteration\n        }\n        else{                                                               //if the k item is not smaller than the max item, heapifyDown should stop\n            break;\n            }\n        }\n        return true;\n    }\n    \n\n//***********************************************************************//\n    /**\n    *   @dev Checks if the buyList is empty or not\n    */ \n    function buyListisEmpty() external view returns (bool){\n        \n        if (!buyList[0].Exists)\n        {\n            return true;\n\n        }\n        else\n        {\n            return false;\n        }\n        \n    }\n//*****************************************************************//\n//**********************  sellList Functions  *********************//\n//*****************************************************************//\n\n//***********************************************************************//\n\n    /**\n    *   @dev Adds the incoming bid orders to the buyList array which will be then heapified\n    */\n\n    function insertAsk (address sender, uint256 price, uint256 volume, uint256 auxprice) external  \n    {\n        OrderStruct memory neworder = OrderStruct(sender, price , volume, true, auxprice); \n        \n        if (!sellList[0].Exists)\n        {\n           sellList[0] = neworder;\n           \n        }\n        else\n        {\n            sellIndex ++;\n            sellList[sellIndex] = neworder;\n            minheapHeapifyUp();\n        }\n    \n       \n    }    \n//***********************************************************************//\n    /**\n    *   @dev Sorts the heap\n    */\n    function minheapHeapifyUp () internal returns (bool) {\n\n        uint256 k = sellIndex ; //k is set to be the last entry of the array(also heap) which is the element that's just added and has to be moved up\n        while (k > 0){                                      //while we havent reached to the top of the heap\n            uint256 p = (k-1)/2;                            //we need to compute the parent of this last element which is p = (k-1)/2\n            if (sellList[k].AuxPrice < sellList[p].AuxPrice) //if the element is greater than its parent\n            { \n            \n                OrderStruct memory temp = sellList[k];    //swap the element at index k with its parent\n                sellList[k] = sellList[p];\n                sellList[p] = temp;\n                \n                k = p; //k moves up one level\n            }\n            else {break;} //if not the break statement exits the loop (it continues until no element index k is not greater than its parent)\n        }\n        \n        return true;\n    }    \n\n\n//***********************************************************************//\n    /**\n    *   @dev Removes and returns the highest priority element of the sellList\n        Only if the sellList is not empty\n        then the heap is reordered using the heapifyDown method\n    */\n\n    function sellListMaxDelete() external returns (uint256, address, uint256)\n    {\n        require(sellList[0].Exists,'sellList is empty!');            //the delete function throws exception if the list is empty\n        \n        \n        if (sellIndex == 0) \n        {\n            uint256 _price =  sellList[0].Price;\n            address _sender =  sellList[0].Sender;\n            uint256 _volume = sellList[0].Volume;\n            delete sellList[0]; \n            return (_price,_sender,_volume);\n        }\n            \n        \n        if (sellIndex == 1) {                               // if the heap has only one item\n   \n            uint256 _price =  sellList[0].Price;\n            address _sender =  sellList[0].Sender;\n            uint256 _volume = sellList[0].Volume;\n            sellList[0] = sellList[1];\n            delete sellList[1];                                   //the only element of the heap is removed and returned  \n            sellIndex --;\n            return (_price,_sender,_volume);\n        }\n\n        //if neither of these conditions are true, then there are at least 2 items in the heap and deletion proceeds\n      \n        uint256 _price =  sellList[0].Price;\n        address _sender =  sellList[0].Sender;\n        uint256 _volume = sellList[0].Volume;\n        sellList[0] = sellList[sellIndex];                      //the last elementof the heap is removed and written into the first position\n        delete sellList[sellIndex]; \n        sellIndex--;\n        minheapHeapifyDown();                           //now the heapifyDown is called to restore the ordering of the heap \n        return (_price,_sender,_volume);\n    }\n//***********************************************************************//\n    /**\n    *   @dev Returns the sender, price, and volume of the highest priority element (The lowest ask)\n    */ \n    function sellListMax() external view returns (uint256, address, uint256){\n        \n        require(sellList[0].Exists,'sellList is empty!');     //throws exception if the sellist is empty\n        return (sellList[0].Price, sellList[0].Sender, sellList[0].Volume);\n        \n    }\n\n//***********************************************************************//\n\n    /**\n    *   @dev Heapifydown the sellList when an ask order is removed \n        (1)the heap root is removed and is replaced by the last element in the list,(2) the heap gets resorted\n    */\n\n    function minheapHeapifyDown () internal returns (bool) {\n        uint256 k =0;\n        uint256 leftchild = 2*k + 1;\n        while (leftchild <= sellIndex ){               //as long as the left child is within the array that heap is stored in\n            uint256 min = leftchild;\n            uint256 rightchild = leftchild + 1;              //rightchild = 2k+2\n\n            if (rightchild < sellIndex )                //if there is a rightchild, then the right child and left child are compared\n            {\n                if (sellList[rightchild].AuxPrice < sellList[leftchild].AuxPrice)\n                {    min++;   }                               //now min is set to rightchild, otherwise min remains to be the leftchild\n            }\n\n            if (sellList[min].AuxPrice < sellList[k].AuxPrice) //compares the k item with the max item and if its less they are swapped\n            {\n                \n                OrderStruct memory temp = sellList[k];    //swap the element at index k with its parent\n                sellList[k] = sellList[min];\n                sellList[min] = temp;\n\n                k = min; //k is set to min\n                leftchild = 2*k + 1; //l is recompuetd in preparation for the next iteration\n            }\n            else{ //if k item's smaller childer is not smaller than k item itself, heapifyDown should stop\n                break;\n            }\n\n        }\n        return true;\n    }\n//***********************************************************************//\n    /**\n    *   @dev Checks if the sellList is empty or not\n    */ \n\n    function sellListisEmpty() external view returns (bool){\n        \n        if (!sellList[0].Exists)\n        {\n            return true;\n\n        }\n        else\n        {\n            return false;\n        }\n        \n    }\n\n\n\n}",
  "sourcePath": "/Users/mahsamoosavi/Documents/GitHub/2020-Orderbook/Code/L2-Truffle/contracts/HeapStaticArray.sol",
  "compiler": {
    "name": "solc",
    "version": "0.6.11+commit.5ef660b1.Emscripten.clang"
  },
  "schemaVersion": "3.3.3",
  "updatedAt": "2021-02-27T15:04:03.218Z",
  "devdoc": {
    "kind": "dev",
    "methods": {
      "buyListMax()": {
        "details": "Returns the sender, price, and volume of the highest priority element (The highest bid)"
      },
      "buyListMaxDelete()": {
        "details": "Removes and returns the highest priority element of the buyList Only if the buyList is not empty then the heap is reordered using the heapifyDown method"
      },
      "buyListisEmpty()": {
        "details": "Checks if the buyList is empty or not"
      },
      "insertAsk(address,uint256,uint256,uint256)": {
        "details": "Adds the incoming bid orders to the buyList array which will be then heapified"
      },
      "insertBid(address,uint256,uint256,uint256)": {
        "details": "Adds the incoming bid orders to the buyList array which will be then heapified"
      },
      "sellListMax()": {
        "details": "Returns the sender, price, and volume of the highest priority element (The lowest ask)"
      },
      "sellListMaxDelete()": {
        "details": "Removes and returns the highest priority element of the sellList Only if the sellList is not empty then the heap is reordered using the heapifyDown method"
      },
      "sellListisEmpty()": {
        "details": "Checks if the sellList is empty or not"
      }
    },
    "version": 1
  },
  "userdoc": {
    "kind": "user",
    "methods": {},
    "version": 1
  }
}