{
  "contractName": "HeapMapping",
  "abi": [
    {
      "inputs": [
        {
          "internalType": "uint256",
          "name": "",
          "type": "uint256"
        }
      ],
      "name": "buyList",
      "outputs": [
        {
          "internalType": "address",
          "name": "Sender",
          "type": "address"
        },
        {
          "internalType": "uint256",
          "name": "Price",
          "type": "uint256"
        },
        {
          "internalType": "uint256",
          "name": "Volume",
          "type": "uint256"
        },
        {
          "internalType": "uint256",
          "name": "AuxPrice",
          "type": "uint256"
        }
      ],
      "stateMutability": "view",
      "type": "function"
    },
    {
      "inputs": [],
      "name": "buyListKey",
      "outputs": [
        {
          "internalType": "uint256",
          "name": "",
          "type": "uint256"
        }
      ],
      "stateMutability": "view",
      "type": "function"
    },
    {
      "inputs": [
        {
          "internalType": "uint256",
          "name": "",
          "type": "uint256"
        }
      ],
      "name": "sellList",
      "outputs": [
        {
          "internalType": "address",
          "name": "Sender",
          "type": "address"
        },
        {
          "internalType": "uint256",
          "name": "Price",
          "type": "uint256"
        },
        {
          "internalType": "uint256",
          "name": "Volume",
          "type": "uint256"
        },
        {
          "internalType": "uint256",
          "name": "AuxPrice",
          "type": "uint256"
        }
      ],
      "stateMutability": "view",
      "type": "function"
    },
    {
      "inputs": [],
      "name": "sellListKey",
      "outputs": [
        {
          "internalType": "uint256",
          "name": "",
          "type": "uint256"
        }
      ],
      "stateMutability": "view",
      "type": "function"
    },
    {
      "inputs": [
        {
          "internalType": "address",
          "name": "sender",
          "type": "address"
        },
        {
          "internalType": "uint256",
          "name": "price",
          "type": "uint256"
        },
        {
          "internalType": "uint256",
          "name": "volume",
          "type": "uint256"
        },
        {
          "internalType": "uint256",
          "name": "auxprice",
          "type": "uint256"
        }
      ],
      "name": "insertBid",
      "outputs": [],
      "stateMutability": "nonpayable",
      "type": "function"
    },
    {
      "inputs": [],
      "name": "buyListMaxDelete",
      "outputs": [
        {
          "internalType": "uint256",
          "name": "",
          "type": "uint256"
        },
        {
          "internalType": "address",
          "name": "",
          "type": "address"
        },
        {
          "internalType": "uint256",
          "name": "",
          "type": "uint256"
        }
      ],
      "stateMutability": "nonpayable",
      "type": "function"
    },
    {
      "inputs": [],
      "name": "buyListMax",
      "outputs": [
        {
          "internalType": "uint256",
          "name": "",
          "type": "uint256"
        },
        {
          "internalType": "address",
          "name": "",
          "type": "address"
        },
        {
          "internalType": "uint256",
          "name": "",
          "type": "uint256"
        }
      ],
      "stateMutability": "view",
      "type": "function"
    },
    {
      "inputs": [],
      "name": "buyListisEmpty",
      "outputs": [
        {
          "internalType": "bool",
          "name": "",
          "type": "bool"
        }
      ],
      "stateMutability": "view",
      "type": "function"
    },
    {
      "inputs": [
        {
          "internalType": "address",
          "name": "sender",
          "type": "address"
        },
        {
          "internalType": "uint256",
          "name": "price",
          "type": "uint256"
        },
        {
          "internalType": "uint256",
          "name": "volume",
          "type": "uint256"
        },
        {
          "internalType": "uint256",
          "name": "auxprice",
          "type": "uint256"
        }
      ],
      "name": "insertAsk",
      "outputs": [],
      "stateMutability": "nonpayable",
      "type": "function"
    },
    {
      "inputs": [],
      "name": "sellListMaxDelete",
      "outputs": [
        {
          "internalType": "uint256",
          "name": "",
          "type": "uint256"
        },
        {
          "internalType": "address",
          "name": "",
          "type": "address"
        },
        {
          "internalType": "uint256",
          "name": "",
          "type": "uint256"
        }
      ],
      "stateMutability": "nonpayable",
      "type": "function"
    },
    {
      "inputs": [],
      "name": "sellListMax",
      "outputs": [
        {
          "internalType": "uint256",
          "name": "",
          "type": "uint256"
        },
        {
          "internalType": "address",
          "name": "",
          "type": "address"
        },
        {
          "internalType": "uint256",
          "name": "",
          "type": "uint256"
        }
      ],
      "stateMutability": "view",
      "type": "function"
    },
    {
      "inputs": [],
      "name": "sellListisEmpty",
      "outputs": [
        {
          "internalType": "bool",
          "name": "",
          "type": "bool"
        }
      ],
      "stateMutability": "view",
      "type": "function"
    }
  ],
  "bytecode": "0x608060405234801561001057600080fd5b50611106806100206000396000f3fe608060405234801561001057600080fd5b50600436106100b45760003560e01c80639484d404116100715780639484d404146101285780639ecf86c814610130578063a78b790714610153578063a7da8ee814610166578063c4a4ddb314610179578063cc0ba67014610181576100b4565b80631b44d8d0146100b9578063211b0d3c146100d9578063502f8609146100ee5780637397e5e8146101035780638a07bb651461011857806391447d3214610120575b600080fd5b6100c1610189565b6040516100d0939291906110b1565b60405180910390f35b6100e1610460565b6040516100d09190611046565b6101016100fc366004610fc3565b610479565b005b61010b610538565b6040516100d091906110a8565b6100c161053e565b6100c161060f565b6100c16108e4565b61014361013e366004611008565b61098a565b6040516100d09493929190611020565b610101610161366004610fc3565b6109bb565b610143610174366004611008565b610a70565b61010b610aa4565b6100e1610aaa565b600454600090819081906101b85760405162461bcd60e51b81526004016101af9061107d565b60405180910390fd5b600454600114156102f357600080600060046000815481106101d657fe5b906000526020600020015481526020019081526020016000206001015490506000806000600460008154811061020857fe5b9060005260206000200154815260200190815260200160002060000160009054906101000a90046001600160a01b031690506000806000600460008154811061024d57fe5b90600052602060002001548152602001908152602001600020600201549050600080600460008154811061027d57fe5b60009182526020808320909101548352820192909252604001812080546001600160a01b031916815560018101829055600281018290556003015560048054806102c357fe5b6000828152602081208201600019908101919091559081019091556002805490910190559194509250905061045b565b6000806000600460008154811061030657fe5b906000526020600020015481526020019081526020016000206001015490506000806000600460008154811061033857fe5b9060005260206000200154815260200190815260200160002060000160009054906101000a90046001600160a01b031690506000806000600460008154811061037d57fe5b9060005260206000200154815260200190815260200160002060020154905060008060046000815481106103ad57fe5b60009182526020808320909101548352820192909252604001812080546001600160a01b03191681556001810182905560028101829055600301556004805460001981019081106103fa57fe5b9060005260206000200154600460008154811061041357fe5b600091825260209091200155600480548061042a57fe5b60019003818190600052602060002001600090559055610448610abc565b5060028054600019019055919450925090505b909192565b60045460009061047257506001610476565b5060005b90565b610481610f92565b50604080516080810182526001600160a01b03868116825260208083018781528385018781526060850187815260028054600090815294859052968420865181546001600160a01b031916961695909517855591516001808601919091559051848701559051600390930192909255835460048054808501825592527f8a35acfbc15ff81a39ae7d344fd709f28e8600b4aa8c65c6b64bfe7fe36bd19b90910181905501909155610530610c38565b505050505050565b60025481565b600554600090819081906105645760405162461bcd60e51b81526004016101af90611051565b60016000600560008154811061057657fe5b90600052602060002001548152602001908152602001600020600101546001600060056000815481106105a557fe5b9060005260206000200154815260200190815260200160002060000160009054906101000a90046001600160a01b03166001600060056000815481106105e757fe5b9060005260206000200154815260200190815260200160002060020154925092509250909192565b600554600090819081906106355760405162461bcd60e51b81526004016101af90611051565b6005546001141561077457600060016000600560008154811061065457fe5b90600052602060002001548152602001908152602001600020600101549050600060016000600560008154811061068757fe5b9060005260206000200154815260200190815260200160002060000160009054906101000a90046001600160a01b0316905060006001600060056000815481106106cd57fe5b906000526020600020015481526020019081526020016000206002015490506001600060056000815481106106fe57fe5b60009182526020808320909101548352820192909252604001812080546001600160a01b0319168155600181018290556002810182905560030155600580548061074457fe5b6000828152602081208201600019908101919091559081019091556003805490910190559194509250905061045b565b600060016000600560008154811061078857fe5b9060005260206000200154815260200190815260200160002060010154905060006001600060056000815481106107bb57fe5b9060005260206000200154815260200190815260200160002060000160009054906101000a90046001600160a01b03169050600060016000600560008154811061080157fe5b9060005260206000200154815260200190815260200160002060020154905060016000600560008154811061083257fe5b60009182526020808320909101548352820192909252604001812080546001600160a01b031916815560018101829055600281018290556003015560058054600019810190811061087f57fe5b9060005260206000200154600560008154811061089857fe5b60009182526020909120015560058054806108af57fe5b600190038181906000526020600020016000905590556108cd610d3b565b506003805460001901905591945092509050909192565b6004546000908190819061090a5760405162461bcd60e51b81526004016101af9061107d565b600080600460008154811061091b57fe5b9060005260206000200154815260200190815260200160002060010154600080600460008154811061094957fe5b9060005260206000200154815260200190815260200160002060000160009054906101000a90046001600160a01b031660008060046000815481106105e757fe5b60006020819052908152604090208054600182015460028301546003909301546001600160a01b0390921692909184565b6109c3610f92565b50604080516080810182526001600160a01b038681168252602080830187815283850187815260608501878152600380546000908152600195869052978820875181546001600160a01b0319169716969096178655925185850155905160028501555192810192909255815460058054808401825595527f036b6384b5eca791c62761152d0c79bb0604c104a5fb6f4eb0703f3154bb3db090940184905592909201909155610530610ea2565b600160208190526000918252604090912080549181015460028201546003909201546001600160a01b039093169290919084565b60035481565b60055460009061047257506001610476565b60008060015b600454811015610c2f5760045481906001820190811015610b445760008060048581548110610aed57fe5b906000526020600020015481526020019081526020016000206003015460008060048481548110610b1a57fe5b90600052602060002001548152602001908152602001600020600301541115610b44576001909101905b60008060048481548110610b5457fe5b906000526020600020015481526020019081526020016000206003015460008060048781548110610b8157fe5b90600052602060002001548152602001908152602001600020600301541015610c2157600060048581548110610bb357fe5b9060005260206000200154905060048381548110610bcd57fe5b906000526020600020015460048681548110610be557fe5b90600052602060002001819055508060048481548110610c0157fe5b906000526020600020018190555082945084600202600101935050610c28565b5050610c2f565b5050610ac2565b60019250505090565b600454600090600019015b8015610d335760006002600019830104905060008060048381548110610c6557fe5b906000526020600020015481526020019081526020016000206003015460008060048581548110610c9257fe5b90600052602060002001548152602001908152602001600020600301541115610d2757600060048381548110610cc457fe5b9060005260206000200154905060048281548110610cde57fe5b906000526020600020015460048481548110610cf657fe5b90600052602060002001819055508060048381548110610d1257fe5b60009182526020909120015550905080610d2d565b50610d33565b50610c43565b600191505090565b60008060015b600554811015610c2f5760055481906001820190811015610dc5576001600060058581548110610d6d57fe5b90600052602060002001548152602001908152602001600020600301546001600060058481548110610d9b57fe5b90600052602060002001548152602001908152602001600020600301541015610dc5576001909101905b6001600060058681548110610dd657fe5b90600052602060002001548152602001908152602001600020600301546001600060058581548110610e0457fe5b90600052602060002001548152602001908152602001600020600301541015610c2157600060058581548110610e3657fe5b9060005260206000200154905060058381548110610e5057fe5b906000526020600020015460058681548110610e6857fe5b90600052602060002001819055508060058481548110610e8457fe5b60009182526020909120015550909250505060028102600101610d41565b600554600090600019015b8015610d33576000600260001983010490506001600060058381548110610ed057fe5b90600052602060002001548152602001908152602001600020600301546001600060058581548110610efe57fe5b90600052602060002001548152602001908152602001600020600301541015610d2757600060058381548110610f3057fe5b9060005260206000200154905060058281548110610f4a57fe5b906000526020600020015460058481548110610f6257fe5b90600052602060002001819055508060058381548110610f7e57fe5b600091825260209091200155509050610ead565b604051806080016040528060006001600160a01b031681526020016000815260200160008152602001600081525090565b60008060008060808587031215610fd8578384fd5b84356001600160a01b0381168114610fee578485fd5b966020860135965060408601359560600135945092505050565b600060208284031215611019578081fd5b5035919050565b6001600160a01b0394909416845260208401929092526040830152606082015260800190565b901515815260200190565b60208082526012908201527173656c6c4c69737420697320656d7074792160701b604082015260600190565b6020808252601190820152706275794c69737420697320656d7074792160781b604082015260600190565b90815260200190565b9283526001600160a01b0391909116602083015260408201526060019056fea2646970667358221220464d4d7c2081c05d88677de75e940e415ccda8419543ac147275df883af9e1c964736f6c634300060b0033",
  "immutableReferences": {},
  "source": "pragma solidity >=0.4.22;\npragma experimental ABIEncoderV2;\n\n\n\n//Mapping and Heap with dynamic array wrapped in a priority queue\n//The code stores orderstructs in the mapping and have keys for them. and stores the keys in the sorted heap that is implemented by dynamic array\ncontract HeapMapping{\n\n/**\n*   @dev \n    Orderstruct with its elements:\n        Sender: The address of the trader submitting the order\n        Price: The price of the order\n        Volume: The volume of the order\n        AuxPrice: The contcantenation of the order's price and the counter which helps to sort the heap when there are ties\n    \n    buyList: Mapping that contains the buy orders and has keys for them. This mapping is not sorted, we store the keys into the heap and sort them there\n    sellList: same as above but for sell orders\n    buyListKey: The buyList mapping key\n    sellListKey: The sellList mapping key\n\n    buyListHeap: The heap that contains buyListKeys (decrementally sorted)\n    sellListHeap: The heap that contains sellListKeys (incrementally sorted)\n*/    \n\n    struct OrderStruct \n    {\n        address Sender;\n        uint256 Price;  \n        uint256 Volume;     \n        uint256 AuxPrice; \n    }\n\n\n    mapping(uint256 => OrderStruct) public buyList;   \n    mapping(uint256 => OrderStruct) public sellList;  \n    uint256 public buyListKey;\n    uint256 public sellListKey;\n\n    uint256[] internal buyListHeap;\n    uint256[] internal sellListHeap;\n\n//*****************************************************************//\n//**********************  buyList Functions  **********************//\n//*****************************************************************//   \n\n//***********************************************************************//\n\n    /**\n    *   @dev Adds the incoming bid order to the buyList mapping and inserts its key to the buyListHeap  \n        which will be then heapified \n    */\n\n    function insertBid (address sender, uint256 price, uint256 volume, uint256 auxprice) external \n    {\n        OrderStruct memory neworder = OrderStruct(sender, price, volume, auxprice);\n        buyList[buyListKey] = neworder;\n        buyListHeap.push(buyListKey);\n        buyListKey++;\n        maxheapHeapifyUp ();\n        \n    }\n//***********************************************************************//\n\n    /**\n    *   @dev Sorts the heap\n    */\n\n    function maxheapHeapifyUp () internal returns (bool) {\n    \n        uint256 k = buyListHeap.length - 1;                   //k is set to be the last entry of the array (also heap) which is the element that's just added and has to be moved up\n        while (k > 0){                                  //while we havent reached to the top of the heap\n            uint256 p = (k-1)/2;                           //we need to compute the parent of this last element which is p = (k-1)/2\n            if (buyList[buyListHeap[k]].AuxPrice > buyList[buyListHeap[p]].AuxPrice) \n            {   \n                uint256 temp = buyListHeap[k];    //swap the element at index k with its parent\n                buyListHeap[k] = buyListHeap[p];\n                buyListHeap[p] = temp;\n                k = p;                                  //k moves up one level\n            }\n            else {break;}                               //if not the break statement exits the loop (it continues until no element index k is not greater than its parent)\n        }\n        return true;\n    }\n//***********************************************************************//\n\n    /**\n    *   @dev Removes and returns the highest priority element of the buyList\n        Only if the buyList is not empty\n        then the heap is reordered using the heapifyDown method\n    */\n\n    function buyListMaxDelete() external returns (uint256, address, uint256)\n    {\n        require (buyListHeap.length != 0, 'buyList is empty!');           //throws exception if the heap is empty\n        \n        \n        if (buyListHeap.length == 1) {                                  //if the heap has only one items\n\n            uint256 _price =  buyList[buyListHeap[0]].Price;\n            address _sender =  buyList[buyListHeap[0]].Sender;\n            uint256 _volume =  buyList[buyListHeap[0]].Volume;\n\n            delete buyList[buyListHeap[0]];\n            buyListHeap.pop();                                                 //the only element of the heap is removed and returned \n            buyListKey--;\n            return (_price, _sender, _volume);     \n       \n        }\n\n        //if neither of these conditions are true, then there are at least 2 items in the heap and deletion proceeds\n        \n        uint256 _price =  buyList[buyListHeap[0]].Price;\n        address _sender =  buyList[buyListHeap[0]].Sender;\n        uint256 _volume =  buyList[buyListHeap[0]].Volume;\n\n        delete buyList[buyListHeap[0]];\n        buyListHeap[0] = buyListHeap[buyListHeap.length -1]; //the last elementof the heap is removed and written into the first position\n        buyListHeap.pop();\n        maxheapHeapifyDown(); //the heap will be re-sorted using the heapifydown method\n        buyListKey--;\n        return (_price, _sender, _volume);  \n    }\n//***********************************************************************//\n    /**\n    *   @dev Returns the sender, price, and volume of the highest priority element (The highest bid)\n    */ \n    function buyListMax() external view returns (uint256, address, uint256){\n        \n        require (buyListHeap.length != 0,'buyList is empty!');  //throws exception if the buylist is empty\n        return (buyList[buyListHeap[0]].Price, buyList[buyListHeap[0]].Sender, buyList[buyListHeap[0]].Volume);\n        \n    }\n//***********************************************************************//\n\n    /**\n    *   @dev Heapifydown the buyListHeap when a bid order is removed \n        (we remove the root of the heap and add the last item to the root and reorder the heap again)\n    */ \n\n    function maxheapHeapifyDown () internal returns (bool)\n    {\n        uint256 k =0;\n        uint256 leftchild = 2*k + 1;\n        while (leftchild < buyListHeap.length)\n        {                                   //as long as the left child is within the array that heap is stored in\n            uint256 max = leftchild;\n            uint256 rightchild = leftchild + 1;                                     //rightchild = 2k+2\n\n            if (rightchild < buyListHeap.length)                                       //if there is a rightchild\n            {\n                if (buyList[buyListHeap[rightchild]].AuxPrice > buyList[buyListHeap[leftchild]].AuxPrice)    //then the right child and left child are compared\n                {\n                    max++;                                                       //now max is set to rightchild, otherwise max remains to be the leftchild\n                }\n            }\n\n        if (buyList[buyListHeap[k]].AuxPrice < buyList[buyListHeap[max]].AuxPrice)                        //compares the k item with the max item and if k is smaller than its greatest children they are swapped\n        {\n            uint256 temp = buyListHeap[k];    //swap the element at index k with its parent\n            buyListHeap[k] = buyListHeap[max];\n            buyListHeap[max] = temp;\n            k = max;                                                         //k is set to max\n            leftchild =2*k + 1;                                              //l is recompuetd in preparation for the next iteration\n        }\n        else{                                                               //if the k item is not smaller than the max item, heapifyDown should stop\n            break;\n            }\n        }\n        return true;\n    }\n//***********************************************************************//\n    /**\n    *   @dev Checks if the buyList is empty or not\n    */\n   \n    function buyListisEmpty() external view returns (bool){\n        \n        if (buyListHeap.length == 0)\n        {\n            return true;\n\n        }\n        else\n        {\n            return false;\n        }\n        \n    }\n//*****************************************************************//\n//**********************  SellList Functions  *********************//\n//*****************************************************************//\n\n\n//***********************************************************************//\n\n    /**\n    *   @dev Adds the incoming ask order to the sellList mapping and inserts its key to the sellListHeap  \n        which will be then heapified \n    */\n\n    function insertAsk (address sender, uint256 price, uint256 volume, uint256 auxprice) external  \n    {\n        OrderStruct memory neworder = OrderStruct(sender, price, volume, auxprice);\n        sellList[sellListKey] = neworder;\n        sellListHeap.push(sellListKey);\n        sellListKey++;\n        minheapHeapifyUp();\n       \n    }    \n//***********************************************************************//\n\n    /**\n    *   @dev Sorts the heap\n    */\n\n    function minheapHeapifyUp () internal returns (bool) {\n\n        uint256 k = sellListHeap.length - 1; //k is set to be the last entry of the array(also heap) which is the element that's just added and has to be moved up\n        while (k > 0){                                      //while we havent reached to the top of the heap\n            uint256 p = (k-1)/2;                            //we need to compute the parent of this last element which is p = (k-1)/2\n            if (sellList[sellListHeap[k]].AuxPrice < sellList[sellListHeap[p]].AuxPrice) //if the element is greater than its parent\n            { \n            \n                uint256 temp = sellListHeap[k];    //swap the element at index k with its parent\n                sellListHeap[k] = sellListHeap[p];\n                sellListHeap[p] = temp;\n                \n                k = p; //k moves up one level\n            }\n            else {break;} //if not the break statement exits the loop (it continues until no element index k is not greater than its parent)\n        }\n        \n        return true;\n    }\n//***********************************************************************//\n\n    /**\n    *   @dev Removes and returns the highest priority element of the sellList\n        Only if the buyList is not empty\n        then the heap is reordered using the heapifyDown method\n    */\n\n    function sellListMaxDelete() external returns (uint256, address, uint256)\n    {\n        require (sellListHeap.length != 0, 'sellList is empty!');                      //the delete function throws exception if the heap is empty\n        \n        \n        if (sellListHeap.length == 1) {                               // if the heap has only one item\n            \n            uint256 _price =  sellList[sellListHeap[0]].Price;\n            address _sender =  sellList[sellListHeap[0]].Sender;\n            uint256 _volume =  sellList[sellListHeap[0]].Volume;\n\n            delete sellList[sellListHeap[0]];\n            sellListHeap.pop();                                   //the only element of the heap is removed and returned  \n            sellListKey --;\n            return (_price, _sender, _volume);\n        }\n\n        //if neither of these conditions are true, then there are at least 2 items in the heap and deletion proceeds\n      \n        uint256 _price =  sellList[sellListHeap[0]].Price;\n        address _sender =  sellList[sellListHeap[0]].Sender;\n        uint256 _volume =  sellList[sellListHeap[0]].Volume;\n\n        delete sellList[sellListHeap[0]];\n        sellListHeap[0] = sellListHeap[sellListHeap.length -1];                      //the last elementof the heap is removed and written into the first position\n        sellListHeap.pop(); \n        minheapHeapifyDown();                           //now the heapifyDown is called to restore the ordering of the heap \n        sellListKey --;\n        return (_price, _sender, _volume);    \n    }\n//***********************************************************************//\n    /**\n    *   @dev Returns the sender, price, and volume of the highest priority element (The lowest ask)\n    */ \n    function sellListMax() external view returns (uint256, address, uint256){\n        \n        require (sellListHeap.length != 0,'sellList is empty!');  //throws exception if the sellList is empty\n        return (sellList[sellListHeap[0]].Price, sellList[sellListHeap[0]].Sender, sellList[sellListHeap[0]].Volume);\n        \n    }\n//***********************************************************************//\n\n    /**\n    *   @dev Heapifydown the sellListHeap when an ask order is removed \n        (we remove the root of the heap and add the last item to the root and reorder the heap again)\n    */ \n\n    function minheapHeapifyDown () internal  returns (bool) {\n        uint256 k =0;\n        uint256 leftchild = 2*k + 1;\n        while (leftchild < sellListHeap.length){               //as long as the left child is within the array that heap is stored in\n            uint256 min = leftchild;\n            uint256 rightchild = leftchild + 1;              //rightchild = 2k+2\n\n            if (rightchild < sellListHeap.length)                //if there is a rightchild, then the right child and left child are compared\n            {\n                if (sellList[sellListHeap[rightchild]].AuxPrice < sellList[sellListHeap[leftchild]].AuxPrice)\n                {    min++;   }                               //now min is set to rightchild, otherwise min remains to be the leftchild\n            }\n\n            if (sellList[sellListHeap[min]].AuxPrice < sellList[sellListHeap[k]].AuxPrice) //compares the k item with the max item and if its less they are swapped\n            {\n                \n                uint256 temp = sellListHeap[k];    //swap the element at index k with its parent\n                sellListHeap[k] = sellListHeap[min];\n                sellListHeap[min] = temp;\n\n                k = min; //k is set to min\n                leftchild = 2*k + 1; //l is recompuetd in preparation for the next iteration\n            }\n            else{ //if k item's smaller childer is not smaller than k item itself, heapifyDown should stop\n                break;\n            }\n\n        }\n        return true;\n    }\n\n//***********************************************************************//\n    /**\n    *   @dev Checks if the sellList is empty or not\n    */\n    function sellListisEmpty() external view returns (bool){\n        \n        if (sellListHeap.length == 0)\n        {\n            return true;\n\n        }\n        else\n        {\n            return false;\n        }\n        \n    }\n\n\n\n\n}",
  "sourcePath": "/Users/mahsamoosavi/Documents/GitHub/2020-Orderbook/Code/L2-Truffle/contracts/HeapMapping.sol",
  "compiler": {
    "name": "solc",
    "version": "0.6.11+commit.5ef660b1.Emscripten.clang"
  },
  "schemaVersion": "3.3.3",
  "updatedAt": "2021-02-27T15:04:03.156Z",
  "devdoc": {
    "kind": "dev",
    "methods": {
      "buyListMax()": {
        "details": "Returns the sender, price, and volume of the highest priority element (The highest bid)"
      },
      "buyListMaxDelete()": {
        "details": "Removes and returns the highest priority element of the buyList Only if the buyList is not empty then the heap is reordered using the heapifyDown method"
      },
      "buyListisEmpty()": {
        "details": "Checks if the buyList is empty or not"
      },
      "insertAsk(address,uint256,uint256,uint256)": {
        "details": "Adds the incoming ask order to the sellList mapping and inserts its key to the sellListHeap   which will be then heapified "
      },
      "insertBid(address,uint256,uint256,uint256)": {
        "details": "Adds the incoming bid order to the buyList mapping and inserts its key to the buyListHeap   which will be then heapified "
      },
      "sellListMax()": {
        "details": "Returns the sender, price, and volume of the highest priority element (The lowest ask)"
      },
      "sellListMaxDelete()": {
        "details": "Removes and returns the highest priority element of the sellList Only if the buyList is not empty then the heap is reordered using the heapifyDown method"
      },
      "sellListisEmpty()": {
        "details": "Checks if the sellList is empty or not"
      }
    },
    "version": 1
  },
  "userdoc": {
    "kind": "user",
    "methods": {},
    "version": 1
  }
}