{
  "contractName": "LinkedListMapping",
  "abi": [
    {
      "inputs": [],
      "stateMutability": "nonpayable",
      "type": "constructor"
    },
    {
      "inputs": [],
      "name": "buyHead",
      "outputs": [
        {
          "internalType": "uint256",
          "name": "",
          "type": "uint256"
        }
      ],
      "stateMutability": "view",
      "type": "function"
    },
    {
      "inputs": [
        {
          "internalType": "uint256",
          "name": "",
          "type": "uint256"
        }
      ],
      "name": "buyList",
      "outputs": [
        {
          "internalType": "address",
          "name": "Sender",
          "type": "address"
        },
        {
          "internalType": "uint256",
          "name": "Price",
          "type": "uint256"
        },
        {
          "internalType": "uint256",
          "name": "Volume",
          "type": "uint256"
        },
        {
          "internalType": "uint256",
          "name": "AuxPrice",
          "type": "uint256"
        },
        {
          "internalType": "uint256",
          "name": "id",
          "type": "uint256"
        },
        {
          "internalType": "uint256",
          "name": "next",
          "type": "uint256"
        },
        {
          "internalType": "uint256",
          "name": "prev",
          "type": "uint256"
        }
      ],
      "stateMutability": "view",
      "type": "function"
    },
    {
      "inputs": [],
      "name": "buyListCounter",
      "outputs": [
        {
          "internalType": "uint256",
          "name": "",
          "type": "uint256"
        }
      ],
      "stateMutability": "view",
      "type": "function"
    },
    {
      "inputs": [],
      "name": "buyTail",
      "outputs": [
        {
          "internalType": "uint256",
          "name": "",
          "type": "uint256"
        }
      ],
      "stateMutability": "view",
      "type": "function"
    },
    {
      "inputs": [],
      "name": "sellHead",
      "outputs": [
        {
          "internalType": "uint256",
          "name": "",
          "type": "uint256"
        }
      ],
      "stateMutability": "view",
      "type": "function"
    },
    {
      "inputs": [
        {
          "internalType": "uint256",
          "name": "",
          "type": "uint256"
        }
      ],
      "name": "sellList",
      "outputs": [
        {
          "internalType": "address",
          "name": "Sender",
          "type": "address"
        },
        {
          "internalType": "uint256",
          "name": "Price",
          "type": "uint256"
        },
        {
          "internalType": "uint256",
          "name": "Volume",
          "type": "uint256"
        },
        {
          "internalType": "uint256",
          "name": "AuxPrice",
          "type": "uint256"
        },
        {
          "internalType": "uint256",
          "name": "id",
          "type": "uint256"
        },
        {
          "internalType": "uint256",
          "name": "next",
          "type": "uint256"
        },
        {
          "internalType": "uint256",
          "name": "prev",
          "type": "uint256"
        }
      ],
      "stateMutability": "view",
      "type": "function"
    },
    {
      "inputs": [],
      "name": "sellTail",
      "outputs": [
        {
          "internalType": "uint256",
          "name": "",
          "type": "uint256"
        }
      ],
      "stateMutability": "view",
      "type": "function"
    },
    {
      "inputs": [],
      "name": "sellistCounter",
      "outputs": [
        {
          "internalType": "uint256",
          "name": "",
          "type": "uint256"
        }
      ],
      "stateMutability": "view",
      "type": "function"
    },
    {
      "inputs": [
        {
          "internalType": "address",
          "name": "sender",
          "type": "address"
        },
        {
          "internalType": "uint256",
          "name": "price",
          "type": "uint256"
        },
        {
          "internalType": "uint256",
          "name": "volume",
          "type": "uint256"
        },
        {
          "internalType": "uint256",
          "name": "auxprice",
          "type": "uint256"
        }
      ],
      "name": "insertBid",
      "outputs": [],
      "stateMutability": "nonpayable",
      "type": "function"
    },
    {
      "inputs": [],
      "name": "buyListMaxDelete",
      "outputs": [
        {
          "internalType": "uint256",
          "name": "",
          "type": "uint256"
        },
        {
          "internalType": "address",
          "name": "",
          "type": "address"
        },
        {
          "internalType": "uint256",
          "name": "",
          "type": "uint256"
        }
      ],
      "stateMutability": "nonpayable",
      "type": "function"
    },
    {
      "inputs": [],
      "name": "buyListMax",
      "outputs": [
        {
          "internalType": "uint256",
          "name": "",
          "type": "uint256"
        },
        {
          "internalType": "address",
          "name": "",
          "type": "address"
        },
        {
          "internalType": "uint256",
          "name": "",
          "type": "uint256"
        }
      ],
      "stateMutability": "view",
      "type": "function"
    },
    {
      "inputs": [],
      "name": "buyListisEmpty",
      "outputs": [
        {
          "internalType": "bool",
          "name": "",
          "type": "bool"
        }
      ],
      "stateMutability": "view",
      "type": "function"
    },
    {
      "inputs": [
        {
          "internalType": "address",
          "name": "sender",
          "type": "address"
        },
        {
          "internalType": "uint256",
          "name": "price",
          "type": "uint256"
        },
        {
          "internalType": "uint256",
          "name": "volume",
          "type": "uint256"
        },
        {
          "internalType": "uint256",
          "name": "auxprice",
          "type": "uint256"
        }
      ],
      "name": "insertAsk",
      "outputs": [],
      "stateMutability": "nonpayable",
      "type": "function"
    },
    {
      "inputs": [],
      "name": "sellListMaxDelete",
      "outputs": [
        {
          "internalType": "uint256",
          "name": "",
          "type": "uint256"
        },
        {
          "internalType": "address",
          "name": "",
          "type": "address"
        },
        {
          "internalType": "uint256",
          "name": "",
          "type": "uint256"
        }
      ],
      "stateMutability": "nonpayable",
      "type": "function"
    },
    {
      "inputs": [],
      "name": "sellListMax",
      "outputs": [
        {
          "internalType": "uint256",
          "name": "",
          "type": "uint256"
        },
        {
          "internalType": "address",
          "name": "",
          "type": "address"
        },
        {
          "internalType": "uint256",
          "name": "",
          "type": "uint256"
        }
      ],
      "stateMutability": "view",
      "type": "function"
    },
    {
      "inputs": [],
      "name": "sellListisEmpty",
      "outputs": [
        {
          "internalType": "bool",
          "name": "",
          "type": "bool"
        }
      ],
      "stateMutability": "view",
      "type": "function"
    }
  ],
  "bytecode": "0x608060405234801561001057600080fd5b506000808055600181815560028190556003829055600491909155600555610e978061003d6000396000f3fe608060405234801561001057600080fd5b50600436106101005760003560e01c80639484d40411610097578063a7da8ee811610066578063a7da8ee81461026a578063bae0ca9714610287578063bfa1eb981461028f578063cc0ba6701461029757610100565b80639484d404146101c35780639ecf86c8146101cb578063a390283f1461022a578063a78b79071461023257610100565b8063502f8609116100d3578063502f86091461017157806369abe5ac146101ab5780638a07bb65146101b357806391447d32146101bb57610100565b806308f93112146101055780631b44d8d01461011f578063211b0d3c1461014d578063403e997414610169575b600080fd5b61010d61029f565b60408051918252519081900360200190f35b6101276102a5565b604080519384526001600160a01b03909216602084015282820152519081900360600190f35b6101556103ae565b604080519115158252519081900360200190f35b61010d6103ca565b6101a96004803603608081101561018757600080fd5b506001600160a01b0381351690602081013590604081013590606001356103d0565b005b61010d610507565b61012761050d565b61012761058e565b61012761068e565b6101e8600480360360208110156101e157600080fd5b5035610711565b604080516001600160a01b0390981688526020880196909652868601949094526060860192909252608085015260a084015260c0830152519081900360e00190f35b61010d610758565b6101a96004803603608081101561024857600080fd5b506001600160a01b03813516906020810135906040810135906060013561075e565b6101e86004803603602081101561028057600080fd5b5035610881565b61010d6108c9565b61010d6108cf565b6101556108d5565b60045481565b60008060006102b2610e1b565b5060038054600081815260076020908152604091829020825160e08101845281546001600160a01b0316808252600183015493820184905260028301549482018590529582015460608201526004808301546080830152600583015460a083015260069092015460c0820152905490949193919291141561033c5760006003819055600455610359565b60a084015160038190556000908152600760205260408120600601555b608090930151600090815260076020526040812080546001600160a01b031916815560018101829055600281018290556003810182905560048101829055600581018290556006015590945092509050909192565b6000600354600014156103c3575060016103c7565b5060005b90565b60005481565b6103d8610e1b565b5060038054600090815260076020908152604091829020825160e08101845281546001600160a01b0316815260018201549281019290925260028101549282019290925291810154606083015260048101546080830152600581015460a08301526006015460c08201525b60808101511580159061045a575080606001518211155b156104d25760a090810151600090815260076020908152604091829020825160e08101845281546001600160a01b0316815260018201549281019290925260028101549282019290925260038201546060820152600482015460808201526005820154928101929092526006015460c0820152610443565b60c08101516104ed576104e7858585856108e5565b50610500565b6104fe8160c0015186868686610927565b505b5050505050565b60025481565b600080600080546000141561055e576040805162461bcd60e51b815260206004820152601260248201527173656c6c4c69737420697320656d7074792160701b604482015290519081900360640190fd5b5050600080548152600660205260409020600181015481546002909201549092506001600160a01b039091169192565b600080600061059b610e1b565b506000805480825260066020818152604093849020845160e08101865281546001600160a01b031680825260018084015494830185905260028401549783018890526003840154606084015260048401546080840152600584015460a0840152929094015460c0820152905490949193141561061e576000808055600155610639565b60a08401516000818155908152600660208190526040822001555b6080909301516000908152600660208190526040822080546001600160a01b03191681556001810183905560028101839055600381018390556004810183905560058101839055015590945092509050909192565b6000806000600354600014156106df576040805162461bcd60e51b81526020600482015260116024820152706275794c69737420697320656d7074792160781b604482015290519081900360640190fd5b50506003546000908152600760205260409020600181015481546002909201549092506001600160a01b039091169192565b60076020526000908152604090208054600182015460028301546003840154600485015460058601546006909601546001600160a01b039095169593949293919290919087565b60055481565b610766610e1b565b5060008054815260066020818152604092839020835160e08101855281546001600160a01b031681526001820154928101929092526002810154938201939093526003830154606082015260048301546080820152600583015460a082015291015460c08201525b6080810151158015906107e5575080606001518210155b1561085b5760a090810151600090815260066020818152604092839020835160e08101855281546001600160a01b031681526001820154928101929092526002810154938201939093526003830154606082015260048301546080820152600583015493810193909352015460c08201526107ce565b60c0810151610870576104e785858585610a68565b6104fe8160c0015186868686610aa0565b600660208190526000918252604090912080546001820154600283015460038401546004850154600586015495909601546001600160a01b0390941695929491939092919087565b60035481565b60015481565b600080546103c3575060016103c7565b6000806108f486868686610bd6565b905061090281600354610c82565b61090b81610ca1565b5060045461091e5761091c81610ca9565b505b95945050505050565b60006004548614156109455761093f85858585610cb1565b50610a5c565b61094d610e1b565b50600086815260076020908152604091829020825160e08101845281546001600160a01b031681526001820154928101929092526002810154928201929092526003820154606082015260048201546080820152600582015460a082015260069091015460c08201526109be610e1b565b5060a0808201516000908152600760209081526040808320815160e08101835281546001600160a01b03168152600182015493810193909352600281015491830191909152600381015460608301526004810154608083015260058101549382019390935260069092015460c0830152610a3a88888888610bd6565b9050610a4a818360800151610c82565b610a58836080015182610c82565b5050505b50600195945050505050565b600080610a7786868686610d03565b9050610a8581600054610dad565b50610a8f81610dd1565b5060015461091e5761091c81610dd9565b6000600154861415610ab85761093f85858585610de1565b610ac0610e1b565b50600086815260066020818152604092839020835160e08101855281546001600160a01b031681526001820154928101929092526002810154938201939093526003830154606082015260048301546080820152600583015460a082015291015460c0820152610b2e610e1b565b5060a0808201516000908152600660208181526040808420815160e08101835281546001600160a01b03168152600182015493810193909352600281015491830191909152600381015460608301526004810154608083015260058101549482019490945292015460c0830152610ba788888888610d03565b9050610bb7818360800151610dad565b50610bc6836080015182610dad565b5050505050600195945050505050565b6005805460018101909155600090610bec610e1b565b506040805160e0810182526001600160a01b03978816815260208082019788528183019687526060820195865260808201848152600060a0840181815260c08501828152968252600790935293909320915182546001600160a01b031916991698909817815595516001870155935160028601559151600385015550905160048301819055925160058301555160069091015590565b6000828152600760205260408082206005018390559181522060060155565b600355600190565b600455600190565b600060035460001415610cd057610cca858585856108e5565b50610cf8565b6000610cde86868686610bd6565b9050610cec60045482610c82565b610cf581610ca9565b50505b506001949350505050565b6002805460018101909155600090610d19610e1b565b506040805160e0810182526001600160a01b03978816815260208082019788528183019687526060820195865260808201848152600060a0840181815260c08501828152968252600693849052949020925183546001600160a01b0319169a169990991782559651600182015594516002860155925160038501559451600484018190559151600584015550925191015590565b60008281526006602081905260408083206005018490559282529190200155600190565b600055600190565b600190815590565b60008054610df557610cca85858585610a68565b6000610e0386868686610d03565b9050610e1160015482610dad565b50610cf581610dd9565b6040518060e0016040528060006001600160a01b03168152602001600081526020016000815260200160008152602001600081526020016000815260200160008152509056fea2646970667358221220123e06838e920700751e857afda628a44eb67f71dd55136acfbdfd5d09d75b4c64736f6c634300060b0033",
  "immutableReferences": {},
  "source": "pragma solidity >=0.4.22;\n\n\n//Linkedlist implemented with mapping wrapped in a priority queue\n\ncontract LinkedListMapping{\n    \n\n    constructor() public \n    {\n        sellHead = 0;\n        sellTail = 0;\n        sellistCounter = 1;\n        buyHead = 0;\n        buyTail = 0;\n        buyListCounter = 1;\n        \n\n    }\n\n/**\n*   @dev \n    Orderstruct with its elements:\n        Sender: The address of the trader submitting the order\n        Price: The price of the order\n        Volume: The volume of the order\n        AuxPrice: The contcantenation of the order's price and the counter which helps to sort the heap when there are ties\n        id: The id of the order \n        next: The id of the nex order in the list\n        prev The id of the previous order in the list\n    \n    sellHead: The head (first) node of the sellList\n    sellTail: The tail (last) node of the sellList\n    sellistCounter: The counter of ask orders (later used to create order ids)\n\n    buyHead: The head (first) node of the buyList\n    buyTail: The tail (last) node of the buyList\n    buyListCounter: The counter of bid orders (later used to create order ids)\n\n    sellList: Mappping that maps order ids to OrderStruct for asks\n    buyList: Mappping that maps order ids to OrderStruct for bids\n*/ \n    \n\n    struct OrderStruct\n    {\n        address Sender;\n        uint256 Price;\n        uint256 Volume;    \n        uint256 AuxPrice;  \n        uint256 id;\n        uint256 next;\n        uint256 prev;\n    }\n\n    uint256 public sellHead;\n    uint256 public sellTail;\n    uint256 public sellistCounter;\n\n    uint256 public buyHead;\n    uint256 public buyTail;\n    uint256 public buyListCounter;\n  \n    mapping (uint256 => OrderStruct) public sellList;\n    mapping (uint256 => OrderStruct) public buyList;\n    \n    \n//*****************************************************************//\n//**********************  buyList Functions  **********************//\n//*****************************************************************//\n\n//***********************************************************************//\n\n    /**\n    *   @dev Adds the incoming bid orders to its right position in the list\n    */\n    function insertBid(address sender, uint256 price, uint256 volume, uint256 auxprice) external \n    {\n       OrderStruct memory current = buyList[buyHead];\n        while (current.id !=0 && auxprice <= current.AuxPrice) //The linkedlist is sorted in an desceding order (decreasing)\n        {\n            current = buyList[current.next];\n            // we only exit this loop if we find the position to insert our data;\n        }  \n        if (current.prev == 0) //it means the current is equal to first and in that case we have to insert the node as a new head\n        {\n            buyListAddHead(sender, price, volume, auxprice);\n        }\n        else //the node next to the previous is no longer the current but it's our new node\n        {\n            buyListInsertAfter(current.prev, sender, price, volume, auxprice );           \n        }\n        \n    }    \n//***********************************************************************//\n\n    /**\n    *   @dev Adds the bid orders after the prevId node\n    */\n    function buyListInsertAfter(uint256 prevId, address sender, uint256 price, uint256 volume, uint256 auxprice) internal returns (bool)\n    {\n        \n        if (prevId == buyTail) {\n            buyListAddTail(sender,price, volume, auxprice);\n        }\n        else{\n            OrderStruct memory prevOrder = buyList[prevId];\n            OrderStruct memory nextOrder = buyList[prevOrder.next];\n            uint256 newOrderId = buyListCreateObject(sender,price, volume, auxprice);\n            buyListLink(newOrderId, nextOrder.id);\n            buyListLink(prevOrder.id, newOrderId);  \n        }\n        return true;\n    }\n//***********************************************************************//\n\n    /**\n    *   @dev Adds the bid orders before the nextId node\n    */\n    function buyListInsertBefore(uint256 nextId, address sender, uint256 price, uint256 volume, uint256 auxprice) internal returns (bool)\n    {\n        if (nextId == buyHead) {\n            buyListAddHead(sender,price, volume, auxprice);\n        }\n        else {\n            buyListInsertAfter(buyList[nextId].prev, sender, price, volume, auxprice);\n        }\n        return true;\n    }\n    \n//***********************************************************************//\n\n    function buyListAddTail(address sender, uint256 price, uint256 volume, uint256 auxprice) internal returns (bool)\n    {\n        \n        if (buyHead == 0) {\n            buyListAddHead(sender, price, volume, auxprice);\n        }\n        else {\n            uint256 ordertId = buyListCreateObject(sender, price, volume, auxprice);\n            buyListLink(buyTail, ordertId);\n            buyListSetTail(ordertId);\n        }\n        \n        return true;\n    }\n//***********************************************************************//\n    function buyListSetTail(uint256 id) internal returns(bool)\n    {\n        buyTail = id;\n        return true;\n    }\n//***********************************************************************//\n    function buyListAddHead(address sender, uint256 price, uint256 volume, uint256 auxprice) internal returns (uint256)\n    {\n        uint256 ordertId = buyListCreateObject(sender, price, volume, auxprice);\n        buyListLink(ordertId, buyHead);\n        buyListSetHead(ordertId);\n        if (buyTail == 0) buyListSetTail(ordertId);\n        return ordertId;\n    }\n//***********************************************************************//\n    function buyListSetHead(uint256 id) internal returns(bool)\n    {\n        buyHead = id;\n        return true;\n    }      \n    \n//***********************************************************************//\n    function buyListCreateObject(address sender,uint256 price, uint256 volume, uint256 auxprice) internal returns (uint256)\n    {\n        uint256 newId = buyListCounter;\n        buyListCounter ++;\n        OrderStruct memory order = OrderStruct(sender, price, volume, auxprice, newId, 0, 0);\n        buyList[order.id] = order;\n        return order.id;\n    }\n//***********************************************************************//\n    function buyListLink(uint256 prevId, uint256 nextId) internal\n    {\n        buyList[prevId].next = nextId;\n        buyList[nextId].prev = prevId;   \n    }\n\n//***********************************************************************//\n\n    /**\n    *   @dev Removes and returns the highest priority element of the buyList\n        Only if the buyList is not empty\n    */\n    function buyListMaxDelete() external returns (uint256, address, uint256)\n    {\n        \n        OrderStruct memory removeObject = buyList[buyHead];\n        uint256 _price =  removeObject.Price;\n        address _sender = removeObject.Sender;\n        uint256 _volume = removeObject.Volume;\n\n        if (buyTail == buyHead)\n        {\n            buyHead = 0;\n            buyTail = 0;\n            \n        }\n        else\n        {\n            buyHead = removeObject.next;\n            buyList[removeObject.next].prev = 0;\n            \n        }\n        \n        delete buyList[removeObject.id];\n        return (_price,_sender,_volume); \n        \n        \n\n\n        /* OrderStruct memory removeObject = buyList[buyHead];\n        buyListSetHead(removeObject.next);\n        buyList[removeObject.next].prev = 0;\n        \n        if (buyTail == buyHead)\n        {\n            buyListSetHead(0);\n            buyListSetTail(0);\n        }\n        else\n        {\n            buyListSetHead(removeObject.next);\n            buyList[removeObject.next].prev = 0;\n            buyListLink(removeObject.prev, removeObject.next);\n        }\n        uint256 _price =  removeObject.Price;\n        address _sender = removeObject.Sender;\n        delete buyList[removeObject.id];\n        return (_price,_sender); */\n    \n    }\n//***********************************************************************//\n    /**\n    *   @dev Returns the sender, price, and volume of the highest priority element (The highest bid)\n    */ \n    function buyListMax() external view returns (uint256, address, uint256){\n        \n        require (buyHead != 0, 'buyList is empty!'); //throws exception if the buylist is empty\n        return (buyList[buyHead].Price, buyList[buyHead].Sender, buyList[buyHead].Volume);\n        \n    }\n//***********************************************************************//\n    /**\n    *   @dev Checks if the buyList is empty or not\n    */ \n    function buyListisEmpty() external view returns (bool){\n        \n        if (buyHead == 0)\n        {\n            return true;\n\n        }\n        else\n        {\n            return false;\n        }\n        \n    }\n    \n//*****************************************************************//\n//**********************  SellList Functions  *********************//\n//*****************************************************************//\n\n//***********************************************************************//\n\n//***********************************************************************//\n\n    /**\n    *   @dev Adds the incoming ask orders to its right position in the list\n    */\n    function insertAsk (address sender, uint256 price, uint256 volume, uint256 auxprice) external \n    {\n        OrderStruct memory current = sellList[sellHead];\n        while (current.id !=0 && auxprice >= current.AuxPrice) //The linkedlist is sorted in an ascending order (increasing)\n        {\n        current = sellList[current.next];\n        // we only exit this loop if we find the position to insert our data;\n        }  \n        if (current.prev == 0) //it means the current is equal to first and in that case we have to insert the node as a new head\n        {\n            sellListAddHead(sender, price, volume, auxprice);\n        }\n        else //the node next to the previous is no longer the current but it's our new node\n        {\n        sellListInsertAfter(current.prev, sender, price, volume, auxprice);           \n        }    \n         \n    }\n//***********************************************************************//\n\n    /**\n    *   @dev Adds the ask orders after the prevId node\n    */\n    function sellListInsertAfter(uint256 prevId, address sender, uint256 price, uint256 volume, uint256 auxprice) internal returns (bool)\n    {\n        if (prevId == sellTail) \n        {\n            sellListAddTail(sender, price, volume, auxprice);\n        }\n        else \n        {\n            OrderStruct memory prevOrder = sellList[prevId];\n            OrderStruct memory nextOrder = sellList[prevOrder.next];\n            uint256 newOrderId = sellListCreateObject(sender, price, volume, auxprice);\n            sellListLink(newOrderId, nextOrder.id);\n            sellListLink(prevOrder.id, newOrderId);  \n        }\n        return true;\n    }\n//***********************************************************************//\n\n    /**\n    *   @dev Adds the ask orders before the nextId node\n    */\n    function sellListInsertBefore(uint256 nextId, address sender, uint256 price, uint256 volume, uint256 auxprice) internal returns (bool)\n    {\n        if (nextId == sellHead) {\n            sellListAddHead(sender, price, volume, auxprice);\n        }\n        else {\n            sellListInsertAfter(sellList[nextId].prev, sender, price, volume, auxprice);\n        }\n        return true;\n    }\n//***********************************************************************//\n    function sellListAddTail(address sender, uint256 price, uint256 volume, uint256 auxprice) internal returns (bool)\n    {\n        if (sellHead == 0) {\n            sellListAddHead(sender, price, volume, auxprice);\n        }\n        else {\n            uint256 ordertId = sellListCreateObject(sender, price, volume, auxprice);\n            sellListLink(sellTail, ordertId);\n            sellListSetTail(ordertId);\n        }\n        \n        return true;\n    }\n//***********************************************************************//\n    function sellListSetTail(uint256 id) internal returns(bool)\n    {\n        sellTail = id;\n        return true;\n    }\n//***********************************************************************//\n    function sellListAddHead(address sender,uint256 price, uint256 volume, uint256 auxprice) internal returns (uint256)\n    {\n        uint256 ordertId = sellListCreateObject(sender, price, volume, auxprice);\n        sellListLink(ordertId, sellHead);\n        sellListSetHead(ordertId);\n        if (sellTail == 0) sellListSetTail(ordertId);\n        return ordertId;\n    }\n//***********************************************************************//\n    function sellListSetHead(uint256 id) internal returns (bool)\n    {\n        sellHead = id;\n        return true;\n    }      \n//***********************************************************************//\n    function sellListCreateObject(address sender, uint256 price, uint256 volume, uint256 auxprice) internal returns (uint256)\n    {\n        uint256 newId = sellistCounter;\n        sellistCounter ++;\n        OrderStruct memory order =  OrderStruct( sender , price, volume, auxprice, newId, 0, 0);\n        sellList[order.id] = order;\n        return order.id;\n    }\n//***********************************************************************//\n    function sellListLink(uint256 prevId, uint256 nextId) internal returns (bool)\n    {\n        sellList[prevId].next = nextId;\n        sellList[nextId].prev = prevId;\n        return true;    \n    }\n//***********************************************************************//\n\n    /**\n    *   @dev Removes and returns the highest priority element of the sellList (the lowest ask order)\n        Only if the sellList is not empty\n    */\n    function sellListMaxDelete() external returns (uint256, address, uint256)\n    {\n        \n        OrderStruct memory removeObject = sellList[sellHead];\n        uint256 _price =  removeObject.Price;\n        address _sender = removeObject.Sender;\n        uint256 _volume = removeObject.Volume;\n\n        if (sellTail == sellHead)\n        {\n            sellHead = 0;\n            sellTail = 0;\n            \n        }\n        else\n        {\n            sellHead = removeObject.next;\n            sellList[removeObject.next].prev = 0;\n            \n        }\n        \n        delete sellList[removeObject.id];\n        return (_price,_sender, _volume); \n    \n\n        /* OrderStruct memory removeObject = sellList[sellHead];\n        if (sellTail == sellHead)\n        {\n            sellListSetHead(0);\n            sellListSetTail(0);\n        }\n        else\n        {\n            sellListSetHead(removeObject.next);\n            sellList[removeObject.next].prev = 0;\n        }\n        uint256 _price =  removeObject.Price;\n        address _sender =  removeObject.Sender;\n        delete sellList[removeObject.id];\n        return (_price,_sender); */\n    }\n\n//***********************************************************************//\n    /**\n    *   @dev Returns the sender, price, and volume of the highest priority element (The lowest ask)\n    */ \n    function sellListMax() external view returns (uint256, address, uint256){\n\n        require(sellHead != 0,'sellList is empty!'); //throws exception if the sellList is empty\n        return (sellList[sellHead].Price,sellList[sellHead].Sender, sellList[sellHead].Volume);\n    }\n    \n//***********************************************************************//\n    /**\n    *   @dev Checks if the sellList is empty or not\n    */ \n    function sellListisEmpty() external view returns (bool){\n        \n        if (sellHead == 0)\n        {\n            return true;\n\n        }\n        else\n        {\n            return false;\n        }\n        \n    }\n\n//***********************************************************************//\n    /**\n    *   @dev deletes the entire priority queue and sends its funds (if any) back to the CallMarket\n    /* function deletePQ (address payable callmarket) external {\n        selfdestruct(callmarket);\n    } */\n\n\n}",
  "sourcePath": "/Users/mahsamoosavi/Documents/GitHub/2020-Orderbook/Code/L2-Truffle/contracts/LinkedListMapping.sol",
  "compiler": {
    "name": "solc",
    "version": "0.6.11+commit.5ef660b1.Emscripten.clang"
  },
  "schemaVersion": "3.3.3",
  "updatedAt": "2021-02-27T15:04:03.320Z",
  "devdoc": {
    "kind": "dev",
    "methods": {
      "buyListMax()": {
        "details": "Returns the sender, price, and volume of the highest priority element (The highest bid)"
      },
      "buyListMaxDelete()": {
        "details": "Removes and returns the highest priority element of the buyList Only if the buyList is not empty"
      },
      "buyListisEmpty()": {
        "details": "Checks if the buyList is empty or not"
      },
      "insertAsk(address,uint256,uint256,uint256)": {
        "details": "Adds the incoming ask orders to its right position in the list"
      },
      "insertBid(address,uint256,uint256,uint256)": {
        "details": "Adds the incoming bid orders to its right position in the list"
      },
      "sellListMax()": {
        "details": "Returns the sender, price, and volume of the highest priority element (The lowest ask)"
      },
      "sellListMaxDelete()": {
        "details": "Removes and returns the highest priority element of the sellList (the lowest ask order) Only if the sellList is not empty"
      },
      "sellListisEmpty()": {
        "details": "Checks if the sellList is empty or not"
      }
    },
    "version": 1
  },
  "userdoc": {
    "kind": "user",
    "methods": {},
    "version": 1
  }
}