{
  "contractName": "PQ3",
  "abi": [
    {
      "constant": true,
      "inputs": [],
      "name": "Key",
      "outputs": [
        {
          "internalType": "uint256",
          "name": "",
          "type": "uint256"
        }
      ],
      "payable": false,
      "stateMutability": "view",
      "type": "function"
    },
    {
      "constant": true,
      "inputs": [
        {
          "internalType": "uint256",
          "name": "",
          "type": "uint256"
        }
      ],
      "name": "List",
      "outputs": [
        {
          "internalType": "uint256",
          "name": "",
          "type": "uint256"
        }
      ],
      "payable": false,
      "stateMutability": "view",
      "type": "function"
    },
    {
      "constant": false,
      "inputs": [
        {
          "internalType": "uint256",
          "name": "_number",
          "type": "uint256"
        }
      ],
      "name": "Enqueue",
      "outputs": [
        {
          "internalType": "bool",
          "name": "",
          "type": "bool"
        }
      ],
      "payable": false,
      "stateMutability": "nonpayable",
      "type": "function"
    },
    {
      "constant": false,
      "inputs": [],
      "name": "RemoveMax",
      "outputs": [
        {
          "internalType": "uint256",
          "name": "",
          "type": "uint256"
        }
      ],
      "payable": false,
      "stateMutability": "nonpayable",
      "type": "function"
    },
    {
      "constant": false,
      "inputs": [],
      "name": "Dequeue",
      "outputs": [
        {
          "internalType": "uint256",
          "name": "",
          "type": "uint256"
        }
      ],
      "payable": false,
      "stateMutability": "nonpayable",
      "type": "function"
    },
    {
      "constant": false,
      "inputs": [],
      "name": "Peek",
      "outputs": [
        {
          "internalType": "uint256",
          "name": "",
          "type": "uint256"
        }
      ],
      "payable": false,
      "stateMutability": "nonpayable",
      "type": "function"
    },
    {
      "constant": false,
      "inputs": [],
      "name": "isEmpty",
      "outputs": [
        {
          "internalType": "bool",
          "name": "",
          "type": "bool"
        }
      ],
      "payable": false,
      "stateMutability": "nonpayable",
      "type": "function"
    }
  ],
  "bytecode": "0x608060405234801561001057600080fd5b506107f3806100206000396000f3fe608060405234801561001057600080fd5b506004361061007d5760003560e01c80636dd5fa7b1161005b5780636dd5fa7b14610108578063b64456a714610126578063dd11eaf214610144578063f39d8c65146101865761007d565b80630c4a515c1461008257806327702186146100c8578063681fe70c146100e6575b600080fd5b6100ae6004803603602081101561009857600080fd5b81019080803590602001909291905050506101a4565b604051808215151515815260200191505060405180910390f35b6100d0610211565b6040518082815260200191505060405180910390f35b6100ee610238565b604051808215151515815260200191505060405180910390f35b610110610258565b6040518082815260200191505060405180910390f35b61012e610305565b6040518082815260200191505060405180910390f35b6101706004803603602081101561015a57600080fd5b8101908080359060200190929190505050610508565b6040518082815260200191505060405180910390f35b61018e610520565b6040518082815260200191505060405180910390f35b60008160008060015481526020019081526020016000208190555060026001549080600181540180825580915050906001820390600052602060002001600090919290919091505550600160008154809291906001019190505550610207610526565b5060019050919050565b60005b60011515610220610238565b1515146102355761022f610305565b50610214565b90565b60008060028054905014156102505760019050610255565b600090505b90565b60008060028054905014156102d5576040517f08c379a000000000000000000000000000000000000000000000000000000000815260040180806020018281038252600e8152602001807f4c69737420697320656d7074792100000000000000000000000000000000000081525060200191505060405180910390fd5b60008060026000815481106102e657fe5b9060005260206000200154815260200190815260200160002054905090565b6000806002805490501415610382576040517f08c379a000000000000000000000000000000000000000000000000000000000815260040180806020018281038252600e8152602001807f4c69737420697320656d7074792100000000000000000000000000000000000081525060200191505060405180910390fd5b6001600280549050141561042a57600080600060026000815481106103a357fe5b9060005260206000200154815260200190815260200160002054905060008060026000815481106103d057fe5b906000526020600020015481526020019081526020016000206000905560028054806103f857fe5b600190038181906000526020600020016000905590556001600081548092919060019003919050555080915050610505565b6000806000600260008154811061043d57fe5b90600052602060002001548152602001908152602001600020549050600080600260008154811061046a57fe5b906000526020600020015481526020019081526020016000206000905560026001600280549050038154811061049c57fe5b906000526020600020015460026000815481106104b557fe5b906000526020600020018190555060028054806104ce57fe5b600190038181906000526020600020016000905590556104ec610632565b5060016000815480929190600190039190505550809150505b90565b60006020528060005260406000206000915090505481565b60015481565b60008060016002805490500390505b600081111561062a5760006002600183038161054d57fe5b0490506000806002838154811061056057fe5b90600052602060002001548152602001908152602001600020546000806002858154811061058a57fe5b9060005260206000200154815260200190815260200160002054111561061e576000600283815481106105b957fe5b90600052602060002001549050600282815481106105d357fe5b9060005260206000200154600284815481106105eb57fe5b9060005260206000200181905550806002838154811061060757fe5b906000526020600020018190555081925050610624565b5061062a565b50610535565b600191505090565b6000806000905060006001826002020190505b6002805490508110156107b557600081905060006001830190506002805490508110156106d0576000806002858154811061067c57fe5b9060005260206000200154815260200190815260200160002054600080600284815481106106a657fe5b906000526020600020015481526020019081526020016000205411156106cf5781806001019250505b5b600080600284815481106106e057fe5b90600052602060002001548152602001908152602001600020546000806002878154811061070a57fe5b906000526020600020015481526020019081526020016000205410156107a75760006002858154811061073957fe5b906000526020600020015490506002838154811061075357fe5b90600052602060002001546002868154811061076b57fe5b9060005260206000200181905550806002848154811061078757fe5b9060005260206000200181905550829450600185600202019350506107ae565b50506107b5565b5050610645565b6001925050509056fea265627a7a723158208f525dfcf27fb52aa88d00706c070317ac538dbd73336666ce9d8609f42cafea64736f6c63430005100032",
  "source": "pragma solidity >=0.4.22;\n//pragma experimental ABIEncoderV2;\n\n\n//Mapping and Heap with dynamic array wrapped in a priority queue\n//The code stores integers in the mapping and have keys for them. and stores the keys in the sorted heap that is implemented by dynamic array\n\n\ncontract PQ3{\n\n    mapping(uint256 => uint256) public List;        //mapping that contains the integers and have keys for them. This mapping is not sorted, we store the keys into the heap and sort them there\n    uint256 public Key;\n    uint256[] MaxHeap;\n\n\n//*******************  Enqueue()() ***************************//\n    //the new item will be added to the end of the array list \n    //then heapified up with a call to heapifyUp method\n    function Enqueue(uint256 _number) public returns (bool)\n    {\n        List[Key] = _number;\n        MaxHeap.push(Key);\n        Key++;\n        maxheap_heapifyUp ();\n        return true;\n    }\n\n//*******************  maxheap_heapifyUp () ***************************//\n    //this function is called everytime we insert a new element to the end of the array\n    //now the heap has to be sorted again\n    function maxheap_heapifyUp () internal returns (bool) {\n    \n        uint256 k = MaxHeap.length - 1;                   //k is set to be the last entry of the array (also heap) which is the element that's just added and has to be moved up\n        while (k > 0){                                  //while we havent reached to the top of the heap\n            uint256 p = (k-1)/2;                           //we need to compute the parent of this last element which is p = (k-1)/2\n            if (List[MaxHeap[k]] > List[MaxHeap[p]]) \n            {   \n                uint256 temp = MaxHeap[k];    //swap the element at index k with its parent\n                MaxHeap[k] = MaxHeap[p];\n                MaxHeap[p] = temp;\n                k = p;                                  //k moves up one level\n            }\n            else {break;}                               //if not the break statement exits the loop (it continues until no element index k is not greater than its parent)\n        }\n        return true;\n    }\n//******************** RemoveMax() function ********************//    \n    //the highest priority item will be removed from the list and is returned by the function\n    //then the heap is reordered uising the heapifyDown method\n    function RemoveMax() public returns (uint256)\n    {\n        require (MaxHeap.length != 0, 'List is empty!');                            //the delete function throws exception if the heap is empty\n        \n        \n        if (MaxHeap.length == 1) {                                      //if the heap has only one items\n\n            uint256 _number =  List[MaxHeap[0]];\n            delete List[MaxHeap[0]];\n            MaxHeap.pop();                                                 //the only element of the heap is removed and returned \n            Key--;\n            return (_number);     \n       \n        }\n\n        //if neither of these conditions are true, then there are at least 2 items in the heap and deletion proceeds\n        \n        uint256 _number =  List[MaxHeap[0]];\n        delete List[MaxHeap[0]];\n        MaxHeap[0] = MaxHeap[MaxHeap.length -1]; //the last elementof the heap is removed and written into the first position\n        MaxHeap.pop();\n        maxheap_heapifyDown(); //now the siftdown is called\n        Key--;\n        return (_number);  \n    }\n//******************** Dequeue() function ********************//    \n    //Emptying the list by iterating over it and deleting the highest priority number in each round (similar to match funtion in the call market)\n    function Dequeue() public returns (uint256) \n    {\n        while (isEmpty() != true)\n        {  \n            RemoveMax();\n        }\n    }\n//*******************  maxheap_heapifyDown () ***************************//\n    //when we want to remove an element from the heap we remove the root of the heap and add the last item\n    //to the root and reorder the heap again\n    function maxheap_heapifyDown () internal returns (bool)\n    {\n        uint256 k =0;\n        uint256 leftchild = 2*k + 1;\n        while (leftchild < MaxHeap.length)\n        {                                   //as long as the left child is within the array that heap is stored in\n            uint256 max = leftchild;\n            uint256 rightchild = leftchild + 1;                                     //rightchild = 2k+2\n\n            if (rightchild < MaxHeap.length)                                       //if there is a rightchild\n            {\n                if (List[MaxHeap[rightchild]] > List[MaxHeap[leftchild]])    //then the right child and left child are compared\n                {\n                    max++;                                                       //now max is set to rightchild, otherwise max remains to be the leftchild\n                }\n            }\n\n        if (List[MaxHeap[k]] < List[MaxHeap[max]])                        //compares the k item with the max item and if k is smaller than its greatest children they are swapped\n        {\n            uint256 temp = MaxHeap[k];    //swap the element at index k with its parent\n            MaxHeap[k] = MaxHeap[max];\n            MaxHeap[max] = temp;\n            k = max;                                                         //k is set to max\n            leftchild =2*k + 1;                                              //l is recompuetd in preparation for the next iteration\n        }\n        else{                                                               //if the k item is not smaller than the max item, heapifyDown should stop\n            break;\n            }\n        }\n        return true;\n    }\n//****************   Peek()  *********************//\n    //Retrieves, but does not remove, the head of this queue\n    function Peek() public  returns (uint256){\n        \n        require (MaxHeap.length != 0, 'List is empty!'); //throws exception if the maxheap (BuyList) is empty\n        return (List[MaxHeap[0]]);\n        \n    }\n\n//****************   isEmpty()  *********************//\n    //checks if the List is empty\n    function isEmpty() public returns (bool){\n        \n        if (MaxHeap.length == 0)\n        {\n            return true;\n\n        }\n        else\n        {\n            return false;\n        }\n        \n    }\n\n\n\n}",
  "sourcePath": "/home/mahsa/ProjectRepo/2020-Orderbook/Code/New-Truffle/contracts/PQs_for_Unit_Testings/PQ3.sol",
  "compiler": {
    "name": "solc",
    "version": "0.5.16+commit.9c3226ce.Emscripten.clang"
  },
  "schemaVersion": "3.2.5",
  "updatedAt": "2020-09-15T15:37:55.408Z",
  "networkType": "ethereum",
  "devdoc": {
    "methods": {}
  },
  "userdoc": {
    "methods": {}
  }
}