{
  "contractName": "test1",
  "abi": [
    {
      "constant": true,
      "inputs": [],
      "name": "x",
      "outputs": [
        {
          "internalType": "uint256",
          "name": "",
          "type": "uint256"
        }
      ],
      "payable": false,
      "stateMutability": "view",
      "type": "function"
    },
    {
      "constant": false,
      "inputs": [],
      "name": "ChangeVariable",
      "outputs": [],
      "payable": false,
      "stateMutability": "nonpayable",
      "type": "function"
    }
  ],
  "bytecode": "0x6080604052348015600f57600080fd5b5060988061001e6000396000f3fe6080604052348015600f57600080fd5b506004361060325760003560e01c80630c55699c1460375780631db7b6e1146053575b600080fd5b603d605b565b6040518082815260200191505060405180910390f35b60596061565b005b60005481565b56fea265627a7a723158204be8b1fc6cd6045d8a8e6f4e01d10eb346e5b5d2344b68604eb42af7b1a6636364736f6c63430005100032",
  "source": "pragma solidity >=0.4.22;\n\n\ncontract test1{\n\n\n    // uint256[] public test1;\n\n    // function SubmitInt (uint256 _number) public {\n\n    //     test1.push(_number);\n        \n    // }\n\n    // function killcontract() public {\n\n    //     selfdestruct(block.coinbase);\n    // }\n\n\n    uint256 public x;\n    \n    function ChangeVariable() public {\n        uint256 y;\n        //x = 6;\n    }\n\n}",
  "sourcePath": "/home/mahsa/ProjectRepo/2020-Orderbook/Code/New-Truffle/contracts/test1.sol",
  "compiler": {
    "name": "solc",
    "version": "0.5.16+commit.9c3226ce.Emscripten.clang"
  },
  "schemaVersion": "3.2.5",
  "updatedAt": "2020-09-15T15:37:55.427Z",
  "networkType": "ethereum",
  "devdoc": {
    "methods": {}
  },
  "userdoc": {
    "methods": {}
  }
}