{
  "contractName": "LinkedListMapping",
  "abi": [
    {
      "inputs": [],
      "payable": false,
      "stateMutability": "nonpayable",
      "type": "constructor"
    },
    {
      "constant": true,
      "inputs": [],
      "name": "buyHead",
      "outputs": [
        {
          "internalType": "uint256",
          "name": "",
          "type": "uint256"
        }
      ],
      "payable": false,
      "stateMutability": "view",
      "type": "function"
    },
    {
      "constant": true,
      "inputs": [
        {
          "internalType": "uint256",
          "name": "",
          "type": "uint256"
        }
      ],
      "name": "buyList",
      "outputs": [
        {
          "internalType": "address",
          "name": "Sender",
          "type": "address"
        },
        {
          "internalType": "uint256",
          "name": "Price",
          "type": "uint256"
        },
        {
          "internalType": "uint256",
          "name": "Volume",
          "type": "uint256"
        },
        {
          "internalType": "bool",
          "name": "Exists",
          "type": "bool"
        },
        {
          "internalType": "uint256",
          "name": "AuxPrice",
          "type": "uint256"
        },
        {
          "internalType": "uint256",
          "name": "id",
          "type": "uint256"
        },
        {
          "internalType": "uint256",
          "name": "next",
          "type": "uint256"
        },
        {
          "internalType": "uint256",
          "name": "prev",
          "type": "uint256"
        }
      ],
      "payable": false,
      "stateMutability": "view",
      "type": "function"
    },
    {
      "constant": true,
      "inputs": [],
      "name": "buyListCounter",
      "outputs": [
        {
          "internalType": "uint256",
          "name": "",
          "type": "uint256"
        }
      ],
      "payable": false,
      "stateMutability": "view",
      "type": "function"
    },
    {
      "constant": true,
      "inputs": [],
      "name": "buyTail",
      "outputs": [
        {
          "internalType": "uint256",
          "name": "",
          "type": "uint256"
        }
      ],
      "payable": false,
      "stateMutability": "view",
      "type": "function"
    },
    {
      "constant": true,
      "inputs": [],
      "name": "sellHead",
      "outputs": [
        {
          "internalType": "uint256",
          "name": "",
          "type": "uint256"
        }
      ],
      "payable": false,
      "stateMutability": "view",
      "type": "function"
    },
    {
      "constant": true,
      "inputs": [
        {
          "internalType": "uint256",
          "name": "",
          "type": "uint256"
        }
      ],
      "name": "sellList",
      "outputs": [
        {
          "internalType": "address",
          "name": "Sender",
          "type": "address"
        },
        {
          "internalType": "uint256",
          "name": "Price",
          "type": "uint256"
        },
        {
          "internalType": "uint256",
          "name": "Volume",
          "type": "uint256"
        },
        {
          "internalType": "bool",
          "name": "Exists",
          "type": "bool"
        },
        {
          "internalType": "uint256",
          "name": "AuxPrice",
          "type": "uint256"
        },
        {
          "internalType": "uint256",
          "name": "id",
          "type": "uint256"
        },
        {
          "internalType": "uint256",
          "name": "next",
          "type": "uint256"
        },
        {
          "internalType": "uint256",
          "name": "prev",
          "type": "uint256"
        }
      ],
      "payable": false,
      "stateMutability": "view",
      "type": "function"
    },
    {
      "constant": true,
      "inputs": [],
      "name": "sellTail",
      "outputs": [
        {
          "internalType": "uint256",
          "name": "",
          "type": "uint256"
        }
      ],
      "payable": false,
      "stateMutability": "view",
      "type": "function"
    },
    {
      "constant": true,
      "inputs": [],
      "name": "sellistCounter",
      "outputs": [
        {
          "internalType": "uint256",
          "name": "",
          "type": "uint256"
        }
      ],
      "payable": false,
      "stateMutability": "view",
      "type": "function"
    },
    {
      "constant": false,
      "inputs": [
        {
          "internalType": "address",
          "name": "sender",
          "type": "address"
        },
        {
          "internalType": "uint256",
          "name": "price",
          "type": "uint256"
        },
        {
          "internalType": "uint256",
          "name": "volume",
          "type": "uint256"
        },
        {
          "internalType": "uint256",
          "name": "auxprice",
          "type": "uint256"
        }
      ],
      "name": "insertBid",
      "outputs": [],
      "payable": false,
      "stateMutability": "nonpayable",
      "type": "function"
    },
    {
      "constant": false,
      "inputs": [],
      "name": "buyListMaxPrice",
      "outputs": [
        {
          "internalType": "uint256",
          "name": "",
          "type": "uint256"
        }
      ],
      "payable": false,
      "stateMutability": "nonpayable",
      "type": "function"
    },
    {
      "constant": false,
      "inputs": [],
      "name": "buyListMaxSender",
      "outputs": [
        {
          "internalType": "address",
          "name": "",
          "type": "address"
        }
      ],
      "payable": false,
      "stateMutability": "nonpayable",
      "type": "function"
    },
    {
      "constant": false,
      "inputs": [],
      "name": "buyListMaxDelete",
      "outputs": [
        {
          "internalType": "uint256",
          "name": "",
          "type": "uint256"
        },
        {
          "internalType": "address",
          "name": "",
          "type": "address"
        }
      ],
      "payable": false,
      "stateMutability": "nonpayable",
      "type": "function"
    },
    {
      "constant": false,
      "inputs": [],
      "name": "buyListisEmpty",
      "outputs": [
        {
          "internalType": "bool",
          "name": "",
          "type": "bool"
        }
      ],
      "payable": false,
      "stateMutability": "nonpayable",
      "type": "function"
    },
    {
      "constant": false,
      "inputs": [
        {
          "internalType": "address",
          "name": "sender",
          "type": "address"
        },
        {
          "internalType": "uint256",
          "name": "price",
          "type": "uint256"
        },
        {
          "internalType": "uint256",
          "name": "volume",
          "type": "uint256"
        },
        {
          "internalType": "uint256",
          "name": "auxprice",
          "type": "uint256"
        }
      ],
      "name": "insertAsk",
      "outputs": [],
      "payable": false,
      "stateMutability": "nonpayable",
      "type": "function"
    },
    {
      "constant": false,
      "inputs": [],
      "name": "sellListMaxPrice",
      "outputs": [
        {
          "internalType": "uint256",
          "name": "",
          "type": "uint256"
        }
      ],
      "payable": false,
      "stateMutability": "nonpayable",
      "type": "function"
    },
    {
      "constant": false,
      "inputs": [],
      "name": "sellListMaxSender",
      "outputs": [
        {
          "internalType": "address",
          "name": "",
          "type": "address"
        }
      ],
      "payable": false,
      "stateMutability": "nonpayable",
      "type": "function"
    },
    {
      "constant": false,
      "inputs": [],
      "name": "sellListMaxDelete",
      "outputs": [
        {
          "internalType": "uint256",
          "name": "",
          "type": "uint256"
        },
        {
          "internalType": "address",
          "name": "",
          "type": "address"
        }
      ],
      "payable": false,
      "stateMutability": "nonpayable",
      "type": "function"
    },
    {
      "constant": false,
      "inputs": [],
      "name": "sellListisEmpty",
      "outputs": [
        {
          "internalType": "bool",
          "name": "",
          "type": "bool"
        }
      ],
      "payable": false,
      "stateMutability": "nonpayable",
      "type": "function"
    }
  ],
  "bytecode": "0x608060405234801561001057600080fd5b506000808190555060006001819055506001600281905550600060038190555060006004819055506001600581905550611a4e8061004f6000396000f3fe608060405234801561001057600080fd5b50600436106101165760003560e01c806391447d32116100a2578063a7da8ee811610071578063a7da8ee814610470578063bae0ca9714610513578063bfa1eb9814610531578063cc0ba6701461054f578063d00ec6171461057157610116565b806391447d32146102fc5780639ecf86c81461034d578063a390283f146103f0578063a78b79071461040e57610116565b8063403e9974116100e9578063403e9974146101f657806343f2bbfd14610214578063502f86091461025e57806369abe5ac146102c05780639105bb5b146102de57610116565b806308f931121461011b5780631b44d8d014610139578063211b0d3c1461018a5780632fda9614146101ac575b600080fd5b61012361058f565b6040518082815260200191505060405180910390f35b610141610595565b604051808381526020018273ffffffffffffffffffffffffffffffffffffffff1673ffffffffffffffffffffffffffffffffffffffff1681526020019250505060405180910390f35b610192610761565b604051808215151515815260200191505060405180910390f35b6101b461077e565b604051808273ffffffffffffffffffffffffffffffffffffffff1673ffffffffffffffffffffffffffffffffffffffff16815260200191505060405180910390f35b6101fe610835565b6040518082815260200191505060405180910390f35b61021c61083b565b604051808273ffffffffffffffffffffffffffffffffffffffff1673ffffffffffffffffffffffffffffffffffffffff16815260200191505060405180910390f35b6102be6004803603608081101561027457600080fd5b81019080803573ffffffffffffffffffffffffffffffffffffffff1690602001909291908035906020019092919080359060200190929190803590602001909291905050506108f3565b005b6102c8610afa565b6040518082815260200191505060405180910390f35b6102e6610b00565b6040518082815260200191505060405180910390f35b610304610b97565b604051808381526020018273ffffffffffffffffffffffffffffffffffffffff1673ffffffffffffffffffffffffffffffffffffffff1681526020019250505060405180910390f35b6103796004803603602081101561036357600080fd5b8101908080359060200190929190505050610d61565b604051808973ffffffffffffffffffffffffffffffffffffffff1673ffffffffffffffffffffffffffffffffffffffff168152602001888152602001878152602001861515151581526020018581526020018481526020018381526020018281526020019850505050505050505060405180910390f35b6103f8610dd6565b6040518082815260200191505060405180910390f35b61046e6004803603608081101561042457600080fd5b81019080803573ffffffffffffffffffffffffffffffffffffffff169060200190929190803590602001909291908035906020019092919080359060200190929190505050610ddc565b005b61049c6004803603602081101561048657600080fd5b8101908080359060200190929190505050610fe2565b604051808973ffffffffffffffffffffffffffffffffffffffff1673ffffffffffffffffffffffffffffffffffffffff168152602001888152602001878152602001861515151581526020018581526020018481526020018381526020018281526020019850505050505050505060405180910390f35b61051b611057565b6040518082815260200191505060405180910390f35b61053961105d565b6040518082815260200191505060405180910390f35b610557611063565b604051808215151515815260200191505060405180910390f35b610579611080565b6040518082815260200191505060405180910390f35b60045481565b6000806105a06119bc565b600760006003548152602001908152602001600020604051806101000160405290816000820160009054906101000a900473ffffffffffffffffffffffffffffffffffffffff1673ffffffffffffffffffffffffffffffffffffffff1673ffffffffffffffffffffffffffffffffffffffff16815260200160018201548152602001600282015481526020016003820160009054906101000a900460ff16151515158152602001600482015481526020016005820154815260200160068201548152602001600782015481525050905060008160200151905060008260000151905060035460045414156106a357600060038190555060006004819055506106cf565b8260c001516003819055506000600760008560c001518152602001908152602001600020600701819055505b600760008460a001518152602001908152602001600020600080820160006101000a81549073ffffffffffffffffffffffffffffffffffffffff0219169055600182016000905560028201600090556003820160006101000a81549060ff0219169055600482016000905560058201600090556006820160009055600782016000905550508181945094505050509091565b6000806003541415610776576001905061077b565b600090505b90565b60008060005414156107f8576040517f08c379a00000000000000000000000000000000000000000000000000000000081526004018080602001828103825260128152602001807f73656c6c4c69737420697320656d70747921000000000000000000000000000081525060200191505060405180910390fd5b600660008054815260200190815260200160002060000160009054906101000a900473ffffffffffffffffffffffffffffffffffffffff16905090565b60005481565b60008060035414156108b5576040517f08c379a00000000000000000000000000000000000000000000000000000000081526004018080602001828103825260118152602001807f6275794c69737420697320656d7074792100000000000000000000000000000081525060200191505060405180910390fd5b60076000600354815260200190815260200160002060000160009054906101000a900473ffffffffffffffffffffffffffffffffffffffff16905090565b6108fb6119bc565b600760006003548152602001908152602001600020604051806101000160405290816000820160009054906101000a900473ffffffffffffffffffffffffffffffffffffffff1673ffffffffffffffffffffffffffffffffffffffff1673ffffffffffffffffffffffffffffffffffffffff16815260200160018201548152602001600282015481526020016003820160009054906101000a900460ff1615151515815260200160048201548152602001600582015481526020016006820154815260200160078201548152505090505b60008160a00151141580156109e5575080608001518211155b15610ac157600760008260c001518152602001908152602001600020604051806101000160405290816000820160009054906101000a900473ffffffffffffffffffffffffffffffffffffffff1673ffffffffffffffffffffffffffffffffffffffff1673ffffffffffffffffffffffffffffffffffffffff16815260200160018201548152602001600282015481526020016003820160009054906101000a900460ff1615151515815260200160048201548152602001600582015481526020016006820154815260200160078201548152505090506109cc565b60008160e001511415610ae057610ada85858585611118565b50610af3565b610af18160e0015186868686611161565b505b5050505050565b60025481565b6000806000541415610b7a576040517f08c379a00000000000000000000000000000000000000000000000000000000081526004018080602001828103825260128152602001807f73656c6c4c69737420697320656d70747921000000000000000000000000000081525060200191505060405180910390fd5b600660008054815260200190815260200160002060010154905090565b600080610ba26119bc565b6006600080548152602001908152602001600020604051806101000160405290816000820160009054906101000a900473ffffffffffffffffffffffffffffffffffffffff1673ffffffffffffffffffffffffffffffffffffffff1673ffffffffffffffffffffffffffffffffffffffff16815260200160018201548152602001600282015481526020016003820160009054906101000a900460ff1615151515815260200160048201548152602001600582015481526020016006820154815260200160078201548152505090506000816020015190506000826000015190506000546001541415610ca357600080819055506000600181905550610ccf565b8260c001516000819055506000600660008560c001518152602001908152602001600020600701819055505b600660008460a001518152602001908152602001600020600080820160006101000a81549073ffffffffffffffffffffffffffffffffffffffff0219169055600182016000905560028201600090556003820160006101000a81549060ff0219169055600482016000905560058201600090556006820160009055600782016000905550508181945094505050509091565b60076020528060005260406000206000915090508060000160009054906101000a900473ffffffffffffffffffffffffffffffffffffffff16908060010154908060020154908060030160009054906101000a900460ff16908060040154908060050154908060060154908060070154905088565b60055481565b610de46119bc565b6006600080548152602001908152602001600020604051806101000160405290816000820160009054906101000a900473ffffffffffffffffffffffffffffffffffffffff1673ffffffffffffffffffffffffffffffffffffffff1673ffffffffffffffffffffffffffffffffffffffff16815260200160018201548152602001600282015481526020016003820160009054906101000a900460ff1615151515815260200160048201548152602001600582015481526020016006820154815260200160078201548152505090505b60008160a0015114158015610ecd575080608001518210155b15610fa957600660008260c001518152602001908152602001600020604051806101000160405290816000820160009054906101000a900473ffffffffffffffffffffffffffffffffffffffff1673ffffffffffffffffffffffffffffffffffffffff1673ffffffffffffffffffffffffffffffffffffffff16815260200160018201548152602001600282015481526020016003820160009054906101000a900460ff161515151581526020016004820154815260200160058201548152602001600682015481526020016007820154815250509050610eb4565b60008160e001511415610fc857610fc28585858561136c565b50610fdb565b610fd98160e00151868686866113b6565b505b5050505050565b60066020528060005260406000206000915090508060000160009054906101000a900473ffffffffffffffffffffffffffffffffffffffff16908060010154908060020154908060030160009054906101000a900460ff16908060040154908060050154908060060154908060070154905088565b60035481565b60015481565b6000806000541415611078576001905061107d565b600090505b90565b60008060035414156110fa576040517f08c379a00000000000000000000000000000000000000000000000000000000081526004018080602001828103825260118152602001807f6275794c69737420697320656d7074792100000000000000000000000000000081525060200191505060405180910390fd5b60076000600354815260200190815260200160002060010154905090565b600080611127868686866115c3565b90506111358160035461170b565b61113e81611745565b50600060045414156111555761115381611757565b505b80915050949350505050565b600060045486141561117f5761117985858585611769565b5061135f565b6111876119bc565b60076000888152602001908152602001600020604051806101000160405290816000820160009054906101000a900473ffffffffffffffffffffffffffffffffffffffff1673ffffffffffffffffffffffffffffffffffffffff1673ffffffffffffffffffffffffffffffffffffffff16815260200160018201548152602001600282015481526020016003820160009054906101000a900460ff16151515158152602001600482015481526020016005820154815260200160068201548152602001600782015481525050905061125d6119bc565b600760008360c001518152602001908152602001600020604051806101000160405290816000820160009054906101000a900473ffffffffffffffffffffffffffffffffffffffff1673ffffffffffffffffffffffffffffffffffffffff1673ffffffffffffffffffffffffffffffffffffffff16815260200160018201548152602001600282015481526020016003820160009054906101000a900460ff161515151581526020016004820154815260200160058201548152602001600682015481526020016007820154815250509050600061133d888888886115c3565b905061134d818360a0015161170b565b61135b8360a001518261170b565b5050505b6001905095945050505050565b60008061137b868686866117bb565b905061138981600054611903565b5061139381611945565b50600060015414156113aa576113a881611957565b505b80915050949350505050565b60006001548614156113d4576113ce85858585611969565b506115b6565b6113dc6119bc565b60066000888152602001908152602001600020604051806101000160405290816000820160009054906101000a900473ffffffffffffffffffffffffffffffffffffffff1673ffffffffffffffffffffffffffffffffffffffff1673ffffffffffffffffffffffffffffffffffffffff16815260200160018201548152602001600282015481526020016003820160009054906101000a900460ff1615151515815260200160048201548152602001600582015481526020016006820154815260200160078201548152505090506114b26119bc565b600660008360c001518152602001908152602001600020604051806101000160405290816000820160009054906101000a900473ffffffffffffffffffffffffffffffffffffffff1673ffffffffffffffffffffffffffffffffffffffff1673ffffffffffffffffffffffffffffffffffffffff16815260200160018201548152602001600282015481526020016003820160009054906101000a900460ff1615151515815260200160048201548152602001600582015481526020016006820154815260200160078201548152505090506000611592888888886117bb565b90506115a2818360a00151611903565b506115b18360a0015182611903565b505050505b6001905095945050505050565b60008060055490506005600081548092919060010191905055506115e56119bc565b6040518061010001604052808873ffffffffffffffffffffffffffffffffffffffff168152602001878152602001868152602001600115158152602001858152602001838152602001600081526020016000815250905080600760008360a00151815260200190815260200160002060008201518160000160006101000a81548173ffffffffffffffffffffffffffffffffffffffff021916908373ffffffffffffffffffffffffffffffffffffffff160217905550602082015181600101556040820151816002015560608201518160030160006101000a81548160ff0219169083151502179055506080820151816004015560a0820151816005015560c0820151816006015560e082015181600701559050508060a0015192505050949350505050565b8060076000848152602001908152602001600020600601819055508160076000838152602001908152602001600020600701819055505050565b60008160038190555060019050919050565b60008160048190555060019050919050565b60008060035414156117875761178185858585611118565b506117af565b6000611795868686866115c3565b90506117a36004548261170b565b6117ac81611757565b50505b60019050949350505050565b60008060025490506002600081548092919060010191905055506117dd6119bc565b6040518061010001604052808873ffffffffffffffffffffffffffffffffffffffff168152602001878152602001868152602001600115158152602001858152602001838152602001600081526020016000815250905080600660008360a00151815260200190815260200160002060008201518160000160006101000a81548173ffffffffffffffffffffffffffffffffffffffff021916908373ffffffffffffffffffffffffffffffffffffffff160217905550602082015181600101556040820151816002015560608201518160030160006101000a81548160ff0219169083151502179055506080820151816004015560a0820151816005015560c0820151816006015560e082015181600701559050508060a0015192505050949350505050565b60008160066000858152602001908152602001600020600601819055508260066000848152602001908152602001600020600701819055506001905092915050565b60008160008190555060019050919050565b60008160018190555060019050919050565b6000806000541415611987576119818585858561136c565b506119b0565b6000611995868686866117bb565b90506119a360015482611903565b506119ad81611957565b50505b60019050949350505050565b604051806101000160405280600073ffffffffffffffffffffffffffffffffffffffff168152602001600081526020016000815260200160001515815260200160008152602001600081526020016000815260200160008152509056fea265627a7a723158202d2d480974cebccfd503231ff855fcb5bbcc3463ece3bfcfac9a46618dcca1d064736f6c63430005100032",
  "source": "pragma solidity >=0.4.22;\n//pragma solidity 0.5.12;\n\n//Linkedlist implemented with mapping wrapped in a priority queue\n\ncontract LinkedListMapping{\n    \n\n    constructor() public \n    {\n        sellHead = 0;\n        sellTail = 0;\n        sellistCounter = 1;\n        buyHead = 0;\n        buyTail = 0;\n        buyListCounter = 1;\n        \n\n    }\n    \n\n    struct OrderStruct\n    {\n        address Sender;\n        uint256 Price;\n        uint256 Volume;     //The volume is 1 for now\n        bool Exists;\n        uint256 AuxPrice;   //This is not the real price of the order, it's the contcantenation of the real price and the counter which helps to sort the heap wehen there are ties\n        uint256 id;\n        uint256 next;\n        uint256 prev;\n    }\n\n    uint256 public sellHead;\n    uint256 public sellTail;\n    uint256 public sellistCounter;\n\n    uint256 public buyHead;\n    uint256 public buyTail;\n    uint256 public buyListCounter;\n  \n    mapping (uint256 => OrderStruct) public sellList;\n    mapping (uint256 => OrderStruct) public buyList;\n    \n    \n\n//******************** insertBid() function ********************//\n    //A new buy order will be added in its right position in the list\n    function insertBid(address sender, uint256 price, uint256 volume, uint256 auxprice) external \n    {\n       OrderStruct memory current = buyList[buyHead];\n        while (current.id !=0 && auxprice <= current.AuxPrice) //The linkedlist is sorted in an desceding order (decreasing)\n        {\n            current = buyList[current.next];\n            // we only exit this loop if we find the position to insert our data;\n        }  \n        if (current.prev == 0) //it means the current is equal to first and in that case we have to insert the node as a new head\n        {\n            buyListAddHead(sender, price, volume, auxprice);\n        }\n        else //the node next to the privious is no longer the current but it's our new node\n        {\n            buyListInsertAfter(current.prev, sender, price, volume, auxprice );           \n        }\n        \n       \n    \n    }    \n\n//******************** buyListInsertAfter() function ********************//\n    function buyListInsertAfter(uint256 prevId, address sender, uint256 price, uint256 volume, uint256 auxprice) internal returns (bool)\n    {\n        \n        if (prevId == buyTail) {\n            buyListAddTail(sender,price, volume, auxprice);\n        }\n        else{\n            OrderStruct memory prevOrder = buyList[prevId];\n            OrderStruct memory nextOrder = buyList[prevOrder.next];\n            uint256 newOrderId = buyListCreateObject(sender,price, volume, auxprice);\n            buyListLink(newOrderId, nextOrder.id);\n            buyListLink(prevOrder.id, newOrderId);  \n        }\n        return true;\n    }\n//******************** buyListInsertBefore() function ********************//\n    function buyListInsertBefore(uint256 nextId, address sender, uint256 price, uint256 volume, uint256 auxprice) internal returns (bool)\n    {\n        if (nextId == buyHead) {\n            buyListAddHead(sender,price, volume, auxprice);\n        }\n        else {\n            buyListInsertAfter(buyList[nextId].prev, sender, price, volume, auxprice);\n        }\n        return true;\n    }\n    \n//******************** buyListAddTail() function ********************//\n    function buyListAddTail(address sender, uint256 price, uint256 volume, uint256 auxprice) internal returns (bool)\n    {\n        \n        if (buyHead == 0) {\n            buyListAddHead(sender, price, volume, auxprice);\n        }\n        else {\n            uint256 ordertId = buyListCreateObject(sender, price, volume, auxprice);\n            buyListLink(buyTail, ordertId);\n            buyListSetTail(ordertId);\n        }\n        \n        return true;\n    }\n//******************** buyListSetTail() function ********************//\n    function buyListSetTail(uint256 id) internal returns(bool)\n    {\n        buyTail = id;\n        return true;\n    }\n//******************** buyListAddHead() function ********************//\n    function buyListAddHead(address sender, uint256 price, uint256 volume, uint256 auxprice) internal returns (uint256)\n    {\n        uint256 ordertId = buyListCreateObject(sender, price, volume, auxprice);\n        buyListLink(ordertId, buyHead);\n        buyListSetHead(ordertId);\n        if (buyTail == 0) buyListSetTail(ordertId);\n        return ordertId;\n    }\n//******************** buyListSetHead() function ********************//\n    function buyListSetHead(uint256 id) internal returns(bool)\n    {\n        buyHead = id;\n        return true;\n    }      \n    \n//******************** buyListCreateObject() function ********************//\n    function buyListCreateObject(address sender,uint256 price, uint256 volume, uint256 auxprice) internal returns (uint256)\n    {\n        uint256 newId = buyListCounter;\n        buyListCounter ++;\n        OrderStruct memory order = OrderStruct(sender, price, volume, true, auxprice, newId, 0, 0);\n        buyList[order.id] = order;\n        return order.id;\n    }\n//******************** buyListCreateObject() function ********************//\n    function buyListLink(uint256 prevId, uint256 nextId) internal\n    {\n        buyList[prevId].next = nextId;\n        buyList[nextId].prev = prevId;   \n    }\n//****************   buyListMaxPrice()  *********************//\n    //buyListMaxPrice function returns the price of the highest priority element (The highest bid)\n    function buyListMaxPrice() external  returns (uint256){\n        \n        require (buyHead != 0, 'buyList is empty!'); //throws exception if the maxheap (buyList) is empty\n        return (buyList[buyHead].Price);\n        \n    }\n//****************   buyListMaxSender()  *********************//\n    //buyListMaxSender function returns the sender of the highest priority element (The highest bid)\n    function buyListMaxSender() external  returns (address){\n        \n        require (buyHead != 0, 'buyList is empty!'); //throws exception if the maxheap (buyList) is empty\n        return (buyList[buyHead].Sender);\n        \n    }\n//******************** buyListMaxDelete() function ********************//    \n    //the highest priority item will be removed from the list and is returned by the function\n    function buyListMaxDelete() external returns (uint256, address)\n    {\n        \n        OrderStruct memory removeObject = buyList[buyHead];\n        uint256 _price =  removeObject.Price;\n        address _sender = removeObject.Sender;\n\n        if (buyTail == buyHead)\n        {\n            buyHead = 0;\n            buyTail = 0;\n            \n        }\n        else\n        {\n            buyHead = removeObject.next;\n            buyList[removeObject.next].prev = 0;\n            \n        }\n        \n        delete buyList[removeObject.id];\n        return (_price,_sender); \n        \n        \n\n\n        /* OrderStruct memory removeObject = buyList[buyHead];\n        buyListSetHead(removeObject.next);\n        buyList[removeObject.next].prev = 0;\n        \n        if (buyTail == buyHead)\n        {\n            buyListSetHead(0);\n            buyListSetTail(0);\n        }\n        else\n        {\n            buyListSetHead(removeObject.next);\n            buyList[removeObject.next].prev = 0;\n            buyListLink(removeObject.prev, removeObject.next);\n        }\n        uint256 _price =  removeObject.Price;\n        address _sender = removeObject.Sender;\n        delete buyList[removeObject.id];\n        return (_price,_sender); */\n    \n    }\n\n//****************   buyListisEmpty()  *********************//\n    //checks if the buyList is empty\n    function buyListisEmpty() external returns (bool){\n        \n        if (buyHead == 0)\n        {\n            return true;\n\n        }\n        else\n        {\n            return false;\n        }\n        \n    }\n\n//*******************  insertAsk () ***************************//\n    //A new buy order will be added in its right position in the list\n    function insertAsk (address sender, uint256 price, uint256 volume, uint256 auxprice) external \n    {\n        OrderStruct memory current = sellList[sellHead];\n        while (current.id !=0 && auxprice >= current.AuxPrice) //The linkedlist is sorted in an ascending order (increasing)\n        {\n        current = sellList[current.next];\n        // we only exit this loop if we find the position to insert our data;\n        }  \n        if (current.prev == 0) //it means the current is equal to first and in that case we have to insert the node as a new head\n        {\n            sellListAddHead(sender, price, volume, auxprice);\n        }\n        else //the node next to the privious is no longer the current but it's our new node\n        {\n        sellListInsertAfter(current.prev, sender, price, volume, auxprice);           \n        }    \n         \n    }\n//******************** sellListInsertAfter() function ********************//\n    function sellListInsertAfter(uint256 prevId, address sender, uint256 price, uint256 volume, uint256 auxprice) internal returns (bool)\n    {\n        if (prevId == sellTail) \n        {\n            sellListAddTail(sender, price, volume, auxprice);\n        }\n        else \n        {\n            OrderStruct memory prevOrder = sellList[prevId];\n            OrderStruct memory nextOrder = sellList[prevOrder.next];\n            uint256 newOrderId = sellListCreateObject(sender, price, volume, auxprice);\n            sellListLink(newOrderId, nextOrder.id);\n            sellListLink(prevOrder.id, newOrderId);  \n        }\n        return true;\n    }\n//******************** sellListInsertBefore() function ********************//\n    function sellListInsertBefore(uint256 nextId, address sender, uint256 price, uint256 volume, uint256 auxprice) internal returns (bool)\n    {\n        if (nextId == sellHead) {\n            sellListAddHead(sender, price, volume, auxprice);\n        }\n        else {\n            sellListInsertAfter(sellList[nextId].prev, sender, price, volume, auxprice);\n        }\n        return true;\n    }\n//******************** sellListAddTail() function ********************//\n    function sellListAddTail(address sender, uint256 price, uint256 volume, uint256 auxprice) internal returns (bool)\n    {\n        if (sellHead == 0) {\n            sellListAddHead(sender, price, volume, auxprice);\n        }\n        else {\n            uint256 ordertId = sellListCreateObject(sender, price, volume, auxprice);\n            sellListLink(sellTail, ordertId);\n            sellListSetTail(ordertId);\n        }\n        \n        return true;\n    }\n//******************** sellListSetTail() function ********************//\n    function sellListSetTail(uint256 id) internal returns(bool)\n    {\n        sellTail = id;\n        return true;\n    }\n//******************** sellListAddHead() function ********************//\n    function sellListAddHead(address sender,uint256 price, uint256 volume, uint256 auxprice) internal returns (uint256)\n    {\n        uint256 ordertId = sellListCreateObject(sender, price, volume, auxprice);\n        sellListLink(ordertId, sellHead);\n        sellListSetHead(ordertId);\n        if (sellTail == 0) sellListSetTail(ordertId);\n        return ordertId;\n    }\n//******************** sellListSetHead() function ********************//\n    function sellListSetHead(uint256 id) internal returns (bool)\n    {\n        sellHead = id;\n        return true;\n    }      \n//******************** sellListCreateObject() function ********************//\n    function sellListCreateObject(address sender, uint256 price, uint256 volume, uint256 auxprice) internal returns (uint256)\n    {\n        uint256 newId = sellistCounter;\n        sellistCounter ++;\n        OrderStruct memory order =  OrderStruct( sender , price, volume, true, auxprice, newId, 0, 0);\n        sellList[order.id] = order;\n        return order.id;\n    }\n//******************** sellListCreateObject() function ********************//\n    function sellListLink(uint256 prevId, uint256 nextId) internal returns (bool)\n    {\n        sellList[prevId].next = nextId;\n        sellList[nextId].prev = prevId;\n        return true;    \n    }\n//****************   sellListMaxPrice()  *********************//\n    //sellListMaxPrice function returns the price of the highest priority element (The Lowest ask)\n    function sellListMaxPrice() external  returns (uint256){\n\n        require(sellHead != 0,'sellList is empty!'); //throws exception if the minheap (sellList) is empty\n        return (sellList[sellHead].Price);\n    }\n//****************   sellListMaxSender()  *********************//\n    //sellListMaxSender function returns the sender of the highest priority element (The Lowest ask)\n    function sellListMaxSender() external  returns (address){\n\n        require(sellHead != 0,'sellList is empty!'); //throws exception if the minheap (sellList) is empty\n        return (sellList[sellHead].Sender);\n    }\n//*******************  sellListMaxDelete () ***************************//\n    //the highest priority item (the smallest ask) will be removed from the list and is returned by the function\n    function sellListMaxDelete() external returns (uint256, address)\n    {\n        \n\n        \n        OrderStruct memory removeObject = sellList[sellHead];\n        uint256 _price =  removeObject.Price;\n        address _sender = removeObject.Sender;\n\n        if (sellTail == sellHead)\n        {\n            sellHead = 0;\n            sellTail = 0;\n            \n        }\n        else\n        {\n            sellHead = removeObject.next;\n            sellList[removeObject.next].prev = 0;\n            \n        }\n        \n        delete sellList[removeObject.id];\n        return (_price,_sender); \n    \n\n        /* OrderStruct memory removeObject = sellList[sellHead];\n        if (sellTail == sellHead)\n        {\n            sellListSetHead(0);\n            sellListSetTail(0);\n        }\n        else\n        {\n            sellListSetHead(removeObject.next);\n            sellList[removeObject.next].prev = 0;\n        }\n        uint256 _price =  removeObject.Price;\n        address _sender =  removeObject.Sender;\n        delete sellList[removeObject.id];\n        return (_price,_sender); */\n    }\n\n        \n    \n//****************   sellListisEmpty()  *********************//\n    //checks if the sellList is empty\n    function sellListisEmpty() external returns (bool){\n        \n        if (sellHead == 0)\n        {\n            return true;\n\n        }\n        else\n        {\n            return false;\n        }\n        \n    }\n\n//****************   deletePQ()  *********************//\n    /* function deletePQ (address payable callmarket) external {\n        selfdestruct(callmarket);\n    } */\n\n\n}",
  "sourcePath": "/home/mahsa/ProjectRepo/2020-Orderbook/Code/New-Truffle/contracts/CallMarket/Priority_Queues/LinkedListMapping.sol",
  "compiler": {
    "name": "solc",
    "version": "0.5.16+commit.9c3226ce.Emscripten.clang"
  },
  "schemaVersion": "3.2.5",
  "updatedAt": "2020-09-15T15:37:50.192Z",
  "devdoc": {
    "methods": {}
  },
  "userdoc": {
    "methods": {}
  }
}