{
  "contractName": "PQ2",
  "abi": [
    {
      "constant": true,
      "inputs": [],
      "name": "Index",
      "outputs": [
        {
          "internalType": "uint256",
          "name": "",
          "type": "uint256"
        }
      ],
      "payable": false,
      "stateMutability": "view",
      "type": "function"
    },
    {
      "constant": false,
      "inputs": [
        {
          "internalType": "uint256",
          "name": "_number",
          "type": "uint256"
        }
      ],
      "name": "Enqueue",
      "outputs": [
        {
          "internalType": "bool",
          "name": "",
          "type": "bool"
        }
      ],
      "payable": false,
      "stateMutability": "nonpayable",
      "type": "function"
    },
    {
      "constant": false,
      "inputs": [],
      "name": "RemoveMax",
      "outputs": [
        {
          "internalType": "uint256",
          "name": "",
          "type": "uint256"
        }
      ],
      "payable": false,
      "stateMutability": "nonpayable",
      "type": "function"
    },
    {
      "constant": false,
      "inputs": [],
      "name": "Dequeue",
      "outputs": [
        {
          "internalType": "uint256",
          "name": "",
          "type": "uint256"
        }
      ],
      "payable": false,
      "stateMutability": "nonpayable",
      "type": "function"
    },
    {
      "constant": false,
      "inputs": [],
      "name": "Peek",
      "outputs": [
        {
          "internalType": "uint256",
          "name": "",
          "type": "uint256"
        }
      ],
      "payable": false,
      "stateMutability": "nonpayable",
      "type": "function"
    },
    {
      "constant": false,
      "inputs": [],
      "name": "isEmpty",
      "outputs": [
        {
          "internalType": "bool",
          "name": "",
          "type": "bool"
        }
      ],
      "payable": false,
      "stateMutability": "nonpayable",
      "type": "function"
    }
  ],
  "bytecode": "0x608060405234801561001057600080fd5b506106fe806100206000396000f3fe608060405234801561001057600080fd5b50600436106100625760003560e01c80630c4a515c1461006757806327702186146100ad5780635ace4d96146100cb578063681fe70c146100e95780636dd5fa7b1461010b578063b64456a714610129575b600080fd5b6100936004803603602081101561007d57600080fd5b8101908080359060200190929190505050610147565b604051808215151515815260200191505060405180910390f35b6100b56101e2565b6040518082815260200191505060405180910390f35b6100d3610209565b6040518082815260200191505060405180910390f35b6100f161020f565b604051808215151515815260200191505060405180910390f35b61011361023c565b6040518082815260200191505060405180910390f35b6101316102de565b6040518082815260200191505060405180910390f35b60006101516106b6565b60405180602001604052808481525090506000600160006032811061017257fe5b0160000154141561019f5780600160006032811061018c57fe5b01600082015181600001559050506101d8565b6000808154809291906001019190505550806001600054603281106101c057fe5b01600082015181600001559050506101d66104ad565b505b6001915050919050565b60005b600115156101f161020f565b151514610206576102006102de565b506101e5565b90565b60005481565b600080600160006032811061022057fe5b016000015414156102345760019050610239565b600090505b90565b600080600160006032811061024d57fe5b016000015414156102c6576040517f08c379a000000000000000000000000000000000000000000000000000000000815260040180806020018281038252600e8152602001807f4c69737420697320656d7074792100000000000000000000000000000000000081525060200191505060405180910390fd5b60016000603281106102d457fe5b0160000154905090565b60008060016000603281106102ef57fe5b01600001541415610368576040517f08c379a000000000000000000000000000000000000000000000000000000000815260040180806020018281038252600e8152602001807f4c69737420697320656d7074792100000000000000000000000000000000000081525060200191505060405180910390fd5b6000805414156103ac576000600160006032811061038257fe5b01600001549050600160006032811061039757fe5b016000808201600090555050809150506104aa565b6001600054141561042c57600060016000603281106103c757fe5b01600001549050600180603281106103db57fe5b0160016000603281106103ea57fe5b01600082015481600001559050506001806032811061040557fe5b016000808201600090555050600080815480929190600190039190505550809150506104aa565b6000600160006032811061043c57fe5b0160000154905060016000546032811061045257fe5b01600160006032811061046157fe5b016000820154816000015590505060016000546032811061047e57fe5b0160008082016000905550506000808154809291906001900391905055506104a461058a565b50809150505b90565b60008060005490505b6000811115610582576000600260018303816104ce57fe5b049050600181603281106104de57fe5b0160000154600183603281106104f057fe5b01600001541115610576576105036106b6565b6001836032811061051057fe5b0160405180602001604052908160008201548152505090506001826032811061053557fe5b016001846032811061054357fe5b0160008201548160000155905050806001836032811061055f57fe5b01600082015181600001559050508192505061057c565b50610582565b506104b6565b600191505090565b6000806000905060006001826002020190505b60005481116106ad57600081905060006001830190506000548110156105f157600183603281106105ca57fe5b0160000154600182603281106105dc57fe5b016000015411156105f05781806001019250505b5b600182603281106105fe57fe5b01600001546001856032811061061057fe5b0160000154101561069f576106236106b6565b6001856032811061063057fe5b0160405180602001604052908160008201548152505090506001836032811061065557fe5b016001866032811061066357fe5b0160008201548160000155905050806001846032811061067f57fe5b0160008201518160000155905050829450600185600202019350506106a6565b50506106ad565b505061059d565b60019250505090565b604051806020016040528060008152509056fea265627a7a7231582019317515235eb4d533244a86be5563990029a6e9b5375623345bd10b10f7258464736f6c63430005100032",
  "source": "pragma solidity >=0.4.22;\n//pragma experimental ABIEncoderV2;\n\n//Heap with static array wrapped in a priority queue\n\ncontract PQ2{\n    \n    //uint256[50] MaxHeap;         //The array that contains integers in (descending (decremental)) order, we always want the highest nuber (maxheap)\n    struct OrderStruct \n    {\n        uint256 Number;\n\n        \n    }\n    uint256 public Index;\n    OrderStruct[50] MaxHeap;\n    \n\n//*******************  Enqueue() ***************************//\n    //the new item will be added to the end of the array list\n    //then heapified up with a call to heapifyUp method\n    function Enqueue (uint256 _number) public returns (bool)\n    {\n        OrderStruct memory neworder = OrderStruct(_number);\n        \n        if (MaxHeap[0].Number == 0)\n        {\n            MaxHeap[0] = neworder; \n        }\n       else{\n            Index ++;\n            MaxHeap[Index] = neworder;\n            maxheap_heapifyUp ();\n        }    \n        return true;\n    }    \n//*******************  maxheap_heapifyUp () ***************************//\n    //this function is called everytime we insert a new element to the end of the array \n    //now the heap has to be sorted again\n    function maxheap_heapifyUp () internal returns (bool) {\n\n        uint256 k = Index;                   //k is set to be the last entry of the array (also heap) which is the element that's just added and has to be moved up\n        while (k > 0){                                  //while we havent reached to the top of the heap\n            uint256 p = (k-1)/2;                           //we need to compute the parent of this last element which is p = (k-1)/2\n            if (MaxHeap[k].Number > MaxHeap[p].Number) //if the element is greater than its parent\n            {   \n                OrderStruct memory temp = MaxHeap[k];    //swap the element at index k with its parent\n                MaxHeap[k] = MaxHeap[p];\n                MaxHeap[p] = temp;\n                k = p;                                  //k moves up one level\n            }\n            else {break;}                               //if not the break statement exits the loop (it continues until no element index k is not greater than its parent)\n        }\n    \n        return true;\n    }\n\n//******************** RemoveMax() function ********************//    \n    //the highest priority item will be removed from the list and is returned by the function\n    //then the heap is reordered uising the heapifyDown method\n    function RemoveMax() public returns (uint256) \n    {   \n        require (MaxHeap[0].Number != 0, 'List is empty!');   //the delete function throws exception if the list is empty\n        \n        \n        if (Index == 0) \n        {   \n            uint256 _number =  MaxHeap[0].Number;\n            delete MaxHeap[0];\n            return(_number);\n\n        }                           \n        if (Index == 1)  //if the heap has two items\n        {                                     \n            uint256 _number =  MaxHeap[0].Number;\n                            \n            MaxHeap[0] = MaxHeap[1]; //the first element of the heap is removed \n            delete MaxHeap[1];\n            Index--;\n            return(_number);\n            \n       \n        }\n        //if neither of these conditions are true, then there are at least 2 items in the heap and deletion proceeds\n        uint256 _number =  MaxHeap[0].Number;\n        MaxHeap[0] = MaxHeap[Index]; //the last elementof the heap is removed and written into the first position\n        delete MaxHeap[Index];\n        Index--;\n        maxheap_heapifyDown(); //now the siftdown is called\n        return(_number);\n    }\n//******************** Dequeue() function ********************//    \n    //Emptying the list by iterating over it and deleting the highest priority number in each round (similar to match funtion in the call market)\n    function Dequeue() public returns (uint256) \n    {\n        while (isEmpty() != true)\n        {  \n            RemoveMax();\n        }\n    }\n\n//*******************  maxheap_heapifyDown () ***************************//\n    //when we want to remove an element from the heap we remove the root of the heap and add the last item\n    //to the root and reorder the heap again\n    function maxheap_heapifyDown () internal \n \n    returns (bool)\n    {\n        uint256 k =0;\n        uint256 leftchild = 2*k + 1;\n        while (leftchild <= Index )\n        {                                   //as long as the left child is within the array that heap is stored in\n            uint256 max = leftchild;\n            uint256 rightchild = leftchild + 1;                                     //rightchild = 2k+2\n\n            if (rightchild < Index )                                       //if there is a rightchild\n            {\n                if (MaxHeap[rightchild].Number > MaxHeap[leftchild].Number)    //then the right child and left child are compared\n                {\n                    max++;                                                       //now max is set to rightchild, otherwise max remains to be the leftchild\n                }\n            }\n\n        if (MaxHeap[k].Number < MaxHeap[max].Number)                        //compares the k item with the max item and if k is smaller than its greatest children they are swapped\n        {\n            \n            OrderStruct memory temp = MaxHeap[k];    //swap the element at index k with its parent\n            MaxHeap[k] = MaxHeap[max];\n            MaxHeap[max] = temp;\n            k = max;                                                         //k is set to max\n            leftchild =2*k + 1;                                              //l is recompuetd in preparation for the next iteration\n        }\n        else{                                                               //if the k item is not smaller than the max item, heapifyDown should stop\n            break;\n            }\n        }\n        return true;\n    }\n    \n//****************   Peek()  *********************//\n    //Retrieves, but does not remove, the head of this queue\n    function Peek() public  returns (uint256){\n        \n        require (MaxHeap[0].Number != 0, 'List is empty!'); //throws exception if the maxheap (BuyList) is empty\n        return (MaxHeap[0].Number);\n        \n    }\n//****************  isEmpty()  *********************//\n    //checks if the Buylist is empty or not \n    function isEmpty() public returns (bool){\n        \n        if (MaxHeap[0].Number == 0)\n        {\n            return true;\n\n        }\n        else\n        {\n            return false;\n        }\n        \n    }\n\n\n\n\n}",
  "sourcePath": "/home/mahsa/ProjectRepo/2020-Orderbook/Code/New-Truffle/contracts/PQs_for_Unit_Testings/PQ2.sol",
  "compiler": {
    "name": "solc",
    "version": "0.5.16+commit.9c3226ce.Emscripten.clang"
  },
  "schemaVersion": "3.2.5",
  "updatedAt": "2020-09-15T15:37:55.400Z",
  "networkType": "ethereum",
  "devdoc": {
    "methods": {}
  },
  "userdoc": {
    "methods": {}
  }
}