{
  "contractName": "SellList",
  "abi": [
    {
      "inputs": [
        {
          "internalType": "address",
          "name": "orderSender",
          "type": "address"
        },
        {
          "internalType": "uint256",
          "name": "orderPrice",
          "type": "uint256"
        },
        {
          "internalType": "uint256",
          "name": "orderVolume",
          "type": "uint256"
        },
        {
          "internalType": "bool",
          "name": "ifExists",
          "type": "bool"
        },
        {
          "internalType": "uint256",
          "name": "auxprice",
          "type": "uint256"
        }
      ],
      "payable": false,
      "stateMutability": "nonpayable",
      "type": "constructor"
    },
    {
      "constant": true,
      "inputs": [],
      "name": "auxPrice",
      "outputs": [
        {
          "internalType": "uint256",
          "name": "",
          "type": "uint256"
        }
      ],
      "payable": false,
      "stateMutability": "view",
      "type": "function"
    },
    {
      "constant": true,
      "inputs": [],
      "name": "exists",
      "outputs": [
        {
          "internalType": "bool",
          "name": "",
          "type": "bool"
        }
      ],
      "payable": false,
      "stateMutability": "view",
      "type": "function"
    },
    {
      "constant": true,
      "inputs": [],
      "name": "next",
      "outputs": [
        {
          "internalType": "contract SellList",
          "name": "",
          "type": "address"
        }
      ],
      "payable": false,
      "stateMutability": "view",
      "type": "function"
    },
    {
      "constant": true,
      "inputs": [],
      "name": "price",
      "outputs": [
        {
          "internalType": "uint256",
          "name": "",
          "type": "uint256"
        }
      ],
      "payable": false,
      "stateMutability": "view",
      "type": "function"
    },
    {
      "constant": true,
      "inputs": [],
      "name": "sender",
      "outputs": [
        {
          "internalType": "address",
          "name": "",
          "type": "address"
        }
      ],
      "payable": false,
      "stateMutability": "view",
      "type": "function"
    },
    {
      "constant": true,
      "inputs": [],
      "name": "volume",
      "outputs": [
        {
          "internalType": "uint256",
          "name": "",
          "type": "uint256"
        }
      ],
      "payable": false,
      "stateMutability": "view",
      "type": "function"
    },
    {
      "constant": false,
      "inputs": [
        {
          "internalType": "contract SellList",
          "name": "askorder",
          "type": "address"
        }
      ],
      "name": "addNew",
      "outputs": [],
      "payable": false,
      "stateMutability": "nonpayable",
      "type": "function"
    },
    {
      "constant": false,
      "inputs": [
        {
          "internalType": "address payable",
          "name": "callmarket",
          "type": "address"
        },
        {
          "internalType": "address",
          "name": "ownerContract",
          "type": "address"
        }
      ],
      "name": "deletenode",
      "outputs": [],
      "payable": false,
      "stateMutability": "nonpayable",
      "type": "function"
    }
  ],
  "bytecode": "0x608060405234801561001057600080fd5b5060405161054d38038061054d833981810160405260a081101561003357600080fd5b810190808051906020019092919080519060200190929190805190602001909291908051906020019092919080519060200190929190505050600160009054906101000a900473ffffffffffffffffffffffffffffffffffffffff16600160006101000a81548173ffffffffffffffffffffffffffffffffffffffff021916908373ffffffffffffffffffffffffffffffffffffffff160217905550600254600281905550600354600381905550600460009054906101000a900460ff16600460006101000a81548160ff0219169083151502179055508060058190555060008060006101000a81548173ffffffffffffffffffffffffffffffffffffffff021916908373ffffffffffffffffffffffffffffffffffffffff16021790555050505050506103e7806101666000396000f3fe608060405234801561001057600080fd5b50600436106100885760003560e01c8063a035b1fe1161005b578063a035b1fe14610161578063c618a1e41461017f578063d7ef453f1461019d578063f9f52dea146101e157610088565b8063267c4ae41461008d5780634c8fe526146100af5780635a5339f1146100f957806367e404ce14610117575b600080fd5b610095610245565b604051808215151515815260200191505060405180910390f35b6100b7610258565b604051808273ffffffffffffffffffffffffffffffffffffffff1673ffffffffffffffffffffffffffffffffffffffff16815260200191505060405180910390f35b61010161027d565b6040518082815260200191505060405180910390f35b61011f610283565b604051808273ffffffffffffffffffffffffffffffffffffffff1673ffffffffffffffffffffffffffffffffffffffff16815260200191505060405180910390f35b6101696102a9565b6040518082815260200191505060405180910390f35b6101876102af565b6040518082815260200191505060405180910390f35b6101df600480360360208110156101b357600080fd5b81019080803573ffffffffffffffffffffffffffffffffffffffff1690602001909291905050506102b5565b005b610243600480360360408110156101f757600080fd5b81019080803573ffffffffffffffffffffffffffffffffffffffff169060200190929190803573ffffffffffffffffffffffffffffffffffffffff1690602001909291905050506102f8565b005b600460009054906101000a900460ff1681565b6000809054906101000a900473ffffffffffffffffffffffffffffffffffffffff1681565b60055481565b600160009054906101000a900473ffffffffffffffffffffffffffffffffffffffff1681565b60025481565b60035481565b806000806101000a81548173ffffffffffffffffffffffffffffffffffffffff021916908373ffffffffffffffffffffffffffffffffffffffff16021790555050565b8073ffffffffffffffffffffffffffffffffffffffff163373ffffffffffffffffffffffffffffffffffffffff1614610399576040517f08c379a00000000000000000000000000000000000000000000000000000000081526004018080602001828103825260138152602001807f53686f756c6420626520746865204f776e65720000000000000000000000000081525060200191505060405180910390fd5b8173ffffffffffffffffffffffffffffffffffffffff16fffea265627a7a72315820c31a75e46abe41ef5fcd8b4b24b8f52a307373370fa635950d921eb3b353fbbd64736f6c63430005100032",
  "source": "pragma solidity >=0.4.22;\n//pragma solidity 0.5.12;\n\n//Linkedlist wrapped in a priority queue\n\ncontract LinkedList{\n    \n    SellList public sellFirst;\n    BuyList public buyFirst;\n    SellList internal selltemp;\n    BuyList internal buytemp;\n    address payable callmarket;\n    address internal owner;\n    \n\n    constructor (address _callmarket) public {\n        callmarket = address(uint160(_callmarket));\n        sellFirst = SellList(0);\n        buyFirst = BuyList(0);\n        owner = address(this);\n    }\n//******************** insertBid() function ********************//\n    //A new buy order will be added in its right position in the list\n    function insertBid(address sender, uint256 price, uint256 volume, uint256 auxprice) external \n    {\n        BuyList newitem = new BuyList (sender, price , volume, true, auxprice);\n        BuyList current = buyFirst; \n        BuyList previous = BuyList(0);\n        \n        //we iterate through our list with 2 conditions:\n        while (current != BuyList(0) && auxprice <= current.auxPrice()) //The linkedlist is sorted in an descending order (descreasing)\n        {\n            previous = current;\n            current = current.next();\n            // we only exit this loop if we find the position to insert our data;\n        } \n        //now if we have to check if we have to insert the node to the begining of the list:\n        if (previous == BuyList(0)) //it means the current is equal to first and in that case we have to insert the node as a new head\n        {\n            buyFirst = newitem; \n        }\n        else //the node next to the privious is no longer the current but it's our new node\n        {\n            previous.addNew(newitem);\n        }\n        \n        //and in all cases regardless of if it's a first node or not, we must say we have to say the node next to our new node is current\n        \n        newitem.addNew(current);\n        \n    }\n//******************** buyListMaxDelete() function ********************//    \n    //the highest priority item will be removed from the list and is returned by the function\n    function buyListMaxDelete() external returns(uint256, address) \n    {\n        require (buyFirst != BuyList(0), 'BuyList is empty!'); //throws exception if the maxheap (BuyList) is empty\n        buytemp = buyFirst;\n        buyFirst = buytemp.next();\n        buytemp.deletenode(callmarket, owner);\n        //buyFirst.deletenode(callmarket);\n        //buyFirst = buytemp.next();\n        return (buytemp.price(), buytemp.sender());\n    }\n//****************   buyListMaxPrice()  *********************//\n    //buyListMaxPrice function returns the price of the highest priority element (The highest bid)\n    function buyListMaxPrice() external  returns (uint256){\n        \n        require (buyFirst != BuyList(0), 'BuyList is empty!'); //throws exception if the maxheap (BuyList) is empty\n        return (buyFirst.price());\n        \n    }\n//****************   buyListMaxSender()  *********************//\n    //buyListMaxSender function returns the sender of the highest priority element (The highest bid)\n    function buyListMaxSender() external  returns (address){\n        \n        require (buyFirst != BuyList(0), 'BuyList is empty!'); //throws exception if the maxheap (BuyList) is empty\n        return (buyFirst.sender());\n        \n    }\n//****************   buyListisEmpty()  *********************//\n    //checks if the BuyList is empty \n    function buyListisEmpty() external returns (bool){\n        \n        if (buyFirst == BuyList(0))\n        {\n            return true;\n\n        }\n        else\n        {\n            return false;\n        }\n        \n    }\n\n//*******************  insertAsk() ***************************//\n    //A new sell order will be added in its right position in the list\n    function insertAsk (address sender, uint256 price, uint256 volume, uint256 auxprice) external \n    {\n        SellList newitem = new SellList (sender, price , volume, true, auxprice);\n        SellList current = sellFirst; \n        SellList previous = SellList(0);\n        \n        //we iterate through our list with 2 conditions:\n        while (current != SellList(0) && auxprice >= current.auxPrice()) //The linkedlist is sorted in an ascending order (increasing)\n        {\n            previous = current;\n            current = current.next();\n            // we only exit this loop if we find the position to insert our data;\n        } \n        //now if we have to check if we have to insert the node to the begining of the list:\n        if (previous == SellList(0)) //it means the current is equal to first and in that case we have to insert the node as a new head\n        {\n            sellFirst = newitem; \n        }\n        else //the node next to the privious is no longer the current but it's our new node\n        {\n            previous.addNew(newitem);\n        }\n        \n        //and in all cases regardless of if it's a first node or not, we must say we have to say the node next to our new node is current\n        \n        newitem.addNew(current);\n    }  \n//*******************  sellListMaxDelete () ***************************//\n    //the highest priority item (the smallest ask) will be removed from the list and is returned by the function\n    function sellListMaxDelete() external returns (uint256, address)\n    {\n        require(sellFirst != SellList(0),'SellList is empty!'); //throws exception if the minheap (SellList) is empty\n        selltemp = sellFirst;\n        sellFirst = selltemp.next();\n        selltemp.deletenode(callmarket, owner);\n        //sellFirst.deletenode(callmarket);\n        //sellFirst = selltemp.next();\n        return (selltemp.price(), selltemp.sender());\n    }  \n//****************   sellListMaxPrice()  *********************//\n    //sellListMaxPrice function returns the price of the highest priority element (The Lowest ask)\n    function sellListMaxPrice() external  returns (uint256){\n\n        require(sellFirst != SellList(0),'SellList is empty!'); //throws exception if the minheap (SellList) is empty\n        return (sellFirst.price());\n    }\n//****************   sellListMaxSender()  *********************//\n    //sellListMaxSender function returns the sender of the highest priority element (The Lowest ask)\n    function sellListMaxSender() external  returns (address){\n\n        require(sellFirst != SellList(0),'SellList is empty!'); //throws exception if the minheap (SellList) is empty\n        return (sellFirst.sender());\n    }\n//****************   sellListisEmpty()  *********************//\n    //checks if the SellList is empty\n    function sellListisEmpty() external returns (bool){\n        \n        if (sellFirst == SellList(0))\n        {\n            return true;\n\n        }\n        else\n        {\n            return false;\n        }\n        \n    }\n\n}\n//*****************************************************************//\n//*******************  SellList Contract  ************************//\n//*****************************************************************//\ncontract SellList {\n    SellList public next;\n    address public sender;\n    uint256 public price;\n    uint256 public volume;\n    bool public exists;\n    uint256 public auxPrice;\n    \n    constructor(address orderSender, uint256 orderPrice, uint256 orderVolume, bool ifExists, uint256 auxprice)  public {\n        \n        sender = sender;\n        price = price;\n        volume = volume;\n        exists = exists;\n        auxPrice = auxprice;\n        next = SellList(0);\n    }\n\n    function addNew(SellList askorder) external {\n        \n        next = askorder;\n       \n    }\n   \n    function deletenode (address payable callmarket,address ownerContract) external {\n        require (msg.sender == ownerContract,\"Should be the Owner\"  );\n        selfdestruct(callmarket);\n        \n    }\n    \n    \n}   \n\n//*****************************************************************//\n//*******************  BuyList Contract  ************************//\n//*****************************************************************//    \n    \ncontract BuyList {\n    BuyList public next;\n    address public sender;\n    uint256 public price;\n    uint256 public volume;\n    bool public exists;\n    uint256 public auxPrice;\n    \n    constructor(address orderSender, uint256 orderPrice, uint256 orderVolume, bool ifExists, uint256 auxprice) public {\n        \n        sender = orderSender;\n        price = orderPrice;\n        volume = orderVolume;\n        exists = ifExists;\n        auxPrice = auxprice;\n        next = BuyList(0);\n    }\n\n    function addNew(BuyList bidorder) external {\n        \n        next = bidorder;\n       \n    }\n\n    function deletenode (address payable callmarket, address ownerContract) external {\n        require (msg.sender == ownerContract,\"Should be the Owner\" );\n        selfdestruct(callmarket);\n    }\n} ",
  "sourcePath": "/home/mahsa/ProjectRepo/2020-Orderbook/Code/New-Truffle/contracts/CallMarket/Priority_Queues/LinkedList.sol",
  "compiler": {
    "name": "solc",
    "version": "0.5.16+commit.9c3226ce.Emscripten.clang"
  },
  "schemaVersion": "3.2.5",
  "updatedAt": "2020-09-15T15:37:50.179Z",
  "devdoc": {
    "methods": {}
  },
  "userdoc": {
    "methods": {}
  }
}