{
  "contractName": "CallMarket",
  "abi": [
    {
      "constant": true,
      "inputs": [],
      "name": "biddingPeriod",
      "outputs": [
        {
          "internalType": "uint256",
          "name": "",
          "type": "uint256"
        }
      ],
      "payable": false,
      "stateMutability": "view",
      "type": "function"
    },
    {
      "constant": true,
      "inputs": [],
      "name": "buylistCounter",
      "outputs": [
        {
          "internalType": "uint256",
          "name": "",
          "type": "uint256"
        }
      ],
      "payable": false,
      "stateMutability": "view",
      "type": "function"
    },
    {
      "constant": true,
      "inputs": [],
      "name": "callmarket",
      "outputs": [
        {
          "internalType": "address payable",
          "name": "",
          "type": "address"
        }
      ],
      "payable": false,
      "stateMutability": "view",
      "type": "function"
    },
    {
      "constant": true,
      "inputs": [],
      "name": "creationTime",
      "outputs": [
        {
          "internalType": "uint256",
          "name": "",
          "type": "uint256"
        }
      ],
      "payable": false,
      "stateMutability": "view",
      "type": "function"
    },
    {
      "constant": true,
      "inputs": [],
      "name": "numOrders",
      "outputs": [
        {
          "internalType": "uint256",
          "name": "",
          "type": "uint256"
        }
      ],
      "payable": false,
      "stateMutability": "view",
      "type": "function"
    },
    {
      "constant": true,
      "inputs": [],
      "name": "priorityQueue",
      "outputs": [
        {
          "internalType": "contract HeapDynamicArray",
          "name": "",
          "type": "address"
        }
      ],
      "payable": false,
      "stateMutability": "view",
      "type": "function"
    },
    {
      "constant": true,
      "inputs": [],
      "name": "sellistCounter",
      "outputs": [
        {
          "internalType": "uint256",
          "name": "",
          "type": "uint256"
        }
      ],
      "payable": false,
      "stateMutability": "view",
      "type": "function"
    },
    {
      "constant": true,
      "inputs": [
        {
          "internalType": "address",
          "name": "",
          "type": "address"
        }
      ],
      "name": "totalEtherBalance",
      "outputs": [
        {
          "internalType": "uint256",
          "name": "",
          "type": "uint256"
        }
      ],
      "payable": false,
      "stateMutability": "view",
      "type": "function"
    },
    {
      "constant": true,
      "inputs": [
        {
          "internalType": "address",
          "name": "",
          "type": "address"
        }
      ],
      "name": "totalTokenBalance",
      "outputs": [
        {
          "internalType": "uint256",
          "name": "",
          "type": "uint256"
        }
      ],
      "payable": false,
      "stateMutability": "view",
      "type": "function"
    },
    {
      "constant": true,
      "inputs": [
        {
          "internalType": "uint256",
          "name": "",
          "type": "uint256"
        }
      ],
      "name": "unavailableEtherArray",
      "outputs": [
        {
          "internalType": "address",
          "name": "",
          "type": "address"
        }
      ],
      "payable": false,
      "stateMutability": "view",
      "type": "function"
    },
    {
      "constant": true,
      "inputs": [
        {
          "internalType": "address",
          "name": "",
          "type": "address"
        }
      ],
      "name": "unavailableEtherBalance",
      "outputs": [
        {
          "internalType": "uint256",
          "name": "",
          "type": "uint256"
        }
      ],
      "payable": false,
      "stateMutability": "view",
      "type": "function"
    },
    {
      "constant": true,
      "inputs": [
        {
          "internalType": "uint256",
          "name": "",
          "type": "uint256"
        }
      ],
      "name": "unavailableTokenArray",
      "outputs": [
        {
          "internalType": "address",
          "name": "",
          "type": "address"
        }
      ],
      "payable": false,
      "stateMutability": "view",
      "type": "function"
    },
    {
      "constant": true,
      "inputs": [
        {
          "internalType": "address",
          "name": "",
          "type": "address"
        }
      ],
      "name": "unavailableTokenBalance",
      "outputs": [
        {
          "internalType": "uint256",
          "name": "",
          "type": "uint256"
        }
      ],
      "payable": false,
      "stateMutability": "view",
      "type": "function"
    },
    {
      "constant": false,
      "inputs": [
        {
          "internalType": "address",
          "name": "token",
          "type": "address"
        },
        {
          "internalType": "uint256",
          "name": "numofTokens",
          "type": "uint256"
        }
      ],
      "name": "depositToken",
      "outputs": [
        {
          "internalType": "bool",
          "name": "",
          "type": "bool"
        }
      ],
      "payable": false,
      "stateMutability": "nonpayable",
      "type": "function"
    },
    {
      "constant": false,
      "inputs": [
        {
          "internalType": "uint256",
          "name": "numofEthers",
          "type": "uint256"
        }
      ],
      "name": "depositEther",
      "outputs": [
        {
          "internalType": "bool",
          "name": "",
          "type": "bool"
        }
      ],
      "payable": true,
      "stateMutability": "payable",
      "type": "function"
    },
    {
      "constant": false,
      "inputs": [],
      "name": "openMarket",
      "outputs": [
        {
          "internalType": "bool",
          "name": "",
          "type": "bool"
        }
      ],
      "payable": false,
      "stateMutability": "nonpayable",
      "type": "function"
    },
    {
      "constant": false,
      "inputs": [
        {
          "internalType": "uint256",
          "name": "price",
          "type": "uint256"
        },
        {
          "internalType": "uint256",
          "name": "volume",
          "type": "uint256"
        }
      ],
      "name": "submitBid",
      "outputs": [
        {
          "internalType": "bool",
          "name": "",
          "type": "bool"
        }
      ],
      "payable": false,
      "stateMutability": "nonpayable",
      "type": "function"
    },
    {
      "constant": false,
      "inputs": [
        {
          "internalType": "uint256",
          "name": "price",
          "type": "uint256"
        },
        {
          "internalType": "uint256",
          "name": "volume",
          "type": "uint256"
        }
      ],
      "name": "submitAsk",
      "outputs": [
        {
          "internalType": "bool",
          "name": "",
          "type": "bool"
        }
      ],
      "payable": false,
      "stateMutability": "nonpayable",
      "type": "function"
    },
    {
      "constant": false,
      "inputs": [],
      "name": "closeMarket",
      "outputs": [
        {
          "internalType": "bool",
          "name": "",
          "type": "bool"
        }
      ],
      "payable": false,
      "stateMutability": "nonpayable",
      "type": "function"
    },
    {
      "constant": false,
      "inputs": [],
      "name": "matchOrders",
      "outputs": [
        {
          "internalType": "bool",
          "name": "",
          "type": "bool"
        }
      ],
      "payable": false,
      "stateMutability": "nonpayable",
      "type": "function"
    },
    {
      "constant": false,
      "inputs": [
        {
          "internalType": "address",
          "name": "token",
          "type": "address"
        },
        {
          "internalType": "uint256",
          "name": "numofTokens",
          "type": "uint256"
        }
      ],
      "name": "claimTokens",
      "outputs": [
        {
          "internalType": "bool",
          "name": "",
          "type": "bool"
        }
      ],
      "payable": false,
      "stateMutability": "nonpayable",
      "type": "function"
    },
    {
      "constant": false,
      "inputs": [
        {
          "internalType": "uint256",
          "name": "numofEthers",
          "type": "uint256"
        }
      ],
      "name": "claimEther",
      "outputs": [
        {
          "internalType": "bool",
          "name": "",
          "type": "bool"
        }
      ],
      "payable": false,
      "stateMutability": "nonpayable",
      "type": "function"
    }
  ],
  "bytecode": "0x6080604052604051610010906100bf565b604051809103906000f08015801561002c573d6000803e3d6000fd5b506000806101000a81548173ffffffffffffffffffffffffffffffffffffffff021916908373ffffffffffffffffffffffffffffffffffffffff16021790555030600160006101000a81548173ffffffffffffffffffffffffffffffffffffffff021916908373ffffffffffffffffffffffffffffffffffffffff1602179055503480156100b957600080fd5b506100cc565b61155a80611b9283390190565b611ab7806100db6000396000f3fe6080604052600436106101355760003560e01c80637ee68546116100ab578063c511ed5e1161006f578063c511ed5e146105fd578063c9ed9d871461062c578063d8270dce146106a7578063f5465992146106d2578063fa43d13d14610737578063fe417fa51461079c57610135565b80637ee685461461047c5780639621dc16146104ab578063a96ca50814610510578063b821da1b1461053b578063c1b617ca1461059857610135565b806345d53788116100fd57806345d53788146102f457806349407a441461031f5780635f8909bd1461037257806367f7e81a1461039d57806369abe5ac146103f45780637288a28a1461041f57610135565b80630770ed761461013a5780630854a4ea1461019157806326839f171461020c578063338b5dea146102525780633606f5b9146102c5575b600080fd5b34801561014657600080fd5b5061014f61080f565b604051808273ffffffffffffffffffffffffffffffffffffffff1673ffffffffffffffffffffffffffffffffffffffff16815260200191505060405180910390f35b34801561019d57600080fd5b506101ca600480360360208110156101b457600080fd5b8101908080359060200190929190505050610834565b604051808273ffffffffffffffffffffffffffffffffffffffff1673ffffffffffffffffffffffffffffffffffffffff16815260200191505060405180910390f35b6102386004803603602081101561022257600080fd5b8101908080359060200190929190505050610870565b604051808215151515815260200191505060405180910390f35b34801561025e57600080fd5b506102ab6004803603604081101561027557600080fd5b81019080803573ffffffffffffffffffffffffffffffffffffffff169060200190929190803590602001909291905050506108c8565b604051808215151515815260200191505060405180910390f35b3480156102d157600080fd5b506102da610a18565b604051808215151515815260200191505060405180910390f35b34801561030057600080fd5b50610309610a6e565b6040518082815260200191505060405180910390f35b34801561032b57600080fd5b506103586004803603602081101561034257600080fd5b8101908080359060200190929190505050610a74565b604051808215151515815260200191505060405180910390f35b34801561037e57600080fd5b50610387610ba5565b6040518082815260200191505060405180910390f35b3480156103a957600080fd5b506103b2610bab565b604051808273ffffffffffffffffffffffffffffffffffffffff1673ffffffffffffffffffffffffffffffffffffffff16815260200191505060405180910390f35b34801561040057600080fd5b50610409610bd1565b6040518082815260200191505060405180910390f35b34801561042b57600080fd5b506104626004803603604081101561044257600080fd5b810190808035906020019092919080359060200190929190505050610bd7565b604051808215151515815260200191505060405180910390f35b34801561048857600080fd5b50610491610e13565b604051808215151515815260200191505060405180910390f35b3480156104b757600080fd5b506104fa600480360360208110156104ce57600080fd5b81019080803573ffffffffffffffffffffffffffffffffffffffff16906020019092919050505061134b565b6040518082815260200191505060405180910390f35b34801561051c57600080fd5b50610525611363565b6040518082815260200191505060405180910390f35b34801561054757600080fd5b5061057e6004803603604081101561055e57600080fd5b810190808035906020019092919080359060200190929190505050611369565b604051808215151515815260200191505060405180910390f35b3480156105a457600080fd5b506105e7600480360360208110156105bb57600080fd5b81019080803573ffffffffffffffffffffffffffffffffffffffff1690602001909291905050506115aa565b6040518082815260200191505060405180910390f35b34801561060957600080fd5b506106126115c2565b604051808215151515815260200191505060405180910390f35b34801561063857600080fd5b506106656004803603602081101561064f57600080fd5b81019080803590602001909291905050506115ee565b604051808273ffffffffffffffffffffffffffffffffffffffff1673ffffffffffffffffffffffffffffffffffffffff16815260200191505060405180910390f35b3480156106b357600080fd5b506106bc61162a565b6040518082815260200191505060405180910390f35b3480156106de57600080fd5b50610721600480360360208110156106f557600080fd5b81019080803573ffffffffffffffffffffffffffffffffffffffff169060200190929190505050611630565b6040518082815260200191505060405180910390f35b34801561074357600080fd5b506107866004803603602081101561075a57600080fd5b81019080803573ffffffffffffffffffffffffffffffffffffffff169060200190929190505050611648565b6040518082815260200191505060405180910390f35b3480156107a857600080fd5b506107f5600480360360408110156107bf57600080fd5b81019080803573ffffffffffffffffffffffffffffffffffffffff16906020019092919080359060200190929190505050611660565b604051808215151515815260200191505060405180910390f35b6000809054906101000a900473ffffffffffffffffffffffffffffffffffffffff1681565b600a818154811061084157fe5b906000526020600020016000915054906101000a900473ffffffffffffffffffffffffffffffffffffffff1681565b600081600b60003373ffffffffffffffffffffffffffffffffffffffff1673ffffffffffffffffffffffffffffffffffffffff1681526020019081526020016000206000828254019250508190555060019050919050565b600081600860003373ffffffffffffffffffffffffffffffffffffffff1673ffffffffffffffffffffffffffffffffffffffff168152602001908152602001600020600082825401925050819055508273ffffffffffffffffffffffffffffffffffffffff166323b872dd3330856040518463ffffffff1660e01b8152600401808473ffffffffffffffffffffffffffffffffffffffff1673ffffffffffffffffffffffffffffffffffffffff1681526020018373ffffffffffffffffffffffffffffffffffffffff1673ffffffffffffffffffffffffffffffffffffffff1681526020018281526020019350505050602060405180830381600087803b1580156109d257600080fd5b505af11580156109e6573d6000803e3d6000fd5b505050506040513d60208110156109fc57600080fd5b8101908080519060200190929190505050506001905092915050565b6000426002819055506102586003819055506000600160146101000a81548160ff02191690836002811115610a4957fe5b0217905550600060048190555060646006819055506103e76005819055506001905090565b60045481565b600081600c60003373ffffffffffffffffffffffffffffffffffffffff1673ffffffffffffffffffffffffffffffffffffffff16815260200190815260200160002054600b60003373ffffffffffffffffffffffffffffffffffffffff1673ffffffffffffffffffffffffffffffffffffffff168152602001908152602001600020540311610b0257600080fd5b600082905080600b60003373ffffffffffffffffffffffffffffffffffffffff1673ffffffffffffffffffffffffffffffffffffffff168152602001908152602001600020600082825403925050819055503373ffffffffffffffffffffffffffffffffffffffff166108fc829081150290604051600060405180830381858888f19350505050158015610b9a573d6000803e3d6000fd5b506001915050919050565b60035481565b600160009054906101000a900473ffffffffffffffffffffffffffffffffffffffff1681565b60065481565b600080806002811115610be657fe5b600160149054906101000a900460ff166002811115610c0157fe5b14610c0b57600080fd5b82600960003373ffffffffffffffffffffffffffffffffffffffff1673ffffffffffffffffffffffffffffffffffffffff16815260200190815260200160002054600860003373ffffffffffffffffffffffffffffffffffffffff1673ffffffffffffffffffffffffffffffffffffffff16815260200190815260200160002054031015610c9857600080fd5b60006060610cb8610ca88761180e565b610cb360065461180e565b61193b565b9050610cc381611a03565b915060046000815480929190600101919050555060066000815480929190600101919050555084600960003373ffffffffffffffffffffffffffffffffffffffff1673ffffffffffffffffffffffffffffffffffffffff168152602001908152602001600020600082825401925050819055506000809054906101000a900473ffffffffffffffffffffffffffffffffffffffff1673ffffffffffffffffffffffffffffffffffffffff1663a78b7907338888866040518563ffffffff1660e01b8152600401808573ffffffffffffffffffffffffffffffffffffffff1673ffffffffffffffffffffffffffffffffffffffff168152602001848152602001838152602001828152602001945050505050600060405180830381600087803b158015610dee57600080fd5b505af1158015610e02573d6000803e3d6000fd5b505050506001935050505092915050565b60006001806002811115610e2357fe5b600160149054906101000a900460ff166002811115610e3e57fe5b14610e4857600080fd5b6002600160146101000a81548160ff02191690836002811115610e6757fe5b02179055506000806000809054906101000a900473ffffffffffffffffffffffffffffffffffffffff1673ffffffffffffffffffffffffffffffffffffffff16631b44d8d06040518163ffffffff1660e01b81526004016040805180830381600087803b158015610ed757600080fd5b505af1158015610eeb573d6000803e3d6000fd5b505050506040513d6040811015610f0157600080fd5b810190808051906020019092919080519060200190929190505050915091506000806000809054906101000a900473ffffffffffffffffffffffffffffffffffffffff1673ffffffffffffffffffffffffffffffffffffffff166391447d326040518163ffffffff1660e01b81526004016040805180830381600087803b158015610f8b57600080fd5b505af1158015610f9f573d6000803e3d6000fd5b505050506040513d6040811015610fb557600080fd5b810190808051906020019092919080519060200190929190505050915091505b81841061133f576001600860008573ffffffffffffffffffffffffffffffffffffffff1673ffffffffffffffffffffffffffffffffffffffff1681526020019081526020016000206000828254019250508190555081600b60008373ffffffffffffffffffffffffffffffffffffffff1673ffffffffffffffffffffffffffffffffffffffff168152602001908152602001600020600082825401925050819055506000809054906101000a900473ffffffffffffffffffffffffffffffffffffffff1673ffffffffffffffffffffffffffffffffffffffff1663211b0d3c6040518163ffffffff1660e01b8152600401602060405180830381600087803b1580156110e057600080fd5b505af11580156110f4573d6000803e3d6000fd5b505050506040513d602081101561110a57600080fd5b8101908080519060200190929190505050806111c657506000809054906101000a900473ffffffffffffffffffffffffffffffffffffffff1673ffffffffffffffffffffffffffffffffffffffff1663cc0ba6706040518163ffffffff1660e01b8152600401602060405180830381600087803b15801561118a57600080fd5b505af115801561119e573d6000803e3d6000fd5b505050506040513d60208110156111b457600080fd5b81019080805190602001909291905050505b156111d05761133f565b6000809054906101000a900473ffffffffffffffffffffffffffffffffffffffff1673ffffffffffffffffffffffffffffffffffffffff16631b44d8d06040518163ffffffff1660e01b81526004016040805180830381600087803b15801561123857600080fd5b505af115801561124c573d6000803e3d6000fd5b505050506040513d604081101561126257600080fd5b81019080805190602001909291908051906020019092919050505080945081955050506000809054906101000a900473ffffffffffffffffffffffffffffffffffffffff1673ffffffffffffffffffffffffffffffffffffffff166391447d326040518163ffffffff1660e01b81526004016040805180830381600087803b1580156112ed57600080fd5b505af1158015611301573d6000803e3d6000fd5b505050506040513d604081101561131757600080fd5b8101908080519060200190929190805190602001909291905050508092508193505050610fd5565b60019550505050505090565b600b6020528060005260406000206000915090505481565b60055481565b60008080600281111561137857fe5b600160149054906101000a900460ff16600281111561139357fe5b1461139d57600080fd5b838302600c60003373ffffffffffffffffffffffffffffffffffffffff1673ffffffffffffffffffffffffffffffffffffffff16815260200190815260200160002054600b60003373ffffffffffffffffffffffffffffffffffffffff1673ffffffffffffffffffffffffffffffffffffffff1681526020019081526020016000205403101561142c57600080fd5b6000606061144c61143c8761180e565b61144760055461180e565b61193b565b905061145781611a03565b915060046000815480929190600101919050555060056000815480929190600190039190505550858502600c60003373ffffffffffffffffffffffffffffffffffffffff1673ffffffffffffffffffffffffffffffffffffffff168152602001908152602001600020600082825401925050819055506000809054906101000a900473ffffffffffffffffffffffffffffffffffffffff1673ffffffffffffffffffffffffffffffffffffffff1663502f8609338888866040518563ffffffff1660e01b8152600401808573ffffffffffffffffffffffffffffffffffffffff1673ffffffffffffffffffffffffffffffffffffffff168152602001848152602001838152602001828152602001945050505050600060405180830381600087803b15801561158557600080fd5b505af1158015611599573d6000803e3d6000fd5b505050506001935050505092915050565b600c6020528060005260406000206000915090505481565b600060018060146101000a81548160ff021916908360028111156115e257fe5b02179055506001905090565b600d81815481106115fb57fe5b906000526020600020016000915054906101000a900473ffffffffffffffffffffffffffffffffffffffff1681565b60025481565b60086020528060005260406000206000915090505481565b60096020528060005260406000206000915090505481565b600081600960003373ffffffffffffffffffffffffffffffffffffffff1673ffffffffffffffffffffffffffffffffffffffff16815260200190815260200160002054600860003373ffffffffffffffffffffffffffffffffffffffff1673ffffffffffffffffffffffffffffffffffffffff1681526020019081526020016000205403116116ee57600080fd5b600082905080600860003373ffffffffffffffffffffffffffffffffffffffff1673ffffffffffffffffffffffffffffffffffffffff168152602001908152602001600020600082825403925050819055508373ffffffffffffffffffffffffffffffffffffffff1663a9059cbb33836040518363ffffffff1660e01b8152600401808373ffffffffffffffffffffffffffffffffffffffff1673ffffffffffffffffffffffffffffffffffffffff16815260200182815260200192505050602060405180830381600087803b1580156117c757600080fd5b505af11580156117db573d6000803e3d6000fd5b505050506040513d60208110156117f157600080fd5b810190808051906020019092919050505050600191505092915050565b60606000821415611856576040518060400160405280600181526020017f30000000000000000000000000000000000000000000000000000000000000008152509050611936565b600082905060005b60008214611880578080600101915050600a828161187857fe5b04915061185e565b6060816040519080825280601f01601f1916602001820160405280156118b55781602001600182028038833980820191505090505b50905060006001830390505b6000861461192e57600a86816118d357fe5b0660300160f81b828280600190039350815181106118ed57fe5b60200101907effffffffffffffffffffffffffffffffffffffffffffffffffffffffffffff1916908160001a905350600a868161192657fe5b0495506118c1565b819450505050505b919050565b606082826040516020018083805190602001908083835b602083106119755780518252602082019150602081019050602083039250611952565b6001836020036101000a03801982511681845116808217855250505050505090500182805190602001908083835b602083106119c657805182526020820191506020810190506020830392506119a3565b6001836020036101000a03801982511681845116808217855250505050505090500192505050604051602081830303815290604052905092915050565b6000606082905060008060009050600083519050600092505b80831015611a76576000848481518110611a3257fe5b602001015160f81c60f81b60f81c60ff16905060308110158015611a57575060398111155b15611a685760308103600a84020192505b508280600101935050611a1c565b8194505050505091905056fea265627a7a723158208a2501c71117fe5289330541cd4c05d0ef605a0a41ec3949a60b4c4413e3cb5b64736f6c63430005100032608060405234801561001057600080fd5b5061153a806100206000396000f3fe608060405234801561001057600080fd5b50600436106100625760003560e01c80631b44d8d014610067578063211b0d3c146100b8578063502f8609146100da57806391447d321461013c578063a78b79071461018d578063cc0ba670146101ef575b600080fd5b61006f610211565b604051808381526020018273ffffffffffffffffffffffffffffffffffffffff1673ffffffffffffffffffffffffffffffffffffffff1681526020019250505060405180910390f35b6100c0610518565b604051808215151515815260200191505060405180910390f35b61013a600480360360808110156100f057600080fd5b81019080803573ffffffffffffffffffffffffffffffffffffffff169060200190929190803590602001909291908035906020019092919080359060200190929190505050610538565b005b61014461061f565b604051808381526020018273ffffffffffffffffffffffffffffffffffffffff1673ffffffffffffffffffffffffffffffffffffffff1681526020019250505060405180910390f35b6101ed600480360360808110156101a357600080fd5b81019080803573ffffffffffffffffffffffffffffffffffffffff169060200190929190803590602001909291908035906020019092919080359060200190929190505050610929565b005b6101f7610a10565b604051808215151515815260200191505060405180910390f35b60008060008080549050141561028f576040517f08c379a00000000000000000000000000000000000000000000000000000000081526004018080602001828103825260118152602001807f6275794c69737420697320656d7074792100000000000000000000000000000081525060200191505060405180910390fd5b60016000805490501415610373576000806000815481106102ac57fe5b90600052602060002090600402016001015490506000806000815481106102cf57fe5b906000526020600020906004020160000160009054906101000a900473ffffffffffffffffffffffffffffffffffffffff169050600080548061030e57fe5b6001900381819060005260206000209060040201600080820160006101000a81549073ffffffffffffffffffffffffffffffffffffffff0219169055600182016000905560028201600090556003820160009055505090558181935093505050610514565b60008060008154811061038257fe5b90600052602060002090600402016001015490506000806000815481106103a557fe5b906000526020600020906004020160000160009054906101000a900473ffffffffffffffffffffffffffffffffffffffff1690506000600160008054905003815481106103ee57fe5b90600052602060002090600402016000808154811061040957fe5b90600052602060002090600402016000820160009054906101000a900473ffffffffffffffffffffffffffffffffffffffff168160000160006101000a81548173ffffffffffffffffffffffffffffffffffffffff021916908373ffffffffffffffffffffffffffffffffffffffff16021790555060018201548160010155600282015481600201556003820154816003015590505060008054806104aa57fe5b6001900381819060005260206000209060040201600080820160006101000a81549073ffffffffffffffffffffffffffffffffffffffff02191690556001820160009055600282016000905560038201600090555050905561050a610a30565b5081819350935050505b9091565b60008060008054905014156105305760019050610535565b600090505b90565b6105406114c7565b60405180608001604052808673ffffffffffffffffffffffffffffffffffffffff1681526020018581526020018481526020018381525090506000819080600181540180825580915050906001820390600052602060002090600402016000909192909190915060008201518160000160006101000a81548173ffffffffffffffffffffffffffffffffffffffff021916908373ffffffffffffffffffffffffffffffffffffffff160217905550602082015181600101556040820151816002015560608201518160030155505050610617610d0b565b505050505050565b6000806000600180549050141561069e576040517f08c379a00000000000000000000000000000000000000000000000000000000081526004018080602001828103825260128152602001807f73656c6c4c69737420697320656d70747921000000000000000000000000000081525060200191505060405180910390fd5b60018080549050141561078357600060016000815481106106bb57fe5b9060005260206000209060040201600101549050600060016000815481106106df57fe5b906000526020600020906004020160000160009054906101000a900473ffffffffffffffffffffffffffffffffffffffff169050600180548061071e57fe5b6001900381819060005260206000209060040201600080820160006101000a81549073ffffffffffffffffffffffffffffffffffffffff0219169055600182016000905560028201600090556003820160009055505090558181935093505050610925565b6000600160008154811061079357fe5b9060005260206000209060040201600101549050600060016000815481106107b757fe5b906000526020600020906004020160000160009054906101000a900473ffffffffffffffffffffffffffffffffffffffff169050600180808054905003815481106107fe57fe5b9060005260206000209060040201600160008154811061081a57fe5b90600052602060002090600402016000820160009054906101000a900473ffffffffffffffffffffffffffffffffffffffff168160000160006101000a81548173ffffffffffffffffffffffffffffffffffffffff021916908373ffffffffffffffffffffffffffffffffffffffff16021790555060018201548160010155600282015481600201556003820154816003015590505060018054806108bb57fe5b6001900381819060005260206000209060040201600080820160006101000a81549073ffffffffffffffffffffffffffffffffffffffff02191690556001820160009055600282016000905560038201600090555050905561091b610f7c565b5081819350935050505b9091565b6109316114c7565b60405180608001604052808673ffffffffffffffffffffffffffffffffffffffff1681526020018581526020018481526020018381525090506001819080600181540180825580915050906001820390600052602060002090600402016000909192909190915060008201518160000160006101000a81548173ffffffffffffffffffffffffffffffffffffffff021916908373ffffffffffffffffffffffffffffffffffffffff160217905550602082015181600101556040820151816002015560608201518160030155505050610a08611257565b505050505050565b6000806001805490501415610a285760019050610a2d565b600090505b90565b6000806000905060006001826002020190505b600080549050811015610d025760008190506000600183019050600080549050811015610ab85760008381548110610a7757fe5b90600052602060002090600402016003015460008281548110610a9657fe5b9060005260206000209060040201600301541115610ab75781806001019250505b5b60008281548110610ac557fe5b90600052602060002090600402016003015460008581548110610ae457fe5b9060005260206000209060040201600301541015610cf457610b046114c7565b60008581548110610b1157fe5b90600052602060002090600402016040518060800160405290816000820160009054906101000a900473ffffffffffffffffffffffffffffffffffffffff1673ffffffffffffffffffffffffffffffffffffffff1673ffffffffffffffffffffffffffffffffffffffff1681526020016001820154815260200160028201548152602001600382015481525050905060008381548110610bad57fe5b906000526020600020906004020160008681548110610bc857fe5b90600052602060002090600402016000820160009054906101000a900473ffffffffffffffffffffffffffffffffffffffff168160000160006101000a81548173ffffffffffffffffffffffffffffffffffffffff021916908373ffffffffffffffffffffffffffffffffffffffff1602179055506001820154816001015560028201548160020155600382015481600301559050508060008481548110610c6c57fe5b906000526020600020906004020160008201518160000160006101000a81548173ffffffffffffffffffffffffffffffffffffffff021916908373ffffffffffffffffffffffffffffffffffffffff16021790555060208201518160010155604082015181600201556060820151816003015590505082945060018560020201935050610cfb565b5050610d02565b5050610a43565b60019250505090565b60008060016000805490500390505b6000811115610f7457600060026001830381610d3257fe5b04905060008181548110610d4257fe5b90600052602060002090600402016003015460008381548110610d6157fe5b9060005260206000209060040201600301541115610f6857610d816114c7565b60008381548110610d8e57fe5b90600052602060002090600402016040518060800160405290816000820160009054906101000a900473ffffffffffffffffffffffffffffffffffffffff1673ffffffffffffffffffffffffffffffffffffffff1673ffffffffffffffffffffffffffffffffffffffff1681526020016001820154815260200160028201548152602001600382015481525050905060008281548110610e2a57fe5b906000526020600020906004020160008481548110610e4557fe5b90600052602060002090600402016000820160009054906101000a900473ffffffffffffffffffffffffffffffffffffffff168160000160006101000a81548173ffffffffffffffffffffffffffffffffffffffff021916908373ffffffffffffffffffffffffffffffffffffffff1602179055506001820154816001015560028201548160020155600382015481600301559050508060008381548110610ee957fe5b906000526020600020906004020160008201518160000160006101000a81548173ffffffffffffffffffffffffffffffffffffffff021916908373ffffffffffffffffffffffffffffffffffffffff16021790555060208201518160010155604082015181600201556060820151816003015590505081925050610f6e565b50610f74565b50610d1a565b600191505090565b6000806000905060006001826002020190505b60018054905081101561124e57600081905060006001830190506001805490508110156110045760018381548110610fc357fe5b90600052602060002090600402016003015460018281548110610fe257fe5b90600052602060002090600402016003015410156110035781806001019250505b5b6001848154811061101157fe5b9060005260206000209060040201600301546001838154811061103057fe5b9060005260206000209060040201600301541015611240576110506114c7565b6001858154811061105d57fe5b90600052602060002090600402016040518060800160405290816000820160009054906101000a900473ffffffffffffffffffffffffffffffffffffffff1673ffffffffffffffffffffffffffffffffffffffff1673ffffffffffffffffffffffffffffffffffffffff16815260200160018201548152602001600282015481526020016003820154815250509050600183815481106110f957fe5b90600052602060002090600402016001868154811061111457fe5b90600052602060002090600402016000820160009054906101000a900473ffffffffffffffffffffffffffffffffffffffff168160000160006101000a81548173ffffffffffffffffffffffffffffffffffffffff021916908373ffffffffffffffffffffffffffffffffffffffff16021790555060018201548160010155600282015481600201556003820154816003015590505080600184815481106111b857fe5b906000526020600020906004020160008201518160000160006101000a81548173ffffffffffffffffffffffffffffffffffffffff021916908373ffffffffffffffffffffffffffffffffffffffff16021790555060208201518160010155604082015181600201556060820151816003015590505082945060018560020201935050611247565b505061124e565b5050610f8f565b60019250505090565b600080600180805490500390505b60008111156114bf5760006002600183038161127d57fe5b0490506001818154811061128d57fe5b906000526020600020906004020160030154600183815481106112ac57fe5b90600052602060002090600402016003015410156114b3576112cc6114c7565b600183815481106112d957fe5b90600052602060002090600402016040518060800160405290816000820160009054906101000a900473ffffffffffffffffffffffffffffffffffffffff1673ffffffffffffffffffffffffffffffffffffffff1673ffffffffffffffffffffffffffffffffffffffff168152602001600182015481526020016002820154815260200160038201548152505090506001828154811061137557fe5b90600052602060002090600402016001848154811061139057fe5b90600052602060002090600402016000820160009054906101000a900473ffffffffffffffffffffffffffffffffffffffff168160000160006101000a81548173ffffffffffffffffffffffffffffffffffffffff021916908373ffffffffffffffffffffffffffffffffffffffff160217905550600182015481600101556002820154816002015560038201548160030155905050806001838154811061143457fe5b906000526020600020906004020160008201518160000160006101000a81548173ffffffffffffffffffffffffffffffffffffffff021916908373ffffffffffffffffffffffffffffffffffffffff160217905550602082015181600101556040820151816002015560608201518160030155905050819250506114b9565b506114bf565b50611265565b600191505090565b6040518060800160405280600073ffffffffffffffffffffffffffffffffffffffff168152602001600081526020016000815260200160008152509056fea265627a7a72315820e7a1bd51245c16d40e14c8fdf93ce59585be2b4756e102c734556088e31a3e8864736f6c63430005100032",
  "source": "\n//pragma solidity 0.5.12;\n\npragma solidity >=0.4.22;\n//import \"node_modules/openzeppelin-solidity/contracts/token/ERC20/IERC20.sol\";\nimport \"openzeppelin-solidity/contracts/token/ERC20/IERC20.sol\";\nimport \"./HeapDynamicArray.sol\";\nimport \"./HeapStaticArray.sol\";\nimport \"./HeapMapping.sol\";\nimport \"./LinkedList.sol\";\nimport \"./LinkedListMapping.sol\";\n\ncontract CallMarket{\n\n    HeapDynamicArray public priorityQueue = new HeapDynamicArray();\n    //HeapStaticArray public priorityQueue = new HeapStaticArray(84);\n    //HeapMapping public priorityQueue = new HeapMapping();\n    //we pass the address of the callmarket to the LinkedList so that the selfdestruct could send Ethers back to the callmarket\n    //LinkedList public priorityQueue = new LinkedList(address(this));\n    //LinkedListMapping public priorityQueue = new LinkedListMapping();\n    //Mapping public MP = new Mapping(address(this));\n    address payable public callmarket = address(uint160(address(this)));\n    \n//***********************************************************************//\n\n    /**\n    *   @dev Converts string to uint and returns the uint\n    */\n\n    function strTouint (string memory s) internal pure returns (uint) {\n        bytes memory b = bytes(s);\n        uint i;\n        uint result = 0;\n        uint j = b.length;\n        for (i = 0; i < j; i++) {\n            uint c = uint(uint8(b[i]));\n            if (c >= 48 && c <= 57) {\n                result = result * 10 + (c - 48);\n            }\n        }\n\n        return result;\n    }\n//***********************************************************************//\n\n    /**\n    *   @dev Converts uint to string and returns the string\n    */\n\n    function uintTostr (uint intVar) internal pure returns (string memory _uintAsString) {\n        if (intVar == 0) {\n            return \"0\";\n        }\n        uint j = intVar;\n        uint len;\n        while (j != 0) {\n            len++;\n            j /= 10;\n        }\n        bytes memory bstr = new bytes(len);\n        uint k = len - 1;\n        while (intVar != 0) {\n            bstr[k--] = byte(uint8(48 + intVar % 10));\n            intVar /= 10;\n        }\n        return string(bstr);\n    }\n//***********************************************************************//\n    \n    /**\n    *   @dev Contcatenates two string and returns the result\n    */\n\n    function contcat(string memory a, string memory b) internal pure returns (string memory) {\n\n        return string (abi.encodePacked( a , b));\n    }\n\n//****************************************************//\n//****************************************************//\n//****************************************************//\n\n    /**\n    *   @dev\n        States.Open: The market is open\n        States.Closed: The market is closed but the orders have not yet been processed\n        States.Settled: The market is closed and settled (orders have been processed)\n        creationTime: The openning time of the market\n        biddingPeriod: The window of time during which the market is open\n        numOrders: Total orders in the market (both bids and asks)\n        buylistCounter: A bid orders counter that is decremented every time a bid is submitted (used for handling ties)\n        sellistCounter: An ask orders counter that is incremented every time an ask is submitted (used for handling ties)\n        refunds: Maintains the refund counters to be transferred to the block.coinbase (current block miner)\n\n        totalTokenBalance: Maintains the total token balance of each trader \n        unavailableTokenBalance: Maintains the number of tokens a trader has depositted\n        unavailableTokenArray: Maintains a list of unavailableTokenBalance addresses, this list will be used to delete the unavailableTokenBalance mapping\n\n        totalEtherBalance: Maintains the total ETH balance of each trader \n        unavailableEtherBalance: Maintains the number of ETH a trader has depositted\n        unavailableEtherArray: Maintains a list of unavailableEtherBalance addresses, this list will be used to delete the unavailableEtherBalance mapping\n    */\n\n    //uint256 public countervariable;\n    enum States {Open, Closed, Settled} \n    States internal state;\n    uint256 public creationTime;\n    uint256 public biddingPeriod;\n    uint256 public numOrders;        \n    uint256 public buylistCounter;   \n    uint256 public sellistCounter;  \n    mapping(address => uint256) internal refunds;\n\n    mapping(address => uint256) public totalTokenBalance;\n    mapping(address => uint256) public unavailableTokenBalance;\n    address[] public unavailableTokenArray;\n\n    mapping(address => uint256) public totalEtherBalance;\n    mapping(address => uint256) public unavailableEtherBalance;\n    address[] public unavailableEtherArray;\n\n//**********************************************//\n//***************Function Modifiers*************//\n//**********************************************//\n\n    /* modifier CheckAuctionStage () {\n        if (now >= creationTime + biddingPeriod || numOrders == 1000) \n        {\n            CloseMarket();\n        }\n        _;\n    } */\n\n    \n//**********************************************// \n    /**\n    *   @dev Checks whether the market is at state_1 or not \n    */\n\n    modifier auctionAtStage (States state_1 ) { \n        require (state == state_1); \n        _;\n    }\n//***********************************************************************//\n    /**\n    *   @dev Allows the traders to deposit ERC20 tokens\n        Traders must firs call the approve() from the ERC20 token contract to allow the call market contract to spend those tokens\n    */\n\n    function depositToken(address token, uint256 numofTokens) external returns (bool) {\n        \n        totalTokenBalance[msg.sender] += numofTokens;\n        IERC20(token).transferFrom(msg.sender, address(this), numofTokens);\n        \n        \n        return true;\n    \n    }\n//***********************************************************************//\n    /**\n    *   @dev Allows the traders to deposit ETH\n    */ \n\n    function depositEther(uint256 numofEthers) external payable returns (bool) {\n        totalEtherBalance[msg.sender] += numofEthers;\n        \n        return true;\n    }\n//***********************************************************************//\n    /**\n    *   @dev Opens the market\n    */ \n\n    function openMarket() external returns (bool) {\n\n        creationTime = block.timestamp; \n        biddingPeriod = 10 minutes;\n        state = States.Open;\n        numOrders = 0;\n        sellistCounter = 100;\n        buylistCounter = 999;\n        return true;\n\n    }\n//***********************************************************************//\n    /**\n    *   @dev \n        Allows traders to submit bid orders if the market is at the open state\n        Traders must have enough ETH already depositted\n        To handle ties: Converts the bid price to string, contactenate it with the buylistCounter and converts the constactenated string to uint\n        Calls the PQ InsertBid function\n        Increment the market's total number of orders \n        Decrements the buylistCounter\n        Increase the unavailableEtherBalance of the trader by _volume * _price;\n    */ \n  \n    function submitBid (uint256 price, uint256 volume) external auctionAtStage (States.Open) returns (bool)\n    {\n        require ((totalEtherBalance[msg.sender] - unavailableEtherBalance[msg.sender]) >= volume * price );\n        \n        uint256 _finalpriceUint;\n        string memory _finalpriceString;\n        _finalpriceString = contcat ( uintTostr(price), uintTostr (buylistCounter));\n        _finalpriceUint = strTouint (_finalpriceString);\n        \n        numOrders++;\n        buylistCounter--;\n        unavailableEtherBalance[msg.sender] += volume * price;\n        //unavailableEtherArray.push(msg.sender);\n        priorityQueue.insertBid(msg.sender, price, volume, _finalpriceUint);\n        return true;\n    }\n\n//***********************************************************************//\n    /**\n    *   @dev \n        Allows traders to submit ask orders if the market is at the open state\n        Traders must have enough tokens already depositted\n        To handle ties: Converts the ask price to string, contactenate it with the sellistCounter and converts the constactenated string to uint\n        Calls the PQ InsertAsk function\n        Increments the market's total number of orders \n        Increments the sellistCounter\n        Increase the unavailableTokenBalance of the trader by _volume\n    */ \n\n    function submitAsk (uint256 price, uint256 volume) external auctionAtStage (States.Open) returns (bool)\n    {\n        require((totalTokenBalance[msg.sender] - unavailableTokenBalance[msg.sender]) >= volume);\n        uint256 _finalpriceUint;\n        string memory _finalpriceString;\n        _finalpriceString = contcat ( uintTostr(price), uintTostr (sellistCounter));\n        _finalpriceUint = strTouint (_finalpriceString);\n        \n        numOrders++;\n        sellistCounter++;\n        unavailableTokenBalance[msg.sender] += volume;\n        //unavailableTokenArray.push(msg.sender);\n        priorityQueue.insertAsk(msg.sender, price, volume, _finalpriceUint);\n        return true;\n\n    }\n//***********************************************************************//\n    /**\n    *   @dev Closes the market\n    */ \n\n    function closeMarket() external returns (bool)\n    {\n        state = States.Closed;\n        return true;\n    }\n\n//***********************************************************************//\n    /**\n    *   @dev \n        Processes the orders only if the market is at the closed state\n\n    */\n\n    function matchOrders() external auctionAtStage(States.Closed) returns (bool){\n\n        state = States.Settled;\n        (uint256 BBPrice, address BBSender) = priorityQueue.buyListMaxDelete();\n        (uint256 BAPrice, address BASender) = priorityQueue.sellListMaxDelete();\n        \n        while (BBPrice >= BAPrice)\n        \n        {  \n            totalTokenBalance[BBSender] += 1;\n            totalEtherBalance[BASender] += BAPrice;\n\n            //refunds[block.coinbase] += BBPrice - BAPrice;\n         \n            if (priorityQueue.buyListisEmpty() || priorityQueue.sellListisEmpty()) \n            {\n                break;\n            }\n\n            (BBPrice,BBSender) = priorityQueue.buyListMaxDelete();\n            (BAPrice,BASender) = priorityQueue.sellListMaxDelete();\n        }\n        \n        //uint refund = refunds[block.coinbase]; \n        //refunds[block.coinbase] = 0; \n        //block.coinbase.transfer(refund);\n        \n        // for (uint i =0 ; i< unavailableTokenArray.length; i++) \n        // {   \n        //     delete unavailableTokenBalance[unavailableTokenArray[i]];\n        // }\n        \n        // for (uint j=0 ; j< unavailableEtherArray.length; j++) \n        // {   \n        //     delete unavailableEtherBalance[unavailableEtherArray[j]];\n        // }\n             \n        \n        \n        return true;\n\n        \n    }    \n//***********************************************************************//\n    /**\n    *   @dev Allows the tarders to claim their available tokens back\n    */    \n    function claimTokens (address token, uint256 numofTokens ) external returns (bool)\n    {\n        require ((totalTokenBalance[msg.sender] - unavailableTokenBalance[msg.sender]) > numofTokens);\n        uint256 tokensToBeClaimed = numofTokens ;\n        totalTokenBalance[msg.sender] -= tokensToBeClaimed;\n        IERC20(token).transfer(msg.sender, tokensToBeClaimed);\n        return true;\n    }\n//***********************************************************************//\n    /**\n    *   @dev Allows the tarders to claim their available ETH back\n    */     \n    function claimEther (uint256 numofEthers) external returns (bool)\n    {\n        require ((totalEtherBalance[msg.sender] - unavailableEtherBalance[msg.sender]) > numofEthers);\n        uint256 EthersToBeClaimed = numofEthers ;\n        totalEtherBalance[msg.sender] -= EthersToBeClaimed;\n        msg.sender.transfer(EthersToBeClaimed);\n        return true;\n    }    \n    \n                                                                                                                                                                                   \n}                                                                                                                                                                                                                                                                                                                                                                                                                                                                                                                                                                                                                                                                                                                                                                                                                                                                                                                                                                                                                                                                                                                                                                                                                                                                                                                                                                                                                                                                                                                                                                                                                                                                                                                                                                                                                                                                                                                                                                                                                                                                                                                                                                                                                                                                                                                                                                                                                                                                                                                                                                                                                                                                                                                                                                                                                                                                                                                                                                                                                                                                                                                                                                                                                                                                                                                                                                                                                                                                                                                                                                                                                                                                                                                                                                                                                                                                                                                                                                                                                                                                                                                                                                                                                                                                                                                                                                                                                                                                                                                                                                                                                                                                                                                                                                                                                                                                                                                                                                                                                                                                                                                                                                                                                                                                                                                                                                                                                                                                                                                                                                                                                                                                                                                                                                                                                                                                                                                                                                                                                                                                                                                                                                                                                                                                                                                                                                                                                                                                                                                                                                                                                                                                                                                                                                                                                                                                                                                                                                                                                                                                                                                                                                                                                                                                                                                                                                                                                                                                                                                                                                                                                                                                                                                                                                                                                                                                                                                                                                                                                                                                                                                                                                                                                                                                                                                                                                                                                                                                                                                                                                                                                                                                                                                                                                                                                                                                                                                                                                                                                                                                                                                                                                                                                                                                                                                                                                                                                                                                                                                                                                                                                                                                                                                                                                                                                                                                                                                                                                                                                                                                                                                                                                                                                                                                                                                                                                                                                                                                                                                                                                                                                                                                                                                                                                                                                                                                                                                                                                                                                                                                                                                                                                                                                                                                                                                                                                                                                                                                                                                                                                                                                                                                                                                                                                                                                                                                                                                                                                                                                                                                                                                                                                                                                                                                                                                                                                                                                                                                                                                                                                                                                                                                                                                                                                                                                                                                                                                                                                                                                                                                                                                                                                                                                                                                                                                                                                                                                                                                                                                                                                                                                                                                                                                                                                                                                                                                                                                                                                                                                                                                                                                                                                                                                                                                                                                                                                                                                                                                                                                                                                                                                                                                                                                                                                                                                                                                                                                                                                                                                                                                                                                                                                                                                                                                                                                                                                                                                                                                                                                                                                                                                                                                                                                                                                                                                                                                                                                                                                                                                                                                                                                                                                                                                                                                                                                                                                                                                                                                                                                                                                                                                                                                                                                                                                                                                                                                                                                                                                                                                                                                                                                                                                                                                                                                                                                                                                                                                                                                                                                                                                                                                                                                                                                                                                                                                                                                                                                                                                                                                                                                                                                                                                                                                                                                                                                                                                                                                                                                                                                                                                                                                                                                                                                                                                                                                                                                                                                                                                                                                                                                                                                                                                                                                                                                                                                                                                                                                                                                                                                                                                                                                                                                                                                                                                                                                                                                                                                                                                                                                                                                                                                                                                                                                                                                                                                                                                                                                                                                                                                                                                                                                                                                                                                                                                                                                                                                                                                                                                                                                                                                                                                                                                                                                                                                                                                                                                                                                                                                                                                                                                                                                                                                                                                                                                                                                                                                                                                                                                                                                                                                                                                                                                                                                                                                                                                                                                                                                                                                                                                                                                                                                                                                                                                                                                                                                                                                                                                                                                                                                                                                                                                                                                                                                                                                                                                                                                                                                                                                                                                                                                                                                                                                                                                                                                                                                                                                                                                                                                                                                                                                     \n",
  "sourcePath": "/home/mahsa/ProjectRepo/2020-Orderbook/Code/New-Truffle/contracts/CallMarket/Priority_Queues/CallMarket.sol",
  "compiler": {
    "name": "solc",
    "version": "0.5.16+commit.9c3226ce.Emscripten.clang"
  },
  "schemaVersion": "3.2.5",
  "updatedAt": "2020-09-15T15:37:54.115Z",
  "networkType": "ethereum",
  "devdoc": {
    "methods": {
      "claimEther(uint256)": {
        "details": "Allows the tarders to claim their available ETH back"
      },
      "claimTokens(address,uint256)": {
        "details": "Allows the tarders to claim their available tokens back"
      },
      "closeMarket()": {
        "details": "Closes the market"
      },
      "depositEther(uint256)": {
        "details": "Allows the traders to deposit ETH"
      },
      "depositToken(address,uint256)": {
        "details": "Allows the traders to deposit ERC20 tokens Traders must firs call the approve() from the ERC20 token contract to allow the call market contract to spend those tokens"
      },
      "matchOrders()": {
        "details": " Processes the orders only if the market is at the closed state"
      },
      "openMarket()": {
        "details": "Opens the market"
      },
      "submitAsk(uint256,uint256)": {
        "details": " Allows traders to submit ask orders if the market is at the open state Traders must have enough tokens already depositted To handle ties: Converts the ask price to string, contactenate it with the sellistCounter and converts the constactenated string to uint Calls the PQ InsertAsk function Increments the market's total number of orders  Increments the sellistCounter Increase the unavailableTokenBalance of the trader by _volume"
      },
      "submitBid(uint256,uint256)": {
        "details": " Allows traders to submit bid orders if the market is at the open state Traders must have enough ETH already depositted To handle ties: Converts the bid price to string, contactenate it with the buylistCounter and converts the constactenated string to uint Calls the PQ InsertBid function Increment the market's total number of orders  Decrements the buylistCounter Increase the unavailableEtherBalance of the trader by _volume * _price;"
      }
    }
  },
  "userdoc": {
    "methods": {}
  }
}