{
  "contractName": "HeapMapping",
  "abi": [
    {
      "constant": true,
      "inputs": [
        {
          "internalType": "uint256",
          "name": "",
          "type": "uint256"
        }
      ],
      "name": "buyList",
      "outputs": [
        {
          "internalType": "address",
          "name": "Sender",
          "type": "address"
        },
        {
          "internalType": "uint256",
          "name": "Price",
          "type": "uint256"
        },
        {
          "internalType": "uint256",
          "name": "Volume",
          "type": "uint256"
        },
        {
          "internalType": "bool",
          "name": "Exists",
          "type": "bool"
        },
        {
          "internalType": "uint256",
          "name": "AuxPrice",
          "type": "uint256"
        }
      ],
      "payable": false,
      "stateMutability": "view",
      "type": "function"
    },
    {
      "constant": true,
      "inputs": [],
      "name": "buyListKey",
      "outputs": [
        {
          "internalType": "uint256",
          "name": "",
          "type": "uint256"
        }
      ],
      "payable": false,
      "stateMutability": "view",
      "type": "function"
    },
    {
      "constant": true,
      "inputs": [
        {
          "internalType": "uint256",
          "name": "",
          "type": "uint256"
        }
      ],
      "name": "sellList",
      "outputs": [
        {
          "internalType": "address",
          "name": "Sender",
          "type": "address"
        },
        {
          "internalType": "uint256",
          "name": "Price",
          "type": "uint256"
        },
        {
          "internalType": "uint256",
          "name": "Volume",
          "type": "uint256"
        },
        {
          "internalType": "bool",
          "name": "Exists",
          "type": "bool"
        },
        {
          "internalType": "uint256",
          "name": "AuxPrice",
          "type": "uint256"
        }
      ],
      "payable": false,
      "stateMutability": "view",
      "type": "function"
    },
    {
      "constant": true,
      "inputs": [],
      "name": "sellListKey",
      "outputs": [
        {
          "internalType": "uint256",
          "name": "",
          "type": "uint256"
        }
      ],
      "payable": false,
      "stateMutability": "view",
      "type": "function"
    },
    {
      "constant": false,
      "inputs": [
        {
          "internalType": "address",
          "name": "sender",
          "type": "address"
        },
        {
          "internalType": "uint256",
          "name": "price",
          "type": "uint256"
        },
        {
          "internalType": "uint256",
          "name": "volume",
          "type": "uint256"
        },
        {
          "internalType": "uint256",
          "name": "auxprice",
          "type": "uint256"
        }
      ],
      "name": "insertBid",
      "outputs": [],
      "payable": false,
      "stateMutability": "nonpayable",
      "type": "function"
    },
    {
      "constant": false,
      "inputs": [],
      "name": "buyListMaxDelete",
      "outputs": [
        {
          "internalType": "uint256",
          "name": "",
          "type": "uint256"
        },
        {
          "internalType": "address",
          "name": "",
          "type": "address"
        }
      ],
      "payable": false,
      "stateMutability": "nonpayable",
      "type": "function"
    },
    {
      "constant": false,
      "inputs": [],
      "name": "buyListMaxPrice",
      "outputs": [
        {
          "internalType": "uint256",
          "name": "",
          "type": "uint256"
        }
      ],
      "payable": false,
      "stateMutability": "nonpayable",
      "type": "function"
    },
    {
      "constant": false,
      "inputs": [],
      "name": "buyListMaxSender",
      "outputs": [
        {
          "internalType": "address",
          "name": "",
          "type": "address"
        }
      ],
      "payable": false,
      "stateMutability": "nonpayable",
      "type": "function"
    },
    {
      "constant": false,
      "inputs": [],
      "name": "buyListisEmpty",
      "outputs": [
        {
          "internalType": "bool",
          "name": "",
          "type": "bool"
        }
      ],
      "payable": false,
      "stateMutability": "nonpayable",
      "type": "function"
    },
    {
      "constant": false,
      "inputs": [
        {
          "internalType": "address",
          "name": "sender",
          "type": "address"
        },
        {
          "internalType": "uint256",
          "name": "price",
          "type": "uint256"
        },
        {
          "internalType": "uint256",
          "name": "volume",
          "type": "uint256"
        },
        {
          "internalType": "uint256",
          "name": "auxprice",
          "type": "uint256"
        }
      ],
      "name": "insertAsk",
      "outputs": [],
      "payable": false,
      "stateMutability": "nonpayable",
      "type": "function"
    },
    {
      "constant": false,
      "inputs": [],
      "name": "sellListMaxDelete",
      "outputs": [
        {
          "internalType": "uint256",
          "name": "",
          "type": "uint256"
        },
        {
          "internalType": "address",
          "name": "",
          "type": "address"
        }
      ],
      "payable": false,
      "stateMutability": "nonpayable",
      "type": "function"
    },
    {
      "constant": false,
      "inputs": [],
      "name": "sellListMaxPrice",
      "outputs": [
        {
          "internalType": "uint256",
          "name": "",
          "type": "uint256"
        }
      ],
      "payable": false,
      "stateMutability": "nonpayable",
      "type": "function"
    },
    {
      "constant": false,
      "inputs": [],
      "name": "sellListMaxSender",
      "outputs": [
        {
          "internalType": "address",
          "name": "",
          "type": "address"
        }
      ],
      "payable": false,
      "stateMutability": "nonpayable",
      "type": "function"
    },
    {
      "constant": false,
      "inputs": [],
      "name": "sellListisEmpty",
      "outputs": [
        {
          "internalType": "bool",
          "name": "",
          "type": "bool"
        }
      ],
      "payable": false,
      "stateMutability": "nonpayable",
      "type": "function"
    }
  ],
  "bytecode": "0x608060405234801561001057600080fd5b506117d8806100206000396000f3fe608060405234801561001057600080fd5b50600436106100ea5760003560e01c806391447d321161008c578063a7da8ee811610066578063a7da8ee8146103d5578063c4a4ddb314610463578063cc0ba67014610481578063d00ec617146104a3576100ea565b806391447d32146102945780639ecf86c8146102e5578063a78b790714610373576100ea565b806343f2bbfd116100c857806343f2bbfd146101ac578063502f8609146101f65780637397e5e8146102585780639105bb5b14610276576100ea565b80631b44d8d0146100ef578063211b0d3c146101405780632fda961414610162575b600080fd5b6100f76104c1565b604051808381526020018273ffffffffffffffffffffffffffffffffffffffff1673ffffffffffffffffffffffffffffffffffffffff1681526020019250505060405180910390f35b61014861081d565b604051808215151515815260200191505060405180910390f35b61016a61083d565b604051808273ffffffffffffffffffffffffffffffffffffffff1673ffffffffffffffffffffffffffffffffffffffff16815260200191505060405180910390f35b6101b461090e565b604051808273ffffffffffffffffffffffffffffffffffffffff1673ffffffffffffffffffffffffffffffffffffffff16815260200191505060405180910390f35b6102566004803603608081101561020c57600080fd5b81019080803573ffffffffffffffffffffffffffffffffffffffff1690602001909291908035906020019092919080359060200190929190803590602001909291905050506109de565b005b610260610b15565b6040518082815260200191505060405180910390f35b61027e610b1b565b6040518082815260200191505060405180910390f35b61029c610bcc565b604051808381526020018273ffffffffffffffffffffffffffffffffffffffff1673ffffffffffffffffffffffffffffffffffffffff1681526020019250505060405180910390f35b610311600480360360208110156102fb57600080fd5b8101908080359060200190929190505050610f2e565b604051808673ffffffffffffffffffffffffffffffffffffffff1673ffffffffffffffffffffffffffffffffffffffff168152602001858152602001848152602001831515151581526020018281526020019550505050505060405180910390f35b6103d36004803603608081101561038957600080fd5b81019080803573ffffffffffffffffffffffffffffffffffffffff169060200190929190803590602001909291908035906020019092919080359060200190929190505050610f91565b005b610401600480360360208110156103eb57600080fd5b81019080803590602001909291905050506110c9565b604051808673ffffffffffffffffffffffffffffffffffffffff1673ffffffffffffffffffffffffffffffffffffffff168152602001858152602001848152602001831515151581526020018281526020019550505050505060405180910390f35b61046b61112c565b6040518082815260200191505060405180910390f35b610489611132565b604051808215151515815260200191505060405180910390f35b6104ab611152565b6040518082815260200191505060405180910390f35b60008060006004805490501415610540576040517f08c379a00000000000000000000000000000000000000000000000000000000081526004018080602001828103825260118152602001807f6275794c69737420697320656d7074792100000000000000000000000000000081525060200191505060405180910390fd5b60016004805490501415610693576000806000600460008154811061056157fe5b906000526020600020015481526020019081526020016000206001015490506000806000600460008154811061059357fe5b9060005260206000200154815260200190815260200160002060000160009054906101000a900473ffffffffffffffffffffffffffffffffffffffff16905060008060046000815481106105e357fe5b90600052602060002001548152602001908152602001600020600080820160006101000a81549073ffffffffffffffffffffffffffffffffffffffff0219169055600182016000905560028201600090556003820160006101000a81549060ff021916905560048201600090555050600480548061065d57fe5b60019003818190600052602060002001600090559055600260008154809291906001900391905055508181935093505050610819565b600080600060046000815481106106a657fe5b90600052602060002001548152602001908152602001600020600101549050600080600060046000815481106106d857fe5b9060005260206000200154815260200190815260200160002060000160009054906101000a900473ffffffffffffffffffffffffffffffffffffffff169050600080600460008154811061072857fe5b90600052602060002001548152602001908152602001600020600080820160006101000a81549073ffffffffffffffffffffffffffffffffffffffff0219169055600182016000905560028201600090556003820160006101000a81549060ff0219169055600482016000905550506004600160048054905003815481106107ac57fe5b906000526020600020015460046000815481106107c557fe5b906000526020600020018190555060048054806107de57fe5b600190038181906000526020600020016000905590556107fc611202565b506002600081548092919060019003919050555081819350935050505b9091565b6000806004805490501415610835576001905061083a565b600090505b90565b60008060058054905014156108ba576040517f08c379a00000000000000000000000000000000000000000000000000000000081526004018080602001828103825260128152602001807f73656c6c4c69737420697320656d70747921000000000000000000000000000081525060200191505060405180910390fd5b6001600060056000815481106108cc57fe5b9060005260206000200154815260200190815260200160002060000160009054906101000a900473ffffffffffffffffffffffffffffffffffffffff16905090565b600080600480549050141561098b576040517f08c379a00000000000000000000000000000000000000000000000000000000081526004018080602001828103825260118152602001807f6275794c69737420697320656d7074792100000000000000000000000000000081525060200191505060405180910390fd5b600080600460008154811061099c57fe5b9060005260206000200154815260200190815260200160002060000160009054906101000a900473ffffffffffffffffffffffffffffffffffffffff16905090565b6109e661175c565b6040518060a001604052803373ffffffffffffffffffffffffffffffffffffffff16815260200185815260200184815260200160011515815260200183815250905080600080600254815260200190815260200160002060008201518160000160006101000a81548173ffffffffffffffffffffffffffffffffffffffff021916908373ffffffffffffffffffffffffffffffffffffffff160217905550602082015181600101556040820151816002015560608201518160030160006101000a81548160ff0219169083151502179055506080820151816004015590505060046002549080600181540180825580915050906001820390600052602060002001600090919290919091505550600260008154809291906001019190505550610b0d61139a565b505050505050565b60025481565b6000806005805490501415610b98576040517f08c379a00000000000000000000000000000000000000000000000000000000081526004018080602001828103825260128152602001807f73656c6c4c69737420697320656d70747921000000000000000000000000000081525060200191505060405180910390fd5b600160006005600081548110610baa57fe5b9060005260206000200154815260200190815260200160002060010154905090565b60008060006005805490501415610c4b576040517f08c379a00000000000000000000000000000000000000000000000000000000081526004018080602001828103825260118152602001807f6275794c69737420697320656d7074792100000000000000000000000000000081525060200191505060405180910390fd5b60016005805490501415610da1576000600160006005600081548110610c6d57fe5b906000526020600020015481526020019081526020016000206001015490506000600160006005600081548110610ca057fe5b9060005260206000200154815260200190815260200160002060000160009054906101000a900473ffffffffffffffffffffffffffffffffffffffff169050600160006005600081548110610cf157fe5b90600052602060002001548152602001908152602001600020600080820160006101000a81549073ffffffffffffffffffffffffffffffffffffffff0219169055600182016000905560028201600090556003820160006101000a81549060ff0219169055600482016000905550506005805480610d6b57fe5b60019003818190600052602060002001600090559055600360008154809291906001900391905055508181935093505050610f2a565b6000600160006005600081548110610db557fe5b906000526020600020015481526020019081526020016000206001015490506000600160006005600081548110610de857fe5b9060005260206000200154815260200190815260200160002060000160009054906101000a900473ffffffffffffffffffffffffffffffffffffffff169050600160006005600081548110610e3957fe5b90600052602060002001548152602001908152602001600020600080820160006101000a81549073ffffffffffffffffffffffffffffffffffffffff0219169055600182016000905560028201600090556003820160006101000a81549060ff021916905560048201600090555050600560016005805490500381548110610ebd57fe5b90600052602060002001546005600081548110610ed657fe5b90600052602060002001819055506005805480610eef57fe5b60019003818190600052602060002001600090559055610f0d6114ac565b506003600081548092919060019003919050555081819350935050505b9091565b60006020528060005260406000206000915090508060000160009054906101000a900473ffffffffffffffffffffffffffffffffffffffff16908060010154908060020154908060030160009054906101000a900460ff16908060040154905085565b610f9961175c565b6040518060a001604052803373ffffffffffffffffffffffffffffffffffffffff1681526020018581526020018481526020016001151581526020018381525090508060016000600354815260200190815260200160002060008201518160000160006101000a81548173ffffffffffffffffffffffffffffffffffffffff021916908373ffffffffffffffffffffffffffffffffffffffff160217905550602082015181600101556040820151816002015560608201518160030160006101000a81548160ff02191690831515021790555060808201518160040155905050600560035490806001815401808255809150509060018203906000526020600020016000909192909190915055506003600081548092919060010191905055506110c1611648565b505050505050565b60016020528060005260406000206000915090508060000160009054906101000a900473ffffffffffffffffffffffffffffffffffffffff16908060010154908060020154908060030160009054906101000a900460ff16908060040154905085565b60035481565b600080600580549050141561114a576001905061114f565b600090505b90565b60008060048054905014156111cf576040517f08c379a00000000000000000000000000000000000000000000000000000000081526004018080602001828103825260118152602001807f6275794c69737420697320656d7074792100000000000000000000000000000081525060200191505060405180910390fd5b60008060046000815481106111e057fe5b9060005260206000200154815260200190815260200160002060010154905090565b6000806000905060006001826002020190505b60048054905081101561139157600081905060006001830190506004805490508110156112a6576000806004858154811061124c57fe5b90600052602060002001548152602001908152602001600020600401546000806004848154811061127957fe5b906000526020600020015481526020019081526020016000206004015411156112a55781806001019250505b5b600080600484815481106112b657fe5b9060005260206000200154815260200190815260200160002060040154600080600487815481106112e357fe5b906000526020600020015481526020019081526020016000206004015410156113835760006004858154811061131557fe5b906000526020600020015490506004838154811061132f57fe5b90600052602060002001546004868154811061134757fe5b9060005260206000200181905550806004848154811061136357fe5b90600052602060002001819055508294506001856002020193505061138a565b5050611391565b5050611215565b60019250505090565b60008060016004805490500390505b60008111156114a4576000600260018303816113c157fe5b049050600080600483815481106113d457fe5b90600052602060002001548152602001908152602001600020600401546000806004858154811061140157fe5b906000526020600020015481526020019081526020016000206004015411156114985760006004838154811061143357fe5b906000526020600020015490506004828154811061144d57fe5b90600052602060002001546004848154811061146557fe5b9060005260206000200181905550806004838154811061148157fe5b90600052602060002001819055508192505061149e565b506114a4565b506113a9565b600191505090565b6000806000905060006001826002020190505b60058054905081101561163f57600081905060006001830190506005805490508110156115525760016000600585815481106114f757fe5b9060005260206000200154815260200190815260200160002060040154600160006005848154811061152557fe5b906000526020600020015481526020019081526020016000206004015410156115515781806001019250505b5b600160006005868154811061156357fe5b9060005260206000200154815260200190815260200160002060040154600160006005858154811061159157fe5b90600052602060002001548152602001908152602001600020600401541015611631576000600585815481106115c357fe5b90600052602060002001549050600583815481106115dd57fe5b9060005260206000200154600586815481106115f557fe5b9060005260206000200181905550806005848154811061161157fe5b906000526020600020018190555082945060018560020201935050611638565b505061163f565b50506114bf565b60019250505090565b60008060016005805490500390505b60008111156117545760006002600183038161166f57fe5b049050600160006005838154811061168357fe5b906000526020600020015481526020019081526020016000206004015460016000600585815481106116b157fe5b90600052602060002001548152602001908152602001600020600401541015611748576000600583815481106116e357fe5b90600052602060002001549050600582815481106116fd57fe5b90600052602060002001546005848154811061171557fe5b9060005260206000200181905550806005838154811061173157fe5b90600052602060002001819055508192505061174e565b50611754565b50611657565b600191505090565b6040518060a00160405280600073ffffffffffffffffffffffffffffffffffffffff168152602001600081526020016000815260200160001515815260200160008152509056fea265627a7a7231582020337ce44fb00713bd39d625fdb5b132a1aec4c07b7195de1816cb480dac397364736f6c63430005100032",
  "source": "pragma solidity >=0.4.22;\n//pragma solidity 0.5.12;\n\n\n//Mapping and Heap with dynamic array wrapped in a priority queue\n//The code stores orderstructs in the mapping and have keys for them. and stores the keys in the sorted heap that is implemented by dynamic array\n\n\ncontract HeapMapping{\n\n    //Every order has some attributes:\n    struct OrderStruct \n    {\n        address Sender;\n        uint256 Price;  \n        uint256 Volume;     //The volume is 1 for now\n        bool Exists;\n        uint256 AuxPrice; //This is not the real price of the order, it's the contcantenation of the real price and the counter which helps to sort the heap wehen there are ties\n    }\n\n\n    mapping(uint256 => OrderStruct) public buyList;   //mapping that contains the buy orders and have keys for them. This mapping is not sorted, we store the keys into the heap and sort them there\n    mapping(uint256 => OrderStruct) public sellList;  //same as above but for sell orders\n    uint256 public buyListKey;\n    uint256 public sellListKey;\n\n    uint256[] internal buyListHeap;\n    uint256[] internal sellListHeap;\n\n//*****************************************************************//\n//*******************  maxheap Functions (buyList) ****************//\n//*****************************************************************//    \n\n//*******************  insertBid() ***************************//\n    //the new item will be added to the end of the array list (a buy order is submitted)\n    //then heapified up with a call to heapifyUp method\n    function insertBid (address sender, uint256 price, uint256 volume, uint256 auxprice) external \n    {\n        OrderStruct memory neworder = OrderStruct(msg.sender, price, volume, true, auxprice);\n        buyList[buyListKey] = neworder;\n        buyListHeap.push(buyListKey);\n        buyListKey++;\n        maxheapHeapifyUp ();\n        \n    }\n\n//*******************  maxheapHeapifyUp () ***************************//\n    //this function is called everytime we insert a new element to the end of the array (aka a new Buy order is submitted) and\n    //now the heap has to be sorted again\n    function maxheapHeapifyUp () internal returns (bool) {\n    \n        uint256 k = buyListHeap.length - 1;                   //k is set to be the last entry of the array (also heap) which is the element that's just added and has to be moved up\n        while (k > 0){                                  //while we havent reached to the top of the heap\n            uint256 p = (k-1)/2;                           //we need to compute the parent of this last element which is p = (k-1)/2\n            if (buyList[buyListHeap[k]].AuxPrice > buyList[buyListHeap[p]].AuxPrice) \n            {   \n                uint256 temp = buyListHeap[k];    //swap the element at index k with its parent\n                buyListHeap[k] = buyListHeap[p];\n                buyListHeap[p] = temp;\n                k = p;                                  //k moves up one level\n            }\n            else {break;}                               //if not the break statement exits the loop (it continues until no element index k is not greater than its parent)\n        }\n        return true;\n    }\n//******************** buyListMaxDelete() function ********************//    \n    //the highest priority item will be removed from the list and is returned by the function\n    //then the heap is reordered uising the heapifyDown method\n    function buyListMaxDelete() external returns (uint256, address)\n    {\n        require (buyListHeap.length != 0, 'buyList is empty!');                            //the delete function throws exception if the heap is empty\n        \n        \n        if (buyListHeap.length == 1) {                                      //if the heap has only one items\n\n            uint256 _price =  buyList[buyListHeap[0]].Price;\n            address _sender =  buyList[buyListHeap[0]].Sender;\n            delete buyList[buyListHeap[0]];\n            buyListHeap.pop();                                                 //the only element of the heap is removed and returned \n            buyListKey--;\n            return (_price, _sender);     \n       \n        }\n\n        //if neither of these conditions are true, then there are at least 2 items in the heap and deletion proceeds\n        \n        uint256 _price =  buyList[buyListHeap[0]].Price;\n        address _sender =  buyList[buyListHeap[0]].Sender;\n        delete buyList[buyListHeap[0]];\n        buyListHeap[0] = buyListHeap[buyListHeap.length -1]; //the last elementof the heap is removed and written into the first position\n        buyListHeap.pop();\n        maxheapHeapifyDown(); //now the siftdown is called\n        buyListKey--;\n        return (_price, _sender);  \n    }\n//*******************  maxheapHeapifyDown () ***************************//\n    //when we want to remove an element from the heap we remove the root of the heap and add the last item\n    //to the root and reorder the heap again\n    function maxheapHeapifyDown () internal returns (bool)\n    {\n        uint256 k =0;\n        uint256 leftchild = 2*k + 1;\n        while (leftchild < buyListHeap.length)\n        {                                   //as long as the left child is within the array that heap is stored in\n            uint256 max = leftchild;\n            uint256 rightchild = leftchild + 1;                                     //rightchild = 2k+2\n\n            if (rightchild < buyListHeap.length)                                       //if there is a rightchild\n            {\n                if (buyList[buyListHeap[rightchild]].AuxPrice > buyList[buyListHeap[leftchild]].AuxPrice)    //then the right child and left child are compared\n                {\n                    max++;                                                       //now max is set to rightchild, otherwise max remains to be the leftchild\n                }\n            }\n\n        if (buyList[buyListHeap[k]].AuxPrice < buyList[buyListHeap[max]].AuxPrice)                        //compares the k item with the max item and if k is smaller than its greatest children they are swapped\n        {\n            uint256 temp = buyListHeap[k];    //swap the element at index k with its parent\n            buyListHeap[k] = buyListHeap[max];\n            buyListHeap[max] = temp;\n            k = max;                                                         //k is set to max\n            leftchild =2*k + 1;                                              //l is recompuetd in preparation for the next iteration\n        }\n        else{                                                               //if the k item is not smaller than the max item, heapifyDown should stop\n            break;\n            }\n        }\n        return true;\n    }\n//****************   buyListMaxPrice()  *********************//\n    //BuyListpeak function returns the price of the highest priority element (The highest bid)\n    function buyListMaxPrice() external  returns (uint256){\n        \n        require (buyListHeap.length != 0, 'buyList is empty!'); //throws exception if the maxheap (buyList) is empty\n        return (buyList[buyListHeap[0]].Price);\n        \n    }\n//****************   buyListMaxSender()  *********************//\n    //BuyListpeak function returns the sender of the highest priority element (The highest bid)\n    function buyListMaxSender() external  returns (address){\n        \n        require (buyListHeap.length != 0, 'buyList is empty!'); //throws exception if the maxheap (buyList) is empty\n        return (buyList[buyListHeap[0]].Sender);\n        \n    }\n//****************   buyListisEmpty()  *********************//\n    //checks if the buyList is empty\n    function buyListisEmpty() external returns (bool){\n        \n        if (buyListHeap.length == 0)\n        {\n            return true;\n\n        }\n        else\n        {\n            return false;\n        }\n        \n    }\n//*****************************************************************//\n//*******************  minheap Functions (sellList) ****************//\n//*****************************************************************//\n\n//*******************  insertAsk() ***************************//\n    //the new item will be added to the end of the array list (a sell order is submitted)\n    //then heapified up with a call to heapifyUp method\n    function insertAsk (address sender, uint256 price, uint256 volume, uint256 auxprice) external  \n    {\n        OrderStruct memory neworder = OrderStruct(msg.sender, price, volume, true, auxprice);\n        sellList[sellListKey] = neworder;\n        sellListHeap.push(sellListKey);\n        sellListKey++;\n        minheapHeapifyUp();\n       \n    }    \n//*******************  minheapHeapifyUp () ***************************//\n    //this function is called everytime we insert a new element to the end of the array (aka a new sell order is submitted) and\n    //now the heap has to be sorted again\n    function minheapHeapifyUp () internal returns (bool) {\n\n        uint256 k = sellListHeap.length - 1; //k is set to be the last entry of the array(also heap) which is the element that's just added and has to be moved up\n        while (k > 0){                                      //while we havent reached to the top of the heap\n            uint256 p = (k-1)/2;                            //we need to compute the parent of this last element which is p = (k-1)/2\n            if (sellList[sellListHeap[k]].AuxPrice < sellList[sellListHeap[p]].AuxPrice) //if the element is greater than its parent\n            { \n            \n                uint256 temp = sellListHeap[k];    //swap the element at index k with its parent\n                sellListHeap[k] = sellListHeap[p];\n                sellListHeap[p] = temp;\n                \n                k = p; //k moves up one level\n            }\n            else {break;} //if not the break statement exits the loop (it continues until no element index k is not greater than its parent)\n        }\n        \n        return true;\n    }\n//*******************  sellListMaxDelete () ***************************//\n    //the highest priority item (the smallest ask) will be removed from the list and is returned by the function\n    //then the heap is reordered uising the heapifyDown method\n    function sellListMaxDelete() external returns (uint256, address)\n    {\n        require (sellListHeap.length != 0, 'buyList is empty!');                      //the delete function throws exception if the heap is empty\n        \n        \n        if (sellListHeap.length == 1) {                               // if the heap has only one item\n            \n            uint256 _price =  sellList[sellListHeap[0]].Price;\n            address _sender =  sellList[sellListHeap[0]].Sender;\n            delete sellList[sellListHeap[0]];\n            sellListHeap.pop();                                   //the only element of the heap is removed and returned  \n            sellListKey --;\n            return (_price, _sender);\n        }\n\n        //if neither of these conditions are true, then there are at least 2 items in the heap and deletion proceeds\n      \n        uint256 _price =  sellList[sellListHeap[0]].Price;\n        address _sender =  sellList[sellListHeap[0]].Sender;\n        delete sellList[sellListHeap[0]];\n        sellListHeap[0] = sellListHeap[sellListHeap.length -1];                      //the last elementof the heap is removed and written into the first position\n        sellListHeap.pop(); \n        minheapHeapifyDown();                           //now the heapifyDown is called to restore the ordering of the heap \n        sellListKey --;\n        return (_price, _sender);    \n    }\n//*******************  minheapHeapifyDown () ***************************//\n    //when we want to remove an element from the heap we remove the root of the heap and add the last item\n    //to the root and reorder the heap again\n    function minheapHeapifyDown () internal  returns (bool) {\n        uint256 k =0;\n        uint256 leftchild = 2*k + 1;\n        while (leftchild < sellListHeap.length){               //as long as the left child is within the array that heap is stored in\n            uint256 min = leftchild;\n            uint256 rightchild = leftchild + 1;              //rightchild = 2k+2\n\n            if (rightchild < sellListHeap.length)                //if there is a rightchild, then the right child and left child are compared\n            {\n                if (sellList[sellListHeap[rightchild]].AuxPrice < sellList[sellListHeap[leftchild]].AuxPrice)\n                {    min++;   }                               //now min is set to rightchild, otherwise min remains to be the leftchild\n            }\n\n            if (sellList[sellListHeap[min]].AuxPrice < sellList[sellListHeap[k]].AuxPrice) //compares the k item with the max item and if its less they are swapped\n            {\n                \n                uint256 temp = sellListHeap[k];    //swap the element at index k with its parent\n                sellListHeap[k] = sellListHeap[min];\n                sellListHeap[min] = temp;\n\n                k = min; //k is set to min\n                leftchild = 2*k + 1; //l is recompuetd in preparation for the next iteration\n            }\n            else{ //if k item's smaller childer is not smaller than k item itself, heapifyDown should stop\n                break;\n            }\n\n        }\n        return true;\n    }\n//****************   sellListMaxPrice()  *********************//\n    //SellListpeak function returns the price of the highest priority element (The Lowest ask)\n    function sellListMaxPrice() external  returns (uint256){\n        \n        require (sellListHeap.length != 0, 'sellList is empty!'); //throws exception if the minheap (sellList) is empty\n        return (sellList[sellListHeap[0]].Price);\n    }\n//****************   sellListMaxSender()  *********************//\n    //SellListpeak function returns the sender of the highest priority element (The Lowest ask)\n    function sellListMaxSender() external  returns (address){\n        \n        require (sellListHeap.length != 0, 'sellList is empty!'); //throws exception if the minheap (sellList) is empty\n        return (sellList[sellListHeap[0]].Sender);\n    }\n//****************   sellListisEmpty()  *********************//\n    //checks if the sellList is empty\n    function sellListisEmpty() external returns (bool){\n        \n        if (sellListHeap.length == 0)\n        {\n            return true;\n\n        }\n        else\n        {\n            return false;\n        }\n        \n    }\n\n\n\n\n}",
  "sourcePath": "/home/mahsa/ProjectRepo/2020-Orderbook/Code/New-Truffle/contracts/CallMarket/Priority_Queues/HeapMapping.sol",
  "compiler": {
    "name": "solc",
    "version": "0.5.16+commit.9c3226ce.Emscripten.clang"
  },
  "schemaVersion": "3.2.5",
  "updatedAt": "2020-09-15T15:37:50.113Z",
  "devdoc": {
    "methods": {}
  },
  "userdoc": {
    "methods": {}
  }
}