{
  "contractName": "HeapStaticArray",
  "abi": [
    {
      "inputs": [
        {
          "internalType": "uint256",
          "name": "_MAXORDERS",
          "type": "uint256"
        }
      ],
      "payable": false,
      "stateMutability": "nonpayable",
      "type": "constructor"
    },
    {
      "constant": true,
      "inputs": [],
      "name": "buyIndex",
      "outputs": [
        {
          "internalType": "uint256",
          "name": "",
          "type": "uint256"
        }
      ],
      "payable": false,
      "stateMutability": "view",
      "type": "function"
    },
    {
      "constant": true,
      "inputs": [],
      "name": "maxOrders",
      "outputs": [
        {
          "internalType": "uint256",
          "name": "",
          "type": "uint256"
        }
      ],
      "payable": false,
      "stateMutability": "view",
      "type": "function"
    },
    {
      "constant": true,
      "inputs": [],
      "name": "sellIndex",
      "outputs": [
        {
          "internalType": "uint256",
          "name": "",
          "type": "uint256"
        }
      ],
      "payable": false,
      "stateMutability": "view",
      "type": "function"
    },
    {
      "constant": false,
      "inputs": [
        {
          "internalType": "address",
          "name": "sender",
          "type": "address"
        },
        {
          "internalType": "uint256",
          "name": "price",
          "type": "uint256"
        },
        {
          "internalType": "uint256",
          "name": "volume",
          "type": "uint256"
        },
        {
          "internalType": "uint256",
          "name": "auxprice",
          "type": "uint256"
        }
      ],
      "name": "insertBid",
      "outputs": [],
      "payable": false,
      "stateMutability": "nonpayable",
      "type": "function"
    },
    {
      "constant": false,
      "inputs": [],
      "name": "buyListMaxDelete",
      "outputs": [
        {
          "internalType": "uint256",
          "name": "",
          "type": "uint256"
        },
        {
          "internalType": "address",
          "name": "",
          "type": "address"
        }
      ],
      "payable": false,
      "stateMutability": "nonpayable",
      "type": "function"
    },
    {
      "constant": false,
      "inputs": [],
      "name": "buyListMaxPrice",
      "outputs": [
        {
          "internalType": "uint256",
          "name": "",
          "type": "uint256"
        }
      ],
      "payable": false,
      "stateMutability": "nonpayable",
      "type": "function"
    },
    {
      "constant": false,
      "inputs": [],
      "name": "buyListMaxSender",
      "outputs": [
        {
          "internalType": "address",
          "name": "",
          "type": "address"
        }
      ],
      "payable": false,
      "stateMutability": "nonpayable",
      "type": "function"
    },
    {
      "constant": false,
      "inputs": [],
      "name": "buyListisEmpty",
      "outputs": [
        {
          "internalType": "bool",
          "name": "",
          "type": "bool"
        }
      ],
      "payable": false,
      "stateMutability": "nonpayable",
      "type": "function"
    },
    {
      "constant": false,
      "inputs": [
        {
          "internalType": "address",
          "name": "sender",
          "type": "address"
        },
        {
          "internalType": "uint256",
          "name": "price",
          "type": "uint256"
        },
        {
          "internalType": "uint256",
          "name": "volume",
          "type": "uint256"
        },
        {
          "internalType": "uint256",
          "name": "auxprice",
          "type": "uint256"
        }
      ],
      "name": "insertAsk",
      "outputs": [],
      "payable": false,
      "stateMutability": "nonpayable",
      "type": "function"
    },
    {
      "constant": false,
      "inputs": [],
      "name": "sellListMaxPrice",
      "outputs": [
        {
          "internalType": "uint256",
          "name": "",
          "type": "uint256"
        }
      ],
      "payable": false,
      "stateMutability": "nonpayable",
      "type": "function"
    },
    {
      "constant": false,
      "inputs": [],
      "name": "sellListMaxSender",
      "outputs": [
        {
          "internalType": "address",
          "name": "",
          "type": "address"
        }
      ],
      "payable": false,
      "stateMutability": "nonpayable",
      "type": "function"
    },
    {
      "constant": false,
      "inputs": [],
      "name": "sellListisEmpty",
      "outputs": [
        {
          "internalType": "bool",
          "name": "",
          "type": "bool"
        }
      ],
      "payable": false,
      "stateMutability": "nonpayable",
      "type": "function"
    },
    {
      "constant": false,
      "inputs": [],
      "name": "sellListMaxDelete",
      "outputs": [
        {
          "internalType": "uint256",
          "name": "",
          "type": "uint256"
        },
        {
          "internalType": "address",
          "name": "",
          "type": "address"
        }
      ],
      "payable": false,
      "stateMutability": "nonpayable",
      "type": "function"
    }
  ],
  "bytecode": "0x608060405234801561001057600080fd5b506040516120a23803806120a28339818101604052602081101561003357600080fd5b810190808051906020019092919050505080600081905550506120478061005b6000396000f3fe608060405234801561001057600080fd5b50600436106100cf5760003560e01c806391447d321161008c578063d00ec61711610066578063d00ec61714610330578063d9fa92531461034e578063efc77ff61461036c578063f009716c1461038a576100cf565b806391447d321461025b578063a78b7907146102ac578063cc0ba6701461030e576100cf565b80631b44d8d0146100d4578063211b0d3c146101255780632fda96141461014757806343f2bbfd14610191578063502f8609146101db5780639105bb5b1461023d575b600080fd5b6100dc6103a8565b604051808381526020018273ffffffffffffffffffffffffffffffffffffffff1673ffffffffffffffffffffffffffffffffffffffff1681526020019250505060405180910390f35b61012d610899565b604051808215151515815260200191505060405180910390f35b61014f6108d3565b604051808273ffffffffffffffffffffffffffffffffffffffff1673ffffffffffffffffffffffffffffffffffffffff16815260200191505060405180910390f35b6101996109a5565b604051808273ffffffffffffffffffffffffffffffffffffffff1673ffffffffffffffffffffffffffffffffffffffff16815260200191505060405180910390f35b61023b600480360360808110156101f157600080fd5b81019080803573ffffffffffffffffffffffffffffffffffffffff169060200190929190803590602001909291908035906020019092919080359060200190929190505050610a77565b005b610245610c49565b6040518082815260200191505060405180910390f35b610263610cfb565b604051808381526020018273ffffffffffffffffffffffffffffffffffffffff1673ffffffffffffffffffffffffffffffffffffffff1681526020019250505060405180910390f35b61030c600480360360808110156102c257600080fd5b81019080803573ffffffffffffffffffffffffffffffffffffffff1690602001909291908035906020019092919080359060200190929190803590602001909291905050506111ed565b005b6103166113bf565b604051808215151515815260200191505060405180910390f35b6103386113f9565b6040518082815260200191505060405180910390f35b6103566114ab565b6040518082815260200191505060405180910390f35b6103746114b1565b6040518082815260200191505060405180910390f35b6103926114b8565b6040518082815260200191505060405180910390f35b60008060016000602a81106103b957fe5b6005020160030160009054906101000a900460ff1615610441576040517f08c379a00000000000000000000000000000000000000000000000000000000081526004018080602001828103825260118152602001807f6275794c69737420697320656d7074792100000000000000000000000000000081525060200191505060405180910390fd5b60006101a654141561051657600060016000602a811061045d57fe5b60050201600101549050600060016000602a811061047757fe5b6005020160000160009054906101000a900473ffffffffffffffffffffffffffffffffffffffff16905060016000602a81106104af57fe5b60050201600080820160006101000a81549073ffffffffffffffffffffffffffffffffffffffff0219169055600182016000905560028201600090556003820160006101000a81549060ff0219169055600482016000905550508181935093505050610895565b60016101a65414156106d657600060016000602a811061053257fe5b60050201600101549050600060016000602a811061054c57fe5b6005020160000160009054906101000a900473ffffffffffffffffffffffffffffffffffffffff169050600180602a811061058357fe5b6005020160016000602a811061059557fe5b600502016000820160009054906101000a900473ffffffffffffffffffffffffffffffffffffffff168160000160006101000a81548173ffffffffffffffffffffffffffffffffffffffff021916908373ffffffffffffffffffffffffffffffffffffffff16021790555060018201548160010155600282015481600201556003820160009054906101000a900460ff168160030160006101000a81548160ff02191690831515021790555060048201548160040155905050600180602a811061065b57fe5b60050201600080820160006101000a81549073ffffffffffffffffffffffffffffffffffffffff0219169055600182016000905560028201600090556003820160006101000a81549060ff0219169055600482016000905550506101a660008154809291906001900391905055508181935093505050610895565b600060016000602a81106106e657fe5b60050201600101549050600060016000602a811061070057fe5b6005020160000160009054906101000a900473ffffffffffffffffffffffffffffffffffffffff16905060016101a654602a811061073a57fe5b6005020160016000602a811061074c57fe5b600502016000820160009054906101000a900473ffffffffffffffffffffffffffffffffffffffff168160000160006101000a81548173ffffffffffffffffffffffffffffffffffffffff021916908373ffffffffffffffffffffffffffffffffffffffff16021790555060018201548160010155600282015481600201556003820160009054906101000a900460ff168160030160006101000a81548160ff0219169083151502179055506004820154816004015590505060016101a654602a811061081557fe5b60050201600080820160006101000a81549073ffffffffffffffffffffffffffffffffffffffff0219169055600182016000905560028201600090556003820160006101000a81549060ff0219169055600482016000905550506101a6600081548092919060019003919050555061088b6114bf565b5081819350935050505b9091565b600060016000602a81106108a957fe5b6005020160030160009054906101000a900460ff166108cb57600190506108d0565b600090505b90565b600060d36000602a81106108e357fe5b6005020160030160009054906101000a900460ff1661096a576040517f08c379a00000000000000000000000000000000000000000000000000000000081526004018080602001828103825260128152602001807f73656c6c4c69737420697320656d70747921000000000000000000000000000081525060200191505060405180910390fd5b60d36000602a811061097857fe5b6005020160000160009054906101000a900473ffffffffffffffffffffffffffffffffffffffff16905090565b600060016000602a81106109b557fe5b6005020160030160009054906101000a900460ff16610a3c576040517f08c379a00000000000000000000000000000000000000000000000000000000081526004018080602001828103825260118152602001807f6275794c69737420697320656d7074792100000000000000000000000000000081525060200191505060405180910390fd5b60016000602a8110610a4a57fe5b6005020160000160009054906101000a900473ffffffffffffffffffffffffffffffffffffffff16905090565b610a7f611fcb565b6040518060a001604052808673ffffffffffffffffffffffffffffffffffffffff16815260200185815260200184815260200160011515815260200183815250905060016000602a8110610acf57fe5b6005020160030160009054906101000a900460ff16610b88578060016000602a8110610af757fe5b6005020160008201518160000160006101000a81548173ffffffffffffffffffffffffffffffffffffffff021916908373ffffffffffffffffffffffffffffffffffffffff160217905550602082015181600101556040820151816002015560608201518160030160006101000a81548160ff02191690831515021790555060808201518160040155905050610c42565b6101a6600081548092919060010191905055508060016101a654602a8110610bac57fe5b6005020160008201518160000160006101000a81548173ffffffffffffffffffffffffffffffffffffffff021916908373ffffffffffffffffffffffffffffffffffffffff160217905550602082015181600101556040820151816002015560608201518160030160006101000a81548160ff02191690831515021790555060808201518160040155905050610c406117ad565b505b5050505050565b600060d36000602a8110610c5957fe5b6005020160030160009054906101000a900460ff16610ce0576040517f08c379a00000000000000000000000000000000000000000000000000000000081526004018080602001828103825260128152602001807f73656c6c4c69737420697320656d70747921000000000000000000000000000081525060200191505060405180910390fd5b60d36000602a8110610cee57fe5b6005020160010154905090565b60008060d36000602a8110610d0c57fe5b6005020160030160009054906101000a900460ff16610d93576040517f08c379a00000000000000000000000000000000000000000000000000000000081526004018080602001828103825260128152602001807f73656c6c4c69737420697320656d70747921000000000000000000000000000081525060200191505060405180910390fd5b60006101a5541415610e6857600060d36000602a8110610daf57fe5b60050201600101549050600060d36000602a8110610dc957fe5b6005020160000160009054906101000a900473ffffffffffffffffffffffffffffffffffffffff16905060d36000602a8110610e0157fe5b60050201600080820160006101000a81549073ffffffffffffffffffffffffffffffffffffffff0219169055600182016000905560028201600090556003820160006101000a81549060ff02191690556004820160009055505081819350935050506111e9565b60016101a554141561102a57600060d36000602a8110610e8457fe5b60050201600101549050600060d36000602a8110610e9e57fe5b6005020160000160009054906101000a900473ffffffffffffffffffffffffffffffffffffffff16905060d36001602a8110610ed657fe5b6005020160d36000602a8110610ee857fe5b600502016000820160009054906101000a900473ffffffffffffffffffffffffffffffffffffffff168160000160006101000a81548173ffffffffffffffffffffffffffffffffffffffff021916908373ffffffffffffffffffffffffffffffffffffffff16021790555060018201548160010155600282015481600201556003820160009054906101000a900460ff168160030160006101000a81548160ff0219169083151502179055506004820154816004015590505060d36001602a8110610faf57fe5b60050201600080820160006101000a81549073ffffffffffffffffffffffffffffffffffffffff0219169055600182016000905560028201600090556003820160006101000a81549060ff0219169055600482016000905550506101a5600081548092919060019003919050555081819350935050506111e9565b600060d36000602a811061103a57fe5b60050201600101549050600060d36000602a811061105457fe5b6005020160000160009054906101000a900473ffffffffffffffffffffffffffffffffffffffff16905060d36101a554602a811061108e57fe5b6005020160d36000602a81106110a057fe5b600502016000820160009054906101000a900473ffffffffffffffffffffffffffffffffffffffff168160000160006101000a81548173ffffffffffffffffffffffffffffffffffffffff021916908373ffffffffffffffffffffffffffffffffffffffff16021790555060018201548160010155600282015481600201556003820160009054906101000a900460ff168160030160006101000a81548160ff0219169083151502179055506004820154816004015590505060d36101a554602a811061116957fe5b60050201600080820160006101000a81549073ffffffffffffffffffffffffffffffffffffffff0219169055600182016000905560028201600090556003820160006101000a81549060ff0219169055600482016000905550506101a560008154809291906001900391905055506111df611a45565b5081819350935050505b9091565b6111f5611fcb565b6040518060a001604052808673ffffffffffffffffffffffffffffffffffffffff16815260200185815260200184815260200160011515815260200183815250905060d36000602a811061124557fe5b6005020160030160009054906101000a900460ff166112fe578060d36000602a811061126d57fe5b6005020160008201518160000160006101000a81548173ffffffffffffffffffffffffffffffffffffffff021916908373ffffffffffffffffffffffffffffffffffffffff160217905550602082015181600101556040820151816002015560608201518160030160006101000a81548160ff021916908315150217905550608082015181600401559050506113b8565b6101a5600081548092919060010191905055508060d36101a554602a811061132257fe5b6005020160008201518160000160006101000a81548173ffffffffffffffffffffffffffffffffffffffff021916908373ffffffffffffffffffffffffffffffffffffffff160217905550602082015181600101556040820151816002015560608201518160030160006101000a81548160ff021916908315150217905550608082015181600401559050506113b6611d33565b505b5050505050565b600060d36000602a81106113cf57fe5b6005020160030160009054906101000a900460ff166113f157600190506113f6565b600090505b90565b600060016000602a811061140957fe5b6005020160030160009054906101000a900460ff16611490576040517f08c379a00000000000000000000000000000000000000000000000000000000081526004018080602001828103825260118152602001807f6275794c69737420697320656d7074792100000000000000000000000000000081525060200191505060405180910390fd5b60016000602a811061149e57fe5b6005020160010154905090565b60005481565b6101a65481565b6101a55481565b6000806000905060006001826002020190505b6101a65481116117a457600081905060006001830190506101a65481101561152e57600183602a811061150157fe5b6005020160040154600182602a811061151657fe5b6005020160040154111561152d5781806001019250505b5b600182602a811061153b57fe5b6005020160040154600185602a811061155057fe5b6005020160040154101561179657611566611fcb565b600185602a811061157357fe5b600502016040518060a00160405290816000820160009054906101000a900473ffffffffffffffffffffffffffffffffffffffff1673ffffffffffffffffffffffffffffffffffffffff1673ffffffffffffffffffffffffffffffffffffffff16815260200160018201548152602001600282015481526020016003820160009054906101000a900460ff161515151581526020016004820154815250509050600183602a811061162057fe5b60050201600186602a811061163157fe5b600502016000820160009054906101000a900473ffffffffffffffffffffffffffffffffffffffff168160000160006101000a81548173ffffffffffffffffffffffffffffffffffffffff021916908373ffffffffffffffffffffffffffffffffffffffff16021790555060018201548160010155600282015481600201556003820160009054906101000a900460ff168160030160006101000a81548160ff0219169083151502179055506004820154816004015590505080600184602a81106116f857fe5b6005020160008201518160000160006101000a81548173ffffffffffffffffffffffffffffffffffffffff021916908373ffffffffffffffffffffffffffffffffffffffff160217905550602082015181600101556040820151816002015560608201518160030160006101000a81548160ff021916908315150217905550608082015181600401559050508294506001856002020193505061179d565b50506117a4565b50506114d2565b60019250505090565b6000806101a65490505b6000811115611a3d576000600260018303816117cf57fe5b049050600181602a81106117df57fe5b6005020160040154600183602a81106117f457fe5b60050201600401541115611a315761180a611fcb565b600183602a811061181757fe5b600502016040518060a00160405290816000820160009054906101000a900473ffffffffffffffffffffffffffffffffffffffff1673ffffffffffffffffffffffffffffffffffffffff1673ffffffffffffffffffffffffffffffffffffffff16815260200160018201548152602001600282015481526020016003820160009054906101000a900460ff161515151581526020016004820154815250509050600182602a81106118c457fe5b60050201600184602a81106118d557fe5b600502016000820160009054906101000a900473ffffffffffffffffffffffffffffffffffffffff168160000160006101000a81548173ffffffffffffffffffffffffffffffffffffffff021916908373ffffffffffffffffffffffffffffffffffffffff16021790555060018201548160010155600282015481600201556003820160009054906101000a900460ff168160030160006101000a81548160ff0219169083151502179055506004820154816004015590505080600183602a811061199c57fe5b6005020160008201518160000160006101000a81548173ffffffffffffffffffffffffffffffffffffffff021916908373ffffffffffffffffffffffffffffffffffffffff160217905550602082015181600101556040820151816002015560608201518160030160006101000a81548160ff0219169083151502179055506080820151816004015590505081925050611a37565b50611a3d565b506117b7565b600191505090565b6000806000905060006001826002020190505b6101a5548111611d2a57600081905060006001830190506101a554811015611ab45760d383602a8110611a8757fe5b600502016004015460d382602a8110611a9c57fe5b60050201600401541015611ab35781806001019250505b5b60d384602a8110611ac157fe5b600502016004015460d383602a8110611ad657fe5b60050201600401541015611d1c57611aec611fcb565b60d385602a8110611af957fe5b600502016040518060a00160405290816000820160009054906101000a900473ffffffffffffffffffffffffffffffffffffffff1673ffffffffffffffffffffffffffffffffffffffff1673ffffffffffffffffffffffffffffffffffffffff16815260200160018201548152602001600282015481526020016003820160009054906101000a900460ff16151515158152602001600482015481525050905060d383602a8110611ba657fe5b6005020160d386602a8110611bb757fe5b600502016000820160009054906101000a900473ffffffffffffffffffffffffffffffffffffffff168160000160006101000a81548173ffffffffffffffffffffffffffffffffffffffff021916908373ffffffffffffffffffffffffffffffffffffffff16021790555060018201548160010155600282015481600201556003820160009054906101000a900460ff168160030160006101000a81548160ff021916908315150217905550600482015481600401559050508060d384602a8110611c7e57fe5b6005020160008201518160000160006101000a81548173ffffffffffffffffffffffffffffffffffffffff021916908373ffffffffffffffffffffffffffffffffffffffff160217905550602082015181600101556040820151816002015560608201518160030160006101000a81548160ff0219169083151502179055506080820151816004015590505082945060018560020201935050611d23565b5050611d2a565b5050611a58565b60019250505090565b6000806101a55490505b6000811115611fc357600060026001830381611d5557fe5b04905060d381602a8110611d6557fe5b600502016004015460d383602a8110611d7a57fe5b60050201600401541015611fb757611d90611fcb565b60d383602a8110611d9d57fe5b600502016040518060a00160405290816000820160009054906101000a900473ffffffffffffffffffffffffffffffffffffffff1673ffffffffffffffffffffffffffffffffffffffff1673ffffffffffffffffffffffffffffffffffffffff16815260200160018201548152602001600282015481526020016003820160009054906101000a900460ff16151515158152602001600482015481525050905060d382602a8110611e4a57fe5b6005020160d384602a8110611e5b57fe5b600502016000820160009054906101000a900473ffffffffffffffffffffffffffffffffffffffff168160000160006101000a81548173ffffffffffffffffffffffffffffffffffffffff021916908373ffffffffffffffffffffffffffffffffffffffff16021790555060018201548160010155600282015481600201556003820160009054906101000a900460ff168160030160006101000a81548160ff021916908315150217905550600482015481600401559050508060d383602a8110611f2257fe5b6005020160008201518160000160006101000a81548173ffffffffffffffffffffffffffffffffffffffff021916908373ffffffffffffffffffffffffffffffffffffffff160217905550602082015181600101556040820151816002015560608201518160030160006101000a81548160ff0219169083151502179055506080820151816004015590505081925050611fbd565b50611fc3565b50611d3d565b600191505090565b6040518060a00160405280600073ffffffffffffffffffffffffffffffffffffffff168152602001600081526020016000815260200160001515815260200160008152509056fea265627a7a723158205ce5dd267566103e6d66bf0254599749fb7a8f5ca0a5c873adca3a43688a644864736f6c63430005100032",
  "source": "//pragma solidity 0.5.12;\npragma solidity >=0.4.22;\n//Heap with static array wrapped in a priority queue\n\ncontract HeapStaticArray{\n    \n    constructor (uint256 _MAXORDERS) public\n    {\n        maxOrders = _MAXORDERS;\n    }\n\n/**\n*   @dev \n    Order structs with its element:\n        Sender: The address of the trader submitting the order\n        Price: The price of the order\n        Volume: The volume of the order, it is considered 1 by now\n        AuxPrice: The contcantenation of the order's price and the counter which helps to sort the heap when there are ties\n    buyList: The array that contains bid OrderStructs, it is a maxheap (decrementally ordered)\n    sellList: The array that contains ask OrderStructs, it is a minheap (incrementally ordered)\n*/\n\n//Every order has some attributes:\n    struct OrderStruct \n    {\n        address Sender;\n        uint256 Price;\n        uint256 Volume;     //The volume is 1 for now\n        bool Exists;\n        uint256 AuxPrice;   //This is not the real price of the order, it's the contcantenation of the real price and the counter which helps to sort the heap wehen there are ties\n\n        \n    }\n    uint256 public maxOrders;\n    OrderStruct[42] internal buyList;  //The array that contains Bid OrderStructs (descending (decremental)), we always want the highest bid (maxheap)\n    OrderStruct[42] internal sellList; //The array that contains Ask OrderStructs (ascending (incremental)), we always want the lowest ask (minheap)\n    uint256 public sellIndex;\n    uint256 public buyIndex;\n\n//*****************************************************************//\n//*******************  maxheap Functions (buyList) ****************//\n//*****************************************************************//\n\n//*******************  insertBid() ***************************//\n    //the new item will be added to the end of the array list (a buy order is submitted)\n    //then heapified up with a call to heapifyUp method\n    function insertBid (address sender, uint256 price, uint256 volume, uint256 auxprice) external \n    {\n        OrderStruct memory neworder = OrderStruct(sender, price , volume, true, auxprice);\n\n        if (!buyList[0].Exists)\n        {\n            buyList[0] = neworder; \n        }\n       else{\n            buyIndex ++;\n            buyList[buyIndex] = neworder;\n            maxheapHeapifyUp ();\n        }  \n        \n    }    \n//*******************  maxheapHeapifyUp () ***************************//\n    //this function is called everytime we insert a new element to the end of the array (aka a new Buy order is submitted) and\n    //now the heap has to be sorted again\n    function maxheapHeapifyUp () internal returns (bool) {\n\n        uint256 k = buyIndex;                   //k is set to be the last entry of the array (also heap) which is the element that's just added and has to be moved up\n        while (k > 0){                                  //while we havent reached to the top of the heap\n            uint256 p = (k-1)/2;                           //we need to compute the parent of this last element which is p = (k-1)/2\n            if (buyList[k].AuxPrice > buyList[p].AuxPrice) //if the element is greater than its parent\n            {   \n                OrderStruct memory temp = buyList[k];    //swap the element at index k with its parent\n                buyList[k] = buyList[p];\n                buyList[p] = temp;\n                k = p;                                  //k moves up one level\n            }\n            else {break;}                               //if not the break statement exits the loop (it continues until no element index k is not greater than its parent)\n        }\n    \n        return true;\n    }\n\n//******************** buyListMaxDelete() function ********************//    \n    //the highest priority item will be removed from the list and is returned by the function\n    //then the heap is reordered uising the heapifyDown method\n    function buyListMaxDelete() external returns (uint256, address) \n    {   \n        require (!buyList[0].Exists, 'buyList is empty!');   //the delete function throws exception if the list is empty\n        \n        \n        if (buyIndex == 0) \n        {   \n            uint256 _price =  buyList[0].Price;\n            address _sender =  buyList[0].Sender;\n            delete buyList[0];\n            return(_price,_sender);\n\n        }                           \n        if (buyIndex == 1)  //if the heap has two items\n        {                                     \n            uint256 _price =  buyList[0].Price;\n            address _sender =  buyList[0].Sender;                  \n            buyList[0] = buyList[1]; //the first element of the heap is removed \n            delete buyList[1];\n            buyIndex --;\n            return(_price,_sender);\n            \n       \n        }\n        //if neither of these conditions are true, then there are at least 2 items in the heap and deletion proceeds\n        uint256 _price =  buyList[0].Price;\n        address _sender =  buyList[0].Sender;\n        buyList[0] = buyList[buyIndex]; //the last elementof the heap is removed and written into the first position\n        delete buyList[buyIndex];\n        buyIndex--;\n        maxheapHeapifyDown(); //now the siftdown is called\n        return(_price,_sender);\n    }\n\n//*******************  maxheapHeapifyDown () ***************************//\n    //when we want to remove an element from the heap we remove the root of the heap and add the last item\n    //to the root and reorder the heap again\n    function maxheapHeapifyDown () internal \n \n    returns (bool)\n    {\n        uint256 k =0;\n        uint256 leftchild = 2*k + 1;\n        while (leftchild <= buyIndex )\n        {                                   //as long as the left child is within the array that heap is stored in\n            uint256 max = leftchild;\n            uint256 rightchild = leftchild + 1;                                     //rightchild = 2k+2\n\n            if (rightchild < buyIndex )                                       //if there is a rightchild\n            {\n                if (buyList[rightchild].AuxPrice > buyList[leftchild].AuxPrice)    //then the right child and left child are compared\n                {\n                    max++;                                                       //now max is set to rightchild, otherwise max remains to be the leftchild\n                }\n            }\n\n        if (buyList[k].AuxPrice < buyList[max].AuxPrice)                        //compares the k item with the max item and if k is smaller than its greatest children they are swapped\n        {\n            \n            OrderStruct memory temp = buyList[k];    //swap the element at index k with its parent\n            buyList[k] = buyList[max];\n            buyList[max] = temp;\n            k = max;                                                         //k is set to max\n            leftchild =2*k + 1;                                              //l is recompuetd in preparation for the next iteration\n        }\n        else{                                                               //if the k item is not smaller than the max item, heapifyDown should stop\n            break;\n            }\n        }\n        return true;\n    }\n    \n//****************   buyListMaxPrice()  *********************//\n    //BuyListMaxPrice function returns the price of the highest priority element (The highest bid)\n    function buyListMaxPrice() external  returns (uint256){\n        \n        require (buyList[0].Exists, 'buyList is empty!'); //throws exception if the maxheap (buyList) is empty\n        return (buyList[0].Price);\n        \n    }\n//****************   buyListMaxSender()  *********************//\n    //BuyListMaxSender function returns the sender of the highest priority element (The highest bid)\n    function buyListMaxSender() external  returns (address){\n        \n        require (buyList[0].Exists, 'buyList is empty!'); //throws exception if the maxheap (buyList) is empty\n        return (buyList[0].Sender);\n        \n    }\n//****************   buyListisEmpty()  *********************//\n    //checks if the buyList is empty or not \n    function buyListisEmpty() external returns (bool){\n        \n        if (!buyList[0].Exists)\n        {\n            return true;\n\n        }\n        else\n        {\n            return false;\n        }\n        \n    }\n//*****************************************************************//\n//*******************  minheap Functions (sellList) ****************//\n//*****************************************************************//\n\n//*******************  insertAsk () ***************************//\n    //the new item will be added to the end of the array list (a sell order is submitted)\n    //then heapified up with a call to heapifyUp method\n    function insertAsk (address sender, uint256 price, uint256 volume, uint256 auxprice) external  \n    {\n        OrderStruct memory neworder = OrderStruct(sender, price , volume, true, auxprice); \n        \n        if (!sellList[0].Exists)\n        {\n           sellList[0] = neworder;\n           \n        }\n        else\n        {\n            sellIndex ++;\n            sellList[sellIndex] = neworder;\n            minheapHeapifyUp();\n        }\n    \n       \n    }    \n//*******************  minheapHeapifyUp () ***************************//\n    //this function is called everytime we insert a new element to the end of the array (aka a new sell order is submitted) and\n    //now the heap has to be sorted again\n    function minheapHeapifyUp () internal returns (bool) {\n\n        uint256 k = sellIndex ; //k is set to be the last entry of the array(also heap) which is the element that's just added and has to be moved up\n        while (k > 0){                                      //while we havent reached to the top of the heap\n            uint256 p = (k-1)/2;                            //we need to compute the parent of this last element which is p = (k-1)/2\n            if (sellList[k].AuxPrice < sellList[p].AuxPrice) //if the element is greater than its parent\n            { \n            \n                OrderStruct memory temp = sellList[k];    //swap the element at index k with its parent\n                sellList[k] = sellList[p];\n                sellList[p] = temp;\n                \n                k = p; //k moves up one level\n            }\n            else {break;} //if not the break statement exits the loop (it continues until no element index k is not greater than its parent)\n        }\n        \n        return true;\n    }    \n//****************   sellListMaxPrice()  *********************//\n    //SellListMaxPrice function returns the price of the highest priority element (The Lowest ask)\n    function sellListMaxPrice() external  returns (uint256){\n\n        require(sellList[0].Exists,'sellList is empty!'); //throws exception if the minheap (sellList) is empty\n        return (sellList[0].Price);\n    }\n//****************   sellListMaxSender()  *********************//\n    //sellListMaxSender function returns the address of the highest priority element (The Lowest ask)\n    function sellListMaxSender() external  returns (address){\n\n        require(sellList[0].Exists,'sellList is empty!'); //throws exception if the minheap (sellList) is empty\n        return (sellList[0].Sender);\n    }\n//****************   sellListisEmpty()  *********************//\n    //checks if the sellList is empty or not \n    function sellListisEmpty() external returns (bool){\n        \n        if (!sellList[0].Exists)\n        {\n            return true;\n\n        }\n        else\n        {\n            return false;\n        }\n        \n    }\n//*******************  sellListMaxDelete () ***************************//\n    //the highest priority item (the lowest ask) will be removed from the list and is returned by the function\n    //then the heap is reordered uising the heapifyDown method\n    function sellListMaxDelete() external returns (uint256, address)\n    {\n        require(sellList[0].Exists,'sellList is empty!');            //the delete function throws exception if the list is empty\n        \n        \n        if (sellIndex == 0) \n        {\n            uint256 _price =  sellList[0].Price;\n            address _sender =  sellList[0].Sender;\n            delete sellList[0]; \n            return (_price,_sender);\n        }\n            \n        \n        if (sellIndex == 1) {                               // if the heap has only one item\n   \n            uint256 _price =  sellList[0].Price;\n            address _sender =  sellList[0].Sender;\n            sellList[0] = sellList[1];\n            delete sellList[1];                                   //the only element of the heap is removed and returned  \n            sellIndex --;\n            return (_price,_sender);\n        }\n\n        //if neither of these conditions are true, then there are at least 2 items in the heap and deletion proceeds\n      \n        uint256 _price =  sellList[0].Price;\n        address _sender =  sellList[0].Sender;\n        sellList[0] = sellList[sellIndex];                      //the last elementof the heap is removed and written into the first position\n        delete sellList[sellIndex]; \n        sellIndex--;\n        minheapHeapifyDown();                           //now the heapifyDown is called to restore the ordering of the heap \n        return (_price,_sender);\n    }\n//*******************  minheapHeapifyDown () ***************************//\n    //when we want to remove an element from the heap we remove the root of the heap and add the last item\n    //to the root and reorder the heap again\n    function minheapHeapifyDown () internal returns (bool) {\n        uint256 k =0;\n        uint256 leftchild = 2*k + 1;\n        while (leftchild <= sellIndex ){               //as long as the left child is within the array that heap is stored in\n            uint256 min = leftchild;\n            uint256 rightchild = leftchild + 1;              //rightchild = 2k+2\n\n            if (rightchild < sellIndex )                //if there is a rightchild, then the right child and left child are compared\n            {\n                if (sellList[rightchild].AuxPrice < sellList[leftchild].AuxPrice)\n                {    min++;   }                               //now min is set to rightchild, otherwise min remains to be the leftchild\n            }\n\n            if (sellList[min].AuxPrice < sellList[k].AuxPrice) //compares the k item with the max item and if its less they are swapped\n            {\n                \n                OrderStruct memory temp = sellList[k];    //swap the element at index k with its parent\n                sellList[k] = sellList[min];\n                sellList[min] = temp;\n\n                k = min; //k is set to min\n                leftchild = 2*k + 1; //l is recompuetd in preparation for the next iteration\n            }\n            else{ //if k item's smaller childer is not smaller than k item itself, heapifyDown should stop\n                break;\n            }\n\n        }\n        return true;\n    }\n\n\n\n}",
  "sourcePath": "/home/mahsa/ProjectRepo/2020-Orderbook/Code/New-Truffle/contracts/CallMarket/Priority_Queues/HeapStaticArray.sol",
  "compiler": {
    "name": "solc",
    "version": "0.5.16+commit.9c3226ce.Emscripten.clang"
  },
  "schemaVersion": "3.2.5",
  "updatedAt": "2020-09-15T15:37:50.130Z",
  "devdoc": {
    "methods": {}
  },
  "userdoc": {
    "methods": {}
  }
}