{
  "contractName": "PQ4",
  "abi": [
    {
      "inputs": [],
      "payable": false,
      "stateMutability": "nonpayable",
      "type": "constructor"
    },
    {
      "constant": true,
      "inputs": [],
      "name": "First",
      "outputs": [
        {
          "internalType": "contract List",
          "name": "",
          "type": "address"
        }
      ],
      "payable": false,
      "stateMutability": "view",
      "type": "function"
    },
    {
      "constant": false,
      "inputs": [
        {
          "internalType": "uint256",
          "name": "_number",
          "type": "uint256"
        }
      ],
      "name": "Enqueue",
      "outputs": [
        {
          "internalType": "bool",
          "name": "",
          "type": "bool"
        }
      ],
      "payable": false,
      "stateMutability": "nonpayable",
      "type": "function"
    },
    {
      "constant": false,
      "inputs": [],
      "name": "RemoveMax",
      "outputs": [
        {
          "internalType": "uint256",
          "name": "",
          "type": "uint256"
        }
      ],
      "payable": false,
      "stateMutability": "nonpayable",
      "type": "function"
    },
    {
      "constant": false,
      "inputs": [],
      "name": "Dequeue",
      "outputs": [
        {
          "internalType": "uint256",
          "name": "",
          "type": "uint256"
        }
      ],
      "payable": false,
      "stateMutability": "nonpayable",
      "type": "function"
    },
    {
      "constant": false,
      "inputs": [],
      "name": "Peek",
      "outputs": [
        {
          "internalType": "uint256",
          "name": "",
          "type": "uint256"
        }
      ],
      "payable": false,
      "stateMutability": "nonpayable",
      "type": "function"
    },
    {
      "constant": false,
      "inputs": [],
      "name": "isEmpty",
      "outputs": [
        {
          "internalType": "bool",
          "name": "",
          "type": "bool"
        }
      ],
      "payable": false,
      "stateMutability": "nonpayable",
      "type": "function"
    }
  ],
  "bytecode": "0x608060405234801561001057600080fd5b5060008060006101000a81548173ffffffffffffffffffffffffffffffffffffffff021916908373ffffffffffffffffffffffffffffffffffffffff160217905550610ccd806100616000396000f3fe608060405234801561001057600080fd5b50600436106100625760003560e01c80630c4a515c1461006757806327702186146100ad578063681fe70c146100cb5780636dd5fa7b146100ed578063afe6c0961461010b578063b64456a714610155575b600080fd5b6100936004803603602081101561007d57600080fd5b8101908080359060200190929190505050610173565b604051808215151515815260200191505060405180910390f35b6100b56104da565b6040518082815260200191505060405180910390f35b6100d3610501565b604051808215151515815260200191505060405180910390f35b6100f5610569565b6040518082815260200191505060405180910390f35b6101136106d5565b604051808273ffffffffffffffffffffffffffffffffffffffff1673ffffffffffffffffffffffffffffffffffffffff16815260200191505060405180910390f35b61015d6106fa565b6040518082815260200191505060405180910390f35b6000808260405161018390610a2c565b80828152602001915050604051809103906000f0801580156101a9573d6000803e3d6000fd5b50905060008060009054906101000a900473ffffffffffffffffffffffffffffffffffffffff16905060008090505b600073ffffffffffffffffffffffffffffffffffffffff168273ffffffffffffffffffffffffffffffffffffffff161415801561029557508173ffffffffffffffffffffffffffffffffffffffff1663624de7256040518163ffffffff1660e01b815260040160206040518083038186803b15801561025657600080fd5b505afa15801561026a573d6000803e3d6000fd5b505050506040513d602081101561028057600080fd5b81019080805190602001909291905050508511155b15610325578190508173ffffffffffffffffffffffffffffffffffffffff16634c8fe5266040518163ffffffff1660e01b815260040160206040518083038186803b1580156102e357600080fd5b505afa1580156102f7573d6000803e3d6000fd5b505050506040513d602081101561030d57600080fd5b810190808051906020019092919050505091506101d8565b600073ffffffffffffffffffffffffffffffffffffffff168173ffffffffffffffffffffffffffffffffffffffff16141561039f57826000806101000a81548173ffffffffffffffffffffffffffffffffffffffff021916908373ffffffffffffffffffffffffffffffffffffffff160217905550610437565b8073ffffffffffffffffffffffffffffffffffffffff1663d7ef453f846040518263ffffffff1660e01b8152600401808273ffffffffffffffffffffffffffffffffffffffff1673ffffffffffffffffffffffffffffffffffffffff168152602001915050600060405180830381600087803b15801561041e57600080fd5b505af1158015610432573d6000803e3d6000fd5b505050505b8273ffffffffffffffffffffffffffffffffffffffff1663d7ef453f836040518263ffffffff1660e01b8152600401808273ffffffffffffffffffffffffffffffffffffffff1673ffffffffffffffffffffffffffffffffffffffff168152602001915050600060405180830381600087803b1580156104b657600080fd5b505af11580156104ca573d6000803e3d6000fd5b5050505060019350505050919050565b60005b600115156104e9610501565b1515146104fe576104f86106fa565b506104dd565b90565b60008073ffffffffffffffffffffffffffffffffffffffff166000809054906101000a900473ffffffffffffffffffffffffffffffffffffffff1673ffffffffffffffffffffffffffffffffffffffff1614156105615760019050610566565b600090505b90565b60008073ffffffffffffffffffffffffffffffffffffffff166000809054906101000a900473ffffffffffffffffffffffffffffffffffffffff1673ffffffffffffffffffffffffffffffffffffffff16141561062e576040517f08c379a000000000000000000000000000000000000000000000000000000000815260040180806020018281038252600e8152602001807f4c69737420697320656d7074792100000000000000000000000000000000000081525060200191505060405180910390fd5b6000809054906101000a900473ffffffffffffffffffffffffffffffffffffffff1673ffffffffffffffffffffffffffffffffffffffff1663624de7256040518163ffffffff1660e01b815260040160206040518083038186803b15801561069557600080fd5b505afa1580156106a9573d6000803e3d6000fd5b505050506040513d60208110156106bf57600080fd5b8101908080519060200190929190505050905090565b6000809054906101000a900473ffffffffffffffffffffffffffffffffffffffff1681565b60008073ffffffffffffffffffffffffffffffffffffffff166000809054906101000a900473ffffffffffffffffffffffffffffffffffffffff1673ffffffffffffffffffffffffffffffffffffffff1614156107bf576040517f08c379a000000000000000000000000000000000000000000000000000000000815260040180806020018281038252600e8152602001807f4c69737420697320656d7074792100000000000000000000000000000000000081525060200191505060405180910390fd5b6000809054906101000a900473ffffffffffffffffffffffffffffffffffffffff16600160006101000a81548173ffffffffffffffffffffffffffffffffffffffff021916908373ffffffffffffffffffffffffffffffffffffffff1602179055506000809054906101000a900473ffffffffffffffffffffffffffffffffffffffff1673ffffffffffffffffffffffffffffffffffffffff1663fe81dc856040518163ffffffff1660e01b8152600401600060405180830381600087803b15801561088a57600080fd5b505af115801561089e573d6000803e3d6000fd5b50505050600160009054906101000a900473ffffffffffffffffffffffffffffffffffffffff1673ffffffffffffffffffffffffffffffffffffffff16634c8fe5266040518163ffffffff1660e01b815260040160206040518083038186803b15801561090a57600080fd5b505afa15801561091e573d6000803e3d6000fd5b505050506040513d602081101561093457600080fd5b81019080805190602001909291905050506000806101000a81548173ffffffffffffffffffffffffffffffffffffffff021916908373ffffffffffffffffffffffffffffffffffffffff160217905550600160009054906101000a900473ffffffffffffffffffffffffffffffffffffffff1673ffffffffffffffffffffffffffffffffffffffff1663624de7256040518163ffffffff1660e01b815260040160206040518083038186803b1580156109ec57600080fd5b505afa158015610a00573d6000803e3d6000fd5b505050506040513d6020811015610a1657600080fd5b8101908080519060200190929190505050905090565b61025f80610a3a8339019056fe608060405234801561001057600080fd5b5060405161025f38038061025f8339818101604052602081101561003357600080fd5b81019080805190602001909291905050508060018190555060008060006101000a81548173ffffffffffffffffffffffffffffffffffffffff021916908373ffffffffffffffffffffffffffffffffffffffff160217905550506101c38061009c6000396000f3fe608060405234801561001057600080fd5b506004361061004c5760003560e01c80634c8fe52614610051578063624de7251461009b578063d7ef453f146100b9578063fe81dc85146100fd575b600080fd5b610059610107565b604051808273ffffffffffffffffffffffffffffffffffffffff1673ffffffffffffffffffffffffffffffffffffffff16815260200191505060405180910390f35b6100a361012c565b6040518082815260200191505060405180910390f35b6100fb600480360360208110156100cf57600080fd5b81019080803573ffffffffffffffffffffffffffffffffffffffff169060200190929190505050610132565b005b610105610175565b005b6000809054906101000a900473ffffffffffffffffffffffffffffffffffffffff1681565b60015481565b806000806101000a81548173ffffffffffffffffffffffffffffffffffffffff021916908373ffffffffffffffffffffffffffffffffffffffff16021790555050565b4173ffffffffffffffffffffffffffffffffffffffff16fffea265627a7a72315820003b1ca136196903007906599723917ea593808fd953487d21cb60ea07d5c54664736f6c63430005100032a265627a7a72315820ea922cd285135f4a59eff58beaf766e28b9f9d64fce1a98e64731957e4c0a98664736f6c63430005100032",
  "source": "pragma solidity >=0.4.22;\n//pragma experimental ABIEncoderV2;\n\n//Linkedlist wrapped in a priority queue\n\ncontract PQ4{\n    \n    List public First;\n    List temp;\n    \n    constructor () public {\n        \n        First = List(0);\n    }\n//******************** Enqueue() function ********************//\n    //A new integer will be added in its right position in the list\n    function Enqueue(uint256 _number) public returns (bool)\n    {\n        List newitem = new List (_number);\n        List current = First; \n        List previous = List(0);\n        \n        //we iterate through our list with 2 conditions:\n        while (current != List(0) && _number <= current.Number()) //The linkedlist is sorted in an descending order (descreasing)\n        {\n            previous = current;\n            current = current.next();\n            // we only exit this loop if we find the position to insert our data;\n        } \n        //now if we have to check if we have to insert the node to the begining of the list:\n        if (previous == List(0)) //it means the current is equal to first and in that case we have to insert the node as a new head\n        {\n            First = newitem; \n        }\n        else //the node next to the privious is no longer the current but it's our new node\n        {\n            previous.addNew(newitem);\n        }\n        \n        //and in all cases regardless of if it's a first node or not, we must say we have to say the node next to our new node is current\n        \n        newitem.addNew(current);\n        return true;\n    }\n//******************** RemoveMax() function ********************//    \n    //the highest priority item will be removed from the list and is returned by the function\n    function RemoveMax() public returns(uint256) \n    {\n        require (First != List(0), 'List is empty!'); //throws exception if the maxheap (BuyList) is empty\n        temp = First;\n        First.deletenode();\n        First = temp.next();\n        return (temp.Number());\n    }\n//******************** Dequeue() function ********************//    \n    //Emptying the list by iterating over it and deleting the highest priority number in each round (similar to match funtion in the call market)\n    function Dequeue() public returns (uint256) \n    {\n        while (isEmpty() != true)\n        {  \n            RemoveMax();\n        }\n    }\n//****************   Peek()  *********************//\n    //Retrieves, but does not remove, the head of this queue\n    function Peek() public  returns (uint256){\n        \n        require (First != List(0), 'List is empty!'); //throws exception if the List is empty\n        return (First.Number());\n        \n    }\n//****************   isEmpty()  *********************//\n    //checks if the List is empty \n    function isEmpty() public returns (bool){\n        \n        if (First == List(0))\n        {\n            return true;\n\n        }\n        else\n        {\n            return false;\n        }\n        \n    }\n\n}\n//*****************************************************************//\n//*******************  List Contract  ************************//\n//*****************************************************************//    \n    \ncontract List {\n    List public next;\n    uint256 public Number;\n    \n    constructor(uint256 _number) public {\n        \n        Number = _number;\n        next = List(0);\n    }\n   \n    function addNew(List _number) public {\n        \n        next = _number;\n       \n    }\n    function deletenode () public {\n        selfdestruct(block.coinbase);\n    }\n} ",
  "sourcePath": "/home/mahsa/ProjectRepo/2020-Orderbook/Code/New-Truffle/contracts/PQs_for_Unit_Testings/PQ4.sol",
  "compiler": {
    "name": "solc",
    "version": "0.5.16+commit.9c3226ce.Emscripten.clang"
  },
  "schemaVersion": "3.2.5",
  "updatedAt": "2020-09-15T15:37:55.415Z",
  "networkType": "ethereum",
  "devdoc": {
    "methods": {}
  },
  "userdoc": {
    "methods": {}
  }
}