{
  "contractName": "PQ5",
  "abi": [
    {
      "inputs": [],
      "payable": false,
      "stateMutability": "nonpayable",
      "type": "constructor"
    },
    {
      "constant": true,
      "inputs": [],
      "name": "Counter",
      "outputs": [
        {
          "internalType": "uint256",
          "name": "",
          "type": "uint256"
        }
      ],
      "payable": false,
      "stateMutability": "view",
      "type": "function"
    },
    {
      "constant": true,
      "inputs": [],
      "name": "Head",
      "outputs": [
        {
          "internalType": "uint256",
          "name": "",
          "type": "uint256"
        }
      ],
      "payable": false,
      "stateMutability": "view",
      "type": "function"
    },
    {
      "constant": true,
      "inputs": [
        {
          "internalType": "uint256",
          "name": "",
          "type": "uint256"
        }
      ],
      "name": "List",
      "outputs": [
        {
          "internalType": "uint256",
          "name": "Number",
          "type": "uint256"
        },
        {
          "internalType": "uint256",
          "name": "id",
          "type": "uint256"
        },
        {
          "internalType": "uint256",
          "name": "next",
          "type": "uint256"
        },
        {
          "internalType": "uint256",
          "name": "prev",
          "type": "uint256"
        }
      ],
      "payable": false,
      "stateMutability": "view",
      "type": "function"
    },
    {
      "constant": true,
      "inputs": [],
      "name": "Tail",
      "outputs": [
        {
          "internalType": "uint256",
          "name": "",
          "type": "uint256"
        }
      ],
      "payable": false,
      "stateMutability": "view",
      "type": "function"
    },
    {
      "constant": false,
      "inputs": [
        {
          "internalType": "uint256",
          "name": "_number",
          "type": "uint256"
        }
      ],
      "name": "Enqueue",
      "outputs": [
        {
          "internalType": "bool",
          "name": "",
          "type": "bool"
        }
      ],
      "payable": false,
      "stateMutability": "nonpayable",
      "type": "function"
    },
    {
      "constant": false,
      "inputs": [],
      "name": "Peek",
      "outputs": [
        {
          "internalType": "uint256",
          "name": "",
          "type": "uint256"
        }
      ],
      "payable": false,
      "stateMutability": "nonpayable",
      "type": "function"
    },
    {
      "constant": false,
      "inputs": [],
      "name": "RemoveMax",
      "outputs": [
        {
          "internalType": "uint256",
          "name": "",
          "type": "uint256"
        }
      ],
      "payable": false,
      "stateMutability": "nonpayable",
      "type": "function"
    },
    {
      "constant": false,
      "inputs": [],
      "name": "Dequeue",
      "outputs": [
        {
          "internalType": "uint256",
          "name": "",
          "type": "uint256"
        }
      ],
      "payable": false,
      "stateMutability": "nonpayable",
      "type": "function"
    },
    {
      "constant": false,
      "inputs": [],
      "name": "isEmpty",
      "outputs": [
        {
          "internalType": "bool",
          "name": "",
          "type": "bool"
        }
      ],
      "payable": false,
      "stateMutability": "nonpayable",
      "type": "function"
    }
  ],
  "bytecode": "0x608060405234801561001057600080fd5b5060008081905550600060018190555060016002819055506107e0806100376000396000f3fe608060405234801561001057600080fd5b50600436106100935760003560e01c80635fa76cfd116100665780635fa76cfd14610138578063681fe70c146101565780636dd5fa7b14610178578063b64456a714610196578063dd11eaf2146101b457610093565b80630c4a515c1461009857806327702186146100de5780634e56b8ef146100fc5780634eeca0761461011a575b600080fd5b6100c4600480360360208110156100ae57600080fd5b810190808035906020019092919050505061020b565b604051808215151515815260200191505060405180910390f35b6100e6610304565b6040518082815260200191505060405180910390f35b61010461032b565b6040518082815260200191505060405180910390f35b610122610331565b6040518082815260200191505060405180910390f35b610140610337565b6040518082815260200191505060405180910390f35b61015e61033d565b604051808215151515815260200191505060405180910390f35b61018061035a565b6040518082815260200191505060405180910390f35b61019e6103f1565b6040518082815260200191505060405180910390f35b6101e0600480360360208110156101ca57600080fd5b81019080803590602001909291905050506104db565b6040518085815260200184815260200183815260200182815260200194505050505060405180910390f35b6000610215610783565b600360008054815260200190815260200160002060405180608001604052908160008201548152602001600182015481526020016002820154815260200160038201548152505090505b6000816020015114158015610278575080600001518311155b156102ce576003600082604001518152602001908152602001600020604051806080016040529081600082015481526020016001820154815260200160028201548152602001600382015481525050905061025f565b6000816060015114156102ea576102e48361050b565b506102fa565b6102f881606001518461054e565b505b6001915050919050565b60005b6001151561031361033d565b151514610328576103226103f1565b50610307565b90565b60015481565b60025481565b60005481565b60008060005414156103525760019050610357565b600090505b90565b60008060005414156103d4576040517f08c379a000000000000000000000000000000000000000000000000000000000815260040180806020018281038252600e8152602001807f4c69737420697320656d7074792100000000000000000000000000000000000081525060200191505060405180910390fd5b600360008054815260200190815260200160002060000154905090565b60006103fb610783565b60036000805481526020019081526020016000206040518060800160405290816000820154815260200160018201548152602001600282015481526020016003820154815250509050600081600001519050600054600154141561046d57600080819055506000600181905550610499565b816040015160008190555060006003600084604001518152602001908152602001600020600301819055505b60036000836020015181526020019081526020016000206000808201600090556001820160009055600282016000905560038201600090555050809250505090565b60036020528060005260406000206000915090508060000154908060010154908060020154908060030154905084565b60008061051783610644565b9050610525816000546106dc565b61052e81610716565b50600060015414156105455761054381610728565b505b80915050919050565b6000600154831415610569576105638261073a565b5061063a565b610571610783565b6003600085815260200190815260200160002060405180608001604052908160008201548152602001600182015481526020016002820154815260200160038201548152505090506105c1610783565b60036000836040015181526020019081526020016000206040518060800160405290816000820154815260200160018201548152602001600282015481526020016003820154815250509050600061061885610644565b90506106288183602001516106dc565b6106368360200151826106dc565b5050505b6001905092915050565b6000806002549050600260008154809291906001019190505550610666610783565b6040518060800160405280858152602001838152602001600081526020016000815250905080600360008360200151815260200190815260200160002060008201518160000155602082015181600101556040820151816002015560608201518160030155905050806020015192505050919050565b8060036000848152602001908152602001600020600201819055508160036000838152602001908152602001600020600301819055505050565b60008160008190555060019050919050565b60008160018190555060019050919050565b60008060005414156107555761074f8261050b565b5061077a565b600061076083610644565b905061076e600154826106dc565b61077781610728565b50505b60019050919050565b604051806080016040528060008152602001600081526020016000815260200160008152509056fea265627a7a7231582017edfce3b9289b9d29259473c2280da087c4422b6f0be6616ddba12299c0020964736f6c63430005100032",
  "source": "pragma solidity >=0.4.22;\n\n//Linkedlist implemented with mapping wrapped in a priority queue\n\ncontract PQ5{\n    \n    constructor() public \n    {\n        Head = 0;\n        Tail = 0;\n        Counter = 1;\n    }\n    \n    struct Struct\n    {\n        \n        uint256 Number;\n        uint256 id;\n        uint256 next;\n        uint256 prev;\n    }\n\n    uint256 public Head;\n    uint256 public Tail;\n    uint256 public Counter;\n  \n    mapping (uint256 => Struct) public List;\n\n\n\n//******************** Enqueue() function ********************//\n    //A new integer will be added in its right position in the list\n    function Enqueue(uint256 _number) public returns (bool)\n    {\n        Struct memory current = List[Head];\n        while (current.id !=0 && _number <= current.Number) //The linkedlist is sorted in an desceding order (decreasing)\n        {\n            current = List[current.next];\n            // we only exit this loop if we find the position to insert our data;\n        }  \n        if (current.prev == 0) //it means the current is equal to first and in that case we have to insert the node as a new head\n        {\n            List_AddHead(_number);\n        }\n        else //the node next to the privious is no longer the current but it's our new node\n        {\n            List_InsertAfter(current.prev, _number);           \n        }\n        return true; \n       \n    \n    }    \n\n//******************** List_InsertAfter() function ********************//\n    function List_InsertAfter(uint256 _prevId, uint256 _number) internal returns (bool)\n    {\n        \n        if (_prevId == Tail) {\n            List_AddTail(_number);\n        }\n        else{\n            Struct memory prevOrder = List[_prevId];\n            Struct memory nextOrder = List[prevOrder.next];\n            uint256 newOrderId = List_CreateObject(_number);\n            List_Link(newOrderId, nextOrder.id);\n            List_Link(prevOrder.id, newOrderId);  \n        }\n        return true;\n    }\n\n    \n//******************** List_AddTail() function ********************//\n    function List_AddTail(uint256 _number) internal returns (bool)\n    {\n        \n        if (Head == 0) {\n            List_AddHead(_number);\n        }\n        else {\n            uint256 orderId = List_CreateObject(_number);\n            List_Link(Tail, orderId);\n            List_SetTail(orderId);\n        }\n        \n        return true;\n    }\n//******************** List_SetTail() function ********************//\n    function List_SetTail(uint256 _id) internal returns(bool)\n    {\n        Tail = _id;\n        return true;\n    }\n//******************** List_AddHead() function ********************//\n    function List_AddHead(uint256 _number) internal returns (uint256)\n    {\n        uint256 orderId = List_CreateObject(_number);\n        List_Link(orderId, Head);\n        List_SetHead(orderId);\n        if (Tail == 0) List_SetTail(orderId);\n        return orderId;\n    }\n//******************** List_SetHead() function ********************//\n    function List_SetHead(uint256 _id) internal returns(bool)\n    {\n        Head = _id;\n        return true;\n    }      \n    \n//******************** List_CreateObject() function ********************//\n    function List_CreateObject(uint256 _number) internal returns (uint256)\n    {\n        uint256 newId = Counter;\n        Counter ++;\n        Struct memory order = Struct(_number,newId, 0, 0);\n        List[order.id] = order;\n        return order.id;\n    }\n//******************** List_CreateObject() function ********************//\n    function List_Link(uint256 _prevId, uint256 _nextId) internal\n    {\n        List[_prevId].next = _nextId;\n        List[_nextId].prev = _prevId;   \n    }\n//****************   Peek()  *********************//\n    //Retrieves, but does not remove, the head of this queue\n    function Peek() public  returns (uint256){\n        \n        require (Head != 0, 'List is empty!'); //throws exception if the List is empty\n        return (List[Head].Number);\n        \n    }\n//******************** RemoveMax() function ********************//    \n    //the highest priority item will be removed from the list and is returned by the function\n    function RemoveMax() public returns (uint256)\n    {\n        \n        Struct memory removeObject = List[Head];\n        uint256 _number =  removeObject.Number;\n\n        if (Tail == Head)\n        {\n            Head = 0;\n            Tail = 0;\n            \n        }\n        else\n        {\n            Head = removeObject.next;\n            List[removeObject.next].prev = 0;\n            \n        }\n        \n        delete List[removeObject.id];\n        return (_number); \n        \n        \n\n\n        /* OrderStruct memory removeObject = BuyList[BuyHead];\n        BuyList_SetHead(removeObject.next);\n        BuyList[removeObject.next].prev = 0;\n        \n        if (BuyTail == BuyHead)\n        {\n            BuyList_SetHead(0);\n            BuyList_SetTail(0);\n        }\n        else\n        {\n            BuyList_SetHead(removeObject.next);\n            BuyList[removeObject.next].prev = 0;\n            BuyList_Link(removeObject.prev, removeObject.next);\n        }\n        uint256 _price =  removeObject.Price;\n        address _sender = removeObject.Sender;\n        delete BuyList[removeObject.id];\n        return (_price,_sender); */\n    \n    }\n//******************** Dequeue() function ********************//    \n    //Emptying the list by iterating over it and deleting the highest priority number in each round (similar to match funtion in the call market)\n    function Dequeue() public returns (uint256) \n    {\n        while (isEmpty() != true)\n        {  \n            RemoveMax();\n        }\n    }\n\n//****************   isEmpty()  *********************//\n    //checks if the List is empty\n    function isEmpty() public returns (bool){\n        \n        if (Head == 0)\n        {\n            return true;\n\n        }\n        else\n        {\n            return false;\n        }\n        \n    }\n\n}",
  "sourcePath": "/home/mahsa/ProjectRepo/2020-Orderbook/Code/New-Truffle/contracts/PQs_for_Unit_Testings/PQ5.sol",
  "compiler": {
    "name": "solc",
    "version": "0.5.16+commit.9c3226ce.Emscripten.clang"
  },
  "schemaVersion": "3.2.5",
  "updatedAt": "2020-09-15T15:37:55.422Z",
  "networkType": "ethereum",
  "devdoc": {
    "methods": {}
  },
  "userdoc": {
    "methods": {}
  }
}